:020000040800F2
:1000000000000520F90200085D7A0008617A000806
:10001000657A0008697A00086D7A0008000000001F
:100020000000000000000000000000000D040008B7
:10003000717A000800000000150400080D5800083F
:1000400029040008290400082904000829040008DC
:1000500029040008290400082904000829040008CC
:1000600029040008290400082904000829040008BC
:1000700029040008290400082904000829040008AC
:10008000290400082904000829040008290400089C
:10009000290400082904000829040008290400088C
:1000A000290400082904000829040008290400087C
:1000B00029040008B56E0008C56E00082904000870
:1000C000290400082904000829040008290400085C
:1000D000290400082904000829040008290400084C
:1000E000290400082904000829040008290400083C
:1000F000290400082904000829040008290400082C
:10010000290400082904000829040008290400081B
:10011000290400082904000829040008290400080B
:1001200029040008290400082904000829040008FB
:1001300029040008290400082904000829040008EB
:1001400029040008290400082904000829040008DB
:1001500029040008290400082904000829040008CB
:1001600029040008290400082904000829040008BB
:1001700029040008290400082904000800000000E0
:10018000290400082904000829040008290400089B
:10019000290400082904000829040008290400088B
:1001A000290400082904000829040008290400087B
:1001B000290400082904000829040008290400086B
:1001C000290400082904000800B583B003F010FDDD
:1001D000384B394A1360394A136039490CE00A68D0
:1001E0004B6801F10C04886803E01168196004335E
:1001F00004329842F9D82146324B9942EFD32E4B24
:100200001A68314B9A4204D12C4B1A682F4B9A42F0
:1002100000D0FEE7274B2E4A13602E4A13602E4B68
:100220000AE0194651F8082B5B6802E000201060D4
:1002300004329A42FAD30B46284A9342F1D3244B14
:100240001B6813B9234B1B6803B1FEE704F086FB60
:10025000694601A803F04AFC214C224B1C1BA41048
:10026000002504E01E4B53F8253098470135AC4279
:10027000F8DC1D4C1D4B1C1BA410002504E01A4B80
:1002800053F8253098470135AC42F8DC00990198C5
:1002900006F076FE0546164C164B1C1BA41004E017
:1002A000013C134B53F824309847002CF8DC2846C7
:1002B00003F0EEFBBABADECA00000020EC04002016
:1002C0002C040008440400087856341232547698FE
:1002D000F0040020D449002044040008540400081D
:1002E000540400085404000854040008540400088E
:1002F000540400085404000808B5FFF765FF00BF68
:1003000000BEFEE71EF0040F0CBFEFF30880EFF312
:1003100009807146414A10472DE9F04182B00446F8
:100320008846134B5E6B9F6B9D6A1B6B13F0020F2D
:100330000DD00F4BDB6A002B09DA4BF6AB6103F0F3
:10034000E1FC20B14FF00042094BDA620CE00948B1
:1003500003F0DEFBCDF800803B46324629462046BE
:1003600003F058FC00BEFEE702B0BDE8F08100BF1C
:1003700000ED00E004AB000800BEFEE71EF0040F35
:100380000CBFEFF30880EFF309807146244A104751
:100390002DE9F04182B004468846084B5E6B9F6BA6
:1003A0009D6A074803F0B4FBCDF800803B46324617
:1003B0002946204603F02EFC00BEFEE700ED00E0DB
:1003C00014AB00081EF0040F0CBFEFF30880EFF32E
:1003D00009807146134A10472DE9F04182B0044666
:1003E0008846084B5E6B9F6B9D6A074803F090FB45
:1003F000CDF800803B4632462946204603F00AFCF1
:1004000000BEFEE700ED00E020AB000800BEFEE706
:1004100000BEFEE700BEFEE77047000019030008BB
:0C04200091030008D903000800BEFEE7AD
:10042C004470010800000020F00400204470010812
:10043C000000001000000010F0040020D84900203B
:08044C00000000100000001088
:1004800010B5044602F046F8064BA3FB0030800985
:1004900000F01CFC002221464FF0FF3000F0C0FBB2
:1004A000002010BDD34D621008B5032000F09AFB68
:1004B0000020FFF7E5FF07F0CFFA002008BD00BFDE
:1004C000024A136801331360704700BFF404002030
:1004D000014B1868704700BFF404002010B50446B3
:1004E000504B5A6822F440325A60596842680A43B5
:1004F0005A600268536823F480735360026853683B
:10050000016943EA012353600268536823F0407392
:1005100053600268516883680B43536002689368B4
:1005200023F40063936002689168C3680B4393608F
:10053000826A3D4B9A4214D00268936823F070633C
:10054000936002689168836A0B43936002689368C2
:1005500023F04053936002689168C36A0B43936031
:1005600009E00268936823F07063936002689368FF
:1005700023F0405393602268936823F00203936052
:1005800022689368A16943EA41039360236A03B335
:10059000636A013B072B04D940F20F61234803F043
:1005A000ADFA2268536843F40063536022685368CD
:1005B00023F460435360636A013B4FF4604292FA54
:1005C000A2F2B2FA82F2934021684A6813434B6068
:1005D00004E02268536823F4006353602268D36AFE
:1005E00023F47003D3622168CA6AE369013B42EADB
:1005F0000353CB622268936823F4007393602268EC
:100600009368216B43EA412393602268936823F443
:100610008063936022689368616943EA81239360F1
:1006200010BD00BF002301400100000F70A70008AB
:10063000704700BF002800F0DD8010B50446036855
:100640006D4A6E498B4218BF934208D002F5807202
:10065000934204D04FF48771694803F04FFA6368FE
:10066000002B18BFB3F5803F0AD0B3F5003F07D089
:10067000B3F5403F04D040F20F11614803F03EFA59
:10068000A368002B18BFB3F1807F0AD0B3F1007FBD
:1006900007D0B3F1407F04D04FF48871584803F07D
:1006A0002DFA2369012B04D940F21111544803F0AB
:1006B00025FAA369012B04D94FF48971504803F03E
:1006C0001DFAA36A002B18BFB3F1807F2ED0B3F1BF
:1006D000007F2BD0B3F1407F28D0B3F1806F25D0BD
:1006E000B3F1A06F22D0B3F1C06F1FD0B3F1E06FB0
:1006F0001CD0B3F1006F19D0B3F1106F16D0B3F165
:10070000206F13D0B3F1306F10D0B3F1406F0DD024
:10071000B3F1506F0AD0B3F1706F07D0394A9342EA
:1007200004D040F21311364803F0E8F9E368002BD7
:1007300018BFB3F5006F04D04FF48A71304803F04E
:10074000DDF9E369013B0F2B04D940F215112C4868
:1007500003F0D4F9236B012B04D94FF48B71284893
:1007600003F0CCF96369022B04D940F21711244835
:1007700003F0C4F9236A012B04D94FF48C7120488B
:1007800003F0BCF9A26A1F4B9A4210D0E36A002B17
:1007900018BFB3F1805F0AD0B3F1005F07D0B3F1A7
:1007A000405F04D04FF48E71154803F0A7F9236C15
:1007B0002BB9636484F83C302046FFF739FF236C83
:1007C00013F0100F11D1226C0F4B134043F00203B2
:1007D00023642046FFF782FE00206064236C23F030
:1007E000030343F00103236400E00120002384F8A5
:1007F0003C3010BD01207047002101400020014025
:1008000070A700080100000FFDEEFFFF10B582B0D9
:100810000446002301938369012B04D94FF4DD7151
:10082000414803F06BF9E36A002B18BFB3F1805F16
:100830000AD0B3F1005F07D0B3F1405F04D040F2BB
:10084000BB11394803F05AF994F83C30012B5FD0C2
:10085000012384F83C3023689A6812F0010F13D109
:100860009A6842F001029A60304B1B68304AA2FB42
:1008700003239B0C03EB4303019302E0019B013B29
:100880000193019B002BF9D12268936813F0010FAB
:1008900040D0216C274B0B4043F480732364536892
:1008A00013F4806F05D0236C23F4405343F480533A
:1008B0002364236C13F4805F04D0636C23F006037D
:1008C000636401E000236364002384F83C306FF02C
:1008D00002031360184B5B6813F01F0F0AD12368E3
:1008E0009A6812F0405F17D19A6842F080429A608D
:1008F000002016E02368114A93420FD19A6812F043
:10090000405F0DD19A6842F080429A60002008E072
:10091000022006E0002004E0002002E0002000E0C9
:10092000002002B010BD00BF70A700080C0000201E
:1009300083DE1B43FEF8FFFF00230140002001403F
:1009400070B503689A6812F4806F0CD09B6813F43A
:10095000807F08D0036C43F020030364002380F8F9
:100960003C30012070BD0D460446FFF7B1FD064640
:1009700011E0B5F1FF3F0ED025B1FFF7A9FD801BB7
:10098000854208D2236C43F004032364002384F8D7
:100990003C30032070BD23681A6812F0020FE8D0C3
:1009A0006FF012021A60236C43F40073236423680F
:1009B0009A6812F0405F17D1A269BAB9DA6A12F4E4
:1009C000700F03D09B6813F4806F11D1236C23F454
:1009D00080732364236C13F4805F0BD1236C43F08A
:1009E00001032364002070BD002070BD002070BD95
:1009F000002070BD002070BD0368D86C704700BF38
:100A000030B583B005460C46002301930B686E4A4F
:100A1000934218BF122B04D940F2FB416B4803F0FC
:100A20006DF86368013B0F2B04D940F2FC41674825
:100A300003F064F8A368072B04D940F2FD41634832
:100A400003F05CF895F83C30012B00F0BA800123EC
:100A500085F83C302368092B22D92868C2689BB2EC
:100A600003EB43031E3B072101FA03F322EA0303CE
:100A7000C3602368544A934206D12A68D368A168A8
:100A800043EA0163D3601FE02968C868A2689BB28B
:100A900003EB43031E3B02FA03F30343CB6013E073
:100AA000286802699BB203EB4303072101FA03F3B1
:100AB00022EA0303036129680869A368228802EB1C
:100AC0004202934003430B616368062B16D82868E3
:100AD000426B03EB8303053B1F2101FA03F322EA78
:100AE000030343632968486B636803EB8303053B97
:100AF000228802FA03F303434B632EE00C2B16D833
:100B00002868026B03EB8303233B1F2101FA03F3E5
:100B100022EA030303632968086B636803EB83031A
:100B2000233B228802FA03F303430B6315E0286892
:100B3000C26A03EB8303413B1F2101FA03F322EA5C
:100B40000303C3622968C86A636803EB8303413BFC
:100B5000228802FA03F30343CB622A681C4B9A42B1
:100B600007D12368122B04D11A4A536843F4800337
:100B700053602A68164B9A421FD12368124A112BE0
:100B800018BF934219D1134A536843F400035360CA
:100B900022680D4B9A4210D10F4B1B680F4AA2FBE3
:100BA00003239B0C03EB83035A00019202E0019B99
:100BB000013B0193019B002BF9D1002085F83C00FB
:100BC00000E0022003B030BD1200001070A7000842
:100BD00000200140002301400C00002083DE1B4365
:100BE000006C704710B50446C31E042B03D9A42122
:100BF000084802F083FF084AD36823F4E0631B042B
:100C00001B0C240204F4E0641C43044B2343D36014
:100C100010BD00BFA0A7000800ED00E00000FA052D
:100C200070B504460E4615460F2A03D9BC21184854
:100C300002F064FF0F2E03D9BD21154802F05EFFBC
:100C4000144BDA68C2F30222C2F10701042928BF5B
:100C50000421131D062B01D9033A00E000220123D1
:100C600003FA01F101393140914003FA02F2013AED
:100C70002A400A43002C06DA04F00F041201D2B213
:100C8000054B1A5570BD1201D2B2044B1A5570BDF6
:100C9000A0A7000800ED00E014ED00E000E400E093
:100CA00010B5041E03DAD021064802F027FF6209BE
:100CB00004F01F04012303FA04F4034B43F8224019
:100CC00010BD00BFA0A7000800E100E00138B0F1AE
:100CD000807F0AD2064B5860F021064A82F8231022
:100CE0000020986007221A6070470120704700BFFB
:100CF00010E000E000ED00E010B50446042818BF45
:100D0000002804D040F2B311084802F0F7FE042C8A
:100D100005D1074A136843F00403136010BD044A69
:100D2000136823F00403136010BD00BFA0A70008E0
:100D300010E000E0704700BFC8B110B5044602687B
:100D40000C4B9A4203D0EE210B4802F0D7FE2379D8
:100D500013F0FF0F04D1002363712046FFF7EAFF71
:100D600002232371002020610123237110BD012083
:100D7000704700BF00740040D4A7000838B504468F
:100D80000D46002918BF102904D04FF4B7711C4834
:100D900002F0B4FE6379012B30D00123637102228B
:100DA000227122681168AB400B43136085B9226839
:100DB0001168136803F03803382B14BF0023012394
:100DC00013EA910315D0536843F00103536010E018
:100DD00022681168136803F46013B3F5601F14BF31
:100DE0000023012313EA914303D0536843F0020325
:100DF0005360012323710020607138BD022038BD8B
:100E0000D4A70008F8B504460E4615460B68002B1B
:100E100018BF242B12D00C2B10D0142B0ED01C2B4F
:100E20000CD0042B0AD02C2B08D0342B06D03C2B12
:100E300004D040F20E311C4802F060FE7368002BB3
:100E400018BF022B04D040F20F31174802F056FEB3
:100E5000002D18BF102D04D04FF44471124802F039
:100E60004DFE6379012B1CD0012060710223237198
:100E700027683A6840F6FE73AB4022EA0301336804
:100E800072681343AB400B433B6021680B68C02280
:100E900002FA05F523EA05050D6020710020607156
:100EA000F8BD0220F8BD00BFD4A70008F0B583B09C
:100EB000074614461D46002301930E46994218BF6B
:100EC000102904D040F24631134802F017FE002CDE
:100ED00018BF042C06D0082C04D040F247310E482D
:100EE00002F00CFE4FF6F0739D4204D94FF452719C
:100EF000094802F003FE3B68019326B9019B1C449C
:100F00000834019403E0019B1C4414340194019BB8
:100F10001D60002003B0F0BDD4A700082DE9F04704
:100F200082B080460F46B34BB34A904218BF9842F6
:100F30002BD003F50063C31A18BF012302F500622A
:100F4000904222D00BB3AD4BC31A18BF012302F558
:100F50000062904219D0C3B1A94BC31A18BF012334
:100F600002F50062904210D07BB1A64BC31A18BFA5
:100F7000012302F50062904207D033B1A24B9842A0
:100F800003D0C321A14802F0B9FD3B881BB9C4219D
:100F90009E4802F0B3FD7B68112B18BF012B20D9AE
:100FA000022B1ED0122B1CD0994A934219D002F565
:100FB0008012934215D002F58012934211D0A2F50F
:100FC000F81293420DD002F58012934209D002F537
:100FD0008012934205D0032B03D0C5218B4802F029
:100FE0008DFDBB68022B03D9C621884802F086FD1F
:100FF0000025F9E00124AC403E682640B44240F0B0
:10100000F2807B68122B18BF022B1CD13B690F2B7F
:1010100018BF0C2B07D90D2B05D00E2B03D0D721D1
:101020007A4802F06BFDEA08083258F8220005F011
:10103000070399000F238B4020EA03003B698B4094
:10104000034348F82230D8F800304FEA450A4FF001
:10105000030909FA0AF96FEA090903EA09027B6838
:1010600003F0030303FA0AF31343C8F800307B6864
:101070005A1E112B18BF012A01D9122B1BD1FB6854
:10108000032B03D9EB21614802F038FDD8F8083072
:1010900009EA0302FB6803FA0AF31343C8F80830AD
:1010A000D8F8043023EA04047B68C3F30013AB4090
:1010B0001C43C8F80440D8F80C3009EA0309BB689F
:1010C00003FA0AF349EA0303C8F80C307B6813F00B
:1010D000805F00F08880002301934E4B5A6C42F4ED
:1010E00080425A645B6C03F480430193019BA9081E
:1010F0008A1C494B53F8220005F003039B000F2282
:101100009A4020EA02003C4A904525D002F58062D0
:10111000904523D002F58062904521D002F580628F
:1011200090451FD002F5806290451DD002F5806287
:1011300090451BD002F58062904519D002F580627F
:10114000904517D002F58062904515D002F5806277
:10115000904513D1092212E0002210E001220EE096
:1011600002220CE003220AE0042208E0052206E045
:10117000062204E0072202E0082200E00A2202FA26
:1011800003F303430231244A42F82130234B1A6807
:10119000F34302EA0301786810F4803F01D046EA85
:1011A00002011E4A1160526803EA0201786810F4D5
:1011B000003F01D046EA0201184A5160926803EAF2
:1011C0000201786810F4801F01D046EA0201134A38
:1011D0009160D2681340796811F4001F01D046EA8B
:1011E00002030E4AD36001350F2D7FF603AF02B024
:1011F000BDE8F087000402400000024000140240F5
:10120000001C0240002402400028024004A80008FC
:10121000000011100038024000380140003C01403D
:1012200038B505460C4621B940F28D11044802F04C
:1012300065FC2B691C4201D0012038BD002038BD5F
:1012400004A8000870B5064615460C4621B940F2C0
:10125000AD11084802F052FC012D04D94FF4D771AA
:10126000044802F04BFC0DB1B46170BD2404B461BC
:1012700070BD00BF04A800082DE9F04180460C466F
:1012800017461E46069D0368204A21498B4218BF17
:1012900093420CD002F58062934208D002F580623E
:1012A000934204D041F259011A4802F027FCB6F1EA
:1012B000807F18BFB6F1007F05D026B141F25A01F8
:1012C000144802F01BFCB5F5804F18BFB5F5105F50
:1012D0000BD02B1C18BF0123B5F5005F05D023B13F
:1012E00041F25B010B4802F009FCD8F800104B6892
:1012F000094A1A40C4F3090343EA0743334345EA62
:10130000030442EA04034B60BDE8F081005800404A
:101310000054004034A80008009800FC70B5044652
:101320000D46FFF7D5F8064623689B6913F0100FAA
:1013300012D1002070BDB5F1FF3F0DD025B1FFF7F0
:10134000C7F8801B854207D2012384F8353000237B
:1013500084F83430032070BD23689A6912F0200F9E
:10136000E9D01022DA6123682022DA6123689A69C1
:1013700012F0010F01D10122DA612268536823F0D3
:10138000FF7323F48B3323F4FF7323F001035360C3
:101390000423A363012084F83500002384F834304B
:1013A00070BD00BF70B504460D46FFF791F80646C4
:1013B00019E029462046FFF7B1FFD8B9B5F1FF3F44
:1013C00011D025B1FFF784F8801B85420BD2A36BA7
:1013D00043F02003A363012384F83530002384F80D
:1013E0003430032070BD23689B6913F0020FE0D0F6
:1013F000002070BD012070BD2DE9F04105460E466C
:1014000090461C46FFF764F80746B8F1000F12D06B
:101410002EE0B4F1FF3F0ED024B1FFF759F8C01B06
:10142000844208D2012385F83530002385F8343012
:101430000320BDE8F0812B689B6926EA0303C3F310
:101440001003002BE5D10020BDE8F081B4F1FF3F8F
:101450000ED024B1FFF73CF8C01B844208D2012310
:1014600085F83530002385F834300320BDE8F0815D
:101470002B689B6926EA0303C3F31003002BE5D016
:101480000020BDE8F08100BF70B505460C46FFF7AF
:101490001FF8064616E021462846FFF73FFFC0B971
:1014A00024B1FFF715F8801B84420BD2AB6B43F0DD
:1014B0002003AB63012385F83530002385F83430F1
:1014C000032070BD2B689B6913F0200FE3D0002030
:1014D00070BD012070BD00BF70B504460D46FEF71B
:1014E000F7FF064631E029462046FFF717FF0028A0
:1014F00032D123689A6912F0200F14D02022DA61C9
:101500002268536823F0FF7323F48B3323F4FF73B3
:1015100023F0010353600023A363012084F8350006
:1015200084F8343070BD25B1FEF7D2FF801B8542B0
:101530000BD2A36B43F02003A363012384F835305F
:10154000002384F83430032070BD23689B6913F0B6
:10155000040FC8D0002070BD012070BD002800F02D
:10156000A88010B504460368534A54498B4218BFFB
:1015700093420CD002F58062934208D002F580625B
:10158000934204D040F22B114D4802F0B7FAA36801
:10159000B3F5806F04D34FF49671494802F0AEFA68
:1015A000E368013B012B04D940F22D11444802F0BD
:1015B000A5FA2369002B18BFB3F5004F04D04FF4F0
:1015C00097713F4802F09AFA6369FF2B04D940F201
:1015D0002F113B4802F092FAA369072B04D94FF46C
:1015E0009871374802F08AFAE369002B18BFB3F507
:1015F000002F04D040F23111314802F07FFA236A03
:10160000002B18BFB3F5003F04D04FF499712C485C
:1016100002F074FA94F8353013F0FF0F05D100236F
:1016200084F83430204603F095FD022384F83530E9
:101630002268136823F0010313602268636823F0B3
:10164000706313612268936823F400439360A36876
:101650005BB1E268012A04D1226843F4004393603D
:1016600003E0226843F404439360E368022B03D150
:1016700023684FF400625A6022685168114B0B4393
:1016800053602268216963690B43A16943EA01231E
:10169000D3602268E169236A0B43136022681368F0
:1016A00043F0010313600020A063012384F8353068
:1016B00010BD0120704700BF00580040005400409A
:1016C00034A8000800800002704700BF38B310B58E
:1016D00004460368134A14498B4218BF93420CD046
:1016E00002F58062934208D002F58062934204D0F2
:1016F00040F27D110D4802F001FA022384F83530E2
:101700002268136823F0010313602046FFF7DCFF13
:101710000020A06384F8350084F8340010BD012057
:10172000704700BF005800400054004034A8000833
:101730002DE9F04383B01D4690F83530DBB2012B24
:1017400040F0918004460F461646002D18BF002A2F
:1017500000F08B8003689B6913F4004F40F0878092
:1017600090F83430012B00F08480012380F834306D
:10177000122380F8353000238363FF2D0AD94FF4FC
:10178000005300934FF08073FF22FFF775FD4FF079
:10179000FF080AE04FF4005300934FF00073EAB2E1
:1017A000FFF76AFDA84600E04E460A992046FFF77B
:1017B000F9FD20B1A36B042B5DD1012360E0236808
:1017C00006F1010932789A62013DADB2B8F1010823
:1017D0000CBF01230023002D0CBF002303F00103E5
:1017E000FBB10A9B002280212046FFF705FE00285E
:1017F00043D1FF2D0BD9002300934FF08073FF22BC
:1018000039462046FFF738FD4FF0FF0809E0002376
:1018100000934FF00073EAB239462046FFF72CFDE3
:10182000A846002DC0D10A992046FFF72DFE034699
:1018300020B1A36B042B22D1012321E022682021B7
:10184000D16121684A6822F0FF7222F48B3222F4BF
:10185000FF7222F001024A60012284F83520002242
:1018600084F834200CE002230AE0012308E002237C
:1018700006E0022304E0032302E0032300E0032345
:10188000184603B0BDE8F0832DE9F04383B01D4650
:1018900090F83530DBB2012B40F0918004460F46C2
:1018A0001646002D18BF002A00F08B8003689B6944
:1018B00013F4004F40F0878090F83430012B00F093
:1018C0008480012380F83430222380F835300023CF
:1018D0008363FF2D0AD94FF4105300934FF08073A8
:1018E000FF22FFF7C9FC4FF0FF080AE04FF4105346
:1018F00000934FF00073EAB2FFF7BEFCA84600E089
:101900004E4604212046FFF7E7FD20B1A36B042BD0
:101910005DD1012360E006F1010923685B6A337041
:10192000013DADB2B8F101080CBF01230023002D29
:101930000CBF002303F00103FBB10A9B00228021AE
:101940002046FFF759FD002843D1FF2D0BD9002376
:1019500000934FF08073FF2239462046FFF78CFC3E
:101960004FF0FF0809E0002300934FF00073EAB244
:1019700039462046FFF780FCA846002DC0D119212A
:101980002046FFF781FD034620B1A36B042B22D133
:10199000012321E022682021D16121684A6822F0D8
:1019A000FF7222F48B3222F4FF7222F001024A60AD
:1019B000012284F83520002284F834200CE0022330
:1019C0000AE0012308E0022306E0022304E00323E7
:1019D00002E0032300E00323184603B0BDE8F083D0
:1019E0002DE9F04782B00024019490F83540E4B22C
:1019F000012C40F08C800468A46914F4004F40F07E
:101A0000888090F83440012C00F085801F46904675
:101A100089460646012380F83430022380F83530A9
:101A2000002383633268F368012B04D1C9F30901F1
:101A30003E4B0B4303E0C9F3090343F420535360C7
:101A4000FEF746FD824611E0B7F1FF3F0ED02FB101
:101A5000FEF73EFDCAEB0000874207D2012386F85D
:101A60003530002386F8343003235BE03568AB69FA
:101A700013F0200F08D1AB6913F0100F04D196F8C2
:101A80003540E4B2032CDFD1AB6913F0100F12D153
:101A90003B46002220213046FFF7AEFC03460028DB
:101AA0003BD132682021D161012286F83520002205
:101AB00086F8342036E03B46002220213046FFF7EE
:101AC0009BFC60BB33681022DA6133682022DA6144
:101AD000019B5A1C019243450ED13268536843F46E
:101AE000804353603B46002220213046FFF784FCB0
:101AF000B8B933682022DA61019B984592D8012356
:101B000086F83530002386F8343003230AE00223B8
:101B100008E0022306E0022304E0032302E003239B
:101B200000E00323184602B0BDE8F0870020000261
:101B300010B582B0002301931C4B1A6C42F0805206
:101B40001A641B6C03F080530193019B184A1368BD
:101B500043F480331360FEF7BBFC044605E0FEF758
:101B6000B7FC001BB0F57A7F1AD8114B5B6813F4F1
:101B7000803FF4D00E4A136843F400331360FEF73D
:101B8000A7FC044605E0FEF7A3FC001BB0F57A7F36
:101B900008D8074B5B6813F4003FF4D0002002E044
:101BA000032000E0032002B010BD00BF0038024057
:101BB0000070004030B583B0044603680F2B04D991
:101BC0004FF480719A4801F099FF236813F0010FD8
:101BD00000F08E806368002B18BFB3F5803F07D0FC
:101BE000B3F5A02F04D04FF48371914801F086FF24
:101BF000904B9B6803F00C03042B0AD08D4B9B6821
:101C000003F00C03082B0DD18A4B5B6813F4800F93
:101C100008D0884B1B6813F4003F69D06368002B21
:101C200066D159E2834B1A6822F480321A601A682E
:101C300022F480221A601A6822F480321A60FEF7B9
:101C400047FC054605E0FEF743FC401B642800F214
:101C50004582784B1B6813F4003FF4D1754A136832
:101C600023F4803313606368B3F5803F09D11346D2
:101C7000126822F480221A601A6842F480321A60D4
:101C800015E0B3F5A02F09D16A4B1A6842F48022FF
:101C90001A601A6842F480321A6008E0654B1A68CC
:101CA00022F480221A601A6822F480321A60636873
:101CB0007BB1FEF70DFC054605E0FEF709FC401B75
:101CC000642800F20D825B4B1B6813F4003FF4D0D4
:101CD0000EE0FEF7FDFB054605E0FEF7F9FB401BB5
:101CE000642800F2FF81534B1B6813F4003FF4D1CA
:101CF000236813F0020F6ED0E368012B04D940F281
:101D000047114B4801F0FAFE23691F2B04D94FF409
:101D1000A471474801F0F2FE464B9B6813F00C0F8C
:101D20000AD0444B9B6803F00C03082B1BD1414B9A
:101D30005B6813F4800F16D13E4B1B6813F0020F43
:101D400003D0E368012B40F0CF813A48036823F0C9
:101D5000F8012369F82292FAA2F2B2FA82F29340D1
:101D60000B43036037E0E3680BB3324A136843F078
:101D700001031360FEF7ACFB054605E0FEF7A8FB88
:101D8000401B642800F2B2812A4B1B6813F0020F3B
:101D9000F4D02848036823F0F8012369F82292FA66
:101DA000A2F2B2FA82F293400B43036013E0214A9D
:101DB000136823F001031360FEF78AFB054605E074
:101DC000FEF786FB401B642800F29281194B1B68CA
:101DD00013F0020FF4D1236813F0080F37D06369B2
:101DE000012B04D94FF4C471114801F087FE6369D7
:101DF000A3B1104A536F43F001035367FEF768FB2A
:101E0000054605E0FEF764FB401B642800F2728182
:101E1000084B5B6F13F0020FF4D018E0054A536FC4
:101E200023F001035367FEF753FB05460AE000BFAA
:101E300074A8000800380240FEF74AFB401B6428E3
:101E400000F25A81B54B5B6F13F0020FF4D1236897
:101E500013F0040F00F09480A368052B18BF012B2A
:101E600004D94FF4D971AE4801F048FE0023019324
:101E7000AA4B1A6C42F080521A641B6C03F0805318
:101E80000193019BA74A136843F480731360FEF724
:101E90001FFB054605E0FEF71BFB401B642800F214
:101EA0002D81A04B1B6813F4807FF4D09B4B1A6FDD
:101EB00022F001021A671A6F22F004021A671A6FE1
:101EC00022F001021A67FEF703FB054607E0FEF762
:101ED000FFFA401B41F28833984200F211818F4B88
:101EE0001B6F13F0020FF2D18C4A136F23F0010322
:101EF0001367A368012B09D11346126F22F0040265
:101F00001A671A6F42F001021A6714E0052B09D113
:101F1000824B1A6F42F004021A671A6F42F00102F4
:101F20001A6708E07D4B1A6F22F004021A671A6FD5
:101F300022F001021A67A3688BB1FEF7C9FA0546C1
:101F400007E0FEF7C5FA401B41F28833984200F2E1
:101F5000D980724B1B6F13F0020FF2D010E0FEF726
:101F6000B7FA054607E0FEF7B3FA401B41F28833A3
:101F7000984200F2C980694B1B6F13F0020FF2D137
:101F8000A369022B04D94FF4FB71654801F0B6FD3B
:101F9000A369002B00F0BA80604A926802F00C023C
:101FA000082A00F0B580022B40F08180E369002B05
:101FB00018BFB3F5800F04D040F2FF11584801F06C
:101FC0009DFD236A023B3D2B04D94FF40071544818
:101FD00001F094FD636A323BB3F5BF7F04D940F250
:101FE00001214F4801F08AFDA36A022B18BF042B80
:101FF00008D0062B06D0082B04D040F20221484816
:1020000001F07CFDE36A023B0D2B04D940F2032171
:10201000434801F073FD414A136823F08073136055
:10202000FEF756FA054604E0FEF752FA401B642814
:1020300070D83A4B1B6813F0007FF5D1216A636AB0
:1020400047F6C07292FAA2F2B2FA82F293401943B2
:10205000A36A5B085A1E4FF4403393FAA3F3B3FA12
:1020600083F302FA03F30B43E2691343E26A4FF08E
:10207000706191FAA1F1B1FA81F18A40134343F002
:102080000053264A5360136843F080731360FEF7D1
:102090001FFA044604E0FEF71BFA001B64283BD835
:1020A0001E4B1B6813F0007FF5D000203DE01B4A5B
:1020B000136823F080731360FEF70AFA044604E005
:1020C000FEF706FA001B64282ED8144B1B6813F089
:1020D000007FF5D1002028E0012026E0032024E045
:1020E000032022E0032020E001201EE003201CE06A
:1020F00003201AE0032018E0032016E0032014E078
:10210000032012E0032010E003200EE000200CE08A
:1021100001200AE0032008E0032006E00038024026
:1021200074A8000800700040032003B030BD00BF59
:1021300070B504460D460368013B0E2B04D940F2EE
:102140006221894801F0DAFC0F2D04D940F26321A5
:10215000854801F0D3FC854B1B6803F00F039D42BB
:1021600040F28F80814A136823F00F032B431360E2
:10217000136803F00F039D4240F05781236813F06A
:10218000020F1ED0A368002B18BF802B12D0902BFB
:1021900010D0A02B0ED0B02B0CD0C02B0AD0D02B3F
:1021A00008D0E02B06D0F02B04D040F279216E4805
:1021B00001F0A4FC6E498B6823F0F002A36813437E
:1021C0008B60236813F0010F00F0EB806368022B33
:1021D00004D94FF42071644801F090FC6268012A30
:1021E00005D1634B1B6813F4003F0ED11FE1022A97
:1021F00005D15F4B1B6813F0007F06D119E15C4BE2
:102200001B6813F0020F00F0168159498B6823F008
:10221000030313438B60FEF75BF905466368012BEC
:102220000FD107E0FEF754F9401B41F28833984282
:1022300000F203814E4B9B6803F00C03042BF1D199
:10224000AFE0022B17D107E0FEF742F9401B41F245
:102250008833984200F2F380454B9B6803F00C03EF
:10226000082BF1D19DE0FEF733F9401B41F2883392
:10227000984200F2E6803E4B9B6813F00C0FF2D1BF
:102280008FE0236813F0020F1ED0A368002B18BF45
:10229000802B12D0902B10D0A02B0ED0B02B0CD0B6
:1022A000C02B0AD0D02B08D0E02B06D0F02B04D0C6
:1022B0004FF432712C4801F021FC2D498B6823F03A
:1022C000F002A36813438B60236813F0010F5DD005
:1022D0006368022B04D940F2CF21234801F00EFCA1
:1022E0006268012A05D1224B1B6813F4003F0ED10E
:1022F000A9E0022A05D11E4B1B6813F0007F06D10E
:10230000A3E01B4B1B6813F0020F00F0A0801849DC
:102310008B6823F0030313438B60FEF7D9F806465E
:102320006368012B0FD107E0FEF7D2F8801B41F262
:102330008833984200F28D800D4B9B6803F00C03AC
:10234000042BF1D122E0022B1BD106E0FEF7C0F8EE
:10235000801B41F2883398427DD8054B9B6803F07F
:102360000C03082BF2D111E074A80008003C0240D5
:1023700000380240FEF7ACF8801B41F288339842E7
:102380006BD8384B9B6813F00C0FF3D1364A1368A7
:1023900023F00F032B431360136803F00F039D42D8
:1023A0005DD1236813F0040F1AD0E368002B18BF27
:1023B000B3F5805F0DD0B3F5A05F0AD0B3F5C05F71
:1023C00007D0B3F5E05F04D040F21E31274801F09A
:1023D00095FB24498B6823F4E052E36813438B6038
:1023E000236813F0080F1BD02369002B18BFB3F527
:1023F000805F0DD0B3F5A05F0AD0B3F5C05F07D002
:10240000B3F5E05F04D040F22531184801F076FBC7
:10241000144A936823F46043216943EAC10393603B
:102420000020FEF72DF8002070BD012070BD0120B6
:1024300070BD012070BD012070BD032070BD032060
:1024400070BD032070BD012070BD012070BD012052
:1024500070BD032070BD032070BD032070BD01203E
:1024600070BD00BF00380240003C024074A8000864
:10247000254B9B6803F00C03042B3FD0082B01D0A5
:102480002248704710B4204B586800F03F005B684A
:1024900013F4800F10D01E4BB3FBF0F01A4B5A68A8
:1024A00047F6C0710A4091FAA1F3B3FA83F322FA16
:1024B00003F303FB00F310E0144BB3FBF0F0124BFB
:1024C0005A6847F6C07402EA040194FAA4F2B2FA18
:1024D00082F221FA02F202FB00F30B4A506800F488
:1024E00040324FF4403090FAA0F0B0FA80F022FA77
:1024F00000F001304000B3FBF0F001E00448704709
:102500005DF8044B704700BF003802400024F4001F
:1025100080BA8C0108B5FFF7ABFF084B9B6803F04E
:10252000F002F02393FAA3F3B3FA83F322FA03F34E
:10253000034AD35CD840034B186008BD0038024002
:1025400064A800080C000020F0B583B004460268BF
:10255000644B13401BB98721634801F0CFFA23680D
:1025600013F0010F16D0636B002B18BFB3F5000FEB
:1025700003D08D215C4801F0C1FA5C4B9A6822F4CB
:1025800000029A609968626B0A439A60636B1BB1A0
:10259000002702E0002700E00127236813F4002F42
:1025A0001DD0E36B002B18BFB3F5801F06D0B3F529
:1025B000001F03D09D214C4801F0A0FA4B49D1F8EF
:1025C0008C3023F44012E36B1343C1F88C30E36B7F
:1025D000B3F5801F00D101271BB1002502E00025C3
:1025E00000E00125236813F4801F1CD0236C002B0E
:1025F00018BFB3F5800F06D0B3F5000F03D0B1219B
:10260000394801F07BFA3949D1F88C3023F4400283
:10261000236C1343C1F88C30236CB3F5800F00D1C9
:10262000012703B90125236813F0807F00D001271B
:1026300013F0200F6CD0002301932C4B1A6C42F046
:1026400080521A641B6C03F080530193019B284A4B
:10265000136843F480731360FDF73AFF064605E004
:10266000FDF736FF801B642800F2F184204B1B68C5
:1026700013F4807FF4D01D4B1A6F236B534013F477
:10268000407F45D0194B196F21F440701A6F42F406
:1026900080321A671A6F22F480321A67186711F0B5
:1026A000020F10D0FDF714FF064607E0FDF710FFFC
:1026B000801B41F28833984200F2CB840B4B1B6F96
:1026C00013F0020FF2D0236B03F44072B2F5407F97
:1026D00012D10648826822F4F811064A1A400A43C9
:1026E00082600EE0F9FFFF01A4A800080038024054
:1026F00000700040FFFCFF0FBB4A936823F4F813FF
:102700009360B94A116F236BC3F30B030B43136739
:10271000236813F0100F17D0A36B002B18BFB3F171
:10272000807F04D04FF48071B04801F0E7F9AE4BE0
:10273000D3F88C2022F08072C3F88C20D3F88C1050
:10274000A26B0A43C3F88C20236813F4804F16D081
:10275000636E002B18BFB3F5803F07D0B3F5003F81
:1027600004D04FF48571A14801F0C8F99E49D1F811
:10277000903023F44032636E1343C1F890302368E5
:1027800013F4004F16D0A36E002B18BFB3F5802FA3
:1027900007D0B3F5002F04D04FF48A71934801F0AD
:1027A000ADF99149D1F8903023F44022A36E134340
:1027B000C1F89030236813F4803F16D0E36E002BED
:1027C00018BFB3F5801F07D0B3F5001F04D04FF436
:1027D0008F71864801F092F98349D1F8903023F443
:1027E0004012E36E1343C1F89030236813F4003FA6
:1027F00016D0236F002B18BFB3F5800F07D0B3F5A9
:10280000000F04D04FF49471784801F077F97649BD
:10281000D1F8903023F44002236F1343C1F8903075
:10282000236813F0400F14D0636C032B18BF012BE7
:1028300006D9022B04D04FF499716C4801F05EF96F
:102840006949D1F8903023F00302636C1343C1F857
:102850009030236813F0800F16D0A36C002B18BFA4
:10286000042B08D00C2B06D0082B04D04FF49E71FB
:102870005E4801F043F95C49D1F8903023F00C0236
:10288000A36C1343C1F89030236813F4807F16D0F3
:10289000E36C002B18BF102B08D0302B06D0202B58
:1028A00004D04FF4A371514801F028F94E49D1F8F2
:1028B000903023F03002E36C1343C1F8903023686A
:1028C00013F4007F16D0236D002B18BF402B08D0C7
:1028D000C02B06D0802B04D04FF4A871434801F0E0
:1028E0000DF94149D1F8903023F0C002236D134314
:1028F000C1F89030236813F4806F19D0636D002BFA
:1029000018BFB3F5807F0AD0B3F5407F07D0B3F589
:10291000007F04D04FF4AD71344801F0EFF8324934
:10292000D1F8903023F44072636D1343C1F89030B6
:10293000236813F4006F19D0A36D002B18BFB3F5F3
:10294000806F0AD0B3F5406F07D0B3F5006F04D0A5
:102950004FF4B271254801F0D1F82349D1F89030F5
:1029600023F44062A36D1343C1F89030236813F43D
:10297000805F19D0E36D002B18BFB3F5805F0AD0DC
:10298000B3F5405F07D0B3F5005F04D04FF4B771E3
:10299000164801F0B3F81449D1F8903023F44052AE
:1029A000E36D1343C1F89030236813F4005F1FD028
:1029B000236E002B18BFB3F5804F0AD0B3F5404FFC
:1029C00007D0B3F5004F04D04FF4BC71074801F0B5
:1029D00095F80549D1F8903023F44042236E134313
:1029E000C1F8903004E000BF00380240A4A80008FD
:1029F000236813F4800F13D0A36FB3F1806F18BF57
:102A0000002B04D04FF4C171394801F077F83949EF
:102A1000D1F8903023F08062A36F1343C1F8903057
:102A2000236813F4001F18D0E36FB3F1006F18BFD1
:102A3000002B04D04FF4C6712D4801F05FF82D49EA
:102A4000D1F8903023F00062E36F1343C1F8903067
:102A5000E36FB3F1006F00D10125236813F0080F75
:102A600000D0012513F4802F19D0636F002B18BFFD
:102A7000B3F1807F0AD0B3F1007F07D0B3F1407F7C
:102A800004D040F2A3111A4801F038F81949D1F8DE
:102A9000903023F04072636F1343C1F89030236885
:102AA00013F4000F15D0D4F88030B3F1805F18BF55
:102AB000002B04D040F2AD110D4801F01FF80D4974
:102AC000D1F8903023F08052D4F880301343C1F80D
:102AD000903027B92368B3F1007F40F07181054A37
:102AE000136823F080631360FDF7F2FC064609E0EB
:102AF000A4A8000800380240FDF7EAFC801B642807
:102B000000F2A982B44B1B6813F0006FF4D1636824
:102B1000323BB3F5BF7F04D94FF4E471AF4800F006
:102B2000EDFF236813F0010F45D0636B002B42D1FA
:102B3000A368023B052B04D94FF4E771A74800F0C6
:102B4000DDFFA548D0F8846006F440364FF44032EB
:102B500092FAA2F3B3FA83F3DE40D0F8841001F0C6
:102B600070674FF0706393FAA3F1B1FA81F127FA1D
:102B700001F1676847F6C07E9EFAAEFEBEFA8EFE91
:102B800007FA0EF792FAA2F2B2FA82F206FA02F20B
:102B90003A4393FAA3F3B3FA83F301FA03F31A4324
:102BA000A3684FF0E04191FAA1F1B1FA81F18B40B5
:102BB0001343C0F88430236813F4002F03D0E26B72
:102BC000B2F5801F06D013F4801F59D0236CB3F5E3
:102BD000800F55D1E368023B0D2B04D94FF4EF7100
:102BE0007E4800F08BFF636A013B1F2B04D94FF432
:102BF000F0717A4800F082FF7748D0F8842002F420
:102C000040324FF4403E9EFAAEF3B3FA83F322FA19
:102C100003F6D0F8841001F0E0414FF0E04393FA5E
:102C2000A3F2B2FA82F2D14047F6C07797FAA7F73B
:102C3000B7FA87F7626802FA07F79EFAAEF2B2FABD
:102C400082F206FA02F247EA0206E2684FF0706783
:102C500097FAA7F7B7FA87F7BA40324393FAA3F384
:102C6000B3FA83F301FA03F31343C0F88430D0F8C6
:102C70008C3023F01F02636A013B1343C0F88C3091
:102C8000236813F0807F43D02369032B04D940F2DB
:102C9000F311524800F032FF4F4ED6F8840000F096
:102CA00070604FF0706292FAA2F3B3FA83F3D840E7
:102CB000D6F8841001F0E04E4FF0E04797FAA7F104
:102CC000B1FA81F32EFA03F1636847F6C07E9EFAEB
:102CD000AEFEBEFA8EFE03FA0EFE4FF4403393FAB8
:102CE000A3F3B3FA83FC236903FA0CF34EEA03035C
:102CF00092FAA2F2B2FA82F200FA02F21A4397FAB8
:102D0000A7F3B3FA83F301FA03F31343C6F884304D
:102D1000236813F0007F3FD02369032B04D940F2CE
:102D200002212E4800F0EAFEA368023B052B04D9DD
:102D300040F20321294800F0E1FEE368023B0D2B3D
:102D400004D94FF40171254800F0D8FE626847F6B7
:102D5000C07393FAA3F3B3FA83F39A4023694FF451
:102D6000403191FAA1F1B1FA81F18B401343E2684D
:102D70004FF0706191FAA1F1B1FA81F18A401A43E2
:102D8000A3684FF0E04191FAA1F1B1FA81F18B40D3
:102D90001343114AC2F884300F4A136843F080632A
:102DA0001360FDF795FB064605E0FDF791FB801BE0
:102DB000642800F25281084B1B6813F0006FF4D0B6
:102DC000002D00F04C81044A136823F080531360F7
:102DD000FDF77EFB054609E000380240A4A8000884
:102DE000FDF776FB401B642800F23B819F4B1B687C
:102DF00013F0005FF4D16369323BB3F5BF7F04D9B0
:102E000040F232219A4800F079FE236813F4002F33
:102E100001D0E26B2AB113F4801F59D0236C002B30
:102E200056D1A369023B0D2B04D940F239219048B9
:102E300000F064FEA36A013B1F2B04D940F23B2142
:102E40008B4800F05BFE8948D0F8885005F4403587
:102E50004FF4403292FAA2F3B3FA83F3DD40D0F894
:102E6000881001F0E0464FF0E04393FAA3F1B1FA85
:102E700081F126FA01F1676947F6C07696FAA6F65F
:102E8000B6FA86F607FA06F692FAA2F2B2FA82F2D9
:102E900005FA02F246EA0205A2694FF0706696FA58
:102EA000A6F6B6FA86F6B2402A4393FAA3F3B3FA2B
:102EB00083F301FA03F31343C0F88830D0F88C3061
:102EC00023F4F853A26A013A43EA0223C0F88C3093
:102ED000236813F4001F45D0E36FB3F1006F41D1B5
:102EE000236A032B04D940F24E21614800F006FE0C
:102EF0005E4ED6F8880000F070604FF0706292FA73
:102F0000A2F3B3FA83F3D840D6F8881001F0E04179
:102F10004FF0E04595FAA5F3B3FA83F3D94067691A
:102F200047F6C07393FAA3F3B3FA83F307FA03FEE9
:102F3000236A4FF4403797FAA7F7B7FA87F7BB40F1
:102F40004EEA030392FAA2F2B2FA82F200FA02F215
:102F50001A4395FAA5F3B3FA83F301FA03F3134383
:102F6000C6F88830236813F0080F5BD0E369023B92
:102F7000052B04D940F25D213D4800F0BFFDE36A16
:102F8000002B18BFB3F5803F0AD0B3F5003F07D040
:102F9000B3F5403F04D040F25E21354800F0AEFD6D
:102FA000324DD5F8882002F070624FF0706191FACE
:102FB000A1F3B3FA83F322FA03F6D5F8883003F4C9
:102FC00040334FF4403090FAA0F2B2FA82F223FA82
:102FD00002F2676947F6C07393FAA3F3B3FA83F377
:102FE0009F4090FAA0F3B3FA83F302FA03F33B4352
:102FF00091FAA1F2B2FA82F206FA02F21343E269FE
:103000004FF0E04191FAA1F1B1FA81F18A40134306
:10301000C5F88830D5F88C3023F44032E36A134386
:10302000C5F88C30114A136843F080531360FDF7E4
:103030004FFA044604E0FDF74BFA001B642812D84F
:103040000A4B1B6813F0005FF5D000200CE0032052
:103050000AE0032008E0032006E0032004E000204B
:1030600002E0032000E0032003B0F0BD003802407E
:10307000A4A800082DE9F04105460F4616461C4657
:10308000FDF726FA804637E0B4F1FF3F34D02CB18B
:10309000FDF71EFAC8EB000084422DD82A68536859
:1030A00023F0E00353606B68B3F5827F0BD1AB680C
:1030B000B3F5806F18BFB3F5004F04D12A681368C9
:1030C00023F040031360AB6AB3F5005F0BD12A68AD
:1030D000136823F400531B041B0C13602A68136845
:1030E00043F400531360012385F85D30002385F815
:1030F0005C300320BDE8F0812B689B683B40B34205
:10310000C2D10020BDE8F0812DE9F04182B0074630
:103110000D4614461E46FDF7DBF9804641E0B5F545
:10312000C06F08BF002C05D1137BDBB28DF80730D0
:103130009DF80730B6F1FF3F33D02EB1FDF7C8F947
:10314000C8EB000086422CD83A68536823F0E003AD
:1031500053607B68B3F5827F0BD1BB68B3F5806F9A
:1031600018BFB3F5004F04D13A68136823F0400349
:103170001360BB6AB3F5005F0BD13A68136823F4A0
:1031800000531B041B0C13603A68136843F400538C
:103190001360012387F85D30002387F85C3003203B
:1031A00005E03A6893682B40A342B8D1002002B0F2
:1031B000BDE8F08138B504460D460B4600224FF4B9
:1031C000C051FFF7A1FF28B1236E43F0200323660F
:1031D00003231AE02B46002280212046FFF74AFFF6
:1031E00028B1236E43F02003236603230DE02B4612
:1031F00000224FF4C0612046FFF786FF034620B14E
:10320000236E43F0200323660323184638BD00BF16
:10321000704700BF002800F0228110B50446036803
:10322000904A91498B4218BF934213D002F58062B5
:1032300093420FD002F5784293420BD002F5E05250
:10324000934207D002F58062934203D0CC21874895
:1032500000F054FC6368002B18BFB3F5827F03D0E5
:10326000CD21824800F04AFCA368002B18BFB3F5BB
:10327000806F06D0B3F5004F03D0CE217B4800F01D
:103280003DFCE368B3F5706F18BFB3F5606F24D0F1
:10329000B3F5506F21D0B3F5406F1ED0B3F5306F4A
:1032A0001BD0B3F5206F18D0B3F5106F15D0B3F560
:1032B000006F12D0B3F5E06F0FD0B3F5C06F0CD034
:1032C000B3F5A06F09D0B3F5806F06D0B3F5407F9A
:1032D00003D0CF21654800F011FC2369002B18BFF3
:1032E000022B03D0D021614800F008FC6369012B58
:1032F00003D9D1215D4800F001FCA369B3F5007F3B
:1033000018BF002B06D0B3F5802F03D0D221574829
:1033100000F0F4FB636B082B18BF002B03D0D32104
:10332000524800F0EBFBE369002B18BF082B0FD0CD
:10333000102B0DD0182B0BD0202B09D0282B07D009
:10334000302B05D0382B03D0D421484800F0D6FBD1
:10335000236A002B18BF802B03D0D521434800F0EF
:10336000CDFB636A002B18BF102B03D0D6213F483A
:1033700000F0C4FBA36A002B18BFB3F5005F03D0B5
:10338000D7213A4800F0BAFBE36A013B4FF6FE72E0
:10339000934203D9D821354800F0B0FB236B022BB0
:1033A00003D9D921314800F0A9FB94F85D3023B945
:1033B00084F85C302046FFF72BFF022384F85D3051
:1033C0002268136823F040031360E268B2F5E06FEF
:1033D00001D9002001E04FF48050B2F5706F18BFA2
:1033E000B2F5E06F01D00023A362236B3BB9B2F5C5
:1033F000E06F02D90223236301E0012323632168E4
:103400006268A3681A4323691A4363691343A26974
:1034100002F400721A43E3691A43236A1A43A36A47
:1034200013430B60236B022B04D12268136843F40F
:10343000006313602168638B03F00403626A134323
:10344000626B1A43E368134303434B602368E26AE9
:103450001A6100202066012384F85D3010BD012030
:10346000704700BF0038004000300140D8A8000875
:10347000F0B583B004460F4616461D468368002B00
:1034800018BFB3F5004F04D04FF4CC71664800F07C
:1034900035FB94F85C30012B00F0BD80012384F8EB
:1034A0005C3094F85D30012B07D0012384F85D3047
:1034B000002384F85C300223B2E0002E18BF002FF6
:1034C00006D1012384F85D30002284F85C20A7E057
:1034D000032384F85D3000232366A763A687E6876D
:1034E0002364A4F84430A4F84630A368B3F5004F31
:1034F00004D12268136843F480431360A36AB3F5D0
:10350000005F0BD12268136823F400531B041B0CCB
:1035100013602268136843F40053136023681A6829
:1035200012F0400F03D11A6842F040021A60E368BB
:10353000B3F5E06F19D849E02B4602221146204628
:10354000FFF798FD38B1012384F85D30002384F83B
:103550005C30032364E02368A26B1288DA60A36BFB
:103560000233A363E38F013BE387E38F002BE3D1B7
:103570002FE0012B19D02B46022211462046FFF7DF
:1035800079FD38B1012384F85D30002384F85C3084
:10359000032345E02368A26B1288DA60A36B023331
:1035A000A363E38F023BE38710E02B460222114620
:1035B0002046FFF75FFD00282FD12268A36B591C1E
:1035C000A1631B781373E38F013BE387E38F002B29
:1035D000CFD1A36AB3F5005F04D12268136843F426
:1035E0008053136029462046FFF7E4FD0346B0B937
:1035F000A26832B901922268D16801919268019261
:10360000019A012284F85D20002284F85C20226E59
:1036100032B1012304E0022302E0032300E003238C
:10362000184603B0F0BD00BFD8A80008704700BF1F
:1036300010B504460368234A934218BFB3F1804F84
:1036400034D0A2F57C42934230D002F5806293429E
:103650002CD002F58062934228D002F5806293421A
:1036600024D002F58062934220D002F5704293424A
:103670001CD002F57052934218D002F5806293423A
:1036800014D002F58062934210D0A2F59832934292
:103690000CD002F58062934208D002F5806293421A
:1036A00004D040F25D11084800F028FA2268D3687F
:1036B00043F00103D3602268136843F001031360F1
:1036C000002010BD0000014008A90008704700BF9D
:1036D000704700BF704700BF704700BF10B5044679
:1036E00003681A6912F0020F17D0DA6812F0020F9D
:1036F00013D06FF002021A610123037603689B69FD
:1037000013F0030F02D0FFF7E3FF04E0FFF7DEFF43
:103710002046FFF7DFFF0023237623681A6912F0A3
:10372000040F19D0DA6812F0040F15D06FF00402FC
:103730001A610223237623689B6913F4407F03D028
:103740002046FFF7C5FF05E02046FFF7BFFF2046F4
:10375000FFF7C0FF0023237623681A6912F0080FD1
:1037600019D0DA6812F0080F15D06FF008021A614C
:10377000042323762368DB6913F0030F03D020466C
:10378000FFF7A6FF05E02046FFF7A0FF2046FFF762
:10379000A1FF0023237623681A6912F0100F19D0B5
:1037A000DA6812F0100F15D06FF010021A610823BA
:1037B00023762368DB6913F4407F03D02046FFF7AC
:1037C00087FF05E02046FFF781FF2046FFF782FFD5
:1037D0000023237623681A6912F0010F09D0DA68F2
:1037E00012F0010F05D06FF001021A61204604F0BB
:1037F0009DF823681A6912F0800F09D0DA6812F078
:10380000800F05D06FF080021A61204600F03EF96B
:1038100023681A6912F4807F09D0DA6812F0800FE9
:1038200005D06FF080021A61204600F02FF923685E
:103830001A6912F0400F09D0DA6812F0400F05D073
:103840006FF040021A612046FFF746FF23681A69AD
:1038500012F0200F09D0DA6812F0200F05D06FF0B7
:1038600020021A61204600F00FF910BD70B4026802
:10387000434B984214BF00230123B0F1804F14BF83
:103880001C4643F00104BCB93E4DA84214BF0025BC
:1038900001253D4EB04211D085B905F1804505F5B1
:1038A0008235A84214BF0025012506F50066B04206
:1038B00000D02DB1012504E0012502E0012500E042
:1038C00000251DB122F070024D682A43002C35D12D
:1038D0002C4CA04214BF002401242B4DA8422FD011
:1038E00074BB04F1804404F58234A04214BF002468
:1038F000012405F50065A84224D01CBB234CA0423E
:1039000014BF0024012405F59A35A8421CD0DCB967
:103910001F4CA04214BF0024012405F50065A842F5
:1039200014D09CB91B4CA04214BF00240124A5F55F
:103930009635A84200D05CB101240AE0012408E0D9
:10394000012406E0012404E0012402E0012400E057
:1039500000241CB122F44072CC68224302608A68C1
:10396000C2620A6882620C4A904208BF43F00103B7
:103970000BB10B6903630123436170BC704700BF47
:1039800000000140000800400004004000440140E5
:1039900000180040002000400004014000286CD0C6
:1039A00010B504460368364A934218BFB3F1804FFE
:1039B00033D0A2F57C4293422FD002F5806293422D
:1039C0002BD002F58062934227D002F580629342A9
:1039D00023D002F5806293421FD002F570429342D9
:1039E0001BD002F57052934217D002F580629342C9
:1039F00013D002F5806293420FD0A2F59832934221
:103A00000BD002F58062934207D002F580629342A8
:103A100003D0D2211B4800F071F8A368002B18BF17
:103A2000102B09D0202B07D0402B05D0602B03D0C2
:103A3000D321144800F062F82369002B18BFB3F5B6
:103A4000807F06D0B3F5007F03D0D4210D4800F06D
:103A500055F894F8393013F0FF0F02D12046FFF7E4
:103A6000E5FD022384F83930211D2068FFF7FEFEB2
:103A7000012384F83930002010BD0120704700BFB9
:103A80000000014008A90008704700BF704700BF50
:103A9000FEE700BF08B5034800F05CF80120FFF71F
:103AA000F7FF00BF38A9000808B50D4B1B6813B914
:103AB0000C4A0B4B1A600A4B1A68C31C23F0030311
:103AC000134409498B4206D905F0BEFE0C2303605E
:103AD0004FF0FF3008BD02490B60104608BD00BF23
:103AE000F8040020D849002000FC042001230360D2
:103AF000014B0B60704700BF0400002008B50A4668
:103B00000146024800F004F8FFF7C4FF8CA9000842
:103B10000FB480B582B000AF07F114033B603B687F
:103B20003A6980210A4806F093F878607B68002B98
:103B300005DD7B681946064800F056F878607B681A
:103B400018460837BD46BDE8804004B0704700BF46
:103B50000005002080B582B000AF7860786805F07D
:103B6000CFFF03461946786800F03EF8012104486B
:103B700000F03AF8034618460837BD4680BD00BF3E
:103B8000B8A900082DE9F04385B004460F46435616
:103B900013BB042528462146ABBE04461FE035462C
:103BA000102E28BF1025002306E014F9011B04AADB
:103BB0001A4402F8101C0133AB42F6D304AA134492
:103BC000002203F8102CE9464FF00408404649460D
:103BD000ABBE8046761B00E00E46002EDFD1384695
:103BE00005B0BDE8F08300BF08B5FFF7CBFF08BD07
:103BF00008B500F097F8054B054A9A60D3F888207D
:103C000042F47002C3F8882008BD00BF00ED00E058
:103C100000000008F8B504460D4617461E46264823
:103C2000FFF776FF21682548FFF772FF6168244897
:103C3000FFF76EFFA1682348FFF76AFFE16822489B
:103C4000FFF766FF21692148FFF762FF616920489D
:103C5000FFF75EFFA1691F48FFF75AFFE1691E48A1
:103C6000FFF756FF1D48FFF753FF29461C48FFF793
:103C70004FFF1C4CE16A1C48FFF74AFF216B1B48B1
:103C8000FFF746FFE16B1A48FFF742FF15F0800F80
:103C900003D039461748FFF73BFF15F4004F03D018
:103CA00031461548FFF734FF1448FFF731FF0699F6
:103CB0001348FFF72DFFF8BDE8A90008F8A9000890
:103CC00008AA000818AA000828AA000838AA0008AC
:103CD00048AA000858AA000868AA000878AA00089C
:103CE00084AA000800ED00E094AA0008A4AA000835
:103CF000B4AA0008C4AA0008D4AA0008E4AA0008CC
:103D0000ECAA000883691A888A4207D10268033A3C
:103D1000012A05D8023383610120704700207047D3
:103D20000020704710B40F4AD2F8883043F4700373
:103D3000C2F888300C4B196841F00101196000206D
:103D400098601C680949214019600949596019683F
:103D500021F480211960D8604FF0006393605DF812
:103D6000044B704700ED00E000380240FFFFF6FE14
:103D700010300024224B9B6803F00C03042B07D067
:103D8000082B09D0002B2DD11E4A1F4B1A602CE0A6
:103D90001E4A1D4B1A6028E0194B5A685B6803F0F5
:103DA0003F0312F4800F09D0184AB2FBF3F2144B10
:103DB0005B68C3F3881303FB02F208E0114AB2FB0D
:103DC000F3F30F4A5168C1F3881101FB03F20C4B66
:103DD0005B68C3F3014301335B00B2FBF3F30A4AB0
:103DE000136002E0074A084B1A60054B9B68C3F357
:103DF0000313074AD15C044A1368CB401360704731
:103E0000003802400024F4000C00002080BA8C012D
:103E100030AB00082DE9F84305468946164698461A
:103E2000BDF82070044607E03B464246494620461E
:103E300000F026FB013424B2AB199C42F4DBBDE850
:103E4000F88300BF00B583B0064BB3F90030064AD3
:103E5000B2F9002000900021084600F0C5FB03B035
:103E60005DF804FB360C0020300C00202DE9F04FEB
:103E700089B00D4604911E460593BDF94840BDF931
:103E80004CB0BDF850700097994204DD049605953A
:103E9000034610461A46059B5B4505DDCDF814B078
:103EA0009B46134622461C46049B059EB34204DDF6
:103EB00004960593034610461A46049B5B4518D1A9
:103EC000904205DC01DB024602E01346024618463A
:103ED000944205DB844201DC144601E0204614468E
:103EE000001B421C009B12B20499204600F022FBEA
:103EF0007CE01FFA82FA87B2C7EB0A039BB20293F7
:103F0000059883B2BDF81080C8EB030212B2964642
:103F1000A4B2C7EB04091FFA89F91FFA8BF2C8EBA8
:103F200002080FFA88F8CAEB0404A1B20191D21A70
:103F300012B20392584502D0013B1BB200E0059B30
:103F4000049C00252E46CDF818A09A46CDF81CB04A
:103F5000F3461AE096FBFBF23A4412B295FBF8F0F6
:103F6000384400B2029B1E4436B24D442DB2824208
:103F700002DC034610461A46121A0132009B12B2A6
:103F8000214600F0D7FA013424B25445E2DDDDF8D1
:103F900018A0DDF81CB0059BE51ABDF8043015FB30
:103FA00003F52DB2049BE61A16FB09F636B21BE0A8
:103FB000039B95FBF3F2524412B296FBF8F038449F
:103FC00000B2019B1D442DB24E4436B2824202DC47
:103FD000034610461A46121A0132009B12B22146BD
:103FE00000F0A8FA013424B2A345E1DA09B0BDE833
:103FF000F08F00BF2DE9F04784B090461E46BDF912
:104000003070BDF8345080B289B2CB19013B8219AF
:10401000013A9BB292B200F0D7F9184B012299886D
:104020001868FDF70FF9164BD3F80090B3F804A009
:10403000002251464846FDF705F9002411E038F802
:10404000143003EA0502120A8DF804202B408DF883
:1040500005300123022201A90A48FFF709FA0134B9
:1040600024B207FB06F39C42E9DB01225146484695
:10407000FDF7E8F804B0BDE8F08700BFD0AB00085A
:10408000D8AB0008880B002008B90120FFE7014BDE
:1040900018707047350C0020024B1880024B1980B5
:1040A000704700BFD20C0020D00C0020014B1870CC
:1040B000704700BF340C002070B50646104B00223C
:1040C00099881868FDF7BEF80E4B00229988186889
:1040D000FDF7B8F80C4B1C689D8800222946204645
:1040E000FDF7B0F809490E8001231A460848FFF78A
:1040F000BFF9012229462046FDF7A4F870BD00BF94
:10410000D0AB0008C8AB0008D8AB0008D40C002026
:10411000880B002070B50646104B0122998818685C
:10412000FDF790F80E4B002299881868FDF78AF881
:104130000C4B1C689D88002229462046FDF782F81A
:1041400009490E8001231A460848FFF791F9012218
:1041500029462046FDF776F870BD00BFD0AB0008B9
:10416000C8AB0008D8AB0008D40C0020880B002096
:1041700038B5934B1C689D88012229462046FDF7DF
:1041800061F8052000F080FD002229462046FDF759
:1041900059F8142000F078FD012229462046FDF749
:1041A00051F8962000F070FD864B0022998818681F
:1041B000FDF748F8EF20FFF77FFF0320FFF7AAFF86
:1041C0008020FFF7A7FF0220FFF7A4FFCF20FFF713
:1041D00073FF0020FFF79EFFC120FFF79BFF3020F9
:1041E000FFF798FFED20FFF767FF6420FFF792FFCE
:1041F0000320FFF78FFF1220FFF78CFF8120FFF7CE
:1042000089FFE820FFF758FF8520FFF783FF002094
:10421000FFF780FF7820FFF77DFFCB20FFF74CFFF3
:104220003920FFF777FF2C20FFF774FF0020FFF7FE
:1042300071FF3420FFF76EFF0220FFF76BFFF720BE
:10424000FFF73AFF2020FFF765FFEA20FFF734FF72
:104250000020FFF75FFF0020FFF75CFFC020FFF7A3
:104260002BFF2320FFF756FFC120FFF725FF10206B
:10427000FFF750FFC520FFF71FFF3E20FFF74AFF63
:104280002820FFF747FFC720FFF716FF8620FFF71C
:1042900041FF3620FFF710FF4820FFF73BFF3A2091
:1042A000FFF70AFF5520FFF735FFB120FFF704FFA6
:1042B0000020FFF72FFF1820FFF72CFFB620FFF795
:1042C000FBFE0820FFF726FF8220FFF723FF2720B1
:1042D000FFF720FFF220FFF7EFFE0020FFF71AFFA5
:1042E0002620FFF7E9FE0120FFF714FFE020FFF78B
:1042F000E3FE0F20FFF70EFF3120FFF70BFF2B200F
:10430000FFF708FF0C20FFF705FF0E20FFF702FF65
:104310000820FFF7FFFE4E20FFF7FCFEF120FFF71D
:10432000F9FE3720FFF7F6FE0720FFF7F3FE102017
:10433000FFF7F0FE0320FFF7EDFE0E20FFF7EAFE89
:104340000920FFF7E7FE0020FFF7E4FEE120FFF77A
:10435000B3FE0020FFF7DEFE0E20FFF7DBFE142089
:10436000FFF7D8FE0320FFF7D5FE1120FFF7D2FE9E
:104370000720FFF7CFFE3120FFF7CCFEC120FFF76B
:10438000C9FE4820FFF7C6FE0820FFF7C3FE0F2036
:10439000FFF7C0FE0C20FFF7BDFE3120FFF7BAFE8D
:1043A0003620FFF7B7FE0F20FFF7B4FE1120FFF70E
:1043B00083FE782000F068FC2920FFF77DFE38BDE1
:1043C00058AB0008D8AB0008F8B507460D461646AE
:1043D0001C462A20FFF770FE380AFFF79BFEF8B252
:1043E000FFF798FE300AFFF795FEF0B2FFF792FE56
:1043F0002B20FFF761FE280AFFF78CFE2846FFF707
:1044000089FE200AFFF786FE2046FFF783FE2C2058
:10441000FFF752FEF8BD00BFF0B599B00446134B4C
:10442000012299881868FCF70DFF114B1D689E88C2
:10443000002231462846FCF705FF0E4B1C800E4C2F
:104440000127179716930D4B1593542204F1100171
:10445000684605F0FFF994E80F0003F0E3FA3A46E6
:1044600031462846FCF7EEFE19B0F0BDD0AB00088F
:10447000D8AB0008D40C0020880B0020D80C0020FA
:104480002DE9F04198B01E46234BB3F9003083422A
:104490003FDD1446214BB3F900308B4239DD8A18D9
:1044A000013A9A4201DB5C1A24B280B289B20B193C
:1044B000013B9BB20246FFF787FF194B0122998807
:1044C0001868FCF7BFFE174B1F68B3F80480002282
:1044D00041463846FCF7B6FE12E0134B1E80134CE3
:1044E000012217921693124B1593542204F11001D6
:1044F000684605F0AFF994E80F0003F093FA2C46F4
:10450000631E1DB2002CE8D1012241463846FCF75B
:1045100099FE18B0BDE8F081300C0020360C002068
:10452000D0AB0008D8AB0008D40C0020880B0020CA
:10453000D80C00202DE9F04198B01E46234BB3F96A
:10454000003083423FDD1446214AB2F900208A42FE
:1045500039DD0219013A9A4201DB1C1A24B280B2F9
:1045600089B20219013A0B4692B2FFF72DFF194B9F
:10457000012299881868FCF765FE174B1F68B3F88D
:104580000480002241463846FCF75CFE12E0134BE3
:104590001E80134C012217921693124B159354222E
:1045A00004F11001684605F055F994E80F0003F096
:1045B00039FA2C46631E1DB2002CE8D10122414677
:1045C0003846FCF73FFE18B0BDE8F081300C002003
:1045D000360C0020D0AB0008D8AB0008D40C00206B
:1045E000880B0020D80C00202DE9F04798B01F461A
:1045F000BDF880602C4BB3F90030834250DD90460B
:104600002A4AB2F900208A424ADD00EB0804013C44
:104610009C4202DB1B1A0FFA83F8CB19013B934231
:1046200001DB571A3FB280B289B2CB19013B00EBD4
:104630000802013A9BB292B2FFF7C6FE1C4B012260
:1046400099881868FCF7FEFD1A4BD3F80090B3F870
:1046500004A0002251464846FCF7F4FD19E0164A32
:104660001680164C012317931692154B159354225E
:1046700004F11001684605F0EDF894E80F0003F02E
:10468000D1F9013D2DB200E04546002DE7DC013FA8
:104690003FB2002FF8DC012251464846FCF7D2FD1C
:1046A00018B0BDE8F08700BF300C0020360C0020A9
:1046B000D0AB0008D8AB0008D40C0020880B002039
:1046C000D80C002010B504463720FFF7F5FC200A6F
:1046D000FFF720FDE0B2FFF71DFD10BD43181344A6
:1046E000B3F5A07F19D170B514460D4606463320A8
:1046F000FFF7E2FC300AFFF70DFDF0B2FFF70AFD0D
:10470000280AFFF707FDE8B2FFF704FD200AFFF7CC
:1047100001FDE0B2FFF7FEFC70BD704710B5044626
:104720003620FFF7C9FC04F0030003282ED8DFE889
:1047300000F0020D18234820FFF7ECFCF022144B88
:104740001A804FF4A072134B1A8010BD2820FFF777
:10475000E1FC4FF4A0720E4B1A80F0220D4B1A8030
:1047600010BD8820FFF7D6FCF022094B1A804FF4C9
:10477000A072084B1A8010BDE820FFF7CBFC4FF465
:10478000A072034B1A80F022024B1A8010BD00BFAA
:10479000300C0020360C002030B587B00C4A136B6B
:1047A00043F0100313634FF4005501950123029366
:1047B000022204920393074C01A92046FCF7AEFBAA
:1047C000002229462046FCF73DFD07B030BD00BF62
:1047D000003802400010024080B483B000AF0346AE
:1047E0003960FB7197F90730002B0BDA0D49FB7923
:1047F00003F00F03043B3A68D2B21201D2B20B4469
:104800001A7609E0084997F907303A68D2B21201DE
:10481000D2B20B4483F8002300BF0C37BD465DF8CD
:10482000047B704700ED00E000E100E080B582B05D
:1048300000AF78607B68013BB3F1807F01D3012337
:104840000FE00A4A7B68013B53600F214FF0FF30B5
:10485000FFF7C2FF054B00229A60044B07221A6043
:10486000002318460837BD4680BD00BF10E000E0B9
:1048700080B500AF054B1B68054AA2FB03239B09CB
:104880001846FFF7D3FF00BF80BD00BF0C0000201B
:10489000D34D621080B400AF064B1B68002B04D0D0
:1048A000044B1B68013B034A136000BFBD465DF823
:1048B000047B7047EC0C002030B595B000240194C7
:1048C000234B1A6C42F080521A641B6C03F0805325
:1048D0000193019B02941F4B1A6842F440421A60F4
:1048E0001B6803F440430293029B012308934FF497
:1048F000803309934FF480030F931A2310934FF4DE
:10490000D873119302251295082313930E9508A8C6
:10491000FDF750F9FDF70CF90F2303930495059467
:104920004FF4A05306934FF480530793062103A836
:10493000FDF7FEFBFDF7EEFD074BA3FB0030800902
:10494000FCF7C4F90420FCF7D7F915B030BD00BF5F
:104950000038024000700040D34D621010B5BFF324
:104960004F8FBFF36F8F1D4B0021C3F850125A6950
:1049700042F400325A61BFF34F8FBFF36F8FC3F819
:104980008410BFF34F8FD3F88040C4F34E3000E063
:104990001846C4F3C90200E01A4643F6E07303EA7E
:1049A000401343EA82730D49C1F86032531E002A56
:1049B000F2D1431E0028EBD1BFF34F8F4B6943F474
:1049C00080334B61BFF34F8FBFF36F8FFBF76CFDED
:1049D000FFF772FFFFF7CEF910BD00BF00ED00E05A
:1049E00010B586B00022684B1A80684B1A80684B5D
:1049F0001A706421674B1980674B1A70674B1A70E5
:104A00000092674B596C41F480715964596C01F400
:104A10008071009100990192596C41F400715964C0
:104A2000596C01F40071019101990292596C41F4A1
:104A300080615964596C01F480610291029903927A
:104A4000196B41F001011963196B01F00101039128
:104A500003990492196B41F002011963196B01F07B
:104A60000201049104990592196B41F00401196344
:104A7000196B01F0040105910599596A41F480719F
:104A80005962596A21F4807159624648A3F58C3302
:104A900003604FF4803343608260026101238361CD
:104AA00002624262C2628262C260C36102634261A8
:104AB000FBF7C0FD18B1394A1378013313703A4837
:104AC0003A4B03604FF480334360002383600361FB
:104AD0000122826103624362C3628362C360C26176
:104AE00003634361FBF7A6FD18B12C4A1378013329
:104AF00013702F482F4B03604FF480334360002323
:104B0000836003610122826103624362C362836244
:104B1000C360C26103634361FBF78CFD18B11F4A98
:104B2000137801331370244909230B6001234B6070
:104B30008B600020C860214A032414605360936096
:104B4000D0601F4A0224146053609360D0601548FF
:104B5000FBF756FF18B1114A137801331370174948
:104B60001148FBF74DFF18B10C4A1378013313704D
:104B700013490F48FBF744FF18B1084A1378013373
:104B8000137006B010BD00BF140A00202C0B0020CB
:104B9000F10B0020380C0020810B0020800B00203E
:104BA000003802409C0A0020E40A00200021014055
:104BB000780C002000220140180A0020C00C0020C0
:104BC000700B002008B564211848FBF7B9FE64217A
:104BD0001748FBF7B5FE64211648FBF7B1FE18BB7A
:104BE0001248FBF7FDFF10F4007F1DD01048FBF7C3
:104BF000F7FF10F4007F17D00E48FBF7F1FF10F419
:104C0000007F11D00948FBF7F7FE80B20A4B1880ED
:104C10000748FBF7F1FE80B2084B18800548FBF708
:104C2000EBFE80B2064B188008BD00BF9C0A002036
:104C3000E40A0020780C0020140A00202C0B00202D
:104C4000EE0B002008B50C48FBF7E0FD18B10B4A4D
:104C50001378013313700A48FBF7D8FD18B1074ADF
:104C60001378013313700748FBF7D0FD18B1034ADE
:104C700013780133137008BD9C0A0020800B0020BC
:104C8000E40A0020780C0020034B1860024B1B68DC
:104C9000002BFBD1704700BF300B00202DE9F04FF7
:104CA00087B0802301934FF00208CDF810800125D2
:104CB000029500240594039401A9B948FCF72EF944
:104CC0004FF0400ACDF804A0CDF81080029505946D
:104CD000039401A9B248FCF721F94FF40053019362
:104CE0000494112702970594039401A9AD48FCF799
:104CF00015F922464FF40051AA48FCF7A3FA019592
:104D0000CDF8108002940395059401A9A648FCF7FC
:104D100005F9CDF80480CDF8108002940395059430
:104D200001A9A148FCF7FAF84FF400730193CDF8FC
:104D3000108002940395059401A99948FCF7EEF8B8
:104D40004FF0040BCDF804B04FF00309CDF80890F4
:104D500003940DEB0B019548FCF7E0F8082601964B
:104D6000CDF8089003940DEB0B019048FCF7D6F8B2
:104D700030230193CDF8089003940DEB0B018B4881
:104D8000FCF7CCF8CDF804B00295049403940DEB35
:104D90000B018348FCF7C2F82A4659468048FCF7C5
:104DA00051FA802301930295049403940DEB0B01B7
:104DB0007E48FCF7B3F8224680217C48FCF742FA93
:104DC000CDF804800295049403940DEB0B01754813
:104DD000FCF7A4F8224641467248FCF733FACDF8B6
:104DE00004A00295049403940DEB0B016F48FCF7AB
:104DF00095F82A4651466D48FCF724FA019502952C
:104E0000049403940DEB0B016848FCF787F82246E5
:104E100029466648FCF716FACDF804A002950494DA
:104E200003940DEB0B016048FCF778F82A465146D5
:104E30005D48FCF707FA01960297049403940DEB82
:104E40000B015948FCF76AF8224631465648FCF7F0
:104E5000F9F94FF4004301930295049403940DEB88
:104E60000B014F48FCF75AF82A464FF400414C48D2
:104E7000FCF7E8F94FF4005301930295049403946E
:104E80000DEB0B014648FCF749F82A464FF4005158
:104E90004348FCF7D7F92023019302950494039427
:104EA0000DEB0B014048FCF739F82A4620213E481B
:104EB000FCF7C8F9102701970295049403940DEBB1
:104EC0000B013948FCF72AF82A4639463648FCF7E0
:104ED000B9F94FF4006701970295049403940DEB20
:104EE0000B013348FCF71AF82A4639463048FCF7DC
:104EF000A9F94FF4804701970295049403940DEBB0
:104F00000B012948FCF70AF82A4639462648FCF7DF
:104F100099F94FF480530193CDF8089004940394C9
:104F20000DEB0B012248FBF7F9FF22464FF48051AD
:104F30001F48FCF787F9CDF80480CDF80890049459
:104F400003940DEB0B011648FBF7E8FF4FF4806864
:104F5000CDF804800295049403940DEB0B011448E2
:104F6000FBF7DCFF2A4641461148FCF76BF9019735
:104F70000295049403940DEB0B010D48FBF7CEFF53
:104F80002A4639460A48FCF75DF92023019302942A
:104F9000049403950DEB0B010548FBF7BFFF09E0F7
:104FA00000040240000802400010024000000240DD
:104FB000000C0240CDF804A00294049403950DEB7C
:104FC0000B015F48FBF7AAFF019602940494039536
:104FD0000DEB0B015A48FBF7A1FF802301930294CC
:104FE000049403950DEB0B015548FBF797FF4FF425
:104FF000005301930295049403940DEB0B01514867
:10500000FBF78CFF22464FF400514E48FCF71AF98B
:105010004FF48079CDF804900494029503950DEB3C
:105020000B014948FBF77AFF224649464648FCF700
:1050300009F94FF4004301930494029503940DEB96
:105040000B014048FBF76AFF2A464FF400413D48F8
:10505000FCF7F8F8802301930494029403940DEB79
:105060000B013848FBF75AFFCDF804B004940295C1
:1050700003940DEB0B013548FBF750FF2A465946C8
:105080003248FCF7DFF8CDF80480049402950394CD
:105090000DEB0B012B48FBF741FF2A4641462948FF
:1050A000FCF7D0F8CDF804900494029503940DEB2E
:1050B0000B012348FBF732FF224649462048FCF704
:1050C000C1F801960494029503940DEB0B011F485F
:1050D000FBF724FF224631461C48FCF7B3F8CDF815
:1050E00004900494029503940DEB0B011548FBF713
:1050F00015FF224631461348FCF7A4F8CDF804B05A
:105100000494029503940DEB0B010E48FBF706FF88
:10511000224659460B48FCF795F8CDF804900494C4
:10512000029503940DEB0B010948FBF7F7FE2A46A5
:1051300049460748FCF786F807B0BDE8F08F00BF86
:10514000000C024000100240000002400008024033
:105150000004024084B0F0B587B00CAC84E80F00C6
:10516000104B9A8801920227049712260296012575
:105170000395042405940DEB04011868FBF7CEFE9B
:10518000094B9A88019204970296039505940DEBBA
:1051900004011868FBF7C2FE07B0BDE8F04004B098
:1051A000704700BF30AC000878AB000800B585B090
:1051B0008DF80C008DF80D1064230093022303AAD0
:1051C000E0210348FCF7B4FA05B05DF804FB00BF2A
:1051D000F40B0020F8B51E4603FB0121CC01B4FB03
:1051E000F3F4A4F50074D201B2FBF3F703FB172725
:1051F000C5B2E1B22846FFF7D9FF681CC4F3072106
:10520000C0B2FFF7D3FFC4F3014101EB8701A81C33
:10521000C9B2C0B2FFF7CAFFE81CC7F38711C0B21A
:10522000FFF7C4FF281DC7F38731C0B2FFF7BEFFE9
:10523000681DC7F38751C0B2FFF7B8FFA81DF1B2D0
:10524000C0B2FFF7B3FFE81DC6F30721C0B2FFF7F6
:10525000ADFF05F10800C6F30741C0B2FFF7A6FF96
:1052600005F10900C6F30561C0B2FFF79FFFF8BD65
:1052700030B587B08DF80F0000238DF817300B4C38
:105280006425009501230DF10F02E0212046FCF773
:105290004FFA009501230DF11702E0212046FCF79B
:1052A000F3FA9DF8170007B030BD00BFF40B0020E3
:1052B00070B50E4900EB40028B188D5C5E789C78CF
:1052C00094B10146FF2C04D131462846FFF76EFF0A
:1052D00070BD2846FFF7CCFF20EA0400C1B234407D
:1052E00021432846FFF762FF70BD00BF1800002071
:1052F00010B51021E620FFF759FFE521F120FFF757
:1053000055FF002403E02046FFF7D2FF0134B4F537
:10531000AF7FF8DB0121DA20FFF7AAFF00F00400DD
:10532000C0B206E00121DA20FFF7A2FF00F004007E
:10533000C0B20028F6D101213120FFF799FF00F01B
:105340007F013120FFF732FF0221F620FFF72EFF09
:105350006521F120FFF72AFF0121DA20FFF788FFFE
:1053600000F0150005E00121DA20FFF781FF00F0D1
:1053700015000028F7D10121EB20FFF779FF014646
:105380002D20FFF713FF0121EC20FFF771FF0146ED
:105390002E20FFF70BFF01212F20FFF769FF0446A6
:1053A0000121ED20FFF764FF24F0030100F003006A
:1053B0000143C9B22F20FFF7F9FE01213120FFF789
:1053C00057FF60F07F01C9B23120FFF7EFFE0021E7
:1053D000E620FFF7EBFEC1211F20FFF7E7FE40F2BA
:1053E000BF2340F2B922C9213520FFF7F3FEC021C7
:1053F0001F20FFF7DBFE10BD2DE9F0414400124BEA
:105400009C421ED9114B9C421BD8114BD3E900671B
:10541000002522462B463046394604F089F880465E
:1054200022462B463046394604F082F801E0520805
:105430006408084B9C42FAD8234641463520FFF7C2
:10544000C9FEBDE8F08100BF3F4B4C008093DC14E7
:1054500010000020A086010010B4BFF34F8FBFF3EF
:105460006F8F1B4B0021C3F850125A6942F400326F
:105470005A61BFF34F8FBFF36F8FC3F88410BFF330
:105480004F8FD3F88040C4F34E3000E01846C4F389
:10549000C90200E01A4643F6E07303EA401343EA08
:1054A00082730B49C1F86032531E002AF2D1431EA9
:1054B0000028EBD1BFF34F8F4B6943F480334B612E
:1054C000BFF34F8FBFF36F8F5DF8044B704700BF82
:1054D00000ED00E0022956DC30B4002347E001294A
:1054E00019D0022929D0002940D11418C4F500741C
:1054F000A3420ADDC2F50074A34206DA224C04EB93
:1055000083044FF07E55256030E01F4C04EB83048C
:10551000002525602AE0934209DD1418A34206DA2B
:10552000194C04EB83044FF07E5525601EE0164CA9
:1055300004EB83040025256018E01418C4F50075F9
:10554000AB4203DDC2F50075AB4203DB934208DDDD
:10555000A34206DA0C4C04EB83044FF07E55256021
:1055600004E0094C04EB8304002525600133B3F506
:10557000007FB4DB044B03F5806100220A6003F274
:10558000FC731A6030BC7047F80C0020F0B40024A3
:1055900029E0E200871897ED007A6300224EB518E3
:1055A00095ED006A67EE066A151D054495ED007AD3
:1055B00001339B001E44D6ED007A27EE277A36EEA3
:1055C000C77A1A4E324482ED007A95ED007A67EE82
:1055D000877A97ED007A26EE076A77EE867A33446B
:1055E000C3ED007A0134FF2CD3DD002316E04A001E
:1055F000002B03DA00EB830400252560B3F5007F60
:1056000003DB00EB83040025256000EB83059C1879
:10561000064A02EB840212682A600133B3F5007F68
:10562000E5DBF0BC704700BFF80C0020A83D00206F
:1056300088B000220092294B196B41F001011963D7
:10564000196B01F00101009100990192196B41F071
:1056500002011963196B01F0020101910199029293
:10566000196B41F004011963196B01F004010291F7
:1056700002990392196B41F008011963196B01F04B
:105680000801039103990492196B41F01001196309
:10569000196B01F01001049104990592196B41F402
:1056A00000111963196B01F4001105910599069217
:1056B000196B41F480011963196B01F480010691A3
:1056C000069907921A6C42F480021A641B6C03F468
:1056D00080030793079B08B0704700BF0038024063
:1056E000024A136801331360704700BFC8090020E5
:1056F0000023064A1360064A13607F21054A1160A1
:10570000054A13606422054B1A607047F8140020A4
:10571000F40C002020250020FC140020CC4900209F
:105720002F4B1B78002B5AD110B52E4B9988186837
:10573000FBF776FD44002C4B99881868FBF770FD49
:1057400020442A4B18602A4B1B68984242D00BB960
:10575000012813D0012B01D1032808D0032B01D13C
:10576000022806D0022B06D138B1002006E01846E8
:1057700004E0012002E0002000E001201D4B186041
:105780001D4B99881868FBF74BFDB8B9194B1B687E
:1057900023B11A4A13880133138003E0174A138890
:1057A000013B1380154B1B885B08154A1188B3FB1E
:1057B000F1F201FB1233134A13800BE00D4B1B680F
:1057C00023B1114A13680133136003E00E4A1368D2
:1057D000013B1360054B1A68054B1A6010BD7047FA
:1057E000D209002050AB0008A0AB0008F40C002048
:1057F000F81400202C3D002060AB0008AC0900200C
:1058000038040020D8090020D049002008B50B49F1
:10581000D1E90023013243F10003C1E90023FFF77E
:1058200039F8FFF77DFFFAF74BFE054B1B681BB1FC
:10583000034A1368013B136008BD00BF98050020B0
:10584000300B0020034B1868002800DA01304010AC
:10585000704700BFD0490020002308E000EB83011F
:105860000B4A02EB830212680A6001339BB2094AB9
:105870001288B3EB420FF1DB05E000EB830200215D
:10588000116001339BB2B3F5007FF6D3704700BFC0
:10589000AC450020680400202DE9F04F83B082461B
:1058A00089463B4B1A6810460192B3F804B00022B7
:1058B0005946FBF7C7FC374B1F68B3F8048000223A
:1058C00041463846FBF7BEFC334B1D689E880022DC
:1058D00031462846FBF7B6FC012231462846FBF745
:1058E000B1FC002415E0C4F107024AFA02F202F00A
:1058F000010241463846FBF7A5FC00223146284606
:10590000FBF7A0FC012231462846FBF79BFC013443
:10591000E4B2072CE7D901225946019C2046FBF747
:1059200091FC002259462046FBF78CFC012241469F
:105930003846FBF787FC002231462846FBF782FCFD
:10594000012231462846FBF77DFC002415E0C4F116
:10595000070249FA02F202F0010241463846FBF71B
:1059600071FC002231462846FBF76CFC01223146CF
:105970002846FBF767FC0134E4B2072CE7D9012283
:1059800059460198FBF75EFC03B0BDE8F08F00BFFD
:1059900008AC000828AC000870AB000808B5022865
:1059A0004ED0032800F09580002840F0DA806D4B3F
:1059B000012299881868FBF745FC6B4B00229988F7
:1059C0001868FBF73FFC694B002299881868FBF7C1
:1059D00039FC674B012299881868FBF733FC654B4B
:1059E000002299881868FBF72DFC634B01229988E7
:1059F0001868FBF727FC614B012299881868FBF7B0
:105A000021FC5F4B002299881868FBF71BFC5D4B5B
:105A1000002299881868FBF715FC5B4B00229988D7
:105A20001868FBF70FFC594B012299881868FBF79F
:105A300009FC574B002299881868FBF703FC08BD46
:105A4000484B012299881868FBF7FCFB464B002263
:105A500099881868FBF7F6FB444B00229988186870
:105A6000FBF7F0FB424B012299881868FBF7EAFB31
:105A7000404B002299881868FBF7E4FB3E4B01225B
:105A800099881868FBF7DEFB3C4B0122998818685F
:105A9000FBF7D8FB3A4B002299881868FBF7D2FB3A
:105AA000384B012299881868FBF7CCFB364B012252
:105AB00099881868FBF7C6FB344B0122998818684F
:105AC000FBF7C0FB324B002299881868FBF7BAFB42
:105AD00008BD244B002299881868FBF7B3FB224BC2
:105AE000012299881868FBF7ADFB204B00229988AA
:105AF0001868FBF7A7FB1E4B012299881868FBF773
