:020000040800F2
:1000000000000320210300081D7300082973000865
:1000100031730008397300084173000800000000C4
:100020000000000000000000000000005573000800
:10003000497300080000000061730008517900084E
:1000400071030008710300087103000871030008C0
:1000500071030008710300087103000871030008B0
:1000600071030008710300087103000871030008A0
:100070007103000871030008710300087103000890
:100080007103000871030008710300087103000880
:100090007103000871030008710300087103000870
:1000A0007103000871030008710300087103000860
:1000B000710300086D7300087D7300087103000868
:1000C0007103000871030008710300087103000840
:1000D00071030008F5870008710300087103000828
:1000E0007103000871030008710300087103000820
:1000F0007103000871030008710300087103000810
:1001000071030008710300087103000871030008FF
:1001100071030008710300087103000871030008EF
:100120009D730008710300087103000889730008BB
:1001300071030008710300087103000871030008CF
:1001400071030008710300087103000871030008BF
:1001500071030008710300087103000871030008AF
:10016000710300087103000871030008710300089F
:10017000710300087103000871030008000000000B
:10018000710300087103000871030008710300087F
:10019000710300087103000871030008710300086F
:1001A00071030008710300087103000880B58EB068
:1001B00000AF4A4B4A4A1A604A4B494A1A604A4BB6
:1001C0003B634A4BFB623B6BBB6204E0BB6A1A1D9C
:1001D000BA6200221A60FA6ABB6A9A42F6D83F4BAA
:1001E0001B68002B03D13F4B1B68002B00D0FEE7A0
:1001F0003F4B3B4A1A603F4B394A1A603E4B7B6289
:100200003E4B3B623E4BFB613B6ABB6107E0BB6917
:100210001A1DBA617A6A111D796212681A60FA6948
:10022000BB699A42F3D8324B1B68364A934205D1D8
:10023000304B1A682F4B1B689A4200D0FEE70BF038
:1002400063F93A1D3B461046194606F035FF2E4A23
:100250002E4BD31A9B107B6100233B6107E02B4A96
:100260003B6952F8233098473B6901333B617A6917
:100270003B699A42F3DC264A264BD31A9B107B61DA
:1002800000233B6107E0234A3B6952F8233098473B
:100290003B6901333B617A693B699A42F3DC7A68D6
:1002A0003B681046194608F0B1FA78631A4A1B4BAE
:1002B000D31A9B10FB60FB68BB6008E0BB68013B86
:1002C000164A52F823309847BB68013BBB60BB68B5
:1002D000002BF3DC786B06F037FF00BFD808002056
:1002E000BABADECAB44D0020D8080020B84D0020AC
:1002F00000000020D4080020A0FA0108000000201F
:10030000D808002078563412A0030008A003000883
:10031000A0030008A0030008A0030008A003000831
:1003200080B500AFFFF742FF80B400AFFEE700BF2B
:1003300080B400AFFEE700BF80B400AFFEE700BFAF
:1003400080B400AFFEE700BF80B400AFFEE700BF9F
:1003500080B400AFFEE700BF80B400AFFEE700BF8F
:1003600080B400AFFEE700BF80B400AFFEE700BF7F
:0803700080B400AFFEE700BFFE
:10037800A0FA010800000020D8080020A0FA01080F
:100388000000001000000010D8080020B84D002020
:0803980000000010000000103D
:1003A00080B487B000AFF860B9601346FB800023CB
:1003B0007B61FB6893F83930DBB27B617B69012B91
:1003C00002D07B69122B4CD1BB68002B02D0FB887A
:1003D000002B01D1012345E0FB6893F83830012B55
:1003E00001D102233EE0FB68012283F83820FB683C
:1003F000BA689A62FB68FA889A85FB68FA88DA8597
:10040000FB68002283F83A20FB6893F83930DBB2AE
:10041000122B04D1FB68322283F8392003E0FB68F9
:10042000222283F83920FB681B68FA681268D268B8
:1004300042F48072DA60FB681B68FA6812685269DD
:1004400042F001025A61FB68002283F83820FB6801
:100450001B68FA681268D26842F02002DA60002352
:1004600000E0022318461C37BD465DF8047B704748
:1004700080B584B000AF78600023FB600023BB60D0
:100480007B681B681B6803F00103002B14BF01236A
:100490000023DBB2FB607B681B68DB6803F48073BE
:1004A000BB60FB68002B14D0BB68002B11D07B68AD
:1004B0001B687A681268126822F001021A607B6871
:1004C00093F83A30DBB243F00103DAB27B6883F889
:1004D0003A207B681B681B6803F00203002B14BFE3
:1004E00001230023DBB2FB607B681B685B6903F0C0
:1004F0000103BB60FB68002B14D0BB68002B11D03C
:100500007B681B687A681268126822F002021A601F
:100510007B6893F83A30DBB243F00403DAB27B68CD
:1005200083F83A207B681B681B6803F00403002BE8
:1005300014BF01230023DBB2FB607B681B685B698F
:1005400003F00103BB60FB68002B14D0BB68002BD9
:1005500011D07B681B687A681268126822F0040266
:100560001A607B6893F83A30DBB243F00203DAB2E8
:100570007B6883F83A207B681B681B6803F00803DC
:10058000002B14BF01230023DBB2FB607B681B68D8
:100590005B6903F00103BB60FB68002B14D0BB68F0
:1005A000002B11D07B681B687A681268126822F0F1
:1005B00008021A607B6893F83A30DBB243F0080314
:1005C000DAB27B6883F83A207B681B681B6803F00B
:1005D0002003002B14BF01230023DBB2FB607B68E8
:1005E0001B68DB6803F02003BB60FB68002B0DD0A9
:1005F000BB68002B0AD0786800F0E2F87B681B68C3
:100600007A681268126822F020021A607B681B6800
:100610001B6803F04003002B14BF01230023DBB24F
:10062000FB607B681B68DB6803F04003BB60FB6812
:10063000002B0DD0BB68002B0AD0786800F036F88C
:100640007B681B687A681268126822F040021A60A0
:100650007B6893F83A30DBB2002B06D07B6801222E
:1006600083F83920786800F017F81037BD4680BD50
:1006700080B483B000AF78600C37BD465DF8047B72
:10068000704700BF80B483B000AF78600C37BD46C0
:100690005DF8047B704700BF80B483B000AF786022
:1006A0000C37BD465DF8047B704700BF80B584B051
:1006B00000AF78600023FB607B6893F83930DBB2D1
:1006C000FB60FB68122B02D0FB68322B72D17B6877
:1006D00093F83830012B01D102236CE07B680122B2
:1006E00083F838207B689B68B3F5805F19D17B68FD
:1006F0001B6ABB607B681B68BA681288C2F3080279
:100700005A607B681B69002B05D17B681B6A9A1CA9
:100710007B681A620EE07B681B6A5A1C7B681A624F
:1007200008E07B681A687B681B6A581C7968086255
:100730001B7853607B68DB8C013B9AB27B68DA8460
:100740007B68DB8C002B2FD17B681B687A68126872
:10075000D26822F04002DA607B6893F83930DBB26D
:10076000322B04D17B68222283F8392013E07B6886
:100770001B687A681268D26822F48072DA607B683B
:100780001B687A681268526922F001025A617B681C
:10079000012283F839207B68002283F838207868AA
:1007A000FFF766FF002306E07B68002283F838200D
:1007B000002300E0022318461037BD4680BD00BF6D
:1007C00080B584B000AF78600023FB607B6893F84D
:1007D0003930DBB2FB60FB68222B03D0FB68322B85
:1007E00040F098807B6893F83830012B01D10223C8
:1007F00091E07B68012283F838207B689B68B3F521
:10080000805F23D17B689B6ABB607B681B69002B80
:100810000ED17B681B685B689BB2C3F308039AB276
:10082000BB681A807B689B6A9A1C7B689A6229E085
:100830007B681B685B689BB2DBB29AB2BB681A80AC
:100840007B689B6A5A1C7B689A621BE07B681B6909
:10085000002B0AD17B689B6A591C7A6891627A687E
:1008600012685268D2B21A700CE07B689B6A591CFD
:100870007A6891627A6812685268D2B202F07F0296
:10088000D2B21A707B68DB8D013B9AB27B68DA8545
:100890007B68DB8D002B37D100BF7B681B681B6832
:1008A00003F02003002BF8D17B681B687A6812687C
:1008B000D26822F02002DA607B6893F83930DBB22C
:1008C000322B04D17B68122283F8392013E07B6835
:1008D0001B687A681268D26822F48072DA607B68DA
:1008E0001B687A681268526922F001025A617B68BB
:1008F000012283F839207B68002283F83820786849
:10090000FFF7C0FE002306E07B68002283F8382052
:10091000002300E0022318461037BD4680BD00BF0B
:1009200080B483B000AF78600C37BD465DF8047BBF
:10093000704700BF80B483B000AF78600C37BD460D
:100940005DF8047B704700BF80B582B000AF78606F
:100950007B68002B01D101238DE07B681B68484A2E
:10096000934244D07B681B68B3F1804F3FD07B68D3
:100970001B68444A93423AD07B681B68424A9342C0
:1009800035D07B681B68414A934230D07B681B6836
:100990003F4A93422BD07B681B683E4A934226D045
:1009A0007B681B683C4A934221D07B681B683B4AAA
:1009B00093421CD07B681B68394A934217D07B68EE
:1009C0001B68384A934212D07B681B68364A9342B0
:1009D0000DD07B681B68354A934208D07B681B6842
:1009E000334A934203D03348D12106F057FB7B684A
:1009F0009B68002B13D07B689B68102B0FD07B6803
:100A00009B68202B0BD07B689B68402B07D07B68B2
:100A10009B68602B03D02748D22106F03FFB7B6800
:100A20001B69002B0DD07B681B69B3F5807F08D054
:100A30007B681B69B3F5007F03D01E48D32106F005
:100A40002DFB7B6893F83930DBB2002B02D178683C
:100A500000F032F87B68022283F839207B681A683C
:100A60007B6804331046194600F00AFA7B680122BD
:100A700083F83920002318460837BD4680BD00BFE3
:100A8000000001400004004000080040000C00404D
:100A900000100040001400400004014000400140EC
:100AA000004401400048014000180040001C004084
:100AB00000200040FC31010880B483B000AF7860B2
:100AC0000C37BD465DF8047B704700BF80B582B02F
:100AD00000AF78607B681B682E4A934245D07B68E4
:100AE0001B68B3F1804F40D07B681B682A4A934251
:100AF0003BD07B681B68294A934236D07B681B68D1
:100B0000274A934231D07B681B68264A93422CD0F7
:100B10007B681B68244A934227D07B681B68234A62
:100B2000934222D07B681B68214A93421DD07B6888
:100B30001B68204A934218D07B681B681E4A934268
:100B400013D07B681B681D4A93420ED07B681B68DC
:100B50001B4A934209D07B681B681A4A934204D00F
:100B6000194840F25B1106F099FA7B681B687A68B5
:100B70001268D26842F00102DA607B681B687A680A
:100B80001268126842F001021A6000231846083702
:100B9000BD4680BD00000140000400400008004048
:100BA000000C004000100040001400400004014010
:100BB000004001400044014000480140001800404E
:100BC000001C004000200040FC31010880B582B0CC
:100BD00000AF78607B681B681B6903F00203002B81
:100BE00025D07B681B68DB6803F00203002B1ED056
:100BF0007B681B687A681268126922F002021A6127
:100C00007B6801221A767B681B689B6903F00303EB
:100C1000002B03D0786800F015F905E0786800F043
:100C200007F9786800F018F97B6800221A767B686B
:100C30001B681B6903F00403002B25D07B681B682D
:100C4000DB6803F00403002B1ED07B681B687A6806
:100C50001268126922F004021A617B6802221A7675
:100C60007B681B689B6903F44073002B03D0786892
:100C700000F0E8F805E0786800F0DAF8786800F04D
:100C8000EBF87B6800221A767B681B681B6903F00F
:100C90000803002B25D07B681B68DB6803F0080382
:100CA000002B1ED07B681B687A681268126922F0DC
:100CB00008021A617B6804221A767B681B689B69AC
:100CC00003F00303002B03D0786800F0BBF805E0C5
:100CD000786800F0ADF8786800F0BEF87B68002214
:100CE0001A767B681B681B6903F01003002B25D064
:100CF0007B681B68DB6803F01003002B1ED07B6849
:100D00001B687A681268126922F010021A617B6807
:100D100008221A767B681B689B6903F44073002BDA
:100D200003D0786800F08EF805E0786800F080F86D
:100D3000786800F091F87B6800221A767B681B685F
:100D40001B6903F00103002B11D07B681B68DB6873
:100D500003F00103002B0AD07B681B687A681268D5
:100D6000126922F001021A61786809F0C9FB7B68F8
:100D70001B681B6903F08003002B11D07B681B6884
:100D8000DB6803F08003002B0AD07B681B687A685D
:100D90001268126922F080021A617868FFF7CAFDB2
:100DA0007B681B681B6903F04003002B11D07B6834
:100DB0001B68DB6803F04003002B0AD07B681B68CC
:100DC0007A681268126922F040021A61786800F0AD
:100DD0004DF87B681B681B6903F02003002B11D0C2
:100DE0007B681B68DB6803F02003002B0AD07B685C
:100DF0001B687A681268126922F020021A6178680A
:100E0000FFF78EFD0837BD4680BD00BF80B483B0BC
:100E100000AF78607B681B687A681268126922F0FC
:100E200001021A610C37BD465DF8047B704700BFB4
:100E300080B483B000AF78600C37BD465DF8047BAA
:100E4000704700BF80B483B000AF78600C37BD46F8
:100E50005DF8047B704700BF80B483B000AF78605A
:100E60000C37BD465DF8047B704700BF80B483B08B
:100E700000AF78600C37BD465DF8047B704700BF5B
:100E800080B485B000AF786039600023FB607B6878
:100E90001B68FB607B68434A934213D07B68B3F1C5
:100EA000804F0FD07B68404A93420BD07B683F4A0B
:100EB000934207D07B683E4A934203D07B683D4A09
:100EC000934201D1012300E00023002B08D0FB68EE
:100ED00023F07003FB603B685B68FA681343FB60B8
:100EE0007B68304A93422BD07B68B3F1804F27D088
:100EF0007B682D4A934223D07B682C4A93421FD0B3
:100F00007B682B4A93421BD07B682A4A934217D0B6
:100F10007B68294A934213D07B68284A93420FD0BA
:100F20007B68274A93420BD07B68264A934207D0BE
:100F30007B68254A934203D07B68244A934201D1BF
:100F4000012300E00023002B08D0FB6823F440734A
:100F5000FB603B68DB68FA681343FB607B68FA68F8
:100F60001A603B689A687B68DA623B681A687B683B
:100F70009A627B680B4A934203D07B680D4A934286
:100F800001D1012300E00023002B03D03B681A6944
:100F90007B681A637B6801225A611437BD465DF88D
:100FA000047B70470000014000040040000800403E
:100FB000000C00400004014000400140004401409A
:100FC0000048014000180040001C00400020004084
:100FD00080B582B000AF78607B68002B01D101231F
:100FE00000E17B685B68002B08D07B685B68B3F529
:100FF000827F03D07D48A52106F050F87B689B686E
:10100000002B0DD07B689B68B3F5806F08D07B68A0
:101010009B68B3F5004F03D07448A62106F03EF854
:101020007B68DB68B3F5006F07D07B68DB68002B5B
:1010300003D06E48A72106F031F87B681B69002BAE
:1010400007D07B681B69022B03D06848A82106F0F3
:1010500025F87B685B69002B07D07B685B69012BF7
:1010600003D06248A92106F019F87B689B69B3F5A3
:10107000007F0CD07B689B69002B08D07B689B6944
:10108000B3F5802F03D05948AA2106F007F87B68F2
:10109000DB69002B1FD07B68DB69082B1BD07B68CA
:1010A000DB69102B17D07B68DB69182B13D07B68AA
:1010B000DB69202B0FD07B68DB69282B0BD07B688A
:1010C000DB69302B07D07B68DB69382B03D04748BE
:1010D000AB2105F0E3FF7B681B6A002B07D07B6820
:1010E0001B6A802B03D04148AC2105F0D7FF7B68F9
:1010F0005B6A002B07D07B685B6A102B03D03B48F0
:10110000AD2105F0CBFF7B689B6A002B08D07B6884
:101110009B6AB3F5005F03D03448AE2105F0BEFFF3
:101120007B68DB6A002B04D07B68DB6AB3F5803F09
:1011300003D32E48AF2105F0B1FF7B6893F85130FF
:10114000DBB2002B02D1786800F052F87B680222F3
:1011500083F851207B681B687A681268126822F055
:1011600040021A607B681B687A6851687A689268E6
:1011700011437A68D26811437A68126911437A6818
:10118000526911437A68926902F4007211437A68D5
:10119000D26911437A68126A11437A68926A0A43E3
:1011A0001A607B681B687A689269120C02F004016D
:1011B0007A68526A0A435A607B681B687A68D26A06
:1011C0001A617B681B687A681268D26922F400622F
:1011D000DA617B68002283F852207B68012283F861
:1011E0005120002318460837BD4680BD2C32010827
:1011F00080B483B000AF78600C37BD465DF8047BE7
:10120000704700BF80B584B000AFF860B9603B6044
:101210001346FB80FB6893F85130DBB2012B40F0A2
:101220002C81BB68002B02D0FB88002B01D101234D
:1012300024E1FB689B68002B09D0FB689B68B3F531
:10124000004F04D08F484FF4AE7105F027FFFB68C4
:1012500093F85030012B01D102230FE1FB680122EA
:1012600083F85020FB68122283F85120FB6800228B
:1012700083F85220FB68BA681A63FB68FA889A867A
:10128000FB68FA88DA86FB680022DA64FB680022D1
:101290009A64FB6800229A87FB680022DA87FB6861
:1012A0009B6AB3F5005F0FD1FB681B68FA68126890
:1012B000126822F400521A60FB681B68FA68126810
:1012C000126842F400521A60FB689B68B3F5004F45
:1012D00007D1FB681B68FA681268126842F4804202
:1012E0001A60FB681B681B6803F04003002B07D1E2
:1012F000FB681B68FA681268126842F040021A60C4
:10130000FB68DB68002B3BD1FB681A68FB681B6B32
:10131000581CF96808631B78D360FB68DB8E013BBF
:101320009AB2FB68DA8619E0F868022100223B686D
:1013300000F0AAF80346002B01D003239EE0FB68CF
:101340001A68FB681B6B581CF96808631B78D3602C
:10135000FB68DB8E013B9AB2FB68DA86FB68DB8EAA
:10136000002BE1D1FB689B6AB3F5005F47D1FB68B6
:101370001B68FA681268126842F480521A603EE0F4
:10138000FB681B68FA68126B1288DA60FB681B6BDB
:101390009A1CFB681A63FB68DB8E013B9AB2FB6800
:1013A000DA861BE0F868022100223B6800F06CF846
:1013B0000346002B01D0032360E0FB681B68FA683A
:1013C000126B1288DA60FB681B6B9A1CFB681A634D
:1013D000FB68DB8E013B9AB2FB68DA86FB68DB8E2A
:1013E000002BDFD1FB689B6AB3F5005F07D1FB6878
:1013F0001B68FA681268126842F480521A60F86832
:10140000022100223B6800F03FF80346002B0BD07E
:10141000FB6893F85230DBB243F02003DAB2FB688A
:1014200083F85220032329E0F868802101223B68D9
:1014300000F02AF80346002B0BD0FB6893F85230DB
:10144000DBB243F02003DAB2FB6883F852200323B7
:1014500014E0FB689B68002B05D1FB681B68DB6808
:10146000FB681B689B68FB68012283F85120FB68BE
:10147000002283F85020002300E002231846103792
:10148000BD4680BD2C32010880B586B000AFF86043
:10149000B9603B601346FB7100237B6105F0F2FDF0
:1014A00002463B6813447B61FB79002B42D138E054
:1014B0003B68B3F1FF3F34D005F0E4FD02467B69A1
:1014C0009A422ED3FB681B68FA681268526822F0B1
:1014D000E0025A60FB681B68FA681268126822F022
:1014E00040021A60FB689B6AB3F5005F0FD1FB688E
:1014F0001B68FA681268126822F400521A60FB68CE
:101500001B68FA681268126842F400521A60FB689D
:10151000012283F85120FB68002283F85020032326
:101520004BE0FB681B689A68BB681A40BB689A422C
:10153000BED141E038E03B68B3F1FF3F34D005F065
:10154000A1FD02467B699A422ED3FB681B68FA68AC
:101550001268526822F0E0025A60FB681B68FA6861
:101560001268126822F040021A60FB689B6AB3F5A9
:10157000005F0FD1FB681B68FA681268126822F4DA
:1015800000521A60FB681B68FA681268126842F41D
:1015900000521A60FB68012283F85120FB68002288
:1015A00083F85020032308E0FB681B689A68BB6837
:1015B0001A40BB689A42BED0002318461837BD4671
:1015C00080BD00BF80B483B000AF03463960FB71BB
:1015D00097F90730002B0BDA0D49FB7903F00F0365
:1015E000043B3A68D2B21201D2B20B441A7609E037
:1015F000084997F907303A68D2B21201D2B20B44C7
:1016000083F800230C37BD465DF8047B704700BFAC
:1016100000ED00E000E100E080B582B000AF78604E
:101620007B68013BB3F1807F01D301230FE00A4ABD
:101630007B68013B53604FF0FF300F21FFF7C2FF83
:10164000054B00229A60044B07221A6000231846BB
:101650000837BD4680BD00BF10E000E080B594B003
:1016600000AF78600023FB647B681B680F2B04D9F4
:10167000A7484FF49D7105F011FD7B681B6803F0CE
:101680000103002B7ED07B685B68002B0CD07B684D
:101690005B68012B08D07B685B68052B04D09C48F5
:1016A00040F23F1105F0FAFC9A4B9B6803F00C03E3
:1016B000042B0BD0974B9B6803F00C03082B12D123
:1016C000944B5B6803F48003002B0CD0914B1B6898
:1016D00003F40033002B05D07B685B68012B01D03D
:1016E0000123ACE24EE08C4B00221A7005F0CAFCDC
:1016F000034603F59C530833FB6407E005F0C2FC86
:101700000246FB6C9A4201D3032398E2814B1B688B
:1017100003F40033002BF1D17F4A7B685B68DBB2B6
:1017200013707B685B68012B16D105F0ABFC034698
:1017300003F59C530833FB6407E005F0A3FC024665
:10174000FB6C9A4201D3032379E2724B1B6803F4CA
:101750000033002BF1D015E005F094FC034603F5AF
:101760009C530833FB6407E005F08CFC0246FB6CDD
:101770009A4201D3032362E2664B1B6803F40033F1
:10178000002BF1D17B681B6803F00203002B7FD094
:101790007B68DB68002B08D07B68DB68012B04D0FA
:1017A0005B4840F27F1105F079FC7B681B691F2BB9
:1017B00004D957484FF4C07105F070FC554B9B6835
:1017C00003F00C03002B0BD0524B9B6803F00C036F
:1017D000082B12D14F4B5B6803F48003002B0CD114
:1017E0004C4B1B6803F00203002B05D07B68DB68C1
:1017F000012B01D0012322E24AE07B68DB68002B49
:101800002FD0464B01221A6005F03CFC034664339E
:10181000FB6407E005F036FC0246FB6C9A4201D3FC
:1018200003230CE23B4B1B6803F00203002BF1D0B7
:101830003848384B1B6823F0F8027B681B69F82195
:10184000B964B96C91FAA1F17964796C3964396C35
:10185000B1FA81F1F963F96BC9B28B4013430360AC
:1018600016E02E4B00221A6005F00CFC0346643390
:10187000FB6407E005F006FC0246FB6C9A4201D3CC
:101880000323DCE1234B1B6803F00203002BF1D19F
:101890007B681B6803F00803002B49D07B685B69F9
:1018A000002B08D07B685B69012B04D018484FF4EB
:1018B000DC7105F0F3FB7B685B69002B17D0184BDC
:1018C00001221A6005F0DEFB03466433FB6407E087
:1018D00005F0D8FB0246FB6C9A4201D30323AEE12C
:1018E0000C4B5B6F03F00203002BF1D020E00C4B9C
:1018F00000221A6005F0C6FB03466433FB6411E066
:1019000005F0C0FB0246FB6C9A420BD3032396E121
:101910006C320108003802400238024000004742A1
:10192000800E4742824B5B6F03F00203002BE7D12E
:101930007B681B6803F00403002B7FD07B689B68E7
:10194000002B0CD07B689B68012B08D07B689B68C0
:10195000052B04D077484FF4F17105F09FFB744AD2
:10196000734B1B6C43F080531364734A724B1B68B8
:1019700043F48073136005F085FB03466433FB6416
:1019800007E005F07FFB0246FB6C9A4201D303237C
:1019900055E1694B1B6803F48073002BF1D0674B52
:1019A00000221A7005F06EFB034603F59C530833C2
:1019B000FB6407E005F066FB0246FB6C9A4201D32C
:1019C00003233CE15A4B1B6F03F00203002BF1D1C0
:1019D0005A4A7B689B68DBB213707B689B68012B5B
:1019E00016D105F04FFB034603F59C530833FB6407
:1019F00007E005F047FB0246FB6C9A4201D3032344
:101A00001DE14B4B1B6F03F00203002BF1D015E0DF
:101A100005F038FB034603F59C530833FB6407E0ED
:101A200005F030FB0246FB6C9A4201D3032306E12A
:101A30003F4B1B6F03F00203002BF1D17B689B69C6
:101A4000002B0CD07B689B69012B08D07B689B69BD
:101A5000022B04D0374840F2262105F01FFB7B689B
:101A60009B69002B00F0EA80314B9B6803F00C036C
:101A7000082B00F0E1807B689B69022B40F0C4805A
:101A80007B68DB69002B09D07B68DB69B3F5800FCD
:101A900004D0284840F22F2105F000FB7B681B6A28
:101AA0003F2B04D923484FF40C7105F0F7FA7B68FB
:101AB0005B6ABF2B04D97B685B6AB3F5D87F04D916
:101AC0001C4840F2312105F0E9FA7B689B6A022B41
:101AD00010D07B689B6A042B0CD07B689B6A062B1A
:101AE00008D07B689B6A082B04D0124840F2322150
:101AF00005F0D4FA7B68DB6A032B03D97B68DB6AC9
:101B00000F2B04D90B4840F2332105F0C7FA0C4BD8
:101B100000221A6005F0B6FA03466433FB6411E054
:101B200005F0B0FA0246FB6C9A420BD3032386E021
:101B3000003802406C3201080070004070380240EA
:101B400060004742404B1B6803F00073002BE7D155
:101B50003D487B681A6A7B685B6A47F6C071B96367
:101B6000B96B91FAA1F17963796B3963396BB1FA89
:101B700081F1F962F96AC9B28B401A437B689B6AAA
:101B80005B08013B4FF44031B962B96A91FAA1F1A7
:101B90007962796A3962396AB1FA81F1F961F96970
:101BA000C9B28B401A437B68DB691A437B68DB6AE6
:101BB0004FF07061B961B96991FAA1F17961796900
:101BC00039613969B1FA81F1F960F968C9B28B40BC
:101BD000134343F0005343601C4B01221A6005F08D
:101BE00051FA03466433FB6407E005F04BFA024602
:101BF000FB6C9A4201D3032321E0134B1B6803F0D3
:101C00000073002BF1D019E0104B00221A6005F090
:101C100039FA03466433FB6407E005F033FA024601
:101C2000FB6C9A4201D3032309E0074B1B6803F0C6
:101C30000073002BF1D101E0012300E000231846DE
:101C40005037BD4680BD00BF0038024060004742AB
:101C500080B584B000AF786039600023FB607B689A
:101C60001B68002B03D07B681B680F2B04D9A3488B
:101C700040F2962105F012FA3B68002B31D03B6808
:101C8000012B2ED03B68022B2BD03B68032B28D096
:101C90003B68042B25D03B68052B22D03B68062BE4
:101CA0001FD03B68072B1CD03B68082B19D03B6822
:101CB000092B16D03B680A2B13D03B680B2B10D096
:101CC0003B680C2B0DD03B680D2B0AD03B680E2BCC
:101CD00007D03B680F2B04D0884840F2972105F0CD
:101CE000DDF9874B1B6803F00F023B689A4280F0D6
:101CF0008D80834B3A68D2B21A70814B1B6803F017
:101D00000F023B689A4201D00123ACE17B681B685B
:101D100003F00103002B00F00A817B685B68002B55
:101D20000CD07B685B68012B08D07B685B68022B5A
:101D300004D0724840F2AD2105F0B0F97B685B68D1
:101D4000012B07D16F4B1B6803F40033002B15D117
:101D5000012388E17B685B68022B07D1694B1B6814
:101D600003F00073002B09D101237CE1654B1B6854
:101D700003F00203002B01D1012374E16149614B9F
:101D80009B6823F003027B685B6813438B6005F05C
:101D900079F9034603F59C530833FB607B685B6865
:101DA000012B0FD107E005F06DF90246FB689A425E
:101DB00001D3032357E1534B9B6803F00C03042B1F
:101DC000F1D1B4E07B685B68022B0FD107E005F02E
:101DD00059F90246FB689A4201D3032343E1494B78
:101DE0009B6803F00C03082BF1D1A0E007E005F09D
:101DF00049F90246FB689A4201D3032333E1414B80
:101E00009B6803F00C03002BF1D190E07B681B680A
:101E100003F00103002B7DD07B685B68002B0CD0A6
:101E20007B685B68012B08D07B685B68022B04D061
:101E3000324840F2F52105F031F97B685B68012BEF
:101E400007D1304B1B6803F40033002B15D101235D
:101E500009E17B685B68022B07D12A4B1B6803F002
:101E60000073002B09D10123FDE0264B1B6803F012
:101E70000203002B01D10123F5E02249214B9B688D
:101E800023F003027B685B6813438B6005F0FAF86C
:101E9000034603F59C530833FB607B685B68012BAA
:101EA0000FD107E005F0EEF80246FB689A4201D335
:101EB0000323D8E0134B9B6803F00C03042BF1D1F0
:101EC00028E07B685B68022B0FD107E005F0DAF8A9
:101ED0000246FB689A4201D30323C4E0094B9B6886
:101EE00003F00C03082BF1D114E00DE005F0CAF863
:101EF0000246FB689A4207D30323B4E06C32010820
:101F0000003C024000380240594B9B6803F00C0330
:101F1000002BEBD1574B3A68D2B21A70554B1B6865
:101F200003F00F023B689A4201D001239BE07B68DB
:101F30001B6803F00203002B31D07B689B68002BE9
:101F400024D07B689B68802B20D07B689B68902B7B
:101F50001CD07B689B68A02B18D07B689B68B02B3B
:101F600014D07B689B68C02B10D07B689B68D02BFB
:101F70000CD07B689B68E02B08D07B689B68F02BBB
:101F800004D03D4840F2453105F088F83849384BD7
:101F90009B6823F0F0027B689B6813438B607B682F
:101FA0001B6803F00403002B25D07B68DB68002B43
:101FB00018D07B68DB68B3F5805F13D07B68DB6883
:101FC000B3F5A05F0ED07B68DB68B3F5C05F09D0C6
:101FD0007B68DB68B3F5E05F04D027484FF45371AA
:101FE00005F05CF82249224B9B6823F4E0527B68A1
:101FF000DB6813438B607B681B6803F00803002BCE
:1020000026D07B681B69002B18D07B681B69B3F551
:10201000805F13D07B681B69B3F5A05F0ED07B682F
:102020001B69B3F5C05F09D07B681B69B3F5E05F3E
:1020300004D0114840F2533105F030F80C490C4BF4
:102040009B6823F460427B681B69DB0013438B6051
:1020500000F0B2F80246094BA3FB02239B09184685
:10206000FFF7DAFA002318461037BD4680BD00BFDF
:1020700000380240003C02406C320108D34D62102F
:1020800080B495B000AF00237B640023FB64002381
:102090003B640023BB64454B9B6803F00C03042B9B
:1020A00006D0082B07D0002B76D1414BBB6476E0DD
:1020B000404BBB6473E03D4B5B6803F03F037B64C4
:1020C0003A4B5B6803F480034FF48002FA63FA6BC7
:1020D00092FAA2F2BA63BA6B7A637A6BB2FA82F2BC
:1020E0003A633A6BD2B2D340002B1CD0314A7B6C9E
:1020F000B2FBF3F22D4B596847F6C0730B4047F61D
:10210000C071F962F96A91FAA1F1B962B96A7962AA
:10211000796AB1FA81F13962396AC9B2CB4003FBFD
:1021200002F3FB641BE0224A7B6CB2FBF3F21F4B11
:10213000596847F6C0730B4047F6C071F961F969F9
:1021400091FAA1F1B961B96979617969B1FA81F15D
:1021500039613969C9B2CB4003FB02F3FB64134B0D
:102160005B6803F440334FF44032FA60FA6892FA45
:10217000A2F2BA60BA687A607A68B2FA82F23A6019
:102180003A68D2B2D34001335B003B64FA6C3B6CDB
:10219000B2FBF3F3BB6402E0054BBB6400BFBB6C56
:1021A00018465437BD465DF8047B7047003802403E
:1021B0000024F40000366E0180B584B000AFFFF754
:1021C0005FFF01460F4B9B6803F0F003F022FA60BB
:1021D000FA6892FAA2F2BA60BA687A607A68B2FAD9
:1021E00082F23A603A68D2B2D340074AD35C21FA0D
:1021F00003F3064A1360054B1B6818461037BD46AB
:1022000080BD00BF003802405C3201080C00002095
:1022100090B587B000AF7860396000233B61002340
:10222000FB600023BB603B681B68002B03D1284880
:10223000C32104F033FF3B685B68002B35D03B685B
:102240005B68012B31D03B685B68112B2DD03B685C
:102250005B68022B29D03B685B68122B25D03B685A
:102260005B681C4A934220D03B685B681A4A9342E1
:102270001BD03B685B68194A934216D03B685B6889
:10228000174A934211D03B685B68164A93420CD0C0
:102290003B685B68144A934207D03B685B68032B3A
:1022A00003D00B48C42104F0F9FE3B689B68002B67
:1022B0000BD03B689B68012B07D03B689B68022BC7
:1022C00003D00348C52104F0E9FE00237B6164E2EA
:1022D0009C32010800001110000021100000311094
:1022E0000000121000002210000032107B69012251
:1022F00002FA03F33B613B681A683B691340FB60D9
:10230000FA683B699A4240F045823B685B68022B61
:1023100004D03B685B68122B40F0E6803B681B6989
:10232000002B00F0B6803B681B69092B00F0B180E0
:102330003B681B69002B00F0AC803B681B69002BDD
:1023400000F0A7803B681B69002B00F0A2803B686F
:102350001B69002B00F09D803B681B69012B00F07E
:1023600098803B681B69012B00F093803B681B69D8
:10237000022B00F08E803B681B69022B00F08980E5
:102380003B681B69022B00F084803B681B69032BB0
:102390007FD03B681B69042B7BD03B681B69042BF7
:1023A00077D03B681B69042B73D03B681B69052BF6
:1023B0006FD03B681B69052B6BD03B681B69092BF1
:1023C00067D03B681B69062B63D03B681B69092BF0
:1023D0005FD03B681B69072B5BD03B681B69072BF1
:1023E00057D03B681B69072B53D03B681B69082BF0
:1023F0004FD03B681B69082B4BD03B681B69082BEF
:1024000047D03B681B69092B43D03B681B69092BEC
:102410003FD03B681B690A2B3BD03B681B690A2BEA
:1024200037D03B681B690B2B33D03B681B690C2BE7
:102430002FD03B681B690C2B2BD03B681B690D2BE5
:1024400027D03B681B690F2B23D03B681B69052BEA
:102450001FD03B681B69052B1BD03B681B69052BF4
:1024600017D03B681B69082B13D03B681B69082BEE
:102470000FD03B681B690C2B0BD03B681B69062BEC
:1024800007D03B681B690E2B03D08A48D62104F085
:1024900005FE3B681B697A6902F0070292009340CF
:1024A000BB607B69DA087B69D9087B68083153F81F
:1024B00021107B6903F007039B0018460F2383401C
:1024C000DB4319407B68083243F822107B69DA0845
:1024D0007B69D9087B68083153F82110BB68194320
:1024E0007B68083243F822107B681A687B695B00BE
:1024F000194603238B40DB431A407B681A607B68D4
:102500001A683B685B6803F00303796949008B40F4
:102510001A437B681A603B685B68012B0BD03B68F1
:102520005B68022B07D03B685B68112B03D03B68CC
:102530005B68122B3FD13B68DB68002B0FD03B68F8
:10254000DB68012B0BD03B68DB68022B07D03B68B4
:10255000DB68032B03D05748E62104F09FFD7B681E
:102560009A687B695B00194603238B40DB431A4062
:102570007B689A607B689A683B68DB687969490088
:102580008B401A437B689A607B685A687B6901219B
:1025900001FA03F3DB431A407B685A607B685A6890
:1025A0003B685B6803F0100319097B6901FA03F3C8
:1025B0001A437B685A607B68DA687B695B0019465E
:1025C00003238B40DB431A407B68DA607B68DA6860
:1025D0003B689B68796949008B401A437B68DA60E5
:1025E0003B685B6803F08053002B00F0D380324AD5
:1025F000314B5B6C43F4804353647B6903F003030A
:102600009B001A460F239340BB602C487B699B08B4
:102610002A497A699208023251F82210BA68D243E4
:102620000A40023340F82320244C7B699908234A4E
:102630007B699B08023352F823207B682048834241
:1026400052D07B681F48834231D07B681E4883424A
:102650002BD07B681D48834225D07B681C48834271
:102660001FD07B681B48834219D07B681A4883427D
:1026700013D07B68194883420DD07B681848834289
:1026800007D07B681748834201D109232DE00A2334
:102690002BE0082329E0072327E0062325E0052374
:1026A00023E0042321E003231FE002231DE0012394
:1026B0001BE000BF9C320108003802400038014096
:1026C000000002400004024000080240000C0240EA
:1026D000001002400014024000180240001C02409A
:1026E00000200240002402400023786900F003002B
:1026F000800083401A438B1C44F823202A492A4B2C
:102700001A68FB68DB4313400B602749264B5A6865
:10271000FB68DB4313404B603B685B6803F480332A
:10272000002B05D02049204B1A68FB6813430B602F
:102730003B685B6803F40033002B05D01A491A4B41
:102740005A68FB6813434B601749174B9A68FB683C
:10275000DB4313408B601449134BDA68FB68DB439F
:102760001340CB603B685B6803F48013002B05D0FB
:102770000D490D4B9A68FB6813438B603B685B689F
:1027800003F40013002B05D00749074BDA68FB68F8
:102790001343CB607B6901337B617B690F2B7FF631
:1027A000A5AD1C37BD4690BD003C014080B584B04E
:1027B00000AF78600B467B807B88012B39D07B880B
:1027C000022B36D07B88042B33D07B88082B30D06B
:1027D0007B88102B2DD07B88202B2AD07B88402B08
:1027E00027D07B88802B24D07B88B3F5807F20D0B6
:1027F0007B88B3F5007F1CD07B88B3F5806F18D041
:102800007B88B3F5006F14D07B88B3F5805F10D060
:102810007B88B3F5005F0CD07B88B3F5804F08D080
:102820007B88B3F5004F04D00A4840F2751104F0DC
:1028300035FC7B681A697B881340002B02D001238A
:10284000FB7301E00023FB73FB7B18461037BD468A
:1028500080BD00BF9C32010880B582B000AF7860B7
:102860000B467B8013467B707B88012B39D07B889D
:10287000022B36D07B88042B33D07B88082B30D0BA
:102880007B88102B2DD07B88202B2AD07B88402B57
:1028900027D07B88802B24D07B88B3F5807F20D005
:1028A0007B88B3F5007F1CD07B88B3F5806F18D090
:1028B0007B88B3F5006F14D07B88B3F5805F10D0B0
:1028C0007B88B3F5005F0CD07B88B3F5804F08D0D0
:1028D0007B88B3F5004F04D00E484FF4CB7104F061
:1028E000DDFB7B78002B07D07B78012B04D00948D7
:1028F00040F2971104F0D2FB7B78002B03D07B6869
:102900007A881A8302E07B687A885A830837BD4642
:1029100080BD00BF9C32010880B584B000AF7860F4
:102920000023FB607B68002B01D10123C1E17B68A0
:102930001B68974A93424ED07B681B68954A934226
:1029400049D07B681B68944A934244D07B681B68DB
:10295000924A93423FD07B681B68914A93423AD097
:102960007B681B688F4A934235D07B681B688E4A10
:10297000934230D07B681B688C4A93422BD07B6893
:102980001B688B4A934226D07B681B68894A934216
:1029900021D07B681B68884A93421CD07B681B68E7
:1029A000864A934217D07B681B68854A934212D0AF
:1029B0007B681B68834A93420DD07B681B68824A00
:1029C000934208D07B681B68804A934203D08048BA
:1029D000B52104F063FB7B685B68002B26D07B6825
:1029E0005B68B3F1007F21D07B685B68B3F1806FD7
:1029F0001CD07B685B68B3F1C06F17D07B685B68E5
:102A0000B3F1006F12D07B685B68B3F1206F0DD01B
:102A10007B685B68B3F1406F08D07B685B68B3F19B
:102A2000606F03D06A48B62104F038FB7B689B686E
:102A3000002B0BD07B689B68402B07D07B689B6882
:102A4000802B03D06248B72104F028FB7B68DB6849
:102A5000B3F5007F07D07B68DB68002B03D05C48B0
:102A6000B82104F01BFB7B681B69B3F5806F07D0AE
:102A70007B681B69002B03D05548B92104F00EFB7D
:102A80007B685B69002B0DD07B685B69B3F5006FD9
:102A900008D07B685B69B3F5805F03D04C48BA21EE
:102AA00004F0FCFA7B689B69002B0DD07B689B6966
:102AB000B3F5005F08D07B689B69B3F5804F03D006
:102AC0004348BB2104F0EAFA7B68DB69002B0CD099
:102AD0007B68DB69B3F5807F07D07B68DB69202BDF
:102AE00003D03B48BC2104F0D9FA7B681B6A002B59
:102AF00012D07B681B6AB3F5803F0DD07B681B6AE0
:102B0000B3F5003F08D07B681B6AB3F5403F03D0A4
:102B10002F48BD2104F0C2FA7B685B6A002B07D006
:102B20007B685B6A042B03D02948BE2104F0B6FA07
:102B30007B685B6A002B64D07B689B6A002B0FD09C
:102B40007B689B6A012B0BD07B689B6A022B07D0AA
:102B50007B689B6A032B03D01D48C32104F09EFAB7
:102B60007B68DB6A002B35D07B68DB6AB3F5000F2E
:102B700030D07B68DB6AB3F1807F2BD07B68DB6A67
:102B8000B3F1C07F26D01248C42104F087FA21E0B7
:102B900010600240286002404060024058600240DD
:102BA0007060024088600240A0600240B86002404D
:102BB00010640240286402404064024058640240AD
:102BC0007064024088640240A0640240B86402401D
:102BD000CC3201087B681B6B002B12D07B681B6B0F
:102BE000B3F5001F0DD07B681B6BB3F5800F08D0C9
:102BF0007B681B6BB3F5C00F03D03048C52104F0D0
:102C00004DFA7B68022283F835207B681B681B68BD
:102C1000FB60FA682A4B1340FB607B685A687B684C
:102C20009B681A437B68DB681A437B681B691A43FD
:102C30007B685B691A437B689B691A437B68DB6925
:102C40001A437B681B6A1343FA681343FB607B6873
:102C50005B6A042B07D17B68DA6A7B681B6B1343C2
:102C6000FA681343FB607B681B68FA681A607B682C
:102C70001B685B69FB60FB6823F00703FB607B68F4
:102C80005B6AFA681343FB607B685B6A042B04D1C0
:102C90007B689B6AFA681343FB607B681B68FA6871
:102CA0005A617B680022DA647B68012283F8352050
:102CB000002318461037BD4680BD00BFCC32010846
:102CC0003F8014F080B584B000AFF860B9607A60DE
:102CD0003B60FB6893F83430012B01D102232AE0DA
:102CE000FB68012283F83420FB68022283F8352038
:102CF0003B68002B03D03B68B3F5803F04D31048FA
:102D000040F25F1104F0CAF9FB681B68FA681268A8
:102D1000126822F001021A60F868B9687A683B68A4
:102D200003F0FCF9FB681B68FA681268126842F04D
:102D300001021A60002318461037BD4680BD00BF4F
:102D4000CC32010880B582B000AF78607B681B6828
:102D50001A46784B9A4272D9774B5A687B681B683F
:102D60001946764B994262D07B681B681946744BB2
:102D700099425AD07B681B681946724B994252D0CF
:102D80007B681B681946704B99424AD07B681B6868
:102D900019466E4B994241D07B681B6819466C4BB3
:102DA000994238D07B681B6819466A4B99422FD0EC
:102DB0007B681B681946684B994226D07B681B6864
:102DC0001946664B99421DD07B681B681946644BB7
:102DD000994214D07B681B681946624B99420BD00C
:102DE0007B681B681946604B994202D14FF400235F
:102DF0001EE04FF000731BE04FF4002318E04FF487
:102E0000002315E04FF4002312E04FF400730FE0AD
:102E10004FF400730CE04FF4007309E04FF40073BB
:102E200006E0082304E0082302E0082300E008236A
:102E30001340002B14BF01230023DBB29FE17B680A
:102E40001B681A46494B9A4240F292803A4B1A68E4
:102E50007B681B681946394B994262D07B681B68B6
:102E60001946374B99425AD07B681B681946354B37
:102E7000994252D07B681B681946334B99424AD01D
:102E80007B681B681946314B994241D07B681B68AF
:102E900019462F4B994238D07B681B6819462D4B39
:102EA00099422FD07B681B6819462B4B994226D03C
:102EB0007B681B681946294B99421DD07B681B68AB
:102EC0001946274B994214D07B681B681946254B3D
:102ED00099420BD07B681B681946234B994202D15B
:102EE0004FF400231EE04FF000731BE04FF400236B
:102EF00018E04FF4002315E04FF4002312E04FF4E4
:102F000000730FE04FF400730CE04FF4007309E01E
:102F10004FF4007306E0082304E0082302E00823CE
:102F200000E008231340002B14BF01230023DBB271
:102F300025E100BF58640240006402401060024076
:102F400010640240706002407064024028600240D9
:102F50002864024088600240886402404060024069
:102F600040640240A0600240A0640240B860024099
:102F70007B681B681A46704B9A4272D96F4B5A682D
:102F80007B681B6819466E4B994262D07B681B6850
:102F900019466C4B99425AD07B681B6819466A4B9C
:102FA000994252D07B681B681946684B99424AD0B7
:102FB0007B681B681946664B994241D07B681B6849
:102FC0001946644B994238D07B681B681946624B9E
:102FD00099422FD07B681B681946604B994226D0D6
:102FE0007B681B6819465E4B99421DD07B681B6845
:102FF00019465C4B994214D07B681B6819465A4BA2
:1030000099420BD07B681B681946584B994202D1F4
:103010004FF400231EE04FF000731BE04FF4002339
:1030200018E04FF4002315E04FF4002312E04FF4B2
:1030300000730FE04FF400730CE04FF4007309E0ED
:103040004FF4007306E0082304E0082302E008239D
:1030500000E008231340002B14BF01230023DBB240
:103060008DE0364B1A687B681B681946344B9942D1
:103070007ED07B681B681946324B99425AD07B68D8
:103080001B681946304B994252D07B681B68194621
:103090002E4B99424AD07B681B6819462C4B9942AB
:1030A00041D07B681B6819462A4B994238D07B680F
:1030B0001B681946284B99422FD07B681B6819461C
:1030C000264B994226D07B681B681946244B9942AF
:1030D0001DD07B681B681946224B994214D07B682F
:1030E0001B681946204B99420BD07B681B68194618
:1030F0001E4B994202D14FF400233AE04FF0007387
:1031000037E04FF4002334E04FF4002331E04FF474
:1031100000232EE04FF400732BE04FF4007328E0FF
:103120004FF4007325E04FF4007322E0082320E001
:1031300008231EE008231CE05860024000600240A3
:1031400010600240106402407060024070640240EF
:10315000286002402864024088600240886402407F
:103160004060024040640240A0600240A06402400F
:1031700008231340002B14BF01230023DBB2002BD4
:1031800000F033827B681B681B6803F00403002B8C
:1031900000F02B827B681B687A681268126822F044
:1031A00004021A607B681B681A46754B9A426FD9F5
:1031B0007449744BDA687B681B681846724B9842F6
:1031C00062D07B681B681846704B98425AD07B6867
:1031D0001B6818466E4B984252D07B681B68184695
:1031E0006C4B98424AD07B681B6818466A4B9842E1
:1031F00041D07B681B681846684B984238D07B6882
:103200001B681846664B98422FD07B681B6818468F
:10321000644B984226D07B681B681846624B9842E4
:103220001DD07B681B681846604B984214D07B68A1
:103230001B6818465E4B98420BD07B681B6818468B
:103240005C4B984202D14FF400231EE04FF0007314
:103250001BE04FF4002318E04FF4002315E04FF477
:10326000002312E04FF400730FE04FF400730CE002
:103270004FF4007309E04FF4007306E0082304E004
:10328000082302E0082300E008231343CB6096E103
:103290007B681B681A46484B9A4240F28F80394936
:1032A000384B9A687B681B681846374B984262D047
:1032B0007B681B681846354B98425AD07B681B6860
:1032C0001846334B984252D07B681B681846314BE6
:1032D00098424AD07B681B6818462F4B984241D0D1
:1032E0007B681B6818462D4B984238D07B681B685A
:1032F00018462B4B98422FD07B681B681846294BE9
:10330000984226D07B681B681846274B98421DD0F0
:103310007B681B681846254B984214D07B681B6855
:103320001846234B98420BD07B681B681846214BEC
:10333000984202D14FF400231EE04FF000731BE0CF
:103340004FF4002318E04FF4002315E04FF400235E
:1033500012E04FF400730FE04FF400730CE04FF4F1
:10336000007309E04FF4007306E0082304E008232B
:1033700002E0082300E0082313438B601FE100BF35
:103380005864024000640240106002401064024031
:10339000706002407064024028600240286402406D
:1033A00088600240886402404060024040640240FD
:1033B000A0600240A0640240B86002407B681B68C5
:1033C0001A466F4B9A426FD96E496E4BDA687B682A
:1033D0001B6818466C4B984262D07B681B68184685
:1033E0006A4B98425AD07B681B681846684B9842D3
:1033F00052D07B681B681846664B98424AD07B685F
:103400001B681846644B984241D07B681B6818467D
:10341000624B984238D07B681B681846604B9842D4
:103420002FD07B681B6818465E4B984226D07B687D
:103430001B6818465C4B98421DD07B681B68184679
:103440005A4B984214D07B681B681846584B9842D8
:103450000BD07B681B681846564B984202D14FF43C
:1034600000231EE04FF000731BE04FF4002318E030
:103470004FF4002315E04FF4002312E04FF40073E3
:103480000FE04FF400730CE04FF4007309E04FF4C9
:10349000007306E0082304E0082302E0082300E0AC
:1034A00008231343CB608AE03649364B9A687B6821
:1034B0001B681846344B98427ED07B681B681846C0
:1034C000324B98425AD07B681B681846304B984262
:1034D00052D07B681B6818462E4B98424AD07B68B6
:1034E0001B6818462C4B984241D07B681B681846D5
:1034F0002A4B984238D07B681B681846284B984264
:103500002FD07B681B681846264B984226D07B68D4
:103510001B681846244B98421DD07B681B681846D0
:10352000224B984214D07B681B681846204B984267
:103530000BD07B681B6818461E4B984202D14FF493
:1035400000233AE04FF0007337E04FF4002334E0FB
:103550004FF4002331E04FF400232EE04FF40073CA
:103560002BE04FF4007328E04FF4007325E04FF494
:10357000007322E0082320E008231EE008231CE05B
:103580005860024000600240106002401064024037
:10359000706002407064024028600240286402406B
:1035A00088600240886402404060024040640240FB
:1035B000A0600240A0640240082313438B607B6834
:1035C000DB6C43F001027B68DA647B68042283F8D9
:1035D00035207B68002283F834207B689B6C002BAD
:1035E00003D07B689B6C786898477B681B681A4699
:1035F000734B9A426ED9734B5A687B681B681946A5
:10360000714B99425ED07B681B6819466F4B99429B
:1036100056D07B681B6819466D4B99424ED07B682B
:103620001B6819466B4B994246D07B681B6819464C
:10363000694B99423ED07B681B681946674B99429B
:1036400036D07B681B681946654B99422ED07B6843
:103650001B681946634B994226D07B681B68194644
:10366000614B99421DD07B681B6819465F4B99429C
:1036700014D07B681B6819465D4B99420BD07B6860
:103680001B6819465B4B994202D14FF480331AE014
:103690004FF4800317E04FF4803314E04FF480338D
:1036A00011E04FF480330EE040230CE040230AE0A9
:1036B000402308E0402306E04F4B04E04E4B02E07D
:1036C0004D4B00E04C4B1340002B14BF0123002353
:1036D000DBB296E17B681B681A46484B9A4240F27F
:1036E0008F80384B1A687B681B681946364B9942A5
:1036F0005ED07B681B681946344B994256D07B6874
:103700001B681946324B99424ED07B681B6819469C
:10371000304B994246D07B681B6819462E4B994224
:103720003ED07B681B6819462C4B994236D07B688B
:103730001B6819462A4B99422ED07B681B68194694
:10374000284B994226D07B681B681946264B994224
:103750001DD07B681B681946244B994214D07B68A6
:103760001B681946224B99420BD07B681B6819468F
:10377000204B994202D14FF480331AE04FF480037A
:1037800017E04FF4803314E04FF4803311E04FF42E
:1037900080330EE040230CE040230AE0402308E0A1
:1037A000402306E0144B04E0134B02E0124B00E010
:1037B000114B1340002B14BF01230023DBB220E187
:1037C00058640240006402401060024010640240ED
:1037D0007060024070640240286002402864024029
:1037E00088600240886402404060024040640240B9
:1037F000A0600240A064024001008000B860024066
:103800007B681B681A466C4B9A426ED96B4B5A68A0
:103810007B681B6819466A4B99425ED07B681B68BF
:103820001946684B994256D07B681B681946664B0F
:1038300099424ED07B681B681946644B994246D02A
:103840007B681B681946624B99423ED07B681B68B7
:103850001946604B994236D07B681B6819465E4B0F
:1038600099422ED07B681B6819465C4B994226D042
:103870007B681B6819465A4B99421DD07B681B68B0
:103880001946584B994214D07B681B681946564B11
:1038900099420BD07B681B681946544B994202D160
:1038A0004FF480331AE04FF4800317E04FF4803375
:1038B00014E04FF4803311E04FF480330EE04023E6
:1038C0000CE040230AE0402308E0402306E0484B98
:1038D00004E0474B02E0464B00E0454B1340002B11
:1038E00014BF01230023DBB28BE0344B1A687B68E2
:1038F0001B681946324B99427CD07B681B6819467D
:10390000304B994256D07B681B6819462E4B994222
:103910004ED07B681B6819462C4B994246D07B6879
:103920001B6819462A4B99423ED07B681B68194692
:10393000284B994236D07B681B681946264B994222
:103940002ED07B681B681946244B994226D07B6891
:103950001B681946224B99421DD07B681B6819468B
:10396000204B994214D07B681B6819461E4B994224
:103970000BD07B681B6819461C4B994202D14FF44F
:10398000803338E04FF4800335E04FF4803332E089
:103990004FF480332FE04FF480332CE040232AE0B3
:1039A000402328E0402326E0402324E0104B22E07F
:1039B0000F4B20E00E4B1EE05860024000600240BA
:1039C0001060024010640240706002407064024067
:1039D00028600240286402408860024088640240F7
:1039E0004060024040640240A0600240A064024087
:1039F000010080007F4B1340002B14BF01230023E4
:103A0000DBB2002B00F027827B681B685B6903F048
:103A10008003002B00F01F827B681B687A681268A5
:103A2000526922F080025A617B681B681A46724B09
:103A30009A426BD97149714BDA687B681B681846EA
:103A40006F4B98425ED07B681B6818466D4B98425E
:103A500056D07B681B6818466B4B98424ED07B68EB
:103A60001B681846694B984246D07B681B6818460D
:103A7000674B98423ED07B681B681846654B98425E
:103A800036D07B681B681846634B98422ED07B6803
:103A90001B681846614B984226D07B681B68184605
:103AA0005F4B98421DD07B681B6818465D4B98425F
:103AB00014D07B681B6818465B4B98420BD07B6820
:103AC0001B681846594B984202D14FF480331AE0D4
:103AD0004FF4800317E04FF4803314E04FF4803349
:103AE00011E04FF480330EE040230CE040230AE065
:103AF000402308E0402306E03E4B04E03D4B02E05B
:103B00003C4B00E03B4B1343CB608EE17B681B6872
:103B10001A46474B9A4240F28D803849374B9A6893
:103B20007B681B681846364B98425ED07B681B68E2
:103B30001846344B984256D07B681B681846324B67
:103B400098424ED07B681B681846304B984246D04E
:103B50007B681B6818462E4B98423ED07B681B68DA
:103B600018462C4B984236D07B681B6818462A4B67
:103B700098422ED07B681B681846284B984226D066
:103B80007B681B681846264B98421DD07B681B68D3
:103B90001846244B984214D07B681B681846224B69
:103BA00098420BD07B681B681846204B984202D184
:103BB0004FF480331AE04FF4800317E04FF4803362
:103BC00014E04FF4803311E04FF480330EE04023D3
:103BD0000CE040230AE0402308E0402306E0054BC8
:103BE00004E0044B02E0034B00E0024B13438B6004
:103BF0001BE100BF010080005864024000640240E5
:103C00001060024010640240706002407064024024
:103C100028600240286402408860024088640240B4
:103C20004060024040640240A0600240A064024044
:103C3000B86002407B681B681A466B4B9A426BD98E
:103C40006A496A4BDA687B681B681846684B984279
:103C50005ED07B681B681846664B984256D07B68DE
:103C60001B681846644B98424ED07B681B68184608
:103C7000624B984246D07B681B681846604B98425E
:103C80003ED07B681B6818465E4B984236D07B68F6
:103C90001B6818465C4B98422ED07B681B68184600
:103CA0005A4B984226D07B681B681846584B98425E
:103CB0001DD07B681B681846564B984214D07B6811
:103CC0001B681846544B98420BD07B681B681846FB
:103CD000524B984202D14FF480331AE04FF48003E4
:103CE00017E04FF4803314E04FF4803311E04FF4C9
:103CF00080330EE040230CE040230AE0402308E03C
:103D0000402306E0464B04E0454B02E0444B00E014
:103D1000434B1343CB6088E03449344B9A687B684B
:103D20001B681846324B98427CD07B681B6818464B
:103D3000304B984256D07B681B6818462E4B9842F1
:103D40004ED07B681B6818462C4B984246D07B6847
:103D50001B6818462A4B98423ED07B681B68184661
:103D6000284B984236D07B681B681846264B9842F1
:103D70002ED07B681B681846244B984226D07B685F
:103D80001B681846224B98421DD07B681B6818465A
:103D9000204B984214D07B681B6818461E4B9842F3
:103DA0000BD07B681B6818461C4B984202D14FF41D
:103DB000803338E04FF4800335E04FF4803332E055
:103DC0004FF480332FE04FF480332CE040232AE07F
:103DD000402328E0402326E0402324E0104B22E04B
:103DE0000F4B20E00E4B1EE0586002400060024086
:103DF0001060024010640240706002407064024033
:103E000028600240286402408860024088640240C2
:103E10004060024040640240A0600240A064024052
:103E200001008000854B13438B607B68DB6C43F0A3
:103E300002027B68DA647B68042283F835207B68A1
:103E4000002283F834207B689B6C002B03D07B68B6
:103E50009B6C786898477B681B681A46784B9A4237
:103E600072D9784B5A687B681B681946764B994221
:103E700062D07B681B681946744B99425AD07B68A4
:103E80001B681946724B994252D07B681B681946D1
:103E9000704B99424AD07B681B6819466E4B994219
:103EA00041D07B681B6819466C4B994238D07B68BF
:103EB0001B6819466A4B99422FD07B681B681946CC
:103EC000684B994226D07B681B681946664B99421D
:103ED0001DD07B681B681946644B994214D07B68DF
:103EE0001B681946624B99420BD07B681B681946C8
:103EF000604B994202D14FF480231EE04FF0807353
:103F00001BE04FF4802318E04FF4802315E04FF4BA
:103F1000802312E04FF480730FE04FF480730CE0C5
:103F20004FF4807309E04FF4807306E0524B04E0D5
:103F3000514B02E0504B00E04F4B1340002B14BF9D
:103F400001230023DBB2A6E17B681B681A464B4BBA
:103F50009A4240F295803B4B1A687B681B68194671
:103F6000394B994262D07B681B681946374B99429E
:103F70005AD07B681B681946354B994252D07B68F2
:103F80001B681946334B99424AD07B681B68194617
:103F9000314B994241D07B681B6819462F4B99429F
:103FA00038D07B681B6819462D4B99422FD07B680F
:103FB0001B6819462B4B994226D07B681B68194613
:103FC000294B99421DD07B681B681946274B9942A3
:103FD00014D07B681B681946254B99420BD07B682F
:103FE0001B681946234B994202D14FF480231EE0EF
:103FF0004FF080731BE04FF4802318E04FF48023D0
:1040000015E04FF4802312E04FF480730FE04FF47B
:1040100080730CE04FF4807309E04FF4807306E086
:10402000154B04E0144B02E0134B00E0124B13401D
:10403000002B14BF01230023DBB22CE10100800020
:104040005864024000640240106002401064024064
:1040500070600240706402402860024028640240A0
:104060008860024088640240406002404064024030
:10407000A0600240A064024004008000B8600240DA
:104080007B681B681A46714B9A4272D9704B5A680A
:104090007B681B6819466F4B994262D07B681B682E
:1040A00019466D4B99425AD07B681B6819466B4B79
:1040B000994252D07B681B681946694B99424AD095
:1040C0007B681B681946674B994241D07B681B6827
:1040D0001946654B994238D07B681B681946634B7B
:1040E00099422FD07B681B681946614B994226D0B4
:1040F0007B681B6819465F4B99421DD07B681B6823
:1041000019465D4B994214D07B681B6819465B4B7E
:1041100099420BD07B681B681946594B994202D1D2
:104120004FF480231EE04FF080731BE04FF4802398
:1041300018E04FF4802315E04FF4802312E04FF491
:1041400080730FE04FF480730CE04FF4807309E04C
:104150004FF4807306E04B4B04E04A4B02E0494BBE
:1041600000E0484B1340002B14BF01230023DBB2B7
:1041700091E0374B1A687B681B681946354B9942AA
:1041800000F082807B681B681946334B99425AD0F5
:104190007B681B681946314B994252D07B681B687B
:1041A00019462F4B99424AD07B681B6819462D4B04
:1041B000994241D07B681B6819462B4B994238D0F5
:1041C0007B681B681946294B99422FD07B681B6876
:1041D0001946274B994226D07B681B681946254B08
:1041E00099421DD07B681B681946234B994214D015
:1041F0007B681B681946214B99420BD07B681B6872
:1042000019461F4B994202D14FF480233DE04FF0F5
:1042100080733AE04FF4802337E04FF4802334E09A
:104220004FF4802331E04FF480732EE04FF480731D
:104230002BE04FF4807328E04FF4807325E0114B9E
:1042400023E0104B21E00F4B1FE000BF58600240FD
:104250000060024010600240106402407060024042
:104260007064024028600240286402408860024076
:10427000886402404060024040640240A060024006
:10428000A064024004008000834B1340002B14BF45
:1042900001230023DBB2002B00F039827B681B680E
:1042A0001B6803F00203002B00F031827B681B685F
:1042B0007A681268126822F002021A607B681B6832
:1042C0001A46764B9A426FD97549754BDA687B6806
:1042D0001B681846734B984262D07B681B6818466F
:1042E000714B98425AD07B681B6818466F4B9842B6
:1042F00052D07B681B6818466D4B98424AD07B6849
:104300001B6818466B4B984241D07B681B68184667
:10431000694B984238D07B681B681846674B9842B7
:104320002FD07B681B681846654B984226D07B6867
:104330001B681846634B98421DD07B681B68184663
:10434000614B984214D07B681B6818465F4B9842BB
:104350000BD07B681B6818465D4B984202D14FF426
:1043600080231EE04FF080731BE04FF4802318E0A1
:104370004FF4802315E04FF4802312E04FF4807354
:104380000FE04FF480730CE04FF4807309E04FF4BA
:10439000807306E0404B04E03F4B02E03E4B00E000
:1043A0003D4B1343CB609CE17B681B681A46494B2D
:1043B0009A4240F291803A49394B9A687B681B686F
:1043C0001846384B984262D07B681B681846364BBB
:1043D00098425AD07B681B681846344B984252D09A
:1043E0007B681B681846324B98424AD07B681B6832
:1043F0001846304B984241D07B681B6818462E4BBC
:10440000984238D07B681B6818462C4B98422FD0B6
:104410007B681B6818462A4B984226D07B681B682D
:104420001846284B98421DD07B681B681846264BBF
:10443000984214D07B681B681846244B98420BD0D6
:104440007B681B681846224B984202D14FF48023A8
:104450001EE04FF080731BE04FF4802318E04FF410
:10446000802315E04FF4802312E04FF480730FE0B7
:104470004FF480730CE04FF4807309E04FF48073C5
:1044800006E0054B04E0044B02E0034B00E0024B66
:1044900013438B6025E100BF040080005864024094
:1044A00000640240106002401064024070600240EC
:1044B0007064024028600240286402408860024024
:1044C000886402404060024040640240A0600240B4
:1044D000A0640240B86002407B681B681A46704BBB
:1044E0009A426FD96F496F4BDA687B681B68184630
:1044F0006D4B984262D07B681B6818466B4B9842A4
:104500005AD07B681B681846694B984252D07B682A
:104510001B681846674B98424AD07B681B68184650
:10452000654B984241D07B681B681846634B9842A4
:1045300038D07B681B681846614B98422FD07B6847
:104540001B6818465F4B984226D07B681B6818464C
:104550005D4B98421DD07B681B6818465B4B9842A8
:1045600014D07B681B681846594B98420BD07B6867
:104570001B681846574B984202D14FF480231EE027
:104580004FF080731BE04FF4802318E04FF480233A
:1045900015E04FF4802312E04FF480730FE04FF4E6
:1045A00080730CE04FF4807309E04FF4807306E0F1
:1045B000494B04E0484B02E0474B00E0464B1343B5
:1045C000CB608EE03749374B9A687B681B6818468A
:1045D000354B984200F082807B681B681846334B4D
:1045E00098425AD07B681B681846314B984252D08B
:1045F0007B681B6818462F4B98424AD07B681B6823
:1046000018462D4B984241D07B681B6818462B4BAF
:10461000984238D07B681B681846294B98422FD0A7
:104620007B681B681846274B984226D07B681B681E
:104630001846254B98421DD07B681B681846234BB3
:10464000984214D07B681B681846214B98420BD0C7
:104650007B681B6818461F4B984202D14FF4802399
:104660003DE04FF080733AE04FF4802337E04FF4A1
:10467000802334E04FF4802331E04FF480732EE048
:104680004FF480732BE04FF4807328E04FF4807375
:1046900025E0114B23E0104B21E00F4B1FE000BF42
:1046A0005860024000600240106002401064024006
:1046B000706002407064024028600240286402403A
:1046C00088600240886402404060024040640240CA
:1046D000A0600240A064024004008000854B1343A8
:1046E0008B607B68DB6C43F004027B68DA647B6878
:1046F000042283F835207B68002283F834207B680D
:104700009B6C002B03D07B689B6C786898477B6818
:104710001B681A46784B9A4272D9784B5A687B6864
:104720001B681946764B994262D07B681B68194614
:10473000744B99425AD07B681B681946724B994258
:1047400052D07B681B681946704B99424AD07B68EF
:104750001B6819466E4B994241D07B681B6819460D
:104760006C4B994238D07B681B6819466A4B99425A
:104770002FD07B681B681946684B994226D07B680E
:104780001B681946664B99421DD07B681B68194609
:10479000644B994214D07B681B681946624B99425E
:1047A0000BD07B681B681946604B994202D14FF4CD
:1047B00080131EE04FF080631BE04FF4801318E07D
:1047C0004FF4801315E04FF4801312E04FF4806330
:1047D0000FE04FF480630CE04FF4806309E04FF486
:1047E000806306E0102304E0102302E0102300E0C1
:1047F00010231340002B14BF01230023DBB2A0E1E0
:104800007B681B681A464A4B9A4240F293803B4BA6
:104810001A687B681B681946394B994262D07B68DD
:104820001B681946374B99425AD07B681B6819465A
:10483000354B994252D07B681B681946334B9942DD
:104840004AD07B681B681946314B994241D07B683E
:104850001B6819462F4B994238D07B681B68194654
:104860002D4B99422FD07B681B6819462B4B9942E0
:1048700026D07B681B681946294B99421DD07B685E
:104880001B681946274B994214D07B681B68194650
:10489000254B99420BD07B681B681946234B9942E4
:1048A00002D14FF480131EE04FF080631BE04FF401
:1048B000801318E04FF4801315E04FF4801312E0DA
:1048C0004FF480630FE04FF480630CE04FF480639B
:1048D00009E04FF4806306E0102304E0102302E0B7
:1048E000102300E010231340002B14BF01230023EA
:1048F000DBB226E1040080005864024000640240FC
:104900001060024010640240706002407064024017
:1049100028600240286402408860024088640240A7
:104920004060024040640240A0600240A064024037
:10493000B86002407B681B681A46704B9A4272D975
:104940006F4B5A687B681B6819466E4B994262D060
:104950007B681B6819466C4B99425AD07B681B6870
:1049600019466A4B994252D07B681B681946684BBE
:1049700099424AD07B681B681946664B994241D0E0
:104980007B681B681946644B994238D07B681B686A
:104990001946624B99422FD07B681B681946604BC1
:1049A000994226D07B681B6819465E4B99421DD000
:1049B0007B681B6819465C4B994214D07B681B6866
:1049C00019465A4B99420BD07B681B681946584BC5
:1049D000994202D14FF480131EE04FF080631BE038
:1049E0004FF4801318E04FF4801315E04FF4801358
:1049F00012E04FF480630FE04FF480630CE04FF45B
:104A0000806309E04FF4806306E0102304E0102384
:104A100002E0102300E010231340002B14BF0123F9
:104A20000023DBB28DE0364B1A687B681B681946A1
:104A3000344B99427ED07B681B681946324B9942B1
:104A40005AD07B681B681946304B994252D07B681C
:104A50001B6819462E4B99424AD07B681B68194641
:104A60002C4B994241D07B681B6819462A4B9942CE
:104A700038D07B681B681946284B99422FD07B6839
:104A80001B681946264B994226D07B681B6819463D
:104A9000244B99421DD07B681B681946224B9942D2
:104AA00014D07B681B681946204B99420BD07B6859
:104AB0001B6819461E4B994202D14FF480133AE00D
:104AC0004FF0806337E04FF4801334E04FF48013ED
:104AD00031E04FF480132EE04FF480632BE04FF46D
:104AE000806328E04FF4806325E04FF4806322E088
:104AF000102320E010231EE010231CE05860024029
:104B00000060024010600240106402407060024089
:104B100070640240286002402864024088600240BD
:104B2000886402404060024040640240A06002404D
:104B3000A064024010231340002B14BF0123002364
:104B4000DBB2002B00F05D847B681B681B6803F000
:104B50000803002B00F055847B681B681B6803F476
:104B60008023002B00F026827B681B681A46754B59
:104B70009A426FD97449744BDA687B681B6818468F
:104B8000724B984262D07B681B681846704B984203
:104B90005AD07B681B6818466E4B984252D07B688F
:104BA0001B6818466C4B98424AD07B681B681846B5
:104BB0006A4B984241D07B681B681846684B984204
:104BC00038D07B681B681846664B98422FD07B68AC
:104BD0001B681846644B984226D07B681B681846B1
:104BE000624B98421DD07B681B681846604B984208
:104BF00014D07B681B6818465E4B98420BD07B68CC
:104C00001B6818465C4B984202D14FF480131EE09B
:104C10004FF080631BE04FF4801318E04FF48013D3
:104C200015E04FF4801312E04FF480630FE04FF46F
:104C300080630CE04FF4806309E04FF4806306E08A
:104C4000102304E0102302E0102300E0102313439C
:104C5000CB607AE17B681B681A46484B9A4240F267
:104C60008F803949384B9A687B681B681846374BE8
:104C7000984262D07B681B681846354B98425AD0E0
:104C80007B681B681846334B984252D07B681B6880
:104C90001846314B98424AD07B681B6818462F4B08
:104CA000984241D07B681B6818462D4B984238D0FB
:104CB0007B681B6818462B4B98422FD07B681B687B
:104CC0001846294B984226D07B681B681846274B0C
:104CD00098421DD07B681B681846254B984214D01B
:104CE0007B681B681846234B98420BD07B681B6877
:104CF0001846214B984202D14FF480131EE04FF02A
:104D000080631BE04FF4801318E04FF4801315E02C
:104D10004FF4801312E04FF480630FE04FF4806390
:104D20000CE04FF4806309E04FF4806306E0102349
:104D300004E0102302E0102300E0102313438B60F3
:104D400003E100BF5864024000640240106002406A
:104D500010640240706002407064024028600240AB
:104D6000286402408860024088640240406002403B
:104D700040640240A0600240A0640240B86002406B
:104D80007B681B681A467D4B9A426FD97C497C4BE5
:104D9000DA687B681B6818467A4B984262D07B6859
:104DA0001B681846784B98425AD07B681B68184697
:104DB000764B984252D07B681B681846744B9842D9
:104DC0004AD07B681B681846724B984241D07B687A
:104DD0001B681846704B984238D07B681B68184691
:104DE0006E4B98422FD07B681B6818466C4B9842DC
:104DF00026D07B681B6818466A4B98421DD07B689A
:104E00001B681846684B984214D07B681B6818468C
:104E1000664B98420BD07B681B681846644B9842DF
:104E200002D14FF480131EE04FF080631BE04FF47B
:104E3000801318E04FF4801315E04FF4801312E054
:104E40004FF480630FE04FF480630CE04FF4806315
:104E500009E04FF4806306E0102304E0102302E031
:104E6000102300E010231343CB606EE04449444B11
:104E70009A687B681B681846424B984262D07B68F0
:104E80001B681846404B98425AD07B681B681846EE
:104E90003E4B984252D07B681B6818463C4B984268
:104EA0004AD07B681B6818463A4B984241D07B68D1
:104EB0001B681846384B984238D07B681B681846E8
:104EC000364B98422FD07B681B681846344B98426B
:104ED00026D07B681B681846324B98421DD07B68F1
:104EE0001B681846304B984214D07B681B681846E4
:104EF0002E4B98420BD07B681B6818462C4B98426F
:104F000002D14FF480131EE04FF080631BE04FF49A
:104F1000801318E04FF4801315E04FF4801312E073
:104F20004FF480630FE04FF480630CE04FF4806334
:104F300009E04FF4806306E0102304E0102302E050
:104F4000102300E0102313438B607B681B681B68F1
:104F500003F40023002B04D17B68312283F8352031
:104F600047E27B681B681B6803F40023002B00F0FA
:104F700040827B68412283F835203AE25860024043
:104F80000060024010600240106402407060024005
:104F90007064024028600240286402408860024039
:104FA000886402404060024040640240A0600240C9
:104FB000A06402407B681B681B6803F48073002BAD
:104FC00007D17B681B687A681268126822F00802B1
:104FD0001A607B681B681A46744B9A426FD97449F1
:104FE000734BDA687B681B681846724B984262D034
:104FF0007B681B681846704B98425AD07B681B68C8
:1050000018466E4B984252D07B681B6818466C4B12
:1050100098424AD07B681B6818466A4B984241D038
:105020007B681B681846684B984238D07B681B68C1
:105030001846664B98422FD07B681B681846644B15
:10504000984226D07B681B681846624B98421DD058
:105050007B681B681846604B984214D07B681B68BD
:1050600018465E4B98420BD07B681B6818465C4B19
:10507000984202D14FF480131EE04FF080631BE092
:105080004FF4801318E04FF4801315E04FF48013B1
:1050900012E04FF480630FE04FF480630CE04FF4B4
:1050A000806309E04FF4806306E0102304E01023DE
:1050B00002E0102300E010231343CB6095E17B68EE
:1050C0001B681A46474B9A4240F28E803849384B4B
:1050D0009A687B681B681846364B984262D07B689A
:1050E0001B681846344B98425AD07B681B68184698
:1050F000324B984252D07B681B681846304B98421E
:105100004AD07B681B6818462E4B984241D07B687A
:105110001B6818462C4B984238D07B681B68184691
:105120002A4B98422FD07B681B681846284B984220
:1051300026D07B681B681846264B98421DD07B689A
:105140001B681846244B984214D07B681B6818468D
:10515000224B98420BD07B681B681846204B984224
:1051600002D14FF480131EE04FF080631BE04FF438
:10517000801318E04FF4801315E04FF4801312E011
:105180004FF480630FE04FF480630CE04FF48063D2
:1051900009E04FF4806306E0102304E0102302E0EE
:1051A000102300E0102313438B601EE1586402407B
:1051B00000640240106002401064024070600240CF
:1051C0007064024028600240286402408860024007
:1051D000886402404060024040640240A060024097
:1051E000A0640240B86002407B681B681A466F4B9F
:1051F0009A426FD96E496E4BDA687B681B68184615
:105200006C4B984262D07B681B6818466A4B984288
:105210005AD07B681B681846684B984252D07B680E
:105220001B681846664B98424AD07B681B68184634
:10523000644B984241D07B681B681846624B984289
:1052400038D07B681B681846604B98422FD07B682B
:105250001B6818465E4B984226D07B681B68184630
:105260005C4B98421DD07B681B6818465A4B98428D
:1052700014D07B681B681846584B98420BD07B684B
:105280001B681846564B984202D14FF480131EE01B
:105290004FF080631BE04FF4801318E04FF480134D
:1052A00015E04FF4801312E04FF480630FE04FF4E9
:1052B00080630CE04FF4806309E04FF4806306E004
:1052C000102304E0102302E0102300E01023134316
:1052D000CB608AE03649364B9A687B681B68184673
:1052E000344B98427ED07B681B681846324B9842FC
:1052F0005AD07B681B681846304B984252D07B6866
:105300001B6818462E4B98424AD07B681B6818468B
:105310002C4B984241D07B681B6818462A4B984218
:1053200038D07B681B681846284B98422FD07B6882
:105330001B681846264B984226D07B681B68184687
:10534000244B98421DD07B681B681846224B98421C
:1053500014D07B681B681846204B98420BD07B68A2
:105360001B6818461E4B984202D14FF480133AE056
:105370004FF0806337E04FF4801334E04FF4801334
:1053800031E04FF480132EE04FF480632BE04FF4B4
:10539000806328E04FF4806325E04FF4806322E0CF
:1053A000102320E010231EE010231CE05860024070
:1053B00000600240106002401064024070600240D1
:1053C0007064024028600240286402408860024005
:1053D000886402404060024040640240A060024095
:1053E000A0640240102313438B607B68312283F852
:1053F00035207B681B6C002B03D07B681B6C7868A6
:1054000098477B681B681A46774B9A4272D9774B4C
:105410005A687B681B681946754B994262D07B6855
:105420001B681946734B99425AD07B681B68194612
:10543000714B994252D07B681B6819466F4B994259
:105440004AD07B681B6819466D4B994241D07B68F6
:105450001B6819466B4B994238D07B681B6819460C
:10546000694B99422FD07B681B681946674B99425C
:1054700026D07B681B681946654B99421DD07B6816
:105480001B681946634B994214D07B681B68194608
:10549000614B99420BD07B681B6819465F4B994260
:1054A00002D14FF400131EE04FF000631BE04FF4F5
:1054B000001318E04FF4001315E04FF4001312E04E
:1054C0004FF400630FE04FF400630CE04FF400630F
:1054D00009E04FF4006306E0202304E0202302E00B
:1054E000202300E020231340002B14BF01230023BE
:1054F000DBB29EE17B681B681A46494B9A4240F238
:1055000091803A4B1A687B681B681946384B994260
:1055100062D07B681B681946364B99425AD07B682B
:105520001B681946344B994252D07B681B68194658
:10553000324B99424AD07B681B681946304B9942DE
:1055400041D07B681B6819462E4B994238D07B6846
:105550001B6819462C4B99422FD07B681B68194653
:105560002A4B994226D07B681B681946284B9942E2
:105570001DD07B681B681946264B994214D07B6866
:105580001B681946244B99420BD07B681B6819464F
:10559000224B994202D14FF400131EE04FF00063FA
:1055A0001BE04FF4001318E04FF4001315E04FF424
:1055B000001312E04FF400630FE04FF400630CE0BF
:1055C0004FF4006309E04FF4006306E0202304E099
:1055D000202302E0202300E020231340002B14BFEF
:1055E00001230023DBB224E158640240006402403E
:1055F000106002401064024070600240706402401B
:1056000028600240286402408860024088640240AA
:105610004060024040640240A0600240A06402403A
:10562000B86002407B681B681A46704B9A4272D978
:105630006F4B5A687B681B6819466E4B994262D063
:105640007B681B6819466C4B99425AD07B681B6873
:1056500019466A4B994252D07B681B681946684BC1
:1056600099424AD07B681B681946664B994241D0E3
:105670007B681B681946644B994238D07B681B686D
:105680001946624B99422FD07B681B681946604BC4
:10569000994226D07B681B6819465E4B99421DD003
:1056A0007B681B6819465C4B994214D07B681B6869
:1056B00019465A4B99420BD07B681B681946584BC8
:1056C000994202D14FF400131EE04FF000631BE03B
:1056D0004FF4001318E04FF4001315E04FF40013DB
:1056E00012E04FF400630FE04FF400630CE04FF45E
:1056F000006309E04FF4006306E0202304E0202368
:1057000002E0202300E020231340002B14BF0123DC
:105710000023DBB28DE0364B1A687B681B681946A4
:10572000344B99427ED07B681B681946324B9942B4
:105730005AD07B681B681946304B994252D07B681F
:105740001B6819462E4B99424AD07B681B68194644
:105750002C4B994241D07B681B6819462A4B9942D1
:1057600038D07B681B681946284B99422FD07B683C
:105770001B681946264B994226D07B681B68194640
:10578000244B99421DD07B681B681946224B9942D5
:1057900014D07B681B681946204B99420BD07B685C
:1057A0001B6819461E4B994202D14FF400133AE090
:1057B0004FF0006337E04FF4001334E04FF4001370
:1057C00031E04FF400132EE04FF400632BE04FF470
:1057D000006328E04FF4006325E04FF4006322E00B
:1057E000202320E020231EE020231CE058600240FC
:1057F000006002401060024010640240706002408D
:1058000070640240286002402864024088600240C0
:10581000886402404060024040640240A060024050
:10582000A064024020231340002B14BF0123002357
:10583000DBB2002B00F053847B681B681B6803F00D
:105840001003002B00F04B847B681B681B6803F47B
:105850008023002B00F030827B681B681A46754B52
:105860009A426FD97449744BDA687B681B68184692
:10587000724B984262D07B681B681846704B984206
:105880005AD07B681B6818466E4B984252D07B6892
:105890001B6818466C4B98424AD07B681B681846B8
:1058A0006A4B984241D07B681B681846684B984207
:1058B00038D07B681B681846664B98422FD07B68AF
:1058C0001B681846644B984226D07B681B681846B4
:1058D000624B98421DD07B681B681846604B98420B
:1058E00014D07B681B6818465E4B98420BD07B68CF
:1058F0001B6818465C4B984202D14FF400131EE01F
:105900004FF000631BE04FF4001318E04FF4001356
:1059100015E04FF4001312E04FF400630FE04FF472
:1059200000630CE04FF4006309E04FF4006306E00D
:10593000202304E0202302E0202300E0202313435F
:10594000CB607AE17B681B681A46484B9A4240F26A
:105950008F803949384B9A687B681B681846374BEB
:10596000984262D07B681B681846354B98425AD0E3
:105970007B681B681846334B984252D07B681B6883
:105980001846314B98424AD07B681B6818462F4B0B
:10599000984241D07B681B6818462D4B984238D0FE
:1059A0007B681B6818462B4B98422FD07B681B687E
:1059B0001846294B984226D07B681B681846274B0F
:1059C00098421DD07B681B681846254B984214D01E
:1059D0007B681B681846234B98420BD07B681B687A
:1059E0001846214B984202D14FF400131EE04FF0AD
:1059F00000631BE04FF4001318E04FF4001315E0B0
:105A00004FF4001312E04FF400630FE04FF4006313
:105A10000CE04FF4006309E04FF4006306E020233C
:105A200004E0202302E0202300E0202313438B60C6
:105A300003E100BF5864024000640240106002406D
:105A400010640240706002407064024028600240AE
:105A5000286402408860024088640240406002403E
:105A600040640240A0600240A0640240B86002406E
:105A70007B681B681A46824B9A426FD98149814BD9
:105A8000DA687B681B6818467F4B984262D07B6857
:105A90001B6818467D4B98425AD07B681B68184695
:105AA0007B4B984252D07B681B681846794B9842D2
:105AB0004AD07B681B681846774B984241D07B6878
:105AC0001B681846754B984238D07B681B6818468F
