:020000040800F2
:1000000000000520F9020008D95B0008DD5B00084C
:10001000E15B0008E55B0008E95B00080000000008
:100020000000000000000000000000000D040008B7
:10003000ED5B000800000000150400083D470008C3
:1000400029040008290400082904000829040008DC
:1000500029040008290400082904000829040008CC
:1000600029040008290400082904000829040008BC
:1000700029040008290400082904000829040008AC
:10008000290400082904000829040008290400089C
:10009000290400082904000829040008290400088C
:1000A000290400082904000829040008290400087C
:1000B000290400082904000829040008290400086C
:1000C000290400082904000829040008290400085C
:1000D000290400082904000829040008290400084C
:1000E000290400082904000829040008290400083C
:1000F000290400082904000829040008290400082C
:10010000290400082904000829040008290400081B
:10011000290400082904000829040008290400080B
:1001200029040008290400082904000829040008FB
:1001300029040008290400082904000829040008EB
:1001400029040008290400082904000829040008DB
:1001500029040008290400082904000829040008CB
:1001600029040008290400082904000829040008BB
:1001700029040008290400082904000800000000E0
:10018000290400082904000829040008290400089B
:10019000290400082904000829040008290400088B
:1001A000290400082904000829040008290400087B
:1001B000290400082904000829040008290400086B
:1001C000290400082904000800B583B002F0B2FD3C
:1001D000384B394A1360394A136039490CE00A68D0
:1001E0004B6801F10C04886803E01168196004335E
:1001F00004329842F9D82146324B9942EFD32E4B24
:100200001A68314B9A4204D12C4B1A682F4B9A42F0
:1002100000D0FEE7274B2E4A13602E4A13602E4B68
:100220000AE0194651F8082B5B6802E000201060D4
:1002300004329A42FAD30B46284A9342F1D3244B14
:100240001B6813B9234B1B6803B1FEE703F094FB53
:1002500001A8694602F0FAFC214C224B1C1BA41099
:10026000002504E01E4B53F8253098470135AC4279
:10027000F8DC1D4C1D4B1C1BA410002504E01A4B80
:1002800053F8253098470135AC42F8DC01980099C5
:1002900005F0BCFA0546164C164B1C1BA41004E0D6
:1002A000013C134B53F824309847002CF8DC2846C7
:1002B00002F09EFCBABADECA00000020CC04002086
:1002C0002C040008440400087856341232547698FE
:1002D000D00400208C450020440400085404000889
:1002E000540400085404000854040008540400088E
:1002F000540400085404000808B5FFF765FF00BF68
:1003000000BEFEE71EF0040F0CBFEFF30880EFF312
:1003100009807146414A10472DE9F04182B00446F8
:100320008846134B5E6B9D6B9F6A1B6B13F0020F2D
:100330000DD00F4BDB6A002B09DA4BF6AB6102F0F4
:100340007DFD20B14FF00042094BDA620CE0094814
:1003500002F090FCCDF800802046394632462B460C
:1003600002F0F4FC00BEFEE702B0BDE8F08100BF81
:1003700000ED00E0C47C000800BEFEE71EF0040FA4
:100380000CBFEFF30880EFF309807146244A104751
:100390002DE9F04182B007468846084B5D6B9C6BA7
:1003A0009E6A074802F066FCCDF800803846314668
:1003B0002A46234602F0CAFC00BEFEE700ED00E03C
:1003C000D47C00081EF0040F0CBFEFF30880EFF39D
:1003D00009807146134A10472DE9F04182B0074663
:1003E0008846084B5D6B9C6B9E6A074802F042FC96
:1003F000CDF80080384631462A46234602F0A6FC56
:1004000000BEFEE700ED00E0E07C000800BEFEE775
:1004100000BEFEE700BEFEE77047000019030008BB
:0C04200091030008D903000800BEFEE7AD
:10042C00F0B9000800000020D0040020F0B900084A
:10043C000000001000000010D004002090450020A7
:08044C00000000100000001088
:1004580010B5044601F074FF064BA3FB0030800979
:1004680000F0B0FB4FF0FF302146002200F056FBB1
:10047800002010BDD34D621008B5032000F030FBFA
:100488000020FFF7E5FF05F0A1FB002008BD00BF35
:10049800014B1868704700BFD404002010B504460B
:1004A800504B5A6822F440325A60596842680A43ED
:1004B8005A600268536823F4807353600268536873
:1004C800016943EA012353600268536823F04073CB
:1004D80053600268516883680B43536002689368ED
:1004E80023F40063936002689168C3680B439360C8
:1004F800826A3D4B9A4214D00268936823F0706375
:10050800936002689168836A0B43936002689368FA
:1005180023F04053936002689168C36A0B43936069
:1005280009E00268936823F0706393600268936837
:1005380023F0405393602268936823F0020393608A
:1005480022689368A16943EA41039360236A03B36D
:10055800636A013B072B04D9244840F20F6102F07B
:1005680079FB2268536843F4006353602268536838
:1005780023F460435360636A013B4FF4604292FA8C
:10058800A2F2B2FA82F29340226851680B43536098
:1005980004E02268536823F4006353602268D36A36
:1005A80023F47003D3622168CA6AE369013B42EA13
:1005B8000353CB622268936823F400739360226824
:1005C8009368216B43EA412393602268936823F47C
:1005D8008063936022689368616943EA812393602A
:1005E80010BD00BF002301400100000F687900081A
:1005F800704700BF002800F0DD8010B5044603688E
:100608006D4A6E498B4218BF934208D002F580723A
:10061800934204D06A484FF4877102F01BFB636869
:10062800002B18BFB3F5803F0AD0B3F5003F07D0C1
:10063800B3F5403F04D0624840F20F1102F00AFBC4
:10064800A368002B18BFB3F1807F0AD0B3F1007FF5
:1006580007D0B3F1407F04D059484FF4887102F0B5
:10066800F9FA2369012B04D9554840F2111102F017
:10067800F1FAA369012B04D951484FF4897102F0AA
:10068800E9FAA36A002B18BFB3F1807F2ED0B3F12B
:10069800007F2BD0B3F1407F28D0B3F1806F25D0F5
:1006A800B3F1A06F22D0B3F1C06F1FD0B3F1E06FE8
:1006B8001CD0B3F1006F19D0B3F1106F16D0B3F19D
:1006C800206F13D0B3F1306F10D0B3F1406F0DD05D
:1006D800B3F1506F0AD0B3F1706F07D0394A934223
:1006E80004D0374840F2131102F0B4FAE368002B43
:1006F80018BFB3F5006F04D031484FF48A7102F087
:10070800A9FAE369013B0F2B04D92D4840F21511D2
:1007180002F0A0FA236B012B04D929484FF48B71FE
:1007280002F098FA6369022B04D9254840F21711A0
:1007380002F090FA236A012B04D921484FF48C71F6
:1007480002F088FAA26A1F4B9A4210D0E36A002B83
:1007580018BFB3F1805F0AD0B3F1005F07D0B3F1DF
:10076800405F04D016484FF48E7102F073FA236C80
:100778002BB9636484F83C302046FFF739FF236CBB
:1007880013F0100F11D1226C0F4B134043F00203EA
:1007980023642046FFF782FE00206064236C23F068
:1007A800030343F00103236400E00120002384F8DD
:1007B8003C3010BD0120704700210140002001405D
:1007C800687900080100000FFDEEFFFF10B582B048
:1007D8000446002301938369012B04D942484FF44E
:1007E800DD7102F037FAE36A002B18BFB3F1805FBE
:1007F8000AD0B3F1005F07D0B3F1405F04D03A48A4
:1008080040F2BB1102F026FA94F83C30012B5FD07D
:10081800012384F83C3023689A6812F0010F13D141
:100828009A6842F001029A60304B1B68304AA2FB7A
:1008380003239B0C03EB4303019302E0019B013B61
:100848000193019B002BF9D12268936813F0010FE3
:1008580040D0216C274B0B4043F4807323645368CA
:1008680013F4806F05D0236C23F4405343F4805372
:100878002364236C13F4805F04D0636C23F00603B5
:10088800636401E000236364002384F83C306FF064
:1008980002031360184B5B6813F01F0F0AD123681B
:1008A8009A6812F0405F17D19A6842F080429A60C5
:1008B800002016E02368114A93420FD19A6812F07B
:1008C800405F0DD19A6842F080429A60002008E0AB
:1008D800022006E0002004E0002002E0002000E002
:1008E800002002B010BD00BF687900080C0000208D
:1008F80083DE1B43FEF8FFFF002301400020014078
:1009080030B583B005460C46002301930B686E4A48
:10091800934218BF122B04D96C4840F2FB4102F0F5
:1009280099F96368013B0F2B04D9684840F2FC41F0
:1009380002F090F9A368072B04D9644840F2FD41FE
:1009480002F088F995F83C30012B00F0B9800123BA
:1009580085F83C302368092B21D92868C2689BB2E6
:1009680003EB43031E3B072101FA03F322EA0303C7
:10097800C3602368544A934206D12A68D368A168A1
:1009880043EA0163D3601EE02968C868A2689BB285
:1009980003EB43031E3B9A400243CA6013E02868F6
:1009A80002699BB203EB4303072101FA03F322EA2E
:1009B8000303036129680869A368228802EB4202DD
:1009C800934003430B616368062B16D82868426B73
:1009D80003EB8303053B1F2101FA03F322EA030318
:1009E80043632968486B2288636803EB8303053BEC
:1009F80002FA03F303434B632EE00C2B16D8286846
:100A0800026B03EB8303233B1F2101FA03F322EA62
:100A1800030303632968086B2288636803EB830375
:100A2800233B02FA03F303430B6315E02868C26A09
:100A380003EB8303413B1F2101FA03F322EA03037B
:100A4800C3622968C86A2288636803EB8303413B51
:100A580002FA03F30343CB622A681D4B9A4207D17B
:100A68002368122B04D11B4A536843F48003536054
:100A78002A68174B9A421FD12368134A112B18BFB3
:100A8800934219D1134A536843F400035360226810
:100A98000D4B9A4210D1104B1B68104AA2FB03233E
:100AA8009B0C03EB83035B00019302E0019B013B7A
:100AB8000193019B002BF9D1002085F83C0000E050
:100AC800022003B030BD00BF120000106879000892
:100AD80000200140002301400C00002083DE1B435E
:100AE80010B50446C31E042B03D90948A42102F0FB
:100AF800B1F804F00700074AD36823F4E0631B0445
:100B08001B0C43EA0020044B0343D36010BD00BF15
:100B18009879000800ED00E00000FA0570B5044679
:100B28000E4615460F2A03D91848BC2102F092F840
:100B38000F2E03D91548BD2102F08CF8144BDB6841
:100B4800C3F30223C3F10702042A28BF0422191D94
:100B5800062901D9D81E00E00020012303FA02F279
:100B6800013A324002FA00F183405A1E2A400A43F1
:100B7800002C06DA04F00F041201D2B2054B1A5504
:100B880070BD1201D2B2044B1A5570BD9879000895
:100B980000ED00E014ED00E000E400E010B5041EF4
:100BA80003DA0648D02102F055F8610904F01F0461
:100BB8000123A340024A42F8213010BD9879000869
:100BC80000E100E00138B0F1807F0AD2064B58609E
:100BD800F021064A82F823100020986007221A6044
:100BE80070470120704700BF10E000E000ED00E012
:100BF800704700BFC8B110B5044602680C4B9A4252
:100C080003D00C48EE2102F025F8237913F0FF0FEA
:100C180004D1002363712046FFF7EAFF0223237102
:100C2800002020610123237110BD0120704700BFFF
:100C380000740040CC79000838B504460D460029F8
:100C480018BF102904D01D484FF4B77102F002F8FC
:100C58006379012B30D0012363710222227122684B
:100C68001168AB400B43136085B92268116813689B
:100C780003F03803382B14BF0023012313EA910330
:100C880015D0536843F00103536010E022681168DF
:100C9800136803F46013B3F5601F14BF0023012326
:100CA80013EA914303D0536843F0020353600123CE
:100CB80023710020607138BD022038BDCC7900084E
:100CC800F8B504460E4615460B68002B18BF242BB2
:100CD80012D00C2B10D0142B0ED01C2B0CD0042BA4
:100CE8000AD02C2B08D0342B06D03C2B04D01C481F
:100CF80040F20E3101F0AEFF7368002B18BF022BD3
:100D080004D0174840F20F3101F0A4FF002D18BF9E
:100D1800102D04D012484FF4447101F09BFF637901
:100D2800012B1BD0012060710223237127683968C9
:100D380040F6FE73AB4021EA0302316873680B4347
:100D4800AB4013433B6021680A68C023AB4022EAEA
:100D580003030B60207100206071F8BD0220F8BD0C
:100D6800CC790008F0B583B0074614461D46002329
:100D780001930E46994218BF102904D0144840F236
:100D8800463101F067FF002C18BF042C06D0082C50
:100D980004D00F4840F2473101F05CFF4FF6F07382
:100DA8009D4204D90A484FF4527101F053FF3B6841
:100DB800019326B9019B1C440834019403E0019B6C
:100DC8001C4414340194019B1D60002003B0F0BD45
:100DD800CC7900082DE9F04F83B080460F46B34B1D
:100DE800B34A904218BF98422BD003F50063C31A48
:100DF80018BF012302F50062904222D00BB3AD4B1D
:100E0800C31A18BF012302F50062904219D0C3B17A
:100E1800A94BC31A18BF012302F50062904210D0F3
:100E28007BB1A64BC31A18BF012302F5006290429A
:100E380007D033B1A24B984203D0A248C32101F096
:100E480009FF3B881BB99F48C42101F003FF7B6859
:100E5800112B18BF012B20D9022B1ED0122B1CD00E
:100E6800994A934219D002F58012934215D002F59F
:100E78008012934211D0A2F5F81293420DD002F5D8
:100E88008012934209D002F58012934205D0032BB9
:100E980003D08C48C52101F0DDFEBB68022B03D9C5
:100EA8008848C62101F0D6FE0024F8E0A1460125B5
:100EB800A5403B6803EA050AAA4540F0EF807B6835
:100EC800122B18BF022B1CD13B690F2B18BF0C2B00
:100ED80007D90D2B05D00E2B03D07A48D72101F066
:100EE800B9FEE608083658F8261004F00700800016
:100EF8000F23834021EA03023B698340134348F8E8
:100F08002630D8F800304FEA440B032606FA0BF6D1
:100F1800F64306EA03027B6803F0030303FA0BF3C4
:100F28001343C8F800307B685A1E112B18BF012ADA
:100F380001D9122B1CD1FB68032B03D96148EB2183
:100F480001F088FED8F8083006EA0302FB6803FAC5
:100F58000BF31343C8F80830D8F8043023EA050324
:100F68007D68C5F3001505FA09F51D43C8F8045056
:100F7800D8F80C303340BE6806FA0BF61E43C8F8A2
:100F88000C607B6813F0805F00F088800023019379
:100F98004E4B5A6C42F480425A645B6C03F48043B3
:100FA8000193019BA308991C494A52F8211004F0A7
:100FB800030080000F22824021EA02013C4A90454A
:100FC80037D002F58062904531D002F580629045B5
:100FD8002BD002F58062904525D002F580629045BD
:100FE8001FD002F58062904519D002F580629045C5
:100FF80013D002F5806290450DD002F580629045CD
:1010080007D002F58062904501D1092212E00A2238
:1010180010E008220EE007220CE006220AE0052272
:1010280008E0042206E0032204E0022202E0012292
:1010380000E0002282400A430233254941F8232078
:10104800244B1A686FEA0A0303EA0201786810F46D
:10105800803F01D04AEA02011E4A1160526803EA41
:101068000201786810F4003F01D04AEA0201194AE7
:101078005160926803EA0201786810F4801F01D079
:101088004AEA0201134A9160D2681340796811F460
:10109800001F01D04AEA02030E4AD36001340F2C24
:1010A8007FF604AF03B0BDE8F08F00BF0004024034
:1010B8000000024000140240001C024000240240CC
:1010C80000280240FC790008000011100038024096
:1010D80000380140003C014038B505460C4621B9AE
:1010E800054840F28D1101F0B5FD2B69234201D06E
:1010F800012038BD002038BDFC79000870B50646CF
:1011080015460C4621B9094840F2AD1101F0A2FD7F
:10111800012D04D905484FF4D77101F09BFD0DB19D
:10112800B46170BD2404B46170BD00BFFC790008CF
:101138002DE9F04180460E4617461D46069C036879
:10114800224A23498B4218BF93420CD002F5806291
:10115800934208D002F58062934204D01D4841F2C0
:10116800590101F077FDB5F1807F18BFB5F1007F17
:1011780005D025B1174841F25A0101F06BFDB4F5CD
:10118800804F18BFB4F5105F0BD0231C18BF012384
:10119800B4F5005F05D023B10E4841F25B0101F0C0
:1011A80059FDD8F80020536823F07F7323F459338E
:1011B80023F47F7323F00303C6F3090646EA0746C0
:1011C80035432C431C435460BDE8F081005800406F
:1011D800005400402C7A000870B504460D46FFF70D
:1011E80057F9064623689B6913F0100F12D10020A7
:1011F80070BDB5F1FF3F0DD025B1FFF749F9801B50
:10120800A84207D9012384F83530002384F8343004
:10121800032070BD23689A6912F0200FE9D01022CC
:10122800DA6123682022DA6123689A6912F0010FD3
:1012380001D10122DA612268536823F0FF7323F495
:101248008B3323F4FF7323F0010353600423A36358
:10125800012084F83500002384F8343070BD00BFC5
:1012680070B504460D46FFF713F9064619E0204607
:101278002946FFF7B1FFD8B9B5F1FF3F11D025B125
:10128800FFF706F9801BA8420BD9A36B43F0200394
:10129800A363012384F83530002384F83430032015
:1012A80070BD23689B6913F0020FE0D0002070BD69
:1012B800012070BD2DE9F04105460E4690461C46BA
:1012C800FFF7E6F80746B8F1000F12D02EE0B4F1A8
:1012D800FF3F0ED024B1FFF7DBF8C01BA04208D9AE
:1012E800012385F83530002385F834300320BDE824
:1012F800F0812B689B6926EA0303C3F31003002BD4
:10130800E5D10020BDE8F081B4F1FF3F0ED024B153
:10131800FFF7BEF8C01BA04208D9012385F8353075
:10132800002385F834300320BDE8F0812B689B69E1
:1013380026EA0303C3F31003002BE5D00020BDE821
:10134800F08100BF70B505460C46FFF7A1F80646C8
:1013580016E028462146FFF73FFFC0B924B1FFF742
:1013680097F8801BA0420BD9AB6B43F02003AB630B
:10137800012385F83530002385F83430032070BD0B
:101388002B689B6913F0200FE3D0002070BD01206B
:1013980070BD00BF70B504460D46FFF779F80646E4
:1013A80031E020462946FFF717FF002832D123688D
:1013B8009A6912F0200F14D02022DA61226853684B
:1013C80023F0FF7323F48B3323F4FF7323F001031B
:1013D80053600023A363012084F8350084F8343077
:1013E80070BD25B1FFF754F8801BA8420BD9A36B39
:1013F80043F02003A363012384F83530002384F8E5
:101408003430032070BD23689B6913F0040FC8D0E3
:10141800002070BD012070BD002800F0A88010B524
:1014280004460368534A54498B4218BF93420CD070
:1014380002F58062934208D002F58062934204D09C
:101448004E4840F22B1101F005FCA368B3F5806FFC
:1014580004D34A484FF4967101F0FCFBE368013B62
:10146800012B04D9454840F22D1101F0F3FB236903
:10147800002B18BFB3F5004F04D040484FF49771C4
:1014880001F0E8FB6369FF2B04D93C4840F22F11B7
:1014980001F0E0FBA369072B04D938484FF4987191
:1014A80001F0D8FBE369002B18BFB3F5002F04D077
:1014B800324840F2311101F0CDFB236A002B18BFEE
:1014C800B3F5003F04D02D484FF4997101F0C2FBE9
:1014D80094F8353013F0FF0F05D1002384F8343029
:1014E800204602F0C5FD022384F8353022681368CF
:1014F80023F0010313602268636823F070631361AB
:101508002268936823F400439360A3685BB1E268A0
:10151800012A04D1226843F40043936003E022685F
:1015280043F404439360E368022B03D123684FF428
:1015380000625A6022685168114B0B43536022685D
:10154800216963690B43A16943EA0123D3602268D7
:10155800E169236A0B4313602268136843F00103AF
:1015680013600020A063012384F8353010BD0120EA
:10157800704700BF00580040005400402C7A000813
:1015880000800002704700BF38B310B504460368F6
:10159800134A14498B4218BF93420CD002F580625B
:1015A800934208D002F58062934204D00E4840F27C
:1015B8007D1101F04FFB022384F83530226813684F
:1015C80023F0010313602046FFF7DCFF0020A0632F
:1015D80084F8350084F8340010BD0120704700BF3E
:1015E80000580040005400402C7A00082DE9F043D0
:1015F80083B004461D4690F83530DBB2012B40F02D
:1016080090800F461646002D18BF002A00F08B80E8
:1016180003689B6913F4004F40F0878090F83430DA
:10162800012B00F08480012380F83430122380F8E5
:10163800353000238363FF2D0AD94FF400530093FC
:10164800FF224FF08073FFF773FD4FF0FF080AE0A9
:101658004FF400530093EAB24FF00073FFF768FDB0
:10166800A84600E04E4620460A99FFF7F9FD20B14A
:10167800A36B042B5DD1012360E0236806F1010907
:1016880032789A62013DADB2B8F101080CBF01236E
:101698000023002D0CBF002303F00103FBB12046FB
:1016A800802100220A9BFFF705FE002843D1FF2D69
:1016B8000BD90023009320463946FF224FF0807350
:1016C800FFF736FD4FF0FF0809E00023009320469E
:1016D8003946EAB24FF00073FFF72AFDA846002DFD
:1016E800C0D120460A99FFF72DFE034620B1A36B0F
:1016F800042B22D1012321E022682021D161216815
:101708004A6822F0FF7222F48B3222F4FF7222F030
:1017180001024A60012284F83520002284F834202E
:101728000CE002230AE0012308E0022306E002237A
:1017380004E0032302E0032300E00323184603B078
:10174800BDE8F0832DE9F04383B004461D4690F8C8
:101758003530DBB2012B40F090800F461646002D45
:1017680018BF002A00F08B8003689B6913F4004FB0
:1017780040F0878090F83430012B00F084800123FA
:1017880080F83430222380F8353000238363FF2D1E
:101798000AD94FF410530093FF224FF08073FFF7DC
:1017A800C7FC4FF0FF080AE04FF410530093EAB269
:1017B8004FF00073FFF7BCFCA84600E04E462046F9
:1017C8000421FFF7E7FD20B1A36B042B5DD10123B2
:1017D80060E006F1010923685B6A3370013DADB230
:1017E800B8F101080CBF01230023002D0CBF002312
:1017F80003F00103FBB12046802100220A9BFFF77A
:1018080059FD002843D1FF2D0BD900230093204612
:101818003946FF224FF08073FFF78AFC4FF0FF082C
:1018280009E00023009320463946EAB24FF00073DE
:10183800FFF77EFCA846002DC0D120461921FFF7EE
:1018480081FD034620B1A36B042B22D1012321E0A3
:1018580022682021D16121684A6822F0FF7222F4AF
:101868008B3222F4FF7222F001024A60012284F8CE
:101878003520002284F834200CE002230AE00123FA
:1018880008E0022306E0022304E0032302E0032326
:1018980000E00323184603B0BDE8F0832DE9F047C4
:1018A80082B00024019490F83540E4B2012C40F055
:1018B8008C800468A46914F4004F40F0888090F884
:1018C8003440012C00F085801F4690468946064624
:1018D800012380F83430022380F8353000238363F5
:1018E8003268F368012B04D1C9F309013E4B0B435D
:1018F80003E0C9F3090343F420535360FEF7C8FD1E
:10190800824611E0B7F1FF3F0ED02FB1FEF7C0FDC0
:10191800CAEB0000B84207D9012386F83530002306
:1019280086F8343003235BE03568AB6913F0200F89
:1019380008D1AB6913F0100F04D196F83540E4B222
:10194800032CDFD1AB6913F0100F12D130462021E0
:1019580000223B46FFF7AEFC034600283BD1326825
:101968002021D161012286F83520002286F8342012
:1019780036E03046202100223B46FFF79BFC60BB47
:1019880033681022DA6133682022DA61019B5A1C1D
:10199800019243450ED13268536843F48043536043
:1019A8003046202100223B46FFF784FCB8B9336853
:1019B8002022DA61019B434592D3012386F8353012
:1019C800002386F8343003230AE0022308E00223C8
:1019D80006E0022304E0032302E0032300E00323DC
:1019E800184602B0BDE8F0870020000230B583B089
:1019F800044603680F2B04D99B484FF4807101F00B
:101A080029F9236813F0010F00F08E806368002B1A
:101A180018BFB3F5803F07D0B3F5A02F04D0924884
:101A28004FF4837101F016F9904B9B6803F00C0397
:101A3800042B0AD08D4B9B6803F00C03082B0DD1A7
:101A48008A4B5B6813F4800F08D0884B1B6813F42B
:101A5800003F69D06368002B66D15BE2834B1A684C
:101A680022F480321A601A6822F480221A601A68F6
:101A780022F480321A60FEF70BFD054605E0FEF7FA
:101A880007FD401B642800F24782784B1B6813F45B
:101A9800003FF4D1754A136823F4803313606368F8
:101AA800B3F5803F09D11346126822F480221A60E8
:101AB8001A6842F480321A6015E0B3F5A02F09D1F4
:101AC8006A4B1A6842F480221A601A6842F480321B
:101AD8001A6008E0654B1A6822F480221A601A68B6
:101AE80022F480321A6063687BB1FEF7D1FC0546A8
:101AF80005E0FEF7CDFC401B642800F20F825B4B2B
:101B08001B6813F4003FF4D00EE0FEF7C1FC054655
:101B180005E0FEF7BDFC401B642800F20182534B30
:101B28001B6813F4003FF4D1236813F0020F6ED042
:101B3800E368012B04D94C4840F2471101F08AF8B8
:101B480023691F2B04D948484FF4A47101F082F887
:101B5800464B9B6813F00C0F0AD0444B9B6803F06C
:101B68000C03082B1BD1414B5B6813F4800F16D173
:101B78003E4B1B6813F0020F03D0E368012B40F0C3
:101B8800D1813A48036823F0F8012369F82292FAD0
:101B9800A2F2B2FA82F293400B43036037E0E368A3
:101BA8000BB3324A136843F001031360FEF770FC6D
:101BB800054605E0FEF76CFC401B642800F2B48182
:101BC8002A4B1B6813F0020FF4D02848036823F04F
:101BD800F8012369F82292FAA2F2B2FA82F293404B
:101BE8000B43036013E0214A136823F001031360D9
:101BF800FEF74EFC054605E0FEF74AFC401B64284C
:101C080000F29481194B1B6813F0020FF4D123687A
:101C180013F0080F37D06369012B04D912484FF429
:101C2800C47101F017F86369A3B1104A536F43F008
:101C380001035367FEF72CFC054605E0FEF728FC78
:101C4800401B642800F27481084B5B6F13F0020F8D
:101C5800F4D018E0054A536F23F001035367FEF7E9
:101C680017FC05460AE000BF6C7A000800380240FD
:101C7800FEF70EFC401B642800F25C81B64B5B6FDC
:101C880013F0020FF4D1236813F0040F00F09480CE
:101C9800A368052B18BF012B04D9B0484FF4D9719C
:101CA80000F0D8FF00230193AB4B1A6C42F080522E
:101CB8001A641B6C03F080530193019BA84A1368B4
:101CC80043F480731360FEF7E3FB054605E0FEF777
:101CD800DFFB401B642800F22F81A14B1B6813F423
:101CE800807FF4D09C4B1A6F22F001021A671A6F9A
:101CF80022F004021A671A6F22F001021A67FEF72F
:101D0800C7FB054607E0FEF7C3FB401B41F28833DB
:101D1800984200F21381904B1B6F13F0020FF2D11F
:101D28008D4A136F23F001031367A368012B09D1B0
:101D38001346126F22F004021A671A6F42F001026A
:101D48001A6714E0052B09D1834B1A6F42F004027D
:101D58001A671A6F42F001021A6708E07E4B1A6F81
:101D680022F004021A671A6F22F001021A67A368A8
:101D78008BB1FEF78DFB054607E0FEF789FB401B9C
:101D880041F28833984200F2DB80734B1B6F13F0EB
:101D9800020FF2D010E0FEF77BFB054607E0FEF7E6
:101DA80077FB401B41F28833984200F2CB806A4BA4
:101DB8001B6F13F0020FF2D1A369022B04D96748F5
:101DC8004FF4FB7100F046FFA369002B00F0BC80C4
:101DD800614A926802F00C02082A00F0B780022BD0
:101DE80040F08380E369002B18BFB3F5800F04D05F
:101DF8005A4840F2FF1100F02DFF236A023B3D2BA9
:101E080004D956484FF4007100F024FF636A323B4E
:101E1800B3F5BF7F04D9514840F2012100F01AFF01
:101E2800A36A022B18BF042B08D0062B06D0082B58
:101E380004D04A4840F2022100F00CFFE36A023B5A
:101E48000D2B04D9454840F2032100F003FF424A14
:101E5800136823F080731360FEF71AFB054604E04D
:101E6800FEF716FB401B642872D83B4B1B6813F027
:101E7800007FF5D1226A636A47F6C07191FAA1F131
:101E8800B1FA81F18B401A43A36A5B08013B4FF416
:101E9800403191FAA1F1B1FA81F18B401343E26923
:101EA80043EA0201E36A4FF0706292FAA2F2B2FAD0
:101EB80082F203FA02F241EA020343F00053264A8F
:101EC8005360136843F080731360FEF7E1FA044629
:101ED80004E0FEF7DDFA001B64283BD81E4B1B68A4
:101EE80013F0007FF5D000203DE01B4A136823F073
:101EF80080731360FEF7CCFA044604E0FEF7C8FAD4
:101F0800001B64282ED8144B1B6813F0007FF5D1F2
:101F1800002028E0012026E0032024E0032022E01E
:101F2800032020E001201EE003201CE003201AE02B
:101F3800032018E0032016E0032014E0032012E039
:101F4800032010E003200EE000200CE001200AE04E
:101F5800032008E0032006E0003802406C7A0008FD
:101F680000700040032003B030BD00BF70B50446C8
:101F78000D460368013B0E2B04D98A4840F26221C2
:101F880000F068FE0F2D04D9864840F2632100F066
:101F980061FE854B1B6803F00F03AB4280F08F8016
:101FA800814A136823F00F032B431360136803F06F
:101FB8000F03AB4240F05781236813F0020F1ED085
:101FC800A368002B18BF802B12D0902B10D0A02B09
:101FD8000ED0B02B0CD0C02B0AD0D02B08D0E02BC1
:101FE80006D0F02B04D06F4840F2792100F032FE81
:101FF8006E498B6823F0F002A36813438B60236853
:1020080013F0010F00F0EB806368022B04D96548D8
:102018004FF4207100F01EFE6268012A05D1634B5F
:102028001B6813F4003F0ED11FE1022A05D15F4B54
:102038001B6813F0007F06D119E15C4B1B6813F095
:10204800020F00F0168159498B6823F003031343EC
:102058008B60FEF71DFA05466368012B0FD107E078
:10206800FEF716FA401B41F28833984200F20381CA
:102078004E4B9B6803F00C03042BF1D1AFE0022B0D
:1020880017D107E0FEF704FA401B41F28833984263
:1020980000F2F380454B9B6803F00C03082BF1D149
:1020A8009DE0FEF7F5F9401B41F28833984200F2B3
:1020B800E6803E4B9B6813F00C0FF2D18FE023684B
:1020C80013F0020F1ED0A368002B18BF802B12D06C
:1020D800902B10D0A02B0ED0B02B0CD0C02B0AD038
:1020E800D02B08D0E02B06D0F02B04D02D484FF48D
:1020F800327100F0AFFD2D498B6823F0F002A36820
:1021080013438B60236813F0010F5DD06368022BC3
:1021180004D9244840F2CF2100F09CFD6268012ACE
:1021280005D1224B1B6813F4003F0ED1A9E0022A07
:1021380005D11E4B1B6813F0007F06D1A3E01B4B93
:102148001B6813F0020F00F0A08018498B6823F079
:10215800030313438B60FEF79BF906466368012B64
:102168000FD107E0FEF794F9801B41F288339842BB
:1021780000F28D800D4B9B6803F00C03042BF1D10A
:1021880022E0022B1BD106E0FEF782F9801B41F208
:10219800883398427DD8054B9B6803F00C03082BC5
:1021A800F2D111E06C7A0008003C0240003802408D
:1021B800FEF76EF9801B41F2883398426BD8384B92
:1021C8009B6813F00C0FF3D1364A136823F00F0302
:1021D8002B431360136803F00F03AB425DD12368F0
:1021E80013F0040F1AD0E368002B18BFB3F5805F13
:1021F8000DD0B3F5A05F0AD0B3F5C05F07D0B3F533
:10220800E05F04D0284840F21E3100F023FD244945
:102218008B6823F4E052E36813438B60236813F060
:10222800080F1BD02369002B18BFB3F5805F0DD0B2
:10223800B3F5A05F0AD0B3F5C05F07D0B3F5E05F90
:1022480004D0194840F2253100F004FD144A93687F
:1022580023F46043216943EAC10393600020FEF739
:10226800F7F8002070BD012070BD012070BD01206D
:1022780070BD012070BD032070BD032070BD032018
:1022880070BD012070BD012070BD012070BD03200C
:1022980070BD032070BD032070BD012070BD00BF5C
:1022A80000380240003C02406C7A0008214B9B68D1
:1022B80003F00C03042B3AD0082B01D01E487047BA
:1022C8001C4B586800F03F005B6813F4800F0FD078
:1022D8001A4BB3FBF0F3174A506847F6C072104028
:1022E80092FAA2F2B2FA82F2D04000FB03F30EE0B7
:1022F800114BB3FBF0F30F4A506847F6C072104019
:1023080092FAA2F2B2FA82F2D04000FB03F3094A31
:10231800506800F440304FF4403292FAA2F2B2FA18
:1023280082F2D04001304000B3FBF0F07047034820
:10233800704700BF003802400024F40080BA8C01C6
:1023480008B5FFF7B3FF084B9B6803F0F003F022D2
:1023580092FAA2F2B2FA82F2D340044AD35CD8408D
:10236800034B186008BD00BF003802405C7A0008C3
:102378000C0000202DE9F04105460F4616461C4684
:10238800FEF786F8804637E0B4F1FF3F34D02CB131
:10239800FEF77EF8C8EB0000A0422DD32A685368E8
:1023A80023F0E00353606B68B3F5827F0BD1AB6811
:1023B800B3F5806F18BFB3F5004F04D12A681368CE
:1023C80023F040031360AB6AB3F5005F0BD12A68B2
:1023D800136823F400531B041B0C13602A6813684A
:1023E80043F400531360012385F85D30002385F81A
:1023F8005C300320BDE8F0812B689B683B40B3420A
:10240800C2D10020BDE8F0812DE9F04182B0074635
:102418000D4614461E46FEF73BF8804641E0B5F5EA
:10242800C06F08BF002C05D1137BDBB28DF80730D5
:102438009DF80730B6F1FF3F33D02EB1FEF728F8EC
:10244800C8EB0000B0422CD33A68536823F0E0038D
:1024580053607B68B3F5827F0BD1BB68B3F5806F9F
:1024680018BFB3F5004F04D13A68136823F040034E
:102478001360BB6AB3F5005F0BD13A68136823F4A5
:1024880000531B041B0C13603A68136843F4005391
:102498001360012387F85D30002387F85C30032040
:1024A80005E03A6893682B40A342B8D1002002B0F7
:1024B800BDE8F08138B504460D464FF4C0510022FE
:1024C8002B46FFF7A1FF28B1236E43F020032366B4
:1024D80003231AE02046802100222B46FFF74AFFFB
:1024E80028B1236E43F02003236603230DE0204622
:1024F8004FF4C06100222B46FFF786FF034620B148
:10250800236E43F0200323660323184638BD00BF1B
:10251800704700BF002800F0228110B50446036808
:10252800904A91498B4218BF934213D002F58062BA
:1025380093420FD002F5784293420BD002F5E05255
:10254800934207D002F58062934203D08748CC219A
:1025580000F080FB6368002B18BFB3F5827F03D0BF
:102568008248CD2100F076FBA368002B18BFB3F595
:10257800806F06D0B3F5004F03D07C48CE2100F021
:1025880069FBE368B3F5706F18BFB3F5606F24D0CB
:10259800B3F5506F21D0B3F5406F1ED0B3F5306F4F
:1025A8001BD0B3F5206F18D0B3F5106F15D0B3F565
:1025B800006F12D0B3F5E06F0FD0B3F5C06F0CD039
:1025C800B3F5A06F09D0B3F5806F06D0B3F5407F9F
:1025D80003D06648CF2100F03DFB2369002B18BFCC
:1025E800022B03D06148D02100F034FB6369012B32
:1025F80003D95E48D12100F02DFBA369B3F5007F14
:1026080018BF002B06D0B3F5802F03D05748D2212E
:1026180000F020FB636B082B18BF002B03D0534836
:10262800D32100F017FBE369002B18BF082B0FD04C
:10263800102B0DD0182B0BD0202B09D0282B07D00E
:10264800302B05D0382B03D04848D42100F002FBAA
:10265800236A002B18BF802B03D04448D52100F0F3
:10266800F9FA636A002B18BF102B03D03F48D62114
:1026780000F0F0FAA36A002B18BFB3F5005F03D08F
:102688003A48D72100F0E6FAE36A013B4FF6FE72BA
:10269800934203D93548D82100F0DCFA236B022B8A
:1026A80003D93248D92100F0D5FA94F85D3023B91E
:1026B80084F85C302046FFF72BFF022384F85D3056
:1026C8002268136823F040031360E368B3F5E06FF2
:1026D80001D9002201E04FF48052B3F5706F18BFA2
:1026E800B3F5E06F01D00021A162216B39B9B3F5D0
:1026F800E06F02D90223236301E0012323632068EA
:102708006168A36819432369194363691943A36975
:1027180003F400730B43E1690B43216A0B43A16A7D
:1027280019430160236B022B04D121680B6843F421
:1027380000630B602068618B01F00401636A194330
:10274800636B1943E3680B43134343602368E26AEE
:102758001A6100202066012384F85D3010BD012035
:10276800704700BF00380040003001409C7A0008E4
:10277800F0B583B004460F4616461D468368002B05
:1027880018BFB3F5004F04D067484FF4CC7100F080
:1027980061FA94F85C30012B00F0BD80012384F8C5
:1027A8005C3094F85D30012B07D0012384F85D304C
:1027B800002384F85C300223B2E0002E18BF002FFB
:1027C80006D1012384F85D30002284F85C20A7E05C
:1027D800032384F85D3000232366A763A687E68772
:1027E8002364A4F84430A4F84630A368B3F5004F36
:1027F80004D12268136843F480431360A36AB3F5D5
:10280800005F0BD12268136823F400531B041B0CD0
:1028180013602268136843F40053136023681A682E
:1028280012F0400F03D11A6842F040021A60E368C0
:10283800B3F5E06F19D849E0204602210A462B4635
:10284800FFF798FD38B1012384F85D30002384F840
:102858005C30032364E02368A26B1288DA60A36B00
:102868000233A363E38F013BE387E38F002BE3D1BC
:102878002FE0012B19D0204602210A462B46FFF7EC
:1028880079FD38B1012384F85D30002384F85C3089
:10289800032345E02368A26B1288DA60A36B023336
:1028A800A363E38F023BE38710E0204602210A4638
:1028B8002B46FFF75FFD00282FD12268A36B591C18
:1028C800A1631B781373E38F013BE387E38F002B2E
:1028D800CFD1A36AB3F5005F04D12268136843F42B
:1028E8008053136020462946FFF7E4FD0346B0B93C
:1028F800A26832B901922268D16801919268019266
:10290800019A012284F85D20002284F85C20226E5E
:1029180032B1012304E0022302E0032300E0032391
:10292800184603B0F0BD00BF9C7A0008704700BF8E
:1029380010B504460368234A934218BFB3F1804F89
:1029480034D0A2F57C42934230D002F580629342A3
:102958002CD002F58062934228D002F5806293421F
:1029680024D002F58062934220D002F5704293424F
:102978001CD002F57052934218D002F5806293423F
:1029880014D002F58062934210D0A2F59832934297
:102998000CD002F58062934208D002F5806293421F
:1029A80004D0094840F25D1100F054F92268D36858
:1029B80043F00103D3602268136843F001031360F6
:1029C800002010BD00000140CC7A000870B40268F5
:1029D800434B984214BF00230123B0F1804F14BF2A
:1029E8001C4643F00104BCB93E4DA84214BF002563
:1029F80001253D4EB04211D085B905F1804505F558
:102A08008235A84214BF0025012506F50066B042AC
:102A180000D02DB1012504E0012502E0012500E0E8
:102A280000251DB122F070024D682A43002C35D1D3
:102A38002C4CA04214BF002401242B4DA8422FD0B7
:102A480074BB04F1804404F58234A04214BF00240E
:102A5800012405F50065A84224D01CBB234CA042E4
:102A680014BF0024012405F59A35A8421CD0DCB90E
:102A78001F4CA04214BF0024012405F50065A8429C
:102A880014D09CB91B4CA04214BF00240124A5F506
:102A98009635A84200D05CB101240AE0012408E080
:102AA800012406E0012404E0012402E0012400E0FE
:102AB80000241CB122F44072CC68224302608A6868
:102AC800C2620A6882620C4A904208BF43F001035E
:102AD8000BB10B6903630123436170BC704700BFEE
:102AE800000001400008004000040040004401408C
:102AF80000180040002000400004014000286DD06C
:102B080010B504460368364A934218BFB3F1804FA4
:102B180033D0A2F57C4293422FD002F580629342D3
:102B28002BD002F58062934227D002F5806293424F
:102B380023D002F5806293421FD002F5704293427F
:102B48001BD002F57052934217D002F5806293426F
:102B580013D002F5806293420FD0A2F598329342C7
:102B68000BD002F58062934207D002F5806293424F
:102B780003D01C48D22100F06DF8A368002B18BFC1
:102B8800102B09D0202B07D0402B05D0602B03D069
:102B98001448D32100F05EF82369002B18BFB3F561
:102BA800807F06D0B3F5007F03D00E48D42100F013
:102BB80051F894F8393013F0FF0F02D12046FFF78F
:102BC800B5FE022384F83930214651F8040BFFF78B
:102BD800FDFE012384F83930002010BD0120704724
:102BE80000000140CC7A0008FEE700BF08B50348A2
:102BF80000F056F80120FFF7F7FF00BFFC7A000845
:102C080008B50D4B1B6813B90C4A0B4B1A600A4BDD
:102C18001A68C31C23F00303134409498B4206D9DD
:102C280004F03AFA0C2303604FF0FF3008BD024964
:102C38000B60104608BD00BFD80400209045002056
:102C480000FC042001230360014B0B60704700BFA8
:102C58000400002008B503460A460348194600F058
:102C680005F8FFF7C3FF00BF507B00080FB400B59D
:102C780083B004AB53F8042B01930848802104F077
:102C88007BFA011E03DD054800F04CF801460846B2
:102C980003B05DF804EB04B0704700BFE004002007
:102CA80010B5044604F036FA0146204600F03AF81A
:102CB8000248012100F036F810BD00BF407C000832
:102CC8002DE9F04385B004460F46435C13BB042549
:102CD80028462146ABBE04461FE03546102E28BFC5
:102CE8001025002306E014F8011B04AA1A4402F870
:102CF800101C0133AB42F6D304AA1344002203F894
:102D0800102CE9464FF0040840464946ABBE8046C1
:102D1800761B00E00E46002EDFD1384605B0BDE830
:102D2800F08300BF08B5FFF7CBFF08BD08B500F07A
:102D380091F8024B024A9A6008BD00BF00ED00E01E
:102D480000000008F8B504460D4617461E462648FA
:102D5800FFF78CFF25482168FFF788FF2448616842
:102D6800FFF784FF2348A168FFF780FF2248E16846
:102D7800FFF77CFF21482169FFF778FF2048616948
:102D8800FFF774FF1F48A169FFF770FF1E48E1694C
:102D9800FFF76CFF1D48FFF769FF1D482946FFF73D
:102DA80065FF1C4CE16A1C48FFF760FF216B1B485C
:102DB800FFF75CFFE16B1A48FFF758FF15F0800F2B
:102DC80003D018483946FFF751FF15F4004F03D0D8
:102DD80015483146FFF74AFF1448FFF747FF1448E4
:102DE8000699FFF743FFF8BDA87B0008B87B0008E9
:102DF800C87B0008D87B0008E87B0008F87B00083F
:102E0800087C0008187C0008287C0008387C00082A
:102E1800447C000800ED00E0547C0008647C000855
:102E2800747C0008847C0008947C0008A47C00085A
:102E3800AC7C000883691A888A4207D10268033A81
:102E4800012A05D8023383610120704700207047AA
:102E5800002070470B4B1A6842F001021A600021EB
:102E680099601868084A02401A60084A5A601A6845
:102E780022F480221A60D9604FF00062044B9A60F5
:102E8800704700BF00380240FFFFF6FE10300024F4
:102E980000ED00E0224B9B6803F00C03042B07D0E5
:102EA800082B09D0002B2DD11E4A1F4B1A602CE08D
:102EB8001E4A1D4B1A6028E0194B5A685B6803F0DC
:102EC8003F0312F4800F09D0184AB2FBF3F2144BF7
:102ED8005B68C3F3881303FB02F208E0114AB2FBF4
:102EE800F3F30F4A5168C1F3881101FB03F20C4B4D
:102EF8005B68C3F3014301335B00B2FBF3F30A4A97
:102F0800136002E0074A084B1A60054B9B68C3F33D
:102F18000313074AD15C044A1368CB401360704717
:102F2800003802400024F4000C00002080BA8C0114
:102F3800F07C00082DE9F843054689461646984670
:102F4800BDF82070044607E02046494642463B4605
:102F580000F034FB013424B2AB199C42F4DBBDE829
:102F6800F88300BF00B583B0064BB3F90020064BC9
:102F7800B3F9003000900020014600F0D7FB03B001
:102F88005DF804FBE8070020EE0700202DE9F04F6C
:102F980089B005911D460493BDF94830BDF94CA090
:102FA800BDF850400094A94204DD059504910146FE
:102FB80010460A460499514505DDCDF810A08A4609
:102FC80011461A460B460599049CA14204DD059456
:102FD8000491014610460A460599514518D1904278
:102FE80005DC01DB024602E0114602460846934230
:102FF80005DB834201DC134601E018461346C01A7C
:10300800421C1846059912B2009B00F033FB8AE077
:103018001FFA82F987B2C7EB090292B29646049862
:103028001FFA80FBBDF81410C1EB0B0292B202929A
:103038009BB2C7EB03081FFA88F81FFA8AF2511AE5
:1030480089B20191C9EB03039BB20693CBEB020251
:1030580093B20393504504D00BF1FF3B0FFA8BFB5F
:1030680001E0DDF810B0059C00252E46CDF81C9037
:10307800F14622E033B2BDF9082093FBF2F23A445C
:1030880092B22BB2BDF9040093FBF0F0384480B241
:103098004E44B6B24544ADB211B203B2994202DC15
:1030A800034610461A46121A013200B2214612B2DD
:1030B800009B00F0DFFA013424B25C45DADDDDF86C
:1030C8001C90049BE51ADDF818B01BFB05F5ADB2A2
:1030D800059BE61A18FB06F6B6B222E02BB2BDF93C
:1030E8000C2093FBF2F24A4492B233B2BDF90400C9
:1030F80093FBF0F0384480B25D44ADB24644B6B2BA
:1031080011B203B2994202DC034610461A46121A5B
:10311800013200B2214612B2009B00F0ABFA013432
:1031280024B25445DADD09B0BDE8F08F2DE9F04747
:1031380084B090461F46BDF93060BDF8345080B267
:1031480089B2C218013A8B19013B92B29BB200F0C6
:10315800D9F9194B186899880122FDF7CFFF174B49
:10316800D3F800A0B3F80490504649460022FDF772
:10317800C5FF002412E023B238F8133003EA050231
:10318800120A8DF804202B408DF805300C4801A94F
:1031980002220123FFF7ECFA0134A4B223B206FBA2
:1031A80007F29342E7DB504649460122FDF7A6FFA6
:1031B80004B0BDE8F08700BF587D0008607D0008B6
:1031C8004007002008B90120FFE7014B187070473D
:1031D800ED070020024B1880024B1980704700BF92
:1031E8008A08002088080020014B1870704700BF2B
:1031F800EC07002070B50646104B18689988002225
:10320800FDF77CFF0E4B186899880022FDF776FFC2
:103218000C4B1D689C88284621460022FDF76EFF4E
:1032280009490E80094801221346FFF7A1FA2846EA
:1032380021460122FDF762FF70BD00BF587D0008DE
:10324800507D0008607D00088C08002040070020A1
:1032580070B50646104B186899880122FDF74EFF95
:103268000E4B186899880022FDF748FF0C4B1D6823
:103278009C88284621460022FDF740FF09490E8018
:10328800094801221346FFF773FA2846214601220E
:10329800FDF734FF70BD00BF587D0008507D000861
:1032A800607D00088C0800204007002038B5934B4B
:1032B8001D689C88284621460122FDF71FFF05202E
:1032C80000F0A8FC284621460022FDF717FF14202D
:1032D80000F0A0FC284621460122FDF70FFF9620AA
:1032E80000F098FC864B186899880022FDF706FFC5
:1032F800EF20FFF77FFF0320FFF7AAFF8020FFF7EB
:10330800A7FF0220FFF7A4FFCF20FFF773FF0020DD
:10331800FFF79EFFC120FFF79BFF3020FFF798FFC4
:10332800ED20FFF767FF6420FFF792FF0320FFF708
:103338008FFF1220FFF78CFF8120FFF789FFE8201D
:10334800FFF758FF8520FFF783FF0020FFF780FF76
:103358007820FFF77DFFCB20FFF74CFF3920FFF7E0
:1033680077FF2C20FFF774FF0020FFF771FF342050
:10337800FFF76EFF0220FFF76BFFF720FFF73AFF1A
:103388002020FFF765FFEA20FFF734FF0020FFF752
:103398005FFF0020FFF75CFFC020FFF72BFF232013
:1033A800FFF756FFC120FFF725FF1020FFF750FF5A
:1033B800C520FFF71FFF3E20FFF74AFF2820FFF731
:1033C80047FFC720FFF716FF8620FFF741FF36208B
:1033D800FFF710FF4820FFF73BFF3A20FFF70AFFEF
:1033E8005520FFF735FFB120FFF704FF0020FFF756
:1033F8002FFF1820FFF72CFFB620FFF7FBFE082051
:10340800FFF726FF8220FFF723FF2720FFF720FF83
:10341800F220FFF7EFFE0020FFF71AFF2620FFF744
:10342800E9FE0120FFF714FFE020FFF7E3FE0F207D
:10343800FFF70EFF3120FFF70BFF2B20FFF708FFE8
:103448000C20FFF705FF0E20FFF702FF0820FFF70B
:10345800FFFE4E20FFF7FCFEF120FFF7F9FE3720B4
:10346800FFF7F6FE0720FFF7F3FE1020FFF7F0FE48
:103478000320FFF7EDFE0E20FFF7EAFE0920FFF715
:10348800E7FE0020FFF7E4FEE120FFF7B3FE00208F
:10349800FFF7DEFE0E20FFF7DBFE1420FFF7D8FE55
:1034A8000320FFF7D5FE1120FFF7D2FE0720FFF714
:1034B800CFFE3120FFF7CCFEC120FFF7C9FE482020
:1034C800FFF7C6FE0820FFF7C3FE0F20FFF7C0FE78
:1034D8000C20FFF7BDFE3120FFF7BAFE3620FFF7BC
:1034E800B7FE0F20FFF7B4FE1120FFF783FE782008
:1034F80000F090FB2920FFF77DFE38BD207D0008F5
:10350800607D0008F8B507460D4616461C462A2079
:10351800FFF770FE380AFFF79BFEF8B2FFF798FE38
:10352800300AFFF795FEF0B2FFF792FE2B20FFF767
:1035380061FE280AFFF78CFE2846FFF789FE200A5D
:10354800FFF786FE2046FFF783FE2C20FFF752FE8A
:10355800F8BD00BFF0B599B00446134B18689988B8
:103568000122FDF7CBFD114B1F689E883846314676
:103578000022FDF7C3FD0E4B1C800E4C0E4A15921F
:10358800169301251795684604F11001542203F09B
:1035980089FD94E80F0002F0FFFA384631462A46C2
:1035A800FDF7ACFD19B0F0BD587D0008607D00083E
:1035B8008C08002040070020900800202DE9F041E9
:1035C80098B01E46244BB3F90030984240DA1446AE
:1035D800224B1B881AB291423ADA0A19013A1DB2F3
:1035E800AA4201DB5C1A24B282B289B20B19013BF0
:1035F80010469BB2FFF786FF194B1868998801227D
:10360800FDF77CFD174BD3F800809F88404639466C
:103618000022FDF773FD12E0134B1E80134C144A71
:103628001592169301231793684604F1100154224A
:1036380003F038FD94E80F0002F0AEFA2C46631E42
:103648001DB2002CE8D1404639460122FDF756FD4F
:1036580018B0BDE8F08100BFE8070020EE070020A1
:10366800587D0008607D00088C0800204007002075
:10367800900800202DE9F04198B014461E46244BCE
:103688001B881AB290423FDA224AB2F900209142CE
:103698003ADA0219013A1DB2AA4201DB1C1A24B215
:1036A80080B28BB20219013A194692B2FFF72AFF8B
:1036B800194B186899880122FDF720FD174BD3F89C
:1036C80000809F88404639460022FDF717FD12E02A
:1036D800134B1E80134C144A15921693012317930B
:1036E800684604F11001542203F0DCFC94E80F0052
:1036F80002F052FA2C46631E1DB2002CE8D1404657
:1037080039460122FDF7FAFC18B0BDE8F08100BF88
:10371800E8070020EE070020587D0008607D0008BB
:103728008C08002040070020900800202DE9F04771
:1037380098B090461F46BDF880602D4B1B881AB282
:10374800904251DA2B4A128814B2A1424CDA00EBAB
:103758000804013C1DB2AC4202DB1B1A0FFA83F8C5
:10376800CB19013B14B2A34201DB571A3FB280B216
:1037780089B200EB0802013ACB19013B92B29BB225
:10378800FFF7C0FE1C4B186899880122FDF7B6FCAC
:103798001A4BD3F800A0B3F80490504649460022CB
:1037A800FDF7ACFC19E0164A1680164C164B15931B
:1037B800169201231793684604F11001542203F06E
:1037C80071FC94E80F0002F0E7F9013D2DB200E02A
:1037D8004546002DE7DC013F3FB2002FF8DC50469C
:1037E80049460122FDF78AFC18B0BDE8F08700BF02
:1037F800E8070020EE070020587D0008607D0008DB
:103808008C080020400700209008002010B50446CE
:103818003720FFF7EFFC200AFFF71AFDE0B2FFF7A9
:1038280017FD10BD70B506460D46144643181344DF
:10383800B3F5A07F14D13320FFF7DCFC300AFFF783
:1038480007FDF0B2FFF704FD280AFFF701FDE8B213
:10385800FFF7FEFC200AFFF7FBFCE0B2FFF7F8FCDD
:1038680070BD00BF10B504463620FFF7C3FC04F056
:10387800030003282ED8DFE800F0020D18234820A3
:10388800FFF7E6FCF022144B1A804FF4A072134B9A
:103898001A8010BD2820FFF7DBFC4FF4A0720E4BF6
:1038A8001A80F0220D4B1A8010BD8820FFF7D0FC3B
:1038B800F022094B1A804FF4A072084B1A8010BDF1
:1038C800E820FFF7C5FC4FF4A072034B1A80F022E2
:1038D800024B1A8010BD00BFE8070020EE07002049
:1038E80030B587B00C4A136B43F0100313634FF4E1
:1038F8000054019401230293022204920393074D7A
:10390800284601A9FDF766FA284621460022FDF758
:10391800F5FB07B030BD00BF003802400010024080
:103928000A4B1B680A4AA2FB03239B09013BB3F11C
:10393800807F09D2074A5360F021074B83F8231090
:103948000023936007231360704700BF0C0000201A
:10395800D34D621010E000E000ED00E0034B1B685F
:103968001BB1024A1368013B13607047A40800208A
:1039780010B5BFF34F8FBFF36F8F1D4B0021C3F8F6
:1039880050125A6942F400325A61BFF34F8FBFF3A5
:103998006F8FC3F88410BFF34F8FD3F88040C4F300
:1039A8004E3000E01846C4F3C90200E01A4643F658
:1039B800E07303EA401343EA82730D49C1F86032A9
:1039C800531E002AF2D1431E0028EBD1BFF34F8FBC
:1039D8004B6943F480334B61BFF34F8FBFF36F8F55
:1039E800FCF74AFD00F022FDFFF754FA10BD00BFB6
:1039F80000ED00E010B586B00022654B1A80654BDB
:103A08001A80654B1A706421644B1980644B1A70D4
:103A1800644B1A700092644B596C41F4807159647C
:103A2800596C01F48071009100990192596C41F42C
:103A380000715964596C01F4007101910199029265
:103A4800596C41F480615964596C01F480610291A8
:103A580002990392196B41F001011963196B01F086
:103A68000101039103990492196B41F00201196352
:103A7800196B01F00201049104990592196B41F048
:103A880004011963196B01F0040105910599596A3C
:103A980041F480715962596A21F48071596243482E
:103AA800A3F58C3303604260826002610123836165
:103AB80002624262C2628262C260C36102634261A0
:103AC800FCF798FD18B1374A13780133137038485A
:103AD800384B0360002343608360036101228261E5
:103AE80003624362C3628362C360C261036343616A
:103AF800FCF780FD18B12B4A1378013313702E4858
:103B08002E4B0360002343608360036101228261BE
:103B180003624362C3628362C360C2610363436139
:103B2800FCF768FD18B11F4A137801331370244954
:103B380009230B600120486000238B60CB60214A79
:103B48000324146050609360D3601F4A02241460F9
:103B580050609360D3601548FCF7D2FE18B1114A43
:103B680013780133137012481649FCF7C9FE18B1CF
:103B78000C4A1378013313700F481349FCF7C0FE41
:103B880018B1084A13780133137006B010BD00BF8E
:103B9800CC050020E4060020A9070020F00700203B
:103BA800390700203807002000380240540600205A
:103BB8009C0600200021014030080020002201401E
:103BC800D0050020780800202807002008B50C48F8
:103BD800FCF7FCFD18B10B4A1378013313700A483F
:103BE800FCF7F4FD18B1074A13780133137007483E
:103BF800FCF7ECFD18B1034A13780133137008BDC4
:103C080054060020380700209C06002030080020B9
:103C1800704700BF034B1860024B1B68002BFBD199
:103C2800704700BFE80600202DE9F04F87B08026D6
:103C380001964FF00208CDF8108001250295002466
:103C480005940394B04801A9FDF7C4F84FF0400A61
:103C5800CDF804A0CDF81080029505940394AA48E5
:103C680001A9FDF7B7F84FF4005301930494112705
:103C7800029705940394A54801A9FDF7ABF8A3485A
:103C88004FF400512246FDF739FA0195CDF810801E
:103C98000294039505949E4801A9FDF79BF8CDF879
:103CA8000480CDF81080029403950594984801A9E2
:103CB800FDF790F84FF400730193CDF8108002944B
:103CC80003950594904801A9FDF784F8042301930E
:103CD800CDF810804FF00309CDF8089003940594AF
:103CE8008C480DEB0301FDF775F84FF0080BCDF884
:103CF80004B0CDF81080CDF8089003940594854859
:103D080001A9FDF767F830230193CDF808900394D3
:103D1800804801A9FDF75EF80423019302950494F5
:103D2800039479480DEB0301FDF754F87648042114
:103D38002A46FDF7E3F90196029504940394754821
:103D480001A9FDF747F8734831462246FDF7D6F931
:103D5800CDF804800295049403946C4801A9FDF7FA
:103D680039F86A4841462246FDF7C8F9CDF804A05B
:103D7800029504940394674801A9FDF72BF8654858
:103D880051462A46FDF7BAF9019502950494039421
:103D9800604801A9FDF71EF85E4829462246FDF74E
:103DA800ADF9CDF804A0029504940394584801A9EC
:103DB800FDF710F8564851462A46FDF79FF9CDF809
:103DC80004B0029704940395514801A9FDF702F83D
:103DD8004F4859462A46FDF791F94FF4004301939D
:103DE800029504940394484801A9FCF7F3FF464858
:103DF8004FF400412A46FDF781F94FF4005301932F
:103E0800029504940394404801A9FCF7E3FF3E4857
:103E18004FF400512A46FDF771F9202301930295CA
:103E2800049403943A4801A9FCF7D4FF38482021A8
:103E38002A46FDF763F91027019702950494039425
:103E4800334801A9FCF7C6FF314839462A46FDF731
:103E580055F94FF4006701970295049403942E488E
:103E680001A9FCF7B7FF2C4839462A46FDF746F961
:103E78004FF480470197029504940394244801A9BC
:103E8800FCF7A8FF224839462A46FDF737F94FF4D0
:103E980080530193CDF80890049403941E4801A917
:103EA800FCF798FF1C484FF480512246FDF726F98D
:103EB800CDF80480CDF8089004940394124801A921
:103EC800FCF788FF4FF48068CDF8048002950494CD
:103ED8000394114801A9FCF77DFF0F4841462A4683
:103EE800FDF70CF901970295049403940A4801A977
:103EF800FCF770FF084839462A46FDF7FFF82023EB
:103F0800019302940AE000BF000402400008024046
:103F18000010024000000240000C02400494039587
:103F28004F4801A9FCF756FFCDF804A00294049469
:103F380003954B4801A9FCF74DFFCDF804B0029456
:103F480004940395464801A9FCF744FF019602949E
:103F580004940395424801A9FCF73CFF4FF4005331
:103F680001930295049403943E4801A9FCF732FF9B
:103F78003C484FF400512246FDF7C0F84FF48079D1
:103F8800CDF80490049402950395374801A9FCF7ED
:103F980021FF354849462246FDF7B0F84FF4004363
:103FA80001930494029503942E4801A9FCF712FF8B
:103FB8002C484FF400412A46FDF7A0F801960494D6
:103FC80002940394274801A9FCF704FF04230193F2
:103FD80004940295039425480DEB0301FCF7FAFEBF
:103FE800224804212A46FDF789F8CDF80480049474
:103FF800029503941B4801A9FCF7ECFE19484146B9
:104008002A46FDF77BF8CDF80490049402950394B2
:10401800134801A9FCF7DEFE114849462246FDF780
:104028006DF8CDF804B00494029503940F4801A9E3
:10403800FCF7D0FE0D4859462246FDF75FF8CDF84B
:104048000490049402950394064801A9FCF7C2FE63
:10405800044859462246FDF751F807B0BDE8F08FED
:10406800000C02400010024000000240000802401C
:1040780084B0F0B587B00CAC84E80F00104B9A8878
:10408800019202270497122602960125039504241B
:10409800059418680DEB0401FCF79CFE094B9A88FF
:1040A8000192049702960395059418680DEB040194
:1040B800FCF790FE07B0BDE8F04004B0704700BFC1
:1040C800B87D0008387D00082DE9F04F87B03A4CDC
:1040D800236823F001031B041B0C2360374BB3F840
:1040E8000490CDF804904FF0020ACDF810A01126E4
:1040F8000296002503950595D3F80080404601A94E
:10410800FCF768FE2E4B9F880197CDF810A0029609
:10411800039505951E68304601A9FCF75BFE3046FD
:1041280039460122FCF7EAFF404649460122FCF7DE
:10413800E5FF304639462A46FCF7E0FF4046494647
:104148002A46FCF7DBFF304639460122FCF7D6FF4A
:10415800404649460122FCF7D1FFCDF80490CDF83E
:1041680010A04FF0120BCDF808B04FF00109CDF8B0
:104178000C900425059540460DEB0501FCF72AFE39
:104188000197CDF810A0CDF808B0CDF80C900595A2
:1041980030460DEB0501FCF71DFE236843F4004390
:1041A80023602368C3F30E032360236843EA0903EB
:1041B800236007B0BDE8F08F00580040387D000844
:1041C800B87D000800B585B08DF80C008DF80D108D
:1041D800642300930448E02103AA0223FDF706FAAA
:1041E80005B05DF804FB00BFAC070020F8B51D461C
:1041F80003FB0121CC01B4FBF3F4A4F50074D20154
:10420800B2FBF3F703FB1727C6B23046E1B2FFF75C
:10421800D9FF701CC0B2C4F30721FFF7D3FFB01C4D
:10422800C4F3014101EB8701C0B2C9B2FFF7CAFF6D
:10423800F01CC0B2C7F38711FFF7C4FF301DC0B22E
:10424800C7F38731FFF7BEFF701DC0B2C7F38751B0
:10425800FFF7B8FFB01DC0B2E9B2FFF7B3FFF01D1A
:10426800C0B2C5F30721FFF7ADFF06F10800C0B2E1
:10427800C5F30741FFF7A6FF06F10900C0B2C5F371
:104288000561FFF79FFFF8BD30B587B08DF80F00C7
:1042980000238DF817300B4C642500952046E0214B
:1042A8000DF10F020123FDF7A1F900952046E02149
:1042B8000DF117020123FDF745FA9DF8170007B025
:1042C80030BD00BFAC07002070B50E4900EB4002BE
:1042D8008B188D5C5E789C7894B10146FF2C04D1D4
:1042E80028463146FFF76EFF70BD2846FFF7CCFF22
:1042F80020EA0400C1B2344028462143FFF762FF98
:1043080070BD00BF1000002010B5E6201021FFF797
:1043180059FFF120E521FFF755FF002403E020466F
:10432800FFF7D2FF0134B4F5AF7FF8DBDA200121C3
:10433800FFF7AAFF00F00400C0B206E0DA2001216E
:10434800FFF7A2FF00F00400C0B20028F6D1312028
:104358000121FFF799FF00F07F013120FFF732FFBD
:10436800F6200221FFF72EFFF1206521FFF72AFF33
:10437800DA200121FFF788FF00F0150005E0DA20B8
:104388000121FFF781FF00F015000028F7D1EB208D
:104398000121FFF779FF01462D20FFF713FFEC20DD
:1043A8000121FFF771FF01462E20FFF70BFF2F2099
:1043B8000121FFF769FF0446ED200121FFF764FFA3
:1043C80000F0030104F0FC042F202143FFF7FAFE5C
:1043D80031200121FFF758FF60F07F013120C9B279
:1043E800FFF7F0FEE6200021FFF7ECFE10BD00BF4E
:1043F80008B53520C721002242F21073FFF7F6FEF8
:104408001F20C021FFF7DEFE1F20C121FFF7DAFEC3
:10441800352040F28D11002242F21073FFF7E6FEBC
:104428001F20C021FFF7CEFE08BD00BF30B595B0F4
:10443800002401941C4B1A6C42F080521A641B6CC5
:1044480003F080530193019B0294184B1A6842F4BD
:1044580040421A601B6803F440430293029B012305
:1044680003934FF480330493022509954FF4800396
:104478000A930F230B93D2230C930D9507230E93C6
:1044880003A8FDF7B3FA0D230F93109511944FF479
:10449800A05312934FF4805313930FA80521FDF7EF
:1044A80065FD15B030BD00BF003802400070004007
:1044B80002294EDC30B4002341E0012917D002293B
:1044C80025D000293AD11418C4F500749C4209DAA1
:1044D800C2F500749C4205DD4FF07E551D4C44F832
:1044E80023502BE000251B4C44F8235026E0934230
:1044F80008DD14189C4205DD4FF07E55154C44F834
:1045080023501BE00025134C44F8235016E01418E0
:10451800C4F500759D4203DAC2F500759D4203DCBF
:10452800934207DDA34205DA4FF07E55094C44F863
:10453800235003E00025074C44F823500133B3F51A
:10454800007FBADB034B0022C3F80024C3F8FC2722
:1045580030BC7047B008002088B000220092294B78
:10456800196B41F001011963196B01F00101009108
:1045780000990192196B41F002011963196B01F05E
:104588000201019101990292196B41F0040119632A
:10459800196B01F00401029102990392196B41F021
:1045A80008011963196B01F008010391039904923A
:1045B800196B41F010011963196B01F01001049196
:1045C80004990592196B41F400111963196B01F4F0
:1045D8000011059105990692196B41F48001196340
:1045E800196B01F480010691069907921A6C42F43E
:1045F80080021A641B6C03F480030793079B08B0BE
:10460800704700BF00380240024A13680133136044
:10461800704700BFAC0500200023064A1360064A15
:1046280013607F21054A1160054A13606422054B17
:104638001A607047B0100020AC080020D820002075
:10464800B4100020844500202F4B1B78002B5AD132
:1046580010B52E4B18689988FCF73EFD44002C4B8A
:1046680018689988FCF738FD20442A4B18602A4BB3
:104678001B68984242D00BB9012813D0012B01D1F5
:10468800032808D0032B01D1022806D0022B06D11B
:1046980038B1002006E0184604E0012002E00020BE
:1046A80000E001201D4B18601D4B18689988FCF725
:1046B80013FDB8B9194B1B6823B11A4A1388013383
:1046C800138003E0174A1388013B1380154B1B889E
:1046D8005B08154A1188B3FBF1F201FB1233134A48
:1046E80013800BE00D4B1B6823B1114A136801338B
:1046F800136003E00E4A1368013B1360054B1A6808
:10470800054B1A6010BD704794050020187D0008FD
:10471800487D0008AC080020B0100020E4380020D4
:10472800287D000880050020300400209605002020
:104738008845002008B50A49D1E90023013243F130
:104748000003C1E90023FFF709F9FFF77DFF054BD7
:104758001B681BB1034A1368013B136008BD00BF07
:1047680060050020E8060020024B186800EBD070B6
:1047780040107047884500202DE9F04F83B08246ED
:1047880089463B4B1A680192B3F804B01046594663
:104798000022FCF7B3FC374BD3F800809F884046D3
:1047A80039460022FCF7AAFC334B1E689D88304628
:1047B80029460022FCF7A2FC304629460122FCF7D4
:1047C8009DFC002415E0C4F107034AFA03F24046B1
:1047D800394602F00102FCF791FC304629460022D6
:1047E800FCF78CFC304629460122FCF787FC013493
:1047F800E4B2072CE7D9019C204659460122FCF770
:104808007DFC204659460022FCF778FC4046394694
:104818000122FCF773FC304629460022FCF76EFCA7
:10482800304629460122FCF769FC002415E0C4F152
:10483800070349FA03F24046394602F00102FCF741
:104848005DFC304629460022FCF758FC30462946D4
:104858000122FCF753FC0134E4B2072CE7D9019894
:1048680059460122FCF74AFC03B0BDE8F08F00BFAF
:10487800907D0008B07D0008307D000810B582B03A
:10488800174B1868174902F021FA4FF07E5102F0D1
:1048980015F901F0A7FD01F0A7F90022124B01F06C
:1048A800F5FD02F08DF80446104B1A6890420ADDB7
:1048B8004FF47843009302F196009C21A21A032337
:1048C800FEF738FB07E00023009396309C21121B6B
:1048D8000323FEF72FFB054B1C6002B010BD00BF81
:1048E8008C05002000247449000024407C05002029
:1048F8002DE9F041664B1B6813B1DFF8BC8101E07C
:10490800DFF8B8810124634D07E02846002102F052
:1049180099FB00B100250134E4B2FF2CF5D15E4BC0
:104928001D682846002102F06FFB50B1284601F0AF
:1049380059FD0022002301F0F7FB02F069F8564BFD
:104948001860554D286801F04DFD01F04DF94CA354
:10495800D3E9002301F0C4FE02F05AF84F4B186067
:10496800286801F03FFD48A3D3E9002301F08EFD3C
:1049780002F04EF828604A4B1D68294602F062FB97
:1049880008B1454B1D60474B1D68434B18682946C5
:1049980002F03AFB08B1404B1D60434B1A781046B1
:1049A80000217823FEF7AEFD782525E000203F4959
:1049B80001F01AF932A3D3E9002301F091FE06466B
:1049C8000F46354B186801F00DFD02460B46304680
:1049D800394601F085FE0022354B01F057FD02F003
:1049E80017F8344B186002F037FBC0B238F81000E3
:1049F800FEF7B0FD013DEDB2002DD7D12A4B1A7854
:104A080010467821EF23FEF77DFD25E00020274999
:104A180001F0EAF81AA3D3E9002301F061FE064683
:104A28000F461D4B186801F0DDFC02460B46304668
:104A3800394601F055FE00221D4B01F027FD01F01B
:104A4800E7FF1C4B186002F007FBC0B238F81000F3
:104A5800FEF780FD013CE4B2872CD7D8124A1378C0
:104A68000133DBB21370772B02D900220E4B1A7078
:104A78000D4B1878FEF7CAFEBDE8F081AFF3008051
:104A8800EF39FAFE422EE63FAE47E17A14AEEF3F29
:104A9800900500200000C842A805002084050020D9
:104AA8004804002044040020B00500200000F03F26
:104AB8000000594078050020B8820008049D0008CD
:104AC80010B5FFF751FE124B1860124B1B68984245
:104AD80015D01A1A104B1C6810490B6804FB0233D6
:104AE8000B60002B01DC01220A600C4B1A680C4B8E
:104AF8009A4202DD1A46094B1A60064B1860074BAA
:104B08001868084B1B68984201D0FFF781F810BD60
:104B18005C390020E02800203804002040040020F0
:104B280060343C02A405002038B5784B1B880A2B5A
:104B380000F2EA80DFE813F00B00110017001E00F6
:104B480025002B00310037006A009C00C000704A25
:104B5800704B1A60FFF7B4FF38BD6F4A6D4B1A608F
:104B6800FFF7AEFF38BD42F210726A4B1A60FFF7CA
:104B7800A7FF38BD4FF47A72664B1A60FFF7A0FFA3
:104B880038BD6422634B1A60FFF79AFF38BD0A22CA
:104B9800604B1A60FFF794FF38BD01225D4B1A6025
:104BA800FFF78EFF38BDFFF7DFFD5C4B18605C4BED
:104BB8001B68984200F0A8801A1A5A490B881344B7
:104BC8009BB20B801BB2002B01DC00220A80554BE4
:104BD800B3F90030C72B02DD6422524B1A80524BC6
:104BE8001B88504AB2F900101AB2914202DB5A1ED1
:104BF8004C490A804A4A10604A4AB2F9002018B261
:104C0800801A4A4B1978FFF753FC38BDFFF7ACFD03
:104C1800424B1860424B1B68984275D01A1A424999
:104C28000B8813449BB20B801BB2002B01DC0022C3
:104C38000A803D4BB3F90030C72B02DD64223A4BA2
:104C48001A80384B1A88384BB3F9001013B29942BE
:104C580002DC531C34490B80314B186012B2324BC2
:104C6800B3F90000801A314B1978FFF721FC38BDE1
:104C7800FFF77AFD294B1860294B1B68984243D0EF
:104C88001B1A2A4A11780B44294981FB0301A1EB1D
:104C9800E37101EB4101591AC9B21170214BB3F903
:104CA8000020214BB3F90000801AFFF701FC1B4BD1
:104CB8001A681B4B1A6038BDFFF756FD0446174BA0
:104CC8001860174B186884421ED0001B01F0AAFF19
:104CD800184B196801F0FAFF174D296801F0EEFE2C
:104CE8002860164B1D68294602F0ACF908B1124B32
:104CF8001D60114B1868002102F090F910B10022D4
:104D08000D4B1A60064B1C6038BD00BF960500208D
:104D180040420F0038040020A08601005C390020C2
:104D2800E02800209C0500203E0400208805002083
:104D3800565555552C040020500400204C040020E2
:104D480000B583B02E380B2875D8DFE800F006745C
:104D58006A101A242E38424C566013200090019392
:104D680008461146394A0F23FEF7E0F96BE0132095
:104D78000090019308461146354A0F23FEF7D6F9ED
:104D880061E013200090019308461146314A0F2331
:104D9800FEF7CCF957E0132000900193084611461E
:104DA8002D4A0F23FEF7C2F94DE01320009001931E
:104DB80008461146294A0F23FEF7B8F943E01320A5
:104DC8000090019308461146254A0F23FEF7AEF9D5
:104DD80039E013200090019308461146214A0F2319
:104DE800FEF7A4F92FE0132000900193084611461E
:104DF8001D4A0F23FEF79AF925E01320009001932E
:104E080008461146194A0F23FEF790F91BE01320B4
:104E18000090019308461146154A0F23FEF786F9BC
:104E280011E013200090019308461146114A0F2300
:104E3800FEF77CF907E000230093084611460F228D
:104E48001323FEF777F803B05DF804FB808C0008A5
:104E5800C8B40008A0940008389A000844910008D3
:104E6800049E000804B70008B4890008DC9600080E
:104E7800B88300086CB1000800B583B02D385128FC
:104E880000F2A380DFE800F08DA1A18329333D471C
:104E9800515B656F79A1A1A1A1A1A1A1A1A1A1A126
:104EA800A1A1A1A1A1A1A1A1A1A1A1A1A1A1A1A1EA
:104EB800A1A1A1A1A1A1A1A1A1A1A1A1A1A1A1A1DA
:104EC800A1A1A1A1A1A1A1A1A1A1A1A1A1A1A1A1CA
:104ED800A1A1A1A1A1A1A1A1A1970920009001933D
:104EE800084611463E4A0823FEF720F975E00920D6
:104EF80000900193084611463A4A0823FEF716F92E
:104F08006BE009200090019308461146364A0823B1
:104F1800FEF70CF961E0092000900193084611465C
:104F2800324A0823FEF702F957E00920009001935E
:104F3800084611462E4A0823FEF7F8F84DE00920E6
:104F480000900193084611462A4A0823FEF7EEF816
:104F580043E009200090019308461146264A082399
:104F6800FEF7E4F839E0092000900193084611465D
:104F7800224A0823FEF7DAF82FE00920009001936F
:104F8800084611461E4A0823FEF7D0F825E00920F6
:104F980000900193084611461A4A0823FEF7C6F8FE
:104FA8001BE009200090019308461146164A082381
:104FB800FEF7BCF811E0092000900193084611465D
:104FC800124A0823FEF7B2F807E0002300930846C8
:104FD800114608220923FDF7ADFF03B05DF804FB75
:104FE800749C000838A200088093000838B40008B0
:104FF800C0A40008B4900008288200081094000893
:10500800A8B3000818990008F08B0008A8990008B0
:105018002DE9F04184B001228D4B1A70054690B3FA
:105028000C2700974FF6FF74019496205A21894A5D
:105038002823FEF77BF888260096722301930294B2
:105048007E20772132467C23FDF7A0FF009701944C
:1050580096203146804A2F23FEF768F82E20AE218D
:105068006C222346FFF76CFE2E20EE216C2223468D
:10507800FFF766FE0A23009301948E20A221774A47
:105088009B23FEF753F8764C20467649764B1A68F0
:1050980002F014F8207842B2744B93F900309A4227
:1050A80008D13DB9724B1B88724A128893420ED0C0
:1050B80003B162B940B26E4B1B8813B94FF4784301
:1050C80001E04FF6FF738E216C22FFF739FE644B27
:1050D800587842B2654B93F901309A420BD1664B2E
:1050E8001B7843B93DB9624B1B88624A12889342C8
:1050F8000ED003B162B940B25D4B1B8813B94FF4AF
:10510800784301E04FF6FF739E216C22FFF718FEEB
:10511800534B987842B2554B93F902309A420AD1D0
:105128004DB9534B1B88534A1288934211D0012B17
:1051380001D0012A0DD140B24D4B1B88012B02D161
:105148004FF4784301E04FF6FF73BE216C22FFF75E
:10515800F7FD434BD87842B2444B93F903309A4257
:105168000AD14DB9424B1B88424A1288934211D04A
:10517800022B01D0022A0DD140B23D4B1B88022BD5
:1051880002D14FF4784301E04FF6FF73CE216C2231
:10519800FFF7D6FD324B187942B2344B93F90430FD
:1051A8009A420AD14DB9324B1B88324A128893422F
:1051B80011D0032B01D0032A0DD140B22C4B1B88F0
:1051C800032B02D14FF4784301E04FF6FF73DE2141
:1051D8006C22FFF7B5FD224B587942B2234B93F965
:1051E80005309A420AD14DB9214B1B88214A1288B1
:1051F800934211D0042B01D0042A0DD140B21C4B8C
:105208001B88042B02D14FF4784301E04FF6FF735B
:10521800FE216C22FFF794FD114B987942B2134B93
:1052280093F906309A420AD14DB9114B1B88114A9D
:105238001288934229D0052B01D0052A25D140B2E6
:105248000B4B1B88052B19D14FF4784318E000BF8E
:1052580094050020F4850008C07D000850A50008CA
:105268006805002040B900084004002058040020C8
:105278009605002028040020B81800204FF6FF7378
:105288004FF487716C22FFF75BFD954BD87942B2DA
:10529800944B93F907309A420AD14DB9924B1B8827
:1052A800924A1288934212D0062B01D0062A0ED1B8
:1052B80040B28D4B1B88062B02D14FF4784301E096
:1052C8004FF6FF734FF48F716C22FFF739FD884B4F
:1052D8001A68884B1A608348814901F013FF864B8E
:1052E8001A78864B1B789A4212D1854BB3F9002065
:1052F800844BB3F900309A420AD14DB97A4B1B88D6
:105308007A4A1288934229D0072B01D0072A27D13D
:105318007B4BB3F9002002EB8202D20070487A4935
:1053280001F0CCFE002411E06D4B185704EBC401CA
:10533800CD316D4B1B88072B02D14FF4784301E028
:105348004FF6FF738922FFF797FD0134032CEBDD3D
:105358006B4B1A886B4B1A80012602E0002600E08E
:105368000026654B1A78654B1B789A4212D1674B19
:10537800B3F90020664BB3F900309A420AD14DB90F
:10538800594B1B88594A1288934228D0082B01D0C0
:10539800082A24D15D4BB3F9002002EB8202D20027
:1053A8004F485C4901F08AFE002411E04C4B185725
:1053B80004EBC401FA314C4B1B88082B02D14FF483
:1053C800784301E04FF6FF738922FFF755FD01345A
:1053D800032CEBDD4D4B1A884D4B1A8001264E4BA2
:1053E8001C684E4B1868214601F004FE50B14DB9B7
:1053F8003D4B1B883D4A1288934229D00A2B01D085
:105408000A2A25D12046464901F060FC00F0EAFF4F
:1054180002460B463248434901F050FE002411E091
:105428002F4B185704EBC401FA312F4B1B880A2B5A
:1054380002D14FF4784301E04FF6FF730A22FFF7D9
:105448001BFD0134032CEBDD334B1A68334B1A6018
:10545800002E00F09980284B1B78012B21D013B126
:10546800022B61D090E00021009179200322F023E3
:10547800FDF760FD224BB3F9004004EBD4746410CF
:10548800224BB3F9003003EBD3734FF6FF7200924F
:10549800792004F178010322C4EB6303FDF74AFD88
:1054A80072E00021009179200322F023FDF742FDEC
:1054B800164BB3F9004004EBD4746410104BB3F9E5
:1054C800003003EBD3734FF6FF7200927920C4F1DA
:1054D80078010322A4EB6303FDF72CFD54E000BF21
:1054E80068050020580400209605002028040020A4
:1054F80040040020A4050020880500205404002052
:105508009C0500203204002044B900083E04002015
:105518003C04002048B9000850040020340400204E
:105528000000C84250B900080021009179200322E8
:10553800F023FDF7FFFC4C4EB6F9004004EBD474A1
:105548006410DFF84C81B8F9003003EBD3734FF6E1
:10555800FF770097792004F178010322C4EB6303F5
:10556800FDF7E8FCB8F9004004EBD4746410B6F910
:10557800003003EBD37300977920C4F1780103223C
:10558800A4EB6303FDF7D6FC384B1B78384A127836
:1055980093420AD14DB9374A1288374909888A4255
:1055A80045D0092A01D0092941D1012B16D013B1C0
:1055B800022B26D037E02F4B1B88092B02D14FF442
:1055C800784301E04FF6FF73092200920193C4204B
:1055D8005B212A4A1C23FDF7A9FD24E0254B1B88E3
:1055E800092B02D14FF4784301E04FF6FF730922EB
:1055F80000920193C4205B21214A1C23FDF796FDEC
:1056080011E01C4B1B88092B02D14FF4784301E0B1
:105618004FF6FF73092200920193C4205B21194AB7
:105628001C23FDF783FD114B1A78114B1A70164B8A
:10563800186800F0D7FE0AA3D3E9002300F026FF7C
:105648000022002301F08AF918B90A4B1A880A4B7C
:105658001A8000220D4B1A7004B0BDE8F08100BF1B
:10566800AE47E17A14AEEF3F9C0500208805002084
:1056780054040020960500202804002040A00008BB
:10568800C8A20008BC8E0008500400209405002021
:105698003E0400202DE9F04182B0284B1B68284ABF
:1056A800A2FB03231B0E013B264F3B600025009500
:1056B800254E326C42F002023264326C02F0020271
:1056C8000092009A214C224A2260A56040F21A48B2
:1056D800C4F80C80636025612046FDF70FFA204668
:1056E800FDF726F91D2029460122FBF717FA1D2090
:1056F800FBF754FA0195336C43F004033364336CBD
:1057080003F004030193019B124C134B2360A56023
:10571800C4F80C803B68636025612046FDF7EEF90C
:105728002046FDF705F91E2002210422FBF7F6F9B1
:105738001E20FBF733FA02B0BDE8F0810C00002010
:1057480029D942669805002000380240F407002055
:1057580000040040EC0600200008004000B583B0BB
:1057680000230193234B1A6C42F000521A641B6CFD
:1057780003F000530193019B1F48204B0360FBF784
:1057880039FA08B1FEF740FF1D4900220A604A6055
:105798001948FBF795FA08B1FEF736FF164818497D
:1057A8001022FBF78DFA08B1FEF72EFF12480021F0
:1057B8000A468823FBF7D6FA08B1FEF725FF0E48FC
:1057C800102100228823FBF7CDFA08B1FEF71CFF51
:1057D80009480021FBF730FA08B1FEF715FF064823
:1057E8001021FBF729FA08B1FEF70EFF03B05DF8A8
:1057F80004FB00BF00380240483900200074004014
:10580800B4050020F0B583B0FAF736FEFEF70EFEB9
:105818008D48FDF745FA8D48FDF742FA8C488D4BC7
:105828001968FDF723FAFEF797FEFEF7FDF900F079
:105838003BF9FEF749FC884C884B23602046FBF770
:10584800A3FE0123E36000232361E361236240F2A6
:105858000F33A360FE2363612046FBF7DDFD10B123
:105868007F48FDF71DFA012005E07B48E02164220E
:105878001346FCF713F80028F7D1FEF745FDFEF7AD
:10588800B7FDFEF74DF8FEF72BF876484FF40051B8
:105898000122FBF733FC744BB3F90020734BB3F9C7
:1058A8000000801A724B1978FEF702FEFFF756FFC8
:1058B800FEF7B2FEFDF7FAFC0120FDF7D3FF00204A
:1058C800FDF750FB0320FDF77DFC0120FDF78CFC64
:1058D8004FF6FF700021FDF77DFC00207821C822DB
:1058E800FDF7A0FFFEF786F80124624B1C70FEF757
:1058F8006DF9FFF7CFFE2046FFF78AFBFF20014630
:10590800FEF73AFFFFF710F90020FFF781FBFEF7DB
:10591800EFFFFEF7B3FF584B18689988FBF7DCFBDD
:1059280010B14FF4784300E01F2300934FF49B70AD
:10593800002103221346FDF7FDFA504B1868998899
:10594800FBF7CAFB10B14FF4784300E01F23009324
:105958004FF49B70042103221346FDF7EBFA484BE2
:105968001D689C8828462146FBF7B6FB10B14FF40A
:10597800784300E01F2300934FF49B700821032213
:105988001346FDF7D7FA3F4B18689988FBF7A4FB35
:1059980010B14FF4784300E01F2300934FF49B703D
:1059A8000C2103221346FDF7C5FA374B1F689E8862
:1059B800364B18689988FBF78FFB02463846314604
:1059C800FBF79CFB28462146FBF786FBF0B9012430
:1059D8002F4B1C602F4B186899882246FBF78EFBCB
:1059E8002D4B186899882246FBF788FB2B4B1868C3
:1059F80099880022FBF782FB294B186899880022B6
:105A0800FBF77CFBC822274B1A607BE70024204B5E
:105A18001C60204B186899882246FBF76FFB1E4BC9
:105A2800186899882246FBF769FB1C4B1868998807
:105A38000122FBF763FB1A4B186899880122FBF7D0
:105A48005DFB184B1C605DE758B900086CB900088D
:105A580084B900080C000020AC0700200058004062
:105A680098B90008001002409C0500203E04002060
:105A780088050020A9070020787D0008987D000887
:105A8800A07D0008887D0008407D0008A87D0008EA
:105A980090050020807D0008007D0008087D000832
:105AA800707D0008A00500202DE9F04387B0334C35
:105AB8002046FCF72DFD00250095314B5A6C42F429
:105AC80080525A645B6C03F480530093009B2D4B07
