:020000040800F2
:1000000000000320B5010008FD7000080971000818
:10001000117100081971000821710008000000002A
:100020000000000000000000000000003571000822
:100030002971000800000000417100087D4100089E
:10004000AD010008AD010008AD010008AD010008D8
:10005000AD010008AD010008AD010008AD010008C8
:10006000AD010008AD010008AD010008AD010008B8
:10007000AD010008AD010008AD010008AD010008A8
:10008000AD010008AD010008AD010008AD01000898
:10009000AD010008AD010008AD010008AD01000888
:1000A000AD010008AD010008AD010008AD01000878
:1000B000AD0100084D7100085D710008AD01000838
:1000C000AD010008AD010008AD010008AD01000858
:1000D000AD0100081D500008AD010008AD01000889
:1000E000AD010008AD010008AD010008AD01000838
:1000F000AD010008AD010008AD010008AD01000828
:10010000AD010008AD010008AD010008AD01000817
:10011000AD010008AD010008AD010008AD01000807
:100120007D710008AD010008AD010008697100088B
:10013000AD010008AD010008AD010008AD010008E7
:10014000AD010008AD010008AD010008AD010008D7
:10015000AD010008AD010008AD010008AD010008C7
:10016000AD010008AD010008AD010008AD010008B7
:10017000AD010008AD010008AD010008000000005D
:10018000AD010008AD010008AD010008AD01000897
:10019000AD010008AD010008AD010008AD01000887
:1001A000AD010008AD010008AD01000880B400AF4A
:1001B000FEE700BF80B500AF00F024F880B400AFC8
:1001C000FEE700BF80B400AFFEE700BF80B400AF21
:1001D000FEE700BF80B400AFFEE700BF80B400AF11
:1001E000FEE700BF80B400AFFEE700BF80B400AF01
:1001F000FEE700BF80B400AFFEE700BF80B400AFF1
:10020000FEE700BF80B58EB000AF4A4B4A4A1A6085
:100210004A4B494A1A604A4B3B634A4BFB623B6B71
:10022000BB6204E0BB6A1A1DBA6200221A60FA6A55
:10023000BB6A9A42F6D83F4B1B68002B03D13F4B59
:100240001B68002B00D0FEE73F4B3B4A1A603F4B38
:10025000394A1A603E4B7B623E4B3B623E4BFB6130
:100260003B6ABB6107E0BB691A1DBA617A6A111D5E
:10027000796212681A60FA69BB699A42F3D8324B04
:100280001B68364A934205D1304B1A682F4B1B68C6
:100290009A4200D0FEE702F0ADFD3A1D3B46104603
:1002A000194607F09BF82E4A2E4BD31A9B107B6100
:1002B00000233B6107E02B4A3B6952F82330984703
:1002C0003B6901333B617A693B699A42F3DC264A18
:1002D000264BD31A9B107B6100233B6107E0234A26
:1002E0003B6952F8233098473B6901333B617A6997
:1002F0003B699A42F3DC7A683B681046194604F081
:10030000F3FE78631A4A1B4BD31A9B10FB60FB6801
:10031000BB6008E0BB68013B164A52F8233098479F
:10032000BB68013BBB60BB68002BF3DC786B07F05C
:1003300011F800BFF00C0020BABADECA2452002027
:10034000F00C00202852002000000020EC0C0020BF
:10035000C80C020800000020F00C0020785634126F
:10036000A0030008A0030008A0030008A0030008E1
:08037000A0030008A00300082F
:10037800C80C020800000020F00C0020C80C02087D
:100388000000001000000010F00C0020285200208F
:0803980000000010000000103D
:1003A00080B582B000AF87ED010A3860D7ED017AE1
:1003B000F5EEC07AF1EE10FA0ADD97ED010A0EF0C3
:1003C000F7FEF0EE407A3B68C3ED007A002304E0CC
:1003D0003B684FF000021A60FF235BB218460837F3
:1003E000BD4680BD80B588B000AFF860B9607A6066
:1003F0007B689B08FB6182E0FB681A1DFA601B6842
:10040000BB61FB681A1DFA601B687B6197ED067A79
:10041000D7ED067A27EE277AD7ED056AD7ED057A6C
:1004200066EEA77A77EE277ABB681A1DBA60B0EE3F
:10043000670A1846FFF7B4FFFB681A1DFA601B68CD
:10044000BB61FB681A1DFA601B687B6197ED067A39
:10045000D7ED067A27EE277AD7ED056AD7ED057A2C
:1004600066EEA77A77EE277ABB681A1DBA60B0EEFF
:10047000670A1846FFF794FFFB681A1DFA601B68AD
:10048000BB61FB681A1DFA601B687B6197ED067AF9
:10049000D7ED067A27EE277AD7ED056AD7ED057AEC
:1004A00066EEA77A77EE277ABB681A1DBA60B0EEBF
:1004B000670A1846FFF774FFFB681A1DFA601B688D
:1004C000BB61FB681A1DFA601B687B6197ED067AB9
:1004D000D7ED067A27EE277AD7ED056AD7ED057AAC
:1004E00066EEA77A77EE277ABB681A1DBA60B0EE7F
:1004F000670A1846FFF754FFFB69013BFB61FB6984
:10050000002B7FF479AF7B6803F00303FB6122E0EB
:10051000FB681A1DFA601B68BB61FB681A1DFA6054
:100520001B687B6197ED067AD7ED067A27EE277A6E
:10053000D7ED056AD7ED057A66EEA77A77EE277ACA
:10054000BB681A1DBA60B0EE670A1846FFF728FFAD
:10055000FB69013BFB61FB69002BD9D12037BD460C
:1005600080BD00BF80B489B000AFF8607B600B46EF
:100570007B8113463B810023BB837B895B087B83A4
:100580007B895B089BB201333B830023FB83BAE08A
:10059000FA8BBB8B9A426FD2FB8BDB00FA68134459
:1005A0001B687B61FB8BDB00FA681344BA8BD200BB
:1005B000F9680A4412681A60BB8BDB00FA681344BE
:1005C0007A691A60FB8BDB000433FA6813441B68FA
:1005D0007B61FB8BDB000433FA681344BA8BD200D7
:1005E0000432F9680A4412681A60BB8BDB000433DA
:1005F000FA6813447A691A60FA8B3B8B1344DB0068
:10060000FA6813441B687B61FA8B3B8B1344DB0055
:10061000FA681344B98B3A8B0A44D200F9680A4449
:1006200012681A60BA8B3B8B1344DB00FA681344E0
:100630007A691A60FA8B3B8B1344DB000433FA6847
:1006400013441B687B61FA8B3B8B1344DB00043340
:10065000FA681344B98B3A8B0A44D2000432F96821
:100660000A4412681A60BA8B3B8B1344DB000433D4
:10067000FA6813447A691A60FB8B0133DB00FA686D
:1006800013441B687B61FB8B0133DB00FA68134466
:10069000B98B7A8B0A44D200F9680A4412681A604E
:1006A000BA8B7B8B1344DB00FA6813447A691A60B7
:1006B000FB8B0133DB000433FA6813441B687B6156
:1006C000FB8B0133DB000433FA681344B98B7A8B5C
:1006D0000A44D2000432F9680A4412681A60BA8BDC
:1006E0007B8B1344DB000433FA6813447A691A6085
:1006F0007B681B88BB833B895B007A6813447B6003
:10070000FB8B0233FB83FA8B7B8B023B9A427FF697
:100710003FAF2437BD465DF8047B704780B4C1B05D
:1007200000AFF8607A601A460B467B8113463B8126
:100730007B89C7F8F430D7F8F430C7F8E430D7F83D
:10074000F4309B08C7F8F4300023C7F8F8300023D2
:10075000C7F8FC30D7F8F430C7F8F030D7F8F820F5
:10076000D7F8F4301344C7F8E030D7F8E020D7F8D2
:10077000F4301344C7F8DC30D7F8DC20D7F8F43075
:100780001344C7F8D830D7F8F830DB00FA681344C0
:100790001B68C7F8D430D7F8F830DB000433FA68A8
:1007A00013441B68C7F8D030D7F8E030DB00FA6894
:1007B00013441B68C7F8CC30D7F8E030DB000433B3
:1007C000FA6813441B68C7F8C830D7F8DC30DB0080
:1007D000FA6813441B68C7F8C430D7F8DC30DB0074
:1007E0000433FA6813441B68C7F8C030D7F8D83010
:1007F000DB00FA6813441B68C7F8BC30D7F8D83060
:10080000DB000433FA6813441B68C7F8B83097ED6F
:10081000357AD7ED317A77EE277AC7ED2D7A97EDD5
:10082000337AD7ED2F7A77EE277AC7ED2C7A97EDCA
:10083000347AD7ED307A77EE277AC7ED2B7A97EDB9
:10084000327AD7ED2E7A77EE277AC7ED2A7AD7F863
:10085000FC20D7F8FC301344C7F8A430D7F8A430F4
:10086000DB007A6813441B68C7F8A030D7F8A430BF
:10087000DB0004337A6813441B68C7F89C3097ED9B
:10088000357AD7ED317A77EE677AC7ED267A97ED2C
:10089000337AD7ED2F7A77EE677AC7ED257A97ED21
:1008A000347AD7ED307A77EE677AC7ED247A97ED10
:1008B000327AD7ED2E7A77EE677AC7ED237AD7F8BA
:1008C000F830DB00FA68134497ED2D7AD7ED2C7AD7
:1008D00077EE277AC3ED007AD7F8F830DB000433DF
:1008E000FA68134497ED2B7AD7ED2A7A77EE277AB8
:1008F000C3ED007A97ED267AD7ED237A77EE277A43
:10090000C7ED227A97ED247AD7ED257A77EE677ACC
:10091000C7ED217A97ED2D7AD7ED2C7A77EE677AAD
:10092000C7ED207A97ED2B7AD7ED2A7A77EE677AA2
:10093000C7ED1F7A97ED267AD7ED237A77EE677A9F
:10094000C7ED1E7A97ED257AD7ED247A77EE277AD0
:10095000C7ED1D7AD7F8FC30DB007A6813441B68BA
:100960003B67D7F8FC30DB0004337A6813441B681C
:10097000FB66D7F8A420D7F8FC301344BB66BB6EE7
:10098000DB007A6813441B687B66BB6EDB000433B4
:100990007A6813441B683B6697ED227AD7ED1C7A80
:1009A00067EE277AC7ED177A97ED217AD7ED1C7A93
:1009B00067EE277AC7ED167A97ED207AD7ED287A79
:1009C00067EE277AC7ED157A97ED1F7AD7ED287A6B
:1009D00067EE277AC7ED147A97ED1E7AD7ED197A6C
:1009E00067EE277AC7ED137A97ED1D7AD7ED197A5E
:1009F00067EE277AC7ED127A97ED217AD7ED1B7A49
:100A000067EE277AC7ED117A97ED227AD7ED1B7A38
:100A100067EE277AC7ED107A97ED1F7AD7ED277A20
:100A200067EE277AC7ED0F7A97ED207AD7ED277A10
:100A300067EE277AC7ED0E7A97ED1D7AD7ED187A13
:100A400067EE277AC7ED0D7A97ED1E7AD7ED187A03
:100A500067EE277AC7ED0C7A97ED177AD7ED117A02
:100A600077EE277AC7ED177A97ED167AD7ED107AD9
:100A700077EE677AC7ED167A97ED157AD7ED0F7A8C
:100A800077EE277AC7ED157A97ED147AD7ED0E7ABF
:100A900077EE677AC7ED147A97ED137AD7ED0D7A72
:100AA00077EE277AC7ED137A97ED127AD7ED0C7AA5
:100AB00077EE677AC7ED127AD7F8E030DB00FA6894
:100AC00013447A6D1A60D7F8E030DB000433FA681B
:100AD00013443A6D1A60D7F8DC30DB00FA6813442F
:100AE000FA6D1A60D7F8DC30DB000433FA6813447F
:100AF000BA6D1A60D7F8D830DB00FA681344FA6C84
:100B00001A60D7F8D830DB000433FA681344BA6CA3
:100B10001A603B89D7F8FC201344C7F8FC30D7F89B
:100B2000F8300133C7F8F830D7F8F030013BC7F898
:100B3000F030D7F8F030002B7FF410AE3B899B00EB
:100B40003B817B899B089BB2C7F8EC3015E2D7F854
:100B5000F430C7F8E430D7F8F4309B08C7F8F43025
:100B60000023C7F8FC300023C7F8F030D7F8FC208A
:100B7000D7F8FC301344C7F8A430D7F8A420D7F82E
:100B8000FC301344BB66D7F8FC30DB007A681344B2
:100B90001B683B67D7F8FC30DB0004337A681344EA
:100BA0001B68FB66D7F8A430DB007A6813441B6827
:100BB000C7F8A030D7F8A430DB0004337A681344B8
:100BC0001B68C7F89C30BB6EDB007A6813441B6857
:100BD0007B66BB6EDB0004337A6813441B683B669C
:100BE0003B89D7F8FC201344C7F8FC30D7F8F03025
:100BF000C7F8F830D7F8F820D7F8F4301344C7F81E
:100C0000E030D7F8E020D7F8F4301344C7F8DC30F0
:100C1000D7F8DC20D7F8F4301344C7F8D830D7F829
:100C2000F830DB00FA6813441B68C7F8D430D7F8F3
:100C3000F830DB000433FA6813441B68C7F8D0307F
:100C4000D7F8E030DB00FA6813441B68C7F8CC30F3
:100C5000D7F8E030DB000433FA6813441B68C7F8A8
:100C6000C830D7F8DC30DB00FA6813441B68C7F8DB
:100C7000C430D7F8DC30DB000433FA6813441B6857
:100C8000C7F8C030D7F8D830DB00FA6813441B68C7
:100C9000C7F8BC30D7F8D830DB000433FA68134407
:100CA0001B68C7F8B83097ED357AD7ED317A77EE13
:100CB000677AC7ED267A97ED337AD7ED2F7A77EEFC
:100CC000677AC7ED257A97ED347AD7ED307A77EEEB
:100CD000677AC7ED247A97ED327AD7ED2E7A77EEE0
:100CE000677AC7ED237A97ED357AD7ED317A77EECB
:100CF000277AC7ED2D7A97ED337AD7ED2F7A77EEF5
:100D0000277AC7ED2C7A97ED347AD7ED307A77EEE3
:100D1000277AC7ED2B7A97ED327AD7ED2E7A77EED8
:100D2000277AC7ED2A7A97ED267AD7ED237A77EEE0
:100D3000277AC7ED227A97ED247AD7ED257A77EED8
:100D4000677AC7ED217A97ED2D7AD7ED2C7A77EE79
:100D5000677AC7ED207A97ED2B7AD7ED2A7A77EE6E
:100D6000677AC7ED1F7A97ED267AD7ED237A77EE6B
:100D7000677AC7ED1E7A97ED257AD7ED247A77EE5C
:100D8000277AC7ED1D7AD7F8F830DB00FA681344EC
:100D900097ED2D7AD7ED2C7A77EE277AC3ED007A8E
:100DA000D7F8F830DB000433FA68134497ED2B7A58
:100DB000D7ED2A7A77EE277AC3ED007A97ED227A7B
:100DC000D7ED1C7A67EE277AC7ED177A97ED217A6F
:100DD000D7ED1C7A67EE277AC7ED167A97ED207A61
:100DE000D7ED287A67EE277AC7ED157A97ED1F7A47
:100DF000D7ED287A67EE277AC7ED147A97ED1E7A39
:100E0000D7ED197A67EE277AC7ED137A97ED1D7A39
:100E1000D7ED197A67EE277AC7ED127A97ED217A26
:100E2000D7ED1B7A67EE277AC7ED117A97ED227A14
:100E3000D7ED1B7A67EE277AC7ED107A97ED1F7A08
:100E4000D7ED277A67EE277AC7ED0F7A97ED207AEC
:100E5000D7ED277A67EE277AC7ED0E7A97ED1D7AE0
:100E6000D7ED187A67EE277AC7ED0D7A97ED1E7ADF
:100E7000D7ED187A67EE277AC7ED0C7A97ED177AD7
:100E8000D7ED117A77EE277AC7ED177A97ED167AB4
:100E9000D7ED107A77EE677AC7ED167A97ED157A67
:100EA000D7ED0F7A77EE277AC7ED157A97ED147A9A
:100EB000D7ED0E7A77EE677AC7ED147A97ED137A4D
:100EC000D7ED0D7A77EE277AC7ED137A97ED127A80
:100ED000D7ED0C7A77EE677AC7ED127AD7F8E03063
:100EE000DB00FA6813447A6D1A60D7F8E030DB0053
:100EF0000433FA6813443A6D1A60D7F8DC30DB002B
:100F0000FA681344FA6D1A60D7F8DC30DB0004335A
:100F1000FA681344BA6D1A60D7F8D830DB00FA6863
:100F20001344FA6C1A60D7F8D830DB000433FA683F
:100F30001344BA6C1A60D7F8F820D7F8E430134499
:100F4000C7F8F8307A89D7F8F8309A423FF652AEAF
:100F5000D7F8F0300133C7F8F030D7F8F4305A1E24
:100F6000D7F8F0309A42BFF401AE3B899B003B8139
:100F7000D7F8EC309B08C7F8EC30D7F8EC30042BEE
:100F80003FF6E5AD7B899B089BB2C7F8F030FB6864
:100F9000C7F8E830D7F8E8301B68C7F8D430D7F87E
:100FA000E8305B68C7F8D030D7F8E8309B68C7F8FE
:100FB000CC30D7F8E830DB68C7F8C830D7F8E8306D
:100FC0001B69C7F8C430D7F8E8305B69C7F8C03090
:100FD000D7F8E8309B69C7F8BC30D7F8E830DB6950
:100FE000C7F8B83097ED357AD7ED317A77EE277AB2
:100FF000C7ED2D7A97ED357AD7ED317A77EE677AAE
:10100000C7ED267A97ED347AD7ED307A77EE277AE6
:10101000C7ED2B7A97ED347AD7ED307A77EE677A91
:10102000C7ED247A97ED337AD7ED2F7A77EE277ACA
:10103000C7ED2C7A97ED327AD7ED2E7A77EE277AB4
:10104000C7ED2A7A97ED337AD7ED2F7A77EE677A64
:10105000C7ED257A97ED327AD7ED2E7A77EE677A5B
:10106000C7ED237A97ED2D7AD7ED2C7A77EE277A94
:10107000C7ED0B7A97ED2B7AD7ED2A7A77EE277AA0
:10108000C7ED0A7A97ED2D7AD7ED2C7A77EE677A4D
:10109000C7ED097A97ED2B7AD7ED2A7A77EE677A42
:1010A000C7ED087A97ED267AD7ED237A77EE277A7F
:1010B000C7ED077A97ED247AD7ED257A77EE677A30
:1010C000C7ED067A97ED267AD7ED237A77EE677A21
:1010D000C7ED057A97ED257AD7ED247A77EE277A52
:1010E000C7ED047AD7F8E830FA6A1A60D7F8E83022
:1010F0000433BA6A1A60D7F8E83008337A6A1A609B
:10110000D7F8E8300C333A6A1A60D7F8E830103371
:10111000FA691A60D7F8E8301433BA691A60D7F858
:10112000E83018337A691A60D7F8E8301C333A6926
:101130001A60D7F8E8302033C7F8E830D7F8F03035
:10114000013BC7F8F030D7F8F030002B7FF422AF26
:1011500007F58277BD465DF8047B704780B4C3B065
:1011600000AFF8600846391D0A601A463B4683ED19
:10117000000A03467B8107F108031A807B89C7F8C0
:10118000FC30D7F8FC30C7F8EC30D7F8FC309B08BF
:10119000C7F8FC300023C7F800310023C7F804313A
:1011A000D7F8FC30C7F8F830D7F80021D7F8FC3072
:1011B0001344C7F8E830D7F8E820D7F8FC301344D8
:1011C000C7F8E430D7F8E420D7F8FC301344C7F868
:1011D000E030D7F80031DB00FA6813441B68C7F829
:1011E000DC30D7F80031DB000433FA6813441B68A5
:1011F000C7F8D830D7F8E430DB00FA6813441B682E
:10120000C7F8D430D7F8E430DB000433FA6813446D
:101210001B68C7F8D030D7F8E830DB00FA68134411
:101220001B68C7F8CC30D7F8E830DB000433FA6825
:1012300013441B68C7F8C830D7F8E030DB00FA6801
:1012400013441B68C7F8C430D7F8E030DB00043320
:10125000FA6813441B68C7F8C03097ED377AD7EDAA
:10126000357A77EE277AC7ED2F7A97ED337AD7ED77
:10127000317A77EE277AC7ED2E7A97ED367AD7ED69
:10128000347A77EE277AC7ED2D7A97ED327AD7ED5B
:10129000307A77EE277AC7ED2C7AD7F80421D7F881
:1012A00004311344C7F8AC30D7F8AC30DB003A1D3A
:1012B000126813441B68C7F8A830D7F8AC30DB00BD
:1012C00004333A1D126813441B68C7F8A43097ED25
:1012D000377AD7ED357A77EE677AC7ED287A97EDCA
:1012E000337AD7ED317A77EE677AC7ED277A97EDC3
:1012F000367AD7ED347A77EE677AC7ED267A97EDAE
:10130000327AD7ED307A77EE677AC7ED257AD7F85B
:101310000031DB00FA68134497ED2F7AD7ED2E7A6F
:1013200077EE277AC3ED007AD7F80031DB0004337B
:10133000FA68134497ED2D7AD7ED2C7A77EE277A59
:10134000C3ED007A97ED287AD7ED257A77EE677AA4
:10135000C7ED247A97ED267AD7ED277A77EE277AAC
:10136000C7ED237A97ED2F7AD7ED2E7A77EE677A4D
:10137000C7ED227A97ED2D7AD7ED2C7A77EE677A42
:10138000C7ED217A97ED287AD7ED257A77EE277A7F
:10139000C7ED207A97ED267AD7ED277A77EE677A30
:1013A000C7ED1F7AD7F80431DB003A1D12681344E9
:1013B0001B68BB67D7F80431DB0004333A1D1268A1
:1013C00013441B687B67D7F8AC20D7F8043113446B
:1013D0003B673B6FDB003A1D126813441B68FB66DA
:1013E0003B6FDB0004333A1D126813441B68BB6675
:1013F00097ED247AD7ED1E7A67EE277AC7ED197A32
:1014000097ED237AD7ED1E7A67EE277AC7ED187A23
:1014100097ED227AD7ED2A7A67EE277AC7ED177A09
:1014200097ED217AD7ED2A7A67EE277AC7ED167AFB
:1014300097ED207AD7ED1B7A67EE277AC7ED157AFC
:1014400097ED1F7AD7ED1B7A67EE277AC7ED147AEE
:1014500097ED237AD7ED1D7A67EE277AC7ED137AD9
:1014600097ED247AD7ED1D7A67EE277AC7ED127AC9
:1014700097ED217AD7ED297A67EE277AC7ED117AB1
:1014800097ED227AD7ED297A67EE277AC7ED107AA1
:1014900097ED1F7AD7ED1A7A67EE277AC7ED0F7AA4
:1014A00097ED207AD7ED1A7A67EE277AC7ED0E7A94
:1014B00097ED197AD7ED137A77EE677AC7ED197A37
:1014C00097ED187AD7ED127A77EE277AC7ED187A6A
:1014D00097ED177AD7ED117A77EE677AC7ED177A1D
:1014E00097ED167AD7ED107A77EE277AC7ED167A50
:1014F00097ED157AD7ED0F7A77EE677AC7ED157A03
:1015000097ED147AD7ED0E7A77EE277AC7ED147A35
:10151000D7F8E830DB00FA681344FA6D1A60D7F8A0
:10152000E830DB000433FA681344BA6D1A60D7F868
:10153000E430DB00FA6813447A6E1A60D7F8E430BE
:10154000DB000433FA6813443A6E1A60D7F8E030CF
:10155000DB00FA6813447A6D1A60D7F8E030DB00DC
:101560000433FA6813443A6D1A6007F108031B88C4
:10157000D7F804211344C7F80431D7F800310133F8
:10158000C7F80031D7F8F830013BC7F8F830D7F882
:10159000F830002B7FF408AE07F1080307F10802CA
:1015A000128892001A807B899B089BB2C7F8F4309E
:1015B00021E2D7F8FC30C7F8EC30D7F8FC309B08B4
:1015C000C7F8FC300023C7F804310023C7F8F8300F
:1015D000D7F80421D7F804311344C7F8AC30D7F852
:1015E000AC20D7F8043113443B67D7F80431DB0053
:1015F0003A1D126813441B68BB67D7F80431DB003F
:1016000004333A1D126813441B687B67D7F8AC306B
:10161000DB003A1D126813441B68C7F8A830D7F8DE
:10162000AC30DB0004333A1D126813441B68C7F862
:10163000A4303B6FDB003A1D126813441B68FB6645
:101640003B6FDB0004333A1D126813441B68BB6612
:1016500007F108031B88D7F804211344C7F80431A5
:10166000D7F8F830C7F80031D7F80021D7F8FC30A8
:101670001344C7F8E830D7F8E820D7F8FC30134413
:10168000C7F8E430D7F8E420D7F8FC301344C7F8A3
:10169000E030D7F80031DB00FA6813441B68C7F864
:1016A000DC30D7F80031DB000433FA6813441B68E0
:1016B000C7F8D830D7F8E830DB00FA6813441B6865
:1016C000C7F8CC30D7F8E830DB000433FA681344AD
:1016D0001B68C7F8C830D7F8E430DB00FA68134459
:1016E0001B68C7F8D430D7F8E430DB000433FA685D
:1016F00013441B68C7F8D030D7F8E030DB00FA6835
:1017000013441B68C7F8C430D7F8E030DB0004335B
:10171000FA6813441B68C7F8C03097ED377AD7EDE5
:10172000357A77EE677AC7ED287A97ED337AD7ED79
:10173000317A77EE677AC7ED277A97ED367AD7ED6B
:10174000347A77EE677AC7ED267A97ED327AD7ED5D
:10175000307A77EE677AC7ED257A97ED377AD7ED4D
:10176000357A77EE277AC7ED2F7A97ED337AD7ED72
:10177000317A77EE277AC7ED2E7A97ED367AD7ED64
:10178000347A77EE277AC7ED2D7A97ED327AD7ED56
:10179000307A77EE277AC7ED2C7A97ED287AD7ED55
:1017A000257A77EE677AC7ED247A97ED267AD7ED1A
:1017B000277A77EE277AC7ED237A97ED2F7AD7ED40
:1017C0002E7A77EE677AC7ED227A97ED2D7AD7EDEC
:1017D0002C7A77EE677AC7ED217A97ED287AD7EDE4
:1017E000257A77EE277AC7ED207A97ED267AD7ED1E
:1017F000277A77EE677AC7ED1F7AD7F80031DB00DA
:10180000FA68134497ED2F7AD7ED2E7A77EE277A80
:10181000C3ED007AD7F80031DB000433FA681344D3
:1018200097ED2D7AD7ED2C7A77EE277AC3ED007AF3
:1018300097ED247AD7ED1E7A67EE277AC7ED197AED
:1018400097ED237AD7ED1E7A67EE277AC7ED187ADF
:1018500097ED227AD7ED2A7A67EE277AC7ED177AC5
:1018600097ED217AD7ED2A7A67EE277AC7ED167AB7
:1018700097ED207AD7ED1B7A67EE277AC7ED157AB8
:1018800097ED1F7AD7ED1B7A67EE277AC7ED147AAA
:1018900097ED237AD7ED1D7A67EE277AC7ED137A95
:1018A00097ED247AD7ED1D7A67EE277AC7ED127A85
:1018B00097ED217AD7ED297A67EE277AC7ED117A6D
:1018C00097ED227AD7ED297A67EE277AC7ED107A5D
:1018D00097ED1F7AD7ED1A7A67EE277AC7ED0F7A60
:1018E00097ED207AD7ED1A7A67EE277AC7ED0E7A50
:1018F00097ED197AD7ED137A77EE677AC7ED197AF3
:1019000097ED187AD7ED127A77EE277AC7ED187A25
:1019100097ED177AD7ED117A77EE677AC7ED177AD8
:1019200097ED167AD7ED107A77EE277AC7ED167A0B
:1019300097ED157AD7ED0F7A77EE677AC7ED157ABE
:1019400097ED147AD7ED0E7A77EE277AC7ED147AF1
:10195000D7F8E830DB00FA681344FA6D1A60D7F85C
:10196000E830DB000433FA681344BA6D1A60D7F824
:10197000E430DB00FA6813447A6E1A60D7F8E4307A
:10198000DB000433FA6813443A6E1A60D7F8E0308B
:10199000DB00FA6813447A6D1A60D7F8E030DB0098
:1019A0000433FA6813443A6D1A60D7F80021D7F867
:1019B000EC301344C7F800317A89D7F800319A42E5
:1019C0003FF652AED7F8F8300133C7F8F830D7F801
:1019D000FC305A1ED7F8F8309A42BFF4F9AD07F13F
:1019E000080307F10802128892001A80D7F8F43031
:1019F0009B08C7F8F430D7F8F430042B3FF6D9AD84
:101A00007B899B089BB2C7F8F830FB68C7F8F030B9
:101A1000D7F8F0301B68C7F8DC30D7F8F0305B68D7
:101A2000C7F8D830D7F8F0309B68C7F8CC30D7F873
:101A3000F030DB68C7F8C830D7F8F0301B69C7F85A
:101A4000D430D7F8F0305B69C7F8D030D7F8F03031
:101A50009B69C7F8C430D7F8F030DB69C7F8C030ED
:101A600097ED377AD7ED357A77EE277AC7ED2F7A6B
:101A700097ED377AD7ED357A77EE677AC7ED287A22
:101A800097ED367AD7ED347A77EE277AC7ED2D7A4F
:101A900097ED367AD7ED347A77EE677AC7ED267A06
:101AA00097ED337AD7ED317A77EE277AC7ED2E7A34
:101AB00097ED327AD7ED307A77EE277AC7ED2C7A28
:101AC00097ED337AD7ED317A77EE677AC7ED277ADB
:101AD00097ED327AD7ED307A77EE677AC7ED257ACF
:101AE00097ED2F7AD7ED2E7A77EE277AC7ED0D7A1C
:101AF00097ED2D7AD7ED2C7A77EE277AC7ED0C7A11
:101B000097ED2F7AD7ED2E7A77EE677AC7ED0B7ABD
:101B100097ED2D7AD7ED2C7A77EE677AC7ED0A7AB2
:101B200097ED287AD7ED257A77EE677AC7ED097AAF
:101B300097ED267AD7ED277A77EE277AC7ED087AE0
:101B400097ED287AD7ED257A77EE277AC7ED077AD1
:101B500097ED267AD7ED277A77EE677AC7ED067A82
:101B60003B4697ED0D7AD3ED007A67EE277AC7ED05
:101B7000137A3B4697ED0C7AD3ED007A67EE277A1D
:101B8000C7ED127A3B4697ED0B7AD3ED007A67EEFC
:101B9000277AC7ED117A3B4697ED0A7AD3ED007AA2
:101BA00067EE277AC7ED107A3B4697ED097AD3EDB9
:101BB000007A67EE277AC7ED0F7A3B4697ED087AF1
:101BC000D3ED007A67EE277AC7ED0E7A3B4697EDA4
:101BD000077AD3ED007A67EE277AC7ED057A3B46A0
:101BE00097ED067AD3ED007A67EE277AC7ED047A8F
:101BF000D7F8F030FA6C1A60D7F8F0300433BA6CCA
:101C00001A60D7F8F03008337A6C1A60D7F8F030E1
:101C10000C333A6C1A60D7F8F0301033FA6B1A6054
:101C2000D7F8F0301433BA6B1A60D7F8F0301833A5
:101C30007A691A60D7F8F0301C333A691A60D7F81D
:101C4000F0302033C7F8F030D7F8F830013BC7F850
:101C5000F830D7F8F830002B7FF4DAAE07F5867746
:101C6000BD465DF8047B704790B583B000AF7860E7
:101C700039607B689B78012B0FD17B6819887B6862
:101C80005A687B689C897B68D3ED047A3868234660
:101C9000B0EE670AFFF762FA08E07B6819887B6894
:101CA0005A687B689B893868FEF738FD7B68DB786B
:101CB000012B08D17B6819887B68DA897B689B686F
:101CC0003868FEF74FFC0C37BD4690BD80B485B038
:101CD00000AF7860084611461A4603467B800B46E3
:101CE0007B7013463B700023FB737B687A881A80F5
:101CF0007B68374A5A607B687A789A707B683A7852
:101D0000DA707B681B88B3F5807F29D0B3F5807FBC
:101D100004DC102B40D0402B30D04DE0B3F5806F69
:101D200010D0B3F5805F47D17B6801229A817B6830
:101D30000122DA817B68274A9A607B684FF06652FD
:101D40001A613CE07B6804229A817B680422DA8174
:101D50007B68214A9A607B684FF06A521A612EE0D4
:101D60007B6810229A817B681022DA817B681B4A8B
:101D70009A607B684FF06E521A6120E07B684022C7
:101D80009A817B684022DA817B68154A9A607B6879
:101D90004FF072521A6112E07B684FF480729A81A0
:101DA0007B684FF48072DA817B680E4A9A607B68A8
:101DB0004FF076521A6102E0FF23FB7300BFFB7BFA
:101DC0005BB218461437BD465DF8047B704700BF10
:101DD000D44B0108D4430108DA430108F243010857
:101DE00052440108D245010890B585B000AF0446C1
:101DF000084611461A462346FB800346BB800B4625
:101E00007B8013463B80FB88FB810DE0B7F90E0019
:101E1000B7F90410B7F900203B8C00F087FCFB8970
:101E20009BB201339BB2FB81B7F90E20B7F90610C4
:101E3000B7F902300B449A42E8DB1437BD4690BD37
:101E400090B585B002AF0346FB80084B1A88084B5B
:101E50001B8812B21CB2FB8800930020002123468D
:101E600000F070FD0C37BD4690BD00BF0C14002083
:101E70001214002090B58DB000AF044608461146FC
:101E80001A462346FB800346BB800B467B801346E5
:101E90003B80B7F90420B7F900309A420BDDBB88CC
:101EA0007B843B88BB807B8C3B80FB883B847B882E
:101EB000FB803B8C7B80B7F90020B7F944309A4215
:101EC0000FDDB7F84430FB833B88A7F84430FB8B29
:101ED0003B80B7F84030BB837B88A7F84030BB8B92
:101EE0007B80B7F90420B7F900309A420BDDBB883C
:101EF0007B833B88BB807B8B3B80FB883B837B88E1
:101F0000FB803B8B7B80B7F90420B7F944309A42C1
:101F100038D1FB88BB85BB8DFB85B7F90220B7F9AB
:101F20002E309A4202DA7B88FB8507E0B7F902205F
:101F3000B7F92C309A4201DD7B88BB85B7F9402088
:101F4000B7F92E309A4203DAB7F84030FB8508E043
:101F5000B7F94020B7F92C309A4202DDB7F840308B
:101F6000BB85BA8DFB8DD31A9BB201339BB29BB25A
:101F7000B7F92E00B7F904101AB2B7F8483000F0DC
:101F80005BFCDAE07A88FB88D31A9BB2FB823A8842
:101F9000BB88D31A9BB2BB82B7F84020FB88D31A08
:101FA0009BB27B82B7F84420BB88D31A9BB23B829A
:101FB000B7F840207B88D31A9BB2FB81B7F8442046
:101FC0003B88D31A9BB2BB810023FB840023BB84D4
:101FD000B7F90020B7F944309A4202D13B883B85DB
:101FE00003E03B88013B9BB23B85BB887B8540E09F
:101FF000B7F92620B7F9143092FBF3F39AB2FB88B5
:1020000013449BB2FB85B7F92420B7F9103092FB3B
:10201000F3F39AB2FB8813449BB2BB85FA8CFB8A1C
:1020200013449BB2FB84BA8C7B8A13449BB2BB845F
:10203000B7F92E20B7F92C309A4205DDFB8D7B8154
:10204000BB8DFB857B89BB85BA8DFB8DD31A9BB27B
:1020500001339BB29BB2B7F92E00B7F92A101AB21E
:10206000B7F8483000F0E8FB7B8D9BB201339BB2A0
:102070007B85B7F92A20B7F928309A42B8DDB7F93D
:102080002A20B7F90030D31A9AB2FB8912FB03F366
:102090009BB2FB84B7F92A20B7F90430D31A9AB25D
:1020A0007B8A12FB03F39BB2BB8440E0B7F9262086
:1020B000B7F90C3092FBF3F39AB27B8813449BB2CE
:1020C000FB85B7F92420B7F9103092FBF3F39AB2ED
:1020D000FB8813449BB2BB85FA8CFB8913449BB2EB
:1020E000FB84BA8C7B8A13449BB2BB84B7F92E2045
:1020F000B7F92C309A4205DDFB8D3B81BB8DFB850A
:102100003B89BB85BA8DFB8DD31A9BB201339BB241
:102110009BB2B7F92E00B7F92A101AB2B7F84830B7
:1021200000F08AFB7B8D9BB201339BB27B85B7F9B4
:102130002A20B7F944309A42B8DD3437BD4690BD05
:1021400090B589B000AFBA601A460346FB810B46D2
:10215000BB811346FB80F889B989FA89FB8813444F
:102160009BB2013B9CB2BA893B8E13449BB2013BAC
:102170009BB2224600F04EFA284B1A68274B9B88E8
:1021800010461946012209F0F5FD254B1A68244B2B
:102190009B8810461946002209F0ECFD0023FB83C2
:1021A00025E0B7F91E305B00BA6813441A88BB8E6D
:1021B00013409BB21B0A9BB2DBB23B75B7F91E30D2
:1021C0005B00BA6813441B88DAB2BB8EDBB21340E3
:1021D000DBB27B7507F11403124819460222012372
:1021E0000BF090FCFB8B9BB201339BB2FB83B7F9E6
:1021F0001E20B7F90630B7F9301001FB03F39A42FD
:10220000CFDB074B1A68064B9B8810461946012204
:1022100009F0B0FD2437BD4690BD00BFD4CB010806
:10222000E4CB01087813002080B483B000AF0346EC
:10223000FB71FB79002B01D0FB7900E00123034AFD
:1022400013700C37BD465DF8047B704711140020F5
:1022500080B483B000AF03460A46FB801346BB80C0
:10226000054AFB881380054ABB8813800C37BD469E
:102270005DF8047B704700BFAA140020A81400205A
:1022800080B483B000AF0346FB71044AFB7913703E
:102290000C37BD465DF8047B704700BF101400206A
:1022A00080B582B000AF0346FB80184B1A68174B0D
:1022B0009B8810461946002209F05CFD144B1A68F1
:1022C000134B9B8810461946002209F053FD114B11
:1022D0001A68104B9B8810461946002209F04AFDE7
:1022E0000D4AFB8813800D480B49012201230BF096
:1022F00009FC084B1A68074B9B88104619460122B7
:1023000009F038FD0837BD4680BD00BFD4CB0108B9
:10231000FCCB0108E4CB0108AC14002078130020AA
:1023200080B582B000AF0346FB80184B1A68174B8C
:102330009B8810461946012209F01CFD144B1A68AF
:10234000134B9B8810461946002209F013FD114BD0
:102350001A68104B9B8810461946002209F00AFDA6
:102360000D4AFB8813800D480B49012201230BF015
:10237000C9FB084B1A68074B9B8810461946012277
:1023800009F0F8FC0837BD4680BD00BFD4CB01087A
:10239000FCCB0108E4CB0108AC140020781300202A
:1023A00080B500AF994B1A68984B9B881046194628
:1023B000012209F0DFFC052000F0E0FF934B1A68D2
:1023C000924B9B8810461946002209F0D3FC14203A
:1023D00000F0D4FF8D4B1A688C4B9B881046194631
:1023E000012209F0C7FC962000F0C8FF884B1A684C
:1023F000874B9B8810461946002209F0BBFCEF2052
:10240000FFF74EFF0320FFF78BFF8020FFF788FFC9
:102410000220FFF785FFCF20FFF742FF0020FFF7E4
:102420007FFFC120FFF77CFF3020FFF779FFED2011
:10243000FFF736FF6420FFF773FF0320FFF770FFFD
:102440001220FFF76DFF8120FFF76AFFE820FFF7FA
:1024500027FF8520FFF764FF0020FFF761FF78204A
:10246000FFF75EFFCB20FFF71BFF3920FFF758FF78
:102470002C20FFF755FF0020FFF752FF3420FFF715
:102480004FFF0220FFF74CFFF720FFF709FF202046
:10249000FFF746FFEA20FFF703FF0020FFF740FFAA
:1024A0000020FFF73DFFC020FFF7FAFE2320FFF7D3
:1024B00037FFC120FFF7F4FE1020FFF731FFC520E2
:1024C000FFF7EEFE3E20FFF72BFF2820FFF728FF47
:1024D000C720FFF7E5FE8620FFF722FF3620FFF733
:1024E000DFFE4820FFF71CFF3A20FFF7D9FE5520FA
:1024F000FFF716FFB120FFF7D3FE0020FFF710FF14
:102500001820FFF70DFFB620FFF7CAFE0820FFF7DF
:1025100007FF8220FFF704FF2720FFF701FFF220CB
:10252000FFF7BEFE0020FFF7FBFE2620FFF7B8FEF8
:102530000120FFF7F5FEE020FFF7B2FE0F20FFF7C6
:10254000EFFE3120FFF7ECFE2B20FFF7E9FE0C2019
:10255000FFF7E6FE0E20FFF7E3FE0820FFF7E0FEA0
:102560004E20FFF7DDFEF120FFF7DAFE3720FFF700
:10257000D7FE0720FFF7D4FE1020FFF7D1FE03207F
:10258000FFF7CEFE0E20FFF7CBFE0920FFF7C8FEB7
:102590000020FFF7C5FEE120FFF782FE0020FFF7D5
:1025A000BFFE0E20FFF7BCFE1420FFF7B9FE03208C
:1025B000FFF7B6FE1120FFF7B3FE0720FFF7B0FECE
:1025C0003120FFF7ADFEC120FFF7AAFE4820FFF73C
:1025D000A7FE0820FFF7A4FE0F20FFF7A1FE0C20A6
:1025E000FFF79EFE3120FFF79BFE3620FFF798FE97
:1025F0000F20FFF795FE1120FFF752FE782000F024
:10260000BDFE2920FFF74CFE80BD00BFDCCB0108DA
:10261000E4CB010890B583B000AF044608461146EC
:102620001A462346FB800346BB800B467B8013463D
:102630003B802A20FFF734FEFB881B0A9BB218461A
:10264000FFF76EFEFB88DBB29BB21846FFF768FE11
:102650007B881B0A9BB21846FFF762FE7B88DBB2C1
:102660009BB21846FFF75CFE2B20FFF719FEBB88D4
:102670001B0A9BB21846FFF753FEBB881846FFF7AC
:102680004FFE3B881B0A9BB21846FFF749FE3B886A
:102690001846FFF745FE2C20FFF702FE0C37BD461B
:1026A00090BD00BF90B597B014AF0346FB801A4BA6
:1026B0001A68194B9B8810461946012209F05AFBEB
:1026C000164B1A68154B9B8810461946002209F0D4
:1026D00051FB134AFB881380124C134B1193104B80
:1026E000129301231393694604F110034422084610
:1026F00019460EF003F894E80F0004F0DDFC074BD8
:102700001A68064B9B8810461946012209F032FBD5
:102710000C37BD4690BD00BFD4CB0108E4CB010807
:10272000AC14002078130020B014002090B597B0AE
:1027300014AF0446084611461A462346FB8003465A
:10274000BB800B467B8013463B80344B1B88B7F91C
:1027500006201BB29A4206DA314B1B88B7F90420D7
:102760001BB29A4200DB56E0B7F90420B7F90230F9
:1027700013445A1E2A4B1B881BB29A4206DB284B75
:102780001B889AB2BB88D31A9BB27B80F888B98821
:10279000FC88BA887B8813449BB2013B9BB22246DB
:1027A000FFF738FF1F4B1A681E4B9B8810461946CF
:1027B000012209F0DFFA1C4B1A681B4B9B8810465C
:1027C0001946002209F0D6FA15E0184A3B88138012
:1027D000174C184B1193154B129301231393694611
:1027E00004F110034422084619460DF087FF94E8CF
:1027F0000F0004F061FC7B889AB2013A92B27A80B1
:10280000002BE2D1084B1A68074B9B8810461946EB
:10281000012209F0AFFA0C37BD4690BD0C14002020
:1028200012140020D4CB0108E4CB0108AC14002022
:1028300078130020B014002090B597B014AF044670
:10284000084611461A462346FB800346BB800B46CA
:102850007B8013463B80344B1B88B7F906201BB2A4
:102860009A4206DA314B1B88B7F904201BB29A4210
:1028700000DB55E0B7F90620B7F9023013445A1EC1
:10288000294B1B881BB29A4206DB274B1B889AB246
:10289000FB88D31A9BB27B80F888B988FA887B883A
:1028A00013449BB2013B9AB2BB88FFF7B3FE204BA7
:1028B0001A681F4B9B8810461946012209F05AFAE4
:1028C0001C4B1A681B4B9B8810461946002209F0C6
:1028D00051FA15E0184A3B881380184C184B119395
:1028E000154B129301231393694604F110034422FC
:1028F000084619460DF002FF94E80F0004F0DCFBD7
:102900007B889AB2013A92B27A80002BE2D1094BCD
:102910001A68084B9B8810461946012209F02AFACA
:102920000C37BD4690BD00BF0C14002012140020CF
:10293000D4CB0108E4CB0108AC14002078130020AC
:10294000B014002090B597B014AF04460846114665
:102950001A462346FB800346BB800B467B8013460A
:102960003B80484B1B88B7F906201BB29A4206DA17
:10297000454B1B88B7F904201BB29A4200DB7DE06F
:10298000B7F90620B7F9023013445A1E3D4B1B8895
:102990001BB29A4206DB3B4B1B889AB2FB88D31AC8
:1029A0009BB27B80B7F90420B7F9003013445A1E5C
:1029B000354B1B881BB29A4206DB334B1B889AB2FD
:1029C000BB88D31A9BB23B80F888B988FA887B8889
:1029D00013449BB2013B9CB2BA883B8813449BB220
:1029E000013B9BB22246FFF715FE284B1A68274B86
:1029F0009B8810461946012209F0BCF9244B1A683D
:102A0000234B9B8810461946002209F0B3F93B88F6
:102A1000BB8026E07B88FB801AE01E4A3B8B13803C
:102A20001D4C1E4B11931B4B1293012313936946AC
:102A300004F110034422084619460DF05FFE94E8A5
:102A40000F0004F039FBFB889BB2013B9BB2FB807B
:102A5000B7F90630002BE0DCBB889BB2013B9BB290
:102A6000BB80B7F90430002BD4DC094B1A68084B43
:102A70009B8810461946012209F07CF90C37BD46A7
:102A800090BD00BF0C14002012140020D4CB01080C
:102A9000E4CB0108AC14002078130020B01400200F
:102AA00080B582B000AF0346FB803720FFF7F8FB0C
:102AB000FB881B0A9BB21846FFF732FCFB88DBB28F
:102AC0009BB21846FFF72CFC0837BD4680BD00BFFF
:102AD00080B582B000AF0346FB800B46BB80134637
:102AE0007B80FA88BB881A447B881344B3F5A07FA7
:102AF00000D026E03320FFF7D3FBFB881B0A9BB2F4
:102B00001846FFF70DFCFB88DBB29BB21846FFF7B7
:102B100007FCBB881B0A9BB21846FFF701FCBB8869
:102B2000DBB29BB21846FFF7FBFB7B881B0A9BB20C
:102B30001846FFF7F5FB7B88DBB29BB21846FFF720
:102B4000EFFB0837BD4680BD80B584B000AF0346BB
:102B5000FB713620FFF7A4FBFB7903F00303FB6056
:102B6000FB68032B36D801A252F823F07D2B000816
:102B7000932B0008A92B0008BF2B00084820FFF763
:102B8000CFFB164BF0221A80154B4FF4A0721A801F
:102B900020E02820FFF7C4FB104B4FF4A0721A80EE
:102BA0000F4BF0221A8015E08820FFF7B9FB0B4B82
:102BB000F0221A800A4B4FF4A0721A800AE0E82033
:102BC000FFF7AEFB054B4FF4A0721A80044BF022C6
:102BD0001A8000BF1037BD4680BD00BF0C14002016
:102BE0001214002080B586B000AF0E4A0D4B1B6B4F
:102BF00043F0100313634FF480537B600123BB60E9
:102C000002233B610123FB603B1D0748194608F086
:102C10008DFD05484FF48051002209F0ABF81837BC
:102C2000BD4680BD003802400010024080B483B031
:102C300000AF03463960FB7197F90730002B0BDAC0
:102C40000D49FB7903F00F03043B3A68D2B212013D
:102C5000D2B20B441A7609E0084997F907303A686E
:102C6000D2B21201D2B20B4483F800230C37BD4616
:102C70005DF8047B704700BF00ED00E000E100E07C
:102C800080B582B000AF78607B68013BB3F1807F94
:102C900001D301230FE00A4A7B68013B53604FF0E8
:102CA000FF300F21FFF7C2FF054B00229A60044B53
:102CB00007221A60002318460837BD4680BD00BFB2
:102CC00010E000E080B500AF044B1B68044AA2FB93
:102CD00003239B091846FFF7D3FF80BD680400203B
:102CE000D34D621080B400AF064B1B68002B04D09C
:102CF000044B1B68013B034A1360BD465DF8047B2F
:102D0000704700BFC414002080B400AF234B4FF0C5
:102D1000FF321A60224B00221A60224B224A1A60AC
:102D2000224B214A1A60224B1F4A1A60214B1E4A2D
:102D30001A60214B1C4A1A60204B4FF0FF321A6078
:102D40001F4BFF221A801F4B4FF0FF321A601E4BA1
:102D50004FF0FF321A601D4B00221A701C4B0022EC
:102D60001A701C4B02221A701B4B00221A701B4B4C
:102D700000221A701A4B00221A701A4B00221A6095
:102D8000194B00221A80194B00221A80184B00227E
:102D90001A70BD465DF8047B704700BF181500200F
:102DA000C814002038150020FFC99A3B34150020B4
:102DB000E0140020EC140020FC140020301500204A
:102DC00042150020F0140020281500204515002091
:102DD0001C150020CC1400204415002000150020F4
:102DE000011500200C150020081500201E150020DC
:102DF000D014002080B500AF04F0D2F9064A064B8B
:102E0000D3F8883043F47003C2F8883004F008FB2C
:102E100000F004F880BD00BF00ED00E080B592B086
:102E200000AF1B4A1A4B1B6C43F080531364194AC2
:102E3000184B1B6843F44043136001237B6001235C
:102E4000BB600223FB614FF480033B621A237B6269
:102E50004FF4A873BB620223FB6207233B633B1D55
:102E6000184609F00FFF0F237B630223BB63002387
:102E7000FB634FF4A0533B644FF480537B6407F132
:102E80003403184605210AF0F7F94837BD4680BDDE
:102E9000003802400070004080B500AF934B002224
:102EA0001A80934B00221A80924B00221A70924B88
:102EB00064221A80914B00221A70914B00221A70E2
:102EC000904A904B5B6C43F4807353648D4A8D4BF6
:102ED0005B6C43F4007353648A4A8A4B5B6C43F423
:102EE00080635364874A874B1B6B43F00103136372
:102EF000844A844B1B6B43F002031363814A814B6A
:102F00001B6B43F0040313637E4A7E4B5B6A43F4FE
:102F1000807353627B4A7B4B5B6A23F480735362FA
:102F2000794B7A4A1A60784B00225A60764B00221D
:102F30009A60754B00221A61734B01229A61724BA1
:102F400000225A62704B00229A626F4B0022DA62B2
:102F50006D4B00221A636C4B0022DA606A4B01222F
:102F60001A62694B0022DA61674B00225A61664897
:102F700004F08AFA0346002B05D0614B1B7801331D
:102F8000DAB25F4B1A70624B624A1A60604B0022E1
:102F90005A605F4B00229A605D4B00221A615C4BC5
:102FA00001229A615A4B00225A62594B00229A62BE
:102FB000574B0022DA62564B00221A63544B002210
:102FC000DA60534B01221A62514B0022DA61504BF6
:102FD00000225A614E4804F057FA0346002B05D0F0
:102FE000474B1B780133DAB2454B1A704A4B4B4AB8
:102FF0001A60494B00225A60474B00229A60464BA8
:1030000000221A61444B01229A61434B00225A620A
:10301000414B00229A62404B0022DA623E4B002272
:103020001A633D4B0022DA603B4B01221A623A4B95
:103030000022DA61384B00225A61374804F024FA42
:103040000346002B05D02E4B1B780133DAB22C4BF4
:103050001A70334B09221A60314B01225A60304BEF
:1030600000229A602E4B0022DA602E4B03221A6057
:103070002C4B01225A602B4B00229A60294B0022D4
:10308000DA60294B02221A60274B01225A60264B34
:1030900000229A60244B0022DA601B48204904F089
:1030A0000DFC0346002B05D0154B1B780133DAB21B
:1030B000134B1A7016481B4904F000FC0346002B02
:1030C00005D00F4B1B780133DAB20D4B1A70124842
:1030D000154904F0F3FB0346002B05D0084B1B7881
:1030E0000133DAB2064B1A7080BD00BF40120020D7
:1030F0001C130020D1130020141400207113002091
:10310000701300200038024094120020002001407B
:10311000D812002000210140541400200022014058
:1031200044120020981400206013002080B500AFE6
:1031300019480A2104F078FB18480A2104F074FBAE
:1031400017480A2104F070FB134804F033FD0346CE
:10315000152B20D1114804F02DFD0346152B1AD153
:103160000F4804F027FD0346152B14D10A4804F03C
:1031700097FB03469AB20B4B1A80084804F090FB69
:1031800003469AB2084B1A80054804F089FB0346AF
:103190009AB2064B1A8080BD94120020D8120020EB
:1031A00054140020401200201C130020CE130020D5
:1031B00080B500AF124804F0A7FA0346002B05D0F3
:1031C000104B1B780133DAB20E4B1A700E4804F024
:1031D0009BFA0346002B05D00A4B1B780133DAB269
:1031E000084B1A70094804F08FFA0346002B05D0EB
:1031F000044B1B780133DAB2024B1A7080BD00BF5A
:103200009412002070130020D812002054140020C3
:1032100080B400AFBD465DF8047B704780B483B0D6
:1032200000AF03460A46FB801346BB800C37BD4601
:103230005DF8047B704700BF80B400AFBD465DF809
:10324000047B70470000000080B588B000AFC7E97C
:10325000000115A3D3E90023C7E906234FF08052EC
:103260004FF00003C7E904237B683A6902FB03F2CD
:103270007B69396801FB03F3D1183A683B69A2FB0B
:10328000032319440B46C7E90223C7E90223D7E900
:103290000201D7E906230CF059FF02460B461046FF
:1032A00019462037BD4680BDC06878040000000084
:1032B0002DE9B04384B000AF78607B681A464FEACE
:1032C000E27310461946FFF7BFFFC7E90201FFF797
:1032D0009FFF4FF408504FF40851FFF79FFFFFF78F
:1032E000ABFFFFF795FF3B89C3F30D039BB243F49C
:1032F00080439BB29AB23B89C3F30D039BB243F464
:1033000080439BB29BB210461946FFF787FFFFF739
:1033100093FFFFF77DFFD7E902234FEA923848EA8F
:1033200083484FEAA3391FFA88F3C3F30D039BB216
:1033300043F480439BB299B2D7E90223940B44EA49
:1033400083449D13A3B2C3F30D039BB243F48043A4
:103350009BB29BB208461946FFF760FFFFF76CFF70
:10336000FFF756FF4FF440404FF44C41FFF756FF34
:10337000FFF762FF1037BD46BDE8B08380B483B06D
:1033800000AF7860064A7B68136000BF044B1B687F
:10339000002BFBD10C37BD465DF8047B704700BFA6
:1033A0002013002080B586B000AF80237B6002230D
:1033B0003B610123BB6000237B610023FB60C24AA9
:1033C0003B1D1046194608F0B1F940237B600223EB
:1033D0003B610123BB6000237B610023FB60BA4A91
:1033E0003B1D1046194608F0A1F94FF400537B60CD
:1033F00000233B611123BB6000237B610023FB6042
:10340000B24A3B1D1046194608F090F9AF4A4FF4F6
:10341000005310461946002208F0ACFC01237B60E3
:1034200002233B610023BB600123FB6000237B611F
:10343000A74A3B1D1046194608F078F902237B6025
:1034400002233B610023BB600123FB6000237B61FF
:103450009F4A3B1D1046194608F068F94FF4007367
:103460007B6002233B610023BB600123FB600023E0
:103470007B61954A3B1D1046194608F057F9042315
:103480007B6002233B610323BB600023FB600023BE
:103490007B61904A3B1D1046194608F047F9082306
:1034A0007B6002233B610323BB600023FB6000239E
:1034B0007B61884A3B1D1046194608F037F91022F7
:1034C000202313439BB27B600323BB600023FB607C
:1034D000804A3B1D1046194608F028F904237B60FA
:1034E0000123BB6000233B610023FB60764A3B1D48
:1034F0001046194608F01AF9734A04231046194673
:10350000012208F037FC80237B600123BB6000238D
:103510003B610023FB606F4A3B1D1046194608F0D3
:1035200005F96C4A802310461946002208F022FC57
:1035300002237B600123BB6000233B610023FB600F
:10354000624A3B1D1046194608F0F0F85F4A022314
:1035500010461946002208F00DFC40237B60012331
:10356000BB6000233B610023FB605A4A3B1D1046B1
:10357000194608F0DBF8574A402310461946012245
:1035800008F0F8FB01237B600123BB6000233B6153
:103590000023FB604F4A3B1D1046194608F0C6F851
:1035A0004C4A012310461946002208F0E3FB402351
:1035B0007B600123BB6000233B610023FB60444A26
:1035C0003B1D1046194608F0B1F8414A4023104609
:1035D0001946012208F0CEFB08237B601123BB6053
:1035E00000233B610123FB60394A3B1D104619460D
:1035F00008F09CF8364A082310461946012208F0C4
:10360000B9FB4FF400437B600123BB6000233B61A7
:103610000023FB602C4A3B1D1046194608F086F833
:10362000294A4FF4004310461946012208F0A2FB34
:103630004FF400537B600123BB6000233B610023F8
:10364000FB60214A3B1D1046194608F06FF81E4AE0
:103650004FF4005310461946012208F08BFB20233B
:103660007B600123BB6000233B610023FB60184AA1
:103670003B1D1046194608F059F8154A20231046FC
:103680001946012208F076FB10237B600123BB6002
:1036900000233B610023FB600D4A3B1D1046194689
:1036A00008F044F80A4A102310461946012208F08F
:1036B00061FB4FF400637B600123BB6000233B612F
:1036C0000023FB6008E000BF000402400008024045
:1036D0000010024000000240B94A3B1D1046194646
:1036E00008F024F8B64A4FF4006310461946012248
:1036F00008F040FB4FF480437B600123BB60002354
:103700003B610023FB60AF4A3B1D1046194608F0A1
:103710000DF8AC4A4FF4804310461946012208F0D8
:1037200029FB4FF480537B600323BB6000233B6184
:103730000023FB60A24A3B1D1046194607F0F6FF26
:103740009F4A4FF4805310461946002208F012FB9E
:1037500002237B600323BB6000233B610023FB60EB
:10376000994A3B1D1046194607F0E0FF4FF480636D
:103770007B600123BB6000233B610023FB60904A18
:103780003B1D1046194607F0D1FF8D4A4FF4806368
:1037900010461946012208F0EDFA4FF480437B6091
:1037A0000123BB6000233B610023FB60844A3B1D77
:1037B0001046194607F0BAFF814A4FF4804310467D
:1037C0001946012208F0D6FA20237B600023BB6053
:1037D00000233B610123FB60794A3B1D10461946DB
:1037E00007F0A4FF40237B600023BB6000233B6104
:1037F0000123FB60724A3B1D1046194607F096FFF5
:1038000008237B600023BB6000233B610123FB6036
:103810006B4A3B1D1046194607F088FF80237B60EA
:103820000023BB6000233B610123FB60644A3B1D16
:103830001046194607F07AFF4FF400537B600123CE
:10384000BB6000233B610023FB605E4A3B1D1046CA
:10385000194607F06BFF5B4A4FF4005310461946B8
:10386000002208F087FA4FF480737B6000233B61ED
:103870000123BB600123FB60544A3B1D10461946DF
:1038800007F054FF514A4FF4807310461946002246
:1038900008F070FA4FF400437B6000233B61012382
:1038A000BB600023FB60474A3B1D1046194607F0EA
:1038B0003DFF444A4FF4004310461946012208F0E8
:1038C00059FA80237B6000233B610023BB60002307
:1038D000FB603C4A3B1D1046194607F027FF0423B6
:1038E0007B6000233B610123BB600023FB60384AFF
:1038F0003B1D1046194607F019FF354A04231046B0
:103900001946012208F036FA4FF480637B600023E9
:103910003B610123BB600023FB602A4A3B1D10462C
:10392000194607F003FF274A4FF4806310461946F3
:10393000012208F01FFA4FF480737B6000233B6183
:103940000123BB600023FB601D4A3B1D1046194646
:1039500007F0ECFE1A4A4FF4807310461946002215
:1039600008F008FA08237B6000233B610123BB6059
:103970000023FB60164A3B1D1046194607F0D6FE91
:10398000134A082310461946002208F0F3F94FF4B1
:1039900080737B6000233B610123BB600023FB60DD
:1039A000084A3B1D1046194607F0C0FE054A082389
:1039B00010461946002208F0DDF91837BD4680BDD3
:1039C000000C0240001002400004024000000240CF
:1039D0000008024084B080B586B000AF07F1200E29
:1039E0008EE80F00144B9B887B6002233B611223FF
:1039F000BB600123FB6004237B610F4B1A683B1DF6
:103A00001046194607F092FE0C4B9B887B60022300
:103A10003B611223BB600123FB6004237B61074BE6
:103A20001A683B1D1046194607F080FE1837BD4640
:103A3000BDE8804004B070478CCC010894CC0108EC
:103A400080B586B000AF4D494C4B1A684FF6FE73F7
:103A500013400B604A4B9B887B6002233B61112320
:103A6000BB600023FB6000237B61454B1A683B1D54
:103A70001046194607F05AFE424B9B887B60022392
:103A80003B611123BB600023FB6000237B613D4B46
:103A90001A683B1D1046194607F048FE394B1A6854
:103AA000384B9B8810461946012208F063F9344BC5
:103AB0001A68334B9B8810461946012208F05AF9C0
:103AC000304B1A682F4B9B8810461946002208F08D
:103AD00051F92B4B1A682A4B9B8810461946002235
:103AE00008F048F9274B1A68264B9B881046194660
:103AF000012208F03FF9224B1A68214B9B8810469F
:103B00001946012208F036F91D4B9B887B60022381
:103B10003B611223BB600123FB6004237B61184BD4
:103B20001A683B1D1046194607F000FE154B9B888E
:103B30007B6002233B611223BB600123FB600423F3
:103B40007B61104B1A683B1D1046194607F0EEFDCD
:103B50000A4A0A4B1B6843F400431360074A074BA9
:103B60001B68C3F30E031360044A044B1B6843F045
:103B70000103136018461837BD4680BD0058004049
:103B800094CC01088CCC010880B586B002AF034606
:103B90000A46FB711346BB71FB793B73BB797B73A0
:103BA00007F10C02642300930348E021022308F08C
:103BB000EFFA1037BD4680BDD413002080B586B023
:103BC00002AF03463960FB710023FB73FA1D6423C7
:103BD00000930948E021012308F0DAFA07F10F0207
:103BE000642300930448E021012308F085FBFB7B5C
:103BF00018461037BD4680BDD413002080B584B070
:103C000000AF786022497A6813465B0013440B4486
:103C10001B78FB731E497A6813465B0013440B4400
:103C200001331B78BB731A497A6813465B0013444F
:103C30000B4402331B787B737B7B002B25D07B7B73
:103C4000FF2B06D1FA7BBB7B10461946FFF79CFF82
:103C50001BE0FB7B18467968FFF7B0FF03463B7318
:103C60007B7BDB43DAB23B7B1340DBB2FB72BA7B7C
:103C70007B7B1340BB72FA7ABB7A13437B72FA7B6D
:103C80007B7A10461946FFF77FFF1037BD4680BD8F
:103C90000400002090B583B000AFE6201021FFF7AC
:103CA00073FFF120E521FFF76FFF00237B6005E044
:103CB0007868FFF7A3FF7B6801337B607B68B3F50F
:103CC000AF7FF5DBDA200121FFF778FF034603F031
:103CD0000403FB7007E0DA200121FFF76FFF0346C2
:103CE00003F00403FB70FB78002BF4D13120012199
:103CF000FFF764FF034603F07F03DBB23120194670
:103D0000FFF742FFF6200221FFF73EFFF120652179
:103D1000FFF73AFFDA200121FFF750FF034603F0D7
:103D20001503FB7007E0DA200121FFF747FF034688
:103D300003F01503FB70FB78002BF4D1EB2001217D
:103D4000FFF73CFF03462D201946FFF71DFFEC202F
:103D50000121FFF733FF03462E201946FFF714FF1A
:103D60002F200121FFF72AFF0346DBB223F00303D4
:103D7000DCB2ED200121FFF721FF0346DBB203F0A7
:103D80000303DBB222461343DBB2FB70FB782F2028
:103D90001946FFF7F9FE31200121FFF70FFF034617
:103DA00063F07F03DBB231201946FFF7EDFEE6201A
:103DB0000021FFF7E9FE0C37BD4690BD80B582B00B
:103DC00000AF87ED010A3860D7ED017AF5EEC07AD1
:103DD000F1EE10FA0ADD97ED010A0BF0E9F9F0EEC9
:103DE000407A3B68C3ED007A002304E03B684FF063
:103DF00000021A60FF235BB218460837BD4680BD3B
:103E000080B592B000AF1B4A1A4B1B6C43F0805335
:103E10001364194A184B1B6843F440431360012391
:103E20007B600123BB600223FB614FF480033B6294
:103E30000F237B62D223BB620223FB6207233B6317
:103E40003B1D184608F01EFF0D237B630223BB6356
:103E50000023FB634FF4A0533B644FF480537B6417
:103E600007F134031846052109F006FA4837BD4624
:103E700080BD00BF003802400070004080B48DB0AB
:103E800000AFF860B9607A6064237B85BB68022B61
:103E900000DD7DE00023FB6269E0BB68012B21D0DF
:103EA000022B39D0002B5FD17A68FB681344C3F52D
:103EB0000072FB6A9A420DDA7B68C3F50072FB6AF6
:103EC0009A4207DD354AFB6A9B0013444FF07E524D
:103ED0001A6049E0314AFB6A9B0013444FF000022C
:103EE0001A6041E0FA6A7B689A420DDD7A68FB68E5
:103EF0001A44FB6A9A4207DD284AFB6A9B00134476
:103F00004FF07E521A602FE0244AFB6A9B00134454
:103F10004FF000021A6027E07A68FB681344C3F58B
:103F20000072FB6A9A4205DA7B68C3F50072FB6A8D
:103F30009A4209DCFA6A7B689A420DDD7A68FB686E
:103F40001A44FB6A9A4207DD144AFB6A9B00134439
:103F50004FF07E521A6006E0104AFB6A9B00134441
:103F60004FF000021A6000BFFB6A0133FB62FB6A7C
:103F7000B3F5007F91DB094B03F580634FF000023E
:103F80001A60064B03F2FC734FF000021A6000BF88
:103F90003437BD465DF8047B704700BF50150020E4
:103FA00080B485B000AF786039600023FB6057E0D3
:103FB000FB685B00FA68D20011467A680A4492ED09
:103FC000007AFA685200434992000A44D2ED007A1E
:103FD00027EE277AFA68D200043279680A44D2EDD3
:103FE000006AFA68520001323A4992000A44D2ED5E
:103FF000007A66EEA77A77EE677A374A9B00134419
:10400000C3ED007AFB685B000133FA68D20004322A
:1040100079680A4492ED007AFA68520001322D491B
:1040200092000A44D2ED007A27EE277AFA68D2008D
:1040300011467A680A44D2ED006AFA6852002549AE
:1040400092000A44D2ED007A66EEA77A77EE277ADC
:10405000214A9B001344C3ED007AFB680133FB60E7
:10406000FB68FF2BA4DD0023FB6029E03B685A00BE
:10407000FB681344BB60FB68002B06DAFB689B00FF
:104080007A6813444FF000021A60FB68B3F5007FB2
:1040900006DBFB689B007A6813444FF000021A604D
:1040A000FB689B007A6813443A685100FA680A4436
:1040B000094992000A4412681A60FB680133FB60E8
:1040C000FB68B3F5007FD1DB1437BD465DF8047B98
:1040D000704700BF50150020F445002080B400AFA9
:1040E000194A194B1B6B43F001031363164A164B15
:1040F0001B6B43F002031363134A134B1B6B43F018
:1041000004031363104A104B1B6B43F00803136343
:104110000D4A0D4B1B6B43F0100313630A4A0A4B05
:104120001B6B43F400131363074A074B1B6B43F4E9
:1041300080031363044A044B1B6C43F48003136431
:10414000BD465DF8047B70470038024080B483B000
:1041500000AF78600C37BD465DF8047B704700BF48
:1041600080B400AF044B1B680133034A1360BD46A3
:104170005DF8047B704700BF580D002080B500AF8C
:104180000B4BD3E90023013243F100030849C1E995
:104190000023FEF7A7FD00F02FF8064B1B68002B4D
:1041A00004D0044B1B68013B024A136080BD00BF72
:1041B000F80C00202013002080B400AF094B00222F
:1041C0001A60094B00221A60084B7F221A60084BC4
:1041D00000221A60074B64221A601846BD465DF83B
:1041E000047B7047501D00204C150020782D0020C6
:1041F000541D00201852002098B500AF444B1B7886
:10420000002B40F08380434B1A68424B9B8810463A
:10421000194607F059FD03465C003F4B1A683E4BB8
:104220009B881046194607F04FFD034623443B4A3E
:1042300013603A4B1A683A4B1B689A4262D0384B6B
:104240001B68002B03D1354B1B68012B17D0344B57
:104250001B68012B03D1314B1B68032B0FD0304B54
:104260001B68032B03D12D4B1B68022B07D02C4B53
:104270001B68022B05D1294B1B68002B01D10123A0
:1042800000E00023274A1360274B1A68264B9B88BF
:104290001046194607F018FD0346002B23D1214B89
:1042A0001B68002B06D0214B1B8801339AB21F4B91
:1042B0001A8005E01D4B1B88013B9AB21B4B1A80EC
:1042C0001A4B1B885B089AB2194B1A80184B1B8833
:1042D000184A1288B3FBF2F102FB01F29B1A9AB260
:1042E000134B1A800EE00F4B1B68002B05D0124BAE
:1042F0001B680133104A136004E00F4B1B68013B3D
:104300000D4A1360054B1B68054A136098BD00BF3A
:10431000200D00200CCC010804CC01084C15002015
:10432000501D00208445002014CC0108040D0020FD
:10433000020D0020300400201C52002080B400AF89
:10434000044B1B68DA0F13445B101846BD465DF83A
:10435000047B70471C52002098B500AF314B1B788E
:10436000002B00F04685304B1B88642B05D12F486D
:104370004FF48051012207F0FDFCFEF7D7FE2C4BD5
:104380001B68012B00F0A881022B00F04183002B59
:1043900040F0D984274B1B68002B59D1224B1B8836
:1043A0005C00254B1B889BB21A46244B1B68D31A12
:1043B00018460BF053FB02460B46104619464FF0C9
:1043C00000021F4B0BF0DAFC02460B461046194662
:1043D0000BF06CFE01461B4AA30013441960124BFC
:1043E0001B885B005C1C184B1B889BB21A46174B42
:1043F0001B68D31A18460BF031FB02460B461046D9
:1044000019464FF000020E4B0BF0B8FC02460B466B
:10441000104619460BF04AFE01460A4AA30013440F
:10442000196058E0D113002014140020001002403D
:10443000340D0020180D0020CE130020540400205D
:104440000000B040843500201C13002050040020E0
:104450008F4B1B885C008F4B1B889BB21A468E4B80
:104460001B68D31A18460BF0F9FA02460B461046A1
:1044700019464FF00002894B0BF080FC02460B46B8
:10448000104619460BF012FE0146854AA30013445C
:1044900019607F4B1B885B005C1C7E4B1B889BB2AA
:1044A0001A467D4B1B68D31A18460BF0D7FA024602
:1044B0000B46104619464FF00002784B0BF05EFC9D
:1044C00002460B46104619460BF0F0FD0146744AB1
:1044D000A300134419606F4B1B889AB2714B1B8861
:1044E0009A4204D96B4B1B889AB26E4B1A806E4B62
:1044F0001B889AB26B4B1B889A4204D96A4B1B8863
:104500009AB2684B1A80624B1B885B00674A9B001B
:10451000134493ED007A664BD3ED007AB4EEE77A5C
:10452000F1EE10FA08DD5A4B1B885B005F4A9B00D6
:1045300013441B685E4A1360554B1B885B000133B4
:104540005A4A9B00134493ED007A594BD3ED007AFD
:10455000B4EEE77AF1EE10FA09DD4D4B1B885B00F3
:104560000133524A9B0013441B68514A1360484B65
:104570001B885B004D4A9B001344D3ED007A9FEDEE
:104580004D7A27EE877A4C4BD3ED007A67EE277A87
:104590009FED4A7A77EE877AFDEEE77A17EE902A5A
:1045A000474B1A603A4B1B885B0001333F4A9B0024
:1045B0001344D3ED007A9FED3F7A27EE877A3E4B86
:1045C000D3ED007A67EE277A9FED3C7A77EE877A13
:1045D000FDEEE77A17EE902A3A4B1A603A4B1B68C9
:1045E000012B13D1364B1A68384B1B689A4203DDF6
:1045F000334B1B68354A1360324B1A68334B1B68C8
:104600009A4203DD2F4B1B68304A13602C4B1B680A
:104610009BB2184602F090FC2A4B1B689BB21846CE
:1046200002F09EFC1A4B1B881A46294B1B88C3F1CB
:10463000FF039A422ADB164B1B881A46244B1B8821
:10464000A3F5807313445B00114A12885200144989
:1046500092000A4412681F499B000B441A600C4BDD
:104660001B881A461A4B1B88A3F5807313445B0002
:104670000133074A128852000132094992000A4464
:10468000126814499B000B441A605CE35BE300BFB3
:1046900014140020401200204C0400200000B04000
:1046A00084350020000D00201C130020581D002020
:1046B000100D0020000080451C0400200000004573
:1046C000380D00203C0D0020180D0020400D00206A
:1046D0002C040020F84D0020234B1B68002B53D1E5
:1046E000224B1B885C00224B1B889BB21A46214B35
:1046F0001B68D31A18460BF0B1F902460B46104658
:1047000019464FF000021C4B0BF038FB02460B46DB
:10471000104619460BF0CAFC0146184AA300134480
:104720001960124B1B885B005C1C154B1B889BB2ED
:104730001A46144B1B68D31A18460BF08FF9024621
:104740000B46104619464FF000020B4B0BF016FBC0
:1047500002460B46104619460BF0A8FC0146074AD4
:10476000A3001344196052E0180D00201414002017
:10477000CE130020540400200000B040581D00203B
:104780001C130020500400208F4B1B885C008F4BB3
:104790001B889BB21A468E4B1B68D31A18460BF027
:1047A0005DF902460B46104619464FF00002894B50
:1047B0000BF0E4FA02460B46104619460BF076FC65
:1047C0000146854AA300134419607F4B1B885B0098
:1047D0005C1C7E4B1B889BB21A467D4B1B68D31A10
:1047E00018460BF03BF902460B46104619464FF0AF
:1047F0000002784B0BF0C2FA02460B4610461946EF
:104800000BF054FC0146744AA300134419606F4B2B
:104810001B889AB2714B1B889A4204D96B4B1B8838
:104820009AB26E4B1A806E4B1B889AB26B4B1B88E8
:104830009A4204D96A4B1B889AB2684B1A80624B21
:104840001B885B00674A9B00134493ED007A664B1C
:10485000D3ED007AB4EEE77AF1EE10FA08DD5A4BA8
:104860001B885B005F4A9B0013441B685E4A136011
:10487000554B1B885B0001335A4A9B00134493ED50
:10488000007A594BD3ED007AB4EEE77AF1EE10FAE4
:1048900009DD4D4B1B885B000133524A9B001344DA
:1048A0001B68514A1360484B1B885B004D4A9B00B4
:1048B0001344D3ED007A9FED4D7A27EE877A4C4B67
:1048C000D3ED007A67EE277A9FED4A7A77EE877A02
:1048D000FDEEE77A17EE902A474B1A603A4B1B8899
:1048E0005B0001333F4A9B001344D3ED007A9FEDF8
:1048F0003F7A27EE877A3E4BD3ED007A67EE277A30
:104900009FED3C7A77EE877AFDEEE77A17EE902AF4
:104910003A4B1A603A4B1B68012B13D1364B1A687D
:10492000384B1B689A4203DD334B1B68354A1360D2
:10493000324B1A68334B1B689A4203DD2F4B1B68BE
:10494000304A13602C4B1B689BB2184602F0F4FAF5
:104950002A4B1B689BB2184602F002FB1A4B1B88BD
:104960001A46294B1B88C3F1FF039A422ADB164BD8
:104970001B881A46244B1B88A3F5807313445B00E5
:10498000114A12885200144992000A4412681F49C1
:104990009B000B441A600C4B1B881A461A4B1B8851
:1049A000A3F5807313445B000133074A1288520059
:1049B0000132094992000A44126814499B000B44D1
:1049C0001A60C0E1BFE100BF1414002040120020B3
:1049D0004C0400200000B040581D0020000D0020B5
:1049E0001C13002078250020100D002000008045B9
:1049F0001C04002000000045380D00203C0D002064
:104A0000180D0020400D00202C040020F84D00203F
:104A1000234B1B68002B53D1224B1B885C00224B7D
:104A20001B889BB21A46214B1B68D31A18460BF001
:104A300015F802460B46104619464FF000021C4B73
:104A40000BF09CF902460B46104619460BF02EFB64
:104A50000146184AA30013441960124B1B885B00DF
:104A60005C1C154B1B889BB21A46144B1B68D31A4F
:104A700018460AF0F3FF02460B46104619464FF05F
:104A800000020B4B0BF07AF902460B461046194612
:104A90000BF00CFB0146074AA3001344196052E0D7
:104AA000180D002014140020CE1300205404002000
:104AB0000000B040782500201C1300205004002086
:104AC0008E4B1B885C008E4B1B889BB21A468D4B0D
:104AD0001B68D31A18460AF0C1FF02460B4610465F
:104AE00019464FF00002884B0BF048F902460B467E
:104AF000104619460BF0DAFA0146844AA300134423
:104B000019607E4B1B885B005C1C7D4B1B889BB235
:104B10001A467C4B1B68D31A18460AF09FFF0246C0
:104B20000B46104619464FF00002774B0BF026F962
:104B300002460B46104619460BF0B8FA0146734A76
:104B4000A300134419606E4B1B889AB2704B1B88EC
:104B50009A4204D96A4B1B889AB26D4B1A806D4BEE
:104B60001B889AB26A4B1B889A4204D9694B1B88EE
:104B70009AB2674B1A80614B1B885B00664A9B00A8
:104B8000134493ED007A654BD3ED007AB4EEE77AE7
:104B9000F1EE10FA08DD594B1B885B005E4A9B0062
:104BA00013441B685D4A1360544B1B885B00013340
:104BB000594A9B00134493ED007A584BD3ED007A89
:104BC000B4EEE77AF1EE10FA09DD4C4B1B885B007E
:104BD0000133514A9B0013441B68504A1360474BF2
:104BE0001B885B004C4A9B001344D3ED007A9FED79
:104BF0004C7A27EE877A4B4BD3ED007A67EE277A13
:104C00009FED497A77EE877AFDEEE77A17EE902AE4
:104C1000464B1A60394B1B885B0001333E4A9B00B0
:104C20001344D3ED007A9FED3E7A27EE877A3D4B11
:104C3000D3ED007A67EE277A9FED3B7A77EE877A9D
:104C4000FDEEE77A17EE902A394B1A60394B1B6854
:104C5000012B13D1354B1A68374B1B689A4203DD81
:104C6000324B1B68344A1360314B1A68324B1B6855
:104C70009A4203DD2E4B1B682F4A13602B4B1B6897
:104C80009BB2184602F058F9294B1B689BB2184694
:104C900002F066F9194B1B881A46284B1B88C3F192
:104CA000FF039A424EDB154B1B881A46234B1B8889
:104CB000A3F5807313445B00104A12885200134915
:104CC00092000A4412681E499B000B441A600B4B69
:104CD0001B881A46194B1B88A3F5807313445B008D
:104CE0000133064A128852000132084992000A44F0
:104CF000126813499B000B441A6023E0141400202F
:104D0000401200204C0400200000B0407825002014
:104D1000000D00201C13002084350020100D002001
:104D2000000080451C04002000000045380D0020D4
:104D30003C0D0020180D0020400D00202C04002008
:104D4000F84D002000BF2E4B1B6818460AF098FE55
:104D500002460B461046194627A3D3E900230AF062
:104D6000E3FE02460B46104619460BF09FF9024639
:104D7000234B1A60234B1B8801339AB2214B1A80B4
:104D8000204B1B88FF2B32D91F484FF48051002243
:104D900006F0F0FF1D4B01221A701D4B1A88194BAB
:104DA0001A801C4B1B68012B0DD0022B15D0002B39
:104DB0001DD1194B01221A60164B01221A601748A7
:104DC00000F036F813E0164B01221A60114B022254
:104DD0001A60144800F02CF809E0134B01221A6005
:104DE0000C4B00221A60114800F022F800BFFEF7B9
:104DF000DFF998BDAFF300801EA7E8482EFFEF3F14
:104E0000100D002014140020001002407113002027
:104E10002C040020340D0020240D0020581D0020FB
:104E2000280D0020782500202C0D0020843500203E
:104E300080B485B000AF78600023FB810CE0FB8973
:104E40009B007A681344FA89104992000A44126858
:104E50001A60FB890133FB81FA890D4B1B885B00CB
:104E60009A42ECDB09E0FB899B007A6813444FF01F
:104E700000021A60FB890133FB81FB89B3F5007FD7
:104E8000F1D31437BD465DF8047B7047F84D002020
:104E90002C04002080B584B000AF03460A46FB71A5
:104EA0001346BB715A4B1A68594B9B8810461946DA
:104EB000002206F05FFF574B1A68564B9B8810463E
:104EC0001946002206F056FF534B1A68524B9B8836
:104ED00010461946002206F04DFF4F4B1A684E4B04
:104EE0009B8810461946012206F044FF0023FB73FD
:104EF00025E0484B1868474B9988FA79FB7BC3F14A
:104F0000070342FA03F3DBB203F00103DBB21A46F4
:104F100006F030FF404B1A683F4B9B8810461946FD
:104F2000002206F027FF3C4B1A683B4B9B8810463B
:104F30001946012206F01EFFFB7B0133FB73FB7B4E
:104F4000072BD6D9324B1A68314B9B88104619462D
:104F5000012206F00FFF2E4B1A682D4B9B8810463E
:104F60001946002206F006FF2A4B1A68294B9B8837
:104F700010461946012206F0FDFE274B1A68264B03
:104F80009B8810461946002206F0F4FE224B1A6850
:104F9000214B9B8810461946012206F0EBFE0023A8
:104FA000FB7325E01B4B18681A4B9988BA79FB7B79
:104FB000C3F1070342FA03F3DBB203F00103DBB2F0
:104FC0001A4606F0D7FE144B1A68134B9B881046FE
:104FD0001946002206F0CEFE0F4B1A680E4B9B8836
:104FE00010461946012206F0C5FEFB7B0133FB7318
:104FF000FB7B072BD6D9064B1A68054B9B881046BE
:105000001946012206F0B6FE1037BD4680BD00BF2E
:1050100044CC01083CCC010834CC010880B500AF79
:1050200002F0B6F8184680BD80B586B000AF284AB9
:10503000274B1B6B43F004031363254A244B5B6C23
:1050400043F020035364234B9B887B600223BB60A7
:105050000023FB6002233B6108237B611D4B1A6820
:105060003B1D1046194606F061FB1B4B9B887B607D
:1050700008237B61184B1A683B1D1046194606F041
:1050800055FB164B164A1A60144B4FF416525A60D1
:10509000124B00229A60114B0022DA600F4B002263
:1050A0001A610E4B00229A610C4B0C225A610B4B79
:1050B0000022DA61094809F05DFA0346002B02D0AC
:1050C000084802F0C5F8FDF71FFE1837BD4680BD41
:1050D000003802407CCC010884CC01085812002022
:1050E0000014014024080208B0B58CB002AF78600B
:1050F000396002F095F9FEF783FEAF4802F0A8F898
:10510000AE4802F0A5F8AE4B1B68AE48194602F057
:105110007DF8FEF7E3FFFEF745F901F035FFAA48F9
:10512000FFF714F8FEF78CFCA84BA94A1A60A748B1
:1051300006F0DEFFA54B4FF480421A61A34BA54A4F
:105140005A60A24B00225A61A04B4FF480429A60F1
:105150009E4B0022DA619D4B00221A629B4B40F26B
:105160000F32DA60994BFE229A61984806F062FE8F
:105170000346002B02D0984802F06AF8012387F812
:10518000273008E09148E0216422642307F02EFADA
:10519000034687F8273097F82730002BF2D1FEF727
:1051A00079FDFDF78FFDFDF71DFD8C484FF4805113
:1051B000012206F0DFFD8A4B1B881AB2894B1B883F
:1051C0001BB2D21A884B1B781946864B1B881BB220
:1051D00010461A46FEF752FE01F050FEFEF7ECFFB5
:1051E000FDF7DEF80120FDF7AFFC0020FCF728FEFC
:1051F0000320FDF719F80120FDF742F84FF6FF7084
:105200000021FDF725F800207821C822FDF760FC79
:10521000FDF742FE754B01221A70FDF7C9FF01F040
:10522000BDFD4FF000024FF00003C7E90623012047
:1052300000F05AFBFA20FA21FFF72CFEFFF7F4FEEC
:105240006B486C49102209F041FA694B9B6A7B61FB
:10525000684B3B617A693B69D31A9B10FB6000F095
:1052600077F9002000F040FB00F07EFF00F014F919
:10527000614B1A68604B9B881046194606F024FD66
:105280000346002B02D04FF4784300E01F23009325
:105290004FF49B70002103220323FCF7A5FD574B1D
:1052A0001A68564B9B881046194606F00DFD0346BA
:1052B000002B02D04FF4784300E01F2300934FF4FB
:1052C0009B70042103220323FCF78EFD4C4B1A68CC
:1052D0004B4B9B881046194606F0F6FC0346002B04
:1052E00002D04FF4784300E01F2300934FF49B70EB
:1052F000082103220323FCF777FD424B1A68414B38
:105300009B881046194606F0DFFC0346002B02D0AE
:105310004FF4784300E01F2300934FF49B700C215F
:1053200003220323FCF760FD374B1D68364B9C8836
:10533000364B1A68354B9B881046194606F0C4FC5C
:105340000346284621461A4606F014FD2C4B1A68DF
:105350002B4B9B881046194606F0B6FC0346002BE3
:1053600062D12B4B01221A602A4B1A68294B9B8869
:1053700010461946012206F0FDFC274B1A68264B01
:105380009B8810461946012206F0F4FC234B1A684C
:10539000224B9B8810461946002206F0EBFC204B5E
:1053A0001A681F4B9B8810461946002206F0E2FC43
:1053B0001C4BC8221A6061E0400802085408020829
:1053C000680400206C08020878130020D413002021
:1053D00000580040801A06008008020800100240B1
:1053E0003C0400200C0D00200E0D0020D1130020E5
:1053F000581200201851002064CC01086CCC010820
:1054000054CC01085CCC01089CCC010874CC010888
:10541000180D00204CCC01081CCC010824CC01083C
:105420002CCC01081C0D0020154B00221A60154BD6
:105430001A68144B9B8810461946002206F09AFC05
:10544000114B1A68104B9B8810461946002206F033
:1054500091FC0E4B1A680D4B9B8810461946012291
:1054600006F088FC0A4B1A68094B9B8810461946BF
:10547000012206F07FFC074B00221A60E0E600BF25
:10548000180D00204CCC01081CCC010824CC0108CC
:105490002CCC01081C0D002080B584B002AF284B35
:1054A000D3ED007A9FED277A67EE877AB7EE007A20
:1054B00077EE877A17EE900A0AF0E2FA02460B4678
:1054C00043EC102B09F0EEFD53EC102B104619465F
:1054D0004FF000021C4B0AF027FB02460B46104619
:1054E00019460AF0BBFD03467B60184B1B687A68BF
:1054F0009A4210DD154B1B6803F19601134B1B6894
:105500007A68D21A4FF47843009308469C2103230B
:10551000FCF76AFC0DE07B6803F196010B4B1A68FF
:105520007B68D21A0023009308469C210323FCF7D2
:105530005BFC064A7B6813600837BD4680BD00BF30
:10554000440D00200024744900002440480D002030
:1055500080B500AF924B1B880A2B00F2778101A225
:1055600052F823F0915500089D550008A9550008F0
:10557000B7550008C5550008D1550008DD5500088D
:10558000E95500088D56000831570008C957000832
:10559000844B854A1A6001F087F958E1814B834AB0
:1055A0001A6001F081F952E17E4B42F210721A60EA
:1055B00001F07AF94BE17B4B4FF47A721A6001F0FB
:1055C00073F944E1774B64221A6001F06DF93EE112
:1055D000744B0A221A6001F067F938E1714B01221D
:1055E0001A6001F061F932E1FEF7A8FE0246704B45
:1055F0001A606F4B1A686F4B1B689A4245D06D4B0F
:105600001B689AB26A4B1B689BB2D31A9AB26A4B58
:105610001B889BB213449BB29AB2674B1A80664BAD
:105620001B881BB2002B02DC634B00221A80624BEA
:105630001B881BB2C72B02DD5F4B64221A805E4BB6
:105640001A885E4B1B8812B21BB29A4207DB5B4B77
:105650001B889BB2013B9BB29AB2574B1A80544BAA
:105660001B68544A1360554B1B881AB2524B1B8857
:105670001BB2D21A524B1B7819464F4B1B881BB2D8
:1056800010461A46FEF7FAFBE1E0E0E0FEF756FEB0
:105690000246474B1A60464B1A68464B1B689A42B3
:1056A00045D0444B1B689AB2414B1B689BB2D31A3E
:1056B0009AB2424B1B889BB213449BB29AB23F4BA7
:1056C0001A803E4B1B881BB2002B02DC3B4B002296
:1056D0001A803A4B1B881BB2C72B02DD374B642262
:1056E0001A80364B1A88344B1B8812B21BB29A426E
:1056F00007DC314B1B889BB201339BB29AB22F4B14
:105700001A802B4B1B682B4A13602C4B1B881AB238
:10571000294B1B881BB2D21A294B1B781946264BE2
:105720001B881BB210461A46FEF7A8FB8FE08EE0DE
:10573000FEF704FE02461E4B1A601D4B1A681D4BF5
:105740001B689A422AD01E4B1B781946194B1A68BF
:10575000174B1B68D31ACA181A4B83FB0231D31795
:10576000C91A0B465B000B44D11ACAB2144B1A700B
:10577000124B1B881AB2104B1B881BB2D21A104B4B
:105780001B7819460C4B1B881BB210461A46FEF7B5
:1057900075FB074B1B68074A136058E057E000BFD2
:1057A000020D00203404002040420F00A0860100BA
:1057B000F0450020803500200C0D00203C04002026
:1057C0000E0D002056555555FEF7B8FD0246204BEC
:1057D0001A601F4B1A681F4B1B689A4235D01D4B2D
:1057E0001A681B4B1B68D31A07EE903AB8EEE77A9B
:1057F000194BD3ED007A27EE277A184BD3ED007AB8
:1058000077EE277A154BC3ED007A144B93ED007AAF
:10581000134BD3ED007AB4EEE77AF1EE10FA03DD24
:105820000F4B1B680D4A13600C4BD3ED007AF5EE5D
:10583000C07AF1EE10FA03D8084B4FF000021A605C
:10584000034B1B68034A136001E000E000BF80BD0A
:10585000F045002080350020240400201C04002096
:105860002804002080B586B000AF786039604FF022
:1058700000033B6100237B6116E07B699B007A6833
:10588000134493ED007A7B699B007A681344D3ED4F
:10589000007A67EE277A97ED047A77EE277AC7EDDC
:1058A000047A7B6901337B617A693B689A42E4DB65
:1058B0003B6807EE903AF8EEE77A97ED047AC7EE88
:1058C000277AC7ED047A07F10C0397ED040A18460E
:1058D000FEF774FAFB6807EE903AB0EE670A1837E5
:1058E000BD4680BD00000000B0B58AB004AF0346DD
:1058F000FB71A14B01221A70FB79002B3BD00C23CA
:1059000000934FF6FF73019396205A219B4A282358
:10591000FCF716FC88230093722301934FF6FF7364
:1059200002937E20772188227C23FCF7A3FA0C23A4
:1059300000934FF6FF73019396208821904A2F23FE
:10594000FCF7FEFB2E20AE216C224FF6FF7300F019
:10595000F3FF2E20EE216C224FF6FF7300F0ECFFD8
:105960000A2300934FF6FF7301938E20A221854AEC
:105970009B23FCF7E5FB844B1B68844884491A464B
:105980000AF056FF814B1A78824B1B7852B25BB2F9
:105990009A4210D1FB79002B0DD17F4B1A887F4B97
:1059A0001B889A4218D07C4B1B88002B03D07B4B62
:1059B0001B88002B10D1754B1B785AB2764B1B8875
:1059C000002B02D14FF4784301E04FF6FF731046ED
:1059D0008E216C2200F0B0FF6C4B5A786D4B5B78D7
:1059E00052B25BB29A4214D16D4B1B78002B10D18E
:1059F000FB79002B0DD1684B1A88684B1B889A42A3
:105A000018D0654B1B88002B03D0644B1B88002BE0
:105A100010D15E4B5B785AB25F4B1B88002B02D1D2
:105A20004FF4784301E04FF6FF7310469E216C223D
:105A300000F082FF554B9A78564B9B7852B25BB27E
:105A40009A4210D1FB79002B0DD1534B1A88534B3E
:105A50001B889A4218D0504B1B88012B03D04F4B08
:105A60001B88012B10D1494B9B785AB24A4B1B889B
:105A7000012B02D14FF4784301E04FF6FF7310463B
:105A8000BE216C2200F058FF404BDA78414BDB78A6
:105A900052B25BB29A4210D1FB79002B0DD13E4B32
:105AA0001A883E4B1B889A4218D03B4B1B88022B0E
:105AB00003D03A4B1B88022B10D1344BDB785AB2FF
:105AC000354B1B88022B02D14FF4784301E04FF68F
