:020000040800F2
:1000000000000220A9030008153D0008213D00085A
:10001000293D0008313D0008393D0008000000007E
:100020000000000000000000000000004D3D00083E
:10003000413D000800000000593D00088D450008C2
:10004000F9030008F9030008F9030008F9030008A0
:10005000F9030008F9030008F9030008F903000890
:10006000F9030008F9030008F9030008F903000880
:10007000F9030008F9030008F9030008F903000870
:10008000F9030008F9030008F9030008F903000860
:10009000F9030008F9030008F9030008F903000850
:1000A000F9030008F9030008F9030008F903000840
:1000B000F9030008653D0008793D0008F9030008D0
:1000C000F9030008F9030008F9030008F903000820
:1000D000F9030008F9030008F9030008F903000810
:1000E000F9030008F9030008F9030008F903000800
:1000F000F9030008F9030008F9030008F9030008F0
:10010000F9030008F9030008F9030008F9030008DF
:10011000F9030008F9030008F9030008F9030008CF
:10012000F9030008F9030008F9030008F9030008BF
:10013000F9030008F9030008F9030008F9030008AF
:10014000F9030008F9030008F9030008F90300089F
:10015000F9030008F9030008F9030008F90300088F
:10016000F9030008F9030008F9030008F90300087F
:10017000F9030008F9030008F90300080000000073
:10018000F9030008F9030008F9030008F90300085F
:10019000F9030008F9030008F9030008F90300084F
:1001A000F9030008F9030008F903000880B58EB0D0
:1001B00000AF40F6C803C2F200034BF6BA22CCF6F9
:1001C000DE221A6044F64C13C2F200034BF6BA2248
:1001D000CCF6DE221A6040F6C803C2F200033B638D
:1001E00044F65013C2F20003FB623B6BBB6207E0B4
:1001F000BB6A4FF000021A60BB6A03F10403BB62E2
:10020000FA6ABB6A9A42F3D840F6C803C2F2000306
:100210001B68002B06D144F64C13C2F200031B6886
:10022000002B00D0FEE740F20003C2F200034BF6C1
:10023000BA22CCF6DE221A6040F6C403C2F20003F2
:100240004BF6BA22CCF6DE221A604FF2D403C0F687
:1002500001037B6240F20003C2F200033B6240F6FE
:10026000C803C2F20003FB613B6ABB610BE07B6A1F
:100270001A68BB691A60BB6903F10403BB617B6A3E
:1002800003F104037B62FA69BB699A42EFD840F23A
:100290000003C2F200031A6845F27863C1F2342306
:1002A0009A420BD140F6C403C2F200031A6840F62A
:1002B000C403C2F200031B689A4200D0FEE707F0B5
:1002C000FBFF07F104023B461046194603F05CFCB5
:1002D00040F20042C0F6000240F20043C0F60003C4
:1002E000D31A4FEAA3037B614FF000033B610BE09D
:1002F00040F20043C0F600033A6953F822309847B1
:100300003B6903F101033B617A693B699A42EFDC87
:1003100040F20042C0F6000240F20043C0F6000383
:10032000D31A4FEAA3037B614FF000033B610BE05C
:1003300040F20043C0F600033A6953F82230984770
:100340003B6903F101033B617A693B699A42EFDC47
:100350007A683B681046194605F092F803467B63BD
:1003600040F20042C0F6000240F20043C0F6000333
:10037000D31A4FEAA303FB60FB68BB600DE0BB68C8
:1003800003F1FF3240F20043C0F6000353F822307D
:100390009847BB6803F1FF33BB60BB68002BEEDC02
:1003A000786B03F04DFC00BF80B500AFFFF7FEFE99
:1003B00080B400AFFEE700BF80B400AFFEE700BF2F
:1003C00080B400AFFEE700BF80B400AFFEE700BF1F
:1003D00080B400AFFEE700BF80B400AFFEE700BF0F
:1003E00080B400AFFEE700BF80B400AFFEE700BFFF
:1003F00080B400AFFEE700BF80B400AFFEE700BFEF
:1004000080B483B000AF786007F10C07BD4680BCB4
:10041000704700BF80B483B000AF786007F10C076D
:10042000BD4680BC704700BF80B582B000AF786029
:100430007B68002B02D14FF00103C4E07B681A688F
:100440004FF00003C4F201039A426CD07B681B6832
:10045000B3F1804F67D07B681A684FF48063C4F2B1
:1004600000039A425FD07B681A684FF40063C4F2BD
:1004700000039A4257D07B681A684FF44063C4F275
:1004800000039A424FD07B681A684FF48053C4F23D
:1004900000039A4247D07B681A684FF4A053C4F215
:1004A00000039A423FD07B681A684FF48063C4F21D
:1004B00001039A4237D07B681A684FF48043C4F234
:1004C00001039A422FD07B681A684FF48843C4F224
:1004D00001039A4227D07B681A684FF49043C4F214
:1004E00001039A421FD07B681A684FF4C053C4F2CC
:1004F00000039A4217D07B681A684FF4E053C4F2A5
:1005000000039A420FD07B681A684FF40053C4F27C
:1005100000039A4207D040F6F810C0F601004FF0F1
:10052000D10103F025FB7B689B68002B17D07B680B
:100530009B68102B13D07B689B68202B0FD07B68A7
:100540009B68402B0BD07B689B68602B07D040F6E4
:10055000F810C0F601004FF0D20103F009FB7B68F0
:100560001B69002B11D07B681B69B3F5807F0CD011
:100570007B681B69B3F5007F07D040F6F810C0F622
:1005800001004FF0D30103F0F3FA7B6893F83930A0
:10059000DBB2002B02D1786800F01AF87B684FF0CC
:1005A000020283F839207B681A687B6803F1040330
:1005B0001046194600F00AFA7B684FF0010283F8F2
:1005C00039204FF00003184607F10807BD4680BDEB
:1005D00080B483B000AF786007F10C07BD4680BCE3
:1005E000704700BF80B582B000AF78607B681A6842
:1005F0004FF00003C4F201039A426CD07B681B6881
:10060000B3F1804F67D07B681A684FF48063C4F2FF
:1006100000039A425FD07B681A684FF40063C4F20B
:1006200000039A4257D07B681A684FF44063C4F2C3
:1006300000039A424FD07B681A684FF48053C4F28B
:1006400000039A4247D07B681A684FF4A053C4F263
:1006500000039A423FD07B681A684FF48063C4F26B
:1006600001039A4237D07B681A684FF48043C4F282
:1006700001039A422FD07B681A684FF48843C4F272
:1006800001039A4227D07B681A684FF49043C4F262
:1006900001039A421FD07B681A684FF4C053C4F21A
:1006A00000039A4217D07B681A684FF4E053C4F2F3
:1006B00000039A420FD07B681A684FF40053C4F2CB
:1006C00000039A4207D040F6F810C0F6010040F24D
:1006D0005B1103F04DFA7B681B687A681268D26878
:1006E00042F00102DA607B681B687A68126812685F
:1006F00042F001021A604FF00003184607F10807A4
:10070000BD4680BD80B582B000AF78607B681B6855
:100710001B6903F00203002B27D07B681B68DB6892
:1007200003F00203002B20D07B681B687A681268F4
:10073000126922F002021A617B684FF001021A76F8
:100740007B681B689B6903F00303002B03D0786868
:1007500000F01EF905E0786800F010F9786800F004
:1007600021F97B684FF000021A767B681B681B69D1
:1007700003F00403002B27D07B681B68DB6803F0C1
:100780000403002B20D07B681B687A68126812690A
:1007900022F004021A617B684FF002021A767B682D
:1007A0001B689B6903F44073002B03D0786800F04A
:1007B000EFF805E0786800F0E1F8786800F0F2F80A
:1007C0007B684FF000021A767B681B681B6903F098
:1007D0000803002B27D07B681B68DB6803F0080345
:1007E000002B20D07B681B687A681268126922F09F
:1007F00008021A617B684FF004021A767B681B6856
:100800009B6903F00303002B03D0786800F0C0F865
:1008100005E0786800F0B2F8786800F0C3F87B680B
:100820004FF000021A767B681B681B6903F0100307
:10083000002B27D07B681B68DB6803F01003002BBC
:1008400020D07B681B687A681268126922F0100257
:100850001A617B684FF008021A767B681B689B69F7
:1008600003F44073002B03D0786800F091F805E0A2
:10087000786800F083F8786800F094F87B684FF0AF
:1008800000021A767B681B681B6903F00103DBB268
:10089000002B12D07B681B68DB6803F00103DBB21E
:1008A000002B0AD07B681B687A681268126922F0F4
:1008B00001021A61786806F085FD7B681B681B6978
:1008C00003F08003002B11D07B681B68DB6803F00A
:1008D0008003002B0AD07B681B687A681268126953
:1008E00022F080021A617868FFF794FD7B681B682C
:1008F0001B6903F04003002B11D07B681B68DB6889
:1009000003F04003002B0AD07B681B687A681268EA
:10091000126922F040021A61786800F04DF87B6895
:100920001B681B6903F02003002B11D07B681B6838
:10093000DB6803F02003002B0AD07B681B687A6811
:100940001268126922F020021A617868FFF758FDD8
:1009500007F10807BD4680BD80B483B000AF786062
:100960007B681B687A681268126922F001021A61BA
:1009700007F10C07BD4680BC704700BF80B483B050
:1009800000AF786007F10C07BD4680BC704700BF20
:1009900080B483B000AF786007F10C07BD4680BC1F
:1009A000704700BF80B483B000AF786007F10C07D8
:1009B000BD4680BC704700BF80B483B000AF786094
:1009C00007F10C07BD4680BC704700BF80B485B0FE
:1009D00000AF786039604FF00003FB607B681B68F4
:1009E000FB607A684FF00003C4F201039A421FD003
:1009F0007B68B3F1804F1BD07A684FF48063C4F2F8
:100A000000039A4214D07A684FF40063C4F20003E2
:100A10009A420DD07A684FF44063C4F200039A42C0
:100A200006D07A684FF48063C4F201039A4202D17F
:100A30004FF0010301E04FF00003002B08D0FB68EA
:100A400023F07003FB603B685B68FA681343FB604C
:100A50007A684FF00003C4F201039A4249D07B68E0
:100A6000B3F1804F45D07A684FF48063C4F200033D
:100A70009A423ED07A684FF40063C4F200039A426F
:100A800037D07A684FF44063C4F200039A4230D002
:100A90007A684FF48063C4F201039A4229D07A68DD
:100AA0004FF48043C4F201039A4222D07A684FF493
:100AB0008843C4F201039A421BD07A684FF49043F2
:100AC000C4F201039A4214D07A684FF4C053C4F2BE
:100AD00000039A420DD07A684FF4E053C4F2000349
:100AE0009A4206D07A684FF40053C4F200039A4247
:100AF00002D14FF0010301E04FF00003002B08D0BA
:100B0000FB6823F44073FB603B68DB68FA681343BF
:100B1000FB607B68FA681A603B689A687B68DA62F7
:100B20003B681A687B689A627A684FF00003C4F2E7
:100B300001039A4206D07A684FF48063C4F201033D
:100B40009A4202D14FF0010301E04FF00003002B65
:100B500003D03B681A697B681A637B684FF0010217
:100B60005A6107F11407BD4680BC704780B582B05A
:100B700000AF78607B68002B02D14FF0010332E1B7
:100B80007B685B68002B0CD07B685B68B3F5827F69
:100B900007D040F62820C0F601004FF0A50102F072
:100BA000E7FF7B689B68002B11D07B689B68B3F5DF
:100BB000806F0CD07B689B68B3F5004F07D040F680
:100BC0002820C0F601004FF0A60102F0D1FF7B689B
:100BD000DB68B3F5006F0BD07B68DB68002B07D0B8
:100BE00040F62820C0F601004FF0A70102F0C0FF38
:100BF0007B681B69002B0BD07B681B69022B07D01D
:100C000040F62820C0F601004FF0A80102F0B0FF26
:100C10007B685B69002B0BD07B685B69012B07D07D
:100C200040F62820C0F601004FF0A90102F0A0FF15
:100C30007B689B69B3F5007F10D07B689B69002BB4
:100C40000CD07B689B69B3F5802F07D040F6282035
:100C5000C0F601004FF0AA0102F08AFF7B68DB6951
:100C6000002B23D07B68DB69082B1FD07B68DB69F6
:100C7000102B1BD07B68DB69182B17D07B68DB69D6
:100C8000202B13D07B68DB69282B0FD07B68DB69B6
:100C9000302B0BD07B68DB69382B07D040F628203F
:100CA000C0F601004FF0AB0102F062FF7B681B6AE7
:100CB000002B0BD07B681B6A802B07D040F62820C6
:100CC000C0F601004FF0AC0102F052FF7B685B6A96
:100CD000002B0BD07B685B6A102B07D040F62820D6
:100CE000C0F601004FF0AD0102F042FF7B689B6A45
:100CF000002B0CD07B689B6AB3F5005F07D040F6F1
:100D00002820C0F601004FF0AE0102F031FF7B68F1
:100D1000DB6A002B05D07B68DA6A4FF6FF739A42D4
:100D200007D940F62820C0F601004FF0AF0102F0CD
:100D30001FFF7B6893F84930DBB2002B02D1786843
:100D400000F056F87B684FF0020283F849207B6878
:100D50001B687A681268126822F040021A607B6889
:100D60001B687A6851687A68926811437A68D26819
:100D700011437A68126911437A68526911437A689B
:100D8000926902F4007211437A68D26911437A6859
:100D9000126A11437A68926A0A431A607B681B6878
:100DA0007A6892694FEA124202F004017A68526A44
:100DB0000A435A607B681B687A68D26A1A617B684A
:100DC0001B687A681268D26922F40062DA617B6873
:100DD0004FF0000283F84A207B684FF0010283F84D
:100DE00049204FF00003184607F10807BD4680BDB3
:100DF00080B483B000AF786007F10C07BD4680BCBB
:100E0000704700BF80B584B000AFF860B9603B6048
:100E10001346FB80FB6893F84930DBB2012B40F0AE
:100E20004F81BB68002B02D0FB88002B02D14FF012
:100E3000010347E1FB689B68002B0CD0FB689B68B3
:100E4000B3F5004F07D040F62820C0F601004FF45C
:100E5000AE7102F08DFEFB6893F84830012B02D191
:100E60004FF002032EE1FB684FF0010283F84820A7
:100E7000FB684FF0120283F84920FB684FF0000234
:100E800083F84A20FB68BA681A63FB68FA889A8676
:100E9000FB68FA88DA86FB684FF000025A64FB6848
:100EA0004FF000021A64FB684FF000029A87FB685B
:100EB0004FF00002DA87FB689B6AB3F5005F0FD141
:100EC000FB681B68FA681268126822F400521A6004
:100ED000FB681B68FA681268126842F400521A60D4
:100EE000FB689B68B3F5004F07D1FB681B68FA6885
:100EF0001268126842F480421A60FB681B681B6823
:100F000003F04003002B07D1FB681B68FA681268E6
:100F1000126842F040021A60FB68DB68002B42D185
:100F2000FB681A68FB681B6B1978D16003F101023A
:100F3000FB681A63FB68DB8E03F1FF339AB2FB6830
:100F4000DA861EE0F8684FF002014FF000023B68BD
:100F500000F0BEF80346002B02D04FF00303B1E0CF
:100F6000FB681A68FB681B6B1978D16003F10102FA
:100F7000FB681A63FB68DB8E03F1FF339AB2FB68F0
:100F8000DA86FB68DB8E002BDCD1FB689B6AB3F54D
:100F9000005F4ED1FB681B68FA681268126842F461
:100FA00080521A6045E0FB681B68FA68126B128871
:100FB000DA60FB681B6B03F10202FB681A63FB68D3
:100FC000DB8E03F1FF339AB2FB68DA8620E0F86823
:100FD0004FF002014FF000023B6800F079F8034641
:100FE000002B02D04FF003036CE0FB681B68FA682B
:100FF000126B1288DA60FB681B6B03F10202FB685C
:101000001A63FB68DB8E03F1FF339AB2FB68DA8662
:10101000FB68DB8E002BDAD1FB689B6AB3F5005FBF
:1010200007D1FB681B68FA681268126842F48052A4
:101030001A60F8684FF002014FF000023B6800F0C0
:1010400047F80346002B0CD0FB6893F84A30DBB21C
:1010500043F02003DAB2FB6883F84A204FF0030321
:1010600030E0F8684FF080014FF001023B6800F07B
:101070002FF80346002B0CD0FB6893F84A30DBB204
:1010800043F02003DAB2FB6883F84A204FF00303F1
:1010900018E0FB689B68002B05D1FB681B68DB68C8
:1010A000FB681B689B68FB684FF0010283F84920CE
:1010B000FB684FF0000283F848204FF0000301E086
:1010C0004FF00203184607F11007BD4680BD00BF70
:1010D00080B586B000AFF860B9603B601346FB7125
:1010E0004FF000037B6102F037FD02463B68D318E6
:1010F0007B61FB79002B40F083803BE03B68B3F1E0
:10110000FF3F37D002F028FD02467B699A4231D377
:10111000FB681B68FA681268526822F0E0025A60A5
:10112000FB681B68FA681268126822F040021A60B5
:10113000FB689B6AB3F5005F0FD1FB681B68FA6818
:101140001268126822F400521A60FB681B68FA6881
:101150001268126842F400521A60FB684FF00102F4
:1011600083F84920FB684FF0000283F848204FF0D5
:10117000030351E0FB681B689B681A46BB681A4072
:10118000BB689A42BAD145E03B68B3F1FF3F38D023
:1011900002F0E2FC02467B699A4232D3FB681B688C
:1011A000FA681268526822F0E0025A60FB681B6815
:1011B000FA681268126822F040021A60FB689B6AA3
:1011C000B3F5005F0FD1FB681B68FA6812681268FC
:1011D00022F400521A60FB681B68FA6812681268F1
:1011E00042F400521A60FB684FF0010283F8492074
:1011F000FB684FF0000283F848204FF003030BE038
:1012000000BFFB681B689B681A46BB681A40BB6836
:101210009A42B9D04FF00003184607F11807BD46AF
:1012200080BD00BF80B483B000AF03463960FB715E
:1012300097F90730002B10DA4FF46D43CEF200031C
:10124000FA7902F00F02A2F104013A68D2B24FEA31
:101250000212D2B25B181A760DE04FF46143CEF25F
:10126000000397F907103A68D2B24FEA0212D2B2DD
:101270005B1883F8002307F10C07BD4680BC70475C
:1012800080B582B000AF78607B6803F1FF326FF009
:101290007F439A4202D94FF001031DE04EF2100342
:1012A000CEF200037A6802F1FF325A604FF0FF304D
:1012B0004FF00F01FFF7B6FF4EF21003CEF200031E
:1012C0004FF000029A604EF21003CEF200034FF08E
:1012D00007021A604FF00003184607F10807BD46E1
:1012E00080BD00BF90B595B000AF78604FF00003AF
:1012F000FB647B681B680F2B07D940F66820C0F69B
:1013000001004FF49D7102F033FC7B681B6803F011
:101310000103DBB2002B00F0A6807B685B68002B2A
:101320000FD07B685B68012B0BD07B685B68052B5B
:1013300007D040F66820C0F6010040F23F1102F0ED
:1013400017FC4FF46053C4F202039B6803F00C03D4
:10135000042B11D04FF46053C4F202039B6803F0D6
:101360000C03082B18D14FF46053C4F202035B68DE
:1013700003F48003002B0FD04FF46053C4F2020338
:101380001B6803F40033002B6CD07B685B68012B77
:1013900068D04FF0010358E343F60203C4F202039E
:1013A0004FF000021A7002F0D7FB034603F59C537E
:1013B00003F10803FB6408E002F0CEFB0246FB6C7D
:1013C0009A4202D34FF003033FE34FF46053C4F259
:1013D00002031B6803F40033002BEDD143F6020334
:1013E000C4F202037A685268D2B21A707B685B68F2
:1013F000012B1BD102F0B0FB034603F59C5303F114
:101400000803FB6408E002F0A7FB0246FB6C9A426B
:1014100002D34FF0030318E34FF46053C4F2020306
:101420001B6803F40033002BEDD01CE002F094FBAA
:10143000034603F59C5303F10803FB6408E002F044
:101440008BFB0246FB6C9A4202D34FF00303FCE293
:101450004FF46053C4F202031B6803F40033002B03
:10146000EDD100E000BF7B681B6803F00203002B96
:1014700000F0AE807B68DB68002B0BD07B68DB68FC
:10148000012B07D040F66820C0F6010040F27F1122
:1014900002F06EFB7B681B691F2B07D940F66820A2
:1014A000C0F601004FF4C07102F062FB4FF46053CC
:1014B000C4F202039B6803F00C03002B11D04FF41D
:1014C0006053C4F202039B6803F00C03082B18D18D
:1014D0004FF46053C4F202035B6803F48003002BF3
:1014E0000FD14FF46053C4F202031B6803F00203F0
:1014F000002B6CD07B68DB68012B68D04FF00103B8
:10150000A3E27B68DB68002B40D04FF00003C4F2FD
:1015100047234FF001021A6002F01EFB034603F15D
:101520006403FB6408E002F017FB0246FB6C9A427E
:1015300002D34FF0030388E24FF46053C4F2020376
:101540001B6803F00203002BEDD04FF46053C4F28C
:1015500002034FF46052C4F20202126822F0F80152
:101560007A6810694FF0F802BA64BA6C92FAA2F481
:101570007C647A6C3A643A6CB2FA82F4FC63FA6B7B
:10158000D2B200FA02F20A431A6021E04FF00003DF
:10159000C4F247234FF000021A6002F0DDFA03465E
:1015A00003F16403FB6408E002F0D6FA0246FB6C28
:1015B0009A4202D34FF0030347E24FF46053C4F260
:1015C00002031B6803F00203002BEDD100E000BF13
:1015D0007B681B6803F00803002B54D07B685B69B1
:1015E000002B0BD07B685B69012B07D040F668208D
:1015F000C0F601004FF4DC7102F0BAFA7B685B6957
:10160000002B20D04FF46863C4F247234FF001024F
:101610001A6002F0A1FA034603F16403FB6408E0D8
:1016200002F09AFA0246FB6C9A4202D34FF003038F
:101630000BE24FF46053C4F202035B6F03F002034A
:10164000002BEDD01FE04FF46863C4F247234FF046
:1016500000021A6002F080FA034603F16403FB649F
:1016600008E002F079FA0246FB6C9A4202D34FF08E
:101670000303EAE14FF46053C4F202035B6F03F02B
:101680000203002BEDD17B681B6803F00403002BE1
:1016900000F0AA807B689B68002B0FD07B689B685A
:1016A000012B0BD07B689B68052B07D040F6682088
:1016B000C0F601004FF4F17102F05AFA4FF4605392
:1016C000C4F202034FF46052C4F20202126C42F000
:1016D00080521A644FF4E043C4F200034FF4E04236
:1016E000C4F20002126842F480721A6002F034FA06
:1016F000034603F16403FB6408E002F02DFA02469E
:10170000FB6C9A4202D34FF003039EE14FF4E04397
:10171000C4F200031B6803F48073002BEDD043F682
:101720007003C4F202034FF000021A7002F014FAC0
:10173000034603F59C5303F10803FB6408E002F041
:101740000BFA0246FB6C9A4202D34FF003037CE192
:101750004FF46053C4F202031B6F03F00203002B2B
:10176000EDD143F67003C4F202037A689268D2B2F4
:101770001A707B689B68012B1BD102F0EDF90346C0
:1017800003F59C5303F10803FB6408E002F0E4F95D
:101790000246FB6C9A4202D34FF0030355E14FF42B
:1017A0006053C4F202031B6F03F00203002BEDD061
:1017B0001AE002F0D1F9034603F59C5303F1080344
:1017C000FB6408E002F0C8F90246FB6C9A4202D3BF
:1017D0004FF0030339E14FF46053C4F202031B6F6F
:1017E00003F00203002BEDD17B689B69002B0FD027
:1017F0007B689B69012B0BD07B689B69022B07D010
:1018000040F66820C0F6010040F2262102F0B0F94F
:101810007B689B69002B00F016814FF46053C4F283
:1018200002039B6803F00C03082B00F009817B681E
:101830009B69022B40F0E3807B68DB69002B0CD0B6
:101840007B68DB69B3F5800F07D040F66820C0F6EF
:10185000010040F22F2102F08BF97B681B6A3F2BBD
:1018600007D940F66820C0F601004FF40C7102F071
:101870007FF97B685B6ABF2B04D97B685B6AB3F531
:10188000D87F07D940F66820C0F6010040F2312128
:1018900002F06EF97B689B6A022B13D07B689B6A0F
:1018A000042B0FD07B689B6A062B0BD07B689B6A4E
:1018B000082B07D040F66820C0F6010040F2322124
:1018C00002F056F97B68DB6A032B03D97B68DB6A7D
:1018D0000F2B07D940F66820C0F6010040F23321F3
:1018E00002F046F94FF06003C4F247234FF00002C4
:1018F0001A6002F031F9034603F16403FB6408E067
:1019000002F02AF90246FB6C9A4202D34FF003031D
:101910009BE04FF46053C4F202031B6803F00073B2
:10192000002BEDD14FF46053C4F202037A68116AC0
:101930007A68506A47F6C072BA63BA6B92FAA2F438
:101940007C637A6B3A633A6BB2FA82F4FC62FA6AAD
:10195000D2B200FA02F211437A68926A4FEA520256
:1019600002F1FF304FF44032BA62BA6A92FAA2F43E
:101970007C627A6A3A623A6AB2FA82F4FC61FA6983
:10198000D2B200FA02F211437A68D26911437A683E
:10199000D06A4FF07062BA61BA6992FAA2F47C61BF
:1019A0007A693A613A69B2FA82F4FC60FA68D2B2B2
:1019B00000FA02F20A4342F000525A604FF060030C
:1019C000C4F247234FF001021A6002F0C5F8034643
:1019D00003F16403FB6408E002F0BEF80246FB6C0E
:1019E0009A4202D34FF003032FE04FF46053C4F246
:1019F00002031B6803F00073002BEDD023E04FF0CF
:101A00006003C4F247234FF000021A6002F0A4F80A
:101A1000034603F16403FB6408E002F09DF802460C
:101A2000FB6C9A4202D34FF003030EE04FF4605375
:101A3000C4F202031B6803F00073002BEDD102E037
:101A40004FF0010301E04FF00003184607F154077F
:101A5000BD4690BD80B584B000AF786039604FF06E
:101A60000003FB607B681B68002B03D07B681B684E
:101A70000F2B07D940F66820C0F6010040F29621EE
:101A800002F076F83B68002B34D03B68012B31D054
:101A90003B68022B2ED03B68032B2BD03B68042BDA
:101AA00028D03B68052B25D03B68062B22D03B680D
:101AB000072B1FD03B68082B1CD03B68092B19D083
:101AC0003B680A2B16D03B680B2B13D03B680C2BC2
:101AD00010D03B680D2B0DD03B680E2B0AD03B6815
:101AE0000F2B07D040F66820C0F6010040F2972186
:101AF00002F03EF84FF47053C4F202031B6803F087
:101B00000F023B689A4280F0B7804FF47053C4F2E2
:101B100002033A68D2B21A704FF47053C4F202034F
:101B20001B6803F00F023B689A4202D04FF001039A
:101B300015E27B681B6803F00103DBB2002B00F0A9
:101B400051817B685B68002B0FD07B685B68012B41
:101B50000BD07B685B68022B07D040F66820C0F68C
:101B6000010040F2AD2102F003F87B685B68012BB5
:101B70000BD14FF46053C4F202031B6803F400332B
:101B8000002B1ED14FF00103E9E17B685B68022B5B
:101B90000BD14FF46053C4F202031B6803F00073CF
:101BA000002B0ED14FF00103D9E14FF46053C4F282
:101BB00002031B6803F00203002B02D14FF0010364
:101BC000CDE14FF46053C4F202034FF46052C4F20B
:101BD0000202926822F003017A6852680A439A600E
:101BE00001F0BAFF034603F59C5303F10803FB60C1
:101BF0007B685B68012B13D108E001F0ADFF024662
:101C0000FB689A4202D34FF00303A8E14FF46053FC
:101C1000C4F202039B6803F00C03042BEDD1E1E056
:101C20007B685B68022B1CD108E001F095FF02463F
:101C3000FB689A4202D34FF0030390E14FF46053E4
:101C4000C4F202039B6803F00C03082BEDD1C9E03A
:101C500001F082FF0246FB689A4203D34FF0030370
:101C60007DE100BF4FF46053C4F202039B6803F0B0
:101C70000C03002BECD1B5E07B681B6803F001037B
:101C8000DBB2002B00F09A807B685B68002B0FD0E2
:101C90007B685B68012B0BD07B685B68022B07D0ED
:101CA00040F66820C0F6010040F2F52101F060FF27
:101CB0007B685B68012B0BD14FF46053C4F20203C5
:101CC0001B6803F40033002B1ED14FF0010346E1E3
:101CD0007B685B68022B0BD14FF46053C4F20203A4
:101CE0001B6803F00073002B0ED14FF0010336E1A7
:101CF0004FF46053C4F202031B6803F00203002B8D
:101D000002D14FF001032AE14FF46053C4F2020301
:101D10004FF46052C4F20202926822F003017A6822
:101D200052680A439A6001F017FF034603F59C537B
:101D300003F10803FB607B685B68012B13D108E0AB
:101D400001F00AFF0246FB689A4202D34FF00303F8
:101D500005E14FF46053C4F202039B6803F00C03E7
:101D6000042BEDD12AE07B685B68022B1CD108E0D4
:101D700001F0F2FE0246FB689A4202D34FF00303E1
:101D8000EDE04FF46053C4F202039B6803F00C03D0
:101D9000082BEDD112E001F0DFFE0246FB689A420B
:101DA00003D34FF00303DAE000BF4FF46053C4F2F3
:101DB00002039B6803F00C03002BECD14FF470532B
:101DC000C4F202033A68D2B21A704FF47053C4F2EC
:101DD00002031B6803F00F023B689A4202D04FF0E7
:101DE0000103BCE07B681B6803F00203002B3AD0C0
:101DF0007B689B68002B27D07B689B68802B23D057
:101E00007B689B68902B1FD07B689B68A02B1BD0A6
:101E10007B689B68B02B17D07B689B68C02B13D066
:101E20007B689B68D02B0FD07B689B68E02B0BD026
:101E30007B689B68F02B07D040F66820C0F6010055
:101E400040F2453101F094FE4FF46053C4F20203B6
:101E50004FF46052C4F20202926822F0F0017A68F4
:101E600092680A439A607B681B6803F00403002BA6
:101E70002ED07B68DB68002B1BD07B68DB68B3F55A
:101E8000805F16D07B68DB68B3F5A05F11D07B68FC
:101E9000DB68B3F5C05F0CD07B68DB68B3F5E05F4F
:101EA00007D040F66820C0F601004FF4537101F0EE
:101EB0005FFE4FF46053C4F202034FF46052C4F269
:101EC0000202926822F4E0517A68D2680A439A606A
:101ED0007B681B6803F00803002B30D07B681B690C
:101EE000002B1BD07B681B69B3F5805F16D07B6825
:101EF0001B69B3F5A05F11D07B681B69B3F5C05FA8
:101F00000CD07B681B69B3F5E05F07D040F6682012
:101F1000C0F6010040F2533101F02AFE4FF4605345
:101F2000C4F202034FF46052C4F20202926822F437
:101F300060417A6812694FEAC2020A439A6000F06F
:101F4000D7F8024644F6D353C1F26203A3FB02134F
:101F50004FEA93131846FFF793F94FF00003184622
:101F600007F11007BD4680BD90B494B000AF4FF0AC
:101F700000037B644FF00003FB644FF000033B64FD
:101F80004FF00003BB644FF46053C4F202039B683C
:101F900003F00C03042B0AD0082B0ED0002B40F0CA
:101FA0009A804FF41053C0F2F403BB6499E04FF4ED
:101FB0005853C0F26E13BB6493E04FF46053C4F205
:101FC00002035B6803F03F037B644FF46053C4F289
:101FD00002035B6803F480024FF48003FB63FB6B36
:101FE00093FAA3F4BC63BB6B7B637B6BB3FA83F4A0
:101FF0003C633B6BDBB222FA03F3002B24D04FF49B
:102000005853C0F26E137A6CB3FBF2F24FF4605384
:10201000C4F202035B68194647F6C0730B4047F6EB
:10202000C071F962F96A91FAA1F4BC62B96A796285
:10203000796AB1FA81F43C62396AC9B223FA01F3D0
:1020400003FB02F3FB6423E04FF41053C0F2F403EC
:102050007A6CB3FBF2F24FF46053C4F202035B6894
:10206000194647F6C0730B4047F6C071F961F9692C
:1020700091FAA1F4BC61B96979617969B1FA81F425
:102080003C613969C9B223FA01F303FB02F3FB6433
:102090004FF46053C4F202035B6803F440324FF420
:1020A0004033FB60FB6893FAA3F4BC60BB687B60C1
:1020B0007B68B3FA83F43C603B68DBB222FA03F33B
:1020C00003F101034FEA43033B64FA6C3B6CB2FB40
:1020D000F3F3BB6405E04FF41053C0F2F403BB64A8
:1020E00000BFBB6C184607F15007BD4690BC704757
:1020F00090B585B000AFFFF737FF02464FF460534D
:10210000C4F202039B6803F0F0014FF0F003FB60A0
:10211000FB6893FAA3F4BC60BB687B607B68B3FA8E
:1021200083F43C603B68DBB221FA03F140F65823AC
:10213000C0F601035B5C22FA03F240F20C03C2F228
:1021400000031A6040F20C03C2F200031B68184639
:1021500007F11407BD4690BD90B587B000AF786019
:1021600039604FF000033B614FF00003FB604FF01C
:102170000003BB603B681B68002B07D140F698202A
:10218000C0F601004FF0C30101F0F2FC3B685B6850
:10219000002B4BD03B685B68012B47D03B685B68EA
:1021A000112B43D03B685B68022B3FD03B685B68D8
:1021B000122B3BD03B685A684FF00003C1F2110369
:1021C0009A4233D03B685A684FF00003C1F22103B2
:1021D0009A422BD03B685A684FF00003C1F231039A
:1021E0009A4223D03B685A684FF00003C1F21203B1
:1021F0009A421BD03B685A684FF00003C1F2220399
:102200009A4213D03B685A684FF00003C1F2320380
:102210009A420BD03B685B68032B07D040F69820AE
:10222000C0F601004FF0C40101F0A2FC3B689B68BE
:10223000002B0FD03B689B68012B0BD03B689B6841
:10224000022B07D040F69820C0F601004FF0C501E0
:1022500001F08EFC4FF000037B61F5E27B694FF0EB
:10226000010202FA03F33B613B681A683B691340C1
:10227000FB60FA683B699A4240F0E2823B685B6827
:10228000022B04D03B685B68122B40F0FA803B685D
:102290001B69002B00F0BB803B681B69092B00F019
:1022A000B6803B681B69002B00F0B1803B681B695E
:1022B000002B00F0AC803B681B69002B00F0A7806E
:1022C0003B681B69002B00F0A2803B681B69012B57
:1022D00000F09D803B681B69012B00F098803B68F3
:1022E0001B69022B00F093803B681B69022B00F0F6
:1022F0008E803B681B69022B00F089803B681B695C
:10230000032B00F084803B681B69042B7FD03B6863
:102310001B69042B7BD03B681B69042B77D03B687F
:102320001B69052B73D03B681B69052B6FD03B687D
:102330001B69092B6BD03B681B69062B67D03B6878
:102340001B69092B63D03B681B69072B5FD03B6877
:102350001B69072B5BD03B681B69072B57D03B6879
:102360001B69082B53D03B681B69082B4FD03B6877
:102370001B69082B4BD03B681B69092B47D03B6876
:102380001B69092B43D03B681B690A2B3FD03B6874
:102390001B690A2B3BD03B681B690B2B37D03B6872
:1023A0001B690C2B33D03B681B690C2B2FD03B686F
:1023B0001B690D2B2BD03B681B690F2B27D03B686B
:1023C0001B69052B23D03B681B69052B1FD03B687D
:1023D0001B69052B1BD03B681B69082B17D03B687A
:1023E0001B69082B13D03B681B690C2B0FD03B6873
:1023F0001B69062B0BD03B681B690E2B07D040F6E0
:102400009820C0F601004FF0D60101F0B1FB3B6807
:102410001A697B6903F007034FEA830302FA03F3A7
:10242000BB607B694FEAD3027B694FEAD3017B68CB
:1024300001F1080153F8213019467B6903F00703C5
:102440004FEA83034FF00F0000FA03F36FEA030330
:1024500019407B6802F1080243F822107B694FEAB9
:10246000D3027B694FEAD3017B6801F1080153F87D
:1024700021301946BB6819437B6802F1080243F812
:1024800022107B681B681A467B694FEA43034FF0B2
:10249000030101FA03F36FEA03031A407B681A6031
:1024A0007B681B681A463B685B6803F003017B6925
:1024B0004FEA430301FA03F31A437B681A603B684F
:1024C0005B68012B0BD03B685B68022B07D03B6835
:1024D0005B68112B03D03B685B68122B4FD13B68C4
:1024E000DB68002B13D03B68DB68012B0FD03B6807
:1024F000DB68022B0BD03B68DB68032B07D040F670
:102500009820C0F601004FF0E60101F031FB7B6836
:102510009B681A467B694FEA43034FF0030101FAB7
:1025200003F36FEA03031A407B689A607B689B6839
:102530001A463B68D9687B694FEA430301FA03F303
:102540001A437B689A607B685B681A467B694FF028
:10255000010101FA03F36FEA03031A407B685A6032
:102560007B685B681A463B685B6803F010034FEAC0
:1025700013117B6901FA03F31A437B685A607B6885
:10258000DB681A467B694FEA43034FF0030101FA07
:1025900003F36FEA03031A407B68DA607B68DB6849
:1025A0001A463B6899687B694FEA430301FA03F3D3
:1025B0001A437B68DA603B685B6803F08053002B4A
:1025C00000F03E814FF46053C4F202034FF46052B6
:1025D000C4F20202526C42F480425A647B6903F0F6
:1025E00003034FEA83034FF00F0202FA03F3BB60C9
:1025F0004FF46053C4F201037A694FEA92004FF43A
:102600006052C4F2010279694FEA910101F10201BD
:1026100052F821201146BA686FEA0202114000F117
:10262000020243F822104FF46053C4F201037A69A6
:102630004FEA92004FF46052C4F2010279694FEA06
:10264000910101F1020152F8212011467C684FF0FE
:102650000002C4F2020294425CD07C684FF48062B3
:10266000C4F20202944252D07C684FF40062C4F279
:102670000202944248D07C684FF44062C4F20202E5
:1026800094423ED07C684FF48052C4F202029442DD
:1026900034D07C684FF4A052C4F2020294422AD093
:1026A0007C684FF4C052C4F20202944220D07C688D
:1026B0004FF4E052C4F20202944216D07C684FF408
:1026C0000052C4F2020294420CD07C684FF41052C3
:1026D000C4F20202944202D14FF0090201E04FF02D
:1026E0000A0201E04FF0080201E04FF0070201E0AA
:1026F0004FF0060201E04FF0050201E04FF0040246
:1027000001E04FF0030201E04FF0020201E04FF060
:10271000010201E04FF000027C6904F003044FEA7B
:10272000840402FA04F2114300F1020243F8221079
:102730004FF47053C4F201034FF47052C4F201021B
:1027400012681146FA686FEA02020A401A604FF4F2
:102750007053C4F201034FF47052C4F20102526884
:102760001146FA686FEA02020A405A603B685B68E9
:1027700003F48033002B0CD04FF47053C4F20103E8
:102780004FF47052C4F2010212681146FA680A430B
:102790001A603B685B6803F40033002B0CD04FF4E5
:1027A0007053C4F201034FF47052C4F20102526834
:1027B0001146FA680A435A604FF47053C4F2010399
:1027C0004FF47052C4F2010292681146FA686FEA3F
:1027D00002020A409A604FF47053C4F201034FF4AE
:1027E0007052C4F20102D2681146FA686FEA02021E
:1027F0000A40DA603B685B6803F48013002B0CD05E
:102800004FF47053C4F201034FF47052C4F201024A
:1028100092681146FA680A439A603B685B6803F461
:102820000013002B0CD04FF47053C4F201034FF48B
:102830007052C4F20102D2681146FA680A43DA60A3
:102840007B6903F101037B617B690F2B7FF606AD8A
:1028500007F11C07BD4690BD80B584B000AF78601D
:102860000B467B807B88012B3CD07B88022B39D0A8
:102870007B88042B36D07B88082B33D07B88102BA9
:1028800030D07B88202B2DD07B88402B2AD07B8892
:10289000802B27D07B88B3F5807F23D07B88B3F54E
:1028A000007F1FD07B88B3F5806F1BD07B88B3F58A
:1028B000006F17D07B88B3F5805F13D07B88B3F5AA
:1028C000005F0FD07B88B3F5804F0BD07B88B3F5CA
:1028D000004F07D040F69820C0F6010040F2751175
:1028E00001F046F97B681B691A467B881340002B70
:1028F00003D04FF00103FB7302E04FF00003FB73C2
:10290000FB7B184607F11007BD4680BD80B582B03D
:1029100000AF786013460A467A807B707B88012B73
:102920003CD07B88022B39D07B88042B36D07B8827
:10293000082B33D07B88102B30D07B88202B2DD0D8
:102940007B88402B2AD07B88802B27D07B88B3F5CF
:10295000807F23D07B88B3F5007F1FD07B88B3F5C1
:10296000806F1BD07B88B3F5006F17D07B88B3F5E1
:10297000805F13D07B88B3F5005F0FD07B88B3F501
:10298000804F0BD07B88B3F5004F07D040F69820DE
:10299000C0F601004FF4CB7101F0EAF87B78002B10
:1029A0000AD07B78012B07D040F69820C0F60100B2
:1029B00040F2971101F0DCF87B78002B03D07B68A4
:1029C0007A881A8302E07B687A885A8307F10807BD
:1029D000BD4680BD80B582B000AF78607B68002BBB
:1029E00002D14FF0010325E07B681A684FF4E843F9
:1029F000C4F200039A4207D040F6C820C0F6010096
:102A00004FF0E80101F0B4F87B681B79DBB2002BD2
:102A100002D1786800F014F87B684FF002021A7156
:102A20007B684FF000021A617B684FF001021A7157
:102A30004FF00003184607F10807BD4680BD00BFF0
:102A400080B483B000AF786007F10C07BD4680BC4E
:102A5000704700BF80B584B000AF786039604FF038
:102A60000003FB604FF00003BB603B68002B0AD003
:102A70003B68102B07D040F6C820C0F6010040F29A
:102A80006B1101F075F87B685B79012B02D14FF077
:102A9000020358E07B684FF001025A717B684FF0E7
:102AA00002021A717B681B687A6812681268114604
:102AB0003A684FF0010000FA02F20A431A603B68DC
:102AC000002B1AD17B681B681B6803F00403FB60B2
:102AD0007B681B681B6803F03803BB60FB68042B32
:102AE00027D1BB68382B24D17B681B687A681268B1
:102AF000526842F001025A601BE07B681B681B6849
:102B000003F48023FB607B681B681B6803F460137D
:102B1000BB60FB68B3F5802F0BD1BB68B3F5601FBA
:102B200007D17B681B687A681268526842F002021B
:102B30005A607B684FF001021A717B684FF0000207
:102B40005A714FF00003184607F11007BD4680BDCB
:102B500080B586B000AFF860B9607A604FF00003CE
:102B60007B614FF000033B61BB681B68002B27D0E3
:102B7000BB681B68242B23D0BB681B680C2B1FD0A1
:102B8000BB681B68142B1BD0BB681B681C2B17D0A1
:102B9000BB681B68042B13D0BB681B682C2B0FD0A1
:102BA000BB681B68342B0BD0BB681B683C2B07D061
:102BB00040F6C820C0F6010040F2F32100F0D8FF33
:102BC000BB685B68002B0BD0BB685B68022B07D02F
:102BD00040F6C820C0F601004FF43D7100F0C8FF78
:102BE000BB681B68002B27D0BB681B68242B23D035
:102BF000BB681B680C2B1FD0BB681B68142B1BD039
:102C0000BB681B681C2B17D0BB681B68042B13D038
:102C1000BB681B682C2B0FD0BB681B68342B0BD0F8
:102C2000BB681B683C2B07D040F6C820C0F60100EB
:102C300040F2F52100F09CFF7B68002B0AD07B68F6
:102C4000102B07D040F6C820C0F6010040F2F62154
:102C500000F08EFFFB685B79012B02D14FF002037D
:102C600047E0FB684FF001025A71FB684FF0020227
:102C70001A714FF4E843C4F200031B687B617B6860
:102C800040F6FE7202FA03F36FEA03037A69134017
:102C90007B61BB681A68BB685B6813433B617B68F8
:102CA0003A6902FA03F37A6913437B614FF4E8430C
:102CB000C4F200037A691A604FF4E843C4F20003D7
:102CC0004FF4E842C4F20002126811467A684FF0ED
:102CD000C00000FA02F26FEA02020A401A60FB68C2
:102CE0004FF001021A71FB684FF000025A714FF069
:102CF0000003184607F11807BD4680BD80B586B0B1
:102D000000AFF860B9607A603B604FF000037B6110
:102D1000BB68002B0AD0BB68102B07D040F6C82038
:102D2000C0F601004FF44B7100F022FF7B68002BCE
:102D30000DD07B68042B0AD07B68082B07D040F6A7
:102D4000C820C0F6010040F22D3100F011FF3A68B2
:102D50004FF6F0739A4207D940F6C820C0F601003A
:102D600040F22E3100F004FFFB681B687B61BB68FA
:102D7000002B06D17A697B68D31803F108037B61C5
:102D800005E07A697B68D31803F114037B617B69E2
:102D90003A681A604FF00003184607F11807BD465D
:102DA00080BD00BF80B485B000AF78607B6803F061
:102DB0000703FB604FF46D43CEF20003DB68BB609A
:102DC000BA684FF6FF031340BB60FB684FEA03226B
:102DD000BB68134343F0BE6343F42023BB604FF44E
:102DE0006D43CEF20003BA68DA6007F11407BD46FE
:102DF00080BC704780B400AF4FF46D43CEF2000347
:102E0000DB6803F4E0634FEA13231846BD4680BC39
:102E1000704700BF80B483B000AF0346FB714FF42E
:102E20006143CEF2000397F907204FEA5212F97975
:102E300001F01F014FF0010000FA01F143F82210E8
:102E400007F10C07BD4680BC704700BF80B483B05B
:102E500000AF03463960FB7197F90730002B10DA99
:102E60004FF46D43CEF20003FA7902F00F02A2F1A3
:102E700004013A68D2B24FEA0212D2B25B181A7653
:102E80000DE04FF46143CEF2000397F907103A6862
:102E9000D2B24FEA0212D2B25B1883F8002307F1D4
:102EA0000C07BD4680BC704780B489B000AFF860A5
:102EB000B9607A60FB6803F00703FB61FB69C3F14B
:102EC0000703042B28BF0423BB61FB6903F1040340
:102ED000062B03D9FB69A3F1030301E04FF00003C4
:102EE0007B61BB694FF0010202FA03F303F1FF3388
:102EF0001A46BB681A407B6902FA03F27B694FF0FD
:102F0000010101FA03F303F1FF3319467B680B401B
:102F10001343184607F12407BD4680BC704700BF25
:102F200080B582B000AF78607B6803F1FF326FF04C
:102F30007F439A4202D94FF001031DE04EF2100385
:102F4000CEF200037A6802F1FF325A604FF0FF3090
:102F50004FF00F01FFF77AFF4EF21003CEF200039D
:102F60004FF000029A604EF21003CEF200034FF0D1
:102F700007021A604FF00003184607F10807BD4624
:102F800080BD00BF80B582B000AF78607B68072B42
:102F900013D07B68062B10D07B68052B0DD07B6887
:102FA000042B0AD07B68032B07D040F6F820C0F62C
:102FB00001004FF0BA0100F0DBFD7868FFF7F2FE88
:102FC00007F10807BD4680BD80B586B000AF034657
:102FD000B9607A60FB734FF000037B617B680F2B55
:102FE00007D940F6F820C0F601004FF0D20100F0FA
:102FF000BFFDBB680F2B07D940F6F820C0F60100D3
:103000004FF0D30100F0B4FDFFF7F4FE03467B61FF
:103010007869B9687A68FFF747FF034697F90F2088
:1030200010461946FFF712FF07F11807BD4680BD8D
:1030300080B582B000AF0346FB7197F907301846A0
:10304000FFF7E8FE07F10807BD4680BD80B582B0F6
:1030500000AF78607868FFF763FF0346184607F112
:103060000807BD4680BD00BF80B582B000AF786064
:103070007B68002B02D14FF001035DE17B681A6889
:103080004FF40053C4F201039A4217D07B681A68C8
:103090004FF40453C4F201039A420FD07B681A68BC
:1030A0004FF40853C4F201039A4207D040F62C3083
:1030B000C0F601004FF0D70100F05AFD7B685B6855
:1030C000002B16D07B685B68B3F5803F11D07B681E
:1030D0005B68B3F5003F0CD07B685B68B3F5403F9D
:1030E00007D040F62C30C0F601004FF0D80100F0B8
:1030F0003FFD7B689B68002B16D07B689B68B3F113
:10310000807F11D07B689B68B3F1007F0CD07B6817
:103110009B68B3F1407F07D040F62C30C0F6010029
:103120004FF0D90100F024FD7B681B69002B0BD008
:103130007B681B69012B07D040F62C30C0F60100DC
:103140004FF0DA0100F014FD7B689B69002B0BD077
:103150007B689B69012B07D040F62C30C0F601003C
:103160004FF0DB0100F004FD7B68DB6A002B16D01A
:103170007B68DB6AB3F1805F11D07B68DB6AB3F1F7
:10318000005F0CD07B68DB6AB3F1405F07D040F68C
:103190002C30C0F601004FF0DC0100F0E9FC7B6848
:1031A0001B6B002B52D07B681B6BB3F1807F4DD023
:1031B0007B681B6BB3F1007F48D07B681B6BB3F15E
:1031C000407F43D07B681B6BB3F1806F3ED07B6840
:1031D0001B6BB3F1A06F39D07B681B6BB3F1C06F71
:1031E00034D07B681B6BB3F1E06F2FD07B681B6B17
:1031F000B3F1006F2AD07B681B6BB3F1106F25D041
:103200007B681B6BB3F1206F20D07B681B6BB3F125
:10321000306F1BD07B681B6BB3F1406F16D07B689F
:103220001B6BB3F1506F11D07B681B6BB3F1606FF8
:103230000CD07B681B6BB3F1706F07D040F62C305D
:10324000C0F601004FF0DD0100F092FC7B68DB6806
:10325000002B0CD07B68DB68B3F5006F07D040F61D
:103260002C30C0F601004FF0DE0100F081FC7B68DD
:103270001B6A002B03D07B681B6A102B07D940F612
:103280002C30C0F601004FF0DF0100F071FC7B68CC
:10329000DB69002B0BD07B68DB69012B07D040F684
:1032A0002C30C0F601004FF0E00100F061FC7B68BB
:1032B0005B69012B0FD07B685B69002B0BD07B68AF
:1032C0005B69022B07D040F62C30C0F601004FF0AE
:1032D000E10100F04DFC7B685B6A002B0BD07B6842
:1032E0005B6A012B07D040F62C30C0F601004FF08E
:1032F000E20100F03DFC7B6893F83D30DBB2002B2F
:1033000002D1786800F01EF87B684FF0020283F863
:103310003D20786800F0DAFA7B684FF000021A640A
:103320007B684FF0010283F83D207B684FF000027C
:1033300083F83C204FF00003184607F10807BD460C
:1033400080BD00BF80B483B000AF786007F10C0788
:10335000BD4680BC704700BF80B584B000AF7860C8
:103360004FF00003FB817B689B69002B0BD07B68CF
:103370009B69012B07D040F62C30C0F601004FF4BA
:10338000B37100F0F5FB7B68DB6A002B16D07B681D
:10339000DB6AB3F1805F11D07B68DB6AB3F1005F59
:1033A0000CD07B68DB6AB3F1405F07D040F62C306D
:1033B000C0F6010040F2671100F0DAFB7B6893F879
:1033C0003C30012B02D14FF002035FE07B684FF0ED
:1033D000010283F83C207B6893F83D30DBB2222B5E
:1033E00005D17B684FF0320283F83D2004E07B6812
:1033F0004FF0120283F83D207B681B689B6803F046
:103400000103002B11D17B681B687A6812689268EF
:1034100042F001029A6004E000BFFB8903F101035E
:10342000FB81FB89B3F5077FF6D94FF40C53C4F247
:1034300001035B6803F01F03002B0CD17B68DB6A80
:10344000002B1CD17B681B687A681268926842F076
:1034500080429A6013E07B681A684FF40053C4F20C
:1034600001039A420BD17B68DB6A002B07D17B6892
:103470001B687A681268926842F080429A607B68A2
:103480004FF0000283F83C204FF00003184607F18C
:103490001007BD4680BD00BF80B584B000AF786026
:1034A000396000F059FB02463B68D318FB6016E018
:1034B0003B68B3F1FF3F12D000F04EFB0246FB68C1
:1034C0009A420CD37B684FF0030283F83D207B685F
:1034D0004FF0000283F83C204FF0030319E07B68B3
:1034E0001B681B6803F00203002BE1D07B6893F894
:1034F0003D30DBB2252B05D17B684FF0350283F8D8
:103500003D2004E07B684FF0150283F83D204FF02A
:103510000003184607F11007BD4680BD80B483B094
:1035200000AF78607B681B68DB6C184607F10C07FE
:10353000BD4680BC704700BF90B583B000AF7860D7
:1035400039603B681B68002B4FD03B681B68012B20
:103550004BD03B681B68022B47D03B681B68032B92
:1035600043D03B681B68042B3FD03B681B68052B8E
:103570003BD03B681B68062B37D03B681B68072B8A
:1035800033D03B681B68082B2FD03B681B68092B86
:103590002BD03B681B680A2B27D03B681B680B2B82
:1035A00023D03B681B680C2B1FD03B681B680D2B7E
:1035B0001BD03B681B680E2B17D03B681B680F2B7A
:1035C00013D03B681B68102B0FD03B681B68112B76
:1035D0000BD03B681B68122B07D040F62C30C0F68E
:1035E000010040F2DE3100F0C3FA3B685B68002B5B
:1035F00003D03B685B68102B07D940F62C30C0F62F
:10360000010040F2DF3100F0B3FA3B689B68002B09
:1036100023D03B689B68012B1FD03B689B68022B23
:103620001BD03B689B68032B17D03B689B68042B1F
:1036300013D03B689B68052B0FD03B689B68062B1B
:103640000BD03B689B68072B07D040F62C30C0F6A8
:1036500001004FF4787100F08BFA7B6893F83C30EE
:10366000012B02D14FF002031CE17B684FF00102F5
:1036700083F83C203B681B68092B2AD97B681968B2
:103680007B681B68DB6818463B681A6813464FEA7C
:1036900043039B18A3F11E034FF0070202FA03F342
:1036A0006FEA03030340CB607B6819687B681B6883
:1036B000DB6818463B689C683B681A6813464FEA0B
:1036C00043039B18A3F11E0304FA03F30343CB60E7
:1036D00025E07B6819687B681B681B6918463B6896
:1036E0001A6813464FEA43039B184FF0070202FA89
:1036F00003F36FEA030303400B617B6819687B687F
:103700001B681B6918463B689C683B681A6813462F
:103710004FEA43039B1804FA03F303430B613B682E
:103720005B68062B2AD87B6819687B681B685B6B13
:1037300018463B685A6813464FEA83039B18A3F167
:1037400005034FF01F0202FA03F36FEA030303407D
:103750004B637B6819687B681B685B6B18463B682A
:103760001C683B685A6813464FEA83039B18A3F111
:10377000050304FA03F303434B6358E03B685B68BB
:103780000C2B2AD87B6819687B681B681B6B184652
:103790003B685A6813464FEA83039B18A3F123033F
:1037A0004FF01F0202FA03F36FEA030303400B63B7
:1037B0007B6819687B681B681B6B18463B681C6834
:1037C0003B685A6813464FEA83039B18A3F123030F
:1037D00004FA03F303430B6329E07B6819687B68F1
:1037E0001B68DB6A18463B685A6813464FEA830336
:1037F0009B18A3F141034FF01F0202FA03F36FEA93
:1038000003030340CB627B6819687B681B68DB6A33
:1038100018463B681C683B685A6813464FEA8303A6
:103820009B18A3F1410304FA03F30343CB627B68C3
:103830001A684FF40053C4F201039A420FD13B6857
:103840001B68122B0BD14FF40C53C4F201034FF43D
:103850000C52C4F20102526842F480025A607B6842
:103860001A684FF40053C4F201039A4213D13B6823
:103870001B68102B03D03B681B68112B0BD14FF436
:103880000C53C4F201034FF40C52C4F2010252680B
:1038900042F400025A607B684FF0000283F83C203B
:1038A0004FF00003184607F10C07BD4690BD00BF5E
:1038B00080B483B000AF78607B6893F83D30DBB2B2
:1038C000184607F10C07BD4680BC704780B582B032
:1038D00000AF78604FF40C53C4F201034FF40C5264
:1038E000C4F20102526822F440325A604FF40C5381
:1038F000C4F201034FF40C52C4F2010252681146A3
:103900007A6852680A435A607B681B687A68126852
:10391000526822F480725A607B681B687A68126869
:10392000526811467A6812694FEA02220A435A60C5
:103930007B681B687A681268526822F040725A608D
:103940007B681B687A681268526811467A689268C8
:103950000A435A607B681B687A681268926822F48E
:1039600000629A607B681B687A68126892681146E8
:103970007A68D2680A439A607B681B687A68126822
:10398000926822F070629A607B681B687A6812689D
:10399000926811467A68126B0A439A607B681B68CA
:1039A0007A681268926822F040529A607B681B68BD
:1039B0007A681268926811467A68D26A0A439A60F5
:1039C0007B681B687A681268926822F002029A602B
:1039D0007B681B687A681268926811467A689269F7
:1039E0004FEA42020A439A607B685B6A002B2ED042
:1039F0007B689B6A002B03D07B689B6A082B07D9E6
:103A000040F62C30C0F601004FF4986100F0B0F899
:103A10007B681B687A681268526842F400625A60D8
:103A20007B681B687A681268526822F460425A60A8
:103A30007B681B687A681268526811467A68926AD5
:103A400002F1FF324FEA42320A435A6007E07B68D4
:103A50001B687A681268526822F400625A607B68B8
:103A60001B687A681268D26A22F47002DA627B6894
:103A70001B687A681268D26A11467A68126A02F183
:103A8000FF324FEA02520A43DA627B681B687A68A7
:103A90001268926822F400729A607B681B687A68E8
:103AA0001268926811467A68D2694FEA42220A4344
:103AB0009A607B681B687A681268926822F4806258
:103AC0009A607B681B687A681268926811467A6807
:103AD00052694FEA82220A439A6007F10807BD46FD
:103AE00080BD00BF80B500AF4FF47053C4F2020335
:103AF0004FF47052C4F20202126842F400721A606B
:103B00004FF47053C4F202034FF47052C4F2020235
:103B1000126842F480621A604FF47053C4F20203D8
:103B20004FF47052C4F20202126842F480721A60BA
:103B30004FF47A50FFF78AFA4FF00300FFF722FAAA
:103B400000F004F84FF00003184680BD80B400AFC9
:103B5000BD4680BC704700BF80B400AF40F6CC03C8
:103B6000C2F200031B681846BD4680BC704700BF08
:103B700080B584B000AF7860396040F6A033C0F6FD
:103B80000103FB6000F062F880B483B000AF78609E
:103B900039607B684FF001021A603A6840F2040312
:103BA000C2F20003136007F10C07BD4680BC7047EA
:103BB00080B584B000AF786040F6D403C2F2000351
:103BC0001B68002B08D140F6D403C2F2000344F670
:103BD0005012C2F200021A6040F6D403C2F200038F
:103BE0001B68FB607B6803F1030323F003037B6026
:103BF00040F6D403C2F200031A687B68D2184FF66D
:103C00000043C2F201039A4208D909F099F9034628
:103C10004FF00C021A604FF0FF330CE040F6D40373
:103C2000C2F200031A687B68D21840F6D403C2F2CD
:103C300000031A60FB68184607F11007BD4680BDF7
:103C400080B483B000AF7860FEE700BF80B582B07B
:103C500000AF40F6CC33C0F601037B604FF00100AB
:103C6000FFF7EEFF80B400AF4FF46D43CEF20003D8
:103C70004FF46D42CEF20002D2F8882042F4700276
:103C8000C3F888204FF46053C4F202034FF460522B
:103C9000C4F20202126842F001021A604FF460534B
:103CA000C4F202034FF000029A604FF46053C4F272
:103CB00002034FF46052C4F20202126822F08472CE
:103CC00022F480321A604FF46053C4F2020343F2CC
:103CD0001002C2F200425A604FF46053C4F2020371
:103CE0004FF46052C4F20202126822F480221A6079
:103CF0004FF46053C4F202034FF00002DA604FF455
:103D00006D43CEF200034FF000629A60BD4680BC66
:103D1000704700BF80B400AFBD4680BC704700BF95
:103D200080B400AFFEE700BF80B400AFFEE700BF85
:103D300080B400AFFEE700BF80B400AFFEE700BF75
:103D400080B400AFBD4680BC704700BF80B400AFF8
:103D5000BD4680BC704700BF80B400AFBD4680BC8C
:103D6000704700BF80B500AF40F67460C2F200003B
:103D7000FCF7C8FC80BD00BF80B500AF02F0A8FE14
:103D800080BD00BF80B590B000AF40F6C460C2F205
:103D90000000FDF72DF84FF46053C4F202034FF416
:103DA0006052C4F20202526C42F480525A6445F6E8
:103DB000F453C0F601039B883B604FF00203FB60A5
:103DC0004FF002037B604FF005033B614FF00003AF
:103DD000BB6045F6F453C0F601031A683B46104633
:103DE0001946FEF7B9F945F6E453C0F601039B887E
:103DF0003B604FF00203FB604FF002037B604FF02B
:103E00000003BB604FF005033B6145F6E453C0F689
:103E100001031A683B4610461946FEF79DF945F620
:103E2000EC53C0F601039B883B604FF00203FB603C
:103E30004FF000037B604FF00103BB604FF00503C0
:103E40003B6145F6EC53C0F601031A683B46104649
:103E50001946FEF781F945F69C53C0F601039B888D
:103E60003B604FF00203FB604FF001037B604FF0BB
:103E70000003BB604FF000033B6145F69C53C0F666
:103E800001031A683B4610461946FEF765F945F6E8
:103E90009C53C0F601031A6845F69C53C0F6010313
:103EA0009B88104619464FF00102FEF72FFD40F6A1
:103EB000C463C2F200034FF44052C4F201021A601C
:103EC00040F6C463C2F200034FF000029A6040F66D
:103ED000C463C2F200034FF482725A6040F6C463B6
:103EE000C2F200034FF00002DA6040F6C463C2F28F
:103EF00000034FF002021A6140F6C463C2F20003ED
:103F00004FF001025A6140F6C463C2F200034FF45D
:103F100000729A6140F6C463C2F200034FF00002DF
:103F2000DA6140F6C463C2F200034FF000021A6285
:103F300040F6C463C2F200034FF000029A6240F6FA
:103F4000C463C2F200034FF000025A6240F6C46339
:103F5000C2F200034FF00702DA6240F6C460C2F218
:103F60000000FCF703FE07F14007BD4680BD00BF1F
:103F700084B080B500AF07F1080C8CE80F00FB6D32
:103F80009BB240F6C460C2F20000B96D1A464FF011
:103F90000103FCF737FFBD46BDE8804004B0704721
:103FA00080B582B000AF87ED010A3860D7ED017AA5
:103FB000F5EEC07AF1EE10FAD4BF00230123DBB294
:103FC000002B0BD097ED010A07F0CCFCF0EE407A05
:103FD0003B68C3ED007A4FF0000304E03B68054AFC
:103FE0001A604FF0FF035BB2184607F10807BD46A1
:103FF00080BD00BF000000002DE9B0438CB000AFD1
:10400000F860B9607A604FF06403FB84BB68022BF0
:1040100000F38E814FF00003FB627CE0BB68012B54
:1040200027D0022B45D0002B71D17A68FB68D318BA
:10403000C3F50072FB6A9A4210DA7B68C3F500721E
:10404000FB6A9A420ADD40F61873C2F20003FA6A6C
:104050004FEA82029B18C04A1A6058E040F6187373
:10406000C2F20003FA6A4FEA82029B18BB4A1A6046
:104070004DE0FA6A7B689A4210DD7A68FB68D218D4
:10408000FB6A9A420ADD40F61873C2F20003FA6A2C
:104090004FEA82029B18B04A1A6038E040F6187363
:1040A000C2F20003FA6A4FEA82029B18AB4A1A6016
:1040B0002DE07A68FB68D318C3F50072FB6A9A4258
:1040C00005DA7B68C3F50072FB6A9A4209DCFA6A7A
:1040D0007B689A4210DD7A68FB68D218FB6A9A42C4
:1040E0000ADD40F61873C2F20003FA6A4FEA820250
:1040F0009B18994A1A6009E040F61873C2F200034F
:10410000FA6A4FEA82029B18944A1A6000BFFB6A5F
:1041100003F10103FB62FA6A40F2FF139A427FF750
:104120007DAF40F61873C2F2000303F580638B4A3B
:104130001A6040F61873C2F2000303F5FE6303F140
:104140000C03864A1A6007F1100318464FF4807179
:104150004FF001024FF0010305F012FC07F11003CC
:10416000184640F61871C2F2000107F005F84FF04A
:104170000003FB6226E0FB8C4FEA53039BB21A4616
:10418000FB6AD318BB62BA6A40F2FF139A4203DD9E
:10419000BB6AA3F50073BB6240F61873C2F200035A
:1041A000FA6A4FEA82029B181A6843F69C73C2F2BD
:1041B0000003B96A4FEA81015B181A60FB6A03F1D8
:1041C0000103FB62FA6A40F2FF139A42D3DD4FF01B
:1041D0000003FB6215E043F69C73C2F20003FA6A27
:1041E0004FEA82029B181A6840F61873C2F2000365
:1041F000F96A4FEA81015B181A60FB6A03F1010357
:10420000FB62FA6A40F2FF139A42E4DD4FF00003CA
:10421000FB6273E0FA8CFB6A9A425DDB40F618732E
:10422000C2F20003FA6A4FEA82029B181B68184622
:1042300008F028F804460D46F86A08F011F802461E
:104240000B46104619463EA3D3E9002308F06EF84A
:1042500002460B4690469946FB8C184608F000F83B
:1042600002460B464046494608F08AF902460B468C
:104270001046194608F01CFB034600EE103A07F002
:10428000BBF810EE103A184607F0FCFF02460B464A
:10429000104619462CA3D3E9002308F047F802463C
:1042A0000B462BA1D1E9000107F08CFE02460B461C
:1042B0002046294608F03AF802460B4610461946B1
:1042C00008F0F6FA024640F61873C2F20003F96AE3
:1042D0004FEA81015B181A60FA8CFB6A9A4209DA8C
:1042E00040F61873C2F20003FA6A4FEA82029B1882
:1042F0001A4A1A60FB6A03F10103FB62FA6A40F290
:10430000FF139A4286DD07F1100318464FF48071BF
:104310004FF000024FF0010305F032FB07F11003EC
:10432000184640F61871C2F2000106F025FF00E0C1
:1043300000BF07F13007BD46BDE8B083AFF3008092
:10434000F1D4C853FB211940713D0AD7A370DD3F5A
:1043500048E17A14AE47E13F0000803F00000000D2
:1043600080B485B000AF786039604FF00003FB6027
:104370007DE0FB684FEA4302FB684FEAC3037968BC
:10438000CB1893ED007AFB684FEA430140F61873AF
:10439000C2F200034FEA81015B18D3ED007A27EEE9
:1043A000277AFB684FEAC30303F104037968CB184B
:1043B000D3ED006AFB684FEA430303F1010140F6C5
:1043C0001873C2F200034FEA81015B18D3ED007A43
:1043D00066EEA77A77EE677A43F69C73C2F2000323
:1043E0004FEA82029B18C3ED007AFB684FEA430351
:1043F00003F10102FB684FEAC30303F10403796888
:10440000CB1893ED007AFB684FEA430303F10101F7
:1044100040F61873C2F200034FEA81015B18D3ED36
:10442000007A27EE277AFB684FEAC3037968CB1836
:10443000D3ED006AFB684FEA430140F61873C2F2FD
:1044400000034FEA81015B18D3ED007A66EEA77A8C
:1044500077EE277A43F69C73C2F200034FEA82029A
:104460009B18C3ED007AFB6803F10103FB60FB6856
:10447000FF2B7FF77EAF4FF00003FB6032E03B681D
:104480004FEA4302FB68D318BB60FB68002B06DAD7
:10449000FB684FEA83037A68D318174A1A60FA68F0
:1044A00040F2FF139A4206DDFB684FEA83037A6805
:1044B000D318114A1A60FB684FEA83037A68D2184E
:1044C0003B684FEA4301FB68C91843F69C73C2F28C
:1044D00000034FEA81015B181B681360FB6803F15E
:1044E0000103FB60FA6840F2FF139A42C7DD07F14F
:1044F0001407BD4680BC70470000000080B400AFC8
:104500004FF46053C4F202034FF46052C4F202024B
:10451000126B42F001021A634FF46053C4F20203BB
:104520004FF46052C4F20202126B42F002021A63AC
:104530004FF46053C4F202034FF46052C4F202021B
:10454000126B42F004021A634FF46053C4F2020388
:104550004FF46052C4F20202126B42F008021A6376
:10456000BD4680BC704700BF80B400AF40F64053EA
:10457000C2F200031B6803F1010240F64053C2F28D
:1045800000031A60BD4680BC704700BF80B500AF15
:1045900040F6D803C2F20003D3E900014FF0010254
:1045A0004FF00003801841EB030140F6D803C2F23C
:1045B0000003C3E9000103F05DFF44F24163C0F66C
:1045C0000003984740F6D853C2F200031B68002B43
:1045D0000BD040F6D853C2F200031B6803F1FF3240
:1045E00040F6D853C2F200031A6080BD80B400AF19
:1045F00041F21873C2F200034FF000021A6040F655
:104600001473C2F200034FF000021A6042F22073EA
:10461000C2F200034FF07F021A6041F21C73C2F233
:1046200000034FF000021A6044F63013C2F2000398
:104630004FF064021A601846BD4680BC704700BF48
:1046400098B500AF45F60463C0F601031A6845F655
:104650000463C0F601039B8810461946FEF7FCF878
:1046600003464FEA430445F6FC53C0F601031A68BB
:1046700045F6FC53C0F601039B8810461946FEF729
:10468000EBF80346E21840F61473C2F200031A6016
:1046900040F61473C2F200031A6841F21873C2F2B2
:1046A00000031B689A4200F0B88041F21873C2F20E
:1046B00000031B68002B06D140F61473C2F20003FE
:1046C0001B68012B29D041F21873C2F200031B684A
:1046D000012B06D140F61473C2F200031B68032BB2
:1046E0001BD041F21873C2F200031B68032B06D1E2
:1046F00040F61473C2F200031B68022B0DD041F286
:104700001873C2F200031B68022B09D140F6147320
:10471000C2F200031B68002B02D14FF0010201E03E
:104720004FF0000243F62C73C2F200031A6045F604
:104730000C63C0F601031A6845F60C63C0F601036A
:104740009B8810461946FEF787F80346002B44D194
:1047500043F62C73C2F200031B68002B0DD040F609
:10476000E403C2F200031B8803F101039AB240F68E
:10477000E403C2F200031A800CE040F6E403C2F244
:1047800000031B8803F1FF339AB240F6E403C2F240
:1047900000031A8040F6E403C2F200031B884FEACC
:1047A00053039AB240F6E203C2F200031A8040F6C5
:1047B000E203C2F200031A8840F22003C2F20003AF
:1047C0001B88B2FBF3F103FB01F3D31A9AB240F654
:1047D000E203C2F200031A801FE043F62C73C2F218
:1047E00000031B68002B0CD044F63413C2F2000304
:1047F0001B6803F1010244F63413C2F200031A608D
:104800000BE044F63413C2F200031B6803F1FF32DD
:1048100044F63413C2F200031A6040F61473C2F275
:1048200000031A6841F21873C2F200031A6098BDBF
:1048300080B400AF44F63413C2F200031B684FEAA1
:10484000D372D3184FEA63031846BD4680BC704745
:1048500098B500AF40F62163C2F200031B78002B2D
:1048600000F0C48503F0B8FC40F60813C2F2000360
:104870001B68012B00F0B881022B00F06583002B30
:1048800040F00F8540F67063C2F200031B884FEAC8
:10489000430440F67263C2F200031B889BB2A3F587
:1048A0000063184607F0DCFC02460B46104619462A
:1048B000C9A3D3E9002307F063FE02460B46104666
:1048C000194607F0F5FF024642F62C73C2F20003C8
:1048D0004FEA84015B181A6040F67063C2F200036D
:1048E0001B884FEA430303F1010440F6D453C2F29C
:1048F00000031B889BB2A3F50063184607F0B0FCC9
:1049000002460B4610461946B3A3D3E9002307F02D
:1049100037FE02460B461046194607F0C9FF02460D
:1049200042F62C73C2F200034FEA84015B181A604E
:1049300040F67263C2F200031B889AB240F6E003AD
:10494000C2F200031B889A420AD940F67263C2F28F
:1049500000031B889AB240F6E003C2F200031A80FB
:1049600040F6D453C2F200031B889AB240F6E0032B
:10497000C2F200031B889A420AD940F6D453C2F20D
:1049800000031B889AB240F6E003C2F200031A80CB
:1049900040F67063C2F200031B884FEA430241F203
:1049A0002073C2F200034FEA82029B1893ED007A53
:1049B00040F6F003C2F20003D3ED007AB4EEE77ADA
:1049C000F1EE10FAD4BF00230123DBB2002B13D089
:1049D00040F67063C2F200031B884FEA430241F2C3
:1049E0002073C2F200034FEA82029B181A6840F655
:1049F000F003C2F200031A6040F67063C2F20003D3
:104A00001B884FEA430303F1010241F22073C2F213
:104A100000034FEA82029B1893ED007A40F6F00300
:104A2000C2F20003D3ED007AB4EEE77AF1EE10FAA9
:104A3000D4BF00230123DBB2002B15D040F67063F6
:104A4000C2F200031B884FEA430303F1010241F263
:104A50002073C2F200034FEA82029B181A6840F6E4
:104A6000F003C2F200031A6040F67063C2F2000362
:104A70001B884FEA430241F22073C2F200034FEA5F
:104A800082029B1893ED007ADFED557A27EE277AA4
:104A900040F21003C2F20003D3ED007A27EE277A2A
:104AA000DFED507A77EE277AFCEEE77A17EE903A50
:104AB0009BB2184602F020FD40F67063C2F200037C
:104AC0001B884FEA430303F1010241F22073C2F253
:104AD00000034FEA82029B1893ED007ADFED407AE3
:104AE00027EE277A40F21003C2F20003D3ED007ADA
:104AF00027EE277ADFED3B7A77EE277AFCEEE77A2E
:104B000017EE903A9BB2184602F010FD40F6706323
:104B1000C2F200031B881A4640F21C03C2F20003D3
:104B20001B88C3F1FF039A4240F3B68340F67063DB
:104B3000C2F200031B881A4640F21C03C2F20003B3
:104B40001B88A3F58073D3184FEA430140F67063C6
:104B5000C2F200031B884FEA430242F62C73C2F2F2
:104B600000034FEA82029B181A6844F2A073C2F253
:104B700000034FEA81015B181A6040F67063C2F2CD
:104B800000031B881A4640F21C03C2F200031B8874
:104B9000A3F58073D3184FEA430303F1010140F6F4
:104BA0007063C2F200031B884FEA430303F1010262
:104BB00042F62C73C2F200034FEA82029B181A6875
:104BC00044F2A073C2F200034FEA81015B181A603D
:104BD00062E300BFAFF30080000000000000B040BF
:104BE000000080450000004540F67063C2F20003FB
:104BF0001B884FEA430440F67263C2F200031B882D
:104C00009BB2A3F50063184607F02AFB02460B4649
:104C100010461946C8A3D3E9002307F0B1FC0246A9
:104C20000B461046194607F043FE024641F2207338
:104C3000C2F200034FEA84015B181A6040F6706309
:104C4000C2F200031B884FEA430303F1010440F65C
:104C5000D453C2F200031B889BB2A3F5006318462D
:104C600007F0FEFA02460B4610461946B2A3D3E9F6
:104C7000002307F085FC02460B461046194607F054
:104C800017FE024641F22073C2F200034FEA84018C
:104C90005B181A6040F67263C2F200031B889AB276
:104CA00040F6E003C2F200031B889A420AD940F69C
:104CB0007263C2F200031B889AB240F6E003C2F2AC
:104CC00000031A8040F6D453C2F200031B889AB244
:104CD00040F6E003C2F200031B889A420AD940F66C
:104CE000D453C2F200031B889AB240F6E003C2F22A
:104CF00000031A8040F67063C2F200031B884FEA7B
:104D0000430241F62073C2F200034FEA82029B186D
:104D100093ED007A40F6F003C2F20003D3ED007A7F
:104D2000B4EEE77AF1EE10FAD4BF00230123DBB230
:104D3000002B13D040F67063C2F200031B884FEAC9
:104D4000430241F62073C2F200034FEA82029B182D
:104D50001A6840F6F003C2F200031A6040F670636E
:104D6000C2F200031B884FEA430303F1010241F63C
:104D70002073C2F200034FEA82029B1893ED007A7F
:104D800040F6F003C2F20003D3ED007AB4EEE77A06
:104D9000F1EE10FAD4BF00230123DBB2002B15D0B3
:104DA00040F67063C2F200031B884FEA430303F12D
:104DB000010241F62073C2F200034FEA82029B18FF
:104DC0001A6840F6F003C2F200031A6040F67063FE
:104DD000C2F200031B884FEA430241F62073C2F27D
:104DE00000034FEA82029B1893ED007ADFED547ABC
:104DF00027EE277A40F21003C2F20003D3ED007AC7
:104E000027EE277ADFED4F7A77EE277AFCEEE77A06
:104E100017EE903A9BB2184602F06EFB40F67063B4
:104E2000C2F200031B884FEA430303F1010241F67B
:104E30002073C2F200034FEA82029B1893ED007ABE
:104E4000DFED3F7A27EE277A40F21003C2F200032B
:104E5000D3ED007A27EE277ADFED3A7A77EE277ADC
:104E6000FCEEE77A17EE903A9BB2184602F05EFB32
:104E700040F67063C2F200031B881A4640F21C031E
:104E8000C2F200031B88C3F1FF039A4240F306827B
:104E900040F67063C2F200031B881A4640F21C03FE
:104EA000C2F200031B88A3F58073D3184FEA4301B5
:104EB00040F67063C2F200031B884FEA430241F2DE
:104EC0002073C2F200034FEA82029B181A6844F270
:104ED000A073C2F200034FEA81015B181A6040F62A
:104EE0007063C2F200031B881A4640F21C03C2F230
:104EF00000031B88A3F58073D3184FEA430303F123
:104F0000010140F67063C2F200031B884FEA4303BD
:104F100003F1010241F22073C2F200034FEA820260
:104F20009B181A6844F2A073C2F200034FEA810191
:104F30005B181A60B2E100BF000000000000B04042
:104F4000000080450000004540F67063C2F2000397
:104F50001B884FEA430440F67263C2F200031B88C9
:104F60009BB2A3F50063184607F07AF902460B4698
:104F7000104619460FF28843D3E9002307F000FBDF
:104F800002460B461046194607F092FC024641F6CF
:104F90002073C2F200034FEA84015B181A6040F6E6
:104FA0007063C2F200031B884FEA430303F101045C
:104FB00040F6D453C2F200031B889BB2A3F50063F2
:104FC000184607F04DF902460B46104619460FF2F7
:104FD0003043D3E9002307F0D3FA02460B461046CC
:104FE000194607F065FC024641F62073C2F2000341
:104FF0004FEA84015B181A6040F67263C2F2000344
:105000001B889AB240F6E003C2F200031B889A4262
:105010000AD940F67263C2F200031B889AB240F6C6
:10502000E003C2F200031A8040F6D453C2F2000338
:105030001B889AB240F6E003C2F200031B889A4232
:105040000AD940F6D453C2F200031B889AB240F644
:10505000E003C2F200031A8040F67063C2F200035C
:105060001B884FEA430242F62C73C2F200034FEA58
:1050700082029B1893ED007A40F6F003C2F200031F
:10508000D3ED007AB4EEE77AF1EE10FAD4BF002344
:105090000123DBB2002B13D040F67063C2F2000391
:1050A0001B884FEA430242F62C73C2F200034FEA18
:1050B00082029B181A6840F6F003C2F200031A60DD
:1050C00040F67063C2F200031B884FEA430303F10A
:1050D000010242F62C73C2F200034FEA82029B18CF
:1050E00093ED007A40F6F003C2F20003D3ED007AAC
:1050F000B4EEE77AF1EE10FAD4BF00230123DBB25D
:10510000002B15D040F67063C2F200031B884FEAF3
:10511000430303F1010242F62C73C2F200034FEA8B
:1051200082029B181A6840F6F003C2F200031A606C
:1051300040F67063C2F200031B884FEA430242F656
:105140002C73C2F200034FEA82029B1893ED007A9F
:10515000DFEDA97A27EE277A40F21003C2F20003AE
:10516000D3ED007A27EE277ADFEDA47A77EE277A5F
:10517000FCEEE77A17EE903A9BB2184602F0BCF9C3
:1051800040F67063C2F200031B884FEA430303F149
:10519000010242F62C73C2F200034FEA82029B180E
:1051A00093ED007ADFED947A27EE277A40F2100330
:1051B000C2F20003D3ED007A27EE277ADFED8F7A73
:1051C00077EE277AFCEEE77A17EE903A9BB2184614
:1051D00002F0ACF940F67063C2F200031B881A4675
:1051E00040F21C03C2F200031B88C3F1FF039A4282
:1051F00056DD40F67063C2F200031B881A4640F287
:105200001C03C2F200031B88A3F58073D3184FEA76
:10521000430140F67063C2F200031B884FEA430269
:1052200041F62073C2F200034FEA82029B181A680B
:1052300044F2A073C2F200034FEA81015B181A60C6
:1052400040F67063C2F200031B881A4640F21C034A
:10525000C2F200031B88A3F58073D3184FEA4303FF
:1052600003F1010140F67063C2F200031B884FEAAC
:10527000430303F1010241F62073C2F200034FEA37
:1052800082029B181A6844F2A073C2F200034FEA2C
:1052900081015B181A6003E000BF02E000BF00E07C
:1052A00000BF40F6F003C2F200031B68184606F088
:1052B000E9FF02460B46104619464DA3D3E90023E9
:1052C00007F034F802460B461046194607F0F0FA8C
:1052D000024640F6F003C2F200031A6040F6706323
:1052E000C2F200031B8803F101039AB240F6706317
:1052F000C2F200031A8040F67063C2F200031B88FA
:105300001A4640F21C03C2F200031B884FEA530303
:105310009BB2C3F580739A4266DB40F61963C2F212
:1053200000034FF001021A7040F21C03C2F20003A6
:105330001B884FEA53039AB240F67063C2F200032F
:105340001A8040F60813C2F200031B68012B1BD021
:10535000022B31D0002B47D140F6F803C2F20003F4
:105360004FF001021A6040F60813C2F200034FF03A
:1053700001021A6045F20943C0F6000341F22070B1
:10538000C2F2000098472FE040F6FC03C2F200038F
:105390004FF001021A6040F60813C2F200034FF00A
:1053A00002021A6045F20943C0F6000341F620707C
:1053B000C2F20000984717E040F60013C2F2000363
:1053C0004FF001021A6040F60813C2F200034FF0DA
:1053D00000021A6045F20943C0F6000342F62C7041
:1053E000C2F20000984700BF02F036FF98BD00BF30
:1053F0001EA7E8482EFFEF3F000080450000004553
:10540000000000000000B04080B485B000AF7860BC
:105410004FF00003FB8112E0FB894FEA83037A68B7
:10542000D218F98944F2A073C2F200034FEA810155
:105430005B181B681360FB8903F10103FB8140F2D9
:105440001C03C2F200031B88FA899A42E4D30AE0E3
:10545000FB894FEA83037A68D318084A1A60FB89EC
:1054600003F10103FB81FA8940F2FF139A42EFD95D
:1054700007F11407BD4680BC704700BF0000000064
:1054800080B586B000AF78603960FEF72BFB40F640
:10549000E033C0F60103FB6040F6F433C0F60103CD
:1054A000BB60FFF72BF802F073F8FEF76BFC02F01D
:1054B000CDFF02F0F7FF4FF40060C4F202004FF49A
:1054C00000514FF00102FDF721FA40F22C03C2F225
:1054D00000031B881AB240F6EC03C2F200031B88DB
:1054E0001BB2D21A40F6EC03C2F200031B881BB2B7
:1054F00010464FF000011A46FEF77EFD47F2D93301
:10550000C0F600039847FFF771F803F0E1F84FF099
:10551000030003F00DFE4FF0000003F099FE4FF082
:10552000000003F095FE4FF0030004F0EBF94FF09C
:10553000010004F015FA4FF6FF704FF0000104F07F
:10554000F7F94FF0C8004FF078014FF0000203F078
:10555000ADFD02F085FC40F62163C2F200034FF07E
:1055600001021A7002F078FE47F26523C0F60003CC
:1055700098474FF000024FF00003C7E9042345F6B7
:105580002143C0F600034FF00100984745F2B16394
:10559000C0F60003984745F62143C0F600034FF0DC
:1055A0000000984746F26963C0F60003984745F249
:1055B000C153C0F600039847E8E700BF00000000B1
:1055C00080B584B002AF40F60C13C2F2000393ED35
:1055D000007ADFED357A27EE277AF7EE007A77EE5C
:1055E000277A17EE900A06F04DFE02460B4643EC72
:1055F000102B06F031F953EC102B1046194628A356
:10560000D3E9002306F092FE02460B4610461946E7
:1056100007F026F903467B6040F61013C2F2000340
:105620001B687A689A4219DD40F61013C2F2000333
:105630001B6803F1960240F61013C2F200031B68C8
:105640007968CB1A4FF47841009110464FF09C01D5
:105650001A464FF0030303F0D7FD14E07B6803F113
:10566000960240F61013C2F2000319687B68CB1A49
:105670004FF00001009110464FF09C011A464FF088
:10568000030303F0C1FD40F61013C2F200037A6871
:105690001A6007F10807BD4680BD00BFAFF3008068
:1056A000000000000000244000247449AFF3008093
:1056B00080B500AF40F6E203C2F200031B880A2B5C
:1056C00000F2598201A050F823F000BFF9560008FB
:1056D00017570008355700084F570008695700084A
:1056E000835700089D570008B7570008D75800088F
:1056F000F7590008835A000840F22403C2F200035D
:1057000044F24022C0F20F021A6046F67573C0F6EA
:105710000003984738E240F22403C2F2000348F243
:10572000A062C0F201021A6046F67573C0F600036B
:10573000984729E240F22403C2F2000342F21072B9
:105740001A6046F67573C0F6000398471CE240F2F3
:105750002403C2F200034FF47A721A6046F675739E
:10576000C0F6000398470FE240F22403C2F20003A0
:105770004FF064021A6046F67573C0F6000398474E
:1057800002E240F22403C2F200034FF00A021A6060
:1057900046F67573C0F600039847F5E140F224031E
:1057A000C2F200034FF001021A6046F67573C0F6AC
:1057B00000039847E8E1FFF73BF8024643F6987389
:1057C000C2F200031A6043F69873C2F200031A682B
:1057D00042F62873C2F200031B689A4200F0CD81A2
:1057E00042F62873C2F200031B689AB243F698731C
:1057F000C2F200031B689BB2D31A9AB240F6EC03C4
:10580000C2F200031B889BB2D3189BB29AB240F637
:10581000EC03C2F200031A8040F6EC03C2F200036C
:105820001B881BB2002B06DC40F6EC03C2F200031F
:105830004FF000021A8040F6EC03C2F200031B880E
:105840001BB2C72B06DD40F6EC03C2F200034FF09B
:1058500064021A8040F6EC03C2F200031A8840F298
:105860002C03C2F200031B8812B21BB29A420EDB59
:1058700040F22C03C2F200031B889BB203F1FF33FA
:105880009BB29AB240F6EC03C2F200031A8043F6D0
:105890009873C2F200031A6842F62873C2F200033A
:1058A0001A6040F22C03C2F200031B881AB240F6C1
:1058B000EC03C2F200031B881BB2D21A40F6EC03C1
:1058C000C2F200031B881BB210464FF000011A46BB
:1058D000FEF792FB51E1FEF7ABFF024643F69873E9
:1058E000C2F200031A6043F69873C2F200031A680A
:1058F00042F62873C2F200031B689A4200F03F810F
:1059000042F62873C2F200031B689AB243F69873FA
:10591000C2F200031B689BB2D31A9AB240F22C0366
:10592000C2F200031B889BB2D3189BB29AB240F21A
:105930002C03C2F200031A8040F22C03C2F20003CF
:105940001B881BB2002B06DC40F22C03C2F20003C2
:105950004FF000021A8040F22C03C2F200031B88B1
:105960001BB2C72B06DD40F22C03C2F200034FF03E
:1059700064021A8040F22C03C2F200031A8840F637
:10598000EC03C2F200031B8812B21BB29A420EDC77
:1059900040F6EC03C2F200031B889BB203F1010343
:1059A0009BB29AB240F22C03C2F200031A8043F673
:1059B0009873C2F200031A6842F62873C2F2000319
:1059C0001A6040F22C03C2F200031B881AB240F6A0
:1059D000EC03C2F200031B881BB2D21A40F6EC03A0
:1059E000C2F200031B881BB210464FF000011A469A
:1059F000FEF702FBC3E0FEF71BFF024643F6987377
:105A0000C2F200031A6043F69873C2F200031A68E8
:105A100042F62873C2F200031B689A4200F0B1807C
:105A200040F6EE03C2F200031B781A4642F62873D2
:105A3000C2F20003196843F69873C2F200031B68B0
:105A4000CB1AD11845F25653C5F2555383FB0102C8
:105A50004FEAE173D21A13464FEA43039B18CA1A5E
:105A6000D2B240F6EE03C2F200031A7043F6987306
:105A7000C2F200031A6842F62873C2F200031A60E9
:105A80007FE0FEF7D5FE024643F69873C2F20003AC
:105A90001A6043F69873C2F200031A6842F628733C
:105AA000C2F200031B689A426DD042F62873C2F21C
:105AB00000031A6843F69873C2F200031B68D31AF6
:105AC00007EE903AB8EEE77A40F21403C2F2000310
:105AD000D3ED007A27EE277A40F21003C2F20003DA
