:020000040800F2
:1000000000000220A9030008A57E0008B17E0008B8
:10001000B97E0008C17E0008C97E0008000000000B
:10002000000000000000000000000000DD7E00086D
:10003000D17E000800000000E97E00085D8800080D
:10004000F9030008F9030008F9030008F9030008A0
:10005000F9030008F9030008F9030008F903000890
:10006000F9030008F9030008F9030008F903000880
:10007000F9030008F9030008F9030008F903000870
:10008000F9030008F9030008F9030008F903000860
:10009000F9030008F9030008F9030008F903000850
:1000A000F9030008F9030008F9030008F903000840
:1000B000F9030008F57E0008097F0008F90300082D
:1000C000F9030008F9030008F9030008F903000820
:1000D000F9030008F9030008F9030008F903000810
:1000E000F9030008F9030008F9030008F903000800
:1000F000F9030008F9030008F9030008F9030008F0
:10010000F9030008F9030008F9030008F9030008DF
:10011000F9030008F9030008F9030008F9030008CF
:100120002D7F0008F9030008F9030008157F000877
:10013000F9030008F9030008F9030008F9030008AF
:10014000F9030008F9030008F9030008F90300089F
:10015000F9030008F9030008F9030008F90300088F
:10016000F9030008F9030008F9030008F90300087F
:10017000F9030008F9030008F90300080000000073
:10018000F9030008F9030008F9030008F90300085F
:10019000F9030008F9030008F9030008F90300084F
:1001A000F9030008F9030008F903000880B58EB0D0
:1001B00000AF40F6D803C2F200034BF6BA22CCF6E9
:1001C000DE221A6044F62843C2F200034BF6BA223C
:1001D000CCF6DE221A6040F6D803C2F200033B637D
:1001E00044F62C43C2F20003FB623B6BBB6207E0A8
:1001F000BB6A4FF000021A60BB6A03F10403BB62E2
:10020000FA6ABB6A9A42F3D840F6D803C2F20003F6
:100210001B68002B06D144F62843C2F200031B687A
:10022000002B00D0FEE740F20003C2F200034BF6C1
:10023000BA22CCF6DE221A6040F6D403C2F20003E2
:100240004BF6BA22CCF6DE221A6043F65C03C0F607
:1002500002037B6240F20003C2F200033B6240F6FD
:10026000D803C2F20003FB613B6ABB610BE07B6A0F
:100270001A68BB691A60BB6903F10403BB617B6A3E
:1002800003F104037B62FA69BB699A42EFD840F23A
:100290000003C2F200031A6845F27863C1F2342306
:1002A0009A420BD140F6D403C2F200031A6840F61A
:1002B000D403C2F200031B689A4200D0FEE70DF09F
:1002C00037FC07F104023B461046194607F024FDAF
:1002D00040F20042C0F6000240F20043C0F60003C4
:1002E000D31A4FEAA3037B614FF000033B610BE09D
:1002F00040F20043C0F600033A6953F822309847B1
:100300003B6903F101033B617A693B699A42EFDC87
:1003100040F20042C0F6000240F20043C0F6000383
:10032000D31A4FEAA3037B614FF000033B610BE05C
:1003300040F20043C0F600033A6953F82230984770
:100340003B6903F101033B617A693B699A42EFDC47
:100350007A683B681046194609F0A0FC03467B63A7
:1003600040F20042C0F6000240F20043C0F6000333
:10037000D31A4FEAA303FB60FB68BB600DE0BB68C8
:1003800003F1FF3240F20043C0F6000353F822307D
:100390009847BB6803F1FF33BB60BB68002BEEDC02
:1003A000786B07F015FD00BF80B500AFFFF7FEFECC
:1003B00080B400AFFEE700BF80B400AFFEE700BF2F
:1003C00080B400AFFEE700BF80B400AFFEE700BF1F
:1003D00080B400AFFEE700BF80B400AFFEE700BF0F
:1003E00080B400AFFEE700BF80B400AFFEE700BFFF
:1003F00080B400AFFEE700BF80B400AFFEE700BFEF
:1004000080B483B000AF786007F10C07BD4680BCB4
:10041000704700BF80B483B000AF786007F10C076D
:10042000BD4680BC704700BF80B582B000AF786029
:100430007B68002B02D14FF00103C4E07B681A688F
:100440004FF00003C4F201039A426CD07B681B6832
:10045000B3F1804F67D07B681A684FF48063C4F2B1
:1004600000039A425FD07B681A684FF40063C4F2BD
:1004700000039A4257D07B681A684FF44063C4F275
:1004800000039A424FD07B681A684FF48053C4F23D
:1004900000039A4247D07B681A684FF4A053C4F215
:1004A00000039A423FD07B681A684FF48063C4F21D
:1004B00001039A4237D07B681A684FF48043C4F234
:1004C00001039A422FD07B681A684FF48843C4F224
:1004D00001039A4227D07B681A684FF49043C4F214
:1004E00001039A421FD07B681A684FF4C053C4F2CC
:1004F00000039A4217D07B681A684FF4E053C4F2A5
:1005000000039A420FD07B681A684FF40053C4F27C
:1005100000039A4207D046F2BC00C0F601004FF03B
:10052000D10107F0EDFB7B689B68002B17D07B683F
:100530009B68102B13D07B689B68202B0FD07B68A7
:100540009B68402B0BD07B689B68602B07D046F2E2
:10055000BC00C0F601004FF0D20107F0D1FB7B6870
:100560001B69002B11D07B681B69B3F5807F0CD011
:100570007B681B69B3F5007F07D046F2BC00C0F66C
:1005800001004FF0D30107F0BBFB7B6893F83930D3
:10059000DBB2002B02D1786800F01AF87B684FF0CC
:1005A000020283F839207B681A687B6803F1040330
:1005B0001046194600F00AFA7B684FF0010283F8F2
:1005C00039204FF00003184607F10807BD4680BDEB
:1005D00080B483B000AF786007F10C07BD4680BCE3
:1005E000704700BF80B582B000AF78607B681A6842
:1005F0004FF00003C4F201039A426CD07B681B6881
:10060000B3F1804F67D07B681A684FF48063C4F2FF
:1006100000039A425FD07B681A684FF40063C4F20B
:1006200000039A4257D07B681A684FF44063C4F2C3
:1006300000039A424FD07B681A684FF48053C4F28B
:1006400000039A4247D07B681A684FF4A053C4F263
:1006500000039A423FD07B681A684FF48063C4F26B
:1006600001039A4237D07B681A684FF48043C4F282
:1006700001039A422FD07B681A684FF48843C4F272
:1006800001039A4227D07B681A684FF49043C4F262
:1006900001039A421FD07B681A684FF4C053C4F21A
:1006A00000039A4217D07B681A684FF4E053C4F2F3
:1006B00000039A420FD07B681A684FF40053C4F2CB
:1006C00000039A4207D046F2BC00C0F6010040F297
:1006D0005B1107F015FB7B681B687A681268D268AB
:1006E00042F00102DA607B681B687A68126812685F
:1006F00042F001021A604FF00003184607F10807A4
:10070000BD4680BD80B582B000AF78607B681B6855
:100710001B6903F00203002B27D07B681B68DB6892
:1007200003F00203002B20D07B681B687A681268F4
:10073000126922F002021A617B684FF001021A76F8
:100740007B681B689B6903F00303002B03D0786868
:1007500000F01EF905E0786800F010F9786800F004
:1007600021F97B684FF000021A767B681B681B69D1
:1007700003F00403002B27D07B681B68DB6803F0C1
:100780000403002B20D07B681B687A68126812690A
:1007900022F004021A617B684FF002021A767B682D
:1007A0001B689B6903F44073002B03D0786800F04A
:1007B000EFF805E0786800F0E1F8786800F0F2F80A
:1007C0007B684FF000021A767B681B681B6903F098
:1007D0000803002B27D07B681B68DB6803F0080345
:1007E000002B20D07B681B687A681268126922F09F
:1007F00008021A617B684FF004021A767B681B6856
:100800009B6903F00303002B03D0786800F0C0F865
:1008100005E0786800F0B2F8786800F0C3F87B680B
:100820004FF000021A767B681B681B6903F0100307
:10083000002B27D07B681B68DB6803F01003002BBC
:1008400020D07B681B687A681268126922F0100257
:100850001A617B684FF008021A767B681B689B69F7
:1008600003F44073002B03D0786800F091F805E0A2
:10087000786800F083F8786800F094F87B684FF0AF
:1008800000021A767B681B681B6903F00103DBB268
:10089000002B12D07B681B68DB6803F00103DBB21E
:1008A000002B0AD07B681B687A681268126922F0F4
:1008B00001021A6178680BF09BFB7B681B681B695F
:1008C00003F08003002B11D07B681B68DB6803F00A
:1008D0008003002B0AD07B681B687A681268126953
:1008E00022F080021A617868FFF794FD7B681B682C
:1008F0001B6903F04003002B11D07B681B68DB6889
:1009000003F04003002B0AD07B681B687A681268EA
:10091000126922F040021A61786800F04DF87B6895
:100920001B681B6903F02003002B11D07B681B6838
:10093000DB6803F02003002B0AD07B681B687A6811
:100940001268126922F020021A617868FFF758FDD8
:1009500007F10807BD4680BD80B483B000AF786062
:100960007B681B687A681268126922F001021A61BA
:1009700007F10C07BD4680BC704700BF80B483B050
:1009800000AF786007F10C07BD4680BC704700BF20
:1009900080B483B000AF786007F10C07BD4680BC1F
:1009A000704700BF80B483B000AF786007F10C07D8
:1009B000BD4680BC704700BF80B483B000AF786094
:1009C00007F10C07BD4680BC704700BF80B485B0FE
:1009D00000AF786039604FF00003FB607B681B68F4
:1009E000FB607A684FF00003C4F201039A421FD003
:1009F0007B68B3F1804F1BD07A684FF48063C4F2F8
:100A000000039A4214D07A684FF40063C4F20003E2
:100A10009A420DD07A684FF44063C4F200039A42C0
:100A200006D07A684FF48063C4F201039A4202D17F
:100A30004FF0010301E04FF00003002B08D0FB68EA
:100A400023F07003FB603B685B68FA681343FB604C
:100A50007A684FF00003C4F201039A4249D07B68E0
:100A6000B3F1804F45D07A684FF48063C4F200033D
:100A70009A423ED07A684FF40063C4F200039A426F
:100A800037D07A684FF44063C4F200039A4230D002
:100A90007A684FF48063C4F201039A4229D07A68DD
:100AA0004FF48043C4F201039A4222D07A684FF493
:100AB0008843C4F201039A421BD07A684FF49043F2
:100AC000C4F201039A4214D07A684FF4C053C4F2BE
:100AD00000039A420DD07A684FF4E053C4F2000349
:100AE0009A4206D07A684FF40053C4F200039A4247
:100AF00002D14FF0010301E04FF00003002B08D0BA
:100B0000FB6823F44073FB603B68DB68FA681343BF
:100B1000FB607B68FA681A603B689A687B68DA62F7
:100B20003B681A687B689A627A684FF00003C4F2E7
:100B300001039A4206D07A684FF48063C4F201033D
:100B40009A4202D14FF0010301E04FF00003002B65
:100B500003D03B681A697B681A637B684FF0010217
:100B60005A6107F11407BD4680BC704780B582B05A
:100B700000AF78607B68002B02D14FF0010332E1B7
:100B80007B685B68002B0CD07B685B68B3F5827F69
:100B900007D046F2EC00C0F601004FF0A50107F0C7
:100BA000AFF87B689B68002B11D07B689B68B3F51E
:100BB000806F0CD07B689B68B3F5004F07D046F27E
:100BC000EC00C0F601004FF0A60107F099F87B6831
:100BD000DB68B3F5006F0BD07B68DB68002B07D0B8
:100BE00046F2EC00C0F601004FF0A70107F088F8CC
:100BF0007B681B69002B0BD07B681B69022B07D01D
:100C000046F2EC00C0F601004FF0A80107F078F8BA
:100C10007B685B69002B0BD07B685B69012B07D07D
:100C200046F2EC00C0F601004FF0A90107F068F8A9
:100C30007B689B69B3F5007F10D07B689B69002BB4
:100C40000CD07B689B69B3F5802F07D046F2EC008F
:100C5000C0F601004FF0AA0107F052F87B68DB698B
:100C6000002B23D07B68DB69082B1FD07B68DB69F6
:100C7000102B1BD07B68DB69182B17D07B68DB69D6
:100C8000202B13D07B68DB69282B0FD07B68DB69B6
:100C9000302B0BD07B68DB69382B07D046F2EC0099
:100CA000C0F601004FF0AB0107F02AF87B681B6A21
:100CB000002B0BD07B681B6A802B07D046F2EC0020
:100CC000C0F601004FF0AC0107F01AF87B685B6AD0
:100CD000002B0BD07B685B6A102B07D046F2EC0030
:100CE000C0F601004FF0AD0107F00AF87B689B6A7F
:100CF000002B0CD07B689B6AB3F5005F07D046F2EF
:100D0000EC00C0F601004FF0AE0106F0F9FF7B6881
:100D1000DB6A002B05D07B68DA6A4FF6FF739A42D4
:100D200007D946F2EC00C0F601004FF0AF0106F023
:100D3000E7FF7B6893F85130DBB2002B02D1786873
:100D400000F056F87B684FF0020283F851207B6870
:100D50001B687A681268126822F040021A607B6889
:100D60001B687A6851687A68926811437A68D26819
:100D700011437A68126911437A68526911437A689B
:100D8000926902F4007211437A68D26911437A6859
:100D9000126A11437A68926A0A431A607B681B6878
:100DA0007A6892694FEA124202F004017A68526A44
:100DB0000A435A607B681B687A68D26A1A617B684A
:100DC0001B687A681268D26922F40062DA617B6873
:100DD0004FF0000283F852207B684FF0010283F845
:100DE00051204FF00003184607F10807BD4680BDAB
:100DF00080B483B000AF786007F10C07BD4680BCBB
:100E0000704700BF80B584B000AFF860B9603B6048
:100E10001346FB80FB6893F85130DBB2012B40F0A6
:100E20004F81BB68002B02D0FB88002B02D14FF012
:100E3000010347E1FB689B68002B0CD0FB689B68B3
:100E4000B3F5004F07D046F2EC00C0F601004FF4B6
:100E5000AE7106F055FFFB6893F85030012B02D1BC
:100E60004FF002032EE1FB684FF0010283F850209F
:100E7000FB684FF0120283F85120FB684FF000022C
:100E800083F85220FB68BA681A63FB68FA889A866E
:100E9000FB68FA88DA86FB684FF00002DA64FB68C8
:100EA0004FF000029A64FB684FF000029A87FB68DB
:100EB0004FF00002DA87FB689B6AB3F5005F0FD141
:100EC000FB681B68FA681268126822F400521A6004
:100ED000FB681B68FA681268126842F400521A60D4
:100EE000FB689B68B3F5004F07D1FB681B68FA6885
:100EF0001268126842F480421A60FB681B681B6823
:100F000003F04003002B07D1FB681B68FA681268E6
:100F1000126842F040021A60FB68DB68002B42D185
:100F2000FB681A68FB681B6B1978D16003F101023A
:100F3000FB681A63FB68DB8E03F1FF339AB2FB6830
:100F4000DA861EE0F8684FF002014FF000023B68BD
:100F500000F0BEF80346002B02D04FF00303B1E0CF
:100F6000FB681A68FB681B6B1978D16003F10102FA
:100F7000FB681A63FB68DB8E03F1FF339AB2FB68F0
:100F8000DA86FB68DB8E002BDCD1FB689B6AB3F54D
:100F9000005F4ED1FB681B68FA681268126842F461
:100FA00080521A6045E0FB681B68FA68126B128871
:100FB000DA60FB681B6B03F10202FB681A63FB68D3
:100FC000DB8E03F1FF339AB2FB68DA8620E0F86823
:100FD0004FF002014FF000023B6800F079F8034641
:100FE000002B02D04FF003036CE0FB681B68FA682B
:100FF000126B1288DA60FB681B6B03F10202FB685C
:101000001A63FB68DB8E03F1FF339AB2FB68DA8662
:10101000FB68DB8E002BDAD1FB689B6AB3F5005FBF
:1010200007D1FB681B68FA681268126842F48052A4
:101030001A60F8684FF002014FF000023B6800F0C0
:1010400047F80346002B0CD0FB6893F85230DBB214
:1010500043F02003DAB2FB6883F852204FF0030319
:1010600030E0F8684FF080014FF001023B6800F07B
:101070002FF80346002B0CD0FB6893F85230DBB2FC
:1010800043F02003DAB2FB6883F852204FF00303E9
:1010900018E0FB689B68002B05D1FB681B68DB68C8
:1010A000FB681B689B68FB684FF0010283F85120C6
:1010B000FB684FF0000283F850204FF0000301E07E
:1010C0004FF00203184607F11007BD4680BD00BF70
:1010D00080B586B000AFF860B9603B601346FB7125
:1010E0004FF000037B6106F0FFFD02463B68D3181A
:1010F0007B61FB79002B40F083803BE03B68B3F1E0
:10110000FF3F37D006F0F0FD02467B699A4231D3AB
:10111000FB681B68FA681268526822F0E0025A60A5
:10112000FB681B68FA681268126822F040021A60B5
:10113000FB689B6AB3F5005F0FD1FB681B68FA6818
:101140001268126822F400521A60FB681B68FA6881
:101150001268126842F400521A60FB684FF00102F4
:1011600083F85120FB684FF0000283F850204FF0C5
:10117000030351E0FB681B689B681A46BB681A4072
:10118000BB689A42BAD145E03B68B3F1FF3F38D023
:1011900006F0AAFD02467B699A4232D3FB681B68BF
:1011A000FA681268526822F0E0025A60FB681B6815
:1011B000FA681268126822F040021A60FB689B6AA3
:1011C000B3F5005F0FD1FB681B68FA6812681268FC
:1011D00022F400521A60FB681B68FA6812681268F1
:1011E00042F400521A60FB684FF0010283F851206C
:1011F000FB684FF0000283F850204FF003030BE030
:1012000000BFFB681B689B681A46BB681A40BB6836
:101210009A42B9D04FF00003184607F11807BD46AF
:1012200080BD00BF80B483B000AF03463960FB715E
:1012300097F90730002B10DA4FF46D43CEF200031C
:10124000FA7902F00F02A2F104013A68D2B24FEA31
:101250000212D2B25B181A760DE04FF46143CEF25F
:10126000000397F907103A68D2B24FEA0212D2B2DD
:101270005B1883F8002307F10C07BD4680BC70475C
:1012800080B582B000AF78607B6803F1FF326FF009
:101290007F439A4202D94FF001031DE04EF2100342
:1012A000CEF200037A6802F1FF325A604FF0FF304D
:1012B0004FF00F01FFF7B6FF4EF21003CEF200031E
:1012C0004FF000029A604EF21003CEF200034FF08E
:1012D00007021A604FF00003184607F10807BD46E1
:1012E00080BD00BF90B595B000AF78604FF00003AF
:1012F000FB647B681B680F2B07D946F22C10C0F6E5
:1013000001004FF49D7106F0FBFC7B681B6803F045
:101310000103DBB2002B00F0A6807B685B68002B2A
:101320000FD07B685B68012B0BD07B685B68052B5B
:1013300007D046F22C10C0F6010040F23F1106F033
:10134000DFFC4FF46053C4F202039B6803F00C030C
:10135000042B11D04FF46053C4F202039B6803F0D6
:101360000C03082B18D14FF46053C4F202035B68DE
:1013700003F48003002B0FD04FF46053C4F2020338
:101380001B6803F40033002B6CD07B685B68012B77
:1013900068D04FF0010358E343F60203C4F202039E
:1013A0004FF000021A7006F09FFC034603F59C53B1
:1013B00003F10803FB6408E006F096FC0246FB6CB0
:1013C0009A4202D34FF003033FE34FF46053C4F259
:1013D00002031B6803F40033002BEDD143F6020334
:1013E000C4F202037A685268D2B21A707B685B68F2
:1013F000012B1BD106F078FC034603F59C5303F147
:101400000803FB6408E006F06FFC0246FB6C9A429E
:1014100002D34FF0030318E34FF46053C4F2020306
:101420001B6803F40033002BEDD01CE006F05CFCDD
:10143000034603F59C5303F10803FB6408E006F040
:1014400053FC0246FB6C9A4202D34FF00303FCE2CA
:101450004FF46053C4F202031B6803F40033002B03
:10146000EDD100E000BF7B681B6803F00203002B96
:1014700000F0AE807B68DB68002B0BD07B68DB68FC
:10148000012B07D046F22C10C0F6010040F27F116C
:1014900006F036FC7B681B691F2B07D946F22C101F
:1014A000C0F601004FF4C07106F02AFC4FF46053FF
:1014B000C4F202039B6803F00C03002B11D04FF41D
:1014C0006053C4F202039B6803F00C03082B18D18D
:1014D0004FF46053C4F202035B6803F48003002BF3
:1014E0000FD14FF46053C4F202031B6803F00203F0
:1014F000002B6CD07B68DB68012B68D04FF00103B8
:10150000A3E27B68DB68002B40D04FF00003C4F2FD
:1015100047234FF001021A6006F0E6FB034603F191
:101520006403FB6408E006F0DFFB0246FB6C9A42B2
:1015300002D34FF0030388E24FF46053C4F2020376
:101540001B6803F00203002BEDD04FF46053C4F28C
:1015500002034FF46052C4F20202126822F0F80152
:101560007A6810694FF0F802BA64BA6C92FAA2F481
:101570007C647A6C3A643A6CB2FA82F4FC63FA6B7B
:10158000D2B200FA02F20A431A6021E04FF00003DF
:10159000C4F247234FF000021A6006F0A5FB034691
:1015A00003F16403FB6408E006F09EFB0246FB6C5B
:1015B0009A4202D34FF0030347E24FF46053C4F260
:1015C00002031B6803F00203002BEDD100E000BF13
:1015D0007B681B6803F00803002B54D07B685B69B1
:1015E000002B0BD07B685B69012B07D046F22C10D7
:1015F000C0F601004FF4DC7106F082FB7B685B698A
:10160000002B20D04FF46863C4F247234FF001024F
:101610001A6006F069FB034603F16403FB6408E00B
:1016200006F062FB0246FB6C9A4202D34FF00303C2
:101630000BE24FF46053C4F202035B6F03F002034A
:10164000002BEDD01FE04FF46863C4F247234FF046
:1016500000021A6006F048FB034603F16403FB64D2
:1016600008E006F041FB0246FB6C9A4202D34FF0C1
:101670000303EAE14FF46053C4F202035B6F03F02B
:101680000203002BEDD17B681B6803F00403002BE1
:1016900000F0AA807B689B68002B0FD07B689B685A
:1016A000012B0BD07B689B68052B07D046F22C10D2
:1016B000C0F601004FF4F17106F022FB4FF46053C5
:1016C000C4F202034FF46052C4F20202126C42F000
:1016D00080521A644FF4E043C4F200034FF4E04236
:1016E000C4F20002126842F480721A6006F0FCFA3A
:1016F000034603F16403FB6408E006F0F5FA0246D2
:10170000FB6C9A4202D34FF003039EE14FF4E04397
:10171000C4F200031B6803F48073002BEDD043F682
:101720007003C4F202034FF000021A7006F0DCFAF4
:10173000034603F59C5303F10803FB6408E006F03D
:10174000D3FA0246FB6C9A4202D34FF003037CE1CA
:101750004FF46053C4F202031B6F03F00203002B2B
:10176000EDD143F67003C4F202037A689268D2B2F4
:101770001A707B689B68012B1BD106F0B5FA0346F3
:1017800003F59C5303F10803FB6408E006F0ACFA90
:101790000246FB6C9A4202D34FF0030355E14FF42B
:1017A0006053C4F202031B6F03F00203002BEDD061
:1017B0001AE006F099FA034603F59C5303F1080377
:1017C000FB6408E006F090FA0246FB6C9A4202D3F2
:1017D0004FF0030339E14FF46053C4F202031B6F6F
:1017E00003F00203002BEDD17B689B69002B0FD027
:1017F0007B689B69012B0BD07B689B69022B07D010
:1018000046F22C10C0F6010040F2262106F078FACC
:101810007B689B69002B00F016814FF46053C4F283
:1018200002039B6803F00C03082B00F009817B681E
:101830009B69022B40F0E3807B68DB69002B0CD0B6
:101840007B68DB69B3F5800F07D046F22C10C0F639
:10185000010040F22F2106F053FA7B681B6A3F2BF0
:1018600007D946F22C10C0F601004FF40C7106F0B7
:1018700047FA7B685B6ABF2B04D97B685B6AB3F568
:10188000D87F07D946F22C10C0F6010040F2312172
:1018900006F036FA7B689B6A022B13D07B689B6A42
:1018A000042B0FD07B689B6A062B0BD07B689B6A4E
:1018B000082B07D046F22C10C0F6010040F232216E
:1018C00006F01EFA7B68DB6A032B03D97B68DB6AB0
:1018D0000F2B07D946F22C10C0F6010040F233213D
:1018E00006F00EFA4FF06003C4F247234FF00002F7
:1018F0001A6006F0F9F9034603F16403FB6408E09B
:1019000006F0F2F90246FB6C9A4202D34FF0030351
:101910009BE04FF46053C4F202031B6803F00073B2
:10192000002BEDD14FF46053C4F202037A68116AC0
:101930007A68506A47F6C072BA63BA6B92FAA2F438
:101940007C637A6B3A633A6BB2FA82F4FC62FA6AAD
:10195000D2B200FA02F211437A68926A4FEA520256
:1019600002F1FF304FF44032BA62BA6A92FAA2F43E
:101970007C627A6A3A623A6AB2FA82F4FC61FA6983
:10198000D2B200FA02F211437A68D26911437A683E
:10199000D06A4FF07062BA61BA6992FAA2F47C61BF
:1019A0007A693A613A69B2FA82F4FC60FA68D2B2B2
:1019B00000FA02F20A4342F000525A604FF060030C
:1019C000C4F247234FF001021A6006F08DF9034676
:1019D00003F16403FB6408E006F086F90246FB6C41
:1019E0009A4202D34FF003032FE04FF46053C4F246
:1019F00002031B6803F00073002BEDD023E04FF0CF
:101A00006003C4F247234FF000021A6006F06CF93D
:101A1000034603F16403FB6408E006F065F902463F
:101A2000FB6C9A4202D34FF003030EE04FF4605375
:101A3000C4F202031B6803F00073002BEDD102E037
:101A40004FF0010301E04FF00003184607F154077F
:101A5000BD4690BD80B584B000AF786039604FF06E
:101A60000003FB607B681B68002B03D07B681B684E
:101A70000F2B07D946F22C10C0F6010040F2962138
:101A800006F03EF93B68002B34D03B68012B31D087
:101A90003B68022B2ED03B68032B2BD03B68042BDA
:101AA00028D03B68052B25D03B68062B22D03B680D
:101AB000072B1FD03B68082B1CD03B68092B19D083
:101AC0003B680A2B16D03B680B2B13D03B680C2BC2
:101AD00010D03B680D2B0DD03B680E2B0AD03B6815
:101AE0000F2B07D046F22C10C0F6010040F29721D0
:101AF00006F006F94FF47053C4F202031B6803F0BA
:101B00000F023B689A4280F0B7804FF47053C4F2E2
:101B100002033A68D2B21A704FF47053C4F202034F
:101B20001B6803F00F023B689A4202D04FF001039A
:101B300015E27B681B6803F00103DBB2002B00F0A9
:101B400051817B685B68002B0FD07B685B68012B41
:101B50000BD07B685B68022B07D046F22C10C0F6D6
:101B6000010040F2AD2106F0CBF87B685B68012BE9
:101B70000BD14FF46053C4F202031B6803F400332B
:101B8000002B1ED14FF00103E9E17B685B68022B5B
:101B90000BD14FF46053C4F202031B6803F00073CF
:101BA000002B0ED14FF00103D9E14FF46053C4F282
:101BB00002031B6803F00203002B02D14FF0010364
:101BC000CDE14FF46053C4F202034FF46052C4F20B
:101BD0000202926822F003017A6852680A439A600E
:101BE00006F082F8034603F59C5303F10803FB60FB
:101BF0007B685B68012B13D108E006F075F802469C
:101C0000FB689A4202D34FF00303A8E14FF46053FC
:101C1000C4F202039B6803F00C03042BEDD1E1E056
:101C20007B685B68022B1CD108E006F05DF8024679
:101C3000FB689A4202D34FF0030390E14FF46053E4
:101C4000C4F202039B6803F00C03082BEDD1C9E03A
:101C500006F04AF80246FB689A4203D34FF00303AA
:101C60007DE100BF4FF46053C4F202039B6803F0B0
:101C70000C03002BECD1B5E07B681B6803F001037B
:101C8000DBB2002B00F09A807B685B68002B0FD0E2
:101C90007B685B68012B0BD07B685B68022B07D0ED
:101CA00046F22C10C0F6010040F2F52106F028F8AB
:101CB0007B685B68012B0BD14FF46053C4F20203C5
:101CC0001B6803F40033002B1ED14FF0010346E1E3
:101CD0007B685B68022B0BD14FF46053C4F20203A4
:101CE0001B6803F00073002B0ED14FF0010336E1A7
:101CF0004FF46053C4F202031B6803F00203002B8D
:101D000002D14FF001032AE14FF46053C4F2020301
:101D10004FF46052C4F20202926822F003017A6822
:101D200052680A439A6005F0DFFF034603F59C53AF
:101D300003F10803FB607B685B68012B13D108E0AB
:101D400005F0D2FF0246FB689A4202D34FF003032C
:101D500005E14FF46053C4F202039B6803F00C03E7
:101D6000042BEDD12AE07B685B68022B1CD108E0D4
:101D700005F0BAFF0246FB689A4202D34FF0030314
:101D8000EDE04FF46053C4F202039B6803F00C03D0
:101D9000082BEDD112E005F0A7FF0246FB689A423E
:101DA00003D34FF00303DAE000BF4FF46053C4F2F3
:101DB00002039B6803F00C03002BECD14FF470532B
:101DC000C4F202033A68D2B21A704FF47053C4F2EC
:101DD00002031B6803F00F023B689A4202D04FF0E7
:101DE0000103BCE07B681B6803F00203002B3AD0C0
:101DF0007B689B68002B27D07B689B68802B23D057
:101E00007B689B68902B1FD07B689B68A02B1BD0A6
:101E10007B689B68B02B17D07B689B68C02B13D066
:101E20007B689B68D02B0FD07B689B68E02B0BD026
:101E30007B689B68F02B07D046F22C10C0F601009F
:101E400040F2453105F05CFF4FF46053C4F20203E9
:101E50004FF46052C4F20202926822F0F0017A68F4
:101E600092680A439A607B681B6803F00403002BA6
:101E70002ED07B68DB68002B1BD07B68DB68B3F55A
:101E8000805F16D07B68DB68B3F5A05F11D07B68FC
:101E9000DB68B3F5C05F0CD07B68DB68B3F5E05F4F
:101EA00007D046F22C10C0F601004FF4537105F034
:101EB00027FF4FF46053C4F202034FF46052C4F2A0
:101EC0000202926822F4E0517A68D2680A439A606A
:101ED0007B681B6803F00803002B30D07B681B690C
:101EE000002B1BD07B681B69B3F5805F16D07B6825
:101EF0001B69B3F5A05F11D07B681B69B3F5C05FA8
:101F00000CD07B681B69B3F5E05F07D046F22C105C
:101F1000C0F6010040F2533105F0F2FE4FF4605379
:101F2000C4F202034FF46052C4F20202926822F437
:101F300060417A6812694FEAC2020A439A6000F06F
:101F4000D7F8024644F6D353C1F26203A3FB02134F
:101F50004FEA93131846FFF793F94FF00003184622
:101F600007F11007BD4680BD90B494B000AF4FF0AC
:101F700000037B644FF00003FB644FF000033B64FD
:101F80004FF00003BB644FF46053C4F202039B683C
:101F900003F00C03042B0AD0082B0ED0002B40F0CA
:101FA0009A804FF41053C0F2F403BB6499E04FF4ED
:101FB0005853C0F26E13BB6493E04FF46053C4F205
:101FC00002035B6803F03F037B644FF46053C4F289
:101FD00002035B6803F480024FF48003FB63FB6B36
:101FE00093FAA3F4BC63BB6B7B637B6BB3FA83F4A0
:101FF0003C633B6BDBB222FA03F3002B24D04FF49B
:102000005853C0F26E137A6CB3FBF2F24FF4605384
:10201000C4F202035B68194647F6C0730B4047F6EB
:10202000C071F962F96A91FAA1F4BC62B96A796285
:10203000796AB1FA81F43C62396AC9B223FA01F3D0
:1020400003FB02F3FB6423E04FF41053C0F2F403EC
:102050007A6CB3FBF2F24FF46053C4F202035B6894
:10206000194647F6C0730B4047F6C071F961F9692C
:1020700091FAA1F4BC61B96979617969B1FA81F425
:102080003C613969C9B223FA01F303FB02F3FB6433
:102090004FF46053C4F202035B6803F440324FF420
:1020A0004033FB60FB6893FAA3F4BC60BB687B60C1
:1020B0007B68B3FA83F43C603B68DBB222FA03F33B
:1020C00003F101034FEA43033B64FA6C3B6CB2FB40
:1020D000F3F3BB6405E04FF41053C0F2F403BB64A8
:1020E00000BFBB6C184607F15007BD4690BC704757
:1020F00090B585B000AFFFF737FF02464FF460534D
:10210000C4F202039B6803F0F0014FF0F003FB60A0
:10211000FB6893FAA3F4BC60BB687B607B68B3FA8E
:1021200083F43C603B68DBB221FA03F146F21C13F6
:10213000C0F601035B5C22FA03F240F20C03C2F228
:1021400000031A6040F20C03C2F200031B68184639
:1021500007F11407BD4690BD90B587B000AF786019
:1021600039604FF000033B614FF00003FB604FF01C
:102170000003BB603B681B68002B07D146F25C1074
:10218000C0F601004FF0C30105F0BAFD3B685B6883
:10219000002B4BD03B685B68012B47D03B685B68EA
:1021A000112B43D03B685B68022B3FD03B685B68D8
:1021B000122B3BD03B685A684FF00003C1F2110369
:1021C0009A4233D03B685A684FF00003C1F22103B2
:1021D0009A422BD03B685A684FF00003C1F231039A
:1021E0009A4223D03B685A684FF00003C1F21203B1
:1021F0009A421BD03B685A684FF00003C1F2220399
:102200009A4213D03B685A684FF00003C1F2320380
:102210009A420BD03B685B68032B07D046F25C10F8
:10222000C0F601004FF0C40105F06AFD3B689B68F1
:10223000002B0FD03B689B68012B0BD03B689B6841
:10224000022B07D046F25C10C0F601004FF0C5012A
:1022500005F056FD4FF000037B61F5E27B694FF01E
:10226000010202FA03F33B613B681A683B691340C1
:10227000FB60FA683B699A4240F0E2823B685B6827
:10228000022B04D03B685B68122B40F0FA803B685D
:102290001B69002B00F0BB803B681B69092B00F019
:1022A000B6803B681B69002B00F0B1803B681B695E
:1022B000002B00F0AC803B681B69002B00F0A7806E
:1022C0003B681B69002B00F0A2803B681B69012B57
:1022D00000F09D803B681B69012B00F098803B68F3
:1022E0001B69022B00F093803B681B69022B00F0F6
:1022F0008E803B681B69022B00F089803B681B695C
:10230000032B00F084803B681B69042B7FD03B6863
:102310001B69042B7BD03B681B69042B77D03B687F
:102320001B69052B73D03B681B69052B6FD03B687D
:102330001B69092B6BD03B681B69062B67D03B6878
:102340001B69092B63D03B681B69072B5FD03B6877
:102350001B69072B5BD03B681B69072B57D03B6879
:102360001B69082B53D03B681B69082B4FD03B6877
:102370001B69082B4BD03B681B69092B47D03B6876
:102380001B69092B43D03B681B690A2B3FD03B6874
:102390001B690A2B3BD03B681B690B2B37D03B6872
:1023A0001B690C2B33D03B681B690C2B2FD03B686F
:1023B0001B690D2B2BD03B681B690F2B27D03B686B
:1023C0001B69052B23D03B681B69052B1FD03B687D
:1023D0001B69052B1BD03B681B69082B17D03B687A
:1023E0001B69082B13D03B681B690C2B0FD03B6873
:1023F0001B69062B0BD03B681B690E2B07D046F2DE
:102400005C10C0F601004FF0D60105F079FC3B6886
:102410001A697B6903F007034FEA830302FA03F3A7
:10242000BB607B694FEAD3027B694FEAD3017B68CB
:1024300001F1080153F8213019467B6903F00703C5
:102440004FEA83034FF00F0000FA03F36FEA030330
:1024500019407B6802F1080243F822107B694FEAB9
:10246000D3027B694FEAD3017B6801F1080153F87D
:1024700021301946BB6819437B6802F1080243F812
:1024800022107B681B681A467B694FEA43034FF0B2
:10249000030101FA03F36FEA03031A407B681A6031
:1024A0007B681B681A463B685B6803F003017B6925
:1024B0004FEA430301FA03F31A437B681A603B684F
:1024C0005B68012B0BD03B685B68022B07D03B6835
:1024D0005B68112B03D03B685B68122B4FD13B68C4
:1024E000DB68002B13D03B68DB68012B0FD03B6807
:1024F000DB68022B0BD03B68DB68032B07D046F26E
:102500005C10C0F601004FF0E60105F0F9FB7B68B6
:102510009B681A467B694FEA43034FF0030101FAB7
:1025200003F36FEA03031A407B689A607B689B6839
:102530001A463B68D9687B694FEA430301FA03F303
:102540001A437B689A607B685B681A467B694FF028
:10255000010101FA03F36FEA03031A407B685A6032
:102560007B685B681A463B685B6803F010034FEAC0
:1025700013117B6901FA03F31A437B685A607B6885
:10258000DB681A467B694FEA43034FF0030101FA07
:1025900003F36FEA03031A407B68DA607B68DB6849
:1025A0001A463B6899687B694FEA430301FA03F3D3
:1025B0001A437B68DA603B685B6803F08053002B4A
:1025C00000F03E814FF46053C4F202034FF46052B6
:1025D000C4F20202526C42F480425A647B6903F0F6
:1025E00003034FEA83034FF00F0202FA03F3BB60C9
:1025F0004FF46053C4F201037A694FEA92004FF43A
:102600006052C4F2010279694FEA910101F10201BD
:1026100052F821201146BA686FEA0202114000F117
:10262000020243F822104FF46053C4F201037A69A6
:102630004FEA92004FF46052C4F2010279694FEA06
:10264000910101F1020152F8212011467C684FF0FE
:102650000002C4F2020294425CD07C684FF48062B3
:10266000C4F20202944252D07C684FF40062C4F279
:102670000202944248D07C684FF44062C4F20202E5
:1026800094423ED07C684FF48052C4F202029442DD
:1026900034D07C684FF4A052C4F2020294422AD093
:1026A0007C684FF4C052C4F20202944220D07C688D
:1026B0004FF4E052C4F20202944216D07C684FF408
:1026C0000052C4F2020294420CD07C684FF41052C3
:1026D000C4F20202944202D14FF0090201E04FF02D
:1026E0000A0201E04FF0080201E04FF0070201E0AA
:1026F0004FF0060201E04FF0050201E04FF0040246
:1027000001E04FF0030201E04FF0020201E04FF060
:10271000010201E04FF000027C6904F003044FEA7B
:10272000840402FA04F2114300F1020243F8221079
:102730004FF47053C4F201034FF47052C4F201021B
:1027400012681146FA686FEA02020A401A604FF4F2
:102750007053C4F201034FF47052C4F20102526884
:102760001146FA686FEA02020A405A603B685B68E9
:1027700003F48033002B0CD04FF47053C4F20103E8
:102780004FF47052C4F2010212681146FA680A430B
:102790001A603B685B6803F40033002B0CD04FF4E5
:1027A0007053C4F201034FF47052C4F20102526834
:1027B0001146FA680A435A604FF47053C4F2010399
:1027C0004FF47052C4F2010292681146FA686FEA3F
:1027D00002020A409A604FF47053C4F201034FF4AE
:1027E0007052C4F20102D2681146FA686FEA02021E
:1027F0000A40DA603B685B6803F48013002B0CD05E
:102800004FF47053C4F201034FF47052C4F201024A
:1028100092681146FA680A439A603B685B6803F461
:102820000013002B0CD04FF47053C4F201034FF48B
:102830007052C4F20102D2681146FA680A43DA60A3
:102840007B6903F101037B617B690F2B7FF606AD8A
:1028500007F11C07BD4690BD80B584B000AF78601D
:102860000B467B807B88012B3CD07B88022B39D0A8
:102870007B88042B36D07B88082B33D07B88102BA9
:1028800030D07B88202B2DD07B88402B2AD07B8892
:10289000802B27D07B88B3F5807F23D07B88B3F54E
:1028A000007F1FD07B88B3F5806F1BD07B88B3F58A
:1028B000006F17D07B88B3F5805F13D07B88B3F5AA
:1028C000005F0FD07B88B3F5804F0BD07B88B3F5CA
:1028D000004F07D046F25C10C0F6010040F27511BF
:1028E00005F00EFA7B681B691A467B881340002BA3
:1028F00003D04FF00103FB7302E04FF00003FB73C2
:10290000FB7B184607F11007BD4680BD80B582B03D
:1029100000AF786013460A467A807B707B88012B73
:102920003CD07B88022B39D07B88042B36D07B8827
:10293000082B33D07B88102B30D07B88202B2DD0D8
:102940007B88402B2AD07B88802B27D07B88B3F5CF
:10295000807F23D07B88B3F5007F1FD07B88B3F5C1
:10296000806F1BD07B88B3F5006F17D07B88B3F5E1
:10297000805F13D07B88B3F5005F0FD07B88B3F501
:10298000804F0BD07B88B3F5004F07D046F25C1028
:10299000C0F601004FF4CB7105F0B2F97B78002B43
:1029A0000AD07B78012B07D046F25C10C0F60100FC
:1029B00040F2971105F0A4F97B78002B03D07B68D7
:1029C0007A881A8302E07B687A885A8307F10807BD
:1029D000BD4680BD80B584B000AF78604FF0000385
:1029E000FB607B68002B02D14FF0010309E27B689A
:1029F0001A6846F21003C4F202039A427FD07B6841
:102A00001A6846F22803C4F202039A4277D07B6820
:102A10001A6846F24003C4F202039A426FD07B6800
:102A20001A6846F25803C4F202039A4267D07B68E0
:102A30001A6846F27003C4F202039A425FD07B68C0
:102A40001A6846F28803C4F202039A4257D07B68A0
:102A50001A6846F2A003C4F202039A424FD07B6880
:102A60001A6846F2B803C4F202039A4247D07B6860
:102A70001A6846F21043C4F202039A423FD07B68C0
:102A80001A6846F22843C4F202039A4237D07B68A0
:102A90001A6846F24043C4F202039A422FD07B6880
:102AA0001A6846F25843C4F202039A4227D07B6860
:102AB0001A6846F27043C4F202039A421FD07B6840
:102AC0001A6846F28843C4F202039A4217D07B6820
:102AD0001A6846F2A043C4F202039A420FD07B6800
:102AE0001A6846F2B843C4F202039A4207D046F28B
:102AF0008C10C0F601004FF0B50105F001F97B68BC
:102B00005B68002B2AD07B685B68B3F1007F25D01F
:102B10007B685B68B3F1806F20D07B685B68B3F142
:102B2000C06F1BD07B685B68B3F1006F16D07B6809
:102B30005B68B3F1206F11D07B685B68B3F1406FC5
:102B40000CD07B685B68B3F1606F07D046F28C10E5
:102B5000C0F601004FF0B60105F0D2F87B689B6823
:102B6000002B0FD07B689B68402B0BD07B689B6849
:102B7000802B07D046F28C10C0F601004FF0B70151
:102B800005F0BEF87B68DB68B3F5007F0BD07B688F
:102B9000DB68002B07D046F28C10C0F601004FF026
:102BA000B80105F0ADF87B681B69B3F5806F0BD0F9
:102BB0007B681B69002B07D046F28C10C0F6010021
:102BC0004FF0B90105F09CF87B685B69002B11D0D0
:102BD0007B685B69B3F5006F0CD07B685B69B3F50C
:102BE000805F07D046F28C10C0F601004FF0BA01AA
:102BF00005F086F87B689B69002B11D07B689B6988
:102C0000B3F5005F0CD07B689B69B3F5804F07D0AC
:102C100046F28C10C0F601004FF0BB0105F070F8D1
:102C20007B68DB69002B10D07B68DB69B3F5807FA4
:102C30000BD07B68DB69202B07D046F28C10C0F6E6
:102C400001004FF0BC0105F05BF87B681B6A002BAC
:102C500016D07B681B6AB3F5803F11D07B681B6A76
:102C6000B3F5003F0CD07B681B6AB3F5403F07D03B
:102C700046F28C10C0F601004FF0BD0105F040F89F
:102C80007B685B6A002B0BD07B685B6A042B07D0E8
:102C900046F28C10C0F601004FF0BE0105F030F88E
:102CA0007B685B6A002B4DD07B689B6A002B13D03E
:102CB0007B689B6A012B0FD07B689B6A022B0BD031
:102CC0007B689B6A032B07D046F28C10C0F601008C
:102CD0004FF0C30105F014F87B68DB6A002B16D0B7
:102CE0007B68DB6AB3F5000F11D07B68DB6AB3F158
:102CF000807F0CD07B68DB6AB3F1C07F07D046F2DF
:102D00008C10C0F601004FF0C40104F0F9FF7B689D
:102D10001B6B002B16D07B681B6BB3F5001F11D00B
:102D20007B681B6BB3F5800F0CD07B681B6BB3F516
:102D3000C00F07D046F28C10C0F601004FF0C5015D
:102D400004F0DEFF7B684FF0020283F835207B68D9
:102D50001B681B68FB60FA6848F23F03CFF214035C
:102D60001340FB607B685A687B689B681A437B68EA
:102D7000DB681A437B681B691A437B685B691A43EB
:102D80007B689B691A437B68DB691A437B681B6A13
:102D90001343FA681343FB607B685B6A042B07D11B
:102DA0007B68DA6A7B681B6B1343FA681343FB602A
:102DB0007B681B68FA681A607B681B685B69FB604C
:102DC000FB6823F00703FB607B685B6AFA681343C8
:102DD000FB607B685B6A042B04D17B689B6AFA68A2
:102DE0001343FB607B681B68FA685A617B684FF08D
:102DF0000002DA647B684FF0010283F835204FF05F
:102E00000003184607F11007BD4680BD80B582B0AB
:102E100000AF78607B681B681A4646F25843C4F2DC
:102E200002039A4240F293804FF4C843C4F2020373
:102E30005B681A467B68196846F21003C4F2020305
:102E400099427BD07B68196846F21043C4F20203B2
:102E5000994270D07B68196846F27003C4F202038D
:102E6000994265D07B68196846F27043C4F2020348
:102E700099425AD07B68196846F22803C4F20203CB
:102E800099424FD07B68196846F22843C4F2020386
:102E9000994244D07B68196846F28803C4F2020361
:102EA000994239D07B68196846F28843C4F202031C
:102EB00099422ED07B68196846F24003C4F202039F
:102EC000994223D07B68196846F24043C4F202035A
:102ED000994218D07B68196846F2A003C4F2020335
:102EE00099420DD07B68196846F2A043C4F20203F0
:102EF000994202D14FF4002301E04FF0007301E04A
:102F00004FF4002301E04FF4002301E04FF40023CD
:102F100001E04FF4007301E04FF4007301E04FF45F
:102F2000007301E04FF4007301E04FF0080301E08B
:102F30004FF0080301E04FF0080301E04FF00803F1
:102F40001340002B0CBF00230123DBB2CBE17B68D5
:102F50001B681A4646F2B803C4F202039A4240F2D2
:102F600093804FF4C843C4F202031B681A467B687F
:102F7000196846F21003C4F2020399427BD07B68C1
:102F8000196846F21043C4F20203994270D07B687C
:102F9000196846F27003C4F20203994265D07B6857
:102FA000196846F27043C4F2020399425AD07B6812
:102FB000196846F22803C4F2020399424FD07B6895
:102FC000196846F22843C4F20203994244D07B6850
:102FD000196846F28803C4F20203994239D07B682B
:102FE000196846F28843C4F2020399422ED07B68E6
:102FF000196846F24003C4F20203994223D07B6869
:10300000196846F24043C4F20203994218D07B6823
:10301000196846F2A003C4F2020399420DD07B68FE
:10302000196846F2A043C4F20203994202D14FF458
:10303000002301E04FF0007301E04FF4002301E0B2
:103040004FF4002301E04FF4002301E04FF400733C
:1030500001E04FF4007301E04FF4007301E04FF41E
:10306000007301E04FF0080301E04FF0080301E0B6
:103070004FF0080301E04FF008031340002B0CBF92
:1030800000230123DBB22EE17B681B681A4646F25F
:103090005803C4F202039A4240F293804FF4C043B3
:1030A000C4F202035B681A467B68196846F2100393
:1030B000C4F2020399427BD07B68196846F2104340
:1030C000C4F20203994270D07B68196846F270031B
:1030D000C4F20203994265D07B68196846F27043D6
:1030E000C4F2020399425AD07B68196846F2280359
:1030F000C4F2020399424FD07B68196846F2284314
:10310000C4F20203994244D07B68196846F28803EE
:10311000C4F20203994239D07B68196846F28843A9
:10312000C4F2020399422ED07B68196846F240032C
:10313000C4F20203994223D07B68196846F24043E7
:10314000C4F20203994218D07B68196846F2A003C2
:10315000C4F2020399420DD07B68196846F2A0437D
:10316000C4F20203994202D14FF4002301E04FF070
:10317000007301E04FF4002301E04FF4002301E06D
:103180004FF4002301E04FF4007301E04FF40073AB
:1031900001E04FF4007301E04FF4007301E04FF0E1
:1031A000080301E04FF0080301E04FF0080301E0DD
:1031B0004FF008031340002B0CBF00230123DBB2A8
:1031C00091E04FF4C043C4F202031B681A467B68C7
:1031D000196846F21003C4F2020399427BD07B685F
:1031E000196846F21043C4F20203994270D07B681A
:1031F000196846F27003C4F20203994265D07B68F5
:10320000196846F27043C4F2020399425AD07B68AF
:10321000196846F22803C4F2020399424FD07B6832
:10322000196846F22843C4F20203994244D07B68ED
:10323000196846F28803C4F20203994239D07B68C8
:10324000196846F28843C4F2020399422ED07B6883
:10325000196846F24003C4F20203994223D07B6806
:10326000196846F24043C4F20203994218D07B68C1
:10327000196846F2A003C4F2020399420DD07B689C
:10328000196846F2A043C4F20203994202D14FF4F6
:10329000002301E04FF0007301E04FF4002301E050
:1032A0004FF4002301E04FF4002301E04FF40073DA
:1032B00001E04FF4007301E04FF4007301E04FF4BC
:1032C000007301E04FF0080301E04FF0080301E054
:1032D0004FF0080301E04FF008031340002B0CBF30
:1032E00000230123DBB2002B00F091827B681B6876
:1032F0001B6803F00403002B00F089827B681B68C5
:103300007A681268126822F004021A607B681B68EF
:103310001A4646F25843C4F202039A4240F293809E
:103320004FF4C843C4F202034FF4C842C4F202028D
:10333000D26811467A68106846F21002C4F202029E
:1033400090427BD07A68106846F21042C4F20202C2
:10335000904270D07A68106846F27002C4F202029D
:10336000904265D07A68106846F27042C4F2020258
:1033700090425AD07A68106846F22802C4F20202DB
:1033800090424FD07A68106846F22842C4F2020296
:10339000904244D07A68106846F28802C4F2020271
:1033A000904239D07A68106846F28842C4F202022C
:1033B00090422ED07A68106846F24002C4F20202AF
:1033C000904223D07A68106846F24042C4F202026A
:1033D000904218D07A68106846F2A002C4F2020245
:1033E00090420DD07A68106846F2A042C4F2020200
:1033F000904202D14FF4002201E04FF0007201E050
:103400004FF4002201E04FF4002201E04FF40022CB
:1034100001E04FF4007201E04FF4007201E04FF45C
:10342000007201E04FF4007201E04FF0080201E089
:103430004FF0080201E04FF0080201E04FF00802EF
:103440000A43DA60CBE17B681B681A4646F2B80390
:10345000C4F202039A4240F293804FF4C843C4F28C
:1034600002034FF4C842C4F20202926811467A681D
:10347000106846F21002C4F2020290427BD07A68D1
:10348000106846F21042C4F20202904270D07A688C
:10349000106846F27002C4F20202904265D07A6867
:1034A000106846F27042C4F2020290425AD07A6822
:1034B000106846F22802C4F2020290424FD07A68A5
:1034C000106846F22842C4F20202904244D07A6860
:1034D000106846F28802C4F20202904239D07A683B
:1034E000106846F28842C4F2020290422ED07A68F6
:1034F000106846F24002C4F20202904223D07A6879
:10350000106846F24042C4F20202904218D07A6833
:10351000106846F2A002C4F2020290420DD07A680E
:10352000106846F2A042C4F20202904202D14FF467
:10353000002201E04FF0007201E04FF4002201E0B0
:103540004FF4002201E04FF4002201E04FF400723A
:1035500001E04FF4007201E04FF4007201E04FF41B
:10356000007201E04FF0080201E04FF0080201E0B4
:103570004FF0080201E04FF008020A439A602EE182
:103580007B681B681A4646F25803C4F202039A424B
:1035900040F293804FF4C043C4F202034FF4C042A0
:1035A000C4F20202D26811467A68106846F210022C
:1035B000C4F2020290427BD07A68106846F2104250
:1035C000C4F20202904270D07A68106846F270022B
:1035D000C4F20202904265D07A68106846F27042E6
:1035E000C4F2020290425AD07A68106846F2280269
:1035F000C4F2020290424FD07A68106846F2284224
:10360000C4F20202904244D07A68106846F28802FE
:10361000C4F20202904239D07A68106846F28842B9
:10362000C4F2020290422ED07A68106846F240023C
:10363000C4F20202904223D07A68106846F24042F7
:10364000C4F20202904218D07A68106846F2A002D2
:10365000C4F2020290420DD07A68106846F2A0428D
:10366000C4F20202904202D14FF4002201E04FF076
:10367000007201E04FF4002201E04FF4002201E06B
:103680004FF4002201E04FF4007201E04FF40072A9
:1036900001E04FF4007201E04FF4007201E04FF0DE
:1036A000080201E04FF0080201E04FF0080201E0DB
:1036B0004FF008020A43DA6091E04FF4C043C4F2CD
:1036C00002034FF4C042C4F20202926811467A68C3
:1036D000106846F21002C4F2020290427BD07A686F
:1036E000106846F21042C4F20202904270D07A682A
:1036F000106846F27002C4F20202904265D07A6805
:10370000106846F27042C4F2020290425AD07A68BF
:10371000106846F22802C4F2020290424FD07A6842
:10372000106846F22842C4F20202904244D07A68FD
:10373000106846F28802C4F20202904239D07A68D8
:10374000106846F28842C4F2020290422ED07A6893
:10375000106846F24002C4F20202904223D07A6816
:10376000106846F24042C4F20202904218D07A68D1
:10377000106846F2A002C4F2020290420DD07A68AC
:10378000106846F2A042C4F20202904202D14FF405
:10379000002201E04FF0007201E04FF4002201E04E
:1037A0004FF4002201E04FF4002201E04FF40072D8
:1037B00001E04FF4007201E04FF4007201E04FF4B9
:1037C000007201E04FF0080201E04FF0080201E052
:1037D0004FF0080201E04FF008020A439A607B684C
:1037E000DB6C43F001027B68DA647B684FF0040213
:1037F00083F835207B684FF0000283F834207B6823
:103800009B6C002B03D07B689B6C786898477B6827
:103810001B681A4646F25843C4F202039A4240F229
:103820009C804FF4C843C4F202035B681A467B686D
:10383000196846F21003C4F20203994200F0828034
:103840007B68196846F21043C4F20203994274D0AF
:103850007B68196846F27003C4F20203994267D08C
:103860007B68196846F27043C4F2020399425AD049
:103870007B68196846F22803C4F2020399424FD0CC
:103880007B68196846F22843C4F20203994244D087
:103890007B68196846F28803C4F20203994239D062
:1038A0007B68196846F28843C4F2020399422ED01D
:1038B0007B68196846F24003C4F20203994223D0A0
:1038C0007B68196846F24043C4F20203994218D05B
:1038D0007B68196846F2A003C4F2020399420DD036
:1038E0007B68196846F2A043C4F20203994202D1F0
:1038F0004FF4803301E04FF4800301E04FF4803354
:1039000001E04FF4803301E04FF4803301E04FF0E9
:10391000400301E04FF0400301E04FF0400301E0BD
:103920004FF0400303E04FF00103C0F2800303E0D7
:103930004FF00103C0F2800303E04FF00103C0F237
:10394000800303E04FF00103C0F280031340002B1B
:103950000CBF00230123DBB2E6E17B681B681A463B
:1039600046F2B803C4F202039A4240F29C804FF43C
:10397000C843C4F202031B681A467B68196846F202
:103980001003C4F20203994200F082807B68196838
:1039900046F21043C4F20203994274D07B6819685E
:1039A00046F27003C4F20203994267D07B6819683B
:1039B00046F27043C4F2020399425AD07B681968F8
:1039C00046F22803C4F2020399424FD07B6819687B
:1039D00046F22843C4F20203994244D07B68196836
:1039E00046F28803C4F20203994239D07B68196811
:1039F00046F28843C4F2020399422ED07B681968CC
:103A000046F24003C4F20203994223D07B6819684E
:103A100046F24043C4F20203994218D07B68196809
:103A200046F2A003C4F2020399420DD07B681968E4
:103A300046F2A043C4F20203994202D14FF480330C
:103A400001E04FF4800301E04FF4803301E04FF4D4
:103A5000803301E04FF4803301E04FF0400301E098
:103A60004FF0400301E04FF0400301E04FF040030E
:103A700003E04FF00103C0F2800303E04FF00103C5
:103A8000C0F2800303E04FF00103C0F2800303E0C3
:103A90004FF00103C0F280031340002B0CBF002342
:103AA0000123DBB240E17B681B681A4646F25803EB
:103AB000C4F202039A4240F29C804FF4C043C4F225
:103AC00002035B681A467B68196846F21003C4F269
:103AD0000203994200F082807B68196846F2104325
:103AE000C4F20203994274D07B68196846F27003ED
:103AF000C4F20203994267D07B68196846F27043AA
:103B0000C4F2020399425AD07B68196846F228032E
:103B1000C4F2020399424FD07B68196846F22843E9
:103B2000C4F20203994244D07B68196846F28803C4
:103B3000C4F20203994239D07B68196846F288437F
:103B4000C4F2020399422ED07B68196846F2400302
:103B5000C4F20203994223D07B68196846F24043BD
:103B6000C4F20203994218D07B68196846F2A00398
:103B7000C4F2020399420DD07B68196846F2A04353
:103B8000C4F20203994202D14FF4803301E04FF4B2
:103B9000800301E04FF4803301E04FF4803301E013
:103BA0004FF4803301E04FF0400301E04FF0400359
:103BB00001E04FF0400301E04FF0400303E04FF01D
:103BC0000103C0F2800303E04FF00103C0F2800361
:103BD00003E04FF00103C0F2800303E04FF0010364
:103BE000C0F280031340002B0CBF00230123DBB283
:103BF0009AE04FF4C043C4F202031B681A467B6884
:103C0000196846F21003C4F20203994200F0828060
:103C10007B68196846F21043C4F20203994274D0DB
:103C20007B68196846F27003C4F20203994267D0B8
:103C30007B68196846F27043C4F2020399425AD075
:103C40007B68196846F22803C4F2020399424FD0F8
:103C50007B68196846F22843C4F20203994244D0B3
:103C60007B68196846F28803C4F20203994239D08E
:103C70007B68196846F28843C4F2020399422ED049
:103C80007B68196846F24003C4F20203994223D0CC
:103C90007B68196846F24043C4F20203994218D087
:103CA0007B68196846F2A003C4F2020399420DD062
:103CB0007B68196846F2A043C4F20203994202D11C
:103CC0004FF4803301E04FF4800301E04FF4803380
:103CD00001E04FF4803301E04FF4803301E04FF016
:103CE000400301E04FF0400301E04FF0400301E0EA
:103CF0004FF0400303E04FF00103C0F2800303E004
:103D00004FF00103C0F2800303E04FF00103C0F263
:103D1000800303E04FF00103C0F280031340002B47
:103D20000CBF00230123DBB2002B00F0B5827B68BF
:103D30001B685B6903F08003002B00F0AD827B6899
:103D40001B687A681268526922F080025A617B68A7
:103D50001B681A4646F25843C4F202039A4240F2E4
:103D60009C804FF4C842C4F202024FF4C843C4F22C
:103D70000203DB6819467B68186846F21003C4F238
:103D80000203984200F082807B68186846F2104374
:103D9000C4F20203984274D07B68186846F270033C
:103DA000C4F20203984267D07B68186846F27043F9
:103DB000C4F2020398425AD07B68186846F228037E
:103DC000C4F2020398424FD07B68186846F2284339
:103DD000C4F20203984244D07B68186846F2880314
:103DE000C4F20203984239D07B68186846F28843CF
:103DF000C4F2020398422ED07B68186846F2400352
:103E0000C4F20203984223D07B68186846F240430C
:103E1000C4F20203984218D07B68186846F2A003E7
:103E2000C4F2020398420DD07B68186846F2A043A2
:103E3000C4F20203984202D14FF4803301E04FF400
:103E4000800301E04FF4803301E04FF4803301E060
:103E50004FF4803301E04FF0400301E04FF04003A6
:103E600001E04FF0400301E04FF0400303E04FF06A
:103E70000103C0F2800303E04FF00103C0F28003AE
:103E800003E04FF00103C0F2800303E04FF00103B1
:103E9000C0F280030B43D360E6E17B681B681A46DF
:103EA00046F2B803C4F202039A4240F29C804FF4F7
:103EB000C842C4F202024FF4C843C4F202039B6832
:103EC00019467B68186846F21003C4F20203984250
:103ED00000F082807B68186846F21043C4F2020347
:103EE000984274D07B68186846F27003C4F20203EB
:103EF000984267D07B68186846F27043C4F20203A8
:103F000098425AD07B68186846F22803C4F202032C
:103F100098424FD07B68186846F22843C4F20203E7
:103F2000984244D07B68186846F28803C4F20203C2
:103F3000984239D07B68186846F28843C4F202037D
:103F400098422ED07B68186846F24003C4F2020300
:103F5000984223D07B68186846F24043C4F20203BB
:103F6000984218D07B68186846F2A003C4F2020396
:103F700098420DD07B68186846F2A043C4F2020351
:103F8000984202D14FF4803301E04FF4800301E006
:103F90004FF4803301E04FF4803301E04FF480337D
:103FA00001E04FF0400301E04FF0400301E04FF02B
:103FB000400301E04FF0400303E04FF00103C0F283
:103FC000800303E04FF00103C0F2800303E04FF0F1
:103FD0000103C0F2800303E04FF00103C0F280034D
:103FE0000B43936040E17B681B681A4646F2580316
:103FF000C4F202039A4240F29C804FF4C042C4F2E1
:1040000002024FF4C043C4F20203DB6819467B6826
:10401000186846F21003C4F20203984200F082804E
:104020007B68186846F21043C4F20203984274D0C9
:104030007B68186846F27003C4F20203984267D0A6
:104040007B68186846F27043C4F2020398425AD063
:104050007B68186846F22803C4F2020398424FD0E6
:104060007B68186846F22843C4F20203984244D0A1
:104070007B68186846F28803C4F20203984239D07C
:104080007B68186846F28843C4F2020398422ED037
:104090007B68186846F24003C4F20203984223D0BA
:1040A0007B68186846F24043C4F20203984218D075
:1040B0007B68186846F2A003C4F2020398420DD050
:1040C0007B68186846F2A043C4F20203984202D10A
:1040D0004FF4803301E04FF4800301E04FF480336C
:1040E00001E04FF4803301E04FF4803301E04FF002
:1040F000400301E04FF0400301E04FF0400301E0D6
:104100004FF0400303E04FF00103C0F2800303E0EF
:104110004FF00103C0F2800303E04FF00103C0F24F
:10412000800303E04FF00103C0F280030B43D36030
:104130009AE04FF4C042C4F202024FF4C043C4F20A
:1041400002039B6819467B68186846F21003C4F2A4
:104150000203984200F082807B68186846F21043A0
:10416000C4F20203984274D07B68186846F2700368
:10417000C4F20203984267D07B68186846F2704325
:10418000C4F2020398425AD07B68186846F22803AA
:10419000C4F2020398424FD07B68186846F2284365
:1041A000C4F20203984244D07B68186846F2880340
:1041B000C4F20203984239D07B68186846F28843FB
:1041C000C4F2020398422ED07B68186846F240037E
:1041D000C4F20203984223D07B68186846F2404339
:1041E000C4F20203984218D07B68186846F2A00314
:1041F000C4F2020398420DD07B68186846F2A043CF
:10420000C4F20203984202D14FF4803301E04FF42C
:10421000800301E04FF4803301E04FF4803301E08C
:104220004FF4803301E04FF0400301E04FF04003D2
:1042300001E04FF0400301E04FF0400303E04FF096
:104240000103C0F2800303E04FF00103C0F28003DA
:1042500003E04FF00103C0F2800303E04FF00103DD
:10426000C0F280030B4393607B68DB6C43F0020277
:104270007B68DA647B684FF0040283F835207B6842
:104280004FF0000283F834207B689B6C002B03D036
:104290007B689B6C786898477B681B681A4646F277
:1042A0005843C4F202039A4240F29C804FF4C84340
:1042B000C4F202035B681A467B68196846F2100371
:1042C000C4F20203994200F082807B68196846F2CA
:1042D0001043C4F20203994274D07B68196846F215
:1042E0007003C4F20203994267D07B68196846F2F2
:1042F0007043C4F2020399425AD07B68196846F2AF
:104300002803C4F2020399424FD07B68196846F231
:104310002843C4F20203994244D07B68196846F2EC
:104320008803C4F20203994239D07B68196846F2C7
:104330008843C4F2020399422ED07B68196846F282
:104340004003C4F20203994223D07B68196846F205
:104350004043C4F20203994218D07B68196846F2C0
:10436000A003C4F2020399420DD07B68196846F29B
:10437000A043C4F20203994202D14FF4802301E02A
:104380004FF0807301E04FF4802301E04FF480236D
:1043900001E04FF4802301E04FF4807301E04FF41B
:1043A000807301E04FF4807301E04FF4807303E009
:1043B0004FF00403C0F2800303E04FF00403C0F2A7
:1043C000800303E04FF00403C0F2800303E04FF0EA
:1043D0000403C0F280031340002B0CBF0023012311
:1043E000DBB2E6E17B681B681A4646F2B803C4F20A
:1043F00002039A4240F29C804FF4C843C4F2020385
:104400001B681A467B68196846F21003C4F202035F
:10441000994200F082807B68196846F21043C4F22A
:104420000203994274D07B68196846F27003C4F2A3
:104430000203994267D07B68196846F27043C4F260
:10444000020399425AD07B68196846F22803C4F2E5
:10445000020399424FD07B68196846F22843C4F2A0
:104460000203994244D07B68196846F28803C4F27B
:104470000203994239D07B68196846F28843C4F236
:10448000020399422ED07B68196846F24003C4F2B9
:104490000203994223D07B68196846F24043C4F274
:1044A0000203994218D07B68196846F2A003C4F24F
:1044B000020399420DD07B68196846F2A043C4F20A
:1044C0000203994202D14FF4802301E04FF0807340
:1044D00001E04FF4802301E04FF4802301E04FF42A
:1044E000802301E04FF4807301E04FF4807301E01A
:1044F0004FF4807301E04FF4807303E04FF0040346
:10450000C0F2800303E04FF00403C0F2800303E035
:104510004FF00403C0F2800303E04FF00403C0F245
:1045200080031340002B0CBF00230123DBB240E1CA
:104530007B681B681A4646F25803C4F202039A428B
:1045400040F29C804FF4C043C4F202035B681A46F9
:104550007B68196846F21003C4F20203994200F026
:1045600082807B68196846F21043C4F202039942C4
:1045700074D07B68196846F27003C4F20203994252
:1045800067D07B68196846F27043C4F2020399420F
:104590005AD07B68196846F22803C4F20203994294
:1045A0004FD07B68196846F22843C4F2020399424F
:1045B00044D07B68196846F28803C4F2020399422A
:1045C00039D07B68196846F28843C4F202039942E5
:1045D0002ED07B68196846F24003C4F20203994268
:1045E00023D07B68196846F24043C4F20203994223
:1045F00018D07B68196846F2A003C4F202039942FE
:104600000DD07B68196846F2A043C4F202039942B8
:1046100002D14FF4802301E04FF0807301E04FF4AA
:10462000802301E04FF4802301E04FF4802301E078
:104630004FF4807301E04FF4807301E04FF4807316
:1046400001E04FF4807303E04FF00403C0F28003F5
:1046500003E04FF00403C0F2800303E04FF00403D3
:10466000C0F2800303E04FF00403C0F28003134064
:10467000002B0CBF00230123DBB29AE04FF4C043B0
:10468000C4F202031B681A467B68196846F21003DD
:10469000C4F20203994200F082807B68196846F2F6
:1046A0001043C4F20203994274D07B68196846F241
:1046B0007003C4F20203994267D07B68196846F21E
:1046C0007043C4F2020399425AD07B68196846F2DB
:1046D0002803C4F2020399424FD07B68196846F25E
:1046E0002843C4F20203994244D07B68196846F219
:1046F0008803C4F20203994239D07B68196846F2F4
:104700008843C4F2020399422ED07B68196846F2AE
:104710004003C4F20203994223D07B68196846F231
:104720004043C4F20203994218D07B68196846F2EC
:10473000A003C4F2020399420DD07B68196846F2C7
:10474000A043C4F20203994202D14FF4802301E056
:104750004FF0807301E04FF4802301E04FF4802399
:1047600001E04FF4802301E04FF4807301E04FF447
:10477000807301E04FF4807301E04FF4807303E035
:104780004FF00403C0F2800303E04FF00403C0F2D3
:10479000800303E04FF00403C0F2800303E04FF016
:1047A0000403C0F280031340002B0CBF002301233D
:1047B000DBB2002B00F0B5827B681B681B6803F03E
:1047C0000203002B00F0AD827B681B687A681268D8
:1047D000126822F002021A607B681B681A4646F2D1
:1047E0005843C4F202039A4240F29C804FF4C842FC
:1047F000C4F202024FF4C843C4F20203DB68194654
:104800007B68186846F21003C4F20203984200F075
:1048100082807B68186846F21043C4F20203984213
:1048200074D07B68186846F27003C4F202039842A1
:1048300067D07B68186846F27043C4F2020398425E
:104840005AD07B68186846F22803C4F202039842E3
:104850004FD07B68186846F22843C4F2020398429E
:1048600044D07B68186846F28803C4F20203984279
:1048700039D07B68186846F28843C4F20203984234
:104880002ED07B68186846F24003C4F202039842B7
:1048900023D07B68186846F24043C4F20203984272
:1048A00018D07B68186846F2A003C4F2020398424D
:1048B0000DD07B68186846F2A043C4F20203984208
:1048C00002D14FF4802301E04FF0807301E04FF4F8
:1048D000802301E04FF4802301E04FF4802301E0C6
:1048E0004FF4807301E04FF4807301E04FF4807364
:1048F00001E04FF4807303E04FF00403C0F2800343
:1049000003E04FF00403C0F2800303E04FF0040320
:10491000C0F2800303E04FF00403C0F280030B43B6
:10492000D360E6E17B681B681A4646F2B803C4F21E
:1049300002039A4240F29C804FF4C842C4F2020241
:104940004FF4C843C4F202039B6819467B68186899
:1049500046F21003C4F20203984200F082807B68A2
:10496000186846F21043C4F20203984274D07B6880
:10497000186846F27003C4F20203984267D07B685D
:10498000186846F27043C4F2020398425AD07B681A
:10499000186846F22803C4F2020398424FD07B689D
:1049A000186846F22843C4F20203984244D07B6858
:1049B000186846F28803C4F20203984239D07B6833
:1049C000186846F28843C4F2020398422ED07B68EE
:1049D000186846F24003C4F20203984223D07B6871
:1049E000186846F24043C4F20203984218D07B682C
:1049F000186846F2A003C4F2020398420DD07B6807
:104A0000186846F2A043C4F20203984202D14FF460
:104A1000802301E04FF0807301E04FF4802301E038
:104A20004FF4802301E04FF4802301E04FF48073C2
:104A300001E04FF4807301E04FF4807301E04FF424
:104A4000807303E04FF00403C0F2800303E04FF0F3
:104A50000403C0F2800303E04FF00403C0F28003BC
:104A600003E04FF00403C0F280030B43936040E186
:104A70007B681B681A4646F25803C4F202039A4246
:104A800040F29C804FF4C042C4F202024FF4C04393
:104A9000C4F20203DB6819467B68186846F210030B
:104AA000C4F20203984200F082807B68186846F2E4
:104AB0001043C4F20203984274D07B68186846F22F
:104AC0007003C4F20203984267D07B68186846F20C
:104AD0007043C4F2020398425AD07B68186846F2C9
:104AE0002803C4F2020398424FD07B68186846F24C
:104AF0002843C4F20203984244D07B68186846F207
:104B00008803C4F20203984239D07B68186846F2E1
:104B10008843C4F2020398422ED07B68186846F29C
:104B20004003C4F20203984223D07B68186846F21F
:104B30004043C4F20203984218D07B68186846F2DA
:104B4000A003C4F2020398420DD07B68186846F2B5
:104B5000A043C4F20203984202D14FF4802301E043
:104B60004FF0807301E04FF4802301E04FF4802385
:104B700001E04FF4802301E04FF4807301E04FF433
:104B8000807301E04FF4807301E04FF4807303E021
:104B90004FF00403C0F2800303E04FF00403C0F2BF
:104BA000800303E04FF00403C0F2800303E04FF002
:104BB0000403C0F280030B43D3609AE04FF4C04279
:104BC000C4F202024FF4C043C4F202039B681946C8
:104BD0007B68186846F21003C4F20203984200F0A2
:104BE00082807B68186846F21043C4F20203984240
:104BF00074D07B68186846F27003C4F202039842CE
:104C000067D07B68186846F27043C4F2020398428A
:104C10005AD07B68186846F22803C4F2020398420F
:104C20004FD07B68186846F22843C4F202039842CA
:104C300044D07B68186846F28803C4F202039842A5
:104C400039D07B68186846F28843C4F20203984260
:104C50002ED07B68186846F24003C4F202039842E3
:104C600023D07B68186846F24043C4F2020398429E
:104C700018D07B68186846F2A003C4F20203984279
:104C80000DD07B68186846F2A043C4F20203984234
:104C900002D14FF4802301E04FF0807301E04FF424
:104CA000802301E04FF4802301E04FF4802301E0F2
:104CB0004FF4807301E04FF4807301E04FF4807390
:104CC00001E04FF4807303E04FF00403C0F280036F
:104CD00003E04FF00403C0F2800303E04FF004034D
:104CE000C0F2800303E04FF00403C0F280030B43E3
:104CF00093607B68DB6C43F004027B68DA647B685A
:104D00004FF0040283F835207B684FF0000283F8EF
:104D100034207B689B6C002B03D07B689B6C78688D
:104D200098477B681B681A4646F25843C4F2020350
:104D30009A4240F293804FF4C843C4F202035B6886
:104D40001A467B68196846F21003C4F202039942BE
:104D50007BD07B68196846F21043C4F20203994283
:104D600070D07B68196846F27003C4F2020399425E
:104D700065D07B68196846F27043C4F20203994219
:104D80005AD07B68196846F22803C4F2020399429C
:104D90004FD07B68196846F22843C4F20203994257
:104DA00044D07B68196846F28803C4F20203994232
:104DB00039D07B68196846F28843C4F202039942ED
:104DC0002ED07B68196846F24003C4F20203994270
:104DD00023D07B68196846F24043C4F2020399422B
:104DE00018D07B68196846F2A003C4F20203994206
:104DF0000DD07B68196846F2A043C4F202039942C1
:104E000002D14FF4801301E04FF0806301E04FF4D2
:104E1000801301E04FF4801301E04FF4801301E0B0
:104E20004FF4806301E04FF4806301E04FF480634E
:104E300001E04FF4806301E04FF0100301E04FF018
:104E4000100301E04FF0100301E04FF01003134096
:104E5000002B0CBF00230123DBB2CBE17B681B6876
:104E60001A4646F2B803C4F202039A4240F2938013
:104E70004FF4C843C4F202031B681A467B681968E2
:104E800046F21003C4F2020399427BD07B68196892
:104E900046F21043C4F20203994270D07B6819684D
:104EA00046F27003C4F20203994265D07B68196828
:104EB00046F27043C4F2020399425AD07B681968E3
:104EC00046F22803C4F2020399424FD07B68196866
:104ED00046F22843C4F20203994244D07B68196821
:104EE00046F28803C4F20203994239D07B681968FC
:104EF00046F28843C4F2020399422ED07B681968B7
:104F000046F24003C4F20203994223D07B68196839
:104F100046F24043C4F20203994218D07B681968F4
:104F200046F2A003C4F2020399420DD07B681968CF
:104F300046F2A043C4F20203994202D14FF4801317
:104F400001E04FF0806301E04FF4801301E04FF483
:104F5000801301E04FF4801301E04FF4806301E01F
:104F60004FF4806301E04FF4806301E04FF480630D
:104F700001E04FF0100301E04FF0100301E04FF0AB
:104F8000100301E04FF010031340002B0CBF00236F
:104F90000123DBB22EE17B681B681A4646F25803F8
:104FA000C4F202039A4240F293804FF4C043C4F229
:104FB00002035B681A467B68196846F21003C4F264
:104FC000020399427BD07B68196846F21043C4F211
:104FD0000203994270D07B68196846F27003C4F2EC
:104FE0000203994265D07B68196846F27043C4F2A7
:104FF000020399425AD07B68196846F22803C4F22A
:10500000020399424FD07B68196846F22843C4F2E4
:105010000203994244D07B68196846F28803C4F2BF
:105020000203994239D07B68196846F28843C4F27A
:10503000020399422ED07B68196846F24003C4F2FD
:105040000203994223D07B68196846F24043C4F2B8
:105050000203994218D07B68196846F2A003C4F293
:10506000020399420DD07B68196846F2A043C4F24E
:105070000203994202D14FF4801301E04FF08063A4
:1050800001E04FF4801301E04FF4801301E04FF48E
:10509000801301E04FF4806301E04FF4806301E08E
:1050A0004FF4806301E04FF4806301E04FF01003A0
:1050B00001E04FF0100301E04FF0100301E04FF06A
:1050C00010031340002B0CBF00230123DBB291E03F
:1050D0004FF4C043C4F202031B681A467B68196888
:1050E00046F21003C4F2020399427BD07B68196830
:1050F00046F21043C4F20203994270D07B681968EB
:1051000046F27003C4F20203994265D07B681968C5
:1051100046F27043C4F2020399425AD07B68196880
:1051200046F22803C4F2020399424FD07B68196803
:1051300046F22843C4F20203994244D07B681968BE
:1051400046F28803C4F20203994239D07B68196899
:1051500046F28843C4F2020399422ED07B68196854
:1051600046F24003C4F20203994223D07B681968D7
:1051700046F24043C4F20203994218D07B68196892
:1051800046F2A003C4F2020399420DD07B6819686D
:1051900046F2A043C4F20203994202D14FF48013B5
:1051A00001E04FF0806301E04FF4801301E04FF421
:1051B000801301E04FF4801301E04FF4806301E0BD
:1051C0004FF4806301E04FF4806301E04FF48063AB
:1051D00001E04FF0100301E04FF0100301E04FF049
:1051E000100301E04FF010031340002B0CBF00230D
:1051F0000123DBB2002B00F019857B681B681B685C
:1052000003F00803002B00F011857B681B681B6806
:1052100003F48023002B00F084827B681B681A460D
:1052200046F25843C4F202039A4240F293804FF48C
:10523000C843C4F202034FF4C842C4F20202D26867
:1052400011467A68106846F21002C4F202029042D7
:105250007BD07A68106846F21042C4F20202904293
:1052600070D07A68106846F27002C4F2020290426E
:1052700065D07A68106846F27042C4F20202904229
:105280005AD07A68106846F22802C4F202029042AC
:105290004FD07A68106846F22842C4F20202904267
:1052A00044D07A68106846F28802C4F20202904242
:1052B00039D07A68106846F28842C4F202029042FD
:1052C0002ED07A68106846F24002C4F20202904280
:1052D00023D07A68106846F24042C4F2020290423B
:1052E00018D07A68106846F2A002C4F20202904216
:1052F0000DD07A68106846F2A042C4F202029042D1
:1053000002D14FF4801201E04FF0806201E04FF4CF
:10531000801201E04FF4801201E04FF4801201E0AE
:105320004FF4806201E04FF4806201E04FF480624C
:1053300001E04FF4806201E04FF0100201E04FF015
:10534000100201E04FF0100201E04FF010020A439A
:10535000DA60CBE17B681B681A4646F2B803C4F2F8
:1053600002039A4240F293804FF4C843C4F202030E
:105370004FF4C842C4F20202926811467A6810687B
:1053800046F21002C4F2020290427BD07A681068A2
:1053900046F21042C4F20202904270D07A6810685D
:1053A00046F27002C4F20202904265D07A68106838
:1053B00046F27042C4F2020290425AD07A681068F3
:1053C00046F22802C4F2020290424FD07A68106876
:1053D00046F22842C4F20202904244D07A68106831
:1053E00046F28802C4F20202904239D07A6810680C
:1053F00046F28842C4F2020290422ED07A681068C7
:1054000046F24002C4F20202904223D07A68106849
:1054100046F24042C4F20202904218D07A68106804
:1054200046F2A002C4F2020290420DD07A681068DF
:1054300046F2A042C4F20202904202D14FF480121E
:1054400001E04FF0806201E04FF4801201E04FF480
:10545000801201E04FF4801201E04FF4806201E01D
:105460004FF4806201E04FF4806201E04FF480620B
:1054700001E04FF0100201E04FF0100201E04FF0A8
:10548000100201E04FF010020A439A602EE17B689F
:105490001B681A4646F25803C4F202039A4240F2CD
:1054A00093804FF4C043C4F202034FF4C042C4F2ED
:1054B0000202D26811467A68106846F21002C4F2FD
:1054C000020290427BD07A68106846F21042C4F221
:1054D0000202904270D07A68106846F27002C4F2FC
:1054E0000202904265D07A68106846F27042C4F2B7
:1054F000020290425AD07A68106846F22802C4F23A
:10550000020290424FD07A68106846F22842C4F2F4
:105510000202904244D07A68106846F28802C4F2CF
:105520000202904239D07A68106846F28842C4F28A
:10553000020290422ED07A68106846F24002C4F20D
:105540000202904223D07A68106846F24042C4F2C8
:105550000202904218D07A68106846F2A002C4F2A3
:10556000020290420DD07A68106846F2A042C4F25E
:105570000202904202D14FF4801201E04FF08062AB
:1055800001E04FF4801201E04FF4801201E04FF48B
:10559000801201E04FF4806201E04FF4806201E08C
:1055A0004FF4806201E04FF4806201E04FF010029E
:1055B00001E04FF0100201E04FF0100201E04FF067
:1055C00010020A43DA6091E04FF4C043C4F20203D0
:1055D0004FF4C042C4F20202926811467A68106821
:1055E00046F21002C4F2020290427BD07A68106840
:1055F00046F21042C4F20202904270D07A681068FB
:1056000046F27002C4F20202904265D07A681068D5
:1056100046F27042C4F2020290425AD07A68106890
:1056200046F22802C4F2020290424FD07A68106813
:1056300046F22842C4F20202904244D07A681068CE
:1056400046F28802C4F20202904239D07A681068A9
:1056500046F28842C4F2020290422ED07A68106864
:1056600046F24002C4F20202904223D07A681068E7
:1056700046F24042C4F20202904218D07A681068A2
:1056800046F2A002C4F2020290420DD07A6810687D
:1056900046F2A042C4F20202904202D14FF48012BC
:1056A00001E04FF0806201E04FF4801201E04FF41E
:1056B000801201E04FF4801201E04FF4806201E0BB
:1056C0004FF4806201E04FF4806201E04FF48062A9
:1056D00001E04FF0100201E04FF0100201E04FF046
:1056E000100201E04FF010020A439A607B681B68C9
:1056F0001B6803F40023002B05D17B684FF03102B7
:1057000083F835208AE27B681B681B6803F400235A
:10571000002B00F083827B684FF0410283F8352034
:105720007CE27B681B681B6803F48073002B07D145
:105730007B681B687A681268126822F008021A6097
:105740007B681B681A4646F25843C4F202039A4229
:1057500040F293804FF4C843C4F202034FF4C842AE
:10576000C4F20202D26811467A68106846F210024A
:10577000C4F2020290427BD07A68106846F210426E
:10578000C4F20202904270D07A68106846F2700249
:10579000C4F20202904265D07A68106846F2704204
:1057A000C4F2020290425AD07A68106846F2280287
:1057B000C4F2020290424FD07A68106846F2284242
:1057C000C4F20202904244D07A68106846F288021D
:1057D000C4F20202904239D07A68106846F28842D8
:1057E000C4F2020290422ED07A68106846F240025B
:1057F000C4F20202904223D07A68106846F2404216
:10580000C4F20202904218D07A68106846F2A002F0
:10581000C4F2020290420DD07A68106846F2A042AB
:10582000C4F20202904202D14FF4801201E04FF024
:10583000806201E04FF4801201E04FF4801201E039
:105840004FF4801201E04FF4806201E04FF4806277
:1058500001E04FF4806201E04FF4806201E04FF01C
:10586000100201E04FF0100201E04FF0100201E0E1
:105870004FF010020A43DA60CBE17B681B681A46DE
:1058800046F2B803C4F202039A4240F293804FF406
:10589000C843C4F202034FF4C842C4F20202926841
:1058A00011467A68106846F21002C4F20202904271
:1058B0007BD07A68106846F21042C4F2020290422D
:1058C00070D07A68106846F27002C4F20202904208
:1058D00065D07A68106846F27042C4F202029042C3
:1058E0005AD07A68106846F22802C4F20202904246
:1058F0004FD07A68106846F22842C4F20202904201
:1059000044D07A68106846F28802C4F202029042DB
:1059100039D07A68106846F28842C4F20202904296
:105920002ED07A68106846F24002C4F20202904219
:1059300023D07A68106846F24042C4F202029042D4
:1059400018D07A68106846F2A002C4F202029042AF
:105950000DD07A68106846F2A042C4F2020290426A
:1059600002D14FF4801201E04FF0806201E04FF469
:10597000801201E04FF4801201E04FF4801201E048
:105980004FF4806201E04FF4806201E04FF48062E6
:1059900001E04FF4806201E04FF0100201E04FF0AF
:1059A000100201E04FF0100201E04FF010020A4334
:1059B0009A602EE17B681B681A4646F25803C4F2CF
:1059C00002039A4240F293804FF4C043C4F20203B0
:1059D0004FF4C042C4F20202D26811467A681068DD
:1059E00046F21002C4F2020290427BD07A6810683C
:1059F00046F21042C4F20202904270D07A681068F7
:105A000046F27002C4F20202904265D07A681068D1
:105A100046F27042C4F2020290425AD07A6810688C
:105A200046F22802C4F2020290424FD07A6810680F
:105A300046F22842C4F20202904244D07A681068CA
:105A400046F28802C4F20202904239D07A681068A5
:105A500046F28842C4F2020290422ED07A68106860
:105A600046F24002C4F20202904223D07A681068E3
:105A700046F24042C4F20202904218D07A6810689E
:105A800046F2A002C4F2020290420DD07A68106879
:105A900046F2A042C4F20202904202D14FF48012B8
:105AA00001E04FF0806201E04FF4801201E04FF41A
:105AB000801201E04FF4801201E04FF4806201E0B7
:105AC0004FF4806201E04FF4806201E04FF48062A5
:105AD00001E04FF0100201E04FF0100201E04FF042
