:020000040800F2
:1000000000000520F9020008355E0008395E00088E
:100010003D5E0008415E0008455E000800000000EB
:100020000000000000000000000000000D040008B7
:10003000495E0008000000001504000801410008A6
:1000400029040008290400082904000829040008DC
:1000500029040008290400082904000829040008CC
:1000600029040008290400082904000829040008BC
:1000700029040008290400082904000829040008AC
:10008000290400082904000829040008290400089C
:10009000290400082904000829040008290400088C
:1000A000290400082904000829040008290400087C
:1000B0002904000875520008855200082904000828
:1000C000290400082904000829040008290400085C
:1000D000290400082904000829040008290400084C
:1000E000290400082904000829040008290400083C
:1000F000290400082904000829040008290400082C
:10010000290400082904000829040008290400081B
:10011000290400082904000829040008290400080B
:1001200029040008290400082904000829040008FB
:1001300029040008290400082904000829040008EB
:1001400029040008290400082904000829040008DB
:1001500029040008290400082904000829040008CB
:1001600029040008290400082904000829040008BB
:1001700029040008290400082904000800000000E0
:10018000290400082904000829040008290400089B
:10019000290400082904000829040008290400088B
:1001A000290400082904000829040008290400087B
:1001B000290400082904000829040008290400086B
:1001C000290400082904000800B583B002F074FB7C
:1001D000384B394A1360394A136039490CE00A68D0
:1001E0004B6801F10C04886803E01168196004335E
:1001F00004329842F9D82146324B9942EFD32E4B24
:100200001A68314B9A4204D12C4B1A682F4B9A42F0
:1002100000D0FEE7274B2E4A13602E4A13602E4B68
:100220000AE0194651F8082B5B6802E000201060D4
:1002300004329A42FAD30B46284A9342F1D3244B14
:100240001B6813B9234B1B6803B1FEE703F064F985
:1002500001A8694602F0BCFA214C224B1C1BA410D9
:10026000002504E01E4B53F8253098470135AC4279
:10027000F8DC1D4C1D4B1C1BA410002504E01A4B80
:1002800053F8253098470135AC42F8DC01980099C5
:1002900005F054F80546164C164B1C1BA41004E040
:1002A000013C134B53F824309847002CF8DC2846C7
:1002B00002F060FABABADECA00000020C4000020D2
:1002C0002C040008440400087856341232547698FE
:1002D000C8000020A445002044040008540400087D
:1002E000540400085404000854040008540400088E
:1002F000540400085404000808B5FFF765FF00BF68
:1003000000BEFEE71EF0040F0CBFEFF30880EFF312
:1003100009807146414A10472DE9F04182B00446F8
:100320008846134B5E6B9D6B9F6A1B6B13F0020F2D
:100330000DD00F4BDB6A002B09DA4BF6AB6102F0F4
:1003400045FB20B14FF00042094BDA620CE009484E
:1003500002F052FACDF800802046394632462B464C
:1003600002F0BCFA00BEFEE702B0BDE8F08100BFBB
:1003700000ED00E0707C000800BEFEE71EF0040FF8
:100380000CBFEFF30880EFF309807146244A104751
:100390002DE9F04182B007468846084B5D6B9C6BA7
:1003A0009E6A074802F028FACDF8008038463146A8
:1003B0002A46234602F092FA00BEFEE700ED00E076
:1003C000807C00081EF0040F0CBFEFF30880EFF3F1
:1003D00009807146134A10472DE9F04182B0074663
:1003E0008846084B5D6B9C6B9E6A074802F004FAD6
:1003F000CDF80080384631462A46234602F06EFA90
:1004000000BEFEE700ED00E08C7C000800BEFEE7C9
:1004100000BEFEE700BEFEE77047000019030008BB
:0C04200091030008D903000800BEFEE7AD
:10042C00A4B9000800000020C8000020A4B90008EE
:10043C000000001000000010C8000020A84500209B
:08044C00000000100000001088
:1004580010B5044601F062FC064BA3FB003080098E
:1004680000F012FC4FF0FF302146002200F0B8FBEC
:10047800002010BDD34D621008B5032000F092FB98
:100488000020FFF7E5FF05F0CFFC002008BD00BF06
:10049800014B1868704700BFCC00002010B5044617
:1004A800504B5A6822F440325A60596842680A43ED
:1004B8005A600268536823F4807353600268536873
:1004C800016943EA012353600268536823F04073CB
:1004D80053600268516883680B43536002689368ED
:1004E80023F40063936002689168C3680B439360C8
:1004F800826A3D4B9A4214D00268936823F0706375
:10050800936002689168836A0B43936002689368FA
:1005180023F04053936002689168C36A0B43936069
:1005280009E00268936823F0706393600268936837
:1005380023F0405393602268936823F0020393608A
:1005480022689368A16943EA41039360236A03B36D
:10055800636A013B072B04D9244840F20F6102F07B
:100568003BF92268536843F4006353602268536878
:1005780023F460435360636A013B4FF4604292FA8C
:10058800A2F2B2FA82F29340226851680B43536098
:1005980004E02268536823F4006353602268D36A36
:1005A80023F47003D3622168CA6AE369013B42EA13
:1005B8000353CB622268936823F400739360226824
:1005C8009368216B43EA412393602268936823F47C
:1005D8008063936022689368616943EA812393602A
:1005E80010BD00BF002301400100000F147900086E
:1005F800704700BF002800F0DD8010B5044603688E
:100608006D4A6E498B4218BF934208D002F580723A
:10061800934204D06A484FF4877102F0DDF86368AA
:10062800002B18BFB3F5803F0AD0B3F5003F07D0C1
:10063800B3F5403F04D0624840F20F1102F0CCF805
:10064800A368002B18BFB3F1807F0AD0B3F1007FF5
:1006580007D0B3F1407F04D059484FF4887102F0B5
:10066800BBF82369012B04D9554840F2111102F057
:10067800B3F8A369012B04D951484FF4897102F0EA
:10068800ABF8A36A002B18BFB3F1807F2ED0B3F16B
:10069800007F2BD0B3F1407F28D0B3F1806F25D0F5
:1006A800B3F1A06F22D0B3F1C06F1FD0B3F1E06FE8
:1006B8001CD0B3F1006F19D0B3F1106F16D0B3F19D
:1006C800206F13D0B3F1306F10D0B3F1406F0DD05D
:1006D800B3F1506F0AD0B3F1706F07D0394A934223
:1006E80004D0374840F2131102F076F8E368002B83
:1006F80018BFB3F5006F04D031484FF48A7102F087
:100708006BF8E369013B0F2B04D92D4840F2151112
:1007180002F062F8236B012B04D929484FF48B713E
:1007280002F05AF86369022B04D9254840F21711E0
:1007380002F052F8236A012B04D921484FF48C7136
:1007480002F04AF8A26A1F4B9A4210D0E36A002BC3
:1007580018BFB3F1805F0AD0B3F1005F07D0B3F1DF
:10076800405F04D016484FF48E7102F035F8236CC0
:100778002BB9636484F83C302046FFF739FF236CBB
:1007880013F0100F11D1226C0F4B134043F00203EA
:1007980023642046FFF782FE00206064236C23F068
:1007A800030343F00103236400E00120002384F8DD
:1007B8003C3010BD0120704700210140002001405D
:1007C800147900080100000FFDEEFFFF10B582B09C
:1007D8000446002301938369012B04D942484FF44E
:1007E800DD7101F0F9FFE36A002B18BFB3F1805FF8
:1007F8000AD0B3F1005F07D0B3F1405F04D03A48A4
:1008080040F2BB1101F0E8FF94F83C30012B5FD0B7
:10081800012384F83C3023689A6812F0010F13D141
:100828009A6842F001029A60304B1B68304AA2FB7A
:1008380003239B0C03EB4303019302E0019B013B61
:100848000193019B002BF9D12268936813F0010FE3
:1008580040D0216C274B0B4043F4807323645368CA
:1008680013F4806F05D0236C23F4405343F4805372
:100878002364236C13F4805F04D0636C23F00603B5
:10088800636401E000236364002384F83C306FF064
:1008980002031360184B5B6813F01F0F0AD123681B
:1008A8009A6812F0405F17D19A6842F080429A60C5
:1008B800002016E02368114A93420FD19A6812F07B
:1008C800405F0DD19A6842F080429A60002008E0AB
:1008D800022006E0002004E0002002E0002000E002
:1008E800002002B010BD00BF147900080C000020E1
:1008F80083DE1B43FEF8FFFF002301400020014078
:1009080070B503689A6812F4806F0CD09B6813F472
:10091800807F08D0036C43F020030364002380F831
:100928003C30012070BD0D460446FFF7B1FD064678
:1009380011E0B5F1FF3F0ED025B1FFF7A9FD801BEF
:10094800A84208D9236C43F004032364002384F8E5
:100958003C30032070BD23681A6812F0020FE8D0FB
:100968006FF012021A60236C43F400732364236847
:100978009A6812F0405F17D1A269BAB9DA6A12F41C
:10098800700F03D09B6813F4806F11D1236C23F48C
:1009980080732364236C13F4805F0BD1236C43F0C2
:1009A80001032364002070BD002070BD002070BDCD
:1009B800002070BD002070BD0368D86C704700BF70
:1009C80030B583B005460C46002301930B686E4A88
:1009D800934218BF122B04D96C4840F2FB4101F036
:1009E800FBFE6368013B0F2B04D9684840F2FC41C9
:1009F80001F0F2FEA368072B04D9644840F2FD41D8
:100A080001F0EAFE95F83C30012B00F0B980012393
:100A180085F83C302368092B21D92868C2689BB225
:100A280003EB43031E3B072101FA03F322EA030306
:100A3800C3602368544A934206D12A68D368A168E0
:100A480043EA0163D3601EE02968C868A2689BB2C4
:100A580003EB43031E3B9A400243CA6013E0286835
:100A680002699BB203EB4303072101FA03F322EA6D
:100A78000303036129680869A368228802EB42021C
:100A8800934003430B616368062B16D82868426BB2
:100A980003EB8303053B1F2101FA03F322EA030357
:100AA80043632968486B2288636803EB8303053B2B
:100AB80002FA03F303434B632EE00C2B16D8286885
:100AC800026B03EB8303233B1F2101FA03F322EAA2
:100AD800030303632968086B2288636803EB8303B5
:100AE800233B02FA03F303430B6315E02868C26A49
:100AF80003EB8303413B1F2101FA03F322EA0303BB
:100B0800C3622968C86A2288636803EB8303413B90
:100B180002FA03F30343CB622A681D4B9A4207D1BA
:100B28002368122B04D11B4A536843F48003536093
:100B38002A68174B9A421FD12368134A112B18BFF2
:100B4800934219D1134A536843F40003536022684F
:100B58000D4B9A4210D1104B1B68104AA2FB03237D
:100B68009B0C03EB83035B00019302E0019B013BB9
:100B78000193019B002BF9D1002085F83C0000E08F
:100B8800022003B030BD00BF120000101479000825
:100B980000200140002301400C00002083DE1B439D
:100BA800006C704710B50446C31E042B03D90948CE
:100BB800A42101F011FE04F00700074AD36823F4CA
:100BC800E0631B041B0C43EA0020044B0343D3607F
:100BD80010BD00BF4479000800ED00E00000FA05F0
:100BE80070B504460E4615460F2A03D91848BC218D
:100BF80001F0F2FD0F2E03D91548BD2101F0ECFDDF
:100C0800144BDB68C3F30223C3F10702042A28BF8D
:100C18000422191D062901D9D81E00E0002001234D
:100C280003FA02F2013A324002FA00F183405A1EF6
:100C38002A400A43002C06DA04F00F041201D2B24B
:100C4800054B1A5570BD1201D2B2044B1A5570BD2E
:100C58004479000800ED00E014ED00E000E400E055
:100C680010B5041E03DA0648D02101F0B5FD61096C
:100C780004F01F040123A340024A42F8213010BDAA
:100C88004479000800E100E00138B0F1807F0AD221
:100C9800064B5860F021064A82F82310002098601D
:100CA80007221A6070470120704700BF10E000E07B
:100CB80000ED00E0704700BFC8B110B504460268F7
:100CC8000C4B9A4203D00C48EE2101F085FD2379A4
:100CD80013F0FF0F04D1002363712046FFF7EAFFEA
:100CE80002232371002020610123237110BD0120FC
:100CF800704700BF007400407879000838B5044692
:100D08000D46002918BF102904D01D484FF4B771AB
:100D180001F062FD6379012B30D001236371022257
:100D2800227122681168AB400B43136085B92268B1
:100D38001168136803F03803382B14BF002301230C
:100D480013EA910315D0536843F00103536010E090
:100D580022681168136803F46013B3F5601F14BFA9
:100D68000023012313EA914303D0536843F002039D
:100D78005360012323710020607138BD022038BD03
:100D880078790008F8B504460E4615460B68002B1E
:100D980018BF242B12D00C2B10D0142B0ED01C2BC8
:100DA8000CD0042B0AD02C2B08D0342B06D03C2B8B
:100DB80004D01C4840F20E3101F00EFD7368002B80
:100DC80018BF022B04D0174840F20F3101F004FD80
:100DD800002D18BF102D04D012484FF4447101F0B3
:100DE800FBFC6379012B1BD0012060710223237166
:100DF8002768396840F6FE73AB4021EA0302316880
:100E080073680B43AB4013433B6021680A68C023F7
:100E1800AB4022EA03030B60207100206071F8BD2B
:100E28000220F8BD78790008F0B583B0074614466B
:100E38001D46002301930E46994218BF102904D07D
:100E4800144840F2463101F0C7FC002C18BF042CAE
:100E580006D0082C04D00F4840F2473101F0BCFC02
:100E68004FF6F0739D4204D90A484FF4527101F0CD
:100E7800B3FC3B68019326B9019B1C4408340194D8
:100E880003E0019B1C4414340194019B1D60002065
:100E980003B0F0BD787900082DE9F04F83B08046A3
:100EA8000F46B34BB34A904218BF98422BD003F574
:100EB8000063C31A18BF012302F50062904222D0D2
:100EC8000BB3AD4BC31A18BF012302F50062904261
:100ED80019D0C3B1A94BC31A18BF012302F5006288
:100EE800904210D07BB1A64BC31A18BF012302F55C
:100EF8000062904207D033B1A24B984203D0A24877
:100F0800C32101F069FC3B881BB99F48C42101F04B
:100F180063FC7B68112B18BF012B20D9022B1ED034
:100F2800122B1CD0994A934219D002F58012934291
:100F380015D002F58012934211D0A2F5F81293420F
:100F48000DD002F58012934209D002F58012934227
:100F580005D0032B03D08C48C52101F03DFCBB68AC
:100F6800022B03D98848C62101F036FC0024F8E09A
:100F7800A1460125A5403B6803EA050AAA4540F0B9
:100F8800EF807B68122B18BF022B1CD13B690F2BFB
:100F980018BF0C2B07D90D2B05D00E2B03D07A4880
:100FA800D72101F019FCE608083658F8261004F095
:100FB800070080000F23834021EA03023B69834036
:100FC800134348F82630D8F800304FEA440B03267C
:100FD80006FA0BF6F64306EA03027B6803F00303FE
:100FE80003FA0BF31343C8F800307B685A1E112B21
:100FF80018BF012A01D9122B1CD1FB68032B03D976
:101008006148EB2101F0E8FBD8F8083006EA030252
:10101800FB6803FA0BF31343C8F80830D8F8043018
:1010280023EA05037D68C5F3001505FA09F51D4394
:10103800C8F80450D8F80C303340BE6806FA0BF6EE
:101048001E43C8F80C607B6813F0805F00F088804E
:10105800002301934E4B5A6C42F480425A645B6CF5
:1010680003F480430193019BA308991C494A52F851
:10107800211004F0030080000F22824021EA0201BF
:101088003C4A904537D002F58062904531D002F550
:10109800806290452BD002F58062904525D002F5FC
:1010A800806290451FD002F58062904519D002F504
:1010B8008062904513D002F5806290450DD002F50C
:1010C8008062904507D002F58062904501D10922DF
:1010D80012E00A2210E008220EE007220CE00622A5
:1010E8000AE0052208E0042206E0032204E00222C6
:1010F80002E0012200E0002282400A43023325492F
:1011080041F82320244B1A686FEA0A0303EA020114
:10111800786810F4803F01D04AEA02011E4A116043
:10112800526803EA0201786810F4003F01D04AEAE5
:101138000201194A5160926803EA0201786810F4C2
:10114800801F01D04AEA0201134A9160D268134015
:10115800796811F4001F01D04AEA02030E4AD360ED
:1011680001340F2C7FF604AF03B0BDE8F08F00BF49
:10117800000402400000024000140240001C02402B
:101188000024024000280240A8790008000011103D
:101198000038024000380140003C014038B505469F
:1011A8000C4621B9054840F28D1101F015FB2B6959
:1011B800234201D0012038BD002038BDA87900089D
:1011C80070B5064615460C4621B9094840F2AD11DE
:1011D80001F002FB012D04D905484FF4D77101F045
:1011E800FBFA0DB1B46170BD2404B46170BD00BFD9
:1011F800A8790008002800F0A88010B50446036804
:10120800534A54498B4218BF93420CD002F580626E
:10121800934208D002F58062934204D04E4840F2CF
:101228002B1101F0D9FAA368B3F5806F04D34A48AB
:101238004FF4967101F0D0FAE368013B012B04D911
:10124800454840F22D1101F0C7FA2369002B18BF59
:10125800B3F5004F04D040484FF4977101F0BCFA41
:101268006369FF2B04D93C4840F22F1101F0B4FA0E
:10127800A369072B04D938484FF4987101F0ACFAE8
:10128800E369002B18BFB3F5002F04D0324840F2B1
:10129800311101F0A1FA236A002B18BFB3F5003F02
:1012A80004D02D484FF4997101F096FA94F835302E
:1012B80013F0FF0F05D1002384F83430204602F0E4
:1012C800E7FC022384F835302268136823F0010311
:1012D80013602268636823F070631361226893685F
:1012E80023F400439360A3685BB1E268012A04D148
:1012F800226843F40043936003E0226843F4044304
:101308009360E368022B03D123684FF400625A60AC
:1013180022685168114B0B43536022682169636945
:101328000B43A16943EA0123D3602268E169236A78
:101338000B4313602268136843F001031360002015
:10134800A063012384F8353010BD0120704700BF29
:101358000058004000540040D8790008008000027E
:10136800704700BF38B310B504460368134A1449E0
:101378008B4218BF93420CD002F58062934208D08A
:1013880002F58062934204D00E4840F27D1101F0CC
:1013980023FA022384F835302268136823F0010306
:1013A80013602046FFF7DCFF0020A06384F83500B7
:1013B80084F8340010BD0120704700BF0058004079
:1013C80000540040D879000830B583B0044603685B
:1013D8000F2B04D99B484FF4807101F0FDF9236865
:1013E80013F0010F00F08E806368002B18BFB3F56F
:1013F800803F07D0B3F5A02F04D092484FF48371F3
:1014080001F0EAF9904B9B6803F00C03042B0AD017
:101418008D4B9B6803F00C03082B0DD18A4B5B683E
:1014280013F4800F08D0884B1B6813F4003F69D071
:101438006368002B66D15BE2834B1A6822F4803222
:101448001A601A6822F480221A601A6822F480321C
:101458001A60FFF71DF8054605E0FFF719F8401B6D
:10146800642800F24782784B1B6813F4003FF4D1DC
:10147800754A136823F4803313606368B3F5803FBB
:1014880009D11346126822F480221A601A6842F4BD
:1014980080321A6015E0B3F5A02F09D16A4B1A689B
:1014A80042F480221A601A6842F480321A6008E016
:1014B800654B1A6822F480221A601A6822F4803276
:1014C8001A6063687BB1FEF7E3FF054605E0FEF7A7
:1014D800DFFF401B642800F20F825B4B1B6813F48C
:1014E800003FF4D00EE0FEF7D3FF054605E0FEF717
:1014F800CFFF401B642800F20182534B1B6813F492
:10150800003FF4D1236813F0020F6ED0E368012B7B
:1015180004D94C4840F2471101F05EF923691F2BAA
:1015280004D948484FF4A47101F056F9464B9B681A
:1015380013F00C0F0AD0444B9B6803F00C03082BE4
:101548001BD1414B5B6813F4800F16D13E4B1B68CF
:1015580013F0020F03D0E368012B40F0D1813A4821
:10156800036823F0F8012369F82292FAA2F2B2FA8A
:1015780082F293400B43036037E0E3680BB3324ACF
:10158800136843F001031360FEF782FF054605E088
:10159800FEF77EFF401B642800F2B4812A4B1B68CB
:1015A80013F0020FF4D02848036823F0F8012369E8
:1015B800F82292FAA2F2B2FA82F293400B43036045
:1015C80013E0214A136823F001031360FEF760FF5C
:1015D800054605E0FEF75CFF401B642800F2948195
:1015E800194B1B6813F0020FF4D1236813F0080F8E
:1015F80037D06369012B04D912484FF4C47101F044
:10160800EBF86369A3B1104A536F43F001035367C2
:10161800FEF73EFF054605E0FEF73AFF401B64284B
:1016280000F27481084B5B6F13F0020FF4D018E0DE
:10163800054A536F23F001035367FEF729FF054658
:101648000AE000BF187A000800380240FEF720FFC1
:10165800401B642800F25C81B64B5B6F13F0020FED
:10166800F4D1236813F0040F00F09480A368052BCD
:1016780018BF012B04D9B0484FF4D97101F0ACF868
:1016880000230193AB4B1A6C42F080521A641B6C16
:1016980003F080530193019BA84A136843F48073B5
:1016A8001360FEF7F5FE054605E0FEF7F1FE401B68
:1016B800642800F22F81A14B1B6813F4807FF4D0BB
:1016C8009C4B1A6F22F001021A671A6F22F004026B
:1016D8001A671A6F22F001021A67FEF7D9FE05464B
:1016E80007E0FEF7D5FE401B41F28833984200F22E
:1016F8001381904B1B6F13F0020FF2D18D4A136FB9
:1017080023F001031367A368012B09D11346126F55
:1017180022F004021A671A6F42F001021A6714E0F5
:10172800052B09D1834B1A6F42F004021A671A6F0E
:1017380042F001021A6708E07E4B1A6F22F0040299
:101748001A671A6F22F001021A67A3688BB1FEF7B5
:101758009FFE054607E0FEF79BFE401B41F28833DB
:10176800984200F2DB80734B1B6F13F0020FF2D02C
:1017780010E0FEF78DFE054607E0FEF789FE401BE8
:1017880041F28833984200F2CB806A4B1B6F13F00A
:10179800020FF2D1A369022B04D967484FF4FB71F9
:1017A80001F01AF8A369002B00F0BC80614A926826
:1017B80002F00C02082A00F0B780022B40F0838068
:1017C800E369002B18BFB3F5800F04D05A4840F2E4
:1017D800FF1101F001F8236A023B3D2B04D956485A
:1017E8004FF4007100F0F8FF636A323BB3F5BF7F36
:1017F80004D9514840F2012100F0EEFFA36A022B00
:1018080018BF042B08D0062B06D0082B04D04A4852
:1018180040F2022100F0E0FFE36A023B0D2B04D9FD
:10182800454840F2032100F0D7FF424A136823F0ED
:1018380080731360FEF72CFE054604E0FEF728FED1
:10184800401B642872D83B4B1B6813F0007FF5D10E
:10185800226A636A47F6C07191FAA1F1B1FA81F17F
:101868008B401A43A36A5B08013B4FF4403191FA5D
:10187800A1F1B1FA81F18B401343E26943EA020115
:10188800E36A4FF0706292FAA2F2B2FA82F203FAB5
:1018980002F241EA020343F00053264A53601368F8
:1018A80043F080731360FEF7F3FD044604E0FEF78F
:1018B800EFFD001B64283BD81E4B1B6813F0007F0C
:1018C800F5D000203DE01B4A136823F080731360B5
:1018D800FEF7DEFD044604E0FEF7DAFD001B64288F
:1018E8002ED8144B1B6813F0007FF5D1002028E098
:1018F800012026E0032024E0032022E0032020E04A
:1019080001201EE003201CE003201AE0032018E059
:10191800032016E0032014E0032012E0032010E067
:1019280003200EE000200CE001200AE0032008E07C
:10193800032006E000380240187A000800700040D2
:10194800032003B030BD00BF70B504460D460368E0
:10195800013B0E2B04D98A4840F2622100F03CFF7B
:101968000F2D04D9864840F2632100F035FF854BDE
:101978001B6803F00F03AB4280F08F80814A136825
:1019880023F00F032B431360136803F00F03AB42DC
:1019980040F05781236813F0020F1ED0A368002B74
:1019A80018BF802B12D0902B10D0A02B0ED0B02BAC
:1019B8000CD0C02B0AD0D02B08D0E02B06D0F02BAF
:1019C80004D06F4840F2792100F006FF6E498B6819
:1019D80023F0F002A36813438B60236813F0010F10
:1019E80000F0EB806368022B04D965484FF420713E
:1019F80000F0F2FE6268012A05D1634B1B6813F4FC
:101A0800003F0ED11FE1022A05D15F4B1B6813F07E
:101A1800007F06D119E15C4B1B6813F0020F00F040
:101A2800168159498B6823F0030313438B60FEF733
:101A38002FFD05466368012B0FD107E0FEF728FD4F
:101A4800401B41F28833984200F203814E4B9B6859
:101A580003F00C03042BF1D1AFE0022B17D107E000
:101A6800FEF716FD401B41F28833984200F2F380DE
:101A7800454B9B6803F00C03082BF1D19DE0FEF762
:101A880007FD401B41F28833984200F2E6803E4B46
:101A98009B6813F00C0FF2D18FE0236813F0020F4C
:101AA8001ED0A368002B18BF802B12D0902B10D00B
:101AB800A02B0ED0B02B0CD0C02B0AD0D02B08D026
:101AC800E02B06D0F02B04D02D484FF4327100F0F3
:101AD80083FE2D498B6823F0F002A36813438B60C3
:101AE800236813F0010F5DD06368022B04D92448E2
:101AF80040F2CF2100F070FE6268012A05D1224B26
:101B08001B6813F4003F0ED1A9E0022A05D11E4B31
:101B18001B6813F0007F06D1A3E01B4B1B6813F072
:101B2800020F00F0A08018498B6823F003031343C9
:101B38008B60FEF7ADFC06466368012B0FD107E00A
:101B4800FEF7A6FC801B41F28833984200F28D8094
:101B58000D4B9B6803F00C03042BF1D122E0022B00
:101B68001BD106E0FEF794FC801B41F288339842B3
:101B78007DD8054B9B6803F00C03082BF2D111E0CC
:101B8800187A0008003C024000380240FEF780FC4A
:101B9800801B41F2883398426BD8384B9B6813F00E
:101BA8000C0FF3D1364A136823F00F032B4313604D
:101BB800136803F00F03AB425DD1236813F0040FE1
:101BC8001AD0E368002B18BFB3F5805F0DD0B3F5CA
:101BD800A05F0AD0B3F5C05F07D0B3F5E05F04D0CB
:101BE800284840F21E3100F0F7FD24498B6823F4A1
:101BF800E052E36813438B60236813F0080F1BD08F
:101C08002369002B18BFB3F5805F0DD0B3F5A05F33
:101C18000AD0B3F5C05F07D0B3F5E05F04D0194828
:101C280040F2253100F0D8FD144A936823F460434C
:101C3800216943EAC10393600020FEF709FC0020F4
:101C480070BD012070BD012070BD012070BD012054
:101C580070BD032070BD032070BD032070BD01203E
:101C680070BD012070BD012070BD032070BD032030
:101C780070BD032070BD012070BD00BF0038024058
:101C8800003C0240187A0008214B9B6803F00C03C3
:101C9800042B3AD0082B01D01E4870471C4B5868BB
:101CA80000F03F005B6813F4800F0FD01A4BB3FBB2
:101CB800F0F3174A506847F6C072104092FAA2F241
:101CC800B2FA82F2D04000FB03F30EE0114BB3FBF3
:101CD800F0F30F4A506847F6C072104092FAA2F229
:101CE800B2FA82F2D04000FB03F3094A506800F4CC
:101CF80040304FF4403292FAA2F2B2FA82F2D04067
:101D080001304000B3FBF0F070470348704700BF54
:101D1800003802400024F40080BA8C0108B5FFF7AF
:101D2800B3FF084B9B6803F0F003F02292FAA2F28B
:101D3800B2FA82F2D340044AD35CD840034B18600D
:101D480008BD00BF00380240087A00080C000020D7
:101D58002DE9F04105460F4616461C46FEF798FB4E
:101D6800804637E0B4F1FF3F34D02CB1FEF790FB4A
:101D7800C8EB0000A0422DD32A68536823F0E00383
:101D880053606B68B3F5827F0BD1AB68B3F5806F96
:101D980018BFB3F5004F04D12A68136823F0400335
:101DA8001360AB6AB3F5005F0BD12A68136823F49C
:101DB80000531B041B0C13602A68136843F4005378
:101DC8001360012385F85D30002385F85C3003201B
:101DD800BDE8F0812B689B683B40B342C2D100202C
:101DE800BDE8F0812DE9F04182B007460D46144662
:101DF8001E46FEF74DFB804641E0B5F5C06F08BFB3
:101E0800002C05D1137BDBB28DF807309DF8073025
:101E1800B6F1FF3F33D02EB1FEF73AFBC8EB000016
:101E2800B0422CD33A68536823F0E00353607B68D0
:101E3800B3F5827F0BD1BB68B3F5806F18BFB3F5DC
:101E4800004F04D13A68136823F040031360BB6A5B
:101E5800B3F5005F0BD13A68136823F400531B04F1
:101E68001B0C13603A68136843F400531360012392
:101E780087F85D30002387F85C30032005E03A6876
:101E880093682B40A342B8D1002002B0BDE8F0818E
:101E980038B504460D464FF4C05100222B46FFF7D3
:101EA800A1FF28B1236E43F02003236603231AE021
:101EB8002046802100222B46FFF74AFF28B1236ED7
:101EC80043F02003236603230DE020464FF4C0614E
:101ED80000222B46FFF786FF034620B1236E43F00E
:101EE800200323660323184638BD00BF704700BF90
:101EF800002800F0228110B504460368904A9149F1
:101F08008B4218BF934213D002F5806293420FD0E0
:101F180002F5784293420BD002F5E052934207D083
:101F280002F58062934203D08748CC2100F054FC2C
:101F38006368002B18BFB3F5827F03D08248CD2198
:101F480000F04AFCA368002B18BFB3F5806F06D0D9
:101F5800B3F5004F03D07C48CE2100F03DFCE36888
:101F6800B3F5706F18BFB3F5606F24D0B3F5506F39
:101F780021D0B3F5406F1ED0B3F5306F1BD0B3F549
:101F8800206F18D0B3F5106F15D0B3F5006F12D0CD
:101F9800B3F5E06F0FD0B3F5C06F0CD0B3F5A06FF9
:101FA80009D0B3F5806F06D0B3F5407F03D06648FB
:101FB800CF2100F011FC2369002B18BF022B03D09E
:101FC8006148D02100F008FC6369012B03D95E4801
:101FD800D12100F001FCA369B3F5007F18BF002BE5
:101FE80006D0B3F5802F03D05748D22100F0F4FB78
:101FF800636B082B18BF002B03D05348D32100F084
:10200800EBFBE369002B18BF082B0FD0102B0DD06A
:10201800182B0BD0202B09D0282B07D0302B05D01C
:10202800382B03D04848D42100F0D6FB236A002B74
:1020380018BF802B03D04448D52100F0CDFB636A3C
:10204800002B18BF102B03D03F48D62100F0C4FB4B
:10205800A36A002B18BFB3F5005F03D03A48D72115
:1020680000F0BAFBE36A013B4FF6FE72934203D9D4
:102078003548D82100F0B0FB236B022B03D9324836
:10208800D92100F0A9FB94F85D3023B984F85C30BD
:102098002046FFF72BFF022384F85D30226813687F
:1020A80023F040031360E368B3F5E06F01D9002221
:1020B80001E04FF48052B3F5706F18BFB3F5E06FCD
:1020C80001D00021A162216B39B9B3F5E06F02D9C3
:1020D8000223236301E00123236320686168A36866
:1020E80019432369194363691943A36903F4007306
:1020F8000B43E1690B43216A0B43A16A1943016051
:10210800236B022B04D121680B6843F400630B6036
:102118002068618B01F00401636A1943636B1943FA
:10212800E3680B43134343602368E26A1A610020A3
:102138002066012384F85D3010BD0120704700BF80
:102148000038004000300140487A0008F0B583B0FC
:1021580004460F4616461D468368002B18BFB3F584
:10216800004F04D067484FF4CC7100F035FB94F869
:102178005C30012B00F0BD80012384F85C3094F8BA
:102188005D30012B07D0012384F85D30002384F8EB
:102198005C300223B2E0002E18BF002F06D10123C5
:1021A80084F85D30002284F85C20A7E0032384F8DB
:1021B8005D3000232366A763A687E6872364A4F817
:1021C8004430A4F84630A368B3F5004F04D1226820
:1021D800136843F480431360A36AB3F5005F0BD11F
:1021E8002268136823F400531B041B0C1360226835
:1021F800136843F40053136023681A6812F0400F01
:1022080003D11A6842F040021A60E368B3F5E06F40
:1022180019D849E0204602210A462B46FFF798FDC7
:1022280038B1012384F85D30002384F85C3003233F
:1022380064E02368A26B1288DA60A36B0233A3639D
:10224800E38F013BE387E38F002BE3D12FE0012BE2
:1022580019D0204602210A462B46FFF779FD38B1EE
:10226800012384F85D30002384F85C30032345E0C3
:102278002368A26B1288DA60A36B0233A363E38F2F
:10228800023BE38710E0204602210A462B46FFF76F
:102298005FFD00282FD12268A36B591CA1631B780E
:1022A8001373E38F013BE387E38F002BCFD1A36A3E
:1022B800B3F5005F04D12268136843F480531360B8
:1022C80020462946FFF7E4FD0346B0B9A26832B9B3
:1022D80001922268D168019192680192019A0122C3
:1022E80084F85D20002284F85C20226E32B101233C
:1022F80004E0022302E0032300E00323184603B0AE
:10230800F0BD00BF487A0008704700BF10B504460A
:102318000368234A934218BFB3F1804F34D0A2F523
:102328007C42934230D002F5806293422CD002F571
:102338008062934228D002F58062934224D002F54D
:102348008062934220D002F5704293421CD002F57D
:102358007052934218D002F58062934214D002F56D
:102368008062934210D0A2F5983293420CD002F5C5
:102378008062934208D002F58062934204D00948F3
:1023880040F25D1100F028FA2268D36843F0010397
:10239800D3602268136843F001031360002010BD66
:1023A80000000140787A0008704700BF704700BFFE
:1023B800704700BF704700BF10B5044603681A692C
:1023C80012F0020F17D0DA6812F0020F13D06FF074
:1023D80002021A610123037603689B6913F0030F55
:1023E80002D0FFF7E3FF04E0FFF7DEFF2046FFF728
:1023F800DFFF0023237623681A6912F0040F19D02F
:10240800DA6812F0040F15D06FF004021A61022383
:10241800237623689B6913F4407F03D02046FFF797
:10242800C5FF05E02046FFF7BFFF2046FFF7C0FFC6
:102438000023237623681A6912F0080F19D0DA6886
:1024480012F0080F15D06FF008021A6104232376E2
:102458002368DB6913F0030F03D02046FFF7A6FFBC
:1024680005E02046FFF7A0FF2046FFF7A1FF002365
:10247800237623681A6912F0100F19D0DA6812F05F
:10248800100F15D06FF010021A6108232376236805
:10249800DB6913F4407F03D02046FFF787FF05E090
:1024A8002046FFF781FF2046FFF782FF00232376AF
:1024B80023681A6912F0010F09D0DA6812F0010FC7
:1024C80005D06FF001021A61204603F017FC23685B
:1024D8001A6912F0800F09D0DA6812F0800F05D05F
:1024E8006FF080021A61204600F03EF923681A69ED
:1024F80012F4807F09D0DA6812F0800F05D06FF0EF
:1025080080021A61204600F02FF923681A6912F038
:10251800400F09D0DA6812F0400F05D06FF0400282
:102528001A612046FFF746FF23681A6912F0200F48
:1025380009D0DA6812F0200F05D06FF020021A6176
:10254800204600F00FF910BD70B40268434B984262
:1025580014BF00230123B0F1804F14BF1C4643F081
:102568000104BCB93E4DA84214BF002501253D4ECB
:10257800B04211D085B905F1804505F58235A842EC
:1025880014BF0025012506F50066B04200D02DB124
:10259800012504E0012502E0012500E000251DB128
:1025A80022F070024D682A43002C35D12C4CA042F1
:1025B80014BF002401242B4DA8422FD074BB04F172
:1025C800804404F58234A04214BF0024012405F598
:1025D8000065A84224D01CBB234CA04214BF002491
:1025E800012405F59A35A8421CD0DCB91F4CA0423D
:1025F80014BF0024012405F50065A84214D09CB935
:102608001B4CA04214BF00240124A5F59635A8420E
:1026180000D05CB101240AE0012408E0012406E0AE
:10262800012404E0012402E0012400E000241CB19C
:1026380022F44072CC68224302608A68C2620A6847
:1026480082620C4A904208BF43F001030BB10B6948
:1026580003630123436170BC704700BF0000014061
:1026680000080040000400400044014000180040F9
:10267800002000400004014000286DD010B5044639
:102688000368364A934218BFB3F1804F33D0A2F59E
:102698007C4293422FD002F5806293422BD002F500
:1026A8008062934227D002F58062934223D002F5DC
:1026B800806293421FD002F5704293421BD002F50C
:1026C8007052934217D002F58062934213D002F5FC
:1026D800806293420FD0A2F5983293420BD002F554
:1026E8008062934207D002F58062934203D01C486F
:1026F800D22100F071F8A368002B18BF102B09D065
:10270800202B07D0402B05D0602B03D01448D321B1
:1027180000F062F82369002B18BFB3F5807F06D05C
:10272800B3F5007F03D00E48D42100F055F894F893
:10273800393013F0FF0F02D12046FFF7E5FD0223E1
:1027480084F83930214651F8040BFFF7FDFE0123C8
:1027580084F83930002010BD012070470000014086
:10276800787A0008704700BF704700BFFEE700BFD7
:1027780008B5034800F056F80120FFF7F7FF00BF3F
:10278800A87A000808B50D4B1B6813B90C4A0B4B07
:102798001A600A4B1A68C31C23F00303134409493F
:1027A8008B4206D904F04EFC0C2303604FF0FF3037
:1027B80008BD02490B60104608BD00BFD0000020CC
:1027C800A845002000FC042001230360014B0B6096
:1027D800704700BF0400002008B503460A460348B6
:1027E800194600F005F8FFF7C3FF00BFFC7A0008A0
:1027F8000FB400B583B004AB53F8042B0193084819
:10280800802104F08FFC011E03DD054800F04CF820
:102818000146084603B05DF804EB04B0704700BFFA
:10282800D800002010B5044604F04AFC01462046B2
:1028380000F03AF80248012100F036F810BD00BF58
:10284800EC7B00082DE9F04385B004460F46435C55
:1028580013BB042528462146ABBE04461FE0354677
:10286800102E28BF1025002306E014F8011B04AA27
:102878001A4402F8101C0133AB42F6D304AA1344DD
:10288800002203F8102CE9464FF004084046494658
:10289800ABBE8046761B00E00E46002EDFD13846E0
:1028A80005B0BDE8F08300BF08B5FFF7CBFF08BD52
:1028B80008B500F097F8054B054A9A60D3F88820C8
:1028C80042F47002C3F8882008BD00BF00ED00E0A4
:1028D80000000008F8B504460D4617461E4626486F
:1028E800FFF786FF25482168FFF782FF24486168C3
:1028F800FFF77EFF2348A168FFF77AFF2248E168C7
:10290800FFF776FF21482169FFF772FF20486169C8
:10291800FFF76EFF1F48A169FFF76AFF1E48E169CC
:10292800FFF766FF1D48FFF763FF1D482946FFF7BD
:102938005FFF1C4CE16A1C48FFF75AFF216B1B48DC
:10294800FFF756FFE16B1A48FFF752FF15F0800FAB
:1029580003D018483946FFF74BFF15F4004F03D052
:1029680015483146FFF744FF1448FFF741FF144864
:102978000699FFF73DFFF8BD547B0008647B00080B
:10298800747B0008847B0008947B0008A47B000803
:10299800B47B0008C47B0008D47B0008E47B0008F3
:1029A800F07B000800ED00E0007C0008107C0008C7
:1029B800207C0008307C0008407C0008507C00081F
:1029C800587C000883691A888A4207D10268033A4A
:1029D800012A05D80233836101207047002070471F
:1029E8000020704710B40F4AD2F8883043F47003BF
:1029F800C2F888300C4B196841F0010119600020B9
:102A080098601C680949214019600949596019688A
:102A180021F480211960D8604FF0006393605DF85D
:102A2800044B704700ED00E000380240FFFFF6FE5F
:102A380010300024224B9B6803F00C03042B07D0B2
:102A4800082B09D0002B2DD11E4A1F4B1A602CE0F1
:102A58001E4A1D4B1A6028E0194B5A685B6803F040
:102A68003F0312F4800F09D0184AB2FBF3F2144B5B
:102A78005B68C3F3881303FB02F208E0114AB2FB58
:102A8800F3F30F4A5168C1F3881101FB03F20C4BB1
:102A98005B68C3F3014301335B00B2FBF3F30A4AFB
:102AA800136002E0074A084B1A60054B9B68C3F3A2
:102AB8000313074AD15C044A1368CB40136070477C
:102AC800003802400024F4000C00002080BA8C0179
:102AD8009C7C00082DE9F843054689461646984629
:102AE800BDF82070044607E02046494642463B466A
:102AF80000F034FB013424B2AB199C42F4DBBDE88E
:102B0800F88300BF00B583B0064BB3F90020064B2D
:102B1800B3F9003000900020014600F0D7FB03B065
:102B28005DF804FB00080020060800202DE9F04F9E
:102B380089B005911D460493BDF94830BDF94CA0F4
:102B4800BDF850400094A94204DD05950491014662
:102B580010460A460499514505DDCDF810A08A466D
:102B680011461A460B460599049CA14204DD0594BA
:102B78000491014610460A460599514518D19042DC
:102B880005DC01DB024602E0114602460846934294
:102B980005DB834201DC134601E018461346C01AE0
:102BA800421C1846059912B2009B00F033FB8AE0DC
:102BB8001FFA82F987B2C7EB090292B296460498C7
:102BC8001FFA80FBBDF81410C1EB0B0292B20292FF
:102BD8009BB2C7EB03081FFA88F81FFA8AF2511A4A
:102BE80089B20191C9EB03039BB20693CBEB0202B6
:102BF80093B20393504504D00BF1FF3B0FFA8BFBC4
:102C080001E0DDF810B0059C00252E46CDF81C909B
:102C1800F14622E033B2BDF9082093FBF2F23A44C0
:102C280092B22BB2BDF9040093FBF0F0384480B2A5
:102C38004E44B6B24544ADB211B203B2994202DC79
:102C4800034610461A46121A013200B2214612B241
:102C5800009B00F0DFFA013424B25C45DADDDDF8D0
:102C68001C90049BE51ADDF818B01BFB05F5ADB206
:102C7800059BE61A18FB06F6B6B222E02BB2BDF9A0
:102C88000C2093FBF2F24A4492B233B2BDF904002D
:102C980093FBF0F0384480B25D44ADB24644B6B21E
:102CA80011B203B2994202DC034610461A46121AC0
:102CB800013200B2214612B2009B00F0ABFA013497
:102CC80024B25445DADD09B0BDE8F08F2DE9F047AC
:102CD80084B090461F46BDF93060BDF8345080B2CC
:102CE80089B2C218013A8B19013B92B29BB200F02B
:102CF800D9F9194B186899880122FEF761FA174B20
:102D0800D3F800A0B3F80490504649460022FEF7D5
:102D180057FA002412E023B238F8133003EA050208
:102D2800120A8DF804202B408DF805300C4801A9B3
:102D380002220123FFF70AFA0134A4B223B206FBE8
:102D480007F29342E7DB504649460122FEF738FA7C
:102D580004B0BDE8F08700BF047D00080C7D0008C2
:102D68005807002008B90120FFE7014B1870704789
:102D780005080020024B1880024B1980704700BFDD
:102D8800A2080020A0080020014B1870704700BF5F
:102D98000408002070B50646104B18689988002270
:102DA800FEF70EFA0E4B186899880022FEF708FA0B
:102DB8000C4B1D689C88284621460022FEF700FA25
:102DC80009490E80094801221346FFF7BFF9284632
:102DD80021460122FEF7F4F970BD00BF047D00080A
:102DE800FC7C00080C7D0008A4080020580700207F
:102DF80070B50646104B186899880122FEF7E0F96D
:102E08000E4B186899880022FEF7DAF90C4B1D68FA
:102E18009C88284621460022FEF7D2F909490E80EF
:102E2800094801221346FFF791F928462146012255
:102E3800FEF7C6F970BD00BF047D0008FC7C0008E1
:102E48000C7D0008A40800205807002038B5934BD3
:102E58001D689C88284621460122FEF7B1F9052005
:102E680000F0E8FC284621460022FEF7A9F91420C4
:102E780000F0E0FC284621460122FEF7A1F9962041
:102E880000F0D8FC864B186899880022FEF798F95C
:102E9800EF20FFF77FFF0320FFF7AAFF8020FFF74F
:102EA800A7FF0220FFF7A4FFCF20FFF773FF002042
:102EB800FFF79EFFC120FFF79BFF3020FFF798FF29
:102EC800ED20FFF767FF6420FFF792FF0320FFF76D
:102ED8008FFF1220FFF78CFF8120FFF789FFE82082
:102EE800FFF758FF8520FFF783FF0020FFF780FFDB
:102EF8007820FFF77DFFCB20FFF74CFF3920FFF745
:102F080077FF2C20FFF774FF0020FFF771FF3420B4
:102F1800FFF76EFF0220FFF76BFFF720FFF73AFF7E
:102F28002020FFF765FFEA20FFF734FF0020FFF7B6
:102F38005FFF0020FFF75CFFC020FFF72BFF232077
:102F4800FFF756FFC120FFF725FF1020FFF750FFBE
:102F5800C520FFF71FFF3E20FFF74AFF2820FFF795
:102F680047FFC720FFF716FF8620FFF741FF3620EF
:102F7800FFF710FF4820FFF73BFF3A20FFF70AFF53
:102F88005520FFF735FFB120FFF704FF0020FFF7BA
:102F98002FFF1820FFF72CFFB620FFF7FBFE0820B5
:102FA800FFF726FF8220FFF723FF2720FFF720FFE8
:102FB800F220FFF7EFFE0020FFF71AFF2620FFF7A9
:102FC800E9FE0120FFF714FFE020FFF7E3FE0F20E2
:102FD800FFF70EFF3120FFF70BFF2B20FFF708FF4D
:102FE8000C20FFF705FF0E20FFF702FF0820FFF770
:102FF800FFFE4E20FFF7FCFEF120FFF7F9FE372019
:10300800FFF7F6FE0720FFF7F3FE1020FFF7F0FEAC
:103018000320FFF7EDFE0E20FFF7EAFE0920FFF779
:10302800E7FE0020FFF7E4FEE120FFF7B3FE0020F3
:10303800FFF7DEFE0E20FFF7DBFE1420FFF7D8FEB9
:103048000320FFF7D5FE1120FFF7D2FE0720FFF778
:10305800CFFE3120FFF7CCFEC120FFF7C9FE482084
:10306800FFF7C6FE0820FFF7C3FE0F20FFF7C0FEDC
:103078000C20FFF7BDFE3120FFF7BAFE3620FFF720
:10308800B7FE0F20FFF7B4FE1120FFF783FE78206C
:1030980000F0D0FB2920FFF77DFE38BDCC7C00086E
:1030A8000C7D0008F8B507460D4616461C462A2032
:1030B800FFF770FE380AFFF79BFEF8B2FFF798FE9D
:1030C800300AFFF795FEF0B2FFF792FE2B20FFF7CC
:1030D80061FE280AFFF78CFE2846FFF789FE200AC2
:1030E800FFF786FE2046FFF783FE2C20FFF752FEEF
:1030F800F8BD00BFF0B599B00446134B186899881D
:103108000122FEF75DF8114B1F689E88384631464C
:103118000022FEF755F80E4B1C800E4C0E4A1592F5
:10312800169301251795684604F11001542203F0FF
:103138008FFF94E80F0002F05DFE384631462A46BC
:10314800FEF73EF819B0F0BD047D00080C7D0008BC
:10315800A408002058070020A80800202DE9F04105
:1031680098B01E46244BB3F90030984240DA144612
:10317800224B1B881AB291423ADA0A19013A1DB257
:10318800AA4201DB5C1A24B282B289B20B19013B54
:1031980010469BB2FFF786FF194B186899880122E1
:1031A800FEF70EF8174BD3F800809F884046394643
:1031B8000022FEF705F812E0134B1E80134C144A48
:1031C8001592169301231793684604F110015422AF
:1031D80003F03EFF94E80F0002F00CFE2C46631E3D
:1031E8001DB2002CE8D1404639460122FDF7E8FF20
:1031F80018B0BDE8F08100BF0008002006080020D4
:10320800047D00080C7D0008A40800205807002051
:10321800A80800202DE9F04198B014461E46244B1A
:103228001B881AB290423FDA224AB2F90020914232
:103238003ADA0219013A1DB2AA4201DB1C1A24B279
:1032480080B28BB20219013A194692B2FFF72AFFEF
:10325800194B186899880122FDF7B2FF174BD3F86C
:1032680000809F88404639460022FDF7A9FF12E0FA
:10327800134B1E80134C144A15921693012317936F
:10328800684604F11001542203F0E2FE94E80F00AE
:1032980002F0B0FD2C46631E1DB2002CE8D140465A
:1032A80039460122FDF78CFF18B0BDE8F08100BF58
:1032B8000008002006080020047D00080C7D000896
:1032C800A408002058070020A80800202DE9F0478E
:1032D80098B090461F46BDF880602D4B1B881AB2E7
:1032E800904251DA2B4A128814B2A1424CDA00EB10
:1032F8000804013C1DB2AC4202DB1B1A0FFA83F82A
:10330800CB19013B14B2A34201DB571A3FB280B27A
:1033180089B200EB0802013ACB19013B92B29BB289
:10332800FFF7C0FE1C4B186899880122FDF748FF7B
:103338001A4BD3F800A0B3F804905046494600222F
:10334800FDF73EFF19E0164A1680164C164B1593EA
:10335800169201231793684604F11001542203F0D2
:1033680077FE94E80F0002F045FD013D2DB200E024
:103378004546002DE7DC013F3FB2002FF8DC504600
:1033880049460122FDF71CFF18B0BDE8F08700BFD1
:103398000008002006080020047D00080C7D0008B5
:1033A800A408002058070020A808002010B50446EB
:1033B8003720FFF7EFFC200AFFF71AFDE0B2FFF70E
:1033C80017FD10BD70B506460D4614464318134444
:1033D800B3F5A07F14D13320FFF7DCFC300AFFF7E8
:1033E80007FDF0B2FFF704FD280AFFF701FDE8B278
:1033F800FFF7FEFC200AFFF7FBFCE0B2FFF7F8FC42
:1034080070BD00BF10B504463620FFF7C3FC04F0BA
:10341800030003282ED8DFE800F0020D1823482007
:10342800FFF7E6FCF022144B1A804FF4A072134BFE
:103438001A8010BD2820FFF7DBFC4FF4A0720E4B5A
:103448001A80F0220D4B1A8010BD8820FFF7D0FC9F
:10345800F022094B1A804FF4A072084B1A8010BD55
:10346800E820FFF7C5FC4FF4A072034B1A80F02246
:10347800024B1A8010BD00BF00080020060800207B
:1034880030B587B00C4A136B43F0100313634FF445
:103498000054019401230293022204920393074DDE
:1034A800284601A9FDF7F8FC284621460022FDF729
:1034B80087FE07B030BD00BF003802400010024050
:1034C8000A4B1B680A4AA2FB03239B09013BB3F181
:1034D800807F09D2074A5360F021074B83F82310F5
:1034E8000023936007231360704700BF0C0000207F
:1034F800D34D621010E000E000ED00E0034B1B68C4
:103508001BB1024A1368013B13607047BC080020D6
:1035180010B5BFF34F8FBFF36F8F1D4B0021C3F85A
:1035280050125A6942F400325A61BFF34F8FBFF309
:103538006F8FC3F88410BFF34F8FD3F88040C4F364
:103548004E3000E01846C4F3C90200E01A4643F6BC
:10355800E07303EA401343EA82730D49C1F860320D
:10356800531E002AF2D1431E0028EBD1BFF34F8F20
:103578004B6943F480334B61BFF34F8FBFF36F8FB9
:10358800FCF77AFF00F02EFCFFF754FA10BD00BFDD
:1035980000ED00E010B586B00022654B1A80654B3F
:1035A8001A80654B1A706421644B1980644B1A7039
:1035B800644B1A700092644B596C41F480715964E1
:1035C800596C01F48071009100990192596C41F491
:1035D80000715964596C01F40071019101990292CA
:1035E800596C41F480615964596C01F4806102910D
:1035F80002990392196B41F001011963196B01F0EB
:103608000101039103990492196B41F002011963B6
:10361800196B01F00201049104990592196B41F0AC
:1036280004011963196B01F0040105910599596AA0
:1036380041F480715962596A21F480715962434892
:10364800A3F58C33036042608260026101238361C9
:1036580002624262C2628262C260C3610263426104
:10366800FCF7C8FF18B1374A13780133137038488C
:10367800384B036000234360836003610122826149
:1036880003624362C3628362C360C26103634361CE
:10369800FCF7B0FF18B12B4A1378013313702E488A
:1036A8002E4B036000234360836003610122826123
:1036B80003624362C3628362C360C261036343619E
:1036C800FCF798FF18B11F4A137801331370244987
:1036D80009230B600120486000238B60CB60214ADE
:1036E8000324146050609360D3601F4A022414605E
:1036F80050609360D3601548FDF762F918B1114A1C
:1037080013780133137012481649FDF759F918B1A7
:103718000C4A1378013313700F481349FDF750F919
:1037280018B1084A13780133137006B010BD00BFF2
:10373800E4050020FC060020C1070020080800203E
:103748005107002050070020003802406C06002076
:10375800B406002000210140480800200022014052
:10376800E8050020900800204007002010B5194CFB
:1037780020460A21FDF7C4F817480A21FDF7C0F8CA
:1037880016480A21FDF7BCF82046FDF709FAB0F5FE
:10379800007F1DD11048FDF703FAB0F5007F17D15F
:1037A8000E48FDF7FDF9B0F5007F11D12046FDF771
:1037B80003F980B20A4B18800748FDF7FDF880B27C
:1037C800084B18800548FDF7F7F880B2064B1880BB
:1037D80010BD00BF6C060020B40600204808002079
:1037E800E4050020FC060020BE07002008B50C48B0
:1037F800FCF7ECFF18B10B4A1378013313700A4831
:10380800FCF7E4FF18B1074A13780133137007482F
:10381800FCF7DCFF18B1034A13780133137008BDB5
:103828006C06002050070020B4060020480800203D
:10383800704700BF034B1860024B1B68002BFBD17D
:10384800704700BF000700202DE9F04F87B08026A1
:1038580001964FF00208CDF810800125029500244A
:1038680005940394B04801A9FDF716FB4FF0400AF0
:10387800CDF804A0CDF81080029505940394AA48C9
:1038880001A9FDF709FB4FF4005301930494112794
:10389800029705940394A54801A9FDF7FDFAA348EA
:1038A8004FF400512246FDF78BFC0195CDF81080AE
:1038B8000294039505949E4801A9FDF7EDFACDF809
:1038C8000480CDF81080029403950594984801A9C6
:1038D800FDF7E2FA4FF400730193CDF810800294DB
:1038E80003950594904801A9FDF7D6FA042301939E
:1038F800CDF810804FF00309CDF808900394059493
:103908008C480DEB0301FDF7C7FA4FF0080BCDF813
:1039180004B0CDF81080CDF808900394059485483C
:1039280001A9FDF7B9FA30230193CDF80890039463
:10393800804801A9FDF7B0FA042301930295049485
:10394800039479480DEB0301FDF7A6FA76480421A4
:103958002A46FDF735FC01960295049403947548B0
:1039680001A9FDF799FA734831462246FDF728FC6C
:10397800CDF804800295049403946C4801A9FDF7DE
:103988008BFA6A4841462246FDF71AFCCDF804A096
:10399800029504940394674801A9FDF77DFA6548E8
:1039A80051462A46FDF70CFC0195029504940394B0
:1039B800604801A9FDF770FA5E4829462246FDF7DE
:1039C800FFFBCDF804A0029504940394584801A97C
:1039D800FDF762FA564851462A46FDF7F1FBCDF845
:1039E80004B0029704940395514801A9FDF754FACD
:1039F8004F4859462A46FDF7E3FB4FF4004301932D
:103A0800029504940394484801A9FDF745FA4648ED
:103A18004FF400412A46FDF7D3FB4FF400530193BE
:103A2800029504940394404801A9FDF735FA3E48ED
:103A38004FF400512A46FDF7C3FB2023019302955A
:103A4800049403943A4801A9FDF726FA384820213E
:103A58002A46FDF7B5FB10270197029504940394B5
:103A6800334801A9FDF718FA314839462A46FDF7C7
:103A7800A7FB4FF4006701970295049403942E481E
:103A880001A9FDF709FA2C4839462A46FDF798FBA3
:103A98004FF480470197029504940394244801A9A0
:103AA800FDF7FAF9224839462A46FDF789FB4FF413
:103AB80080530193CDF80890049403941E4801A9FB
:103AC800FDF7EAF91C484FF480512246FDF778FBD0
:103AD800CDF80480CDF8089004940394124801A905
:103AE800FDF7DAF94FF48068CDF804800295049464
:103AF8000394114801A9FDF7CFF90F4841462A461A
:103B0800FDF75EFB01970295049403940A4801A906
:103B1800FDF7C2F9084839462A46FDF751FB20232C
:103B2800019302940AE000BF00040240000802402A
:103B38000010024000000240000C0240049403956B
:103B48004F4801A9FDF7A8F9CDF804A00294049400
:103B580003954B4801A9FDF79FF9CDF804B00294ED
:103B680004940395464801A9FDF796F90196029435
:103B780004940395424801A9FDF78EF94FF40053C8
:103B880001930295049403943E4801A9FDF784F932
:103B98003C484FF400512246FDF712FB4FF4807960
:103BA800CDF80490049402950395374801A9FDF7D0
:103BB80073F9354849462246FDF702FB4FF40043A6
:103BC80001930494029503942E4801A9FDF764F922
:103BD8002C484FF400412A46FDF7F2FA0196049466
:103BE80002940394274801A9FDF756F90423019389
:103BF80004940295039425480DEB0301FDF74CF955
:103C0800224804212A46FDF7DBFACDF80480049403
:103C1800029503941B4801A9FDF73EF9194841464E
:103C28002A46FDF7CDFACDF8049004940295039442
:103C3800134801A9FDF730F9114849462246FDF716
:103C4800BFFACDF804B00494029503940F4801A973
:103C5800FDF722F90D4859462246FDF7B1FACDF88D
:103C68000490049402950394064801A9FDF714F9F9
:103C7800044859462246FDF7A3FA07B0BDE8F08F7D
:103C8800000C024000100240000002400008024000
:103C980084B0F0B587B00CAC84E80F00104B9A885C
:103CA80001920227049712260296012503950424FF
:103CB800059418680DEB0401FDF7EEF8094B9A8896
:103CC8000192049702960395059418680DEB040178
:103CD800FDF7E2F807B0BDE8F04004B0704700BF58
:103CE800647D0008E47C00082DE9F04F87B03A4C69
:103CF800236823F001031B041B0C2360374BB3F824
:103D08000490CDF804904FF0020ACDF810A01126C7
:103D18000296002503950595D3F80080404601A931
:103D2800FDF7BAF82E4B9F880197CDF810A00296A0
:103D3800039505951E68304601A9FDF7ADF8304694
:103D480039460122FDF73CFA404649460122FDF773
:103D580037FA304639462A46FDF732FA4046494690
:103D68002A46FDF72DFA304639460122FDF728FA92
:103D7800404649460122FDF723FACDF80490CDF8D4
:103D880010A04FF0120BCDF808B04FF00109CDF894
:103D98000C900425059540460DEB0501FDF77CF8D0
:103DA8000197CDF810A0CDF808B0CDF80C90059586
:103DB80030460DEB0501FDF76FF8236843F4004327
:103DC80023602368C3F30E032360236843EA0903CF
:103DD800236007B0BDE8F08F00580040E47C00087D
:103DE800647D000870B594B0002401941B4B1A6CD4
:103DF80042F080521A641B6C03F080530193019BBC
:103E08000294174B1A6842F440421A601B6803F484
:103E180040430293029B012303934FF4803304939E
:103E2800022509954FF480030A930D260B96D82393
:103E38000C930D9509230E9303A8FDF7C5FA0F9669
:103E4800109511944FF4A05312934FF48053139389
:103E58000FA80521FDF778FD14B070BD00380240A9
:103E680000700040022956DC30B4002347E00129E5
:103E780019D0022929D0002940D11418C4F500749A
:103E88009C420ADAC2F500749C4206DD224C04EB1F
:103E980083044FF07E55256030E01F4C04EB83040B
:103EA800002525602AE0934209DD14189C4206DDAE
:103EB800194C04EB83044FF07E5525601EE0164C28
:103EC80004EB83040025256018E01418C4F5007578
:103ED8009D4203DAC2F500759D4203DC934208DD7A
:103EE800A34206DA0C4C04EB83044FF07E552560A0
:103EF80004E0094C04EB8304002525600133B3F585
:103F0800007FB4DB044B03F5806100220A6003F2F2
:103F1800FC731A6030BC7047C808002088B00022C3
:103F28000092294B196B41F001011963196B01F0DB
:103F38000101009100990192196B41F00201196386
:103F4800196B01F00201019101990292196B41F07C
:103F580004011963196B01F004010291029903929B
:103F6800196B41F008011963196B01F008010391FD
:103F780003990492196B41F010011963196B01F050
:103F88001001049104990592196B41F40011196309
:103F9800196B01F40011059105990692196B41F40A
:103FA80080011963196B01F4800106910699079243
:103FB8001A6C42F480021A641B6C03F480030793A2
:103FC800079B08B0704700BF00380240024A1368D8
:103FD80001331360704700BFC40100200023064A64
:103FE8001360064A13607F21054A1160054A136071
:103FF8006422054B1A607047C8100020C4080020CE
:10400800F0200020CC1000209C4500202F4B1B786E
:10401800002B5AD110B52E4B18689988FDF7BEF8B9
:1040280044002C4B18689988FDF7B8F820442A4BAF
:1040380018602A4B1B68984242D00BB9012813D04C
:10404800012B01D1032808D0032B01D1022806D067
:10405800022B06D138B1002006E0184604E0012002
:1040680002E0002000E001201D4B18601D4B18687D
:104078009988FDF793F8B8B9194B1B6823B11A4A08
:1040880013880133138003E0174A1388013B138018
:10409800154B1B885B08154A1188B3FBF1F201FB2D
:1040A8001233134A13800BE00D4B1B6823B1114ADE
:1040B80013680133136003E00E4A1368013B136071
:1040C800054B1A68054B1A6010BD70479C0100200B
:1040D800C47C0008F47C0008C4080020C810002034
:1040E800FC380020D47C00087A0100201800002049
:1040F800A4010020A045002008B50A49D1E9002301
:10410800013243F10003C1E90023FFF7F7F9FFF794
:104118007DFF054B1B681BB1034A1368013B136005
:1041280008BD00BF5801002000070020024B186896
:1041380000EBD07040107047A0450020002308E035
:1041480000EB83010B4A02EB830212680A60013319
:104158009BB2094A1288B3EB420FF1DB05E000EB92
:1041680083020021116001339BB2B3F5007FF6D3BF
:10417800704700BF7C410020420000202DE9F04F2D
:1041880083B0824689463B4B1A680192B3F804B063
:10419800104659460022FDF713F8374BD3F8008034
:1041A8009F88404639460022FDF70AF8334B1E68BF
:1041B8009D88304629460022FDF702F830462946F8
:1041C8000122FCF7FDFF002415E0C4F107034AFAB9
:1041D80003F24046394602F00102FCF7F1FF30468F
:1041E80029460022FCF7ECFF304629460122FCF75D
:1041F800E7FF0134E4B2072CE7D9019C2046594671
:104208000122FCF7DDFF204659460022FCF7D8FFC3
:10421800404639460122FCF7D3FF304629460022A2
:10422800FCF7CEFF304629460122FCF7C9FF0024DF
:1042380015E0C4F1070349FA03F24046394602F093
:104248000102FCF7BDFF304629460022FCF7B8FF03
:10425800304629460122FCF7B3FF0134E4B2072CAB
:10426800E7D9019859460122FCF7AAFF03B0BDE837
:10427800F08F00BF3C7D00085C7D0008DC7C0008F6
:1042880010B582B01B4BD3ED007A9FED1B7A67EE19
:10429800877AB7EE007A77EE877A17EE900A02F0FF
:1042A8006BFB41EC100B01F087FE51EC100B002268
:1042B800124B02F0B5FB02F04DFE0446104B1A6893
:1042C80090420ADD4FF47843009302F196009C2156
:1042D800A21A0323FEF7FEFB07E0002300939630A3
:1042E8009C21121B0323FEF7F5FB054B1C6002B053
:1042F80010BD00BF90010020002474490000244034
:1043080064010020000000002DE9F0412DED028B32
:1043180082B0954B1B6813B1DFF87C8201E0DFF8AF
:104328007C82924892494FF4807201F08BFD0124FF
:10433800DFED906A9FED907A14E08D4B03EB8403D8
:10434800D3ED007AF4EEC77AF1EE10FA01DDB0EEA3
:10435800677AF4EEE67AF1EE10FA01D5F0EE676AC4
:104368000134E4B2FF2CE8D1844B93ED008AB4EE1B
:10437800C87AF1EE10FA16DD17EE100A02F0FCFA10
:1043880073A3D3E9002302F04BFB06460F4618EE51
:10439800100A02F0F1FA32463B4602F08FF902F0B9
:1043A80001FE764B1860754D286802F0E5FA41EC7D
:1043B800100B01F001FE51EC100B67A3D3E90023A9
:1043C80002F058FC02F0EEFD6D4B1860286802F010
:1043D800D3FA63A3D3E9002302F022FB02F0E2FD43
:1043E80007EE900A2860674B93ED007AF4EEC77ADF
:1043F800F1EE10FA01DD85ED007A604B93ED007A5D
:10440800614BD3ED007AB4EEE77AF1EE10FA02D5FB
:104418005A4BC3ED007A5D4B1A7810460021782379
:10442800FEF740FE782539E0514B03EB850393ED09
:10443800007AF7EE007A77EE277A17EE900A02F004
:104448009BFA41EC100B01F0B7FD51EC100B42A3A5
:10445800D3E9002302F00EFC06460F46474B1868C6
:1044680002F08AFA02460B463046394602F002FC50
:104478000022474B02F0D4FA02F094FD07EE900AAE
:10448800444B1860FCEEE77ACDED017A9DF80430D4
:1044980038F81300FEF72EFE013DEDB2002DC3D112
:1044A8003A4B1A7810467821EF23FEF7FBFD39E0E6
:1044B8002F4B03EB840393ED007AF7EE007A77EE47
:1044C800277A17EE900A02F057FA41EC100B01F028
:1044D80073FD51EC100B20A3D3E9002302F0CAFBB3
:1044E80006460F46254B186802F046FA02460B4668
:1044F8003046394602F0BEFB0022254B02F090FA06
:1045080002F050FD07EE900A224B1860FCEEE77AA5
:10451800CDED017A9DF8043038F81300FEF7EAFD76
:10452800013CE4B2872CC3D8184A13780133DBB2B4
:104538001370772B02D90022144B1A70134B18787A
:10454800FEF734FF02B0BDEC028BBDE8F08100BF7E
:104558009A9999999999B93FEF39FAFE422EE63F0F
:10456800AE47E17A14AEEF3F94010020F820002016
:10457800CC0100200000C84200000000BC0100205F
:10458800880100204C000020480000208D010020F8
:10459800000059409801002064820008B09C00087F
:1045A80010B5FFF7C3FD124B1860124B1B689842F9
:1045B80015D01A1A104B1C6810490B6804FB0233FB
:1045C8000B60002B01DC01220A600C4B1A680C4BB3
:1045D8009A4202DD1A46094B1A60064B1860074BCF
:1045E8001868084B1B68984201D0FFF721F910BDE5
:1045F80074390020F82800205800002044000020CA
:1046080060343C02C001002008B57C4B1B880A2B93
:1046180000F2F280DFE813F00B00110017001E0013
:1046280025002B00310037006A009C00C000744A46
:10463800744B1A60FFF7B4FF08BD734A714B1A60D8
:10464800FFF7AEFF08BD42F210726E4B1A60FFF71B
:10465800A7FF08BD4FF47A726A4B1A60FFF7A0FFF4
:1046680008BD6422674B1A60FFF79AFF08BD0A224B
:10467800644B1A60FFF794FF08BD0122614B1A6072
:10468800FFF78EFF08BDFFF751FD604B1860604BC8
:104698001B68984200F0B0801A1A5E490B881344D0
:1046A8009BB20B801BB2002B01DC00220A80594B05
:1046B800B3F90030C72B02DD6422564B1A80564BE3
:1046C8001B88544AB2F900101AB2914202DB5A1EF2
:1046D80050490A804E4A10604E4AB2F9002018B27A
:1046E800801A4E4B1978FFF7BDFB08BDFFF71EFD7A
:1046F800464B1860464B1B6898427DD01A1A4649AB
:104708000B8813449BB20B801BB2002B01DC0022E8
:104718000A80414BB3F90030C72B02DD64223E4BBF
:104728001A803C4B1A883C4BB3F9001013B29942DB
:1047380002DC531C38490B80354B186012B2364BDB
:10474800B3F90000801A354B1978FFF78BFB08BDC9
:10475800FFF7ECFC2D4B18602D4B1B6898424BD093
:104768001B1A2E4A11780B442D4981FB0301A1EB3A
:10477800E37101EB4101591AC9B21170254BB3F924
:104788000020254BB3F90000801AFFF76BFB1F4B85
:104798001A681F4B1A6008BDFFF7C8FC1B4B18604E
:1047A8001B4B1B68984227D01B1A07EE903AF8EE6D
:1047B800E77A1C4B93ED007A67EE877A1A4B93EDF4
:1047C800007A77EE877AC3ED007A184B93ED007A7A
:1047D800F4EEC77AF1EE10FA02DD134B83ED007A9E
:1047E800114BD3ED007AF5EEC07AF1EE10FA01D84C
:1047F80000221A60064B186008BD00BFA401002003
:1048080040420F0058000020A086010074390020A3
:10481800F8280020B4010020400000208C0100206E
:104828005655555514000020500000202000002047
:1048380000B583B02E380B2875D8DFE800F0067471
:104848006A101A242E38424C5660132000900193A7
:1048580008461146394A0F23FEF738FA6BE0132051
:104868000090019308461146354A0F23FEF72EFAA9
:1048780061E013200090019308461146314A0F2346
:10488800FEF724FA57E013200090019308461146DA
:104898002D4A0F23FEF71AFA4DE0132000900193DA
:1048A80008461146294A0F23FEF710FA43E0132061
:1048B8000090019308461146254A0F23FEF706FA91
:1048C80039E013200090019308461146214A0F232E
:1048D800FEF7FCF92FE013200090019308461146DB
:1048E8001D4A0F23FEF7F2F925E0132000900193EB
:1048F80008461146194A0F23FEF7E8F91BE0132072
:104908000090019308461146154A0F23FEF7DEF979
:1049180011E013200090019308461146114A0F2315
:10492800FEF7D4F907E000230093084611460F224A
:104938001323FEF7CFF803B05DF804FB2C8C0008B6
:1049480074B400084C940008E4990008F09000083A
:10495800B09D0008B0B60008608900088896000875
:104968006483000818B1000800B583B02D385128B9
:1049780000F2A380DFE800F08DA1A18329333D4731
:10498800515B656F79A1A1A1A1A1A1A1A1A1A1A13B
:10499800A1A1A1A1A1A1A1A1A1A1A1A1A1A1A1A1FF
:1049A800A1A1A1A1A1A1A1A1A1A1A1A1A1A1A1A1EF
:1049B800A1A1A1A1A1A1A1A1A1A1A1A1A1A1A1A1DF
:1049C800A1A1A1A1A1A1A1A1A19709200090019352
:1049D800084611463E4A0823FEF778F975E0092093
:1049E80000900193084611463A4A0823FEF76EF9EB
:1049F8006BE009200090019308461146364A0823C7
:104A0800FEF764F961E00920009001930846114619
:104A1800324A0823FEF75AF957E00920009001931B
:104A2800084611462E4A0823FEF750F94DE00920A2
:104A380000900193084611462A4A0823FEF746F9D2
:104A480043E009200090019308461146264A0823AE
:104A5800FEF73CF939E00920009001930846114619
:104A6800224A0823FEF732F92FE00920009001932B
:104A7800084611461E4A0823FEF728F925E00920B2
:104A880000900193084611461A4A0823FEF71EF9BA
:104A98001BE009200090019308461146164A082396
:104AA800FEF714F911E00920009001930846114619
:104AB800124A0823FEF70AF907E000230093084684
:104AC800114608220923FEF705F803B05DF804FB38
:104AD800209C0008E4A100082C930008E4B3000817
:104AE8006CA4000860900008D4810008BC930008FA
:104AF80054B30008C49800089C8B00085499000817
:104B08002DE9F04184B001228D4B1A70054690B30F
:104B18000C2700974FF6FF74019496205A21894A72
:104B28002823FEF7D3F8882600967223019302946F
:104B38007E20772132467C23FDF7F8FF0097019409
:104B480096203146804A2F23FEF7C0F82E20AE214A
:104B58006C222346FFF76CFE2E20EE216C222346A2
:104B6800FFF766FE0A23009301948E20A221774A5C
:104B78009B23FEF7ABF8764C20467649764B1A68AD
:104B880002F072FA207842B2744B93F900309A42DC
:104B980008D13DB9724B1B88724A128893420ED0D5
:104BA80003B162B940B26E4B1B8813B94FF4784316
:104BB80001E04FF6FF738E216C22FFF739FE644B3C
:104BC800587842B2654B93F901309A420BD1664B43
:104BD8001B7843B93DB9624B1B88624A12889342DD
:104BE8000ED003B162B940B25D4B1B8813B94FF4C4
:104BF800784301E04FF6FF739E216C22FFF718FE01
:104C0800534B987842B2554B93F902309A420AD1E5
:104C18004DB9534B1B88534A1288934211D0012B2C
:104C280001D0012A0DD140B24D4B1B88012B02D176
:104C38004FF4784301E04FF6FF73BE216C22FFF773
:104C4800F7FD434BD87842B2444B93F903309A426C
:104C58000AD14DB9424B1B88424A1288934211D05F
:104C6800022B01D0022A0DD140B23D4B1B88022BEA
:104C780002D14FF4784301E04FF6FF73CE216C2246
:104C8800FFF7D6FD324B187942B2344B93F9043012
:104C98009A420AD14DB9324B1B88324A1288934244
:104CA80011D0032B01D0032A0DD140B22C4B1B8805
:104CB800032B02D14FF4784301E04FF6FF73DE2156
:104CC8006C22FFF7B5FD224B587942B2234B93F97A
:104CD80005309A420AD14DB9214B1B88214A1288C6
:104CE800934211D0042B01D0042A0DD140B21C4BA1
:104CF8001B88042B02D14FF4784301E04FF6FF7371
:104D0800FE216C22FFF794FD114B987942B2134BA8
:104D180093F906309A420AD14DB9114B1B88114AB2
:104D28001288934229D0052B01D0052A25D140B2FB
:104D38000B4B1B88052B19D14FF4784318E000BFA3
:104D48009C010020A08500086C7D0008FCA40008D8
:104D58006C010020ECB8000844000020300000205E
:104D6800A401002010000020D01800204FF6FF7387
:104D78004FF487716C22FFF75BFD974BD87942B2ED
:104D8800964B93F907309A420AD14DB9944B1B8838
:104D9800944A1288934212D0062B01D0062A0ED1CB
:104DA80040B28F4B1B88062B02D14FF4784301E0A9
:104DB8004FF6FF734FF48F716C22FFF739FD8A4B62
:104DC8001A688A4B1A608548834902F071F9884B42
:104DD8001A78884B1B789A4212D1874BB3F9002076
:104DE800864BB3F900309A420AD14DB97C4B1B88E7
:104DF8007C4A1288934229D0072B01D0072A27D151
:104E08007D4BB3F9002002EB8202D20072487C4944
:104E180002F02AF9002411E06F4B185704EBC40183
:104E2800CD316F4B1B88072B02D14FF4784301E03B
:104E38004FF6FF738922FFF797FD0134032CEBDD52
:104E48006D4B1A886D4B1A80012602E0002600E09F
:104E58000026674B1A78674B1B789A4212D1694B28
:104E6800B3F90020684BB3F900309A420AD14DB922
:104E78005B4B1B885B4A1288934228D0082B01D0D1
:104E8800082A24D15F4BB3F9002002EB8202D2003A
:104E980051485E4902F0E8F8002411E04E4B1857DB
:104EA80004EBC401FA314E4B1B88082B02D14FF496
:104EB800784301E04FF6FF738922FFF755FD01346F
:104EC800032CEBDD4F4B1A884F4B1A800126504BB1
:104ED80093ED007A4F4BD3ED007AB4EE677AF1EE9A
:104EE80010FA0AD14DB93E4B1B883E4A12889342AC
:104EF8002BD00A2B01D00A2A27D19FED477A67EEDB
:104F0800877A17EE900A01F037FD02460B463248C1
:104F1800424902F0A9F8002411E02F4B185704EB7E
:104F2800C401FA312E4B1B880A2B02D14FF4784367
:104F380001E04FF6FF730A22FFF716FD0134032C38
:104F4800EBDD344B1A68324B1A60002E00F0988063
:104F5800274B1B78012B21D013B1022B60D08FE097
:104F68000021009179200322F023FDF7B3FD224BA5
:104F7800B3F9004004EBD4746410224BB3F9003049
:104F880003EBD3734FF6FF720092792004F1780196
:104F98000322C4EB6303FDF79DFD71E0002100913E
:104FA80079200322F023FDF795FD164BB3F9004055
:104FB80004EBD4746410104BB3F9003003EBD373D3
:104FC8004FF6FF7200927920C4F178010322A4EB16
:104FD8006303FDF77FFD53E06C01002030000020E3
:104FE800A40100201000002044000020C00100207F
:104FF8008C01002054000020B40100201A00002079
:10500800F0B80008400000203E000020F4B8000876
:105018001C000020500000200000C842FCB8000816
:105028000021009179200322F023FDF753FD4C4E17
:10503800B6F9004004EBD4746410DFF84C81B8F979
:10504800003003EBD3734FF6FF770097792004F114
:1050580078010322C4EB6303FDF73CFDB8F9004077
:1050680004EBD4746410B6F9003003EBD3730097E3
:105078007920C4F178010322A4EB6303FDF72AFD2C
:10508800384B1B78384A127893420AD14DB9374ABF
:105098001288374909888A4245D0092A01D0092946
:1050A80041D1012B16D013B1022B26D037E02F4B5C
:1050B8001B88092B02D14FF4784301E04FF6FF73A8
:1050C800092200920193C4205B212A4A1C23FDF780
:1050D800FDFD24E0254B1B88092B02D14FF47843B2
:1050E80001E04FF6FF73092200920193C4205B216F
:1050F800214A1C23FDF7EAFD11E01C4B1B88092BF4
:1051080002D14FF4784301E04FF6FF730922009271
:105118000193C4205B21194A1C23FDF7D7FD114BCD
:105128001A78114B1A70164B186801F025FC0AA35F
:10513800D3E9002301F074FC0022002301F0D8FE1B
:1051480018B90A4B1A880A4B1A8000220D4B1A709C
:1051580004B0BDE8F08100BFAE47E17A14AEEF3F7E
:10516800B40100208C01002054000020A40100207C
:1051780010000020EC9F000874A20008688E000848
:10518800500000209C010020400000202DE9F04143
:1051980082B02D4B1B682D4AA2FB03231B0E013B3B
:1051A8002B4F3B60002500952A4E326C42F00202DC
:1051B8003264326C02F002020092009A264A916828
:1051C80041F002019160916841F004019160234C23
:1051D800234A2260A56040F21A48C4F80C80636034
:1051E80025612046FDF748FA2046FDF78FF81D2077
:1051F80029460122FBF7F4FC1D20FBF731FD019540
:10520800336C43F004033364336C03F004030193F9
:10521800019B144C144B2360A560C4F80C803B68B8
:10522800636025612046FDF727FA2046FDF76EF8F2
:105238001E2002210422FBF7D3FC1E20FBF710FDE1
:1052480002B0BDE8F08100BF0C00002029D94266F9
:10525800B001002000380240002004E00C080020C3
:1052680000040040040700200008004008B5024878
:10527800FDF7A2F808BD00BF0C08002008B50248D9
:10528800FDF79AF808BD00BF0407002000B583B0F9
:1052980000230193234B1A6C42F000521A641B6CD2
:1052A80003F000530193019B1F48204B0360FBF759
:1052B80003FD08B1FEF78AFE1D4900220A604A6014
:1052C8001948FBF75FFD08B1FEF780FE164818493C
:1052D8001022FBF757FD08B1FEF778FE12480021AF
:1052E8000A468823FBF7A0FD08B1FEF76FFE0E48BB
:1052F800102100228823FBF797FD08B1FEF766FE10
:1053080009480021FBF7FAFC08B1FEF75FFE0648E2
:105318001021FBF7F3FC08B1FEF758FE03B05DF867
:1053280004FB00BF003802406039002000740040D0
:10533800CC050020F0B583B0FBF79EF8FEF752FDD0
:105348008648FDF76FFA8648FDF76CFA8548864B64
:105358001968FDF74DFAFEF7E1FDFEF775FA00F062
:10536800D1FCFEF7C1FC814C814B23602046FBF742
:10537800F9FF0123E36000232361E361236240F224
:105388000F33A360FE2363612046FBF733FF10B1A0
:105398007848FDF747FAFEF793F8FEF771F8764874
:1053A8004FF400510122FBF70BFF744BB3F90020B7
:1053B800734BB3F90000801A724B1978FEF752FD4F
:1053C800FFF764FFFEF70AFEFDF740FD0120FEF738
:1053D80019F80020FDF796FB0320FDF7C3FC012018
:1053E800FDF7D2FC4FF6FF700021FDF7C3FC00204B
:1053F8007821C822FDF7E6FFFEF7CCF80124624BBE
:105408001C70FEF7F3F9FFF7C1FE2046FFF778FBA3
:10541800FF200146FEF7B2FEFFF7F6F80020FFF77F
:105428006FFBFEF771FFFEF72BFF584B1868998842
:10543800FBF7B4FE10B14FF4784300E01F2300934C
:105448004FF49B70002103221346FDF743FB504B9A
:1054580018689988FBF7A2FE10B14FF4784300E072
:105468001F2300934FF49B70042103221346FDF77A
:1054780031FB484B1D689C8828462146FBF78EFE69
:1054880010B14FF4784300E01F2300934FF49B7052
:10549800082103221346FDF71DFB3F4B1868998826
:1054A800FBF77CFE10B14FF4784300E01F23009314
:1054B8004FF49B700C2103221346FDF70BFB374B6F
:1054C8001F689E88364B18689988FBF767FE024666
:1054D80038463146FBF774FE28462146FBF75EFE48
:1054E800F0B901242F4B1C602F4B1868998822466D
:1054F800FBF766FE2D4B186899882246FBF760FE7D
:105508002B4B186899880022FBF75AFE294B18681C
:1055180099880022FBF754FEC822274B1A607BE7C4
:105528000024204B1C60204B186899882246FBF702
:1055380047FE1E4B186899882246FBF741FE1C4B14
:10554800186899880122FBF73BFE1A4B186899885E
:105558000122FBF735FE184B1C605DE704B9000813
:1055680018B9000830B900080C000020C407002052
:105578000058004044B9000800100240B40100205F
:10558800400000208C010020C1070020247D000875
:10559800447D00084C7D0008347D0008EC7C000840
:1055A800547D0008940100202C7D0008AC7C000884
:1055B800B47C00081C7D0008B801002008B5C0F3C1
:1055C8000B03034800210A46FBF72EFC08BD00BF69
:1055D8006039002008B5C0F30B03034810210022EE
:1055E800FBF722FC08BD00BF603900200000000066
:1055F800914B1B78002B00F049832DE9F0418F4B2C
:105608001B88642B05D18E484FF400510122FBF70B
:10561800D7FDFEF7ABF88B4B1B68012B00F0E08041
:10562800022B00F0E881002B40F0E982864B1B68D2
:105638003BBB824B1D886E00844B1B889BB2844AFF
:105648001068181A01F086F90022824B01F0E8F977
:10565800814C04EBC50501F0A5FC2860751C7F4B47
:105668001B889BB27E4A1068181A01F073F9002251
:10567800784B01F0D5F904EB850401F093FC206028
:1056880026E06E4B1D886E00DFF8DC81B8F800005C
:1056980080B2744B1F68C01B01F05CF900226D4B8F
:1056A80001F0BEF96C4C04EBC50501F07BFC2860E9
:1056B800751CB8F8000080B2C01B01F04BF900223D
:1056C800644B01F0ADF904EB850401F06BFC20603C
:1056D800654B1B889BB2654A1288934203D9624B7B
:1056E8001A88624B1A805D4B1B889BB25F4A1288EE
:1056F800934203D9594B1A885C4B1A804F4B19882F
:1057080048005B4A02EBC102D2ED007A594B93ED97
:10571800007AF4EEC77AF1EE10FA01DDC3ED007AF3
:10572800534B03EB8003D3ED016A524B93ED007AA0
:10573800F4EEC76AF1EE10FA01DDC3ED006ADFEDA1
:105748004E5A67EEA57A4D4B93ED007A67EE877A4D
:105758009FED4B6A77EE867AFDEEE77A17EE900AB0
:10576800484BC3ED007A66EEA56A27EE267A37EE37
:10577800067AFDEEC77A17EE903A434AC2ED007AF0
:10578800314A1268012A0BD1404A1268904201DD61
:105798003E4A10603D4A1268934201DD3B4A13605D
:1057A80080B2FFF70BFF384B1888FFF713FF234B26
:1057B8001A88374B1B88C3F1FF018A42C0F21F8247
:1057C800A3F580731344244800EBC2010D683149E6
:1057D80001EBC304256000EBC202526862600EE26E
:1057E800194B1B68002B57D1144B1D886E00174BA3
:1057F8001B889BB2164A1068181A01F0ABF80022F1
:10580800144B01F00DF91A4C04EBC50501F0CAFB65
:105818002860751C114B1B889BB2114A1068181A16
:1058280001F098F800220B4B01F0FAF804EB85041C
:1058380001F0B8FB206056E0C107002008080020EE
:10584800001002406001002094010020BE070020E3
:105858002C0000200000303FFC280020FC0600201F
:105868002800002024000020E405002084010020F6
:10587800D0100020AC01002000008045500000201E
:10588800000000457C01002080010020A8010020C4
:10589800420000207C4100206D4B1D886E00DFF81F
:1058A800C081B8F8000080B26A4B1F68C01B01F0C5
:1058B80051F80022684B01F0B3F8684C04EBC505B9
:1058C80001F070FB2860751CB8F8000080B2C01B9E
:1058D80001F040F80022604B01F0A2F804EB8504C7
:1058E80001F060FB20605E4B1B889BB25D4A12880A
:1058F800934203D95A4B1A885A4B1A805A4B1B8821
:105908009BB2584A1288934203D9574B1A88554B71
:105918001A804F4B19884800544A02EBC102D2ED55
:10592800007A534B93ED007AF4EEC77AF1EE10FA51
:1059380001DDC3ED007A4D4B03EB8003D3ED016A23
:105948004B4B93ED007AF4EEC76AF1EE10FA01DDE5
:10595800C3ED006ADFED475A67EEA57A464B93ED33
:10596800007A67EE877A9FED456A77EE867AFDEED4
:10597800E77A17EE900A424BC3ED007A66EEA56A05
:1059880027EE267A37EE067AFDEEC77A17EE903ABA
:105998003C4AC2ED007A3C4A1268012A0BD13B4AC4
:1059A8001268904201DD394A1060384A1268934201
:1059B80001DD364A136080B2FFF700FE314B1888CC
:1059C800FFF708FE224B1A88314B1B88C3F1FF01F1
:1059D8008A42C0F21481A3F5807313441F4800EB78
:1059E800C2010D682B4901EBC304256000EBC2021C
:1059F8005268626003E1244B1B68002B52D1144BA0
:105A08001D886E00244B1B889BB2244A1068181A04
:105A180000F0A0FF0022104B01F002F8134C04EB39
:105A2800C50501F0BFFA2860751C0F4B1B889BB297
:105A38001B4A1068181A00F08DFF0022064B00F070
:105A4800EFFF04EB850401F0ADFA206051E000BFE0
:105A580008080020240000200000303FD01000205B
:105A6800E405002084010020FC060020F018002036
:105A7800AC010020000080455000002000000045D7
:105A88007C0100208001002094010020A801002052
:105A9800420000207C410020BE0700202C0000208E
:105AA800280000207C4B1D886E00DFF8FC81B8F8C8
:105AB800000080B2794B1F68C01B00F04BFF00222A
:105AC800774B00F0ADFF774C04EBC50501F06AFA9F
