:020000040800F2
:1000000000000520F9020008657A0008697A0008F6
:100010006D7A0008717A0008757A00080000000007
:100020000000000000000000000000000D040008B7
:10003000797A000800000000150400080158000843
:1000400029040008290400082904000829040008DC
:1000500029040008290400082904000829040008CC
:1000600029040008290400082904000829040008BC
:1000700029040008290400082904000829040008AC
:10008000290400082904000829040008290400089C
:10009000290400082904000829040008290400088C
:1000A000290400082904000829040008290400087C
:1000B00029040008E56E0008F56E00082904000810
:1000C000290400082904000829040008290400085C
:1000D000290400082904000829040008290400084C
:1000E000290400082904000829040008290400083C
:1000F000290400082904000829040008290400082C
:10010000290400082904000829040008290400081B
:10011000290400082904000829040008290400080B
:1001200029040008290400082904000829040008FB
:1001300029040008290400082904000829040008EB
:1001400029040008290400082904000829040008DB
:1001500029040008290400082904000829040008CB
:1001600029040008290400082904000829040008BB
:1001700029040008290400082904000800000000E0
:10018000290400082904000829040008290400089B
:10019000290400082904000829040008290400088B
:1001A000290400082904000829040008290400087B
:1001B000290400082904000829040008290400086B
:1001C000290400082904000800B583B003F0F6FCF8
:1001D000384B394A1360394A136039490CE00A68D0
:1001E0004B6801F10C04886803E01168196004335E
:1001F00004329842F9D82146324B9942EFD32E4B24
:100200001A68314B9A4204D12C4B1A682F4B9A42F0
:1002100000D0FEE7274B2E4A13602E4A13602E4B68
:100220000AE0194651F8082B5B6802E000201060D4
:1002300004329A42FAD30B46284A9342F1D3244B14
:100240001B6813B9234B1B6803B1FEE704F082FB64
:1002500001A8694603F02EFC214C224B1C1BA41064
:10026000002504E01E4B53F8253098470135AC4279
:10027000F8DC1D4C1D4B1C1BA410002504E01A4B80
:1002800053F8253098470135AC42F8DC01980099C5
:1002900006F08EFE0546164C164B1C1BA41004E0FF
:1002A000013C134B53F824309847002CF8DC2846C7
:1002B00003F0D2FBBABADECA00000020E804002036
:1002C0002C040008440400087856341232547698FE
:1002D000F0040020E0490020440400085404000811
:1002E000540400085404000854040008540400088E
:1002F000540400085404000808B5FFF765FF00BF68
:1003000000BEFEE71EF0040F0CBFEFF30880EFF312
:1003100009807146414A10472DE9F04182B00446F8
:100320008846134B5E6B9D6B9F6A1B6B13F0020F2D
:100330000DD00F4BDB6A002B09DA4BF6AB6103F0F3
:10034000C7FC20B14FF00042094BDA620CE00948CB
:1003500003F0C4FBCDF800802046394632462B46D8
:1003600003F03EFC00BEFEE702B0BDE8F08100BF36
:1003700000ED00E010A7000800BEFEE71EF0040F2D
:100380000CBFEFF30880EFF309807146244A104751
:100390002DE9F04182B007468846084B5D6B9C6BA7
:1003A0009E6A074803F09AFBCDF800803846314634
:1003B0002A46234603F014FC00BEFEE700ED00E0F1
:1003C00020A700081EF0040F0CBFEFF30880EFF326
:1003D00009807146134A10472DE9F04182B0074663
:1003E0008846084B5D6B9C6B9E6A074803F076FB62
:1003F000CDF80080384631462A46234603F0F0FB0C
:1004000000BEFEE700ED00E02CA7000800BEFEE7FE
:1004100000BEFEE700BEFEE77047000019030008BB
:0C04200091030008D903000800BEFEE7AD
:10042C004C6C010800000020EC0400204C6C01080E
:10043C000000001000000010F0040020E44900202F
:08044C00000000100000001088
:1004580010B5044602F03EF8064BA3FB00308009B5
:1004680000F01AFC4FF0FF302146002200F0C0FBDC
:10047800002010BDD34D621008B5032000F09AFB90
:100488000020FFF7E5FF07F0E7FA002008BD00BFEE
:10049800024A136801331360704700BFF404002058
:1004A800014B1868704700BFF404002010B50446DB
:1004B800504B5A6822F440325A60596842680A43DD
:1004C8005A600268536823F4807353600268536863
:1004D800016943EA012353600268536823F04073BB
:1004E80053600268516883680B43536002689368DD
:1004F80023F40063936002689168C3680B439360B8
:10050800826A3D4B9A4214D00268936823F0706364
:10051800936002689168836A0B43936002689368EA
:1005280023F04053936002689168C36A0B43936059
:1005380009E00268936823F0706393600268936827
:1005480023F0405393602268936823F0020393607A
:1005580022689368A16943EA41039360236A03B35D
:10056800636A013B072B04D9244840F20F6103F06A
:10057800A5FA2268536843F40063536022685368FD
:1005880023F460435360636A013B4FF4604292FA7C
:10059800A2F2B2FA82F29340226851680B43536088
:1005A80004E02268536823F4006353602268D36A26
:1005B80023F47003D3622168CA6AE369013B42EA03
:1005C8000353CB622268936823F400739360226814
:1005D8009368216B43EA412393602268936823F46C
:1005E8008063936022689368616943EA812393601A
:1005F80010BD00BF002301400100000F7CA30008CC
:10060800704700BF002800F0DD8010B5044603687D
:100618006D4A6E498B4218BF934208D002F580722A
:10062800934204D06A484FF4877103F047FA63682D
:10063800002B18BFB3F5803F0AD0B3F5003F07D0B1
:10064800B3F5403F04D0624840F20F1103F036FA88
:10065800A368002B18BFB3F1807F0AD0B3F1007FE5
:1006680007D0B3F1407F04D059484FF4887103F0A4
:1006780025FA2369012B04D9554840F2111103F0DA
:100688001DFAA369012B04D951484FF4897103F06D
:1006980015FAA36A002B18BFB3F1807F2ED0B3F1EF
:1006A800007F2BD0B3F1407F28D0B3F1806F25D0E5
:1006B800B3F1A06F22D0B3F1C06F1FD0B3F1E06FD8
:1006C8001CD0B3F1006F19D0B3F1106F16D0B3F18D
:1006D800206F13D0B3F1306F10D0B3F1406F0DD04D
:1006E800B3F1506F0AD0B3F1706F07D0394A934213
:1006F80004D0374840F2131103F0E0F9E368002B07
:1007080018BFB3F5006F04D031484FF48A7103F075
:10071800D5F9E369013B0F2B04D92D4840F2151197
:1007280003F0CCF9236B012B04D929484FF48B71C2
:1007380003F0C4F96369022B04D9254840F2171164
:1007480003F0BCF9236A012B04D921484FF48C71BA
:1007580003F0B4F9A26A1F4B9A4210D0E36A002B47
:1007680018BFB3F1805F0AD0B3F1005F07D0B3F1CF
:10077800405F04D016484FF48E7103F09FF9236C44
:100788002BB9636484F83C302046FFF739FF236CAB
:1007980013F0100F11D1226C0F4B134043F00203DA
:1007A80023642046FFF782FE00206064236C23F058
:1007B800030343F00103236400E00120002384F8CD
:1007C8003C3010BD0120704700210140002001404D
:1007D8007CA300080100000FFDEEFFFF10B582B0FA
:1007E8000446002301938369012B04D942484FF43E
:1007F800DD7103F063F9E36A002B18BFB3F1805F82
:100808000AD0B3F1005F07D0B3F1405F04D03A4893
:1008180040F2BB1103F052F994F83C30012B5FD041
:10082800012384F83C3023689A6812F0010F13D131
:100838009A6842F001029A60304B1B68304AA2FB6A
:1008480003239B0C03EB4303019302E0019B013B51
:100858000193019B002BF9D12268936813F0010FD3
:1008680040D0216C274B0B4043F4807323645368BA
:1008780013F4806F05D0236C23F4405343F4805362
:100888002364236C13F4805F04D0636C23F00603A5
:10089800636401E000236364002384F83C306FF054
:1008A80002031360184B5B6813F01F0F0AD123680B
:1008B8009A6812F0405F17D19A6842F080429A60B5
:1008C800002016E02368114A93420FD19A6812F06B
:1008D800405F0DD19A6842F080429A60002008E09B
:1008E800022006E0002004E0002002E0002000E0F2
:1008F800002002B010BD00BF7CA300080C0000203F
:1009080083DE1B43FEF8FFFF002301400020014067
:1009180070B503689A6812F4806F0CD09B6813F462
:10092800807F08D0036C43F020030364002380F821
:100938003C30012070BD0D460446FFF7B1FD064668
:1009480011E0B5F1FF3F0ED025B1FFF7A9FD801BDF
:10095800A84208D9236C43F004032364002384F8D5
:100968003C30032070BD23681A6812F0020FE8D0EB
:100978006FF012021A60236C43F400732364236837
:100988009A6812F0405F17D1A269BAB9DA6A12F40C
:10099800700F03D09B6813F4806F11D1236C23F47C
:1009A80080732364236C13F4805F0BD1236C43F0B2
:1009B80001032364002070BD002070BD002070BDBD
:1009C800002070BD002070BD0368D86C704700BF60
:1009D80030B583B005460C46002301930B686E4A78
:1009E800934218BF122B04D96C4840F2FB4103F024
:1009F80065F86368013B0F2B04D9684840F2FC4155
:100A080003F05CF8A368072B04D9644840F2FD4161
:100A180003F054F895F83C30012B00F0B98001231D
:100A280085F83C302368092B21D92868C2689BB215
:100A380003EB43031E3B072101FA03F322EA0303F6
:100A4800C3602368544A934206D12A68D368A168D0
:100A580043EA0163D3601EE02968C868A2689BB2B4
:100A680003EB43031E3B9A400243CA6013E0286825
:100A780002699BB203EB4303072101FA03F322EA5D
:100A88000303036129680869A368228802EB42020C
:100A9800934003430B616368062B16D82868426BA2
:100AA80003EB8303053B1F2101FA03F322EA030347
:100AB80043632968486B2288636803EB8303053B1B
:100AC80002FA03F303434B632EE00C2B16D8286875
:100AD800026B03EB8303233B1F2101FA03F322EA92
:100AE800030303632968086B2288636803EB8303A5
:100AF800233B02FA03F303430B6315E02868C26A39
:100B080003EB8303413B1F2101FA03F322EA0303AA
:100B1800C3622968C86A2288636803EB8303413B80
:100B280002FA03F30343CB622A681D4B9A4207D1AA
:100B38002368122B04D11B4A536843F48003536083
:100B48002A68174B9A421FD12368134A112B18BFE2
:100B5800934219D1134A536843F40003536022683F
:100B68000D4B9A4210D1104B1B68104AA2FB03236D
:100B78009B0C03EB83035B00019302E0019B013BA9
:100B88000193019B002BF9D1002085F83C0000E07F
:100B9800022003B030BD00BF120000107CA3000883
:100BA80000200140002301400C00002083DE1B438D
:100BB800006C704710B50446C31E042B03D90948BE
:100BC800A42102F07BFF04F00700074AD36823F44E
:100BD800E0631B041B0C43EA0020044B0343D3606F
:100BE80010BD00BFACA3000800ED00E00000FA054E
:100BF80070B504460E4615460F2A03D91848BC217D
:100C080002F05CFF0F2E03D91548BD2102F056FFF4
:100C1800144BDB68C3F30223C3F10702042A28BF7D
:100C28000422191D062901D9D81E00E0002001233D
:100C380003FA02F2013A324002FA00F183405A1EE6
:100C48002A400A43002C06DA04F00F041201D2B23B
:100C5800054B1A5570BD1201D2B2044B1A5570BD1E
:100C6800ACA3000800ED00E014ED00E000E400E0B3
:100C780010B5041E03DA0648D02102F01FFF6109EF
:100C880004F01F040123A340024A42F8213010BD9A
:100C9800ACA3000800E100E00138B0F1807F0AD27F
:100CA800064B5860F021064A82F82310002098600D
:100CB80007221A6070470120704700BF10E000E06B
:100CC80000ED00E010B50446042818BF002804D041
:100CD800094840F2B31102F0F1FE042C05D1074A8D
:100CE800136843F00403136010BD044A136823F02B
:100CF8000403136010BD00BFACA3000810E000E0BF
:100D0800704700BFC8B110B5044602680C4B9A4240
:100D180003D00C48EE2102F0D1FE237913F0FF0F27
:100D280004D1002363712046FFF7EAFF02232371F1
:100D3800002020610123237110BD0120704700BFEE
:100D480000740040E0A3000838B504460D460029A9
:100D580018BF102904D01D484FF4B77102F0AEFE39
:100D68006379012B30D0012363710222227122683A
:100D78001168AB400B43136085B92268116813688A
:100D880003F03803382B14BF0023012313EA91031F
:100D980015D0536843F00103536010E022681168CE
:100DA800136803F46013B3F5601F14BF0023012315
:100DB80013EA914303D0536843F0020353600123BD
:100DC80023710020607138BD022038BDE0A30008FF
:100DD800F8B504460E4615460B68002B18BF242BA1
:100DE80012D00C2B10D0142B0ED01C2B0CD0042B93
:100DF8000AD02C2B08D0342B06D03C2B04D01C480E
:100E080040F20E3102F05AFE7368002B18BF022B15
:100E180004D0174840F20F3102F050FE002D18BFE1
:100E2800102D04D012484FF4447102F047FE637944
:100E3800012B1BD0012060710223237127683968B8
:100E480040F6FE73AB4021EA0302316873680B4336
:100E5800AB4013433B6021680A68C023AB4022EAD9
:100E680003030B60207100206071F8BD0220F8BDFB
:100E7800E0A30008F0B583B0074614461D460023DA
:100E880001930E46994218BF102904D0144840F225
:100E9800463102F013FE002C18BF042C06D0082C93
:100EA80004D00F4840F2473102F008FE4FF6F073C5
:100EB8009D4204D90A484FF4527102F0FFFD3B6885
:100EC800019326B9019B1C440834019403E0019B5B
:100ED8001C4414340194019B1D60002003B0F0BD34
:100EE800E0A300082DE9F04F83B080460F46B34BCE
:100EF800B34A904218BF98422BD003F50063C31A37
:100F080018BF012302F50062904222D00BB3AD4B0B
:100F1800C31A18BF012302F50062904219D0C3B169
:100F2800A94BC31A18BF012302F50062904210D0E2
:100F38007BB1A64BC31A18BF012302F50062904289
:100F480007D033B1A24B984203D0A248C32102F084
:100F5800B5FD3B881BB99F48C42102F0AFFD7B68F3
:100F6800112B18BF012B20D9022B1ED0122B1CD0FD
:100F7800994A934219D002F58012934215D002F58E
:100F88008012934211D0A2F5F81293420DD002F5C7
:100F98008012934209D002F58012934205D0032BA8
:100FA80003D08C48C52102F089FDBB68022B03D908
:100FB8008848C62102F082FD0024F8E0A1460125F8
:100FC800A5403B6803EA050AAA4540F0EF807B6824
:100FD800122B18BF022B1CD13B690F2B18BF0C2BEF
:100FE80007D90D2B05D00E2B03D07A48D72102F054
:100FF80065FDE608083658F8261004F0070080005A
:101008000F23834021EA03023B698340134348F8D6
:101018002630D8F800304FEA440B032606FA0BF6C0
:10102800F64306EA03027B6803F0030303FA0BF3B3
:101038001343C8F800307B685A1E112B18BF012AC9
:1010480001D9122B1CD1FB68032B03D96148EB2172
:1010580002F034FDD8F8083006EA0302FB6803FA08
:101068000BF31343C8F80830D8F8043023EA050313
:101078007D68C5F3001505FA09F51D43C8F8045045
:10108800D8F80C303340BE6806FA0BF61E43C8F891
:101098000C607B6813F0805F00F088800023019368
:1010A8004E4B5A6C42F480425A645B6C03F48043A2
:1010B8000193019BA308991C494A52F8211004F096
:1010C800030080000F22824021EA02013C4A904539
:1010D80037D002F58062904531D002F580629045A4
:1010E8002BD002F58062904525D002F580629045AC
:1010F8001FD002F58062904519D002F580629045B4
:1011080013D002F5806290450DD002F580629045BB
:1011180007D002F58062904501D1092212E00A2227
:1011280010E008220EE007220CE006220AE0052261
:1011380008E0042206E0032204E0022202E0012281
:1011480000E0002282400A430233254941F8232067
:10115800244B1A686FEA0A0303EA0201786810F45C
:10116800803F01D04AEA02011E4A1160526803EA30
:101178000201786810F4003F01D04AEA0201194AD6
:101188005160926803EA0201786810F4801F01D068
:101198004AEA0201134A9160D2681340796811F44F
:1011A800001F01D04AEA02030E4AD36001340F2C13
:1011B8007FF604AF03B0BDE8F08F00BF0004024023
:1011C8000000024000140240001C024000240240BB
:1011D8000028024010A40008000011100038024046
:1011E80000380140003C014038B505460C4621B99D
:1011F800054840F28D1102F061FC2B69234201D0B1
:10120800012038BD002038BD10A4000870B506467E
:1012180015460C4621B9094840F2AD1102F04EFCC2
:10122800012D04D905484FF4D77102F047FC0DB1E0
:10123800B46170BD2404B46170BD00BF10A400087F
:101248002DE9F04180460E4617461D46069C036868
:10125800224A23498B4218BF93420CD002F5806280
:10126800934208D002F58062934204D01D4841F2AF
:10127800590102F023FCB5F1807F18BFB5F1007F5A
:1012880005D025B1174841F25A0102F017FCB4F510
:10129800804F18BFB4F5105F0BD0231C18BF012373
:1012A800B4F5005F05D023B10E4841F25B0102F0AE
:1012B80005FCD8F80020536823F07F7323F45933D2
:1012C80023F47F7323F00303C6F3090646EA0746AF
:1012D80035432C431C435460BDE8F081005800405E
:1012E8000054004040A4000870B504460D46FFF7BE
:1012F800D7F8064623689B6913F0100F12D1002017
:1013080070BDB5F1FF3F0DD025B1FFF7C9F8801BBF
:10131800A84207D9012384F83530002384F83430F3
:10132800032070BD23689A6912F0200FE9D01022BB
:10133800DA6123682022DA6123689A6912F0010FC2
:1013480001D10122DA612268536823F0FF7323F484
:101358008B3323F4FF7323F0010353600423A36347
:10136800012084F83500002384F8343070BD00BFB4
:1013780070B504460D46FFF793F8064619E0204677
:101388002946FFF7B1FFD8B9B5F1FF3F11D025B114
:10139800FFF786F8801BA8420BD9A36B43F0200304
:1013A800A363012384F83530002384F83430032004
:1013B80070BD23689B6913F0020FE0D0002070BD58
:1013C800012070BD2DE9F04105460E4690461C46A9
:1013D800FFF766F80746B8F1000F12D02EE0B4F117
:1013E800FF3F0ED024B1FFF75BF8C01BA04208D91D
:1013F800012385F83530002385F834300320BDE813
:10140800F0812B689B6926EA0303C3F31003002BC2
:10141800E5D10020BDE8F081B4F1FF3F0ED024B142
:10142800FFF73EF8C01BA04208D9012385F83530E4
:10143800002385F834300320BDE8F0812B689B69D0
:1014480026EA0303C3F31003002BE5D00020BDE810
:10145800F08100BF70B505460C46FFF721F8064637
:1014680016E028462146FFF73FFFC0B924B1FFF731
:1014780017F8801BA0420BD9AB6B43F02003AB637A
:10148800012385F83530002385F83430032070BDFA
:101498002B689B6913F0200FE3D0002070BD01205A
:1014A80070BD00BF70B504460D46FEF7F9FF06464D
:1014B80031E020462946FFF717FF002832D123687C
:1014C8009A6912F0200F14D02022DA61226853683A
:1014D80023F0FF7323F48B3323F4FF7323F001030A
:1014E80053600023A363012084F8350084F8343066
:1014F80070BD25B1FEF7D4FF801BA8420BD9A36BA2
:1015080043F02003A363012384F83530002384F8D3
:101518003430032070BD23689B6913F0040FC8D0D2
:10152800002070BD012070BD002800F0A88010B513
:1015380004460368534A54498B4218BF93420CD05F
:1015480002F58062934208D002F58062934204D08B
:101558004E4840F22B1102F0B1FAA368B3F5806F40
:1015680004D34A484FF4967102F0A8FAE368013BA5
:10157800012B04D9454840F22D1102F09FFA236946
:10158800002B18BFB3F5004F04D040484FF49771B3
:1015980002F094FA6369FF2B04D93C4840F22F11FA
:1015A80002F08CFAA369072B04D938484FF49871D4
:1015B80002F084FAE369002B18BFB3F5002F04D0BA
:1015C800324840F2311102F079FA236A002B18BF31
:1015D800B3F5003F04D02D484FF4997102F06EFA2C
:1015E80094F8353013F0FF0F05D1002384F8343018
:1015F800204603F0A7FD022384F8353022681368DB
:1016080023F0010313602268636823F07063136199
:101618002268936823F400439360A3685BB1E2688F
:10162800012A04D1226843F40043936003E022684E
:1016380043F404439360E368022B03D123684FF417
:1016480000625A6022685168114B0B43536022684C
:10165800216963690B43A16943EA0123D3602268C6
:10166800E169236A0B4313602268136843F001039E
:1016780013600020A063012384F8353010BD0120D9
:10168800704700BF005800400054004040A40008C4
:1016980000800002704700BF38B310B504460368E5
:1016A800134A14498B4218BF93420CD002F580624A
:1016B800934208D002F58062934204D00E4840F26B
:1016C8007D1102F0FBF9022384F835302268136893
:1016D80023F0010313602046FFF7DCFF0020A0631E
:1016E80084F8350084F8340010BD0120704700BF2D
:1016F800005800400054004040A400082DE9F04381
:1017080083B004461D4690F83530DBB2012B40F01B
:1017180090800F461646002D18BF002A00F08B80D7
:1017280003689B6913F4004F40F0878090F83430C9
:10173800012B00F08480012380F83430122380F8D4
:10174800353000238363FF2D0AD94FF400530093EB
:10175800FF224FF08073FFF773FD4FF0FF080AE098
:101768004FF400530093EAB24FF00073FFF768FD9F
:10177800A84600E04E4620460A99FFF7F9FD20B139
:10178800A36B042B5DD1012360E0236806F10109F6
:1017980032789A62013DADB2B8F101080CBF01235D
:1017A8000023002D0CBF002303F00103FBB12046EA
:1017B800802100220A9BFFF705FE002843D1FF2D58
:1017C8000BD90023009320463946FF224FF080733F
:1017D800FFF736FD4FF0FF0809E00023009320468D
:1017E8003946EAB24FF00073FFF72AFDA846002DEC
:1017F800C0D120460A99FFF72DFE034620B1A36BFE
:10180800042B22D1012321E022682021D161216803
:101818004A6822F0FF7222F48B3222F4FF7222F01F
:1018280001024A60012284F83520002284F834201D
:101838000CE002230AE0012308E0022306E0022369
:1018480004E0032302E0032300E00323184603B067
:10185800BDE8F0832DE9F04383B004461D4690F8B7
:101868003530DBB2012B40F090800F461646002D34
:1018780018BF002A00F08B8003689B6913F4004F9F
:1018880040F0878090F83430012B00F084800123E9
:1018980080F83430222380F8353000238363FF2D0D
:1018A8000AD94FF410530093FF224FF08073FFF7CB
:1018B800C7FC4FF0FF080AE04FF410530093EAB258
:1018C8004FF00073FFF7BCFCA84600E04E462046E8
:1018D8000421FFF7E7FD20B1A36B042B5DD10123A1
:1018E80060E006F1010923685B6A3370013DADB21F
:1018F800B8F101080CBF01230023002D0CBF002301
:1019080003F00103FBB12046802100220A9BFFF768
:1019180059FD002843D1FF2D0BD900230093204601
:101928003946FF224FF08073FFF78AFC4FF0FF081B
:1019380009E00023009320463946EAB24FF00073CD
:10194800FFF77EFCA846002DC0D120461921FFF7DD
:1019580081FD034620B1A36B042B22D1012321E092
:1019680022682021D16121684A6822F0FF7222F49E
:101978008B3222F4FF7222F001024A60012284F8BD
:101988003520002284F834200CE002230AE00123E9
:1019980008E0022306E0022304E0032302E0032315
:1019A80000E00323184603B0BDE8F0832DE9F047B3
:1019B80082B00024019490F83540E4B2012C40F044
:1019C8008C800468A46914F4004F40F0888090F873
:1019D8003440012C00F085801F4690468946064613
:1019E800012380F83430022380F8353000238363E4
:1019F8003268F368012B04D1C9F309013E4B0B434C
:101A080003E0C9F3090343F420535360FEF748FD8C
:101A1800824611E0B7F1FF3F0ED02FB1FEF740FD2F
:101A2800CAEB0000B84207D9012386F835300023F5
:101A380086F8343003235BE03568AB6913F0200F78
:101A480008D1AB6913F0100F04D196F83540E4B211
:101A5800032CDFD1AB6913F0100F12D130462021CF
:101A680000223B46FFF7AEFC034600283BD1326814
:101A78002021D161012286F83520002286F8342001
:101A880036E03046202100223B46FFF79BFC60BB36
:101A980033681022DA6133682022DA61019B5A1C0C
:101AA800019243450ED13268536843F48043536032
:101AB8003046202100223B46FFF784FCB8B9336842
:101AC8002022DA61019B434592D3012386F8353001
:101AD800002386F8343003230AE0022308E00223B7
:101AE80006E0022304E0032302E0032300E00323CB
:101AF800184602B0BDE8F0870020000210B582B099
:101B0800002301931C4B1A6C42F080521A641B6C20
:101B180003F080530193019B184A136843F4803300
:101B28001360FEF7BDFC044605E0FEF7B9FC001B98
:101B3800B0F57A7F1AD8114B5B6813F4803FF4D064
:101B48000E4A136843F400331360FEF7A9FC0446F9
:101B580005E0FEF7A5FC001BB0F57A7F08D8074B17
:101B68005B6813F4003FF4D0002002E0032000E09B
:101B7800032002B010BD00BF0038024000700040D2
:101B880030B583B0044603680F2B04D99B484FF443
:101B9800807101F093FF236813F0010F00F08E802D
:101BA8006368002B18BFB3F5803F07D0B3F5A02FAB
:101BB80004D092484FF4837101F080FF904B9B68EA
:101BC80003F00C03042B0AD08D4B9B6803F00C0325
:101BD800082B0DD18A4B5B6813F4800F08D0884B13
:101BE8001B6813F4003F69D06368002B66D15BE281
:101BF800834B1A6822F480321A601A6822F4802211
:101C08001A601A6822F480321A60FEF749FC054609
:101C180005E0FEF745FC401B642800F24782784B3C
:101C28001B6813F4003FF4D1754A136823F480331A
:101C380013606368B3F5803F09D11346126822F434
:101C480080221A601A6842F480321A6015E0B3F5EF
:101C5800A02F09D16A4B1A6842F480221A601A68C8
:101C680042F480321A6008E0654B1A6822F4802238
:101C78001A601A6822F480321A6063687BB1FEF732
:101C88000FFC054605E0FEF70BFC401B642800F23C
:101C98000F825B4B1B6813F4003FF4D00EE0FEF795
:101CA800FFFB054605E0FEF7FBFB401B642800F23E
:101CB8000182534B1B6813F4003FF4D1236813F0DF
:101CC800020F6ED0E368012B04D94C4840F247114B
:101CD80001F0F4FE23691F2B04D948484FF4A4717E
:101CE80001F0ECFE464B9B6813F00C0F0AD0444BF6
:101CF8009B6803F00C03082B1BD1414B5B6813F462
:101D0800800F16D13E4B1B6813F0020F03D0E36817
:101D1800012B40F0D1813A48036823F0F801236988
:101D2800F82292FAA2F2B2FA82F293400B430360CD
:101D380037E0E3680BB3324A136843F001031360DA
:101D4800FEF7AEFB054605E0FEF7AAFB401B64283C
:101D580000F2B4812A4B1B6813F0020FF4D0284814
:101D6800036823F0F8012369F82292FAA2F2B2FA82
:101D780082F293400B43036013E0214A136823F077
:101D880001031360FEF78CFB054605E0FEF788FBB0
:101D9800401B642800F29481194B1B6813F0020F52
:101DA800F4D1236813F0080F37D06369012B04D9E5
:101DB80012484FF4C47101F081FE6369A3B1104A5F
:101DC800536F43F001035367FEF76AFB054605E0CE
:101DD800FEF766FB401B642800F27481084B5B6FBA
:101DE80013F0020FF4D018E0054A536F23F00103F3
:101DF8005367FEF755FB05460AE000BF80A40008BC
:101E080000380240FEF74CFB401B642800F25C815E
:101E1800B64B5B6F13F0020FF4D1236813F0040F75
:101E280000F09480A368052B18BF012B04D9B04893
:101E38004FF4D97101F042FE00230193AB4B1A6CA9
:101E480042F080521A641B6C03F080530193019B8B
:101E5800A84A136843F480731360FEF721FB054614
:101E680005E0FEF71DFB401B642800F22F81A14B03
:101E78001B6813F4807FF4D09C4B1A6F22F0010288
:101E88001A671A6F22F004021A671A6F22F0010209
:101E98001A67FEF705FB054607E0FEF701FB401B46
:101EA80041F28833984200F21381904B1B6F13F074
:101EB800020FF2D18D4A136F23F001031367A36851
:101EC800012B09D11346126F22F004021A671A6F08
:101ED80042F001021A6714E0052B09D1834B1A6FEF
:101EE80042F004021A671A6F42F001021A6708E00A
:101EF8007E4B1A6F22F004021A671A6F22F0010251
:101F08001A67A3688BB1FEF7CBFA054607E0FEF720
:101F1800C7FA401B41F28833984200F2DB80734BCA
:101F28001B6F13F0020FF2D010E0FEF7B9FA054666
:101F380007E0FEF7B5FA401B41F28833984200F2F9
:101F4800CB806A4B1B6F13F0020FF2D1A369022BEF
:101F580004D967484FF4FB7101F0B0FDA369002B69
:101F680000F0BC80614A926802F00C02082A00F076
:101F7800B780022B40F08380E369002B18BFB3F5CC
:101F8800800F04D05A4840F2FF1101F097FD236AF0
:101F9800023B3D2B04D956484FF4007101F08EFDE9
:101FA800636A323BB3F5BF7F04D9514840F201213F
:101FB80001F084FDA36A022B18BF042B08D0062B5E
:101FC80006D0082B04D04A4840F2022101F076FDE1
:101FD800E36A023B0D2B04D9454840F2032101F086
:101FE8006DFD424A136823F080731360FEF758FAB8
:101FF800054604E0FEF754FA401B642872D83B4BB0
:102008001B6813F0007FF5D1226A636A47F6C07136
:1020180091FAA1F1B1FA81F18B401A43A36A5B08E6
:10202800013B4FF4403191FAA1F1B1FA81F18B40B3
:102038001343E26943EA0201E36A4FF0706292FADD
:10204800A2F2B2FA82F203FA02F241EA020343F080
:102058000053264A5360136843F080731360FEF7F9
:102068001FFA044604E0FEF71BFA001B64283BD85D
:102078001E4B1B6813F0007FF5D000203DE01B4A83
:10208800136823F080731360FEF70AFA044604E02D
:10209800FEF706FA001B64282ED8144B1B6813F0B1
:1020A800007FF5D1002028E0012026E0032024E06D
:1020B800032022E0032020E001201EE003201CE092
:1020C80003201AE0032018E0032016E0032014E0A0
:1020D800032012E0032010E003200EE000200CE0B3
:1020E80001200AE0032008E0032006E0003802404F
:1020F80080A4000800700040032003B030BD00BF7A
:1021080070B504460D460368013B0E2B04D98A4876
:1021180040F2622101F0D2FC0F2D04D9864840F22A
:10212800632101F0CBFC854B1B6803F00F03AB4226
:1021380080F08F80814A136823F00F032B431360CC
:10214800136803F00F03AB4240F05781236813F084
:10215800020F1ED0A368002B18BF802B12D0902B23
:1021680010D0A02B0ED0B02B0CD0C02B0AD0D02B67
:1021780008D0E02B06D0F02B04D06F4840F279212C
:1021880001F09CFC6E498B6823F0F002A3681343AE
:102198008B60236813F0010F00F0EB806368022B5B
:1021A80004D965484FF4207101F088FC6268012A5F
:1021B80005D1634B1B6813F4003F0ED11FE1022ABF
:1021C80005D15F4B1B6813F0007F06D119E15C4B0A
:1021D8001B6813F0020F00F0168159498B6823F031
:1021E800030313438B60FEF75BF905466368012B15
:1021F8000FD107E0FEF754F9401B41F288339842AB
:1022080000F203814E4B9B6803F00C03042BF1D1C1
:10221800AFE0022B17D107E0FEF742F9401B41F26D
:102228008833984200F2F380454B9B6803F00C0317
:10223800082BF1D19DE0FEF733F9401B41F28833BA
:10224800984200F2E6803E4B9B6813F00C0FF2D1E7
:102258008FE0236813F0020F1ED0A368002B18BF6D
:10226800802B12D0902B10D0A02B0ED0B02B0CD0DE
:10227800C02B0AD0D02B08D0E02B06D0F02B04D0EE
:102288002D484FF4327101F019FC2D498B6823F069
:10229800F002A36813438B60236813F0010F5DD02D
:1022A8006368022B04D9244840F2CF2101F006FCD0
:1022B8006268012A05D1224B1B6813F4003F0ED136
:1022C800A9E0022A05D11E4B1B6813F0007F06D136
:1022D800A3E01B4B1B6813F0020F00F0A080184905
:1022E8008B6823F0030313438B60FEF7D9F8064687
:1022F8006368012B0FD107E0FEF7D2F8801B41F28B
:102308008833984200F28D800D4B9B6803F00C03D4
:10231800042BF1D122E0022B1BD106E0FEF7C0F816
:10232800801B41F2883398427DD8054B9B6803F0A7
:102338000C03082BF2D111E080A40008003C0240F5
:1023480000380240FEF7ACF8801B41F2883398420F
:102358006BD8384B9B6813F00C0FF3D1364A1368CF
:1023680023F00F032B431360136803F00F03AB42F2
:102378005DD1236813F0040F1AD0E368002B18BF4F
:10238800B3F5805F0DD0B3F5A05F0AD0B3F5C05F99
:1023980007D0B3F5E05F04D0284840F21E3101F0C1
:1023A8008DFB24498B6823F4E052E36813438B6068
:1023B800236813F0080F1BD02369002B18BFB3F54F
:1023C800805F0DD0B3F5A05F0AD0B3F5C05F07D02A
:1023D800B3F5E05F04D0194840F2253101F06EFBF7
:1023E800144A936823F46043216943EAC103936064
:1023F8000020FEF72DF8002070BD012070BD0120DF
:1024080070BD012070BD012070BD032070BD032088
:1024180070BD032070BD012070BD012070BD01207A
:1024280070BD032070BD032070BD032070BD012066
:1024380070BD00BF00380240003C024080A4000884
:10244800214B9B6803F00C03042B3AD0082B01D0D6
:102458001E4870471C4B586800F03F005B6813F437
:10246800800F0FD01A4BB3FBF0F3174A506847F6AA
:10247800C072104092FAA2F2B2FA82F2D04000FB87
:1024880003F30EE0114BB3FBF0F30F4A506847F625
:10249800C072104092FAA2F2B2FA82F2D04000FB67
:1024A80003F3094A506800F440304FF4403292FA7E
:1024B800A2F2B2FA82F2D04001304000B3FBF0F051
:1024C80070470348704700BF003802400024F400FA
:1024D80080BA8C0108B5FFF7B3FF084B9B6803F07F
:1024E800F003F02292FAA2F2B2FA82F2D340044A3E
:1024F800D35CD840034B186008BD00BF00380240C9
:1025080070A400080C000020F0B583B004460268EF
:10251800644B13401BB96448872101F0CFFA236844
:1025280013F0010F16D0636B002B18BFB3F5000F23
:1025380003D05D488D2101F0C1FA5C4B9A6822F402
:1025480000029A609968626B0A439A60636B1BB1D8
:10255800002702E0002700E00127236813F4002F7A
:102568001DD0E36B002B18BFB3F5801F06D0B3F561
:10257800001F03D04C489D2101F0A0FA4B49D1F827
:102588008C3023F44012E36B1343C1F88C30E36BB7
:10259800B3F5801F00D101271BB1002502E00025FB
:1025A80000E00125236813F4801F1CD0236C002B46
:1025B80018BFB3F5800F06D0B3F5000F03D03A4823
:1025C800B12101F07BFA3949D1F88C3023F440026B
:1025D800236C1343C1F88C30236CB3F5800F00D102
:1025E800012703B90125236813F0807F00D0012754
:1025F80013F0200F6CD0002301932C4B1A6C42F07F
:1026080080521A641B6C03F080530193019B284A83
:10261800136843F480731360FDF742FF064605E034
:10262800FDF73EFF801B642800F2F084204B1B68F6
:1026380013F4807FF4D01D4B1A6F236B534013F4AF
:10264800407F45D0194B196F21F440701A6F42F43E
:1026580080321A671A6F22F480321A67186711F0ED
:10266800020F10D0FDF71CFF064607E0FDF718FF24
:10267800801B41F28833984200F2CA840B4B1B6FCF
:1026880013F0020FF2D0236B03F44072B2F5407FCF
:1026980012D10648826822F4F811064A1A400A4301
:1026A80082600EE0F9FFFF01B0A400080038024084
:1026B80000700040FFFCFF0FBB4A936823F4F81337
:1026C8009360B94A116F236BC3F30B030B43136772
:1026D800236813F0100F17D0A36B002B18BFB3F1AA
:1026E800807F04D0B1484FF4807101F0E7F9AE4B18
:1026F800D3F88C2022F08072C3F88C20D3F88C1089
:10270800A26B0A43C3F88C20236813F4804F16D0B9
:10271800636E002B18BFB3F5803F07D0B3F5003FB9
:1027280004D0A2484FF4857101F0C8F99E49D1F848
:10273800903023F44032636E1343C1F8903023681D
:1027480013F4004F16D0A36E002B18BFB3F5802FDB
:1027580007D0B3F5002F04D094484FF48A7101F0E4
:10276800ADF99149D1F8903023F44022A36E134378
:10277800C1F89030236813F4803F16D0E36E002B25
:1027880018BFB3F5801F07D0B3F5001F04D08748E2
:102798004FF48F7101F092F98349D1F8903023F406
:1027A8004012E36E1343C1F89030236813F4003FDE
:1027B80016D0236F002B18BFB3F5800F07D0B3F5E1
:1027C800000F04D079484FF4947101F077F97649F5
:1027D800D1F8903023F44002236F1343C1F89030AE
:1027E800236813F0400F14D0636C032B18BF012B20
:1027F80006D9022B04D06D484FF4997101F05EF9A7
:102808006949D1F8903023F00302636C1343C1F88F
:102818009030236813F0800F16D0A36C002B18BFDC
:10282800042B08D00C2B06D0082B04D05F484FF49B
:102838009E7101F043F95C49D1F8903023F00C0205
:10284800A36C1343C1F89030236813F4807F16D02B
:10285800E36C002B18BF102B08D0302B06D0202B90
:1028680004D052484FF4A37101F028F94E49D1F829
:10287800903023F03002E36C1343C1F890302368A2
:1028880013F4007F16D0236D002B18BF402B08D0FF
:10289800C02B06D0802B04D044484FF4A87101F017
:1028A8000DF94149D1F8903023F0C002236D13434C
:1028B800C1F89030236813F4806F19D0636D002B32
:1028C80018BFB3F5807F0AD0B3F5407F07D0B3F5C2
:1028D800007F04D035484FF4AD7101F0EFF832496C
:1028E800D1F8903023F44072636D1343C1F89030EF
:1028F800236813F4006F19D0A36D002B18BFB3F52C
:10290800806F0AD0B3F5406F07D0B3F5006F04D0DD
:1029180026484FF4B27101F0D1F82349D1F890302C
:1029280023F44062A36D1343C1F89030236813F475
:10293800805F19D0E36D002B18BFB3F5805F0AD014
:10294800B3F5405F07D0B3F5005F04D017484FF4E4
:10295800B77101F0B3F81449D1F8903023F440521C
:10296800E36D1343C1F89030236813F4005F1FD060
:10297800236E002B18BFB3F5804F0AD0B3F5404F34
:1029880007D0B3F5004F04D008484FF4BC7101F0EC
:1029980095F80549D1F8903023F44042236E13434B
:1029A800C1F8903004E000BF00380240B0A400082D
:1029B800236813F4800F13D0A36FB3F1806F18BF8F
:1029C800002B04D03A484FF4C17101F077F8394927
:1029D800D1F8903023F08062A36F1343C1F8903090
:1029E800236813F4001F18D0E36FB3F1006F18BF0A
:1029F800002B04D02E484FF4C67101F05FF82D4922
:102A0800D1F8903023F00062E36F1343C1F890309F
:102A1800E36FB3F1006F00D10125236813F0080FAD
:102A280000D0012513F4802F19D0636F002B18BF35
:102A3800B3F1807F0AD0B3F1007F07D0B3F1407FB4
:102A480004D01B4840F2A31101F038F81949D1F815
:102A5800903023F04072636F1343C1F890302368BD
:102A680013F4000F15D0D4F88030B3F1805F18BF8D
:102A7800002B04D00E4840F2AD1101F01FF80D49AB
:102A8800D1F8903023F08052D4F880301343C1F845
:102A9800903027B92368B3F1007F40F07281054A6E
:102AA800136823F080631360FDF7FAFC064609E01B
:102AB800B0A4000800380240FDF7F2FC801B64282F
:102AC80000F2A882B54B1B6813F0006FF4D163685D
:102AD800323BB3F5BF7F04D9B1484FF4E47100F03D
:102AE800EDFF236813F0010F45D0636B002B42D133
:102AF800A368023B052B04D9A9484FF4E77100F0FD
:102B0800DDFFA648D0F8846006F440364FF4403222
:102B180092FAA2F3B3FA83F3DE40D0F8843003F0DC
:102B280070634FF0706797FAA7FEBEFA8EFE23FA1D
:102B38000EF1636847F6C07E9EFAAEFEBEFA8EFEC0
:102B480003FA0EF392FAA2F2B2FA82F206FA02F24B
:102B58001A4397FAA7F3B3FA83F301FA03F31A4374
:102B6800A3684FF0E04191FAA1F1B1FA81F18B40ED
:102B78001343C0F88430236813F4002F03D0E26BAA
:102B8800B2F5801F06D013F4801F59D0236CB3F51B
:102B9800800F55D1E368023B0D2B04D980484FF4D0
:102BA800EF7100F08BFF636A013B1F2B04D97C484F
:102BB8004FF4F07100F082FF7848D0F8846006F492
:102BC80040364FF4403E9EFAAEF3B3FA83F3DE404C
:102BD800D0F8843003F0E0434FF0E04797FAA7F2CB
:102BE800B2FA82F223FA02F1626847F6C07393FAE6
:102BF800A3F3B3FA83F302FA03F39EFAAEF2B2FA3E
:102C080082F206FA02F243EA0206E2684FF07063C3
:102C180093FAA3F3B3FA83F39A40324397FAA7F3EC
:102C2800B3FA83F301FA03F31343C0F88430D0F8FE
:102C38008C3023F01F02636A013B1343C0F88C30C9
:102C4800236813F0807F43D02369032B04D95448A9
:102C580040F2F31100F032FF504ED6F8840000F035
:102C680070604FF0706292FAA2F1B1FA81F1C84037
:102C7800D6F8843003F0E0434FF0E04797FAA7FE18
:102C8800BEFA8EFE23FA0EF1636847F6C07E9EFAFE
:102C9800AEFEBEFA8EFE03FA0EFC23694FF4403EE8
:102CA8009EFAAEFEBEFA8EFE03FA0EF34CEA03035A
:102CB80092FAA2F2B2FA82F200FA02F21A4397FAF0
:102CC800A7F3B3FA83F301FA03F31343C6F8843086
:102CD800236813F0007F40D02369032B04D93048C0
:102CE80040F2022100F0EAFEA368023B052B04D95A
:102CF8002B4840F2032100F0E1FEE368023B0D2B74
:102D080004D927484FF4017100F0D8FE626847F6ED
:102D1800C07393FAA3F3B3FA83F302FA03F32269B5
:102D28004FF4403191FAA1F1B1FA81F18A401A4386
:102D3800E3684FF0706191FAA1F1B1FA81F18B402B
:102D48001A43A3684FF0E04191FAA1F1B1FA81F179
:102D58008B401343114AC2F88430104A136843F079
:102D680080631360FDF79CFB064605E0FDF798FBC2
:102D7800801B642800F25081084B1B6813F0006F19
:102D8800F4D0002D00F04A81044A136823F08053E0
:102D98001360FDF785FB05460AE000BF00380240D6
:102DA800B0A40008FDF77CFB401B642800F23881C2
:102DB8009E4B1B6813F0005FF4D16369323BB3F597
:102DC800BF7F04D99A4840F2322100F077FE236889
:102DD80013F4002F01D0E26B2AB113F4801F58D0EE
:102DE800236C002B55D1A369023B0D2B04D99048C5
:102DF80040F2392100F062FEA36A013B1F2B04D97F
:102E08008B4840F23B2100F059FE8848D0F88850A2
:102E180005F440354FF4403292FAA2F3B3FA83F343
:102E2800DD40D0F8883003F0E0434FF0E04696FAF2
:102E3800A6F7B7FA87F723FA07F1676947F6C07369
:102E480093FAA3F3B3FA83F39F4092FAA2F2B2FA89
:102E580082F205FA02F247EA0205A2694FF07063AE
:102E680093FAA3F3B3FA83F39A402A4396FAA6F3A4
:102E7800B3FA83F301FA03F31343C0F88830D0F8A8
:102E88008C3023F4F853A26A013A43EA0223C0F8CB
:102E98008C30236813F4001F46D0E36FB3F1006F42
:102EA80042D1236A032B04D9614840F24E2100F035
:102EB80005FE5E4ED6F8880000F070604FF0706234
:102EC80092FAA2F3B3FA83F3D840D6F8883003F025
:102ED800E0434FF0E04595FAA5F7B7FA87F723FAEC
:102EE80007F1636947F6C07797FAA7F7B7FA87F744
:102EF80003FA07FE236A4FF4403797FAA7F7B7FAA1
:102F080087F7BB404EEA030392FAA2F2B2FA82F2C2
:102F180000FA02F21A4395FAA5F3B3FA83F301FA19
:102F280003F31343C6F88830236813F0080F58D00A
:102F3800E369023B052B04D93D4840F25D2100F0CE
:102F4800BDFDE36A002B18BFB3F5803F0AD0B3F587
:102F5800003F07D0B3F5403F04D0354840F25E212A
:102F680000F0ACFD3148D0F8885005F070654FF09E
:102F7800706292FAA2F1B1FA81F1CD40D0F88830AE
:102F880003F440334FF4403191FAA1F6B6FA86F6CD
:102F9800F340676947F6C07696FAA6F6B6FA86F65B
:102FA800B74091FAA1F1B1FA81F18B403B4392FA13
:102FB800A2F2B2FA82F205FA02F21343E2694FF082
:102FC800E04191FAA1F1B1FA81F18A401343C0F8C6
:102FD8008830D0F88C3023F44032E36A1343C0F8C9
:102FE8008C30124A136843F080531360FDF758FA87
:102FF800044604E0FDF754FA001B642812D80B4B72
:103008001B6813F0005FF5D000200CE003200AE0F5
:10301800032008E0032006E0032004E0002002E08B
:10302800032000E0032003B0F0BD00BF00380240D9
:10303800B0A400082DE9F04105460F4616461C4687
:10304800FDF72EFA804637E0B4F1FF3F34D02CB1BB
:10305800FDF726FAC8EB0000A0422DD32A68536872
:1030680023F0E00353606B68B3F5827F0BD1AB6844
:10307800B3F5806F18BFB3F5004F04D12A68136801
:1030880023F040031360AB6AB3F5005F0BD12A68E5
:10309800136823F400531B041B0C13602A6813687D
:1030A80043F400531360012385F85D30002385F84D
:1030B8005C300320BDE8F0812B689B683B40B3423D
:1030C800C2D10020BDE8F0812DE9F04182B0074669
:1030D8000D4614461E46FDF7E3F9804641E0B5F576
:1030E800C06F08BF002C05D1137BDBB28DF8073009
:1030F8009DF80730B6F1FF3F33D02EB1FDF7D0F978
:10310800C8EB0000B0422CD33A68536823F0E003C0
:1031180053607B68B3F5827F0BD1BB68B3F5806FD2
:1031280018BFB3F5004F04D13A68136823F0400381
:103138001360BB6AB3F5005F0BD13A68136823F4D8
:1031480000531B041B0C13603A68136843F40053C4
:103158001360012387F85D30002387F85C30032073
:1031680005E03A6893682B40A342B8D1002002B02A
:10317800BDE8F08138B504460D464FF4C051002231
:103188002B46FFF7A1FF28B1236E43F020032366E7
:1031980003231AE02046802100222B46FFF74AFF2E
:1031A80028B1236E43F02003236603230DE0204655
:1031B8004FF4C06100222B46FFF786FF034620B17B
:1031C800236E43F0200323660323184638BD00BF4F
:1031D800704700BF002800F0228110B5044603683C
:1031E800904A91498B4218BF934213D002F58062EE
:1031F80093420FD002F5784293420BD002F5E05289
:10320800934207D002F58062934203D08748CC21CD
:1032180000F054FC6368002B18BFB3F5827F03D01D
:103228008248CD2100F04AFCA368002B18BFB3F5F3
:10323800806F06D0B3F5004F03D07C48CE2100F054
:103248003DFCE368B3F5706F18BFB3F5606F24D029
:10325800B3F5506F21D0B3F5406F1ED0B3F5306F82
:103268001BD0B3F5206F18D0B3F5106F15D0B3F598
:10327800006F12D0B3F5E06F0FD0B3F5C06F0CD06C
:10328800B3F5A06F09D0B3F5806F06D0B3F5407FD2
:1032980003D06648CF2100F011FC2369002B18BF2A
:1032A800022B03D06148D02100F008FC6369012B90
:1032B80003D95E48D12100F001FCA369B3F5007F72
:1032C80018BF002B06D0B3F5802F03D05748D22162
:1032D80000F0F4FB636B082B18BF002B03D0534896
:1032E800D32100F0EBFBE369002B18BF082B0FD0AC
:1032F800102B0DD0182B0BD0202B09D0282B07D042
:10330800302B05D0382B03D04848D42100F0D6FB09
:10331800236A002B18BF802B03D04448D52100F026
:10332800CDFB636A002B18BF102B03D03F48D62172
:1033380000F0C4FBA36A002B18BFB3F5005F03D0ED
:103348003A48D72100F0BAFBE36A013B4FF6FE7218
:10335800934203D93548D82100F0B0FB236B022BE8
:1033680003D93248D92100F0A9FB94F85D3023B97C
:1033780084F85C302046FFF72BFF022384F85D3089
:103388002268136823F040031360E368B3F5E06F25
:1033980001D9002201E04FF48052B3F5706F18BFD5
:1033A800B3F5E06F01D00021A162216B39B9B3F503
:1033B800E06F02D90223236301E00123236320681D
:1033C8006168A36819432369194363691943A369A9
:1033D80003F400730B43E1690B43216A0B43A16AB1
:1033E80019430160236B022B04D121680B6843F455
:1033F80000630B602068618B01F00401636A194364
:10340800636B1943E3680B43134343602368E26A21
:103418001A6100202066012384F85D3010BD012068
:10342800704700BF0038004000300140E4A40008A5
:10343800F0B583B004460F4616461D468368002B38
:1034480018BFB3F5004F04D067484FF4CC7100F0B3
:1034580035FB94F85C30012B00F0BD80012384F823
:103468005C3094F85D30012B07D0012384F85D307F
:10347800002384F85C300223B2E0002E18BF002F2E
:1034880006D1012384F85D30002284F85C20A7E08F
:10349800032384F85D3000232366A763A687E687A5
:1034A8002364A4F84430A4F84630A368B3F5004F69
:1034B80004D12268136843F480431360A36AB3F508
:1034C800005F0BD12268136823F400531B041B0C04
:1034D80013602268136843F40053136023681A6862
:1034E80012F0400F03D11A6842F040021A60E368F4
:1034F800B3F5E06F19D849E0204602210A462B4669
:10350800FFF798FD38B1012384F85D30002384F873
:103518005C30032364E02368A26B1288DA60A36B33
:103528000233A363E38F013BE387E38F002BE3D1EF
:103538002FE0012B19D0204602210A462B46FFF71F
:1035480079FD38B1012384F85D30002384F85C30BC
:10355800032345E02368A26B1288DA60A36B023369
:10356800A363E38F023BE38710E0204602210A466B
:103578002B46FFF75FFD00282FD12268A36B591C4B
:10358800A1631B781373E38F013BE387E38F002B61
:10359800CFD1A36AB3F5005F04D12268136843F45E
:1035A8008053136020462946FFF7E4FD0346B0B96F
:1035B800A26832B901922268D16801919268019299
:1035C800019A012284F85D20002284F85C20226E92
:1035D80032B1012304E0022302E0032300E00323C5
:1035E800184603B0F0BD00BFE4A40008704700BF50
:1035F80010B504460368234A934218BFB3F1804FBD
:1036080034D0A2F57C42934230D002F580629342D6
:103618002CD002F58062934228D002F58062934252
:1036280024D002F58062934220D002F57042934282
:103638001CD002F57052934218D002F58062934272
:1036480014D002F58062934210D0A2F598329342CA
:103658000CD002F58062934208D002F58062934252
:1036680004D0094840F25D1100F028FA2268D368B6
:1036780043F00103D3602268136843F00103136029
:10368800002010BD0000014014A50008704700BFCD
:10369800704700BF704700BF704700BF10B50446B1
:1036A80003681A6912F0020F17D0DA6812F0020FD5
:1036B80013D06FF002021A610123037603689B6935
:1036C80013F0030F02D0FFF7E3FF04E0FFF7DEFF7C
:1036D8002046FFF7DFFF0023237623681A6912F0DC
:1036E800040F19D0DA6812F0040F15D06FF0040235
:1036F8001A610223237623689B6913F4407F03D061
:103708002046FFF7C5FF05E02046FFF7BFFF20462C
:10371800FFF7C0FF0023237623681A6912F0080F09
:1037280019D0DA6812F0080F15D06FF008021A6184
:10373800042323762368DB6913F0030F03D02046A4
:10374800FFF7A6FF05E02046FFF7A0FF2046FFF79A
:10375800A1FF0023237623681A6912F0100F19D0ED
:10376800DA6812F0100F15D06FF010021A610823F2
:1037780023762368DB6913F4407F03D02046FFF7E4
:1037880087FF05E02046FFF781FF2046FFF782FF0D
:103798000023237623681A6912F0010F09D0DA682A
:1037A80012F0010F05D06FF001021A61204604F0F3
:1037B800BDF823681A6912F0800F09D0DA6812F090
:1037C800800F05D06FF080021A61204600F03EF9A4
:1037D80023681A6912F4807F09D0DA6812F0800F22
:1037E80005D06FF080021A61204600F02FF9236897
:1037F8001A6912F0400F09D0DA6812F0400F05D0AC
:103808006FF040021A612046FFF746FF23681A69E5
:1038180012F0200F09D0DA6812F0200F05D06FF0EF
:1038280020021A61204600F00FF910BD70B402683A
:10383800434B984214BF00230123B0F1804F14BFBB
:103848001C4643F00104BCB93E4DA84214BF0025F4
:1038580001253D4EB04211D085B905F1804505F5E9
:103868008235A84214BF0025012506F50066B0423E
:1038780000D02DB1012504E0012502E0012500E07A
:1038880000251DB122F070024D682A43002C35D165
:103898002C4CA04214BF002401242B4DA8422FD049
:1038A80074BB04F1804404F58234A04214BF0024A0
:1038B800012405F50065A84224D01CBB234CA04276
:1038C80014BF0024012405F59A35A8421CD0DCB9A0
:1038D8001F4CA04214BF0024012405F50065A8422E
:1038E80014D09CB91B4CA04214BF00240124A5F598
:1038F8009635A84200D05CB101240AE0012408E012
:10390800012406E0012404E0012402E0012400E08F
:1039180000241CB122F44072CC68224302608A68F9
:10392800C2620A6882620C4A904208BF43F00103EF
:103938000BB10B6903630123436170BC704700BF7F
:10394800000001400008004000040040004401401D
:1039580000180040002000400004014000286DD0FD
:1039680010B504460368364A934218BFB3F1804F36
:1039780033D0A2F57C4293422FD002F58062934265
:103988002BD002F58062934227D002F580629342E1
:1039980023D002F5806293421FD002F57042934211
:1039A8001BD002F57052934217D002F58062934201
:1039B80013D002F5806293420FD0A2F59832934259
:1039C8000BD002F58062934207D002F580629342E1
:1039D80003D01C48D22100F071F8A368002B18BF4F
:1039E800102B09D0202B07D0402B05D0602B03D0FB
:1039F8001448D32100F062F82369002B18BFB3F5EF
:103A0800807F06D0B3F5007F03D00E48D42100F0A4
:103A180055F894F8393013F0FF0F02D12046FFF71C
:103A2800E5FD022384F83930214651F8040BFFF7ED
:103A3800FDFE012384F83930002010BD01207047B5
:103A48000000014014A50008704700BF704700BF80
:103A5800FEE700BF08B5034800F05EF80120FFF755
:103A6800F7FF00BF44A5000808B50D4B1B6813B944
:103A78000C4A0B4B1A600A4B1A68C31C23F0030349
:103A8800134409498B4206D906F010F80C23036049
:103A98004FF0FF3008BD02490B60104608BD00BF5B
:103AA800F8040020E449002000FC042001230360FE
:103AB800014B0B60704700BF0400002008B50346A7
:103AC8000A460348194600F005F8FFF7C3FF00BF90
:103AD80098A500080FB480B582B000AF07F11403B1
:103AE8003B600C4880213A693B6806F04FF87860E3
:103AF8007B68002B05DD7B680648194600F056F800
:103B080078607B6818460837BD46BDE8804004B039
:103B1800704700BF0005002080B582B000AF786014
:103B2800786806F001F803467868194600F03EF810
:103B38000448012100F03AF8034618460837BD4604
:103B480080BD00BFC4A500082DE9F04385B0044638
:103B58000F46435C13BB042528462146ABBE0446EA
:103B68001FE03546102E28BF1025002306E014F864
:103B7800011B04AA1A4402F8101C0133AB42F6D305
:103B880004AA1344002203F8102CE9464FF0040855
:103B980040464946ABBE8046761B00E00E46002EE6
:103BA800DFD1384605B0BDE8F08300BF08B5FFF7A0
:103BB800CBFF08BD08B500F097F8054B054A9A6099
:103BC800D3F8882042F47002C3F8882008BD00BFEB
:103BD80000ED00E000000008F8B504460D46174661
:103BE8001E462648FFF776FF25482168FFF772FF33
:103BF80024486168FFF76EFF2348A168FFF76AFF52
:103C08002248E168FFF766FF21482169FFF762FF54
:103C180020486169FFF75EFF1F48A169FFF75AFF57
:103C28001E48E169FFF756FF1D48FFF753FF1D487F
:103C38002946FFF74FFF1C4CE16A1C48FFF74AFF73
:103C4800216B1B48FFF746FFE16B1A48FFF742FF5D
:103C580015F0800F03D018483946FFF73BFF15F4DD
:103C6800004F03D015483146FFF734FF1448FFF7DB
:103C780031FF14480699FFF72DFFF8BDF4A5000899
:103C880004A6000814A6000824A6000834A6000804
:103C980044A6000854A6000864A6000874A60008F4
:103CA80084A6000890A6000800ED00E0A0A6000881
:103CB800B0A60008C0A60008D0A60008E0A6000824
:103CC800F0A60008F8A6000883691A888A4207D176
:103CD8000268033A012A05D802338361012070473C
:103CE800002070470020704710B40F4AD2F888307F
:103CF80043F47003C2F888300C4B196841F0010195
:103D08001960002098601C68094921401960094918
:103D18005960196821F480211960D8604FF0006358
:103D280093605DF8044B704700ED00E000380240F6
:103D3800FFFFF6FE10300024224B9B6803F00C03B3
:103D4800042B07D0082B09D0002B2DD11E4A1F4B5E
:103D58001A602CE01E4A1D4B1A6028E0194B5A685D
:103D68005B6803F03F0312F4800F09D0184AB2FBD6
:103D7800F3F2144B5B68C3F3881303FB02F208E009
:103D8800114AB2FBF3F30F4A5168C1F3881101FBE2
:103D980003F20C4B5B68C3F3014301335B00B2FBD6
:103DA800F3F30A4A136002E0074A084B1A60054B0E
:103DB8009B68C3F30313074AD15C044A1368CB40DA
:103DC80013607047003802400024F4000C00002003
:103DD80080BA8C013CA700082DE9F84305468946BE
:103DE80016469846BDF82070044607E02046494626
:103DF80042463B4600F034FB013424B2AB199C42E6
:103E0800F4DBBDE8F88300BF00B583B0064BB3F917
:103E18000020064BB3F9003000900020014600F066
:103E2800D7FB03B05DF804FB3C0C0020420C0020DB
:103E38002DE9F04F89B005911D460493BDF948302E
:103E4800BDF94CA0BDF850400094A94204DD059589
:103E58000491014610460A460499514505DDCDF8FE
:103E680010A08A4611461A460B460599049CA142A1
:103E780004DD05940491014610460A46059951450A
:103E880018D1904205DC01DB024602E011460246E9
:103E98000846934205DB834201DC134601E01846DD
:103EA8001346C01A421C1846059912B2009B00F02E
:103EB80033FB8AE01FFA82F987B2C7EB090292B294
:103EC800964604981FFA80FBBDF81410C1EB0B024C
:103ED80092B202929BB2C7EB03081FFA88F81FFA46
:103EE8008AF2511A89B20191C9EB03039BB2069376
:103EF800CBEB020293B20393504504D00BF1FF3B86
:103F08000FFA8BFB01E0DDF810B0059C00252E466A
:103F1800CDF81C90F14622E033B2BDF9082093FB9E
:103F2800F2F23A4492B22BB2BDF9040093FBF0F0DE
:103F3800384480B24E44B6B24544ADB211B203B271
:103F4800994202DC034610461A46121A013200B2A0
:103F5800214612B2009B00F0DFFA013424B25C451E
:103F6800DADDDDF81C90049BE51ADDF818B01BFBC0
:103F780005F5ADB2059BE61A18FB06F6B6B222E0C7
:103F88002BB2BDF90C2093FBF2F24A4492B233B241
:103F9800BDF9040093FBF0F0384480B25D44ADB243
:103FA8004644B6B211B203B2994202DC0346104647
:103FB8001A46121A013200B2214612B2009B00F0D2
:103FC800ABFA013424B25445DADD09B0BDE8F08F0C
:103FD8002DE9F04784B090461F46BDF93060BDF822
:103FE800345080B289B2C218013A8B19013B92B29F
:103FF8009BB200F0D9F9194B186899880122FDF78E
:1040080005F9174BD3F800A0B3F804905046494679
:104018000022FDF7FBF8002412E023B238F8133031
:1040280003EA0502120A8DF804202B408DF80530AA
:104038000C4801A902220123FFF7FAF90134A4B2BE
:1040480023B206FB07F29342E7DB504649460122BA
:10405800FDF7DCF804B0BDE8F08700BFDCA7000876
:10406800E4A70008940B002008B90120FFE7014BE2
:1040780018707047410C0020024B1880024B1980C1
:10408800704700BFDE0C0020DC0C0020014B1870CC
:10409800704700BF400C002070B50646104B1868EA
:1040A80099880022FDF7B2F80E4B1868998800220B
:1040B800FDF7ACF80C4B1D689C8828462146002269
:1040C800FDF7A4F809490E80094801221346FFF7B5
:1040D800AFF9284621460122FDF798F870BD00BFC8
:1040E800DCA70008D4A70008E4A70008E00C00201B
:1040F800940B002070B50646104B18689988012269
:10410800FDF784F80E4B186899880022FDF77EF8B1
:104118000C4B1D689C88284621460022FDF776F83E
:1041280009490E80094801221346FFF781F92846FC
:1041380021460122FDF76AF870BD00BFDCA7000820
:10414800D4A70008E4A70008E00C0020940B002086
:1041580038B5934B1D689C88284621460122FDF7F7
:1041680055F8052000F088FD284621460022FDF775
:104178004DF8142000F080FD284621460122FDF765
:1041880045F8962000F078FD864B1868998800223B
:10419800FDF73CF8EF20FFF77FFF0320FFF7AAFFAA
:1041A8008020FFF7A7FF0220FFF7A4FFCF20FFF72B
:1041B80073FF0020FFF79EFFC120FFF79BFF302011
:1041C800FFF798FFED20FFF767FF6420FFF792FFE6
:1041D8000320FFF78FFF1220FFF78CFF8120FFF7E6
:1041E80089FFE820FFF758FF8520FFF783FF0020AD
:1041F800FFF780FF7820FFF77DFFCB20FFF74CFF0C
:104208003920FFF777FF2C20FFF774FF0020FFF716
:1042180071FF3420FFF76EFF0220FFF76BFFF720D6
:10422800FFF73AFF2020FFF765FFEA20FFF734FF8A
:104238000020FFF75FFF0020FFF75CFFC020FFF7BB
:104248002BFF2320FFF756FFC120FFF725FF102083
:10425800FFF750FFC520FFF71FFF3E20FFF74AFF7B
:104268002820FFF747FFC720FFF716FF8620FFF734
:1042780041FF3620FFF710FF4820FFF73BFF3A20A9
:10428800FFF70AFF5520FFF735FFB120FFF704FFBE
:104298000020FFF72FFF1820FFF72CFFB620FFF7AD
:1042A800FBFE0820FFF726FF8220FFF723FF2720C9
:1042B800FFF720FFF220FFF7EFFE0020FFF71AFFBD
:1042C8002620FFF7E9FE0120FFF714FFE020FFF7A3
:1042D800E3FE0F20FFF70EFF3120FFF70BFF2B2027
:1042E800FFF708FF0C20FFF705FF0E20FFF702FF7E
:1042F8000820FFF7FFFE4E20FFF7FCFEF120FFF736
:10430800F9FE3720FFF7F6FE0720FFF7F3FE10202F
:10431800FFF7F0FE0320FFF7EDFE0E20FFF7EAFEA1
:104328000920FFF7E7FE0020FFF7E4FEE120FFF792
:10433800B3FE0020FFF7DEFE0E20FFF7DBFE1420A1
:10434800FFF7D8FE0320FFF7D5FE1120FFF7D2FEB6
:104358000720FFF7CFFE3120FFF7CCFEC120FFF783
:10436800C9FE4820FFF7C6FE0820FFF7C3FE0F204E
:10437800FFF7C0FE0C20FFF7BDFE3120FFF7BAFEA5
:104388003620FFF7B7FE0F20FFF7B4FE1120FFF726
:1043980083FE782000F070FC2920FFF77DFE38BDF1
:1043A80064A70008E4A70008F8B507460D461646B6
:1043B8001C462A20FFF770FE380AFFF79BFEF8B26A
:1043C800FFF798FE300AFFF795FEF0B2FFF792FE6E
:1043D8002B20FFF761FE280AFFF78CFE2846FFF71F
:1043E80089FE200AFFF786FE2046FFF783FE2C2071
:1043F800FFF752FEF8BD00BFF0B599B00446134B65
:10440800186899880122FCF701FF114B1F689E88E4
:10441800384631460022FCF7F9FE0E4B1C800E4C44
:104428000E4A1592169301251795684604F1100156
:10443800542205F041FB94E80F0003F0F3FA3846E4
:1044480031462A46FCF7E2FE19B0F0BDDCA70008A9
:10445800E4A70008E00C0020940B0020E40C0020E6
:104468002DE9F04198B01E46244BB3F9003098422C
:1044780040DA1446224B1B881AB291423ADA0A19DA
:10448800013A1DB2AA4201DB5C1A24B282B289B297
:104498000B19013B10469BB2FFF786FF194B1868B2
:1044A80099880122FCF7B2FE174BD3F800809F8849
:1044B800404639460022FCF7A9FE12E0134B1E8045
:1044C800134C144A1592169301231793684604F166
:1044D8001001542205F0F0FA94E80F0003F0A2FA54
:1044E8002C46631E1DB2002CE8D1404639460122F5
:1044F800FCF78CFE18B0BDE8F08100BF3C0C002032
:10450800420C0020DCA70008E4A70008E00C00200B
:10451800940B0020E40C00202DE9F04198B01446DB
:104528001E46244B1B881AB290423FDA224AB2F93F
:10453800002091423ADA0219013A1DB2AA4201DB7F
:104548001C1A24B280B28BB20219013A194692B2EF
:10455800FFF72AFF194B186899880122FCF756FEC5
:10456800174BD3F800809F88404639460022FCF755
:104578004DFE12E0134B1E80134C144A15921693ED
:1045880001231793684604F11001542205F094FAA8
:1045980094E80F0003F046FA2C46631E1DB2002C67
:1045A800E8D1404639460122FCF730FE18B0BDE894
:1045B800F08100BF3C0C0020420C0020DCA7000862
:1045C800E4A70008E00C0020940B0020E40C002075
:1045D8002DE9F04798B090461F46BDF880602D4BF6
:1045E8001B881AB2904251DA2B4A128814B2A1429F
:1045F8004CDA00EB0804013C1DB2AC4202DB1B1A8A
:104608000FFA83F8CB19013B14B2A34201DB571A06
:104618003FB280B289B200EB0802013ACB19013BE4
:1046280092B29BB2FFF7C0FE1C4B18689988012212
:10463800FCF7ECFD1A4BD3F800A0B3F804905046F1
:1046480049460022FCF7E2FD19E0164A1680164C8E
:10465800164B1593169201231793684604F110011F
:10466800542205F029FA94E80F0003F0DBF9013D24
:104678002DB200E04546002DE7DC013F3FB2002F98
:10468800F8DC504649460122FCF7C0FD18B0BDE8E9
:10469800F08700BF3C0C0020420C0020DCA700087B
:1046A800E4A70008E00C0020940B0020E40C002094
:1046B80010B504463720FFF7EFFC200AFFF71AFD74
:1046C800E0B2FFF717FD10BD70B506460D4614465B
:1046D80043181344B3F5A07F14D13320FFF7DCFC53
:1046E800300AFFF707FDF0B2FFF704FD280AFFF7CD
:1046F80001FDE8B2FFF7FEFC200AFFF7FBFCE0B281
:10470800FFF7F8FC70BD00BF10B504463620FFF770
:10471800C3FC04F0030003282ED8DFE800F0020DE4
:1047280018234820FFF7E6FCF022144B1A804FF4B8
:10473800A072134B1A8010BD2820FFF7DBFC4FF442
:10474800A0720E4B1A80F0220D4B1A8010BD8820E3
:10475800FFF7D0FCF022094B1A804FF4A072084BE7
:104768001A8010BDE820FFF7C5FC4FF4A072034B78
:104778001A80F022024B1A8010BD00BF3C0C0020AA
:10478800420C002080B586B000AF0E4A0D4B1B6B63
:1047980043F0010313634FF480737B600123BB6014
:1047A80002233B610123FB603B1D07481946FCF7C8
:1047B80099FB05484FF480710022FCF727FD183754
:1047C800BD4680BD003802400000024080B483B07E
:1047D80000AF03463960FB7197F90730002B0BDAFD
:1047E8000D49FB7903F00F03043B3A68D2B212017A
:1047F800D2B20B441A7609E0084997F907303A68AB
:10480800D2B21201D2B20B4483F800230C37BD4652
:104818005DF8047B704700BF00ED00E000E100E0B8
:1048280080B582B000AF78607B68013BB3F1807FD0
:1048380001D301230FE00A4A7B68013B53604FF024
:10484800FF300F21FFF7C2FF054B00229A60044B8F
:1048580007221A60002318460837BD4680BD00BFEE
:1048680010E000E080B500AF044B1B68044AA2FBCF
:1048780003239B091846FFF7D3FF80BD0C000020D7
:10488800D34D621080B400AF064B1B68002B04D0D8
:10489800044B1B68013B034A1360BD465DF8047B6B
:1048A800704700BFF80C002030B595B00024019483
:1048B800234B1A6C42F080521A641B6C03F080532D
:1048C8000193019B02941F4B1A6842F440421A60FC
:1048D8001B6803F440430293029B012308934FF49F
:1048E800803309934FF480030F931A2310934FF4E6
:1048F800D873119302251295082313930E9508A8CF
:10490800FDF73EF9FDF7FAF80F2303930495059494
:104918004FF4A05306934FF48053079303A806213E
:10492800FDF7EEFBFDF7D6FD074BA3FB0030800932
:10493800FCF7B2F90420FCF7C5F915B030BD00BF8B
:104948000038024000700040D34D621010B5BFF32C
:104958004F8FBFF36F8F1D4B0021C3F850125A6958
:1049680042F400325A61BFF34F8FBFF36F8FC3F821
:104978008410BFF34F8FD3F88040C4F34E3000E06B
:104988001846C4F3C90200E01A4643F6E07303EA86
:10499800401343EA82730D49C1F86032531E002A5E
:1049A800F2D1431E0028EBD1BFF34F8F4B6943F47C
:1049B80080334B61BFF34F8FBFF36F8FFBF75CFD05
:1049C800FFF772FFFFF7B8F910BD00BF00ED00E078
:1049D80010B586B00022684B1A80684B1A80684B65
:1049E8001A706421674B1980674B1A70674B1A70ED
:1049F8000092674B596C41F480715964596C01F409
:104A08008071009100990192596C41F400715964C8
:104A1800596C01F40071019101990292596C41F4A9
:104A280080615964596C01F4806102910299039282
:104A3800196B41F001011963196B01F00101039130
:104A480003990492196B41F002011963196B01F083
:104A58000201049104990592196B41F0040119634C
:104A6800196B01F0040105910599596A41F48071A7
:104A78005962596A21F4807159624648A3F58C330A
:104A880003604FF4803343608260026101238361D5
:104A980002624262C2628262C260C36102634261B0
:104AA800FBF7B0FD18B1394A1378013313703A484F
:104AB8003A4B03604FF48033436000238360036103
:104AC8000122826103624362C3628362C360C2617E
:104AD80003634361FBF796FD18B12C4A1378013341
:104AE80013702F482F4B03604FF48033436000232B
:104AF800836003610122826103624362C36283624D
:104B0800C360C26103634361FBF77CFD18B11F4AB0
:104B1800137801331370244909230B6001234B6078
:104B28008B600020C860214A03241460536093609E
:104B3800D0601F4A0224146053609360D060154807
:104B4800FBF746FF18B1114A137801331370124866
:104B58001649FBF73DFF18B10C4A1378013313705F
:104B68000F481349FBF734FF18B1084A137801338B
:104B7800137006B010BD00BF200A0020380B0020BB
:104B8800FD0B0020440C00208D0B00208C0B002016
:104B980000380240A80A0020F00A00200021014045
:104BA800840C002000220140240A0020CC0C0020A4
:104BB8007C0B002008B519486421FBF7A9FE1848AA
:104BC8006421FBF7A5FE17486421FBF7A1FE18BB7B
:104BD8001248FBF7EDFF10F4007F1DD01048FBF7DB
:104BE800E7FF10F4007F17D00E48FBF7E1FF10F441
:104BF800007F11D00948FBF7E7FE80B20A4B188006
:104C08000748FBF7E1FE80B2084B18800548FBF720
:104C1800DBFE80B2064B188008BD00BFA80A002042
:104C2800F00A0020840C0020200A0020380B002005
:104C3800FA0B002008B50C48FBF7D0FD18B10B4A59
:104C48001378013313700A48FBF7C8FD18B1074AF7
:104C58001378013313700748FBF7C0FD18B1034AF6
:104C680013780133137008BDA80A00208C0B0020AC
:104C7800F00A0020840C0020034B1860024B1B68CC
:104C8800002BFBD1704700BF3C0B00202DE9F04FF3
:104C980087B0802301934FF00208CDF810800125DA
:104CA8000295002405940394B84801A9FCF71AF961
:104CB8004FF0400ACDF804A0CDF810800295059475
:104CC8000394B24801A9FCF70DF94FF4005301937E
:104CD80004941127029705940394AD4801A9FCF7A1
:104CE80001F9AB484FF400512246FCF78FFA0195C1
:104CF800CDF81080029403950594A64801A9FCF705
:104D0800F1F8CDF80480CDF810800294039505944D
:104D1800A04801A9FCF7E6F84FF400730193CDF819
:104D28001080029403950594984801A9FCF7DAF8D5
:104D38004FF0040BCDF804B04FF00309CDF80890FC
:104D4800039495480DEB0B01FCF7CCF80826019667
:104D5800CDF80890039490480DEB0B01FCF7C2F8CE
:104D680030230193CDF8089003948B480DEB0B0189
:104D7800FCF7B8F8CDF804B002950494039483487E
:104D88000DEB0B01FCF7AEF8804859462A46FCF7B4
:104D98003DFA802301930295049403947E480DEB19
:104DA8000B01FCF79FF87C4880212246FCF72EFA7D
:104DB800CDF8048002950494039475480DEB0B011B
:104DC800FCF790F8724841462246FCF71FFACDF8E6
:104DD80004A00295049403946F480DEB0B01FCF7B3
:104DE80081F86D4851462A46FCF710FA019502955C
:104DF8000494039468480DEB0B01FCF773F86648BC
:104E080029462246FCF702FACDF804A0029504943C
:104E1800039460480DEB0B01FCF764F85D485146BC
:104E28002A46FCF7F3F9019602970494039459482B
:104E38000DEB0B01FCF756F8564831462246FCF7B5
:104E4800E5F94FF4004301930295049403944F4805
:104E58000DEB0B01FCF746F84C484FF400412A468D
:104E6800FCF7D4F94FF4005301930295049403948A
:104E780046480DEB0B01FCF735F844484FF4005158
:104E88002A46FCF7C3F9202301930295049403945E
:104E980040480DEB0B01FCF725F83E4820212A4637
:104EA800FCF7B4F910270197029504940394394844
:104EB8000DEB0B01FCF716F8364839462A46FCF785
:104EC800A5F94FF4006701970295049403943348B9
:104ED8000DEB0B01FCF706F8304839462A46FCF77B
:104EE80095F94FF480470197029504940394294853
:104EF8000DEB0B01FBF7F6FF264839462A46FCF76F
:104F080085F94FF480530193CDF8089004940394E5
:104F180022480DEB0B01FBF7E5FF20484FF48051C9
:104F28002246FCF773F9CDF80480CDF80890049474
:104F3800039416480DEB0B01FBF7D4FF4FF4806880
:104F4800CDF8048002950494039414480DEB0B01EA
:104F5800FBF7C8FF114841462A46FCF757F9019765
:104F68000295049403940D480DEB0B01FBF7BAFF6F
:104F78000A4839462A46FCF749F920230193029446
:104F88000494039505480DEB0B0109E00004024069
:104F9800000802400010024000000240000C0240DD
:104FA800FBF7A0FFCDF804A0029404940395604891
:104FB8000DEB0B01FBF796FF019602940494039501
:104FC8005B480DEB0B01FBF78DFF802301930294E7
:104FD8000494039556480DEB0B01FBF783FF4FF440
:104FE8000053019302950494039452480DEB0B016E
:104FF800FBF778FF4F484FF400512246FCF706F9BB
:105008004FF48079CDF804900494029503954A48AA
:105018000DEB0B01FBF766FF474849462246FCF7B4
:10502800F5F84FF400430193049402950394414822
:105038000DEB0B01FBF756FF3E484FF400412A46A3
:10504800FCF7E4F88023019304940294039439480C
:105058000DEB0B01FBF746FFCDF804B00494029565
:10506800039436480DEB0B01FBF73CFF33485946D8
:105078002A46FCF7CBF8CDF80480049402950394F3
:105088002C480DEB0B01FBF72DFF2A4841462A4619
:10509800FCF7BCF8CDF804900494029503942448D6
:1050A8000DEB0B01FBF71EFF214849462246FCF792
:1050B800ADF8019604940295039420480DEB0B017A
:1050C800FBF710FF1D4831462246FCF79FF8CDF844
:1050D800049004940295039416480DEB0B01FBF71A
:1050E80001FF144831462246FCF790F8CDF804B089
:1050F8000494029503940F480DEB0B01FBF7F2FEA5
:105108000C4859462246FCF781F8CDF804900494DF
:10511800029503940A480DEB0B01FBF7E3FE0848E0
:1051280049462A46FCF772F807B0BDE8F08F00BF81
:10513800000C02400010024000000240000802403B
:105148000004024084B0F0B587B00CAC84E80F00CE
:10515800104B9A880192022704971226029601257D
:1051680003950424059418680DEB0401FBF7BAFEB7
:10517800094B9A880192049702960395059418683A
:105188000DEB0401FBF7AEFE07B0BDE8F04004B03C
:10519800704700BF3CA8000884A7000800B585B088
:1051A8008DF80C008DF80D10642300930448E0215D
:1051B80003AA0223FCF7A2FA05B05DF804FB00BFBE
:1051C800000C0020F8B51D4603FB0121CC01B4FBFF
:1051D800F3F4A4F50074D201B2FBF3F703FB17272D
:1051E800C6B23046E1B2FFF7D9FF701CC0B2C4F3B3
:1051F8000721FFF7D3FFB01CC4F3014101EB87017E
:10520800C0B2C9B2FFF7CAFFF01CC0B2C7F387111A
:10521800FFF7C4FF301DC0B2C7F38731FFF7BEFFE9
:10522800701DC0B2C7F38751FFF7B8FFB01DC0B2F9
:10523800E9B2FFF7B3FFF01DC0B2C5F30721FFF7CE
:10524800ADFF06F10800C0B2C5F30741FFF7A6FF9E
:1052580006F10900C0B2C5F30561FFF79FFFF8BD6D
:1052680030B587B08DF80F0000238DF817300B4C40
:10527800642500952046E0210DF10F020123FCF77B
:105288003DFA00952046E0210DF117020123FCF7B5
:10529800E1FA9DF8170007B030BD00BF000C0020F0
:1052A80070B50E4900EB40028B188D5C5E789C78D7
:1052B80094B10146FF2C04D128463146FFF76EFF12
:1052C80070BD2846FFF7CCFF20EA0400C1B2344085
:1052D80028462143FFF762FF70BD00BF1800002079
:1052E80010B5E6201021FFF759FFF120E521FFF75F
:1052F80055FF002403E02046FFF7D2FF0134B4F540
:10530800AF7FF8DBDA200121FFF7AAFF00F00400E5
:10531800C0B206E0DA200121FFF7A2FF00F0040086
:10532800C0B20028F6D131200121FFF799FF00F023
:105338007F013120FFF732FFF6200221FFF72EFF11
:10534800F1206521FFF72AFFDA200121FFF788FF06
:1053580000F0150005E0DA200121FFF781FF00F0D9
:1053680015000028F7D1EB200121FFF779FF01464E
:105378002D20FFF713FFEC200121FFF771FF0146F5
:105388002E20FFF70BFF2F200121FFF769FF0446AE
:10539800ED200121FFF764FF00F0030104F0FC0495
:1053A8002F202143FFF7FAFE31200121FFF758FF94
:1053B80060F07F013120C9B2FFF7F0FEE62000213E
:1053C800FFF7ECFE1F20C121FFF7E8FE3520C921B9
:1053D80040F2B92240F2BF23FFF7F4FE1F20C0219C
:1053E800FFF7DCFE10BD00BF2DE9F0414400124B71
:1053F8009C421ED9114B9C421BD8114BD3E9006724
:1054080000253046394622462B4604F09FF8804650
:105418003046394622462B4604F098F801E05208F7
:105428006408084B9C42FAD8352041462346FFF7CA
:10543800C9FEBDE8F08100BF3F4B4C008093DC14EF
:1054480010000020A086010010B4BFF34F8FBFF3F7
:105458006F8F1B4B0021C3F850125A6942F4003277
:105468005A61BFF34F8FBFF36F8FC3F88410BFF338
:105478004F8FD3F88040C4F34E3000E01846C4F391
:10548800C90200E01A4643F6E07303EA401343EA10
:1054980082730B49C1F86032531E002AF2D1431EB1
:1054A8000028EBD1BFF34F8F4B6943F480334B6136
:1054B800BFF34F8FBFF36F8F5DF8044B704700BF8A
:1054C80000ED00E0022956DC30B4002347E0012952
:1054D80019D0022929D0002940D11418C4F5007424
:1054E8009C420ADAC2F500749C4206DD224C04EBA9
:1054F80083044FF07E55256030E01F4C04EB830495
:10550800002525602AE0934209DD14189C4206DD37
:10551800194C04EB83044FF07E5525601EE0164CB1
:1055280004EB83040025256018E01418C4F5007501
:105538009D4203DAC2F500759D4203DC934208DD03
:10554800A34206DA0C4C04EB83044FF07E55256029
:1055580004E0094C04EB8304002525600133B3F50E
:10556800007FB4DB044B03F5806100220A6003F27C
:10557800FC731A6030BC7047040D0020F0B400249E
:1055880028E0E200871897ED007A224EB31893EDD1
:10559800006A67EE066A151D054495ED007A134604
:1055A80004331E44D6ED007A27EE277A36EEC77A02
:1055B800194E324482ED007A95ED007A67EE877ACB
:1055C80097ED007A26EE076A77EE867A3344C3EDC4
:1055D800007A0134FF2CD4DD002316E0002B03DA17
:1055E80000EB830200241460B3F5007F03DB00EBBB
:1055F80083020024146000EB830403EB4105064A90
:1056080002EB8502126822600133B3F5007FE5DB07
:10561800F0BC7047040D0020B43D002088B0002283
:105628000092294B196B41F001011963196B01F0C4
:105638000101009100990192196B41F0020119636F
:10564800196B01F00201019101990292196B41F065
:1056580004011963196B01F0040102910299039284
:10566800196B41F008011963196B01F008010391E6
:1056780003990492196B41F010011963196B01F039
:105688001001049104990592196B41F400111963F2
:10569800196B01F40011059105990692196B41F4F3
:1056A80080011963196B01F480010691069907922C
:1056B8001A6C42F480021A641B6C03F4800307938B
:1056C800079B08B0704700BF00380240024A1368C1
:1056D80001331360704700BFFC0900200023064A0D
:1056E8001360064A13607F21054A1160054A13605A
:1056F8006422054B1A60704704150020000D002035
:105708002C25002008150020D84900202F4B1B7895
:10571800002B5AD110B52E4B18689988FBF764FDF9
:1057280044002C4B18689988FBF75EFD20442A4BEF
:1057380018602A4B1B68984242D00BB9012813D035
:10574800012B01D1032808D0032B01D1022806D050
:10575800022B06D138B1002006E0184604E00120EB
:1057680002E0002000E001201D4B18601D4B186866
:105778009988FBF739FDB8B9194B1B6823B11A4A48
:1057880013880133138003E0174A1388013B138001
:10579800154B1B885B08154A1188B3FBF1F201FB16
:1057A8001233134A13800BE00D4B1B6823B1114AC7
:1057B80013680133136003E00E4A1368013B13605A
:1057C800054B1A68054B1A6010BD7047D4090020B4
:1057D8005CA70008ACA70008000D002004150020F5
:1057E800383D00206CA70008A805002038040020D8
:1057F800DC090020DC49002008B50B49D1E9002369
:10580800013243F10003C1E90023FFF73BF8FFF73A
:105818007DFFFAF73DFE054B1B681BB1034A136871
:10582800013B136008BD00BF880500203C0B002029
:10583800024B186800EBD07040107047DC4900201C
:10584800002308E000EB83010B4A02EB8302126895
:105858000A6001339BB2094A1288B3EB420FF1DBAD
:1058680005E000EB83020021116001339BB2B3F520
:10587800007FF6D3704700BFB845002064040020BD
:105888002DE9F04F83B0824689463B4B1A68019256
:10589800B3F804B0104659460022FBF7B7FC374B63
:1058A800D3F800809F88404639460022FBF7AEFCBB
:1058B800334B1E689D88304629460022FBF7A6FC1C
:1058C800304629460122FBF7A1FC002415E0C4F16B
:1058D80007034AFA03F24046394602F00102FBF791
:1058E80095FC304629460022FBF790FC30462946B5
:1058F8000122FBF78BFC0134E4B2072CE7D9019CA9
:10590800204659460122FBF781FC204659460022D1
:10591800FBF77CFC404639460122FBF777FC304612
:1059280029460022FBF772FC304629460122FBF784
:105938006DFC002415E0C4F1070349FA03F2404660
:10594800394602F00102FBF761FC30462946002285
:10595800FBF75CFC304629460122FBF757FC013473
:10596800E4B2072CE7D9019859460122FBF74EFC0F
:1059780003B0BDE8F08F00BF14A8000834A80008E1
:105988007CA7000808B502284ED0032800F09580AF
:10599800002840F0DA806D4B186899880122FBF7DF
:1059A80035FC6B4B186899880022FBF72FFC694B74
:1059B800186899880022FBF729FC674B18689988B2
:1059C8000122FBF723FC654B186899880022FBF736
:1059D8001DFC634B186899880122FBF717FC614B83
:1059E800186899880122FBF711FC5F4B18689988A1
:1059F8000022FBF70BFC5D4B186899880022FBF727
:105A080005FC5B4B186899880022FBF7FFFB594B94
:105A1800186899880122FBF7F9FB574B1868998891
:105A28000022FBF7F3FB08BD484B18689988012250
:105A3800FBF7ECFB464B186899880022FBF7E6FB5E
:105A4800444B186899880022FBF7E0FB424B186822
:105A580099880122FBF7DAFB404B186899880022E5
:105A6800FBF7D4FB3E4B186899880122FBF7CEFB65
:105A78003C4B186899880122FBF7C8FB3A4B186819
:105A880099880022FBF7C2FB384B186899880122D5
:105A9800FBF7BCFB364B186899880122FBF7B6FB6D
:105AA800344B186899880122FBF7B0FB324B186811
:105AB80099880022FBF7AAFB08BD244B186899882F
:105AC8000022FBF7A3FB224B186899880122FBF7F9
