:020000040800F2
:1000000000000320B5010008F56A0008016B000834
:10001000096B0008116B0008196B00080000000054
:100020000000000000000000000000002D6B000830
:10003000216B000800000000396B0008A93C000893
:10004000AD010008AD010008AD010008AD010008D8
:10005000AD010008AD010008AD010008AD010008C8
:10006000AD010008AD010008AD010008AD010008B8
:10007000AD010008AD010008AD010008AD010008A8
:10008000AD010008AD010008AD010008AD01000898
:10009000AD010008AD010008AD010008AD01000888
:1000A000AD010008AD010008AD010008AD01000878
:1000B000AD010008456B0008556B0008AD01000854
:1000C000AD010008AD010008AD010008AD01000858
:1000D000AD0100084D4B0008AD010008AD0100085E
:1000E000AD010008AD010008AD010008AD01000838
:1000F000AD010008AD010008AD010008AD01000828
:10010000AD010008AD010008AD010008AD01000817
:10011000AD010008AD010008AD010008AD01000807
:10012000756B0008AD010008AD010008616B0008A7
:10013000AD010008AD010008AD010008AD010008E7
:10014000AD010008AD010008AD010008AD010008D7
:10015000AD010008AD010008AD010008AD010008C7
:10016000AD010008AD010008AD010008AD010008B7
:10017000AD010008AD010008AD010008000000005D
:10018000AD010008AD010008AD010008AD01000897
:10019000AD010008AD010008AD010008AD01000887
:1001A000AD010008AD010008AD01000880B400AF4A
:1001B000FEE700BF80B500AF00F024F880B400AFC8
:1001C000FEE700BF80B400AFFEE700BF80B400AF21
:1001D000FEE700BF80B400AFFEE700BF80B400AF11
:1001E000FEE700BF80B400AFFEE700BF80B400AF01
:1001F000FEE700BF80B400AFFEE700BF80B400AFF1
:10020000FEE700BF80B58EB000AF4A4B4A4A1A6085
:100210004A4B494A1A604A4B3B634A4BFB623B6B71
:10022000BB6204E0BB6A1A1DBA6200221A60FA6A55
:10023000BB6A9A42F6D83F4B1B68002B03D13F4B59
:100240001B68002B00D0FEE73F4B3B4A1A603F4B38
:10025000394A1A603E4B7B623E4B3B623E4BFB6130
:100260003B6ABB6107E0BB691A1DBA617A6A111D5E
:10027000796212681A60FA69BB699A42F3D8324B04
:100280001B68364A934205D1304B1A682F4B1B68C6
:100290009A4200D0FEE702F037FD3A1D3B46104679
:1002A000194606F097FD2E4A2E4BD31A9B107B6100
:1002B00000233B6107E02B4A3B6952F82330984703
:1002C0003B6901333B617A693B699A42F3DC264A18
:1002D000264BD31A9B107B6100233B6107E0234A26
:1002E0003B6952F8233098473B6901333B617A6997
:1002F0003B699A42F3DC7A683B681046194604F081
:1003000031FC78631A4A1B4BD31A9B10FB60FB68C5
:10031000BB6008E0BB68013B164A52F8233098479F
:10032000BB68013BBB60BB68002BF3DC786B06F05D
:100330000DFD00BFD8080020BABADECA644D002007
:10034000D8080020684D002000000020D4080020BC
:1003500008F2010800000020D80800207856341266
:10036000A0030008A0030008A0030008A0030008E1
:08037000A0030008A00300082F
:1003780008F2010800000020D808002008F201084F
:100388000000001000000010D8080020684D002070
:0803980000000010000000103D
:1003A00080B582B000AF87ED010A3860D7ED017AE1
:1003B000F5EEC07AF1EE10FA0ADD97ED010A0DF0C4
:1003C000F3F9F0EE407A3B68C3ED007A002304E0D5
:1003D0003B684FF000021A60FF235BB218460837F3
:1003E000BD4680BD80B588B000AFF860B9607A6066
:1003F0007B689B08FB6182E0FB681A1DFA601B6842
:10040000BB61FB681A1DFA601B687B6197ED067A79
:10041000D7ED067A27EE277AD7ED056AD7ED057A6C
:1004200066EEA77A77EE277ABB681A1DBA60B0EE3F
:10043000670A1846FFF7B4FFFB681A1DFA601B68CD
:10044000BB61FB681A1DFA601B687B6197ED067A39
:10045000D7ED067A27EE277AD7ED056AD7ED057A2C
:1004600066EEA77A77EE277ABB681A1DBA60B0EEFF
:10047000670A1846FFF794FFFB681A1DFA601B68AD
:10048000BB61FB681A1DFA601B687B6197ED067AF9
:10049000D7ED067A27EE277AD7ED056AD7ED057AEC
:1004A00066EEA77A77EE277ABB681A1DBA60B0EEBF
:1004B000670A1846FFF774FFFB681A1DFA601B688D
:1004C000BB61FB681A1DFA601B687B6197ED067AB9
:1004D000D7ED067A27EE277AD7ED056AD7ED057AAC
:1004E00066EEA77A77EE277ABB681A1DBA60B0EE7F
:1004F000670A1846FFF754FFFB69013BFB61FB6984
:10050000002B7FF479AF7B6803F00303FB6122E0EB
:10051000FB681A1DFA601B68BB61FB681A1DFA6054
:100520001B687B6197ED067AD7ED067A27EE277A6E
:10053000D7ED056AD7ED057A66EEA77A77EE277ACA
:10054000BB681A1DBA60B0EE670A1846FFF728FFAD
:10055000FB69013BFB61FB69002BD9D12037BD460C
:1005600080BD00BF80B489B000AFF8607B600B46EF
:100570007B8113463B810023BB837B895B087B83A4
:100580007B895B089BB201333B830023FB83BAE08A
:10059000FA8BBB8B9A426FD2FB8BDB00FA68134459
:1005A0001B687B61FB8BDB00FA681344BA8BD200BB
:1005B000F9680A4412681A60BB8BDB00FA681344BE
:1005C0007A691A60FB8BDB000433FA6813441B68FA
:1005D0007B61FB8BDB000433FA681344BA8BD200D7
:1005E0000432F9680A4412681A60BB8BDB000433DA
:1005F000FA6813447A691A60FA8B3B8B1344DB0068
:10060000FA6813441B687B61FA8B3B8B1344DB0055
:10061000FA681344B98B3A8B0A44D200F9680A4449
:1006200012681A60BA8B3B8B1344DB00FA681344E0
:100630007A691A60FA8B3B8B1344DB000433FA6847
:1006400013441B687B61FA8B3B8B1344DB00043340
:10065000FA681344B98B3A8B0A44D2000432F96821
:100660000A4412681A60BA8B3B8B1344DB000433D4
:10067000FA6813447A691A60FB8B0133DB00FA686D
:1006800013441B687B61FB8B0133DB00FA68134466
:10069000B98B7A8B0A44D200F9680A4412681A604E
:1006A000BA8B7B8B1344DB00FA6813447A691A60B7
:1006B000FB8B0133DB000433FA6813441B687B6156
:1006C000FB8B0133DB000433FA681344B98B7A8B5C
:1006D0000A44D2000432F9680A4412681A60BA8BDC
:1006E0007B8B1344DB000433FA6813447A691A6085
:1006F0007B681B88BB833B895B007A6813447B6003
:10070000FB8B0233FB83FA8B7B8B023B9A427FF697
:100710003FAF2437BD465DF8047B704780B4C1B05D
:1007200000AFF8607A601A460B467B8113463B8126
:100730007B89C7F8F430D7F8F430C7F8E430D7F83D
:10074000F4309B08C7F8F4300023C7F8F8300023D2
:10075000C7F8FC30D7F8F430C7F8F030D7F8F820F5
:10076000D7F8F4301344C7F8E030D7F8E020D7F8D2
:10077000F4301344C7F8DC30D7F8DC20D7F8F43075
:100780001344C7F8D830D7F8F830DB00FA681344C0
:100790001B68C7F8D430D7F8F830DB000433FA68A8
:1007A00013441B68C7F8D030D7F8E030DB00FA6894
:1007B00013441B68C7F8CC30D7F8E030DB000433B3
:1007C000FA6813441B68C7F8C830D7F8DC30DB0080
:1007D000FA6813441B68C7F8C430D7F8DC30DB0074
:1007E0000433FA6813441B68C7F8C030D7F8D83010
:1007F000DB00FA6813441B68C7F8BC30D7F8D83060
:10080000DB000433FA6813441B68C7F8B83097ED6F
:10081000357AD7ED317A77EE277AC7ED2D7A97EDD5
:10082000337AD7ED2F7A77EE277AC7ED2C7A97EDCA
:10083000347AD7ED307A77EE277AC7ED2B7A97EDB9
:10084000327AD7ED2E7A77EE277AC7ED2A7AD7F863
:10085000FC20D7F8FC301344C7F8A430D7F8A430F4
:10086000DB007A6813441B68C7F8A030D7F8A430BF
:10087000DB0004337A6813441B68C7F89C3097ED9B
:10088000357AD7ED317A77EE677AC7ED267A97ED2C
:10089000337AD7ED2F7A77EE677AC7ED257A97ED21
:1008A000347AD7ED307A77EE677AC7ED247A97ED10
:1008B000327AD7ED2E7A77EE677AC7ED237AD7F8BA
:1008C000F830DB00FA68134497ED2D7AD7ED2C7AD7
:1008D00077EE277AC3ED007AD7F8F830DB000433DF
:1008E000FA68134497ED2B7AD7ED2A7A77EE277AB8
:1008F000C3ED007A97ED267AD7ED237A77EE277A43
:10090000C7ED227A97ED247AD7ED257A77EE677ACC
:10091000C7ED217A97ED2D7AD7ED2C7A77EE677AAD
:10092000C7ED207A97ED2B7AD7ED2A7A77EE677AA2
:10093000C7ED1F7A97ED267AD7ED237A77EE677A9F
:10094000C7ED1E7A97ED257AD7ED247A77EE277AD0
:10095000C7ED1D7AD7F8FC30DB007A6813441B68BA
:100960003B67D7F8FC30DB0004337A6813441B681C
:10097000FB66D7F8A420D7F8FC301344BB66BB6EE7
:10098000DB007A6813441B687B66BB6EDB000433B4
:100990007A6813441B683B6697ED227AD7ED1C7A80
:1009A00067EE277AC7ED177A97ED217AD7ED1C7A93
:1009B00067EE277AC7ED167A97ED207AD7ED287A79
:1009C00067EE277AC7ED157A97ED1F7AD7ED287A6B
:1009D00067EE277AC7ED147A97ED1E7AD7ED197A6C
:1009E00067EE277AC7ED137A97ED1D7AD7ED197A5E
:1009F00067EE277AC7ED127A97ED217AD7ED1B7A49
:100A000067EE277AC7ED117A97ED227AD7ED1B7A38
:100A100067EE277AC7ED107A97ED1F7AD7ED277A20
:100A200067EE277AC7ED0F7A97ED207AD7ED277A10
:100A300067EE277AC7ED0E7A97ED1D7AD7ED187A13
:100A400067EE277AC7ED0D7A97ED1E7AD7ED187A03
:100A500067EE277AC7ED0C7A97ED177AD7ED117A02
:100A600077EE277AC7ED177A97ED167AD7ED107AD9
:100A700077EE677AC7ED167A97ED157AD7ED0F7A8C
:100A800077EE277AC7ED157A97ED147AD7ED0E7ABF
:100A900077EE677AC7ED147A97ED137AD7ED0D7A72
:100AA00077EE277AC7ED137A97ED127AD7ED0C7AA5
:100AB00077EE677AC7ED127AD7F8E030DB00FA6894
:100AC00013447A6D1A60D7F8E030DB000433FA681B
:100AD00013443A6D1A60D7F8DC30DB00FA6813442F
:100AE000FA6D1A60D7F8DC30DB000433FA6813447F
:100AF000BA6D1A60D7F8D830DB00FA681344FA6C84
:100B00001A60D7F8D830DB000433FA681344BA6CA3
:100B10001A603B89D7F8FC201344C7F8FC30D7F89B
:100B2000F8300133C7F8F830D7F8F030013BC7F898
:100B3000F030D7F8F030002B7FF410AE3B899B00EB
:100B40003B817B899B089BB2C7F8EC3015E2D7F854
:100B5000F430C7F8E430D7F8F4309B08C7F8F43025
:100B60000023C7F8FC300023C7F8F030D7F8FC208A
:100B7000D7F8FC301344C7F8A430D7F8A420D7F82E
:100B8000FC301344BB66D7F8FC30DB007A681344B2
:100B90001B683B67D7F8FC30DB0004337A681344EA
:100BA0001B68FB66D7F8A430DB007A6813441B6827
:100BB000C7F8A030D7F8A430DB0004337A681344B8
:100BC0001B68C7F89C30BB6EDB007A6813441B6857
:100BD0007B66BB6EDB0004337A6813441B683B669C
:100BE0003B89D7F8FC201344C7F8FC30D7F8F03025
:100BF000C7F8F830D7F8F820D7F8F4301344C7F81E
:100C0000E030D7F8E020D7F8F4301344C7F8DC30F0
:100C1000D7F8DC20D7F8F4301344C7F8D830D7F829
:100C2000F830DB00FA6813441B68C7F8D430D7F8F3
:100C3000F830DB000433FA6813441B68C7F8D0307F
:100C4000D7F8E030DB00FA6813441B68C7F8CC30F3
:100C5000D7F8E030DB000433FA6813441B68C7F8A8
:100C6000C830D7F8DC30DB00FA6813441B68C7F8DB
:100C7000C430D7F8DC30DB000433FA6813441B6857
:100C8000C7F8C030D7F8D830DB00FA6813441B68C7
:100C9000C7F8BC30D7F8D830DB000433FA68134407
:100CA0001B68C7F8B83097ED357AD7ED317A77EE13
:100CB000677AC7ED267A97ED337AD7ED2F7A77EEFC
:100CC000677AC7ED257A97ED347AD7ED307A77EEEB
:100CD000677AC7ED247A97ED327AD7ED2E7A77EEE0
:100CE000677AC7ED237A97ED357AD7ED317A77EECB
:100CF000277AC7ED2D7A97ED337AD7ED2F7A77EEF5
:100D0000277AC7ED2C7A97ED347AD7ED307A77EEE3
:100D1000277AC7ED2B7A97ED327AD7ED2E7A77EED8
:100D2000277AC7ED2A7A97ED267AD7ED237A77EEE0
:100D3000277AC7ED227A97ED247AD7ED257A77EED8
:100D4000677AC7ED217A97ED2D7AD7ED2C7A77EE79
:100D5000677AC7ED207A97ED2B7AD7ED2A7A77EE6E
:100D6000677AC7ED1F7A97ED267AD7ED237A77EE6B
:100D7000677AC7ED1E7A97ED257AD7ED247A77EE5C
:100D8000277AC7ED1D7AD7F8F830DB00FA681344EC
:100D900097ED2D7AD7ED2C7A77EE277AC3ED007A8E
:100DA000D7F8F830DB000433FA68134497ED2B7A58
:100DB000D7ED2A7A77EE277AC3ED007A97ED227A7B
:100DC000D7ED1C7A67EE277AC7ED177A97ED217A6F
:100DD000D7ED1C7A67EE277AC7ED167A97ED207A61
:100DE000D7ED287A67EE277AC7ED157A97ED1F7A47
:100DF000D7ED287A67EE277AC7ED147A97ED1E7A39
:100E0000D7ED197A67EE277AC7ED137A97ED1D7A39
:100E1000D7ED197A67EE277AC7ED127A97ED217A26
:100E2000D7ED1B7A67EE277AC7ED117A97ED227A14
:100E3000D7ED1B7A67EE277AC7ED107A97ED1F7A08
:100E4000D7ED277A67EE277AC7ED0F7A97ED207AEC
:100E5000D7ED277A67EE277AC7ED0E7A97ED1D7AE0
:100E6000D7ED187A67EE277AC7ED0D7A97ED1E7ADF
:100E7000D7ED187A67EE277AC7ED0C7A97ED177AD7
:100E8000D7ED117A77EE277AC7ED177A97ED167AB4
:100E9000D7ED107A77EE677AC7ED167A97ED157A67
:100EA000D7ED0F7A77EE277AC7ED157A97ED147A9A
:100EB000D7ED0E7A77EE677AC7ED147A97ED137A4D
:100EC000D7ED0D7A77EE277AC7ED137A97ED127A80
:100ED000D7ED0C7A77EE677AC7ED127AD7F8E03063
:100EE000DB00FA6813447A6D1A60D7F8E030DB0053
:100EF0000433FA6813443A6D1A60D7F8DC30DB002B
:100F0000FA681344FA6D1A60D7F8DC30DB0004335A
:100F1000FA681344BA6D1A60D7F8D830DB00FA6863
:100F20001344FA6C1A60D7F8D830DB000433FA683F
:100F30001344BA6C1A60D7F8F820D7F8E430134499
:100F4000C7F8F8307A89D7F8F8309A423FF652AEAF
:100F5000D7F8F0300133C7F8F030D7F8F4305A1E24
:100F6000D7F8F0309A42BFF401AE3B899B003B8139
:100F7000D7F8EC309B08C7F8EC30D7F8EC30042BEE
:100F80003FF6E5AD7B899B089BB2C7F8F030FB6864
:100F9000C7F8E830D7F8E8301B68C7F8D430D7F87E
:100FA000E8305B68C7F8D030D7F8E8309B68C7F8FE
:100FB000CC30D7F8E830DB68C7F8C830D7F8E8306D
:100FC0001B69C7F8C430D7F8E8305B69C7F8C03090
:100FD000D7F8E8309B69C7F8BC30D7F8E830DB6950
:100FE000C7F8B83097ED357AD7ED317A77EE277AB2
:100FF000C7ED2D7A97ED357AD7ED317A77EE677AAE
:10100000C7ED267A97ED347AD7ED307A77EE277AE6
:10101000C7ED2B7A97ED347AD7ED307A77EE677A91
:10102000C7ED247A97ED337AD7ED2F7A77EE277ACA
:10103000C7ED2C7A97ED327AD7ED2E7A77EE277AB4
:10104000C7ED2A7A97ED337AD7ED2F7A77EE677A64
:10105000C7ED257A97ED327AD7ED2E7A77EE677A5B
:10106000C7ED237A97ED2D7AD7ED2C7A77EE277A94
:10107000C7ED0B7A97ED2B7AD7ED2A7A77EE277AA0
:10108000C7ED0A7A97ED2D7AD7ED2C7A77EE677A4D
:10109000C7ED097A97ED2B7AD7ED2A7A77EE677A42
:1010A000C7ED087A97ED267AD7ED237A77EE277A7F
:1010B000C7ED077A97ED247AD7ED257A77EE677A30
:1010C000C7ED067A97ED267AD7ED237A77EE677A21
:1010D000C7ED057A97ED257AD7ED247A77EE277A52
:1010E000C7ED047AD7F8E830FA6A1A60D7F8E83022
:1010F0000433BA6A1A60D7F8E83008337A6A1A609B
:10110000D7F8E8300C333A6A1A60D7F8E830103371
:10111000FA691A60D7F8E8301433BA691A60D7F858
:10112000E83018337A691A60D7F8E8301C333A6926
:101130001A60D7F8E8302033C7F8E830D7F8F03035
:10114000013BC7F8F030D7F8F030002B7FF422AF26
:1011500007F58277BD465DF8047B704780B4C3B065
:1011600000AFF8600846391D0A601A463B4683ED19
:10117000000A03467B8107F108031A807B89C7F8C0
:10118000FC30D7F8FC30C7F8EC30D7F8FC309B08BF
:10119000C7F8FC300023C7F800310023C7F804313A
:1011A000D7F8FC30C7F8F830D7F80021D7F8FC3072
:1011B0001344C7F8E830D7F8E820D7F8FC301344D8
:1011C000C7F8E430D7F8E420D7F8FC301344C7F868
:1011D000E030D7F80031DB00FA6813441B68C7F829
:1011E000DC30D7F80031DB000433FA6813441B68A5
:1011F000C7F8D830D7F8E430DB00FA6813441B682E
:10120000C7F8D430D7F8E430DB000433FA6813446D
:101210001B68C7F8D030D7F8E830DB00FA68134411
:101220001B68C7F8CC30D7F8E830DB000433FA6825
:1012300013441B68C7F8C830D7F8E030DB00FA6801
:1012400013441B68C7F8C430D7F8E030DB00043320
:10125000FA6813441B68C7F8C03097ED377AD7EDAA
:10126000357A77EE277AC7ED2F7A97ED337AD7ED77
:10127000317A77EE277AC7ED2E7A97ED367AD7ED69
:10128000347A77EE277AC7ED2D7A97ED327AD7ED5B
:10129000307A77EE277AC7ED2C7AD7F80421D7F881
:1012A00004311344C7F8AC30D7F8AC30DB003A1D3A
:1012B000126813441B68C7F8A830D7F8AC30DB00BD
:1012C00004333A1D126813441B68C7F8A43097ED25
:1012D000377AD7ED357A77EE677AC7ED287A97EDCA
:1012E000337AD7ED317A77EE677AC7ED277A97EDC3
:1012F000367AD7ED347A77EE677AC7ED267A97EDAE
:10130000327AD7ED307A77EE677AC7ED257AD7F85B
:101310000031DB00FA68134497ED2F7AD7ED2E7A6F
:1013200077EE277AC3ED007AD7F80031DB0004337B
:10133000FA68134497ED2D7AD7ED2C7A77EE277A59
:10134000C3ED007A97ED287AD7ED257A77EE677AA4
:10135000C7ED247A97ED267AD7ED277A77EE277AAC
:10136000C7ED237A97ED2F7AD7ED2E7A77EE677A4D
:10137000C7ED227A97ED2D7AD7ED2C7A77EE677A42
:10138000C7ED217A97ED287AD7ED257A77EE277A7F
:10139000C7ED207A97ED267AD7ED277A77EE677A30
:1013A000C7ED1F7AD7F80431DB003A1D12681344E9
:1013B0001B68BB67D7F80431DB0004333A1D1268A1
:1013C00013441B687B67D7F8AC20D7F8043113446B
:1013D0003B673B6FDB003A1D126813441B68FB66DA
:1013E0003B6FDB0004333A1D126813441B68BB6675
:1013F00097ED247AD7ED1E7A67EE277AC7ED197A32
:1014000097ED237AD7ED1E7A67EE277AC7ED187A23
:1014100097ED227AD7ED2A7A67EE277AC7ED177A09
:1014200097ED217AD7ED2A7A67EE277AC7ED167AFB
:1014300097ED207AD7ED1B7A67EE277AC7ED157AFC
:1014400097ED1F7AD7ED1B7A67EE277AC7ED147AEE
:1014500097ED237AD7ED1D7A67EE277AC7ED137AD9
:1014600097ED247AD7ED1D7A67EE277AC7ED127AC9
:1014700097ED217AD7ED297A67EE277AC7ED117AB1
:1014800097ED227AD7ED297A67EE277AC7ED107AA1
:1014900097ED1F7AD7ED1A7A67EE277AC7ED0F7AA4
:1014A00097ED207AD7ED1A7A67EE277AC7ED0E7A94
:1014B00097ED197AD7ED137A77EE677AC7ED197A37
:1014C00097ED187AD7ED127A77EE277AC7ED187A6A
:1014D00097ED177AD7ED117A77EE677AC7ED177A1D
:1014E00097ED167AD7ED107A77EE277AC7ED167A50
:1014F00097ED157AD7ED0F7A77EE677AC7ED157A03
:1015000097ED147AD7ED0E7A77EE277AC7ED147A35
:10151000D7F8E830DB00FA681344FA6D1A60D7F8A0
:10152000E830DB000433FA681344BA6D1A60D7F868
:10153000E430DB00FA6813447A6E1A60D7F8E430BE
:10154000DB000433FA6813443A6E1A60D7F8E030CF
:10155000DB00FA6813447A6D1A60D7F8E030DB00DC
:101560000433FA6813443A6D1A6007F108031B88C4
:10157000D7F804211344C7F80431D7F800310133F8
:10158000C7F80031D7F8F830013BC7F8F830D7F882
:10159000F830002B7FF408AE07F1080307F10802CA
:1015A000128892001A807B899B089BB2C7F8F4309E
:1015B00021E2D7F8FC30C7F8EC30D7F8FC309B08B4
:1015C000C7F8FC300023C7F804310023C7F8F8300F
:1015D000D7F80421D7F804311344C7F8AC30D7F852
:1015E000AC20D7F8043113443B67D7F80431DB0053
:1015F0003A1D126813441B68BB67D7F80431DB003F
:1016000004333A1D126813441B687B67D7F8AC306B
:10161000DB003A1D126813441B68C7F8A830D7F8DE
:10162000AC30DB0004333A1D126813441B68C7F862
:10163000A4303B6FDB003A1D126813441B68FB6645
:101640003B6FDB0004333A1D126813441B68BB6612
:1016500007F108031B88D7F804211344C7F80431A5
:10166000D7F8F830C7F80031D7F80021D7F8FC30A8
:101670001344C7F8E830D7F8E820D7F8FC30134413
:10168000C7F8E430D7F8E420D7F8FC301344C7F8A3
:10169000E030D7F80031DB00FA6813441B68C7F864
:1016A000DC30D7F80031DB000433FA6813441B68E0
:1016B000C7F8D830D7F8E830DB00FA6813441B6865
:1016C000C7F8CC30D7F8E830DB000433FA681344AD
:1016D0001B68C7F8C830D7F8E430DB00FA68134459
:1016E0001B68C7F8D430D7F8E430DB000433FA685D
:1016F00013441B68C7F8D030D7F8E030DB00FA6835
:1017000013441B68C7F8C430D7F8E030DB0004335B
:10171000FA6813441B68C7F8C03097ED377AD7EDE5
:10172000357A77EE677AC7ED287A97ED337AD7ED79
:10173000317A77EE677AC7ED277A97ED367AD7ED6B
:10174000347A77EE677AC7ED267A97ED327AD7ED5D
:10175000307A77EE677AC7ED257A97ED377AD7ED4D
:10176000357A77EE277AC7ED2F7A97ED337AD7ED72
:10177000317A77EE277AC7ED2E7A97ED367AD7ED64
:10178000347A77EE277AC7ED2D7A97ED327AD7ED56
:10179000307A77EE277AC7ED2C7A97ED287AD7ED55
:1017A000257A77EE677AC7ED247A97ED267AD7ED1A
:1017B000277A77EE277AC7ED237A97ED2F7AD7ED40
:1017C0002E7A77EE677AC7ED227A97ED2D7AD7EDEC
:1017D0002C7A77EE677AC7ED217A97ED287AD7EDE4
:1017E000257A77EE277AC7ED207A97ED267AD7ED1E
:1017F000277A77EE677AC7ED1F7AD7F80031DB00DA
:10180000FA68134497ED2F7AD7ED2E7A77EE277A80
:10181000C3ED007AD7F80031DB000433FA681344D3
:1018200097ED2D7AD7ED2C7A77EE277AC3ED007AF3
:1018300097ED247AD7ED1E7A67EE277AC7ED197AED
:1018400097ED237AD7ED1E7A67EE277AC7ED187ADF
:1018500097ED227AD7ED2A7A67EE277AC7ED177AC5
:1018600097ED217AD7ED2A7A67EE277AC7ED167AB7
:1018700097ED207AD7ED1B7A67EE277AC7ED157AB8
:1018800097ED1F7AD7ED1B7A67EE277AC7ED147AAA
:1018900097ED237AD7ED1D7A67EE277AC7ED137A95
:1018A00097ED247AD7ED1D7A67EE277AC7ED127A85
:1018B00097ED217AD7ED297A67EE277AC7ED117A6D
:1018C00097ED227AD7ED297A67EE277AC7ED107A5D
:1018D00097ED1F7AD7ED1A7A67EE277AC7ED0F7A60
:1018E00097ED207AD7ED1A7A67EE277AC7ED0E7A50
:1018F00097ED197AD7ED137A77EE677AC7ED197AF3
:1019000097ED187AD7ED127A77EE277AC7ED187A25
:1019100097ED177AD7ED117A77EE677AC7ED177AD8
:1019200097ED167AD7ED107A77EE277AC7ED167A0B
:1019300097ED157AD7ED0F7A77EE677AC7ED157ABE
:1019400097ED147AD7ED0E7A77EE277AC7ED147AF1
:10195000D7F8E830DB00FA681344FA6D1A60D7F85C
:10196000E830DB000433FA681344BA6D1A60D7F824
:10197000E430DB00FA6813447A6E1A60D7F8E4307A
:10198000DB000433FA6813443A6E1A60D7F8E0308B
:10199000DB00FA6813447A6D1A60D7F8E030DB0098
:1019A0000433FA6813443A6D1A60D7F80021D7F867
:1019B000EC301344C7F800317A89D7F800319A42E5
:1019C0003FF652AED7F8F8300133C7F8F830D7F801
:1019D000FC305A1ED7F8F8309A42BFF4F9AD07F13F
:1019E000080307F10802128892001A80D7F8F43031
:1019F0009B08C7F8F430D7F8F430042B3FF6D9AD84
:101A00007B899B089BB2C7F8F830FB68C7F8F030B9
:101A1000D7F8F0301B68C7F8DC30D7F8F0305B68D7
:101A2000C7F8D830D7F8F0309B68C7F8CC30D7F873
:101A3000F030DB68C7F8C830D7F8F0301B69C7F85A
:101A4000D430D7F8F0305B69C7F8D030D7F8F03031
:101A50009B69C7F8C430D7F8F030DB69C7F8C030ED
:101A600097ED377AD7ED357A77EE277AC7ED2F7A6B
:101A700097ED377AD7ED357A77EE677AC7ED287A22
:101A800097ED367AD7ED347A77EE277AC7ED2D7A4F
:101A900097ED367AD7ED347A77EE677AC7ED267A06
:101AA00097ED337AD7ED317A77EE277AC7ED2E7A34
:101AB00097ED327AD7ED307A77EE277AC7ED2C7A28
:101AC00097ED337AD7ED317A77EE677AC7ED277ADB
:101AD00097ED327AD7ED307A77EE677AC7ED257ACF
:101AE00097ED2F7AD7ED2E7A77EE277AC7ED0D7A1C
:101AF00097ED2D7AD7ED2C7A77EE277AC7ED0C7A11
:101B000097ED2F7AD7ED2E7A77EE677AC7ED0B7ABD
:101B100097ED2D7AD7ED2C7A77EE677AC7ED0A7AB2
:101B200097ED287AD7ED257A77EE677AC7ED097AAF
:101B300097ED267AD7ED277A77EE277AC7ED087AE0
:101B400097ED287AD7ED257A77EE277AC7ED077AD1
:101B500097ED267AD7ED277A77EE677AC7ED067A82
:101B60003B4697ED0D7AD3ED007A67EE277AC7ED05
:101B7000137A3B4697ED0C7AD3ED007A67EE277A1D
:101B8000C7ED127A3B4697ED0B7AD3ED007A67EEFC
:101B9000277AC7ED117A3B4697ED0A7AD3ED007AA2
:101BA00067EE277AC7ED107A3B4697ED097AD3EDB9
:101BB000007A67EE277AC7ED0F7A3B4697ED087AF1
:101BC000D3ED007A67EE277AC7ED0E7A3B4697EDA4
:101BD000077AD3ED007A67EE277AC7ED057A3B46A0
:101BE00097ED067AD3ED007A67EE277AC7ED047A8F
:101BF000D7F8F030FA6C1A60D7F8F0300433BA6CCA
:101C00001A60D7F8F03008337A6C1A60D7F8F030E1
:101C10000C333A6C1A60D7F8F0301033FA6B1A6054
:101C2000D7F8F0301433BA6B1A60D7F8F0301833A5
:101C30007A691A60D7F8F0301C333A691A60D7F81D
:101C4000F0302033C7F8F030D7F8F830013BC7F850
:101C5000F830D7F8F830002B7FF4DAAE07F5867746
:101C6000BD465DF8047B704790B583B000AF7860E7
:101C700039607B689B78012B0FD17B6819887B6862
:101C80005A687B689C897B68D3ED047A3868234660
:101C9000B0EE670AFFF762FA08E07B6819887B6894
:101CA0005A687B689B893868FEF738FD7B68DB786B
:101CB000012B08D17B6819887B68DA897B689B686F
:101CC0003868FEF74FFC0C37BD4690BD80B485B038
:101CD00000AF7860084611461A4603467B800B46E3
:101CE0007B7013463B700023FB737B687A881A80F5
:101CF0007B68374A5A607B687A789A707B683A7852
:101D0000DA707B681B88B3F5807F29D0B3F5807FBC
:101D100004DC102B40D0402B30D04DE0B3F5806F69
:101D200010D0B3F5805F47D17B6801229A817B6830
:101D30000122DA817B68274A9A607B684FF06652FD
:101D40001A613CE07B6804229A817B680422DA8174
:101D50007B68214A9A607B684FF06A521A612EE0D4
:101D60007B6810229A817B681022DA817B681B4A8B
:101D70009A607B684FF06E521A6120E07B684022C7
:101D80009A817B684022DA817B68154A9A607B6879
:101D90004FF072521A6112E07B684FF480729A81A0
:101DA0007B684FF48072DA817B680E4A9A607B68A8
:101DB0004FF076521A6102E0FF23FB7300BFFB7BFA
:101DC0005BB218461437BD465DF8047B704700BF10
:101DD000CC310108CC290108D2290108EA290108DF
:101DE0004A2A0108CA2B010890B585B000AF044605
:101DF000084611461A462346FB800346BB800B4625
:101E00007B8013463B80FB88FB810DE0B7F90E0019
:101E1000B7F90410B7F900203B8C00F087FCFB8970
:101E20009BB201339BB2FB81B7F90E20B7F90610C4
:101E3000B7F902300B449A42E8DB1437BD4690BD37
:101E400090B585B002AF0346FB80084B1A88084B5B
:101E50001B8812B21CB2FB8800930020002123468D
:101E600000F070FD0C37BD4690BD00BFBA0F0020DA
:101E7000C00F002090B58DB000AF04460846114653
:101E80001A462346FB800346BB800B467B801346E5
:101E90003B80B7F90420B7F900309A420BDDBB88CC
:101EA0007B843B88BB807B8C3B80FB883B847B882E
:101EB000FB803B8C7B80B7F90020B7F944309A4215
:101EC0000FDDB7F84430FB833B88A7F84430FB8B29
:101ED0003B80B7F84030BB837B88A7F84030BB8B92
:101EE0007B80B7F90420B7F900309A420BDDBB883C
:101EF0007B833B88BB807B8B3B80FB883B837B88E1
:101F0000FB803B8B7B80B7F90420B7F944309A42C1
:101F100038D1FB88BB85BB8DFB85B7F90220B7F9AB
:101F20002E309A4202DA7B88FB8507E0B7F902205F
:101F3000B7F92C309A4201DD7B88BB85B7F9402088
:101F4000B7F92E309A4203DAB7F84030FB8508E043
:101F5000B7F94020B7F92C309A4202DDB7F840308B
:101F6000BB85BA8DFB8DD31A9BB201339BB29BB25A
:101F7000B7F92E00B7F904101AB2B7F8483000F0DC
:101F80005BFCDAE07A88FB88D31A9BB2FB823A8842
:101F9000BB88D31A9BB2BB82B7F84020FB88D31A08
:101FA0009BB27B82B7F84420BB88D31A9BB23B829A
:101FB000B7F840207B88D31A9BB2FB81B7F8442046
:101FC0003B88D31A9BB2BB810023FB840023BB84D4
:101FD000B7F90020B7F944309A4202D13B883B85DB
:101FE00003E03B88013B9BB23B85BB887B8540E09F
:101FF000B7F92620B7F9143092FBF3F39AB2FB88B5
:1020000013449BB2FB85B7F92420B7F9103092FB3B
:10201000F3F39AB2FB8813449BB2BB85FA8CFB8A1C
:1020200013449BB2FB84BA8C7B8A13449BB2BB845F
:10203000B7F92E20B7F92C309A4205DDFB8D7B8154
:10204000BB8DFB857B89BB85BA8DFB8DD31A9BB27B
:1020500001339BB29BB2B7F92E00B7F92A101AB21E
:10206000B7F8483000F0E8FB7B8D9BB201339BB2A0
:102070007B85B7F92A20B7F928309A42B8DDB7F93D
:102080002A20B7F90030D31A9AB2FB8912FB03F366
:102090009BB2FB84B7F92A20B7F90430D31A9AB25D
:1020A0007B8A12FB03F39BB2BB8440E0B7F9262086
:1020B000B7F90C3092FBF3F39AB27B8813449BB2CE
:1020C000FB85B7F92420B7F9103092FBF3F39AB2ED
:1020D000FB8813449BB2BB85FA8CFB8913449BB2EB
:1020E000FB84BA8C7B8A13449BB2BB84B7F92E2045
:1020F000B7F92C309A4205DDFB8D3B81BB8DFB850A
:102100003B89BB85BA8DFB8DD31A9BB201339BB241
:102110009BB2B7F92E00B7F92A101AB2B7F84830B7
:1021200000F08AFB7B8D9BB201339BB27B85B7F9B4
:102130002A20B7F944309A42B8DD3437BD4690BD05
:1021400090B589B000AFBA601A460346FB810B46D2
:10215000BB811346FB80F889B989FA89FB8813444F
:102160009BB2013B9CB2BA893B8E13449BB2013BAC
:102170009BB2224600F04EFA284B1A68274B9B88E8
:1021800010461946012209F0F1FA254B1A68244B32
:102190009B8810461946002209F0E8FA0023FB83C9
:1021A00025E0B7F91E305B00BA6813441A88BB8E6D
:1021B00013409BB21B0A9BB2DBB23B75B7F91E30D2
:1021C0005B00BA6813441B88DAB2BB8EDBB21340E3
:1021D000DBB27B7507F11403124819460222012372
:1021E0000AF064FAFB8B9BB201339BB2FB83B7F915
:1021F0001E20B7F90630B7F9301001FB03F39A42FD
:10220000CFDB074B1A68064B9B8810461946012204
:1022100009F0ACFA2437BD4690BD00BFCCB101082F
:10222000DCB10108600F002080B483B000AF03462A
:10223000FB71FB79002B01D0FB7900E00123034AFD
:1022400013700C37BD465DF8047B7047BF0F00204C
:1022500080B483B000AF03460A46FB801346BB80C0
:10226000054AFB881380054ABB8813800C37BD469E
:102270005DF8047B704700BF56100020541000200A
:1022800080B483B000AF0346FB71044AFB7913703E
:102290000C37BD465DF8047B704700BFBE0F0020C1
:1022A00080B582B000AF0346FB80184B1A68174B0D
:1022B0009B8810461946002209F058FA144B1A68F8
:1022C000134B9B8810461946002209F04FFA114B18
:1022D0001A68104B9B8810461946002209F046FAEE
:1022E0000D4AFB8813800D480B49012201230AF097
:1022F000DDF9084B1A68074B9B88104619460122E6
:1023000009F034FA0837BD4680BD00BFCCB10108E2
:10231000F4B10108DCB1010858100020600F002062
:1023200080B582B000AF0346FB80184B1A68174B8C
:102330009B8810461946012209F018FA144B1A68B6
:10234000134B9B8810461946002209F00FFA114BD7
:102350001A68104B9B8810461946002209F006FAAD
:102360000D4AFB8813800D480B49012201230AF016
:102370009DF9084B1A68074B9B88104619460122A5
:1023800009F0F4F90837BD4680BD00BFCCB10108A3
:10239000F4B10108DCB1010858100020600F0020E2
:1023A00080B500AF994B1A68984B9B881046194628
:1023B000012209F0DBF9052000F068FF934B1A6851
:1023C000924B9B8810461946002209F0CFF9142041
:1023D00000F05CFF8D4B1A688C4B9B8810461946A9
:1023E000012209F0C3F9962000F050FF884B1A68CB
:1023F000874B9B8810461946002209F0B7F9EF2059
:10240000FFF74EFF0320FFF78BFF8020FFF788FFC9
:102410000220FFF785FFCF20FFF742FF0020FFF7E4
:102420007FFFC120FFF77CFF3020FFF779FFED2011
:10243000FFF736FF6420FFF773FF0320FFF770FFFD
:102440001220FFF76DFF8120FFF76AFFE820FFF7FA
:1024500027FF8520FFF764FF0020FFF761FF78204A
:10246000FFF75EFFCB20FFF71BFF3920FFF758FF78
:102470002C20FFF755FF0020FFF752FF3420FFF715
:102480004FFF0220FFF74CFFF720FFF709FF202046
:10249000FFF746FFEA20FFF703FF0020FFF740FFAA
:1024A0000020FFF73DFFC020FFF7FAFE2320FFF7D3
:1024B00037FFC120FFF7F4FE1020FFF731FFC520E2
:1024C000FFF7EEFE3E20FFF72BFF2820FFF728FF47
:1024D000C720FFF7E5FE8620FFF722FF3620FFF733
:1024E000DFFE4820FFF71CFF3A20FFF7D9FE5520FA
:1024F000FFF716FFB120FFF7D3FE0020FFF710FF14
:102500001820FFF70DFFB620FFF7CAFE0820FFF7DF
:1025100007FF8220FFF704FF2720FFF701FFF220CB
:10252000FFF7BEFE0020FFF7FBFE2620FFF7B8FEF8
:102530000120FFF7F5FEE020FFF7B2FE0F20FFF7C6
:10254000EFFE3120FFF7ECFE2B20FFF7E9FE0C2019
:10255000FFF7E6FE0E20FFF7E3FE0820FFF7E0FEA0
:102560004E20FFF7DDFEF120FFF7DAFE3720FFF700
:10257000D7FE0720FFF7D4FE1020FFF7D1FE03207F
:10258000FFF7CEFE0E20FFF7CBFE0920FFF7C8FEB7
:102590000020FFF7C5FEE120FFF782FE0020FFF7D5
:1025A000BFFE0E20FFF7BCFE1420FFF7B9FE03208C
:1025B000FFF7B6FE1120FFF7B3FE0720FFF7B0FECE
:1025C0003120FFF7ADFEC120FFF7AAFE4820FFF73C
:1025D000A7FE0820FFF7A4FE0F20FFF7A1FE0C20A6
:1025E000FFF79EFE3120FFF79BFE3620FFF798FE97
:1025F0000F20FFF795FE1120FFF752FE782000F024
:1026000045FE2920FFF74CFE80BD00BFD4B1010874
:10261000DCB1010890B583B000AF0446084611460E
:102620001A462346FB800346BB800B467B8013463D
:102630003B802A20FFF734FEFB881B0A9BB218461A
:10264000FFF76EFEFB88DBB29BB21846FFF768FE11
:102650007B881B0A9BB21846FFF762FE7B88DBB2C1
:102660009BB21846FFF75CFE2B20FFF719FEBB88D4
:102670001B0A9BB21846FFF753FEBB881846FFF7AC
:102680004FFE3B881B0A9BB21846FFF749FE3B886A
:102690001846FFF745FE2C20FFF702FE0C37BD461B
:1026A00090BD00BF90B597B014AF0346FB801A4BA6
:1026B0001A68194B9B8810461946012209F056F8F2
:1026C000164B1A68154B9B8810461946002209F0D4
:1026D0004DF8134AFB881380124C134B1193104B87
:1026E000129301231393694604F110034422084610
:1026F00019460CF0FFFA94E80F0004F0D9F9074BE3
:102700001A68064B9B8810461946012209F02EF8DC
:102710000C37BD4690BD00BFCCB10108DCB101084B
:1027200058100020600F00205C10002090B597B07A
:1027300014AF0446084611461A462346FB8003465A
:10274000BB800B467B8013463B80344B1B88B7F91C
:1027500006201BB29A4206DA314B1B88B7F90420D7
:102760001BB29A4200DB56E0B7F90420B7F90230F9
:1027700013445A1E2A4B1B881BB29A4206DB284B75
:102780001B889AB2BB88D31A9BB27B80F888B98821
:10279000FC88BA887B8813449BB2013B9BB22246DB
:1027A000FFF738FF1F4B1A681E4B9B8810461946CF
:1027B000012208F0DBFF1C4B1A681B4B9B8810465C
:1027C0001946002208F0D2FF15E0184A3B88138012
:1027D000174C184B1193154B129301231393694611
:1027E00004F110034422084619460CF083FA94E8D9
:1027F0000F0004F05DF97B889AB2013A92B27A80B8
:10280000002BE2D1084B1A68074B9B8810461946EB
:10281000012208F0ABFF0C37BD4690BDBA0F002077
:10282000C00F0020CCB10108DCB101085810002015
:10283000600F00205C10002090B597B014AF0446E4
:10284000084611461A462346FB800346BB800B46CA
:102850007B8013463B80344B1B88B7F906201BB2A4
:102860009A4206DA314B1B88B7F904201BB29A4210
:1028700000DB55E0B7F90620B7F9023013445A1EC1
:10288000294B1B881BB29A4206DB274B1B889AB246
:10289000FB88D31A9BB27B80F888B988FA887B883A
:1028A00013449BB2013B9AB2BB88FFF7B3FE204BA7
:1028B0001A681F4B9B8810461946012208F056FFE4
:1028C0001C4B1A681B4B9B8810461946002208F0C7
:1028D0004DFF15E0184A3B881380184C184B119394
:1028E000154B129301231393694604F110034422FC
:1028F000084619460CF0FEF994E80F0004F0D8F8E9
:102900007B889AB2013A92B27A80002BE2D1094BCD
:102910001A68084B9B8810461946012208F026FFCA
:102920000C37BD4690BD00BFBA0F0020C00F00207D
:10293000CCB10108DCB1010858100020600F002064
:102940005C10002090B597B014AF044608461146BD
:102950001A462346FB800346BB800B467B8013460A
:102960003B80484B1B88B7F906201BB29A4206DA17
:10297000454B1B88B7F904201BB29A4200DB7DE06F
:10298000B7F90620B7F9023013445A1E3D4B1B8895
:102990001BB29A4206DB3B4B1B889AB2FB88D31AC8
:1029A0009BB27B80B7F90420B7F9003013445A1E5C
:1029B000354B1B881BB29A4206DB334B1B889AB2FD
:1029C000BB88D31A9BB23B80F888B988FA887B8889
:1029D00013449BB2013B9CB2BA883B8813449BB220
:1029E000013B9BB22246FFF715FE284B1A68274B86
:1029F0009B8810461946012208F0B8FE244B1A683D
:102A0000234B9B8810461946002208F0AFFE3B88F6
:102A1000BB8026E07B88FB801AE01E4A3B8B13803C
:102A20001D4C1E4B11931B4B1293012313936946AC
:102A300004F110034422084619460CF05BF994E8AF
:102A40000F0004F035F8FB889BB2013B9BB2FB8082
:102A5000B7F90630002BE0DCBB889BB2013B9BB290
:102A6000BB80B7F90430002BD4DC094B1A68084B43
:102A70009B8810461946012208F078FE0C37BD46A7
:102A800090BD00BFBA0F0020C00F0020CCB10108DC
:102A9000DCB1010858100020600F00205C100020FD
:102AA00080B582B000AF0346FB803720FFF7F8FB0C
:102AB000FB881B0A9BB21846FFF732FCFB88DBB28F
:102AC0009BB21846FFF72CFC0837BD4680BD00BFFF
:102AD00080B582B000AF0346FB800B46BB80134637
:102AE0007B80FA88BB881A447B881344B3F5A07FA7
:102AF00000D026E03320FFF7D3FBFB881B0A9BB2F4
:102B00001846FFF70DFCFB88DBB29BB21846FFF7B7
:102B100007FCBB881B0A9BB21846FFF701FCBB8869
:102B2000DBB29BB21846FFF7FBFB7B881B0A9BB20C
:102B30001846FFF7F5FB7B88DBB29BB21846FFF720
:102B4000EFFB0837BD4680BD80B584B000AF0346BB
:102B5000FB713620FFF7A4FBFB7903F00303FB6056
:102B6000FB68032B36D801A252F823F07D2B000816
:102B7000932B0008A92B0008BF2B00084820FFF763
:102B8000CFFB164BF0221A80154B4FF4A0721A801F
:102B900020E02820FFF7C4FB104B4FF4A0721A80EE
:102BA0000F4BF0221A8015E08820FFF7B9FB0B4B82
:102BB000F0221A800A4B4FF4A0721A800AE0E82033
:102BC000FFF7AEFB054B4FF4A0721A80044BF022C6
:102BD0001A8000BF1037BD4680BD00BFBA0F00206D
:102BE000C00F002080B586B000AF0E4A0D4B1B6BA6
:102BF00043F0010313634FF480737B600123BB60D8
:102C000002233B610123FB603B1D0748194608F086
:102C100089FA05484FF48071002208F0A7FD1837A3
:102C2000BD4680BD003802400000024080B483B041
:102C300000AF03463960FB7197F90730002B0BDAC0
:102C40000D49FB7903F00F03043B3A68D2B212013D
:102C5000D2B20B441A7609E0084997F907303A686E
:102C6000D2B21201D2B20B4483F800230C37BD4616
:102C70005DF8047B704700BF00ED00E000E100E07C
:102C800080B582B000AF78607B68013BB3F1807F94
:102C900001D301230FE00A4A7B68013B53604FF0E8
:102CA000FF300F21FFF7C2FF054B00229A60044B53
:102CB00007221A60002318460837BD4680BD00BFB2
:102CC00010E000E080B500AF044B1B68044AA2FB93
:102CD00003239B091846FFF7D3FF80BD5000002057
:102CE000D34D621080B400AF064B1B68002B04D09C
:102CF000044B1B68013B034A1360BD465DF8047B2F
:102D0000704700BF7010002080B500AF03F044FF93
:102D1000064A064BD3F8883043F47003C2F8883073
:102D200004F07AF800F004F880BD00BF00ED00E088
:102D300080B592B000AF1B4A1A4B1B6C43F0805316
:102D40001364194A184B1B6843F440431360012372
:102D50007B600123BB600223FB614FF480033B6275
:102D600018237B624FF4A873BB620223FB62072324
:102D70003B633B1D184608F0A5FD0F237B63022330
:102D8000BB630023FB634FF4A0533B644FF48053B9
:102D90007B6407F134031846052109F08DF84837A4
:102DA000BD4680BD003802400070004080B500AFD5
:102DB000934B00221A80934B00221A80924B0022E0
:102DC0001A70924B64221A80914B00221A70914B18
:102DD00000221A70904A904B5B6C43F480735364EA
:102DE0008D4A8D4B5B6C43F4007353648A4A8A4B63
:102DF0005B6C43F480635364874A874B1B6B43F0DF
:102E000001031363844A844B1B6B43F00203136377
:102E1000814A814B1B6B43F0040313637E4A7E4B54
:102E20005B6A43F4807353627B4A7B4B5B6A23F497
:102E300080735362794B7A4A1A60784B00225A6049
:102E4000764B00229A60754B00221A61734B012267
:102E50009A61724B00225A62704B00229A626F4B49
:102E60000022DA626D4B00221A636C4B0022DA609A
:102E70006A4B01221A62694B0022DA61674B002219
:102E80005A61664803F0FCFF0346002B05D0614BF6
:102E90001B780133DAB25F4B1A70624B624A1A60D8
:102EA000604B00225A605F4B00229A605D4B00220B
:102EB0001A615C4B01229A615A4B00225A62594BAB
:102EC00000229A62574B0022DA62564B00221A63A4
:102ED000544B0022DA60534B01221A62514B0022FC
:102EE000DA61504B00225A614E4803F0C9FF034695
:102EF000002B05D0474B1B780133DAB2454B1A70D3
:102F00004A4B4B4A1A60494B00225A60474B0022F9
:102F10009A60464B00221A61444B01229A61434B4E
:102F200000225A62414B00229A62404B0022DA6230
:102F30003E4B00221A633D4B0022DA603B4B0122DC
:102F40001A623A4B0022DA61384B00225A61374844
:102F500003F096FF0346002B05D02E4B1B78013360
:102F6000DAB22C4B1A70334B09221A60314B012212
:102F70005A60304B00229A602E4B0022DA602E4BB2
:102F800006221A602C4B01225A602B4B00229A60B9
:102F9000294B0022DA60294B03221A60274B0122B9
:102FA0005A60264B00229A60244B0022DA601B48AC
:102FB000204904F07FF90346002B05D0154B1B7800
:102FC0000133DAB2134B1A7016481B4904F072F938
:102FD0000346002B05D00F4B1B780133DAB20D4BA3
:102FE0001A701248154904F065F90346002B05D004
:102FF000084B1B780133DAB2064B1A7080BD00BF54
:10300000280E0020040F0020B90F0020C20F00205E
:10301000590F0020580F0020003802407C0E00207D
:1030200000200140C00E00200021014000100020BF
:10303000002201402C0E002044100020480F0020E8
:1030400080B500AF19480A2104F0EAF818480A21AF
:1030500004F0E6F817480A2104F0E2F8134804F0F7
:10306000A5FA0346152B20D1114804F09FFA034618
:10307000152B1AD10F4804F099FA0346152B14D1D9
:103080000A4804F009F903469AB20B4B1A80084823
:1030900004F002F903469AB2084B1A80054804F07E
:1030A000FBF803469AB2064B1A8080BD7C0E0020C6
:1030B000C00E002000100020280E0020040F002069
:1030C000B60F002080B500AF124804F019F803468F
:1030D000002B05D0104B1B780133DAB20E4B1A705F
:1030E0000E4804F00DF80346002B05D00A4B1B7860
:1030F0000133DAB2084B1A70094804F001F80346AC
:10310000002B05D0044B1B780133DAB2024B1A7046
:1031100080BD00BF7C0E0020580F0020C00E002094
:103120000010002080B400AFBD465DF8047B7047FE
:1031300080B483B000AF03460A46FB801346BB80D1
:103140000C37BD465DF8047B704700BF80B400AF0C
:10315000BD465DF8047B704780B588B000AFC7E915
:10316000000115A3D3E90023C7E906234FF08052DD
:103170004FF00003C7E904237B683A6902FB03F2BE
:103180007B69396801FB03F3D1183A683B69A2FBFC
:10319000032319440B46C7E90223C7E90223D7E9F1
:1031A0000201D7E906230BF0CDFA02460B46104682
:1031B00019462037BD4680BDC06878040000000075
:1031C0002DE9B04384B000AF78607B681A464FEABF
:1031D000E27310461946FFF7BFFFC7E90201FFF788
:1031E000A1FF4FF408504FF40851FFF7A1FFFFF77C
:1031F000ADFFFFF797FF3B89C3F30D039BB243F489
:1032000080439BB29AB23B89C3F30D039BB243F454
:1032100080439BB29BB210461946FFF789FFFFF728
:1032200095FFFFF77FFFD7E902234FEA923848EA7C
:1032300083484FEAA3391FFA88F3C3F30D039BB207
:1032400043F480439BB299B2D7E90223940B44EA3A
:1032500083449D13A3B2C3F30D039BB243F4804395
:103260009BB29BB208461946FFF762FFFFF76EFF5D
:10327000FFF758FF4FF440404FF44C41FFF758FF21
:10328000FFF764FF1037BD46BDE8B08380B483B05C
:1032900000AF7860064A7B68136000BF044B1B6870
:1032A000002BFBD10C37BD465DF8047B704700BF97
:1032B000080F002080B586B000AF80237B6002231A
:1032C0003B610123BB6000237B610023FB60C54A97
:1032D0003B1D1046194607F025FF40237B60022363
:1032E0003B610123BB6000237B610023FB60BD4A7F
:1032F0003B1D1046194607F015FF4FF400537B6045
:1033000000233B611123BB6000237B610023FB6032
:10331000B54A3B1D1046194607F004FFB24A4FF468
:10332000005310461946002208F020FA4FF480732B
:103330007B6002233B610023BB600123FB60002311
:103340007B61A84A3B1D1046194607F0EBFE4FF47F
:1033500000737B6002233B610023BB600123FB60A1
:1033600000237B619F4A3B1D1046194607F0DAFE99
:1033700001237B6002233B610023BB600123FB60D0
:1033800000237B61994A3B1D1046194607F0CAFE8F
:1033900008237B6002233B610323BB600023FB60A7
:1033A00000237B61924A3B1D1046194607F0BAFE86
:1033B00040237B6002233B610323BB600023FB604F
:1033C00000237B618A4A3B1D1046194607F0AAFE7E
:1033D0001022202313439BB27B600323BB60002396
:1033E000FB60834A3B1D1046194607F09BFE4FF4D5
:1033F00000437B600123BB6000233B610023FB6033
:10340000784A3B1D1046194607F08CFE754A4FF46A
:10341000004310461946012208F0A8F94FF48043F2
:103420007B600123BB6000233B610023FB606D4A8E
:103430003B1D1046194607F075FE6A4A4FF480435B
:1034400010461946002208F091F94FF480537B6032
:103450000123BB6000233B610023FB60614A3B1DED
:103460001046194607F05EFE5E4A4FF48053104640
:103470001946012208F07AF94FF400537B600123CA
:10348000BB6000233B610023FB60564A3B1D104696
:10349000194607F047FE534A4FF4005310461946A9
:1034A000002208F063F94FF400537B600123BB60F6
:1034B00000233B610023FB604C4A3B1D104619462C
:1034C00007F030FE494A4FF40053104619460022D7
:1034D00008F04CF94FF480437B600123BB6000236C
:1034E0003B610023FB60414A3B1D1046194607F033
:1034F00019FE3E4A4FF4804310461946012208F057
:1035000035F94FF400637B600123BB6000233B610E
:103510000023FB60354A3B1D1046194607F002FEAA
:10352000324A4FF4006310461946002208F01EF993
:103530004FF480537B600123BB6000233B61002379
:10354000FB602A4A3B1D1046194607F0EBFD274A4F
:103550004FF4805310461946012208F007F94FF442
:1035600080737B600123BB6000233B610023FB6011
:103570001E4A3B1D1046194607F0D4FD1B4A4FF466
:10358000807310461946002208F0F0F84FF40073DB
:103590007B600123BB6000233B610023FB60134A77
:1035A0003B1D1046194607F0BDFD104A4FF400734D
:1035B00010461946012208F0D9F84FF480637B6069
:1035C0001123BB6000233B610123FB60074A3B1DC5
:1035D0001046194607F0A6FD044A4FF480631046D2
:1035E00008E000BF00040240000802400010024052
:1035F000000002401946012208F0B8F880237B60E1
:103600001123BB6000233B610123FB60B54A3B1DD6
:103610001046194607F086FDB24A80231046194627
:10362000012208F0A3F84FF400437B600123BB6044
:1036300000233B610023FB60AA4A3B1D104619464C
:1036400007F070FDA74A4FF40043104619460122C7
:1036500008F08CF84FF400637B600123BB6000230B
:103660003B610023FB60A04A3B1D1046194607F052
:1036700059FD9D4A4FF4006310461946012208F097
:1036800075F84FF480637B600123BB6000233B61CE
:103690000023FB60944A3B1D1046194607F042FD8B
:1036A000914A4FF4806310461946012208F05EF8F3
:1036B0004FF480737B600123BB6000233B610023D8
:1036C000FB608A4A3B1D1046194607F02BFD874ACE
:1036D0004FF4807310461946012208F047F8012381
:1036E0007B600123BB6000233B610023FB607E4ABB
:1036F0003B1D1046194607F015FD7B4A0123104675
:103700001946012208F032F84FF400737B60012360
:10371000BB6000233B610023FB60744A3B1D1046E5
:10372000194607F0FFFC714A4FF400731046194622
:10373000012208F01BF84FF480537B600323BB6029
:1037400000233B610023FB60684A3B1D104619467D
:1037500007F0E8FC654A4FF48053104619460022F2
:1037600008F004F802237B600323BB6000233B6165
:103770000023FB605C4A3B1D1046194607F0D2FC53
:103780004FF480437B600123BB6000233B61002337
:10379000FB60564A3B1D1046194607F0C3FC534ACE
:1037A0004FF4804310461946012207F0DFFF4FF423
:1037B00000537B600123BB6000233B610023FB605F
:1037C0004A4A3B1D1046194607F0ACFC474A4FF4E5
:1037D000005310461946012207F0C8FF4FF48063DA
:1037E0007B600023BB6000233B610123FB603F4AF9
:1037F0003B1D1046194607F095FC4FF400637B60B3
:103800000023BB6000233B610123FB60374A3B1D63
:103810001046194607F086FC40237B600023BB60FE
:1038200000233B610023FB60314A3B1D10461946D3
:1038300007F078FC80237B600023BB6000233B61A2
:103840000023FB602A4A3B1D1046194607F06AFC1C
:1038500001237B6000233B610123BB600123FB60EC
:10386000224A3B1D1046194607F05CFC1F4A012303
:1038700010461946002207F079FF02237B600023DF
:103880003B610123BB600023FB60184A3B1D1046CF
:10389000194607F047FC154A022310461946012233
:1038A00007F064FF08237B6000233B610023BB60BB
:1038B0000023FB600D4A3B1D1046194607F032FC01
:1038C00010237B6000233B610023BB600023FB606F
:1038D000064A3B1D1046194607F024FC1837BD4622
:1038E00080BD00BF0010024000040240000C0240F6
:1038F0000008024080B582B000AF87ED010A386051
:10390000D7ED017AF5EEC07AF1EE10FA0ADD97ED07
:10391000010A09F049FFF0EE407A3B68C3ED007AF6
:10392000002304E03B684FF000021A60FF235BB203
:1039300018460837BD4680BD80B592B000AF1B4A1F
:103940001A4B1B6C43F080531364194A184B1B68C5
:1039500043F44043136001237B600123BB600223D7
:10396000FB614FF480033B620F237B62D223BB6277
:103970000223FB6207233B633B1D184607F0A2FFAF
:103980000D237B630223BB630023FB634FF4A0532F
:103990003B644FF480537B6407F1340318460521E0
:1039A00008F08AFA4837BD4680BD00BF00380240A3
:1039B0000070004080B48DB000AFF860B9607A60EC
:1039C00064237B85BB68022B00DD7DE00023FB6266
:1039D00069E0BB68012B21D0022B39D0002B5FD1CD
:1039E0007A68FB681344C3F50072FB6A9A420DDAE9
:1039F0007B68C3F50072FB6A9A4207DD354AFB6AB1
:103A00009B0013444FF07E521A6049E0314AFB6A32
:103A10009B0013444FF000021A6041E0FA6A7B6891
:103A20009A420DDD7A68FB681A44FB6A9A4207DD08
:103A3000284AFB6A9B0013444FF07E521A602FE025
:103A4000244AFB6A9B0013444FF000021A6027E0EF
:103A50007A68FB681344C3F50072FB6A9A4205DA80
:103A60007B68C3F50072FB6A9A4209DCFA6A7B68DC
:103A70009A420DDD7A68FB681A44FB6A9A4207DDB8
:103A8000144AFB6A9B0013444FF07E521A6006E012
:103A9000104AFB6A9B0013444FF000021A6000BFFB
:103AA000FB6A0133FB62FB6AB3F5007F91DB094BD4
:103AB00003F580634FF000021A60064B03F2FC73BB
:103AC0004FF000021A6000BF3437BD465DF8047B3A
:103AD000704700BF7C10002080B485B000AF7860D4
:103AE00039600023FB6057E0FB685B00FA68D20096
:103AF00011467A680A4492ED007AFA685200434906
:103B000092000A44D2ED007A27EE277AFA68D200B2
:103B1000043279680A44D2ED006AFA685200013230
:103B20003A4992000A44D2ED007A66EEA77A77EE1F
:103B3000677A374A9B001344C3ED007AFB685B0049
:103B40000133FA68D200043279680A4492ED007AAF
:103B5000FA68520001322D4992000A44D2ED007AEF
:103B600027EE277AFA68D20011467A680A44D2ED25
:103B7000006AFA685200254992000A44D2ED007AA0
:103B800066EEA77A77EE277A214A9B001344C3EDAD
:103B9000007AFB680133FB60FB68FF2BA4DD002388
:103BA000FB6029E03B685A00FB681344BB60FB687C
:103BB000002B06DAFB689B007A6813444FF0000282
:103BC0001A60FB68B3F5007F06DBFB689B007A6830
:103BD00013444FF000021A60FB689B007A6813449C
:103BE0003A685100FA680A44094992000A44126886
:103BF0001A60FB680133FB60FB68B3F5007FD1DB23
:103C00001437BD465DF8047B704700BF7C10002070
:103C10003441002080B400AF164A164B1B6B43F0B2
:103C200001031363134A134B1B6B43F0020313632B
:103C3000104A104B1B6B43F0040313630D4A0D4BEA
:103C40001B6B43F0080313630A4A0A4B1B6B43F0D8
:103C500010031363074A074B1B6B43F400131363F2
:103C6000044A044B1B6B43F480031363BD465DF8A9
:103C7000047B70470038024080B483B000AF7860A6
:103C80000C37BD465DF8047B704700BF80B400AFC1
:103C9000044B1B680133034A1360BD465DF8047B87
:103CA000704700BF4009002080B500AF0B4BD3E93F
:103CB0000023013243F100030849C1E90023FFF763
:103CC00011F800F02FF8064B1B68002B04D0044BB2
:103CD0001B68013B024A136080BD00BFE008002062
:103CE000080F002080B400AF094B00221A60094B76
:103CF00000221A60084B7F221A60084B00221A60CB
:103D0000074B64221A601846BD465DF8047B704775
:103D10007C18002078100020A428002080180020A3
:103D2000584D002098B500AF444B1B78002B40F055
:103D30008380434B1A68424B9B881046194607F014
:103D4000BFFC03465C003F4B1A683E4B9B88104605
:103D5000194607F0B5FC034623443B4A13603A4B2F
:103D60001A683A4B1B689A4262D0384B1B68002B8A
:103D700003D1354B1B68012B17D0344B1B68012B2B
:103D800003D1314B1B68032B0FD0304B1B68032B27
:103D900003D12D4B1B68022B07D02C4B1B68022B29
:103DA00005D1294B1B68002B01D1012300E0002322
:103DB000274A1360274B1A68264B9B8810461946E2
:103DC00007F07EFC0346002B23D1214B1B68002B00
:103DD00006D0214B1B8801339AB21F4B1A8005E095
:103DE0001D4B1B88013B9AB21B4B1A801A4B1B8838
:103DF0005B089AB2194B1A80184B1B88184A128814
:103E0000B3FBF2F102FB01F29B1A9AB2134B1A8038
:103E10000EE00F4B1B68002B05D0124B1B680133C3
:103E2000104A136004E00F4B1B68013B0D4A1360FE
:103E3000054B1B68054A136098BD00BF08090020A8
:103E400004B20108FCB10108781000207C180020A1
:103E5000B04000200CB20108EC080020EA08002065
:103E6000180000205C4D002080B400AF044B1B689C
:103E7000DA0F13445B101846BD465DF8047B7047AB
:103E80005C4D00200000000098B500AF314B1B785E
:103E9000002B00F04685304B1B88642B05D12F4842
:103EA0004FF48071012207F061FCFFF7C9F82C4B39
:103EB0001B68012B00F0A881022B00F04183002B2E
:103EC00040F0D984274B1B68002B59D1224B1B880B
:103ED0005C00254B1B889BB21A46244B1B68D31AE7
:103EE00018460AF0B7F802460B46104619464FF03E
:103EF00000021F4B0AF03EFA02460B4610461946D6
:103F00000AF0D0FB01461B4AA30013441960124B70
:103F10001B885B005C1C184B1B889BB21A46174B16
:103F20001B68D31A18460AF095F802460B4610464D
:103F300019464FF000020E4B0AF01CFA02460B46DF
:103F4000104619460AF0AEFB01460A4AA300134484
:103F5000196058E0B90F0020C20F00200000024095
:103F60001C09002000090020B60F00203C000020A2
:103F70000000B040B0300020040F002038000020C6
:103F80008F4B1B885C008F4B1B889BB21A468E4B55
:103F90001B68D31A18460AF05DF802460B46104615
:103FA00019464FF00002894B0AF0E4F902460B462D
:103FB000104619460AF076FB0146854AA3001344D1
:103FC00019607F4B1B885B005C1C7E4B1B889BB27F
:103FD0001A467D4B1B68D31A18460AF03BF8024676
:103FE0000B46104619464FF00002784B0AF0C2F912
:103FF00002460B46104619460AF054FB0146744A25
:10400000A300134419606F4B1B889AB2714B1B8835
:104010009A4204D96B4B1B889AB26E4B1A806E4B36
:104020001B889AB26B4B1B889A4204D96A4B1B8837
:104030009AB2684B1A80624B1B885B00674A9B00F0
:10404000134493ED007A664BD3ED007AB4EEE77A31
:10405000F1EE10FA08DD5A4B1B885B005F4A9B00AB
:1040600013441B685E4A1360554B1B885B00013389
:104070005A4A9B00134493ED007A594BD3ED007AD2
:10408000B4EEE77AF1EE10FA09DD4D4B1B885B00C8
:104090000133524A9B0013441B68514A1360484B3A
:1040A0001B885B004D4A9B001344D3ED007A9FEDC3
:1040B0004D7A27EE877A4C4BD3ED007A67EE277A5C
:1040C0009FED4A7A77EE877AFDEEE77A17EE902A2F
:1040D000474B1A603A4B1B885B0001333F4A9B00F9
:1040E0001344D3ED007A9FED3F7A27EE877A3E4B5B
:1040F000D3ED007A67EE277A9FED3C7A77EE877AE8
:10410000FDEEE77A17EE902A3A4B1A603A4B1B689D
:10411000012B13D1364B1A68384B1B689A4203DDCA
:10412000334B1B68354A1360324B1A68334B1B689C
:104130009A4203DD2F4B1B68304A13602C4B1B68DF
:104140009BB2184602F0F4FB2A4B1B689BB2184640
:1041500002F002FC1A4B1B881A46294B1B88C3F13C
:10416000FF039A422ADB164B1B881A46244B1B88F6
:10417000A3F5807313445B00114A1288520014495E
:1041800092000A4412681F499B000B441A600C4BB2
:104190001B881A461A4B1B88A3F5807313445B00D7
:1041A0000133074A128852000132094992000A4439
:1041B000126814499B000B441A605CE35BE300BF88
:1041C000C20F0020280E0020340000200000B04064
:1041D000B0300020E8080020040F002084180020E0
:1041E000F808002000008045040000200000004581
:1041F00020090020240900200009002028090020AF
:104200001400002038490020234B1B68002B53D199
:10421000224B1B885C00224B1B889BB21A46214B09
:104220001B68D31A184609F015FF02460B461046C4
:1042300019464FF000021C4B0AF09CF802460B4650
:10424000104619460AF02EFA0146184AA3001344F4
:104250001960124B1B885B005C1C154B1B889BB2C2
:104260001A46144B1B68D31A184609F0F3FE02468F
:104270000B46104619464FF000020B4B0AF07AF835
:1042800002460B46104619460AF00CFA0146074A48
:10429000A3001344196052E000090020C20F00205F
:1042A000B60F00203C0000200000B0408418002021
:1042B000040F0020380000208F4B1B885C008F4BC0
:1042C0001B889BB21A468E4B1B68D31A184609F0FE
:1042D000C1FE02460B46104619464FF00002894BBC
:1042E0000AF048F802460B46104619460AF0DAF979
:1042F0000146854AA300134419607F4B1B885B006D
:104300005C1C7E4B1B889BB21A467D4B1B68D31AE4
:10431000184609F09FFE02460B46104619464FF01C
:104320000002784B0AF026F802460B461046194662
:104330000AF0B8F90146744AA300134419606F4BA0
:104340001B889AB2714B1B889A4204D96B4B1B880D
:104350009AB26E4B1A806E4B1B889AB26B4B1B88BD
:104360009A4204D96A4B1B889AB2684B1A80624BF6
:104370001B885B00674A9B00134493ED007A664BF1
:10438000D3ED007AB4EEE77AF1EE10FA08DD5A4B7D
:104390001B885B005F4A9B0013441B685E4A1360E6
:1043A000554B1B885B0001335A4A9B00134493ED25
:1043B000007A594BD3ED007AB4EEE77AF1EE10FAB9
:1043C00009DD4D4B1B885B000133524A9B001344AF
:1043D0001B68514A1360484B1B885B004D4A9B0089
:1043E0001344D3ED007A9FED4D7A27EE877A4C4B3C
:1043F000D3ED007A67EE277A9FED4A7A77EE877AD7
:10440000FDEEE77A17EE902A474B1A603A4B1B886D
:104410005B0001333F4A9B001344D3ED007A9FEDCC
:104420003F7A27EE877A3E4BD3ED007A67EE277A04
:104430009FED3C7A77EE877AFDEEE77A17EE902AC9
:104440003A4B1A603A4B1B68012B13D1364B1A6852
:10445000384B1B689A4203DD334B1B68354A1360A7
:10446000324B1A68334B1B689A4203DD2F4B1B6893
:10447000304A13602C4B1B689BB2184602F058FA66
:104480002A4B1B689BB2184602F066FA1A4B1B882F
:104490001A46294B1B88C3F1FF039A422ADB164BAD
:1044A0001B881A46244B1B88A3F5807313445B00BA
:1044B000114A12885200144992000A4412681F4996
:1044C0009B000B441A600C4B1B881A461A4B1B8826
:1044D000A3F5807313445B000133074A128852002E
:1044E0000132094992000A44126814499B000B44A6
:1044F0001A60C0E1BFE100BFC20F0020280E0020FB
:10450000340000200000B04084180020E80800209B
:10451000040F0020A4200020F8080020000080459F
:10452000040000200000004520090020240900208C
:10453000000900202809002014000020384900202C
:10454000234B1B68002B53D1224B1B885C00224B52
:104550001B889BB21A46214B1B68D31A184609F0D8
:1045600079FD02460B46104619464FF000021C4BDF
:1045700009F000FF02460B46104619460AF092F871
:104580000146184AA30013441960124B1B885B00B4
:104590005C1C154B1B889BB21A46144B1B68D31A24
:1045A000184609F057FD02460B46104619464FF0D3
:1045B00000020B4B09F0DEFE02460B461046194680
:1045C0000AF070F80146074AA3001344196052E04C
:1045D00000090020C20F0020B60F00203C00002080
:1045E0000000B040A4200020040F0020380000206C
:1045F0008E4B1B885C008E4B1B889BB21A468D4BE2
:104600001B68D31A184609F025FD02460B461046D2
:1046100019464FF00002884B09F0ACFE02460B46EB
:10462000104619460AF03EF80146844AA300134496
:1046300019607E4B1B885B005C1C7D4B1B889BB20A
:104640001A467C4B1B68D31A184609F003FD024634
:104650000B46104619464FF00002774B09F08AFED0
:1046600002460B46104619460AF01CF80146734AEA
:10467000A300134419606E4B1B889AB2704B1B88C1
:104680009A4204D96A4B1B889AB26D4B1A806D4BC3
:104690001B889AB26A4B1B889A4204D9694B1B88C3
:1046A0009AB2674B1A80614B1B885B00664A9B007D
:1046B000134493ED007A654BD3ED007AB4EEE77ABC
:1046C000F1EE10FA08DD594B1B885B005E4A9B0037
:1046D00013441B685D4A1360544B1B885B00013315
:1046E000594A9B00134493ED007A584BD3ED007A5E
:1046F000B4EEE77AF1EE10FA09DD4C4B1B885B0053
:104700000133514A9B0013441B68504A1360474BC6
:104710001B885B004C4A9B001344D3ED007A9FED4D
:104720004C7A27EE877A4B4BD3ED007A67EE277AE7
:104730009FED497A77EE877AFDEEE77A17EE902AB9
:10474000464B1A60394B1B885B0001333E4A9B0085
:104750001344D3ED007A9FED3E7A27EE877A3D4BE6
:10476000D3ED007A67EE277A9FED3B7A77EE877A72
:10477000FDEEE77A17EE902A394B1A60394B1B6829
:10478000012B13D1354B1A68374B1B689A4203DD56
:10479000324B1B68344A1360314B1A68324B1B682A
:1047A0009A4203DD2E4B1B682F4A13602B4B1B686C
:1047B0009BB2184602F0BCF8294B1B689BB2184606
:1047C00002F0CAF8194B1B881A46284B1B88C3F104
:1047D000FF039A424EDB154B1B881A46234B1B885E
:1047E000A3F5807313445B00104A128852001349EA
:1047F00092000A4412681E499B000B441A600B4B3E
:104800001B881A46194B1B88A3F5807313445B0061
:104810000133064A128852000132084992000A44C4
:10482000126813499B000B441A6023E0C20F00205A
:10483000280E0020340000200000B040A4200020FA
:10484000E8080020040F0020B0300020F808002005
:1048500000008045040000200000004520090020E1
:10486000240900200009002028090020140000204D
:104870003849002000BF2E4B1B68184609F0FCFB8E
:1048800002460B461046194627A3D3E9002309F038
:1048900047FC02460B461046194609F003FF024644
:1048A000234B1A60234B1B8801339AB2214B1A8089
:1048B000204B1B88FF2B32D91F484FF480710022F8
:1048C00006F054FF1D4B01221A701D4B1A88194B1C
:1048D0001A801C4B1B68012B0DD0022B15D0002B0E
:1048E0001DD1194B01221A60164B01221A6017487C
:1048F00000F036F813E0164B01221A60114B022229
:104900001A60144800F02CF809E0134B01221A60D9
:104910000C4B00221A60114800F022F800BFFEF78D
:10492000D1FB98BDAFF300801EA7E8482EFFEF3FF4
:10493000F8080020C20F002000000240590F00209C
:10494000140000201C0900200C09002084180020FD
:1049500010090020A420002014090020B0300020FD
:1049600080B485B000AF78600023FB810CE0FB8948
:104970009B007A681344FA89104992000A4412682D
:104980001A60FB890133FB81FA890D4B1B885B00A0
:104990009A42ECDB09E0FB899B007A6813444FF0F4
:1049A00000021A60FB890133FB81FB89B3F5007FAC
:1049B000F1D31437BD465DF8047B704738490020B9
:1049C0001400002080B584B000AF03460A46FB7196
:1049D0001346BB715A4B1A68594B9B8810461946AF
:1049E000002206F0C3FE574B1A68564B9B881046B0
:1049F0001946002206F0BAFE534B1A68524B9B88A8
:104A000010461946002206F0B1FE4F4B1A684E4B75
:104A10009B8810461946012206F0A8FE0023FB736E
:104A200025E0484B1868474B9988FA79FB7BC3F11E
:104A3000070342FA03F3DBB203F00103DBB21A46C9
:104A400006F094FE404B1A683F4B9B88104619466F
:104A5000002206F08BFE3C4B1A683B4B9B881046AD
:104A60001946012206F082FEFB7B0133FB73FB7BC0
:104A7000072BD6D9324B1A68314B9B881046194602
:104A8000012206F073FE2E4B1A682D4B9B881046B0
:104A90001946002206F06AFE2A4B1A68294B9B88A9
:104AA00010461946012206F061FE274B1A68264B74
:104AB0009B8810461946002206F058FE224B1A68C1
:104AC000214B9B8810461946012206F04FFE002319
:104AD000FB7325E01B4B18681A4B9988BA79FB7B4E
:104AE000C3F1070342FA03F3DBB203F00103DBB2C5
:104AF0001A4606F03BFE144B1A68134B9B8810466F
:104B00001946002206F032FE0F4B1A680E4B9B88A6
:104B100010461946012206F029FEFB7B0133FB7388
:104B2000FB7B072BD6D9064B1A68054B9B88104692
:104B30001946012206F01AFE1037BD4680BD00BF9F
:104B40004CB2010844B201083CB2010880B500AF84
:104B500002F01AF8184680BD80B400AFBD465DF87B
:104B6000047B704780B58AB002AF7860396002F08C
:104B700053F9FEF7E1FEAE4802F066F8AD4802F0E8
:104B800063F8AD4B1B68AD48194602F03BF8FFF7E0
:104B900041F8FEF78FFB01F0F3FEA948FFF76CF830
:104BA000FEF790F8FEF71EF8A6484FF48071012238
:104BB00006F0DCFDA44B1B881AB2A44B1B881BB269
:104BC000D21AA34B1B781946A04B1B881BB2104668
:104BD0001A46FEF7EFFE01F04DFEFFF783F8FDF7F2
:104BE000DFFB0120FDF7B0FF0020FDF729F90320CE
:104BF000FDF71AFB0120FDF743FB4FF6FF70002184
:104C0000FDF726FB00207821C822FDF761FFFEF7A3
:104C1000CDF8904B01221A70FEF754FA01F0BAFD5C
:104C20004FF000024FF00003C7E90623012000F017
:104C300057FB80208021FFF7C5FEFFF78DFF8648D8
:104C40008649102208F06AFA834B9B6A7B61834B8A
:104C50003B617A693B69D31A9B10FB6000F074F9E1
:104C6000002000F03DFB00F07BFF00F011F97C4BD1
:104C70001A687B4B9B881046194606F021FD0346B7
:104C8000002B02D14FF4784300E01F2300934FF430
:104C90009B70002103220323FDF7A6F8714B1A68CD
:104CA000704B9B881046194606F00AFD0346002B00
:104CB00002D14FF4784300E01F2300934FF49B7020
:104CC000042103220323FDF78FF8674B1A68664B14
:104CD0009B881046194606F0F3FC0346002B02D0D1
:104CE0004FF4784300E01F2300934FF49B7008219A
:104CF00003220323FDF778F85C4B1A685B4B9B8813
:104D00001046194606F0DCFC0346002B02D04FF497
:104D1000784300E01F2300934FF49B700C21032283
:104D20000323FDF761F8504B1A684F4B9B881046E0
:104D3000194606F0C5FC0346002B3CD04C4B012223
:104D40001A604C4B1A684B4B9B881046194601223F
:104D500006F00CFD484B1A68474B9B8810461946D5
:104D6000012206F003FD454B1A68444B9B88104610
:104D70001946002206F0FAFC414B1A68404B9B880A
:104D800010461946012206F0F1FC3E4B1A683D4BD5
:104D90009B8810461946002206F0E8FC3A4B1A6838
:104DA000394B9B8810461946002206F0DFFC374B32
:104DB000C8221A603BE02E4B00221A602D4B1A6865
:104DC0002C4B9B8810461946002206F0CFFC2A4B3C
:104DD0001A68294B9B8810461946002206F0C6FC2B
:104DE000264B1A68254B9B8810461946012206F06F
:104DF000BDFC234B1A68224B9B88104619460022A3
:104E000006F0B4FC1F4B1A681E4B9B8810461946CF
:104E1000012206F0ABFC1C4B1A681B4B9B8810460A
:104E20001946012206F0A2FC184B00221A6006E780
:104E3000FCED010810EE01085000002028EE0108EA
:104E4000600F00200000024024000020F408002031
:104E5000F6080020B90F0020400E0020584C00201A
:104E60006CB2010874B201085CB2010864B20108B6
:104E70000009002054B2010814B201081CB2010854
:104E800024B201082CB2010834B201080409002040
:104E900080B584B002AF284BD3ED007A9FED277A1E
:104EA00067EE877AB7EE007A77EE877A17EE900A88
:104EB00009F0E2F802460B4643EC102B08F0EEFB3B
:104EC00053EC102B104619464FF000021C4B09F012
:104ED00027F902460B461046194609F0BBFB03466C
:104EE0007B60184B1B687A689A4210DD154B1B6873
:104EF00003F19601134B1B687A68D21A4FF478437A
:104F0000009308469C210323FCF76EFF0DE07B68AD
:104F100003F196010B4B1A687B68D21A00230093A9
:104F200008469C210323FCF75FFF064A7B68136059
:104F30000837BD4680BD00BF2C09002000247449FD
:104F4000000024403009002080B500AF924B1B8840
:104F50000A2B00F2778101A252F823F0894F000852
:104F6000954F0008A14F0008AF4F0008BD4F000843
:104F7000C94F0008D54F0008E14F000885500008D0
:104F800029510008C1510008844B854A1A6001F07C
:104F900087F958E1814B834A1A6001F081F952E1A7
:104FA0007E4B42F210721A6001F07AF94BE17B4BB2
:104FB0004FF47A721A6001F073F944E1774B64227E
:104FC0001A6001F06DF93EE1744B0A221A6001F09B
:104FD00067F938E1714B01221A6001F061F932E1A1
:104FE000FEF742FF0246704B1A606F4B1A686F4B18
:104FF0001B689A4245D06D4B1B689AB26A4B1B687E
:105000009BB2D31A9AB26A4B1B889BB213449BB2D1
:105010009AB2674B1A80664B1B881BB2002B02DCCE
:10502000634B00221A80624B1B881BB2C72B02DD28
:105030005F4B64221A805E4B1A885E4B1B8812B24B
:105040001BB29A4207DB5B4B1B889BB2013B9BB2B6
:105050009AB2574B1A80544B1B68544A1360554BF5
:105060001B881AB2524B1B881BB2D21A524B1B78A8
:1050700019464F4B1B881BB210461A46FEF79AFC86
:10508000E1E0E0E0FEF7F0FE0246474B1A60464BD7
:105090001A68464B1B689A4245D0444B1B689AB22B
:1050A000414B1B689BB2D31A9AB2424B1B889BB2EE
:1050B00013449BB29AB23F4B1A803E4B1B881BB2E3
:1050C000002B02DC3B4B00221A803A4B1B881BB2A0
:1050D000C72B02DD374B64221A80364B1A88344BBB
:1050E0001B8812B21BB29A4207DC314B1B889BB261
:1050F00001339BB29AB22F4B1A802B4B1B682B4A61
:1051000013602C4B1B881AB2294B1B881BB2D21A76
:10511000294B1B781946264B1B881BB210461A4692
:10512000FEF748FC8FE08EE0FEF79EFE02461E4B27
:105130001A601D4B1A681D4B1B689A422AD01E4BE1
:105140001B781946194B1A68174B1B68D31ACA18D3
:105150001A4B83FB0231D317C91A0B465B000B4471
:10516000D11ACAB2144B1A70124B1B881AB2104BC8
:105170001B881BB2D21A104B1B7819460C4B1B888C
:105180001BB210461A46FEF715FC074B1B68074A70
:10519000136058E057E000BFEA0800201C00002020
:1051A00040420F00A086010030410020AC300020BA
:1051B000F408002024000020F6080020565555551C
:1051C000FEF752FE0246204B1A601F4B1A681F4B17
:1051D0001B689A4235D01D4B1A681B4B1B68D31AAB
:1051E00007EE903AB8EEE77A194BD3ED007A27EE46
:1051F000277A184BD3ED007A77EE277A154BC3ED5B
:10520000007A144B93ED007A134BD3ED007AB4EE91
:10521000E77AF1EE10FA03DD0F4B1B680D4A1360BD
:105220000C4BD3ED007AF5EEC07AF1EE10FA03D80C
:10523000084B4FF000021A60034B1B68034A1360CF
:1052400001E000E000BF80BD30410020AC30002014
:105250000C000020040000201000002080B586B063
:1052600000AF786039604FF000033B6100237B6141
:1052700016E07B699B007A68134493ED007A7B69A2
:105280009B007A681344D3ED007A67EE277A97ED96
:10529000047A77EE277AC7ED047A7B6901337B6164
:1052A0007A693B689A42E4DB3B6807EE903AF8EE95
:1052B000E77A97ED047AC7EE277AC7ED047A07F10B
:1052C0000C0397ED040A1846FEF714FBFB6807EE83
:1052D000903AB0EE670A1837BD4680BD0000000066
:1052E000B0B58AB004AF0346FB71A14B01221A701E
:1052F000FB79002B3BD00C2300934FF6FF730193F7
:1053000096205A219B4A2823FCF71AFF88230093F2
:10531000722301934FF6FF7302937E207721882238
:105320007C23FCF7A7FD0C2300934FF6FF7301933A
:1053300096208821904A2F23FCF702FF2E20AE21D1
:105340006C224FF6FF7300F0F3FF2E20EE216C224B
:105350004FF6FF7300F0ECFF0A2300934FF6FF7344
:1053600001938E20A221854A9B23FCF7E9FE844B02
:105370001B68844884491A4609F056FD814B1A7807
:10538000824B1B7852B25BB29A4210D1FB79002B50
:105390000DD17F4B1A887F4B1B889A4218D07C4BCB
:1053A0001B88002B03D07B4B1B88002B10D1754B27
:1053B0001B785AB2764B1B88002B02D14FF47843EE
:1053C00001E04FF6FF7310468E216C2200F0B0FF13
:1053D0006C4B5A786D4B5B7852B25BB29A4214D1E7
:1053E0006D4B1B78002B10D1FB79002B0DD1684B36
:1053F0001A88684B1B889A4218D0654B1B88002B73
:1054000003D0644B1B88002B10D15E4B5B785AB2E3
:105410005F4B1B88002B02D14FF4784301E04FF61D
:10542000FF7310469E216C2200F082FF554B9A7844
:10543000564B9B7852B25BB29A4210D1FB79002B4B
:105440000DD1534B1A88534B1B889A4218D0504B9E
:105450001B88012B03D04F4B1B88012B10D1494BCC
:105460009B785AB24A4B1B88012B02D14FF47843E8
:1054700001E04FF6FF731046BE216C2200F058FF8A
:10548000404BDA78414BDB7852B25BB29A4210D192
:10549000FB79002B0DD13E4B1A883E4B1B889A425C
:1054A00018D03B4B1B88022B03D03A4B1B88022B96
:1054B00010D1344BDB785AB2354B1B88022B02D10A
:1054C0004FF4784301E04FF6FF731046CE216C2273
:1054D00000F02EFF2B4B1A792C4B1B7952B25BB28A
:1054E0009A4210D1FB79002B0DD1294B1A88294BF8
:1054F0001B889A4218D0264B1B88032B03D0254BC0
:105500001B88032B10D11F4B1B795AB2204B1B88D1
:10551000032B02D14FF4784301E04FF6FF7310469E
:10552000DE216C2200F004FF164B5A79174B5B7991
:1055300052B25BB29A4210D1FB79002B0DD1144BC1
:105540001A88144B1B889A422FD0114B1B88042BAE
:1055500003D0104B1B88042B27D10A4B5B795AB21E
:105560000B4B1B88042B19D14FF4784318E000BF74
:10557000080900203CB9010878DD0108E0E10108D4
:1055800020000020440900203CEE010840000020DB
:10559000EA08002016000020842000204FF6FF7348
:1055A0001046FE216C2200F0C3FE9B4B9A799B4B68
:1055B0009B7952B25BB29A4210D1FB79002B0DD18C
:1055C000974B1A88974B1B889A4219D0944B1B888B
:1055D000052B03D0934B1B88052B11D18E4B9B7948
:1055E0005AB28F4B1B88052B02D14FF4784301E050
:1055F0004FF6FF7310464FF487716C2200F098FE4F
:10560000854BDA79854BDB7952B25BB29A4210D185
:10561000FB79002B0DD1824B1A88824B1B889A4252
:1056200019D07F4B1B88062B03D07E4B1B88062B83
:1056300011D1794BDB795AB2794B1B88062B02D1F9
:105640004FF4784301E04FF6FF7310464FF48F712B
:105650006C2200F06DFE744B1B68744A13606F4837
:105660006D4909F007FC00237B61714B1A78714B7F
:105670001B789A4218D1704B1A88704B1B8812B253
:105680001BB29A4210D1FB79002B0DD1644B1A88C2
:10569000644B1B889A423BD0614B1B88072B03D07D
:1056A000604B1B88072B33D1634B1B881AB2134600
:1056B0009B001344DB00584861491A4609F0B4FBCB
:1056C00000233B611BE0544A3B6913441B7859B2E9
:1056D0003A691346DB00134403F1CD02504B1B889B
:1056E000072B02D14FF4784301E04FF6FF730846D1
:1056F0001146892200F0E8FE3B6901333B613B69BA
:10570000032BE0DD01237B614B4B1A884B4B1A8046
:10571000474B1A78474B1B789A4218D1494B1A8845
:10572000494B1B8812B21BB29A4210D1FB79002B55
:105730000DD13B4B1A883B4B1B889A423BD0384BD0
:105740001B88082B03D0374B1B88082B33D13D4BCC
:105750001B881AB213469B001344DB002E483B49BA
:105760001A4609F061FB0023FB601BE02A4AFB6834
:1057700013441B7859B2FA681346DB00134403F153
:10578000FA02274B1B88082B02D14FF4784301E023
:105790004FF6FF7308461146892200F095FEFB681C
:1057A0000133FB60FB68032BE0DD01237B61254BAC
:1057B0001A88254B1A80264B93ED007A254BD3EDA2
:1057C000007AB4EE677AF1EE10FA10D1FB79002B73
:1057D0000DD1134B1A88134B1B889A4263D0104B80
:1057E0001B880A2B03D00F4B1B880A2B5BD1194B4C
:1057F000D3ED007A9FED187A67EE877A17EE900A5C
:1058000008F03AFC02460B460348144909F00CFB29
:105810000023BB6040E000BF44090020400000209E
:10582000EA0800201600002020000020F0080020D8
:10583000F60800202A000020F4080020280000209C
:1058400040EE0108240000202600002044EE01085C
:1058500008000020040000200000C8424CEE0108AF
:10586000B14ABB6813441B7859B2BA681346DB00CF
:10587000134403F1FA02AD4B1B880A2B02D14FF4FB
:10588000784301E04FF6FF73084611460A2200F004
:105890001BFEBB680133BB60BB68032BE0DDA44B80
:1058A0001B68A44A13607B69002B00F0B680A24BF2
:1058B0001B78012B31D0022B5CD0002B40F0AB8049
:1058C00000230093792000210322F023FCF78CFAB7
:1058D0009A4B1B881BB2DA0F13445B109BB21BB2AE
:1058E00003F17805964B1B881BB2DA0F13445B104B
:1058F0009BB21AB2914B1B881BB2D90F0B445B10A1
:105900009BB21BB2D41A4FF6FF730093792029463D
:1059100003222346FCF768FA7DE0002300937920F8
:1059200000210322F023FCF75FFA854B1B881BB292
:10593000DA0F13445B109BB21BB2C3F17805804BA6
:105940001B881BB2DA0F13445B109BB21AB27B4B5D
:105950001B881BB2D90F0B445B109BB21BB2D41A2D
:105960004FF6FF7300937920294603222346FCF764
:105970003BFA50E000230093792000210322F0231A
:10598000FCF732FA6D4B1B881BB2DA0F13445B1025
:105990009BB21BB203F17805694B1B881BB2DA0F6F
:1059A00013445B109BB21AB2644B1B881BB2D90F15
:1059B0000B445B109BB21BB2D41A4FF6FF730093DB
:1059C0007920294603222346FCF70EFA5C4B1B88FC
:1059D0001BB2DA0F13445B109BB21BB2C3F1780504
:1059E000574B1B881BB2DA0F13445B109BB21AB2E1
:1059F000524B1B881BB2D90F0B445B109BB21BB2DE
:105A0000D41A4FF6FF7300937920294603222346C8
:105A1000FCF7EAF900BF00237B61474B1A78494B3A
:105A20001B789A4210D1FB79002B0DD13F4B1A887D
:105A3000454B1B889A424CD03C4B1B88092B03D00A
:105A4000414B1B88092B44D13B4B1B78012B16D0B3
:105A5000022B27D0002B38D1344B1B88092B02D1C5
:105A60004FF4784301E04FF6FF730922009201934F
:105A7000C4205B21354A1C23FCF762FB25E02B4B3D
:105A80001B88092B02D14FF4784301E04FF6FF73D6
:105A9000092200920193C4205B212D4A1C23FCF7AC
:105AA0004FFB12E0214B1B88092B02D14FF47843A6
:105AB00001E04FF6FF73092200920193C4205B219D
:105AC000244A1C23FCF73CFB00BF1B4B1A781D4BE0
