:020000040800F2
:1000000000000520F90200088D5F0008915F0008DC
:10001000955F0008995F00089D5F000800000000E0
:100020000000000000000000000000000D040008B7
:10003000A15F00080000000015040008B950000886
:1000400029040008290400082904000829040008DC
:1000500029040008290400082904000829040008CC
:1000600029040008290400082904000829040008BC
:1000700029040008290400082904000829040008AC
:10008000290400082904000829040008290400089C
:10009000290400082904000829040008290400088C
:1000A000290400082904000829040008290400087C
:1000B0002904000891550008A155000829040008EA
:1000C000290400082904000829040008290400085C
:1000D000290400082904000829040008290400084C
:1000E000290400082904000829040008290400083C
:1000F000290400082904000829040008290400082C
:10010000290400082904000829040008290400081B
:10011000290400082904000829040008290400080B
:1001200029040008290400087155000881550008B9
:1001300029040008290400082904000829040008EB
:1001400029040008290400082904000829040008DB
:1001500029040008290400082904000829040008CB
:1001600029040008290400082904000829040008BB
:1001700029040008290400082904000800000000E0
:10018000290400082904000829040008290400089B
:10019000290400082904000829040008290400088B
:1001A000290400082904000829040008290400087B
:1001B000290400082904000829040008290400086B
:1001C000290400082904000800B583B003F050FC9E
:1001D000384B394A1360394A136039490CE00A68D0
:1001E0004B6801F10C04886803E01168196004335E
:1001F00004329842F9D82146324B9942EFD32E4B24
:100200001A68314B9A4204D12C4B1A682F4B9A42F0
:1002100000D0FEE7274B2E4A13602E4A13602E4B68
:100220000AE0194651F8082B5B6802E000201060D4
:1002300004329A42FAD30B46284A9342F1D3244B14
:100240001B6813B9234B1B6803B1FEE704F07CF86D
:1002500001A8694603F088FB214C224B1C1BA4100B
:10026000002504E01E4B53F8253098470135AC4279
:10027000F8DC1D4C1D4B1C1BA410002504E01A4B80
:1002800053F8253098470135AC42F8DC01980099C5
:1002900005F0E4F90546164C164B1C1BA41004E0AF
:1002A000013C134B53F824309847002CF8DC2846C7
:1002B00003F02CFBBABADECA00000020441D002067
:1002C0002C040008440400087856341232547698FE
:1002D000481D0020B0B60220440400085404000861
:1002E000540400085404000854040008540400088E
:1002F000540400085404000808B5FFF765FF00BF68
:1003000000BEFEE71EF0040F0CBFEFF30880EFF312
:1003100009807146414A10472DE9F04182B00446F8
:100320008846134B5E6B9D6B9F6A1B6B13F0020F2D
:100330000DD00F4BDB6A002B09DA4BF6AB6103F0F3
:1003400021FC20B14FF00042094BDA620CE0094871
:1003500003F01EFBCDF800802046394632462B467E
:1003600003F098FB00BEFEE702B0BDE8F08100BFDD
:1003700000ED00E02085000800BEFEE71EF0040F3F
:100380000CBFEFF30880EFF309807146244A104751
:100390002DE9F04182B007468846084B5D6B9C6BA7
:1003A0009E6A074803F0F4FACDF8008038463146DB
:1003B0002A46234603F06EFB00BEFEE700ED00E098
:1003C000308500081EF0040F0CBFEFF30880EFF338
:1003D00009807146134A10472DE9F04182B0074663
:1003E0008846084B5D6B9C6B9E6A074803F0D0FA09
:1003F000CDF80080384631462A46234603F04AFBB2
:1004000000BEFEE700ED00E03C85000800BEFEE710
:1004100000BEFEE700BEFEE77047000019030008BB
:0C04200091030008D903000800BEFEE7AD
:10042C002C0E010800000020481D00202C0E010895
:10043C000000001000000010481D0020B4B602207F
:08044C00000000100000001088
:1004580010B5044602F018F8064BA3FB00308009DB
:1004680000F092F94FF0FF302146002200F038F9F1
:10047800002010BDD34D621008B5032000F012F91A
:100488000020FFF7E5FF05F07BFD002008BD00BF59
:10049800024A136801331360704700BF4C1D0020E7
:1004A800014B1868704700BF4C1D002010B582B082
:1004B8000446002301938369012B04D942484FF471
:1004C800DD7103F055FAE36A002B18BFB3F1805FC2
:1004D8000AD0B3F1005F07D0B3F1405F04D03A48C7
:1004E80040F2BB1103F044FA94F83C30012B5FD082
:1004F800012384F83C3023689A6812F0010F13D165
:100508009A6842F001029A60304B1B68304AA2FB9D
:1005180003239B0C03EB4303019302E0019B013B84
:100528000193019B002BF9D12268936813F0010F06
:1005380040D0216C274B0B4043F4807323645368ED
:1005480013F4806F05D0236C23F4405343F4805395
:100558002364236C13F4805F04D0636C23F00603D8
:10056800636401E000236364002384F83C306FF087
:1005780002031360184B5B6813F01F0F0AD123683E
:100588009A6812F0405F17D19A6842F080429A60E8
:10059800002016E02368114A93420FD19A6812F09E
:1005A800405F0DD19A6842F080429A60002008E0CE
:1005B800022006E0002004E0002002E0002000E025
:1005C800002002B010BD00BF848100080C0000208C
:1005D80083DE1B43FEF8FFFF00230140002001409B
:1005E80070B503689A6812F4806F0CD09B6813F496
:1005F800807F08D0036C43F020030364002380F855
:100608003C30012070BD0D460446FFF749FF064601
:1006180011E0B5F1FF3F0ED025B1FFF741FF801B78
:10062800A84208D9236C43F004032364002384F808
:100638003C30032070BD23681A6812F0020FE8D01E
:100648006FF012021A60236C43F40073236423686A
:100658009A6812F0405F17D1A269BAB9DA6A12F43F
:10066800700F03D09B6813F4806F11D1236C23F4AF
:1006780080732364236C13F4805F0BD1236C43F0E5
:1006880001032364002070BD002070BD002070BDF0
:10069800002070BD002070BD0368D86C704700BF93
:1006A800006C704710B50446C31E042B03D90948D3
:1006B800A42103F05DF904F00700074AD36823F486
:1006C800E0631B041B0C43EA0020044B0343D36084
:1006D80010BD00BFB481000800ED00E00000FA057D
:1006E80070B504460E4615460F2A03D91848BC2192
:1006F80003F03EF90F2E03D91548BD2103F038F950
:10070800144BDB68C3F30223C3F10702042A28BF92
:100718000422191D062901D9D81E00E00020012352
:1007280003FA02F2013A324002FA00F183405A1EFB
:100738002A400A43002C06DA04F00F041201D2B250
:10074800054B1A5570BD1201D2B2044B1A5570BD33
:10075800B481000800ED00E014ED00E000E400E0E2
:1007680010B5041E03DA0648D02103F001F9610927
:1007780004F01F040123A340024A42F8213010BDAF
:10078800B481000800E100E00138B0F1807F0AD2AE
:10079800064B5860F021064A82F823100020986022
:1007A80007221A6070470120704700BF10E000E080
:1007B80000ED00E010B50446042818BF002804D056
:1007C800094840F2B31103F0D3F8042C05D1074AC5
:1007D800136843F00403136010BD044A136823F040
:1007E8000403136010BD00BFB481000810E000E0EE
:1007F800704700BFC8B110B5044602680C4B9A4256
:1008080003D00C48EE2103F0B3F8237913F0FF0F5F
:1008180004D1002363712046FFF7EAFF0223237106
:10082800002020610123237110BD0120704700BF03
:1008380000740040E881000838B504460D460029D8
:1008480018BF102904D01D484FF4B77103F090F871
:100858006379012B30D0012363710222227122684F
:100868001168AB400B43136085B92268116813689F
:1008780003F03803382B14BF0023012313EA910334
:1008880015D0536843F00103536010E022681168E3
:10089800136803F46013B3F5601F14BF002301232A
:1008A80013EA914303D0536843F0020353600123D2
:1008B80023710020607138BD022038BDE88100082E
:1008C800F8B504460E4615460B68002B18BF242BB6
:1008D80012D00C2B10D0142B0ED01C2B0CD0042BA8
:1008E8000AD02C2B08D0342B06D03C2B04D01C4823
:1008F80040F20E3103F03CF87368002B18BF022B4E
:1009080004D0174840F20F3103F032F8002D18BF19
:10091800102D04D012484FF4447103F029F863797C
:10092800012B1BD0012060710223237127683968CD
:1009380040F6FE73AB4021EA0302316873680B434B
:10094800AB4013433B6021680A68C023AB4022EAEE
:1009580003030B60207100206071F8BD0220F8BD10
:10096800E8810008F0B583B0074614461D46002309
:1009780001930E46994218BF102904D0144840F23A
:10098800463102F0F5FF002C18BF042C06D0082CC5
:1009980004D00F4840F2473102F0EAFF4FF6F073F7
:1009A8009D4204D90A484FF4527102F0E1FF3B68B6
:1009B800019326B9019B1C440834019403E0019B70
:1009C8001C4414340194019B1D60002003B0F0BD49
:1009D800E881000830B405682C6824F480242C6071
:1009E800046863608368402B04D103689A600368D5
:1009F800D96003E0036899600368DA6030BC704727
:100A08000268D3B2103B0949A1FB03131B0908492B
:100A1800C95C4165032B04D9064B134004330365B5
:100A280002E0044B13400365006D7047ABAAAAAA05
:100A38001882000800FCFFFF002800F00E8110B5A6
:100A480004460368864A87498B4218BF93422ED0D2
:100A5800183293422BD01832934228D0183293423E
:100A680025D01832934222D0183293421FD0183220
:100A780093421CD002F55672934218D01832934212
:100A880015D01832934212D0183293420FD0183230
:100A980093420CD01832934209D01832934206D0B0
:100AA8001832934203D07048EC2102F061FF63686A
:100AB800002B18BFB3F1007F15D0B3F1806F12D0AF
:100AC800B3F1C06F0FD0B3F1006F0CD0B3F1206F4A
:100AD80009D0B3F1406F06D0B3F1606F03D062481C
:100AE800ED2102F045FFA368002B18BF402B05D06D
:100AF800802B03D05C48EE2102F03AFFE368B3F59F
:100B0800007F18BF002B03D05748EF2102F030FFB9
:100B18002369B3F5806F18BF002B03D05248F0212A
:100B280002F026FF6369002B18BFB3F5006F06D0EB
:100B3800B3F5805F03D04C48F12102F019FFA36997
:100B4800002B18BFB3F5005F06D0B3F5804F03D074
:100B58004548F22102F00CFFE369002B18BFB3F5FA
:100B6800807F05D0202B03D03F48F32102F000FFFF
:100B7800236A002B18BFB3F5803F09D0B3F5003FB7
:100B880006D0B3F5403F03D03748F42102F0F0FE19
:100B9800636A002B18BF042B03D03348F52102F0F9
:100BA800E7FE636A33B3A36A032B03D92E48FA21FD
:100BB80002F0DEFEE36A002B18BFB3F5000F09D080
:100BC800B3F1807F06D0B3F1C07F03D02648FB2164
:100BD80002F0CEFE236B002B18BFB3F5001F09D01F
:100BE800B3F5800F06D0B3F5C00F03D01E48FC2123
:100BF80002F0BEFE022384F83530206802681B4BE1
:100C080013406168A2681143E268114322691143E5
:100C180062691143A2691143E2691143226A0A43D6
:100C28001343626A042A03D1E16A226B0A4313431D
:100C380003602268536923F00703616A0B430429A0
:100C480001D1A16A0B4353612046FFF7D9FE00206A
:100C5800E064012384F8353010BD0120704700BFDF
:100C68002860024010600240208200083F8010F097
:100C7800F8B590F83440012C2FD01D4616460F4683
:100C88000446012380F83430022380F835306A1E88
:100C98004FF6FE739A4204D911484FF4E07102F0FE
:100CA80067FE2268136823F0010313602046394663
:100CB80032462B46FFF78EFE2268136843F01E0368
:100CC80013602268536943F08003536122681368F4
:100CD80043F0010313600020F8BD0220F8BD00BFF7
:100CE8002082000838B50446056D2A68416D08233E
:100CF8008B401A4219D003681A6812F0040F14D0F6
:100D08001A6822F004021A60426D08239340AB600F
:100D1800C36C43F00103C364042380F83530002317
:100D280080F83430836C03B198472A68616D584B5A
:100D38008B401A421AD023685A6912F0800F15D0D6
:100D48005A6922F080025A61626D514B9340AB6040
:100D5800E36C43F00203E364042384F83530002392
:100D680084F83430A36C0BB1204698472A68616D2B
:100D7800484B8B401A421AD023681A6812F0020FA7
:100D880015D01A6822F002021A60626D414B934036
:100D9800AB60E36C43F00403E364042384F8353068
:100DA800002384F83430A36C0BB1204698472A6896
:100DB800616D10238B401A422DD02268116811F002
:100DC800080F28D0116811F4802F11D0AB60236868
:100DD8001A6812F4002F03D1312384F8353016E055
:100DE8001B6813F4002F12D0412384F835300EE02D
:100DF800136813F4807F03D1136823F0080313608A
:100E0800626D10239340AB60312384F83530236C36
:100E18000BB1204698472A68616D20238B401A42FF
:100E280034D02268116811F0100F2FD0116811F416
:100E3800802F13D0AB6023681A6812F4002F04D1F6
:100E4800636C1BB32046984738BD1B6813F4002F0A
:100E58001CD0E36BD3B12046984738BD136813F410
:100E6800807F03D1136823F010031360626D202381
:100E78009340AB60E36CE364112384F835300023BE
:100E880084F83430E36B0BB12046984738BD00BF77
:100E980001008000040080002DE9F04F83B08046F7
:100EA8000F46B34BB34A904218BF98422BD003F574
:100EB8000063C31A18BF012302F50062904222D0D2
:100EC8000BB3AD4BC31A18BF012302F50062904261
:100ED80019D0C3B1A94BC31A18BF012302F5006288
:100EE800904210D07BB1A64BC31A18BF012302F55C
:100EF8000062904207D033B1A24B984203D0A24877
:100F0800C32102F035FD3B881BB99F48C42102F07C
:100F18002FFD7B68112B18BF012B20D9022B1ED067
:100F2800122B1CD0994A934219D002F58012934291
:100F380015D002F58012934211D0A2F5F81293420F
:100F48000DD002F58012934209D002F58012934227
:100F580005D0032B03D08C48C52102F009FDBB68DE
:100F6800022B03D98848C62102F002FD0024F8E0CC
:100F7800A1460125A5403B6803EA050AAA4540F0B9
:100F8800EF807B68122B18BF022B1CD13B690F2BFB
:100F980018BF0C2B07D90D2B05D00E2B03D07A4880
:100FA800D72102F0E5FCE608083658F8261004F0C8
:100FB800070080000F23834021EA03023B69834036
:100FC800134348F82630D8F800304FEA440B03267C
:100FD80006FA0BF6F64306EA03027B6803F00303FE
:100FE80003FA0BF31343C8F800307B685A1E112B21
:100FF80018BF012A01D9122B1CD1FB68032B03D976
:101008006148EB2102F0B4FCD8F8083006EA030284
:10101800FB6803FA0BF31343C8F80830D8F8043018
:1010280023EA05037D68C5F3001505FA09F51D4394
:10103800C8F80450D8F80C303340BE6806FA0BF6EE
:101048001E43C8F80C607B6813F0805F00F088804E
:10105800002301934E4B5A6C42F480425A645B6CF5
:1010680003F480430193019BA308991C494A52F851
:10107800211004F0030080000F22824021EA0201BF
:101088003C4A904537D002F58062904531D002F550
:10109800806290452BD002F58062904525D002F5FC
:1010A800806290451FD002F58062904519D002F504
:1010B8008062904513D002F5806290450DD002F50C
:1010C8008062904507D002F58062904501D10922DF
:1010D80012E00A2210E008220EE007220CE00622A5
:1010E8000AE0052208E0042206E0032204E00222C6
:1010F80002E0012200E0002282400A43023325492F
:1011080041F82320244B1A686FEA0A0303EA020114
:10111800786810F4803F01D04AEA02011E4A116043
:10112800526803EA0201786810F4003F01D04AEAE5
:101138000201194A5160926803EA0201786810F4C2
:10114800801F01D04AEA0201134A9160D268134015
:10115800796811F4001F01D04AEA02030E4AD360ED
:1011680001340F2C7FF604AF03B0BDE8F08F00BF49
:10117800000402400000024000140240001C02402B
:10118800002402400028024050820008000011108C
:101198000038024000380140003C014038B505469F
:1011A8000C4621B9054840F28D1102F0E1FB2B698C
:1011B800234201D0012038BD002038BD50820008EC
:1011C80070B5064615460C4621B9094840F2AD11DE
:1011D80002F0CEFB012D04D905484FF4D77102F077
:1011E800C7FB0DB1B46170BD2404B46170BD00BF0C
:1011F800508200082DE9F04180460E4617461D46EC
:10120800069C0368224A23498B4218BF93420CD09C
:1012180002F58062934208D002F58062934204D0BE
:101228001D4841F2590102F0A3FBB5F1807F18BFB8
:10123800B5F1007F05D025B1174841F25A0102F0F7
:1012480097FBB4F5804F18BFB4F5105F0BD0231C83
:1012580018BF0123B4F5005F05D023B10E4841F251
:101268005B0102F085FBD8F80020536823F07F73F8
:1012780023F4593323F47F7323F00303C6F30906D9
:1012880046EA074635432C431C435460BDE8F081C9
:1012980000580040005400408082000870B50446A1
:1012A8000D46FFF7FDF8064623689B6913F0100FFB
:1012B80012D1002070BDB5F1FF3F0DD025B1FFF769
:1012C800EFF8801BA84207D9012384F835300023A2
:1012D80084F83430032070BD23689A6912F0200F17
:1012E800E9D01022DA6123682022DA6123689A693A
:1012F80012F0010F01D10122DA612268536823F04C
:10130800FF7323F48B3323F4FF7323F0010353603B
:101318000423A363012084F83500002384F83430C3
:1013280070BD00BF70B504460D46FFF7B9F8064614
:1013380019E020462946FFF7B1FFD8B9B5F1FF3FBC
:1013480011D025B1FFF7ACF8801BA8420BD9A36BCD
:1013580043F02003A363012384F83530002384F885
:101368003430032070BD23689B6913F0020FE0D06E
:10137800002070BD012070BD2DE9F04105460E46E4
:1013880090461C46FFF78CF80746B8F1000F12D0BC
:101398002EE0B4F1FF3F0ED024B1FFF781F8C01B57
:1013A800A04208D9012385F83530002385F8343068
:1013B8000320BDE8F0812B689B6926EA0303C3F389
:1013C8001003002BE5D10020BDE8F081B4F1FF3F08
:1013D8000ED024B1FFF764F8C01BA04208D901233E
:1013E80085F83530002385F834300320BDE8F081D6
:1013F8002B689B6926EA0303C3F31003002BE5D08F
:101408000020BDE8F08100BF70B505460C46FFF727
:1014180047F8064616E028462146FFF73FFFC0B9C1
:1014280024B1FFF73DF8801BA0420BD9AB6B43F00A
:101438002003AB63012385F83530002385F8343069
:10144800032070BD2B689B6913F0200FE3D00020A8
:1014580070BD012070BD00BF70B504460D46FFF792
:101468001FF8064631E020462946FFF717FF0028F7
:1014780032D123689A6912F0200F14D02022DA6141
:101488002268536823F0FF7323F48B3323F4FF732C
:1014980023F0010353600023A363012084F835007F
:1014A80084F8343070BD25B1FEF7FAFF801BA842DE
:1014B8000BD9A36B43F02003A363012384F83530D1
:1014C800002384F83430032070BD23689B6913F02F
:1014D800040FC8D0002070BD012070BD002800F0A6
:1014E800A88010B504460368534A54498B4218BF74
:1014F80093420CD002F58062934208D002F58062D4
:10150800934204D04E4840F22B1102F031FAA368FE
:10151800B3F5806F04D34A484FF4967102F028FA65
:10152800E368013B012B04D9454840F22D1102F034
:101538001FFA2369002B18BFB3F5004F04D04048A9
:101548004FF4977102F014FA6369FF2B04D93C48F1
:1015580040F22F1102F00CFAA369072B04D938487E
:101568004FF4987102F004FAE369002B18BFB3F541
:10157800002F04D0324840F2311102F0F9F9236A01
:10158800002B18BFB3F5003F04D02D484FF49971D4
:1015980002F0EEF994F8353013F0FF0F05D100236F
:1015A80084F83430204603F0D5F9022384F8353026
:1015B8002268136823F0010313602268636823F02C
:1015C800706313612268936823F400439360A368EF
:1015D8005BB1E268012A04D1226843F400439360B6
:1015E80003E0226843F404439360E368022B03D1C9
:1015F80023684FF400625A6022685168114B0B430C
:1016080053602268216963690B43A16943EA012396
:10161800D3602268E169236A0B4313602268136868
:1016280043F0010313600020A063012384F83530E0
:1016380010BD0120704700BF005800400054004012
:101648008082000800800002704700BF38B310B5E0
:1016580004460368134A14498B4218BF93420CD0BE
:1016680002F58062934208D002F58062934204D06A
:101678000E4840F27D1102F07BF9022384F83530E0
:101688002268136823F0010313602046FFF7DCFF8C
:101698000020A06384F8350084F8340010BD0120D0
:1016A800704700BF00580040005400408082000886
:1016B8002DE9F04383B004461D4690F83530DBB27F
:1016C800012B40F090800F461646002D18BF002AC7
:1016D80000F08B8003689B6913F4004F40F087800B
:1016E80090F83430012B00F08480012380F83430E6
:1016F800122380F8353000238363FF2D0AD94FF475
:1017080000530093FF224FF08073FFF773FD4FF0F3
:10171800FF080AE04FF400530093EAB24FF0007359
:10172800FFF768FDA84600E04E4620460A99FFF7F5
:10173800F9FD20B1A36B042B5DD1012360E0236880
:1017480006F1010932789A62013DADB2B8F101089B
:101758000CBF01230023002D0CBF002303F001035D
:10176800FBB12046802100220A9BFFF705FE0028D6
:1017780043D1FF2D0BD90023009320463946FF2281
:101788004FF08073FFF736FD4FF0FF0809E00023A4
:10179800009320463946EAB24FF00073FFF72AFD5E
:1017A800A846002DC0D120460A99FFF72DFE034612
:1017B80020B1A36B042B22D1012321E02268202130
:1017C800D16121684A6822F0FF7222F48B3222F438
:1017D800FF7222F001024A60012284F835200022BB
:1017E80084F834200CE002230AE0012308E00223F5
:1017F80006E0022304E0032302E0032300E00323BE
:10180800184603B0BDE8F0832DE9F04383B00446E1
:101818001D4690F83530DBB2012B40F090800F4622
:101828001646002D18BF002A00F08B8003689B69BC
:1018380013F4004F40F0878090F83430012B00F00B
:101848008480012380F83430222380F83530002347
:101858008363FF2D0AD94FF410530093FF224FF0F2
:101868008073FFF7C7FC4FF0FF080AE04FF41053EE
:101878000093EAB24FF00073FFF7BCFCA84600E003
:101888004E4620460421FFF7E7FD20B1A36B042B49
:101898005DD1012360E006F1010923685B6A3370BA
:1018A800013DADB2B8F101080CBF01230023002DA2
:1018B8000CBF002303F00103FBB120468021002266
:1018C8000A9BFFF759FD002843D1FF2D0BD90023B0
:1018D800009320463946FF224FF08073FFF78AFCB9
:1018E8004FF0FF0809E00023009320463946EAB28A
:1018F8004FF00073FFF77EFCA846002DC0D12046AC
:101908001921FFF781FD034620B1A36B042B22D1D7
:10191800012321E022682021D16121684A6822F050
:10192800FF7222F48B3222F4FF7222F001024A6025
:10193800012284F83520002284F834200CE00223A8
:101948000AE0012308E0022306E0022304E003235F
:1019580002E0032300E00323184603B0BDE8F08348
:101968002DE9F04782B00024019490F83540E4B2A4
:10197800012C40F08C800468A46914F4004F40F0F6
:10198800888090F83440012C00F085801F469046EE
:1019980089460646012380F83430022380F8353022
:1019A800002383633268F368012B04D1C9F309016A
:1019B8003E4B0B4303E0C9F3090343F42053536040
:1019C800FEF76EFD824611E0B7F1FF3F0ED02FB152
:1019D800FEF766FDCAEB0000B84207D9012386F876
:1019E8003530002386F8343003235BE03568AB6973
:1019F80013F0200F08D1AB6913F0100F04D196F83B
:101A08003540E4B2032CDFD1AB6913F0100F12D1CB
:101A18003046202100223B46FFF7AEFC0346002853
:101A28003BD132682021D161012286F8352000227D
:101A380086F8342036E03046202100223B46FFF766
:101A48009BFC60BB33681022DA6133682022DA61BC
:101A5800019B5A1C019243450ED13268536843F4E6
:101A6800804353603046202100223B46FFF784FC28
:101A7800B8B933682022DA61019B434592D3012328
:101A880086F83530002386F8343003230AE0022331
:101A980008E0022306E0022304E0032302E0032314
:101AA80000E00323184602B0BDE8F08700200002DA
:101AB80010B582B0002301931C4B1A6C42F080527F
:101AC8001A641B6C03F080530193019B184A136836
:101AD80043F480331360FEF7E3FC044605E0FEF7A9
:101AE800DFFC001BB0F57A7F1AD8114B5B6813F442
:101AF800803FF4D00E4A136843F400331360FEF7B6
:101B0800CFFC044605E0FEF7CBFC001BB0F57A7F5E
:101B180008D8074B5B6813F4003FF4D0002002E0BC
:101B2800032000E0032002B010BD00BF00380240CF
:101B38000070004030B583B0044603680F2B04D909
:101B48009B484FF4807101F013FF236813F0010FD5
:101B580000F08E806368002B18BFB3F5803F07D074
:101B6800B3F5A02F04D092484FF4837101F000FF21
:101B7800904B9B6803F00C03042B0AD08D4B9B6899
:101B880003F00C03082B0DD18A4B5B6813F4800F0C
:101B980008D0884B1B6813F4003F69D06368002B9A
:101BA80066D15BE2834B1A6822F480321A601A68A5
:101BB80022F480221A601A6822F480321A60FEF732
:101BC8006FFC054605E0FEF76BFC401B642800F23D
:101BD8004782784B1B6813F4003FF4D1754A1368A9
:101BE80023F4803313606368B3F5803F09D113464B
:101BF800126822F480221A601A6842F480321A604D
:101C080015E0B3F5A02F09D16A4B1A6842F4802277
:101C18001A601A6842F480321A6008E0654B1A6844
:101C280022F480221A601A6822F480321A606368EB
:101C38007BB1FEF735FC054605E0FEF731FC401B9D
:101C4800642800F20F825B4B1B6813F4003FF4D04A
:101C58000EE0FEF725FC054605E0FEF721FC401BDB
:101C6800642800F20182534B1B6813F4003FF4D13F
:101C7800236813F0020F6ED0E368012B04D94C4897
:101C880040F2471101F074FE23691F2B04D948481C
:101C98004FF4A47101F06CFE464B9B6813F00C0FD7
:101CA8000AD0444B9B6803F00C03082B1BD1414B13
:101CB8005B6813F4800F16D13E4B1B6813F0020FBC
:101CC80003D0E368012B40F0D1813A48036823F040
:101CD800F8012369F82292FAA2F2B2FA82F293404A
:101CE8000B43036037E0E3680BB3324A136843F0F1
:101CF80001031360FEF7D4FB054605E0FEF7D0FBB1
:101D0800401B642800F2B4812A4B1B6813F0020FB1
:101D1800F4D02848036823F0F8012369F82292FADE
:101D2800A2F2B2FA82F293400B43036013E0214A15
:101D3800136823F001031360FEF7B2FB054605E0C4
:101D4800FEF7AEFB401B642800F29481194B1B6818
:101D580013F0020FF4D1236813F0080F37D063692A
:101D6800012B04D912484FF4C47101F001FE6369D4
:101D7800A3B1104A536F43F001035367FEF790FB7A
:101D8800054605E0FEF78CFB401B642800F27481D1
:101D9800084B5B6F13F0020FF4D018E0054A536F3D
:101DA80023F001035367FEF77BFB05460AE000BFFB
:101DB800C082000800380240FEF772FB401B64280E
:101DC80000F25C81B64B5B6F13F0020FF4D123680D
:101DD80013F0040F00F09480A368052B18BF012BA3
:101DE80004D9B0484FF4D97101F0C2FD0023019322
:101DF800AB4B1A6C42F080521A641B6C03F0805390
:101E08000193019BA84A136843F480731360FEF79B
:101E180047FB054605E0FEF743FB401B642800F23C
:101E28002F81A14B1B6813F4807FF4D09C4B1A6F51
:101E380022F001021A671A6F22F004021A671A6F59
:101E480022F001021A67FEF72BFB054607E0FEF7B2
:101E580027FB401B41F28833984200F21381904BD4
:101E68001B6F13F0020FF2D18D4A136F23F0010399
:101E78001367A368012B09D11346126F22F00402DD
:101E88001A671A6F42F001021A6714E0052B09D18C
:101E9800834B1A6F42F004021A671A6F42F001026C
:101EA8001A6708E07E4B1A6F22F004021A671A6F4D
:101EB80022F001021A67A3688BB1FEF7F1FA054612
:101EC80007E0FEF7EDFA401B41F28833984200F232
:101ED800DB80734B1B6F13F0020FF2D010E0FEF79C
:101EE800DFFA054607E0FEF7DBFA401B41F28833CC
:101EF800984200F2CB806A4B1B6F13F0020FF2D1AD
:101F0800A369022B04D967484FF4FB7101F030FD37
:101F1800A369002B00F0BC80614A926802F00C02B1
:101F2800082A00F0B780022B40F08380E369002B79
:101F380018BFB3F5800F04D05A4840F2FF1101F0E2
:101F480017FD236A023B3D2B04D956484FF4007114
:101F580001F00EFD636A323BB3F5BF7F04D95148E7
:101F680040F2012101F004FDA36A022B18BF042BE3
:101F780008D0062B06D0082B04D04A4840F202218C
:101F880001F0F6FCE36A023B0D2B04D9454840F208
:101F9800032101F0EDFC424A136823F080731360BB
:101FA800FEF77EFA054604E0FEF77AFA401B64283D
:101FB80072D83B4B1B6813F0007FF5D1226A636A25
:101FC80047F6C07191FAA1F1B1FA81F18B401A4339
:101FD800A36A5B08013B4FF4403191FAA1F1B1FAD1
:101FE80081F18B401343E26943EA0201E36A4FF04F
:101FF800706292FAA2F2B2FA82F203FA02F241EAAB
:10200800020343F00053264A5360136843F0807379
:102018001360FEF745FA044604E0FEF741FA001B98
:1020280064283BD81E4B1B6813F0007FF5D00020B6
:102038003DE01B4A136823F080731360FEF730FA03
:10204800044604E0FEF72CFA001B64282ED8144B33
:102058001B6813F0007FF5D1002028E0012026E05E
:10206800032024E0032022E0032020E001201EE0DA
:1020780003201CE003201AE0032018E0032016E0E8
:10208800032014E0032012E0032010E003200EE0F8
:1020980000200CE001200AE0032008E0032006E00D
:1020A80000380240C082000800700040032003B0DE
:1020B80030BD00BF70B504460D460368013B0E2BCA
:1020C80004D98A4840F2622101F052FC0F2D04D94C
:1020D800864840F2632101F04BFC854B1B6803F0F6
:1020E8000F03AB4280F08F80814A136823F00F03FF
:1020F8002B431360136803F00F03AB4240F0578182
:10210800236813F0020F1ED0A368002B18BF802B82
:1021180012D0902B10D0A02B0ED0B02B0CD0C02BEF
:102128000AD0D02B08D0E02B06D0F02B04D06F4873
:1021380040F2792101F01CFC6E498B6823F0F00213
:10214800A36813438B60236813F0010F00F0EB8042
:102158006368022B04D965484FF4207101F008FC2C
:102168006268012A05D1634B1B6813F4003F0ED146
:102178001FE1022A05D15F4B1B6813F0007F06D1CF
:1021880019E15C4B1B6813F0020F00F016815949E6
:102198008B6823F0030313438B60FEF781F9054630
:1021A8006368012B0FD107E0FEF77AF9401B41F273
:1021B8008833984200F203814E4B9B6803F00C036E
:1021C800042BF1D1AFE0022B17D107E0FEF768F935
:1021D800401B41F28833984200F2F380454B9B68DC
:1021E80003F00C03082BF1D19DE0FEF759F9401BD1
:1021F80041F28833984200F2E6803E4B9B6813F028
:102208000C0FF2D18FE0236813F0020F1ED0A368E1
:10221800002B18BF802B12D0902B10D0A02B0ED0E3
:10222800B02B0CD0C02B0AD0D02B08D0E02B06D076
:10223800F02B04D02D484FF4327101F099FB2D4951
:102248008B6823F0F002A36813438B60236813F0B4
:10225800010F5DD06368022B04D9244840F2CF21D6
:1022680001F086FB6268012A05D1224B1B6813F432
:10227800003F0ED1A9E0022A05D11E4B1B6813F0BE
:10228800007F06D1A3E01B4B1B6813F0020F00F080
:10229800A08018498B6823F0030313438B60FEF773
:1022A800FFF806466368012B0FD107E0FEF7F8F840
:1022B800801B41F28833984200F28D800D4B9B6859
:1022C80003F00C03042BF1D122E0022B1BD106E012
:1022D800FEF7E6F8801B41F2883398427DD8054B1B
:1022E8009B6803F00C03082BF2D111E0C0820008B0
:1022F800003C024000380240FEF7D2F8801B41F251
:10230800883398426BD8384B9B6813F00C0FF3D185
:10231800364A136823F00F032B431360136803F046
:102328000F03AB425DD1236813F0040F1AD0E368A2
:10233800002B18BFB3F5805F0DD0B3F5A05F0AD0AE
:10234800B3F5C05F07D0B3F5E05F04D0284840F28A
:102358001E3101F00DFB24498B6823F4E052E36839
:1023680013438B60236813F0080F1BD02369002BDD
:1023780018BFB3F5805F0DD0B3F5A05F0AD0B3F5F1
:10238800C05F07D0B3F5E05F04D0194840F22531AB
:1023980001F0EEFA144A936823F46043216943EA92
:1023A800C10393600020FEF753F8002070BD0120A0
:1023B80070BD012070BD012070BD012070BD0320DB
:1023C80070BD032070BD032070BD012070BD0120C9
:1023D80070BD012070BD032070BD032070BD0320B7
:1023E80070BD012070BD00BF00380240003C0240B3
:1023F800C0820008214B9B6803F00C03042B3AD0E1
:10240800082B01D01E4870471C4B586800F03F004D
:102418005B6813F4800F0FD01A4BB3FBF0F3174A25
:10242800506847F6C072104092FAA2F2B2FA82F2ED
:10243800D04000FB03F30EE0114BB3FBF0F30F4A5F
:10244800506847F6C072104092FAA2F2B2FA82F2CD
:10245800D04000FB03F3094A506800F440304FF4C1
:10246800403292FAA2F2B2FA82F2D0400130400031
:10247800B3FBF0F070470348704700BF00380240D4
:102488000024F40080BA8C0108B5FFF7B3FF084BAD
:102498009B6803F0F003F02292FAA2F2B2FA82F2F9
:1024A800D340044AD35CD840034B186008BD00BF32
:1024B80000380240B08200080C000020F0B583B05C
:1024C80004460268644B13401BB96448872101F035
:1024D8004FFA236813F0010F16D0636B002B18BF57
:1024E800B3F5000F03D05D488D2101F041FA5C4B34
:1024F8009A6822F400029A609968626B0A439A60AB
:10250800636B1BB1002702E0002700E00127236866
:1025180013F4002F1DD0E36B002B18BFB3F5801FF9
:1025280006D0B3F5001F03D04C489D2101F020FAD6
:102538004B49D1F88C3023F44012E36B1343C1F8B4
:102548008C30E36BB3F5801F00D101271BB1002548
:1025580002E0002500E00125236813F4801F1CD049
:10256800236C002B18BFB3F5800F06D0B3F5000F0E
:1025780003D03A48B12101F0FBF93949D1F88C3040
:1025880023F44002236C1343C1F88C30236CB3F559
:10259800800F00D1012703B90125236813F0807F3C
:1025A80000D0012713F0200F6CD0002301932C4B8F
:1025B8001A6C42F080521A641B6C03F0805301932A
:1025C800019B284A136843F480731360FDF768FF82
:1025D800064605E0FDF764FF801B642800F2F084DE
:1025E800204B1B6813F4807FF4D01D4B1A6F236BAC
:1025F800534013F4407F45D0194B196F21F44070B4
:102608001A6F42F480321A671A6F22F480321A67FE
:10261800186711F0020F10D0FDF742FF064607E0D9
:10262800FDF73EFF801B41F28833984200F2CA84CE
:102638000B4B1B6F13F0020FF2D0236B03F44072A5
:10264800B2F5407F12D10648826822F4F811064A92
:102658001A400A4382600EE0F9FFFF01F082000889
:102668000038024000700040FFFCFF0FBB4A93682F
:1026780023F4F8139360B94A116F236BC3F30B0368
:102688000B431367236813F0100F17D0A36B002BAD
:1026980018BFB3F1807F04D0B1484FF4807101F0C6
:1026A80067F9AE4BD3F88C2022F08072C3F88C20E7
:1026B800D3F88C10A26B0A43C3F88C20236813F458
:1026C800804F16D0636E002B18BFB3F5803F07D03C
:1026D800B3F5003F04D0A2484FF4857101F048F9E2
:1026E8009E49D1F8903023F44032636E1343C1F809
:1026F8009030236813F4004F16D0A36E002B18BF38
:10270800B3F5802F07D0B3F5002F04D094484FF4C9
:102718008A7101F02DF99149D1F8903023F44022C3
:10272800A36E1343C1F89030236813F4803F16D08A
:10273800E36E002B18BFB3F5801F07D0B3F5001F59
:1027480004D087484FF48F7101F012F98349D1F80A
:10275800903023F44012E36E1343C1F8903023689D
:1027680013F4003F16D0236F002B18BFB3F5800F6A
:1027780007D0B3F5000F04D079484FF4947101F0F5
:10278800F7F87649D1F8903023F44002236F1343C9
:10279800C1F89030236813F0400F14D0636C032BFA
:1027A80018BF012B06D9022B04D06D484FF499713C
:1027B80001F0DEF86949D1F8903023F00302636C28
:1027C8001343C1F89030236813F0800F16D0A36C20
:1027D800002B18BF042B08D00C2B06D0082B04D0D4
:1027E8005F484FF49E7101F0C3F85C49D1F890300E
:1027F80023F00C02A36C1343C1F89030236813F440
:10280800807F16D0E36C002B18BF102B08D0302B1C
:1028180006D0202B04D052484FF4A37101F0A8F839
:102828004E49D1F8903023F03002E36C1343C1F8DD
:102838009030236813F4007F16D0236D002B18BF47
:10284800402B08D0C02B06D0802B04D044484FF42E
:10285800A87101F08DF84149D1F8903023F0C002F9
:10286800236D1343C1F89030236813F4806F19D097
:10287800636D002B18BFB3F5807F0AD0B3F5407F96
:1028880007D0B3F5007F04D035484FF4AD7101F09F
:102898006FF83249D1F8903023F44072636D1343D6
:1028A800C1F89030236813F4006F19D0A36D002B82
:1028B80018BFB3F5806F0AD0B3F5406F07D0B3F5F2
:1028C800006F04D026484FF4B27101F051F8234943
:1028D800D1F8903023F44062A36D1343C1F89030CF
:1028E800236813F4805F19D0E36D002B18BFB3F58C
:1028F800805F0AD0B3F5405F07D0B3F5005F04D01E
:1029080017484FF4B77101F033F81449D1F89030F3
:1029180023F44052E36D1343C1F89030236813F455
:10292800005F1FD0236E002B18BFB3F5804F0AD06D
:10293800B3F5404F07D0B3F5004F04D008484FF423
:10294800BC7101F015F80549D1F8903023F44042E4
:10295800236E1343C1F8903004E000BF00380240F2
:10296800F0820008236813F4800F13D0A36FB3F12B
:10297800806F18BF002B04D03A484FF4C17100F0A3
:10298800F7FF3949D1F8903023F08062A36F1343E1
:10299800C1F89030236813F4001F18D0E36FB3F127
:1029A800006F18BF002B04D02E484FF4C67100F0FA
:1029B800DFFF2D49D1F8903023F00062E36F134315
:1029C800C1F89030E36FB3F1006F00D1012523689F
:1029D80013F0080F00D0012513F4802F19D0636F6E
:1029E800002B18BFB3F1807F0AD0B3F1007F07D066
:1029F800B3F1407F04D01B4840F2A31100F0B8FFA8
:102A08001949D1F8903023F04072636F1343C1F82D
:102A18009030236813F4000F15D0D4F88030B3F148
:102A2800805F18BF002B04D00E4840F2AD1100F0B3
:102A38009FFF0D49D1F8903023F08052D4F88030B0
:102A48001343C1F8903027B92368B3F1007F40F0F1
:102A58007281054A136823F080631360FDF720FD37
:102A6800064609E0F082000800380240FDF718FD2C
:102A7800801B642800F2A882B54B1B6813F0006F16
:102A8800F4D16368323BB3F5BF7F04D9B1484FF442
:102A9800E47100F06DFF236813F0010F45D0636BFC
:102AA800002B42D1A368023B052B04D9A9484FF457
:102AB800E77100F05DFFA648D0F8846006F4403660
:102AC8004FF4403292FAA2F3B3FA83F3DE40D0F81F
:102AD800843003F070634FF0706797FAA7FEBEFA70
:102AE8008EFE23FA0EF1636847F6C07E9EFAAEFEAC
:102AF800BEFA8EFE03FA0EF392FAA2F2B2FA82F24C
:102B080006FA02F21A4397FAA7F3B3FA83F301FA23
:102B180003F31A43A3684FF0E04191FAA1F1B1FA27
:102B280081F18B401343C0F88430236813F4002FDD
:102B380003D0E26BB2F5801F06D013F4801F59D082
:102B4800236CB3F5800F55D1E368023B0D2B04D9F4
:102B580080484FF4EF7100F00BFF636A013B1F2BB5
:102B680004D97C484FF4F07100F002FF7848D0F89F
:102B7800846006F440364FF4403E9EFAAEF3B3FA52
:102B880083F3DE40D0F8843003F0E0434FF0E047B1
:102B980097FAA7F2B2FA82F223FA02F1626847F6CC
:102BA800C07393FAA3F3B3FA83F302FA03F39EFA1A
:102BB800AEF2B2FA82F206FA02F243EA0206E268DA
:102BC8004FF0706393FAA3F3B3FA83F39A40324356
:102BD80097FAA7F3B3FA83F301FA03F31343C0F8A0
:102BE8008430D0F88C3023F01F02636A013B134312
:102BF800C0F88C30236813F0807F43D02369032BFF
:102C080004D9544840F2F31100F0B2FE504ED6F801
:102C1800840000F070604FF0706292FAA2F1B1FA8D
:102C280081F1C840D6F8843003F0E0434FF0E04724
:102C380097FAA7FEBEFA8EFE23FA0EF1636847F6EE
:102C4800C07E9EFAAEFEBEFA8EFE03FA0EFC236923
:102C58004FF4403E9EFAAEFEBEFA8EFE03FA0EF325
:102C68004CEA030392FAA2F2B2FA82F200FA02F2F2
:102C78001A4397FAA7F3B3FA83F301FA03F313435A
:102C8800C6F88430236813F0007F40D02369032BF3
:102C980004D9304840F2022100F06AFEA368023BE2
:102CA800052B04D92B4840F2032100F061FEE368AC
:102CB800023B0D2B04D927484FF4017100F058FE50
:102CC800626847F6C07393FAA3F3B3FA83F302FA80
:102CD80003F322694FF4403191FAA1F1B1FA81F17D
:102CE8008A401A43E3684FF0706191FAA1F1B1FA92
:102CF80081F18B401A43A3684FF0E04191FAA1F1AA
:102D0800B1FA81F18B401343114AC2F88430104A5A
:102D1800136843F080631360FDF7C2FB064605E0C5
:102D2800FDF7BEFB801B642800F25081084B1B682E
:102D380013F0006FF4D0002D00F04A81044A1368A4
:102D480023F080531360FDF7ABFB05460AE000BF94
:102D580000380240F0820008FDF7A2FB401B6428FF
:102D680000F238819E4B1B6813F0005FF4D1636951
:102D7800323BB3F5BF7F04D99A4840F2322100F0C4
:102D8800F7FD236813F4002F01D0E26B2AB113F486
:102D9800801F58D0236C002B55D1A369023B0D2B03
:102DA80004D9904840F2392100F0E2FDA36A013BC2
:102DB8001F2B04D98B4840F23B2100F0D9FD8848ED
:102DC800D0F8885005F440354FF4403292FAA2F317
:102DD800B3FA83F3DD40D0F8883003F0E0434FF0D6
:102DE800E04696FAA6F7B7FA87F723FA07F1676974
:102DF80047F6C07393FAA3F3B3FA83F39F4092FAAA
:102E0800A2F2B2FA82F205FA02F247EA0205A269D0
:102E18004FF0706393FAA3F3B3FA83F39A402A430B
:102E280096FAA6F3B3FA83F301FA03F31343C0F84F
:102E38008830D0F88C3023F4F853A26A013A43EA78
:102E48000223C0F88C30236813F4001F46D0E36FC8
:102E5800B3F1006F42D1236A032B04D9614840F2D1
:102E68004E2100F085FD5E4ED6F8880000F07060B7
:102E78004FF0706292FAA2F3B3FA83F3D840D6F80F
:102E8800883003F0E0434FF0E04595FAA5F7B7FA2C
:102E980087F723FA07F1636947F6C07797FAA7F728
:102EA800B7FA87F703FA07FE236A4FF4403797FA11
:102EB800A7F7B7FA87F7BB404EEA030392FAA2F2E4
:102EC800B2FA82F200FA02F21A4395FAA5F3B3FABB
:102ED80083F301FA03F31343C6F88830236813F029
:102EE800080F58D0E369023B052B04D93D4840F24E
:102EF8005D2100F03DFDE36A002B18BFB3F5803F6C
:102F08000AD0B3F5003F07D0B3F5403F04D03548A9
:102F180040F25E2100F02CFD3148D0F8885005F0D1
:102F280070654FF0706292FAA2F1B1FA81F1CD406A
:102F3800D0F8883003F440334FF4403191FAA1F6C9
:102F4800B6FA86F6F340676947F6C07696FAA6F6AB
:102F5800B6FA86F6B74091FAA1F1B1FA81F18B4041
:102F68003B4392FAA2F2B2FA82F205FA02F2134352
:102F7800E2694FF0E04191FAA1F1B1FA81F18A409A
:102F88001343C0F88830D0F88C3023F44032E36A19
:102F98001343C0F88C30124A136843F0805313600F
:102FA800FDF77EFA044604E0FDF77AFA001B642870
:102FB80012D80B4B1B6813F0005FF5D000200CE013
:102FC80003200AE0032008E0032006E0032004E0D1
:102FD800002002E0032000E0032003B0F0BD00BFA2
:102FE80000380240F08200082DE9F04105460F46FE
:102FF80016461C46FDF754FA804637E0B4F1FF3F09
:1030080034D02CB1FDF74CFAC8EB0000A0422DD308
:103018002A68536823F0E00353606B68B3F5827F36
:103028000BD1AB68B3F5806F18BFB3F5004F04D16F
:103038002A68136823F040031360AB6AB3F5005F96
:103048000BD12A68136823F400531B041B0C13606C
:103058002A68136843F400531360012385F85D3030
:10306800002385F85C300320BDE8F0812B689B685D
:103078003B40B342C2D10020BDE8F0812DE9F041C8
:1030880082B007460D4614461E46FDF709FA8046EB
:1030980041E0B5F5C06F08BF002C05D1137BDBB24A
:1030A8008DF807309DF80730B6F1FF3F33D02EB1C9
:1030B800FDF7F6F9C8EB0000B0422CD33A68536824
:1030C80023F0E00353607B68B3F5827F0BD1BB68C4
:1030D800B3F5806F18BFB3F5004F04D13A68136891
:1030E80023F040031360BB6AB3F5005F0BD13A6865
:1030F800136823F400531B041B0C13603A6813680D
:1031080043F400531360012387F85D30002387F8E8
:103118005C30032005E03A6893682B40A342B8D19D
:10312800002002B0BDE8F08138B504460D464FF4E2
:10313800C05100222B46FFF7A1FF28B1236E43F0B0
:103148002003236603231AE02046802100222B4611
:10315800FFF74AFF28B1236E43F0200323660323B9
:103168000DE020464FF4C06100222B46FFF786FF92
:10317800034620B1236E43F0200323660323184639
:1031880038BD00BF704700BF002800F0228110B58D
:1031980004460368904A91498B4218BF934213D062
:1031A80002F5806293420FD002F5784293420BD029
:1031B80002F5E052934207D002F58062934203D0B1
:1031C8008748CC2100F0D4FB6368002B18BFB3F507
:1031D800827F03D08248CD2100F0CAFBA368002B70
:1031E80018BFB3F5806F06D0B3F5004F03D07C4805
:1031F800CE2100F0BDFBE368B3F5706F18BFB3F5DF
:10320800606F24D0B3F5506F21D0B3F5406F1ED056
:10321800B3F5306F1BD0B3F5206F18D0B3F5106F2E
:1032280015D0B3F5006F12D0B3F5E06F0FD0B3F53A
:10323800C06F0CD0B3F5A06F09D0B3F5806F06D07E
:10324800B3F5407F03D06648CF2100F091FB236996
:10325800002B18BF022B03D06148D02100F088FB57
:103268006369012B03D95E48D12100F081FBA36972
:10327800B3F5007F18BF002B06D0B3F5802F03D01D
:103288005748D22100F074FB636B082B18BF002B42
:1032980003D05348D32100F06BFBE369002B18BF20
:1032A800082B0FD0102B0DD0182B0BD0202B09D0AA
:1032B800282B07D0302B05D0382B03D04848D421F1
:1032C80000F056FB236A002B18BF802B03D044481C
:1032D800D52100F04DFB636A002B18BF102B03D0DB
:1032E8003F48D62100F044FBA36A002B18BFB3F572
:1032F800005F03D03A48D72100F03AFBE36A013B6C
:103308004FF6FE72934203D93548D82100F030FBBE
:10331800236B022B03D93248D92100F029FB94F8FA
:103328005D3023B984F85C302046FFF72BFF022379
:1033380084F85D302268136823F040031360E36863
:10334800B3F5E06F01D9002201E04FF48052B3F5E4
:10335800706F18BFB3F5E06F01D00021A162216B37
:1033680039B9B3F5E06F02D90223236301E00123E1
:10337800236320686168A368194323691943636953
:103388001943A36903F400730B43E1690B43216AF2
:103398000B43A16A19430160236B022B04D12168F6
:1033A8000B6843F400630B602068618B01F0040133
:1033B800636A1943636B1943E3680B431343436020
:1033C8002368E26A1A6100202066012384F85D30D0
:1033D80010BD0120704700BF003800400030014098
:1033E80024830008F0B583B004460F4616461D46F0
:1033F8008368002B18BFB3F5004F04D067484FF41B
:10340800CC7100F0B5FA94F85C30012B00F0BD8067
:10341800012384F85C3094F85D30012B07D0012338
:1034280084F85D30002384F85C300223B2E0002E7B
:1034380018BF002F06D1012384F85D30002284F8DC
:103448005C20A7E0032384F85D3000232366A7638C
:10345800A687E6872364A4F84430A4F84630A36816
:10346800B3F5004F04D12268136843F48043136016
:10347800A36AB3F5005F0BD12268136823F40053E5
:103488001B041B0C13602268136843F40053136079
:1034980023681A6812F0400F03D11A6842F04002FC
:1034A8001A60E368B3F5E06F19D849E020460221B5
:1034B8000A462B46FFF798FD38B1012384F85D30A2
:1034C800002384F85C30032364E02368A26B12882D
:1034D800DA60A36B0233A363E38F013BE387E38FD7
:1034E800002BE3D12FE0012B19D0204602210A46F8
:1034F8002B46FFF779FD38B1012384F85D300023AE
:1035080084F85C30032345E02368A26B1288DA60F4
:10351800A36B0233A363E38F023BE38710E02046EB
:1035280002210A462B46FFF75FFD00282FD12268AB
:10353800A36B591CA1631B781373E38F013BE387CB
:10354800E38F002BCFD1A36AB3F5005F04D12268C3
:10355800136843F48053136020462946FFF7E4FDBF
:103568000346B0B9A26832B901922268D1680191C4
:1035780092680192019A012284F85D20002284F861
:103588005C20226E32B1012304E0022302E003230F
:1035980000E00323184603B0F0BD00BF24830008F1
:1035A80070B504460E4615468368002B18BFB3F560
:1035B800004F04D042484FF49D6100F0D9F994F8C7
:1035C8005D30012B76D1002D18BF002E74D094F8F1
:1035D8005C30012B72D0012384F85C30032384F81B
:1035E8005D3000232366A663A587E5872364A4F8D6
:1035F8004430A4F84630A368B3F5004F04D12268DC
:10360800136843F480431360A36AB3F5005F0BD1DA
:103618002268136823F400531B041B0C13602268F0
:10362800136843F400531360636D264A1A64636D8C
:10363800254ADA63636D254A9A642268536823F43D
:1036480080435360E368B3F5E06F1AD8636D9B69F4
:10365800B3F5005F15D1E38F13F0010F08D122688D
:10366800536823F480435360E38F5B08E38708E0E3
:103678002268536843F480435360E38F5B08013347
:10368800E3872268606DA16B0C32E38FFDF7F0FAD7
:1036980023681A6812F0400F03D11A6842F04002FA
:1036A8001A602268536843F002035360002084F8CC
:1036B8005C0070BD022070BD012070BD022070BD8D
:1036C80024830008E136000815370008F1360008A1
:1036D800704700BF704700BF08B5806BFFF7FAFF5F
:1036E80008BD00BF704700BF08B5806B026853680B
:1036F80023F003035360036E43F0100303660123B2
:1037080080F85D30FFF7EEFF08BD00BF00B583B05D
:10371800836B0268126812F4807F18D119684A68AE
:1037280022F002024A609A6832B901921A68D16896
:10373800019192680192019A0022DA87012283F8A6
:103748005D201A6E1AB11846FFF7CCFF02E0184642
:10375800FFF7BEFF03B05DF804FB00BF704700BF72
:10376800704700BF704700BF704700BF10B50446E0
:1037780003681A6912F0020F17D0DA6812F0020F04
:1037880013D06FF002021A610123037603689B6964
:1037980013F0030F02D0FFF7E3FF04E0FFF7DEFFAB
:1037A8002046FFF7DFFF0023237623681A6912F00B
:1037B800040F19D0DA6812F0040F15D06FF0040264
:1037C8001A610223237623689B6913F4407F03D090
:1037D8002046FFF7C5FF05E02046FFF7BFFF20465C
:1037E800FFF7C0FF0023237623681A6912F0080F39
:1037F80019D0DA6812F0080F15D06FF008021A61B4
:10380800042323762368DB6913F0030F03D02046D3
:10381800FFF7A6FF05E02046FFF7A0FF2046FFF7C9
:10382800A1FF0023237623681A6912F0100F19D01C
:10383800DA6812F0100F15D06FF010021A61082321
:1038480023762368DB6913F4407F03D02046FFF713
:1038580087FF05E02046FFF781FF2046FFF782FF3C
:103868000023237623681A6912F0010F09D0DA6859
:1038780012F0010F05D06FF001021A61204602F024
:103888000DFB23681A6912F0800F09D0DA6812F06C
:10389800800F05D06FF080021A61204600F030F8E2
:1038A80023681A6912F4807F09D0DA6812F0800F51
:1038B80005D06FF080021A61204600F021F82368D5
:1038C8001A6912F0400F09D0DA6812F0400F05D0DB
:1038D8006FF040021A612046FFF746FF23681A6915
:1038E80012F0200F09D0DA6812F0200F05D06FF01F
:1038F80020021A61204600F001F810BD704700BF91
:10390800704700BFFEE700BF08B5034800F05EF847
:103918000120FFF7F7FF00BF5483000808B50D4BDF
:103928001B6813B90C4A0B4B1A600A4B1A68C31C64
:1039380023F00303134409498B4206D903F0E8FF37
:103948000C2303604FF0FF3008BD02490B6010469E
:1039580008BD00BF501D0020B4B6022000FC0420A2
:1039680001230360014B0B60704700BF0400002077
:1039780008B503460A460348194600F005F8FFF75C
:10398800C3FF00BFA88300080FB480B582B000AFA2
:1039980007F114033B600C4880213A693B6803F047
:1039A800F9FF78607B68002B05DD7B6806481946BF
:1039B80000F056F878607B6818460837BD46BDE8C1
:1039C800804004B0704700BF581D002080B582B009
:1039D80000AF7860786803F0ACFF03467868194652
:1039E80000F03EF80448012100F03AF80346184672
:1039F8000837BD4680BD00BFD48300082DE9F043D9
:103A080085B004460F46435C13BB0425284621466F
:103A1800ABBE04461FE03546102E28BF10250023F4
:103A280006E014F8011B04AA1A4402F8101C01331A
:103A3800AB42F6D304AA1344002203F8102CE9463B
:103A48004FF0040840464946ABBE8046761B00E06E
:103A58000E46002EDFD1384605B0BDE8F08300BF22
:103A680008B5FFF7CBFF08BD08B500F097F8054B80
:103A7800054A9A60D3F8882042F47002C3F8882077
:103A880008BD00BF00ED00E000000008F8B50446DE
:103A98000D4617461E462648FFF776FF254821683B
:103AA800FFF772FF24486168FFF76EFF2348A1689B
:103AB800FFF76AFF2248E168FFF766FF214821699E
:103AC800FFF762FF20486169FFF75EFF1F48A169A1
:103AD800FFF75AFF1E48E169FFF756FF1D48FFF739
:103AE80053FF1D482946FFF74FFF1C4CE16A1C484D
:103AF800FFF74AFF216B1B48FFF746FFE16B1A48A7
:103B0800FFF742FF15F0800F03D018483946FFF73A
:103B18003BFF15F4004F03D015483146FFF734FF3B
:103B28001448FFF731FF14480699FFF72DFFF8BD39
:103B380004840008148400082484000834840008DD
:103B480044840008548400086484000874840008CD
:103B58008484000894840008A084000800ED00E034
:103B6800B0840008C0840008D0840008E0840008FD
:103B7800F0840008008500080885000883691A8811
:103B88008A4207D10268033A012A05D802338361C1
:103B980001207047002070470020704710B40F4A7A
:103BA800D2F8883043F47003C2F888300C4B196897
:103BB80041F001011960002098601C680949214002
:103BC800196009495960196821F480211960D86081
:103BD8004FF0006393605DF8044B704700ED00E020
:103BE80000380240FFFFF6FE10300024224B9B688D
:103BF80003F00C03042B07D0082B09D0002B2DD180
:103C08001E4A1F4B1A602CE01E4A1D4B1A6028E002
:103C1800194B5A685B6803F03F0312F4800F09D010
:103C2800184AB2FBF3F2144B5B68C3F3881303FB27
:103C380002F208E0114AB2FBF3F30F4A5168C1F3EC
:103C4800881101FB03F20C4B5B68C3F3014301339A
:103C58005B00B2FBF3F30A4A136002E0074A084B21
:103C68001A60054B9B68C3F30313074AD15C044AE7
:103C78001368CB4013607047003802400024F400FA
:103C88000C00002080BA8C014C85000810B582B069
:103C9800BDF81040009400F013FA02B010BD00BF48
:103CA80000B583B0064BB3F90020064BB3F90030DA
:103CB80000900020014600F003FA03B05DF804FB11
:103CC8000C210020122100202DE9F04784B09046F5
:103CD8001F46BDF93060BDF8345080B289B2C218B1
:103CE800013A8B19013B92B29BB200F0C1F9194B12
:103CF800186899880122FDF763FA174BD3F800A0DA
:103D0800B3F80490504649460022FDF759FA0024BA
:103D180012E023B238F8133003EA0502120A8DF8CC
:103D280004202B408DF805300C4801A902220123FC
:103D3800FFF758FB0134A4B223B206FB07F2934203
:103D4800E7DB504649460122FDF73AFA04B0BDE8E0
:103D5800F08700BF8C850008948500086420002047
:103D680070B50646104B186899880022FDF728FAA6
:103D78000E4B186899880022FDF722FA0C4B1D6833
:103D88009C88284621460022FDF71AFA09490E8028
:103D9800094801221346FFF725FB28462146012240
:103DA800FDF70EFA70BD00BF8C85000884850008F9
:103DB80094850008B02100206420002070B50646D4
:103DC800104B186899880122FDF7FAF90E4B18680C
:103DD80099880022FDF7F4F90C4B1D689C88284649
:103DE80021460022FDF7ECF909490E800948012215
:103DF8001346FFF7F7FA284621460122FDF7E0F9B6
:103E080070BD00BF8C850008848500089485000873
:103E1800B02100206420002038B5934B1D689C8891
:103E2800284621460122FDF7CBF9052000F02CFB9E
:103E3800284621460022FDF7C3F9142000F024FB90
:103E4800284621460122FDF7BBF9962000F01CFB0D
:103E5800864B186899880022FDF7B2F9EF20FFF722
:103E68007FFF0320FFF7AAFF8020FFF7A7FF0220AC
:103E7800FFF7A4FFCF20FFF773FF0020FFF79EFF97
:103E8800C120FFF79BFF3020FFF798FFED20FFF7D9
:103E980067FF6420FFF792FF0320FFF78FFF1220D0
:103EA800FFF78CFF8120FFF789FFE820FFF758FF15
:103EB8008520FFF783FF0020FFF780FF7820FFF7BA
:103EC8007DFFCB20FFF74CFF3920FFF777FF2C2031
:103ED800FFF774FF0020FFF771FF3420FFF76EFF34
:103EE8000220FFF76BFFF720FFF73AFF2020FFF7CC
:103EF80065FFEA20FFF734FF0020FFF75FFF00208F
:103F0800FFF75CFFC020FFF72BFF2320FFF756FFCA
:103F1800C120FFF725FF1020FFF750FFC520FFF74E
:103F28001FFF3E20FFF74AFF2820FFF747FFC72063
:103F3800FFF716FF8620FFF741FF3620FFF710FF37
:103F48004820FFF73BFF3A20FFF70AFF5520FFF70D
:103F580035FFB120FFF704FF0020FFF72FFF1820DF
:103F6800FFF72CFFB620FFF7FBFE0820FFF726FF20
:103F78008220FFF723FF2720FFF720FFF220FFF71B
:103F8800EFFE0020FFF71AFF2620FFF7E9FE0120C9
:103F9800FFF714FFE020FFF7E3FE0F20FFF70EFF07
:103FA8003120FFF70BFF2B20FFF708FF0C20FFF74E
:103FB80005FF0E20FFF702FF0820FFF7FFFE4E2047
:103FC800FFF7FCFEF120FFF7F9FE3720FFF7F6FEBA
:103FD8000720FFF7F3FE1020FFF7F0FE0320FFF79E
:103FE800EDFE0E20FFF7EAFE0920FFF7E7FE0020AE
:103FF800FFF7E4FEE120FFF7B3FE0020FFF7DEFE47
:104008000E20FFF7DBFE1420FFF7D8FE0320FFF792
:10401800D5FE1120FFF7D2FE0720FFF7CFFE312093
:10402800FFF7CCFEC120FFF7C9FE4820FFF7C6FE08
:104038000820FFF7C3FE0F20FFF7C0FE0C20FFF794
:10404800BDFE3120FFF7BAFE3620FFF7B7FE0F207E
:10405800FFF7B4FE1120FFF783FE782000F014FA72
:104068002920FFF77DFE38BD648500089485000887
:10407800F8B507460D4616461C462A20FFF770FE7F
:10408800380AFFF79BFEF8B2FFF798FE300AFFF7F1
:1040980095FEF0B2FFF792FE2B20FFF761FE280A8B
:1040A800FFF78CFE2846FFF789FE200AFFF786FEF9
:1040B8002046FFF783FE2C20FFF752FEF8BD00BF15
:1040C8002DE9F04117469846BDF81840284B1B8843
:1040D8001AB2904249DA274A128815B2A94244DA3C
:1040E800C519013D1EB2B54201DB1B1A1FB201EB17
:1040F8000803013B15B2AB4202DB521A0FFA82F8F1
:1041080080B289B2C219013A01EB0803013B92B2AD
:104118009BB2FFF7ADFF184B186899880122FDF78D
:104128004FF8164B1E689D88304629460022FDF739
:1041380047F807FB08F0002305E0114A210AD1548B
:10414800591C545402338342F7D30E480C494FF696
:10415800FF72FFF725FA0B4B93F85D30032BFAD06B
:10416800304629460122FDF72BF8BDE8F08100BF53
:104178000C210020122100208C850008948500085D
:10418800C82100206420002010B504463620FFF71F
:10419800E7FD04F0030003282ED8DFE800F0020D45
:1041A80018234820FFF70AFEF022144B1A804FF418
:1041B800A072134B1A8010BD2820FFF7FFFD4FF4A3
:1041C800A0720E4B1A80F0220D4B1A8010BD882069
:1041D800FFF7F4FDF022094B1A804FF4A072084B48
:1041E8001A8010BDE820FFF7E9FD4FF4A072034BD9
:1041F8001A80F022024B1A8010BD00BF0C2100204B
:104208001221002080B586B000AF0E4A0D4B1B6B03
:1042180043F0010313634FF480737B600123BB6099
:1042280002233B610123FB603B1D07481946FCF74D
:1042380033FE05484FF480710022FCF7C1FF1837A0
:10424800BD4680BD00380240000002400A4B1B6892
:104258000A4AA2FB03239B09013BB3F1807F09D2E1
:10426800074A5360F021074B83F82310002393601B
:1042780007231360704700BF0C000020D34D621065
:1042880010E000E000ED00E0034B1B681BB1024AA0
:104298001368013B13607047C879022030B595B0A8
:1042A80000240194234B1A6C42F080521A641B6C50
:1042B80003F080530193019B02941F4B1A6842F448
:1042C80040421A601B6803F440430293029B012397
:1042D80008934FF4803309934FF480030F931A2304
:1042E80010934FF4D8731193022512950823139352
:1042F8000E9508A8FDF71EFCFDF7DAFB0F230393C4
:10430800049505944FF4A05306934FF480530793F4
:1043180003A80621FDF7CEFEFEF7B6F8074BA3FB70
:1043280000308009FCF730FA0420FCF743FA15B096
:1043380030BD00BF0038024000700040D34D62100D
:1043480010B5BFF34F8FBFF36F8F1D4B0021C3F81C
:1043580050125A6942F400325A61BFF34F8FBFF3CB
:104368006F8FC3F88410BFF34F8FD3F88040C4F326
:104378004E3000E01846C4F3C90200E01A4643F67E
:10438800E07303EA401343EA82730D49C1F86032CF
:10439800531E002AF2D1431E0028EBD1BFF34F8FE2
:1043A8004B6943F480334B61BFF34F8FBFF36F8F7B
:1043B800FCF762F8FFF772FFFFF718FC10BD00BFAB
:1043C80000ED00E008B519486421FCF709F9184820
:1043D8006421FCF705F917486421FCF701F918BBBB
:1043E8001248FCF75DF910F4007F1DD01048FCF767
:1043F80057F910F4007F17D00E48FCF751F910F464
:10440800007F11D00948FCF747F980B20A4B1880A1
:104418000748FCF741F980B2084B18800548FCF7BB
:104428003BF980B2064B188008BD00BF781F0020FA
:10443800C01F002054210020F01E0020082000206A
:10444800CA20002008B50C48FCF730F818B10B4A10
:104458001378013313700A48FCF728F818B1074A93
:104468001378013313700748FCF720F818B1034A92
:1044780013780133137008BD781F00205C200020DA
:10448800C01F002054210020034B1860024B1B68FA
:10449800002BFBD1704700BF0C2000202DE9F04F06
:1044A80087B0802301934FF00208CDF810800125D2
:1044B8000295002405940394B84801A9FCF7ECFC84
:1044C8004FF0400ACDF804A0CDF81080029505946D
:1044D8000394B24801A9FCF7DFFC4FF400530193A1
:1044E80004941127029705940394AD4801A9FCF799
:1044F800D3FCAB484FF400512246FCF761FE01950E
:10450800CDF81080029403950594A64801A9FCF7FC
:10451800C3FCCDF80480CDF810800294039505946F
:10452800A04801A9FCF7B8FC4FF400730193CDF83B
:104538001080029403950594984801A9FCF7ACFCF7
:104548004FF0040BCDF804B04FF00309CDF80890F4
:10455800039495480DEB0B01FCF79EFC0826019689
:10456800CDF80890039490480DEB0B01FCF794FCF0
:1045780030230193CDF8089003948B480DEB0B0181
:10458800FCF78AFCCDF804B00295049403948348A0
:104598000DEB0B01FCF780FC804859462A46FCF7D6
:1045A8000FFE802301930295049403947E480DEB3B
:1045B8000B01FCF771FC7C4880212246FCF700FEC9
:1045C800CDF8048002950494039475480DEB0B0113
:1045D800FCF762FC724841462246FCF7F1FDCDF833
:1045E80004A00295049403946F480DEB0B01FCF7AB
:1045F80053FC6D4851462A46FCF7E2FD01950295A9
:104608000494039468480DEB0B01FCF745FC6648DD
:1046180029462246FCF7D4FDCDF804A0029504945F
:10462800039460480DEB0B01FCF736FC5D485146DE
:104638002A46FCF7C5FD019602970494039459484D
:104648000DEB0B01FCF728FC564831462246FCF7D7
:10465800B7FD4FF4004301930295049403944F4827
:104668000DEB0B01FCF718FC4C484FF400412A46AF
:10467800FCF7A6FD4FF400530193029504940394AC
:1046880046480DEB0B01FCF707FC44484FF400517A
:104698002A46FCF795FD2023019302950494039480
:1046A80040480DEB0B01FCF7F7FB3E4820212A465A
:1046B800FCF786FD10270197029504940394394866
:1046C8000DEB0B01FCF7E8FB364839462A46FCF7A8
:1046D80077FD4FF4006701970295049403943348DB
:1046E8000DEB0B01FCF7D8FB304839462A46FCF79E
:1046F80067FD4FF480470197029504940394294875
:104708000DEB0B01FCF7C8FB264839462A46FCF797
:1047180057FD4FF480530193CDF808900494039407
:1047280022480DEB0B01FCF7B7FB20484FF48051F2
:104738002246FCF745FDCDF80480CDF80890049496
:10474800039416480DEB0B01FCF7A6FB4FF48068A9
:10475800CDF8048002950494039414480DEB0B01E2
:10476800FCF79AFB114841462A46FCF729FD0197B8
:104778000295049403940D480DEB0B01FCF78CFB98
:104788000A4839462A46FCF71BFD20230193029468
:104798000494039505480DEB0B0109E00004024061
:1047A800000802400010024000000240000C0240D5
:1047B800FCF772FBCDF804A00294049403956048BA
:1047C8000DEB0B01FCF768FB01960294049403952A
:1047D8005B480DEB0B01FCF75FFB80230193029410
:1047E8000494039556480DEB0B01FCF755FB4FF469
:1047F8000053019302950494039452480DEB0B0166
:10480800FCF74AFB4F484FF400512246FCF7D8FC0E
:104818004FF48079CDF804900494029503954A48A2
:104828000DEB0B01FCF738FB474849462246FCF7DD
:10483800C7FC4FF400430193049402950394414844
:104848000DEB0B01FCF728FB3E484FF400412A46CC
:10485800FCF7B6FC8023019304940294039439482E
:104868000DEB0B01FCF718FBCDF804B0049402958E
:10487800039436480DEB0B01FCF70EFB3348594601
:104888002A46FCF79DFCCDF8048004940295039415
:104898002C480DEB0B01FCF7FFFA2A4841462A4643
:1048A800FCF78EFCCDF804900494029503942448F8
:1048B8000DEB0B01FCF7F0FA214849462246FCF7BC
:1048C8007FFC019604940295039420480DEB0B019C
:1048D800FCF7E2FA1D4831462246FCF771FCCDF898
:1048E800049004940295039416480DEB0B01FCF711
:1048F800D3FA144831462246FCF762FCCDF804B0DE
:104908000494029503940F480DEB0B01FCF7C4FACD
:104918000C4859462246FCF753FCCDF80490049401
:10492800029503940A480DEB0B01FCF7B5FA084809
:1049380049462A46FCF744FC07B0BDE8F08F00BFA3
:10494800000C024000100240000002400008024033
:1049580000040240F0B587B00E4B9A8801920227F6
:1049680004971226029601250395042405941868D5
:104978000DEB0401FCF790FA074B9A880192049713
:1049880002960395059418680DEB0401FCF784FA68
:1049980007B0F0BDAC8500087485000800B585B087
:1049A8008DF80C008DF80D10642300930448E02165
:1049B80003AA0223FCF77CFE05B05DF804FB00BFE8
:1049C800D0200020F8B51D4603FB0121CC01B4FB23
:1049D800F3F4A4F50074D201B2FBF3F703FB172735
:1049E800C6B23046E1B2FFF7D9FF701CC0B2C4F3BB
:1049F8000721FFF7D3FFB01CC4F3014101EB870186
:104A0800C0B2C9B2FFF7CAFFF01CC0B2C7F3871122
:104A1800FFF7C4FF301DC0B2C7F38731FFF7BEFFF1
:104A2800701DC0B2C7F38751FFF7B8FFB01DC0B201
:104A3800E9B2FFF7B3FFF01DC0B2C5F30721FFF7D6
:104A4800ADFF06F10800C0B2C5F30741FFF7A6FFA6
:104A580006F10900C0B2C5F30561FFF79FFFF8BD75
:104A680030B587B08DF80F0000238DF817300B4C48
:104A7800642500952046E0210DF10F020123FCF783
:104A880017FE00952046E0210DF117020123FCF7DF
:104A9800BBFE9DF8170007B030BD00BFD020002036
:104AA80070B50E4900EB40028B188D5C5E789C78DF
:104AB80094B10146FF2C04D128463146FFF76EFF1A
:104AC80070BD2846FFF7CCFF20EA0400C1B234408D
:104AD80028462143FFF762FF70BD00BF1800002081
:104AE80010B5E6201021FFF759FFF120E521FFF767
:104AF80055FF002403E02046FFF7D2FF0134B4F548
:104B0800AF7FF8DBDA200121FFF7AAFF00F00400ED
:104B1800C0B206E0DA200121FFF7A2FF00F004008E
:104B2800C0B20028F6D131200121FFF799FF00F02B
:104B38007F013120FFF732FFF6200221FFF72EFF19
:104B4800F1206521FFF72AFFDA200121FFF788FF0E
:104B580000F0150005E0DA200121FFF781FF00F0E1
:104B680015000028F7D1EB200121FFF779FF014656
:104B78002D20FFF713FFEC200121FFF771FF0146FD
:104B88002E20FFF70BFF2F200121FFF769FF0446B6
:104B9800ED200121FFF764FF00F0030104F0FC049D
:104BA8002F202143FFF7FAFE31200121FFF758FF9C
:104BB80060F07F013120C9B2FFF7F0FEE620002146
:104BC800FFF7ECFE1F20C121FFF7E8FE3520C921C1
:104BD80040F2B92240F2BF23FFF7F4FE1F20C021A4
:104BE800FFF7DCFE10BD00BF2DE9F0414400124B79
:104BF8009C421ED9114B9C421BD8114BD3E900672C
:104C080000253046394622462B4602F0D1FB804625
:104C18003046394622462B4602F0CAFB01E05208CC
:104C28006408084B9C42FAD8352041462346FFF7D2
:104C3800C9FEBDE8F08100BF3F4B4C008093DC14F7
:104C480010000020A086010010B4BFF34F8FBFF3FF
:104C58006F8F1B4B0021C3F850125A6942F400327F
:104C68005A61BFF34F8FBFF36F8FC3F88410BFF340
:104C78004F8FD3F88040C4F34E3000E01846C4F399
:104C8800C90200E01A4643F6E07303EA401343EA18
:104C980082730B49C1F86032531E002AF2D1431EB9
:104CA8000028EBD1BFF34F8F4B6943F480334B613E
:104CB800BFF34F8FBFF36F8F5DF8044B704700BF92
:104CC80000ED00E0022956DC30B4002347E001295A
:104CD80019D0022929D0002940D11418C4F500742C
:104CE8009C420ADAC2F500749C4206DD224C04EBB1
:104CF80083044FF07E55256030E01F4C04EB83049D
:104D0800002525602AE0934209DD14189C4206DD3F
:104D1800194C04EB83044FF07E5525601EE0164CB9
:104D280004EB83040025256018E01418C4F5007509
:104D38009D4203DAC2F500759D4203DC934208DD0B
:104D4800A34206DA0C4C04EB83044FF07E55256031
:104D580004E0094C04EB8304002525600133B3F516
:104D6800007FB4DB044B03F5806100220A6003F284
:104D7800FC731A6030BC7047D4790220F0B4002468
:104D880028E0E200871897ED007A224EB31893EDD9
:104D9800006A67EE066A151D054495ED007A13460C
:104DA80004331E44D6ED007A27EE277A36EEC77A0A
:104DB800194E324482ED007A95ED007A67EE877AD3
:104DC80097ED007A26EE076A77EE867A3344C3EDCC
:104DD800007A0134FF2CD4DD002316E0002B03DA1F
:104DE80000EB830200241460B3F5007F03DB00EBC3
:104DF80083020024146000EB830403EB4105064A98
:104E080002EB8502126822600133B3F5007FE5DB0F
:104E1800F0BC7047D479022084AA022088B000220E
:104E28000092294B196B41F001011963196B01F0CC
:104E38000101009100990192196B41F00201196377
:104E4800196B01F00201019101990292196B41F06D
:104E580004011963196B01F004010291029903928C
:104E6800196B41F008011963196B01F008010391EE
:104E780003990492196B41F010011963196B01F041
:104E88001001049104990592196B41F400111963FA
:104E9800196B01F40011059105990692196B41F4FB
:104EA80080011963196B01F4800106910699079234
:104EB8001A6C42F480021A641B6C03F48003079393
:104EC800079B08B0704700BF003802402DE9F84F33
:104ED8000646284C284B23604FF0C06BC4F804B03A
:104EE8004023A3600025E5604FF4806AC4F810A051
:104EF8006561A561E561256265624FF00309C4F843
:104F080028904FF40008C4F82C804FF4001727634A
:104F18002046FBF791FD7465A663184C184B236077
:104F2800C4F804B0A560E560C4F810A06561A56187
:104F3800E5614FF4003323626562C4F82890C4F831
:104F48002C8027632046FBF777FDB465A6630F2006
:104F580029460122FBF7C4FB3B20FBF701FC3A2062
:104F680029462A46FBF7BCFB3A20FBF7F9FBBDE8CC
:104F7800F88F00BF481E002058640240EC1D002036
:104F880040640240024A136801331360704700BF4F
:104F9800DC1E00200023064A1360064A13607F21A6
:104FA800054A1160054A13606422054B1A60704770
:104FB800D4810220D0790220FC910220D8810220DD
:104FC800A8B602202F4B1B78002B5AD110B52E4BB8
:104FD80018689988FCF7E2F844002C4B18689988FF
:104FE800FCF7DCF820442A4B18602A4B1B689842CF
:104FF80042D00BB9012813D0012B01D1032808D0C6
:10500800032B01D1022806D0022B06D138B100208B
:1050180006E0184604E0012002E0002000E001203C
:105028001D4B18601D4B18689988FCF7B7F8B8B97C
:10503800194B1B6823B11A4A13880133138003E004
:10504800174A1388013B1380154B1B885B08154AC8
:105058001188B3FBF1F201FB1233134A13800BE002
:105068000D4B1B6823B1114A13680133136003E029
:105078000E4A1368013B1360054B1A68054B1A600A
:1050880010BD7047BE1E00205C8500087C850008A6
:10509800D0790220D481022008AA02206C85000859
:1050A800E81D0020C21C0020EA1D0020ACB602202A
:1050B80008B50B49D1E90023013243F10003C1E9E6
:1050C8000023FFF7E1F8FFF77DFFFBF7E1F9054B58
:1050D8001B681BB1034A1368013B136008BD00BF7E
:1050E800E01D00200C200020002308E000EB8301D5
:1050F8000B4A02EB830212680A6001339BB2094A29
:105108001288B3EB420FF1DB05E000EB83020021CC
:10511800116001339BB2B3F5007FF6D3704700BF2F
:1051280088B20220D21C002008B59FED147A002313
:1051380008E000EB8302D2ED007A67EEA77A37EE3B
:10514800277A01338B42F4DB07EE901AB8EEE70AB0
:1051580087EE007AB5EEC07AF1EE10FA0BDBB1EE0D
:10516800C70AB4EE400AF1EE10FA06D0B0EE470ACC
:1051780001F03AFC08BD9FED010A08BD00000000DF
:1051880010B4002304E001EB83020024146001330F
:10519800B3F5007FF7DBC300C818034A026042601A
:1051A8005DF8044B704700BF6666663F904B1B78FE
:1051B80013F0FF0F00F01A8110B586B08D4B1B68F5
:1051C800012B74D18C4B186800283DD101A84FF4ED
:1051D80080710022012301F0F3FA01A8874901F048
:1051E800CFFA874B1B6893B9864B1B78012B0AD1E2
:1051F8000DE09A008149114409688348024411600E
:1052080001339BB200E00023B3F5007FF1D37B4864
:105218007E4B1968FFF7B2FD794B1B68012B16D13D
:10522800784B1B78012B0AD111E09A00734911447D
:10523800096875480244116001339BB200E00023FD
:10524800B3F5007FF1D302E06C49FFF799FF01A89D
:105258004FF480710122134601F0B2FA01A86749A0
:1052680001F08EFA6A4B1B78022B14D16348694906
:105278004FF4807201F0FEFA00230AE0654A02EB5F
:10528800830211685D4A02EBC3000160416001338B
:105298009BB2FF2BF2D959484FF40071FFF744FF36
:1052A8005D4B83ED000A0022524B1A6096E05B4B7F
:1052B8001B68012B47D1504B186888B901A84FF4D7
:1052C80080710022012301F07BFA554C01A8214688
:1052D80001F056FA20464D4B1968FFF74FFD02E0E2
:1052E8004F49FFF74DFF01A84FF480710122134683
:1052F80001F066FA01A84A4901F042FA444B1B78CA
:10530800022B14D1464843494FF4807201F0B2FA97
:1053180000230AE03F4A02EB83021168404A02EB8D
:10532800C3000160416001339BB2FF2BF2D93C48B6
:105338004FF40071FFF7F8FE374B83ED000A0022A7
:10534800364B1A604AE0374B1B68012B46D12A4B73
:10535800186888B901A84FF480710022012301F070
:105368002FFA314C01A8214601F00AFA2046274BB2
:105378001968FFF703FD02E02B49FFF701FF01A8B9
:105388004FF480710122134601F01AFA01A8264948
:1053980001F0F6F91E4B1B78022B14D122481D4947
:1053A8004FF4807201F066FA00230AE0194A02EB12
:1053B800830211681C4A02EBC3000160416001339B
:1053C8009BB2FF2BF2D918484FF40071FFF7ACFEDF
:1053D800114B83ED000A0022124B1A600022044B85
:1053E8001A700122114B1A6006B010BD704700BF39
:1053F8005D200020A01E0020D81E0020089A022050
:10540800D81D0020A81E002004920220D01E0020D3
:10541800DC1D002008A20220B81E0020C01E0020AB
:10542800DC810220E01E0020FC890220C41E00202E
:1054380000B583B02E380B2875D8DFE800F0067465
:105448006A101A242E38424C56601320009001939B
:1054580008B211B2394A0F23FEF736FC6BE013206D
:105468000090019308B211B2354A0F23FEF72CFCC5
:1054780061E013200090019308B211B2314A0F2362
:10548800FEF722FC57E013200090019308B211B2F6
:105498002D4A0F23FEF718FC4DE0132000900193CE
:1054A80008B211B2294A0F23FEF70EFC43E013207D
:1054B8000090019308B211B2254A0F23FEF704FCAD
:1054C80039E013200090019308B211B2214A0F234A
:1054D800FEF7FAFB2FE013200090019308B211B2F7
:1054E8001D4A0F23FEF7F0FB25E0132000900193DF
:1054F80008B211B2194A0F23FEF7E6FB1BE013208E
:105508000090019308B211B2154A0F23FEF7DCFB95
:1055180011E013200090019308B211B2114A0F2331
:10552800FEF7D2FB07E00023009308B211B20F2266
:105538001323FEF7ABFB03B05DF804FB4C18002007
:1055480010160020E40A0020A80800209811002066
:10555800881A0020300400205C0F0020D41300209B
:10556800200D00206C06002008B50248FBF7BAFBA6
:1055780008BD00BFEC1D002008B50248FBF7B2FBD0
:1055880008BD00BF481E002008B50248FEF7EEF827
:1055980008BD00BF1821002008B5FFF707FE024824
:1055A800FEF7E4F808BD00BF1020002000B583B066
:1055B80000230193234B1A6C42F000521A641B6CAF
:1055C80003F000530193019B1F48204B0360FBF736
:1055D80011F908B1FFF7D6FC1D4900220A604A609C
:1055E8001948FBF76DF908B1FFF7CCFC16481849C4
:1055F8001022FBF765F908B1FFF7C4FC1248002137
:105608000A468823FBF7AEF908B1FFF7BBFC0E4842
:10561800102100228823FBF7A5F908B1FFF7B2FC97
:1056280009480021FBF708F908B1FFF7ABFC064869
:105638001021FBF701F908B1FFF7A4FC03B05DF8EE
:1056480004FB00BF003802406CAA0220007400402E
:10565800B01E002030B5A3B0FFF7F6FAFAF70CFF3A
:10566800FFF7DCFBFEF71AFF00F01CFC3148FFF7E0
:105678002DFC4FF40043019300251B9501A8FCF76E
:105688001DFF2D4C2D4B23602046FBF7DFFF012328
:10569800E3602561E561256240F20F33A360FE23D4
:1056A8006361274B63602046FBF718FF10B125485C
:1056B800FEF78CF9012005E01F48E021642213461B
:1056C800FCF74EF90028F7D1FFF70AFA1E4B1868C5
:1056D800FFF78AFAFEF7BAFDFEF794FD1B484FF470
:1056E80000510122FBF76CFD194BB3F90020194B4F
:1056F800B3F90000801A184B1978FFF7E3FAFFF79F
:1057080055FFFFF747FCFEF787FB0120FEF73CFD3E
:10571800332000210A464FF6FF73FFF789FE002069
:10572800FEF7BEFA1F20FEF7BBFA4FF47840FEF7EB
:10573800B7FAF7E764200020D02000200058004086
:1057480032279140C8850008D41C00200010024070
:10575800D41E0020D01C0020DC1D002008B5C0F39A
:105768000B03034800210A46FBF7FCF808BD00BFFD
:105778006CAA022008B5C0F30B03034810210022CD
:10578800FBF7F0F808BD00BF6CAA0220000000007B
:10579800914B1B78002B00F049832DE9F0418F4B8A
:1057A8001B88642B05D18E484FF400510122FBF76A
:1057B80007FDFEF707FE8B4B1B68012B00F0E0800E
:1057C800022B00F0E881002B40F0E982864B1B6831
:1057D8003BBB824B1D886E00844B1B889BB2844A5E
:1057E8001068181A01F01CFB0022824B01F07EFBA6
:1057F800814C04EBC50501F08BFD2860751C7F4BBF
:105808001B889BB27E4A1068181A01F009FB002217
:10581800784B01F06BFB04EB850401F079FD206007
:1058280026E06E4B1D886E00DFF8DC81B8F80000BA
:1058380080B2744B1F68C01B01F0F2FA00226D4B56
:1058480001F054FB6C4C04EBC50501F061FD2860C8
:10585800751CB8F8000080B2C01B01F0E1FA002204
:10586800644B01F043FB04EB850401F051FD20601B
:10587800654B1B889BB2654A1288934203D9624BD9
:105888001A88624B1A805D4B1B889BB25F4A12884C
:10589800934203D9594B1A885C4B1A804F4B19888D
:1058A80048005B4A02EBC102D2ED007A594B93EDF6
:1058B800007AF4EEC77AF1EE10FA01DDC3ED007A52
:1058C800534B03EB8003D3ED016A524B93ED007AFF
:1058D800F4EEC76AF1EE10FA01DDC3ED006ADFED00
:1058E8004E5A67EEA57A4D4B93ED007A67EE877AAC
:1058F8009FED4B6A77EE867AFDEEE77A17EE900A0F
:10590800484BC3ED007A66EEA56A27EE267A37EE95
:10591800067AFDEEC77A17EE903A434AC2ED007A4E
:10592800314A1268012A0BD1404A1268904201DDBF
:105938003E4A10603D4A1268934201DD3B4A1360BB
:1059480080B2FFF70BFF384B1888FFF713FF234B84
:105958001A88374B1B88C3F1FF018A42C0F21F82A5
:10596800A3F580731344244800EBC2010D68314944
:1059780001EBC304256000EBC202526862600EE2CC
:10598800194B1B68002B57D1144B1D886E00174B01
:105998001B889BB2164A1068181A01F041FA0022B7
:1059A800144B01F0A3FA1A4C04EBC50501F0B0FC46
:1059B8002860751C114B1B889BB2114A1068181A75
:1059C80001F02EFA00220B4B01F090FA04EB85044B
:1059D80001F09EFC206056E0CD200020142100201C
:1059E80000100240441E0020D81D0020CA200020BC
:1059F800CC1C00200000303F089A0220082000201C
:105A0800C41C0020C81C0020F01E0020BC1E002062
:105A1800DC810220CC1E002000008045D81C00201C
:105A280000000045A41E0020AC1E0020C81E002057
:105A3800D21C002088B202206D4B1D886E00DFF852
:105A4800C081B8F8000080B26A4B1F68C01B01F023
:105A5800E7F90022684B01F049FA684C04EBC505E8
:105A680001F056FC2860751CB8F8000080B2C01B15
:105A780001F0D6F90022604B01F038FA04EB8504F6
:105A880001F046FC20605E4B1B889BB25D4A128881
:105A9800934203D95A4B1A885A4B1A805A4B1B887F
:105AA8009BB2584A1288934203D9574B1A88554BD0
:105AB8001A804F4B19884800544A02EBC102D2EDB4
:105AC800007A534B93ED007AF4EEC77AF1EE10FAB0
