:020000040800F2
:1000000000000520615400082F120008311200087A
:1000100033120008351200083712000800000000F3
:10002000000000000000000000000000514A00082D
:100030003912000800000000F14A00083B120008D5
:10004000B1540008B1540008B1540008B15400087C
:10005000B1540008B1540008B1540008B15400086C
:10006000B1540008B1540008B1540008B15400085C
:10007000B1540008B1540008B1540008B15400084C
:1000800045120008B1540008B1540008B1540008EA
:10009000B1540008B1540008B1540008B15400082C
:1000A000B1540008B1540008B1540008B15400081C
:1000B00055120008B1540008B1540008B1540008AA
:1000C000B1540008B1540008B1540008B1540008FC
:1000D000B1540008B1540008B1540008B1540008EC
:1000E000B1540008B1540008B1540008B1540008DC
:1000F000B1540008B1540008B1540008B1540008CC
:10010000B1540008B1540008B1540008B1540008BB
:10011000B1540008B1540008B1540008B1540008AB
:1001200065120008B1540008B154000875120008A7
:10013000B1540008B1540008B1540008B15400088B
:10014000B1540008B1540008B1540008B15400087B
:10015000B1540008B1540008B1540008B15400086B
:10016000B1540008B1540008B1540008B15400085B
:10017000B1540008B1540008B15400080000000058
:10018000B1540008B1540008B1540008B15400083B
:10019000B1540008B1540008B1540008B15400082B
:1001A000B1540008B1540008B1540008B15400081B
:1001B000B1540008B1540008B1540008B15400080B
:0801C000B1540008B15400081D
:1001D00010B5054C237833B9044B13B10448AFF381
:1001E00000800123237010BD0C00002000000000DF
:1001F000FC54000808B5034B1BB103490348AFF397
:10020000008008BD0000000010000020FC54000821
:1002100053B94AB9002908BF00281CBF4FF0FF316D
:100220004FF0FF3000F072B9ADF1080C6DE904CE6B
:1002300000F006F8DDF804E0DDE9022304B07047C1
:100240002DE9F047089E04468846002B4BD18A4290
:10025000154667D9B2FA82F24AB1C2F1200701FA13
:1002600002F320FA07F7954047EA030894404FEA63
:10027000154E230CB8FBFEF71FFA85FC0EFB178802
:1002800043EA084307FB0CF1994209D9EB1807F13F
:10029000FF3080F01B81994240F21881023F2B44CD
:1002A0005B1AA4B2B3FBFEF00EFB103344EA034426
:1002B00000FB0CFCA44509D92C1900F1FF3380F098
:1002C0000781A44540F2048102382C4440EA0740EB
:1002D000A4EB0C0400271EB1D4400023C6E9004360
:1002E0003946BDE8F0878B4209D9002E00F0EB803B
:1002F0000027C6E9000138463946BDE8F087B3FA61
:1003000083F7002F47D18B4202D3824200F2FA805A
:10031000841A61EB030301209846002EE0D0C6E961
:100320000048DDE702B9FFDEB2FA82F2002A40F0AF
:100330008F80491B4FEA154E1FFA85F80127B1FB44
:10034000FEFC230C0EFB1C1143EA014308FB0CF1DD
:10035000994207D9EB180CF1FF3002D2994200F212
:10036000CD808446591AA3B2B1FBFEF00EFB1014E7
:1003700043EA044408FB00F8A04507D92C1900F112
:10038000FF3302D2A04500F2B6801846A4EB080461
:1003900040EA0C409FE7C7F1200CBB4022FA0CFE5C
:1003A0004EEA030E01FA07F420FA0CF521FA0CF3D9
:1003B0004FEA1E482543B3FBF8F92C0C08FB193310
:1003C0001FFA8EFA44EA034309FB0AF49C4202FA3C
:1003D00007F200FA07F10BD91EEB030309F1FF3016
:1003E00080F087809C4240F28480A9F10209734426
:1003F0001B1BADB2B3FBF8F008FB103345EA034416
:1004000000FB0AFAA24508D91EEB040400F1FF33F1
:100410006BD2A24569D90238744440EA0940A0FB76
:100420000289A4EB0A044C45C2464B4654D351D032
:10043000002E69D0B1EB0A0564EB030404FA0CFC4E
:10044000FD40FC404CEA0505C6E90054002747E79B
:10045000C2F1200320FA03F7954001FA02F021FAD5
:1004600003F34FEA154E3843010CB3FBFEF71FFAB6
:1004700085F80EFB173341EA034107FB08F38B4273
:1004800004FA02F407D9691807F1FF3C2FD28B4216
:100490002DD9023F2944CB1A81B2B3FBFEF00EFBEB
:1004A000103341EA034100FB08F38B4207D9691876
:1004B00000F1FF3C17D28B4215D902382944C91AE2
:1004C00040EA07473BE73746304609E70746E7E695
:1004D0001846FBE64145ABD2B8EB020A69EB0E02C7
:1004E00001381346A4E76046E9E7184695E76746F2
:1004F000D1E781467CE702382C4447E7ACF1020C97
:100500002B442FE7384608E73746E9E6704700BF37
:1005100008B50368B3F1804F00D008BD04F0D8F8E7
:10052000FBE7FEE700B5B5B0374B1A6C42F08052DE
:100530001A641B6C03F080530093009B334A1368CA
:1005400023F4404343F480431360136803F44043AF
:100550000193019B0B2328934FF4803329930123AC
:100560002B9310222C922D9302232E934FF4800272
:100570002F920D22309248223192329303233393EB
:1005800028A802F0E1FF002832D10F232393002195
:10059000249125914FF4A05326934FF48053279331
:1005A00023A803F00FFA38BB194B02934FF40073E2
:1005B0000E93002318931C9321934FF080532293A2
:1005C00002A803F0F5FAD8B903F0AEFA114BA3FB79
:1005D0000030800901F0C2F8042001F0D5F80022B3
:1005E0000F214FF0FF3001F07BF835B05DF804FBD0
:1005F000BF210948FFF795FFCD210748FFF791FF7D
:10060000DA210548FFF78DFF0038024000700040F6
:100610002088A000D34D62103C55000808B504F0B6
:100620004BF8FFF77FFF00F021F800F0B5FA00F07B
:10063000FBF800F031F900F067F900F035FA00F04E
:100640000BFB00F067FB00F091FB00F0E9FB00F012
:1006500011FC00F0A5FC00F04DFD00F09FFD00F046
:10066000E5FD00F0D5FA04F0CBFEFEE72DE9F047FA
:100670008CB0674B1A6B42F010021A631A6B02F0CF
:1006800010020192019A1A6B42F004021A631A6B6B
:1006900002F004020292029A1A6B42F080021A637C
:1006A0001A6B02F080020392039A1A6B42F0010265
:1006B0001A631A6B02F001020492049A1A6B42F058
:1006C00002021A631A6B02F002020592059A1A6B73
:1006D00042F008021A631B6B03F008030693069BA3
:1006E0004C4F00224FF67C51384603F027FEDFF8CE
:1006F0002CA1002242F20E01504603F01FFE464D8F
:10070000002248F2C111284603F018FEDFF81081DC
:1007100000224FF4E271404603F010FEDFF804912E
:1007200000224FF44541484603F008FE4FF67C5343
:10073000079301260896002409940A9407A93846CD
:1007400003F00CFD42F20E030793089609940A94F5
:1007500007A9504603F002FD48F2C113079308961B
:1007600009940A9407A9284603F0F8FC4FF0020AFE
:10077000CDF81CA00894099407A9284603F0EEFCC4
:100780004FF4E2730793089609940A9407A9404628
:1007900003F0E4FC4FF445430793089609940A9448
:1007A00007A9484603F0DAFC42F6FB2307930894B6
:1007B000099407A9484603F0D1FC4FF40079CDF81D
:1007C0001C900894099407A9284603F0C7FC4FF42D
:1007D000E0530793CDF820A0099403260A960A2334
:1007E0000B9307A9284603F0B9FCCDF81C90089498
:1007F000099407A9404603F0B1FC079608940994B0
:1008000007A9384603F0AAFC0CB0BDE8F08700BF8A
:100810000038024000100240000002400008024080
:1008200000040240000C024000B585B01648174B8A
:1008300003604FF48033436000238360036183616E
:100840000362C362124A8262C3600122C26103630F
:10085000426100F033FE68B90A230093012301933B
:10086000002302936946084800F052FE38B905B0EB
:100870005DF804FB56210748FFF753FEECE76021C3
:100880000448FFF74EFEF2E7BC3D00200020014087
:100890000100000F4855000800B585B01648174BF9
:1008A00003604FF4803343600023836003618361FE
:1008B0000362C362124A8262C3600122C26103639F
:1008C000426100F0FBFD68B90F23009301230193FF
:1008D000002302936946084800F01AFE38B905B0B3
:1008E0005DF804FB79210748FFF71BFEECE7832145
:1008F0000448FFF716FEF2E7743D00200021014096
:100900000100000F4855000800B585B01648174B88
:1009100003604FF48033436000238360036183618D
:100920000362C362124A8262C3600122C26103632E
:10093000426100F0C3FD68B90A23009301230193CB
:10094000002302936946084800F0E2FD38B905B07B
:100950005DF804FB9C210748FFF7E3FDECE7A621C7
:100960000448FFF7DEFDF2E7043E002000220140CC
:100970000100000F4855000870B588B00368404A70
:10098000934207D03F4A934240D03F4A93425AD0C5
:1009900008B070BD04463D4B5A6C42F480725A64F4
:1009A0005B6C03F480730093009B11230393032675
:1009B00004960025059503A9354803F0CFFB03965F
:1009C0000496059503A9334803F0C8FB3248334B1E
:1009D000036045608560C5604FF4806303614FF438
:1009E000805343614FF480438361C5614FF44033CA
:1009F0000362456203F00CFD18B9274BA3639C63A7
:100A0000C6E7D5212648FFF78CFDF6E71F4B5A6C49
:100A100042F400725A645B6C03F400730193019B0F
:100A200008230393032504950024059403A91D4876
:100A300003F094FB202303930495059403A9144821
:100A400003F08CFBA4E7114B5A6C42F480625A64A9
:100A50005B6C03F480630293029B012303930325E1
:100A600004950024059403A9094803F077FB0423A7
:100A700003930495059403A90A4803F06FFB87E7E5
:100A800000200140002101400022014000380240C6
:100A900000080240000402404C3E00201064024066
:100AA000485500080000024000B583B01248134BBF
:100AB000036000F079FE80B900220092019269463D
:100AC0000D4800F083FE68B9102269460A4800F01C
:100AD0007DFE60B903B05DF804FB49210848FFF7CB
:100AE00020FDE9E752210648FFF71BFDECE75921FD
:100AF0000348FFF716FDEDE70C3F002000740040AF
:100B00005455000802681F4B9A4200D0704730B518
:100B100087B0044603F5E2331A6C42F000521A64BF
:100B20001B6C03F000530093009B302301930323BD
:100B300002930025039501A9134803F00FFB134806
:100B4000134B03604FF06063436040238360C560D4
:100B50004FF4806303614FF4805343614FF480434B
:100B60008361C5610562456203F052FC20B9074B01
:100B7000A3609C6307B030BD81210648FFF7D1FC1C
:100B8000F5E700BF0074004000000240AC3E0020CA
:100B9000886002405455000800B583B0164B1A6BAC
:100BA00042F480021A631A6B02F480020092009AE7
:100BB0001A6B42F400121A631B6B03F400130193C7
:100BC000019B00220521102000F08AFD102000F07A
:100BD000B9FD00220521382000F082FD382000F008
:100BE000B1FD002205213B2000F07AFD3B2000F002
:100BF000A9FD03B05DF804FB0038024008B50120F0
:100C000004F01DFCFBE708B5012004F018FCFBE72D
:100C100070B58AB00D4C05AD26460FCE0FC53368B2
:100C20002B60002105A804F0F0FB094B18606D460D
:100C300014340FCC0FC523682B600021684604F0E4
:100C4000E4FB044B18600AB070BD00BF14550008E7
:100C5000203F0020243F002008B51648164B0360B3
:100C600040F614634360002383600122C260036185
:100C700043618361C361036200F0CEFD50B900217E
:100C80000C4800F027FE50B900210A4800F050FE41
:100C900050B908BD4C210948FFF743FCEFE7532149
:100CA0000648FFF73EFCEFE75A210448FFF739FCFE
:100CB000EFE700BF283F0020005800407C550008A7
:100CC0000268114B9A4200D0704700B587B04FF4CC
:100CD000406301931223029301230393032304939C
:100CE000042305930DEB0301084803F037FA084B82
:100CF0001A6C42F480021A641B6C03F480030093A4
:100D0000009B07B05DF804FB00580040000402405F
:100D10000038024008B50A480A4B036000234360CC
:100D20007F228260FF22C26003614361836100F021
:100D300049FE00B908BD4A210348FFF7F2FBF9E775
:100D4000743F002000280040885500080268054BC9
:100D50009A4200D07047044A136F43F4004313676C
:100D6000F8E700BF002800400038024008B50F48EF
:100D70000F4B0360002343608360C36003614361E2
:100D8000836101F07BFA30B94FF40061074801F04C
:100D90008FFA28B908BD4B210648FFF7C2FBF3E7DD
:100DA00050210448FFF7BDFBF4E700BF943F00204B
:100DB000002C0140945500080268164B9A4200D05E
:100DC0007047F0B587B003F586335A6C42F4006281
:100DD0005A645B6C03F400630093009B4FF4F85378
:100DE00001930227029700260396032504950C24FD
:100DF000059401A9084803F0B1F90423019302976F
:100E00000396049505940DEB0301044803F0A6F93D
:100E100007B0F0BD002C014000080240000C024069
:100E200008B51148114B03604FF4827343600023EF
:100E300083604FF4E062C2600222026101224261DB
:100E40004FF400728261C3610362436283620722CE
:100E5000C2620363436301F0E5FA00B908BD54219F
:100E60000348FFF75EFBF9E77840002000300140BF
:100E7000A055000808B51148114B03604FF4827368
:100E80004360002383604FF44072C260036143619A
:100E90004FF480228261C36103624362836207224E
:100EA000C26203630823436301F0BCFA00B908BDC2
:100EB0006C210448FFF735FBF9E700BF1440002020
:100EC00000380040A055000830B589B003682D4AAD
:100ED000934204D02C4A934239D009B030BD044625
:100EE0002A4B5A6C42F480525A645B6C03F4805370
:100EF0000193019B38230393022304930025059556
:100F0000032306930523079303A9214803F026F939
:100F10002048214B03604FF0C0634360402383604F
:100F2000C5604FF48063036145618561C5614FF41D
:100F300000330362456203F06BFA18B9154B636521
:100F40009C63CAE797211548FFF7EBFAF6E70F4BCA
:100F50001A6C42F480421A641B6C03F480430293BF
:100F6000029B4FF4704303930223049300230593E1
:100F7000032306930523079303A9054803F0EEF81E
:100F8000ABE700BF003001400038004000380240AD
:100F900000040240DC40002058640240A0550008D4
:100FA00000B58DB02648274B036000234360836063
:100FB000C36003614361836101F072FC38BB204868
:100FC00001F0A0FC40BB0723079370230893002384
:100FD00009930A930B9307A9194801F0ADFE00BBD2
:100FE000002304930593069304A9154801F048FFD4
:100FF000E0B9002200920123019302920392694614
:101000000F4801F0A3FDB0B90DB05DF804FB4E210F
:101010000D48FFF786FAD2E753210B48FFF781FA14
:10102000D1E75D210848FFF77CFAD9E7652106483A
:10103000FFF777FADDE76E210348FFF772FAE3E77F
:101040007C41002000000140AC55000800B589B08B
:101050000368164A934205D0154A93421BD009B043
:101060005DF804FB134B5A6C42F001025A645B6C4E
:1010700003F001030193019B4FF4207303930223B8
:1010800004930023059306930123079303A90A48B9
:1010900003F064F8E3E7074B1A6C42F004021A64A9
:1010A0001B6C03F004030293029BD8E7000001408D
:1010B00000080040003802400010024002680B4B5C
:1010C0009A4200D0704700B587B04FF48053019327
:1010D00002230293002203920492059301A904487B
:1010E00003F03CF807B05DF804FB00BF00080040C7
:1010F000000C024000B58FB02548264B036000234A
:1011000043608360C3600361836101F0C9FB28BB56
:101110000EA94FF4805341F8103D1D4801F082FDA7
:1011200008BB1B4801F0D5FB10BB002307930993B4
:1011300007A9174801F0A4FEF8B960230093002224
:101140000192029204926946114801F0C7FEC8B9A3
:101150000F48FFF7B3FF0FB05DF804FB81210E4885
:10116000FFF7DFF9D4E787210B48FFF7DAF9D8E773
:101170008C210948FFF7D5F9D7E793210648FFF7F7
:10118000D0F9DAE79C210448FFF7CBF9E0E700BF8C
:101190003C41002000080040AC55000808B50C4850
:1011A0000C4B03604FF4E133436000238360C36062
:1011B00003610C2242618361C3610362436202F0F6
:1011C00090F900B908BD4E210348FFF7AAF9F9E7E5
:1011D000BC41002000140140B85500080268114BC2
:1011E0009A4200D0704700B587B003F592335A6C2D
:1011F00042F020025A645B6C03F020030093009BD2
:10120000C023019302230293002303930323049337
:101210000823059301A9044802F0A0FF07B05DF878
:1012200004FB00BF001401400008024070477047F3
:10123000FEE7FEE7FEE7FEE7704708B504F008F9B1
:1012400008BD000008B5024803F048F908BD00BF1A
:10125000AC3E002008B5024801F0CFF908BD00BF40
:101260002C42002008B5024803F038F908BD00BF41
:101270004C3E002008B5024803F030F908BD00BF1D
:10128000DC40002000B583B0214B1A6C42F0805244
:101290001A641A6C02F080520092009A5A6C42F45E
:1012A00080425A645B6C03F480430193019B0320EA
:1012B00000F004FA002211466FF00B0000F010FA63
:1012C000002211466FF00A0000F00AFA00221146CF
:1012D0006FF0090000F004FA002211466FF00400DC
:1012E00000F0FEF9002211466FF0030000F0F8F95B
:1012F00000220F216FF0010000F0F2F900220F210F
:101300004FF0FF3000F0ECF903B05DF804FB00BFD4
:101310000038024000B589B0002201461C2000F0D0
:10132000DFF91C2000F00EFA154B1A6C42F0010296
:101330001A641B6C03F001030193019B02A903A82B
:1013400002F018FC02F0F6FB43000E48A0FB03235A
:101350009B0C013B0C484FF08042026040F2E732A8
:10136000C260436000230361836001F099FA18B101
:10137000012009B05DF804FB034801F02CF9F8E7FF
:101380000038024083DE1B432C420020494B5A6840
:1013900022F440325A605A6841680A435A6002682F
:1013A000536823F48073536002685368016943EA09
:1013B000012353600268536823F04073536002684E
:1013C000536881680B4353600268936823F4006399
:1013D000936002689368C1680B439360826A364BDE
:1013E0009A4249D00268936823F070639360026860
:1013F0009368816A0B4393600268936823F04053BB
:10140000936002689368C16A0B43936002689368B3
:1014100023F00203936002689368816943EA410301
:101420009360036A002B32D10268536823F400638F
:1014300053600268D36A23F47003D3620168CB6AF5
:10144000C269013A43EA0253CB620268936823F40B
:101450000073936002689368016B43EA41239360D1
:101460000268936823F4806393600268936841691B
:1014700043EA8123936070470268936823F07063A6
:1014800093600268936823F040539360BEE702685C
:10149000536843F4006353600268536823F4604365
:1014A000536001684B68426A013A43EA42334B6039
:1014B000BFE700BF002301400100000F20B310B5BB
:1014C0000446036C43B1236C13F0100F0AD00120C3
:1014D000002384F83C3010BD436480F83C30FFF7B3
:1014E0004BFAF0E7226C094B134043F002032364EC
:1014F0002046FFF74BFF00206064236C23F00303BA
:1015000043F001032364E3E701207047FDEEFFFF92
:1015100030B482B00023019390F83C30012B00F0EE
:10152000C080012380F83C300B68092B22D9056864
:10153000EA689BB203EB43031E3B072404FA03F360
:1015400022EA0303EB600B68574A93420BD005680D
:10155000EA688C689BB203EB43031E3B04FA03F377
:101560001343EB601BE00268D3688C6843EA0463B2
:10157000D36014E005682A699BB203EB4303072498
:1015800004FA03F322EA03032B6105682A698C68D5
:101590000B8803EB430304FA03F313432B614B68FB
:1015A000062B24D805686A6B03EB8303053B1F24D5
:1015B00004FA03F322EA03036B6305686A6B4B6862
:1015C00003EB8303053B0C8804FA03F313436B63BB
:1015D0000268364B9A423AD00268344B9A423FD066
:1015E000002380F83C30184602B030BC70470C2B0A
:1015F00016D805682A6B03EB8303233B1F2404FAE8
:1016000003F322EA03032B6305682A6B4B6803EBA1
:101610008303233B0C8804FA03F313432B63D7E7BC
:101620000568EA6A03EB8303413B1F2404FA03F3D2
:1016300022EA0303EB620568EA6A4B6803EB830363
:10164000413B0C8804FA03F31343EB62C0E70B68D9
:10165000122BC1D1164A536843F480035360BBE791
:101660000B68114A112B18BF9342B9D1104A536825
:1016700043F4000353600A680B4B9A42B0D10D4B00
:101680001B680D4AA2FB03239B0C03EB83035A0048
:10169000019202E0019B013B0193019B002BF9D1D8
:1016A0009EE70220A0E700BF1200001000200140CA
:1016B000002301400400002083DE1B430649CB6861
:1016C00023F4E0631B041B0C000200F4E0600343FE
:1016D000024A1A43CA60704700ED00E00000FA05B4
:1016E00030B4154BDB68C3F30223C3F10704042CA9
:1016F00028BF04241D1D062D14D9033B4FF0FF35D0
:1017000005FA04F421EA0401994005FA03F322EAF8
:1017100003031943002807DB0901C9B2074B195419
:1017200030BC70470023E9E700F00F000901C9B29F
:10173000034B1954F4E700BF00ED00E000E400E0C3
:1017400014ED00E000F01F02400901239340024A1B
:1017500042F82030704700BF00E100E00138B0F1EE
:10176000807F0AD2064B5860064AF02182F8231087
:101770000020986007221A6070470120704700BF60
:1017800010E000E000ED00E0042805D0054A1368F1
:1017900023F0040313607047024A136843F0040304
:1017A0001360704710E000E070B110B50446037993
:1017B00033B102232371002020610123237110BD66
:1017C0004371FFF79FF9F4E7012070474379012B3C
:1017D0001FD070B401254571022303710668336878
:1017E00040F6FE74944023EA04040B6849680B43F6
:1017F00093402343336004682368C02101FA02F256
:1018000023EA02022260057100234371184670BC6E
:101810007047022070470000002857D010B50446DA
:1018200090F84130002B41D0242384F841302268C5
:10183000136823F0010313606368226823F0706368
:1018400013612268936823F400439360E368012BDB
:1018500031D0A368226843F404439360E368022B09
:101860002FD0226851681A4B0B4353602268D3680B
:1018700023F40043D360236962691343A16922689A
:1018800043EA0123D360E369216A22680B431360B2
:101890002268136843F00103136000206064202372
:1018A00084F84130206384F8420010BD80F8403055
:1018B000FFF706FAB8E7A368226843F40043936091
:1018C000CCE723684FF400625A60CAE701207047F2
:1018D0000080000290F84130DBB2202B24D190F838
:1018E0004030012B22D0012380F84030242380F89F
:1018F00041300268136823F0010313600268136823
:1019000023F480531360026813681943116002685E
:10191000136843F001031360202380F84130002353
:1019200080F8403018467047022070470220704708
:1019300090F84130DBB2202B22D190F84030012BBF
:1019400020D0012380F84030242380F84130026801
:10195000136823F0010313600268136823F47063B3
:1019600043EA012111600268136843F00103136028
:10197000202380F84130002380F84030184670471B
:10198000022070470220704738B50368DA6812F009
:10199000400F01D0002038BD04464FF0FF32DA601E
:1019A00002F0A2FE05462368DB6813F0400F07D162
:1019B00002F09AFE401BB0F57A7FF4D90320EAE7E3
:1019C0000020E8E700284AD038B50446437F002BC2
:1019D0003AD0022363772368CA225A6223685322CB
:1019E0005A622046FFF7D0FF0246002830D1216816
:1019F00088681C4B03408B60206881686368256998
:101A00002B4365692B430B4383602368E1681961AD
:101A100021680B69A06843EA00430B612168CB6829
:101A200023F08003CB602168CB6C23F00803CB64E8
:101A30002168CB6CA0690343CB642368FF21596202
:101A400001236377104638BD0377FFF77FF9C0E7BE
:101A50002368FF225A62042363770122F2E70122FE
:101A600010467047BFFF8FFF0C4B1B680C4AA2FB50
:101A700003235A0A41F2883303FB02F35A1E4BB187
:101A8000416B134611F0800FF8D040F2FF5383638F
:101A9000002070474FF00040704700BF0400002056
:101AA000D34D6210144B1B68144AA2FB03235A0A3D
:101AB00041F2883303FB02F35A1ECBB1416B13464C
:101AC00011F0450FF8D0436B13F0040F08D1436BAE
:101AD00013F0010F08D140F2FF53836300207047D9
:101AE00004238363184670470123836318467047B5
:101AF0004FF00040704700BF04000020D34D62103B
:101B0000104B1B68104AA2FB03235A0A41F2883388
:101B100003FB02F35A1E8BB1416B134611F0450FC4
:101B2000F8D0436B13F0040F04D140F2FF538363EA
:101B30000020704704238363184670474FF000402D
:101B4000704700BF04000020D34D621084B010B471
:101B500002AC84E80E000B46039A1343049A134325
:101B6000059A1343069A1343079A13434168044A9C
:101B70000A401343436000205DF8044B04B07047F3
:101B80000081FFFF0323036000207047006800F01E
:101B9000030070470B6883604B688A681343CA6808
:101BA00013430A691343C168024A0A401343C360DE
:101BB0000020704700F0FFFF0069C0B2704782B09C
:101BC00000230193143001440191019B186802B075
:101BD0007047000038B5514B1B68514CA4FB0343C0
:101BE0005B0A02FB03F2531E002A5ED0446B1A46C6
:101BF00014F0450FF7D0436B13F0040F07D1436B7C
:101C000013F0010F07D00123836318464FE004232C
:101C1000836318464BE00D460446FFF7CDFFA8420C
:101C200001D0012043E040F2FF53A363002120468E
:101C3000FFF7C5FF3B4B0340D3B300283ADB10F05E
:101C4000804F3AD110F0005F39D110F0805F38D169
:101C500010F0006F38D110F0806F38D110F0807F15
:101C600038D110F4000F38D110F4800F38D110F4AF
:101C7000001F38D110F4801F38D110F4802F38D1D4
:101C800010F4003F38D110F4803F38D110F4004FE9
:101C900038D110F4804F38D110F4005F38D110F0F3
:101CA000080F38D04FF4000001E04FF0004038BD7D
:101CB0000020FCE74FF00070F9E74020F7E78020B4
:101CC000F5E74FF48070F2E74FF40070EFE74FF460
:101CD0008060ECE74FF40060E9E74FF48050E6E7FE
:101CE0004FF40050E3E74FF48040E0E74FF400404A
:101CF000DDE74FF40030DAE74FF48020D7E74FF408
:101D00000020D4E74FF48010D1E74FF40010CEE765
:101D10004FF48000CBE74FF48030C8E70400002088
:101D2000D34D621008E0FFFD70B5254B1B68254CB4
:101D3000A4FB03435C0A41F2883303FB04F35C1EFB
:101D4000A3B3456B234615F0450FF8D0436B13F052
:101D5000040F07D1436B13F0010F07D001238363F6
:101D6000184625E004238363184621E016460D46F5
:101D70000446FFF721FFA84201D0012018E040F2FD
:101D8000FF53A36300212046FFF719FF10F4604FB3
:101D900008D010F4804F0CD110F4004F0CD04FF449
:101DA000805005E0000C3080002001E04FF0004042
:101DB00070BD4FF40050FBE74FF48030F8E700BFF0
:101DC00004000020D34D621030B587B00546019263
:101DD0000724029440230393002304934FF4806369
:101DE000059301A9FFF7D6FE41F288322146284625
:101DF000FFF7F0FE07B030BD10B586B004460023F3
:101E000001930293039304934FF48063059301A914
:101E1000FFF7C0FE2046FFF727FE06B010BD10B545
:101E200086B004460023019302220292C02203924C
:101E300004934FF48063059301A9FFF7ABFE20469E
:101E4000FFF730FE06B010BD10B586B00446019114
:101E500009230293C0230393002304934FF4806368
:101E6000059301A9FFF796FE2046FFF71BFE06B07B
:101E700010BD70B586B005460E46002301930324BD
:101E800002944022039204934FF48063059301A9C6
:101E9000FFF780FE324621462846FFF745FF06B091
:101EA00070BD30B587B0054601910D2402944023E2
:101EB0000393002304934FF48063059301A9FFF774
:101EC00069FE41F2883221462846FFF783FE07B0BB
:101ED00030BD10B586B00446019101230293402322
:101EE0000393002304934FF48063059301A9FFF744
:101EF00051FE2046FFF704FE06B010BD30B587B096
:101F00000546019106240294402303930023049381
:101F10004FF48063059301A9FFF73CFE41F288323C
:101F200021462846FFF756FE07B030BD30B583B0D6
:101F30000446002301930068FFF75EFF054600BBDF
:101F4000034690B9019B5A1C01924FF6FF729342CF
:101F500015D00F492068FFF7BCFFA8B90021206801
:101F6000FFF72DFE0346C00FEBE70A4A32EA0303F0
:101F700002D00123636404E00023636401E04FF0B6
:101F80008075284603B030BD4FF08055F9E700BF9B
:101F90000080FFC00080FF80F0B40346026E900F07
:101FA0000870C2F383604870C2F301628A7093F8CC
:101FB0006220CA7093F861200A7193F860204A7118
:101FC00093F867201201CA80B3F86620CC88C2F368
:101FD00003102043C88002F00F020A7293F86520B4
:101FE000D0094872C2F380108872C2F34010C872E0
:101FF000C2F30010087300204873920202F440629A
:102000000A615A6E0C69920002F47F7222430A61DF
:102010009A6E0C6944EA92740C61C2F3C2640C7546
:10202000C2F302624A759C6EC4F30742C4F3425580
:102030008D75C4F38244CC75520002F006020A7614
:102040009F6EC7F307260A7EC7F3C03422430A7681
:102050000A6901321A650C7E023402FA04F41C6526
:102060000A7AD2B2012505FA02F25A65520A02FB37
:1020700004F29A654FF40072DA65C7F380374F7641
:1020800006FA05F202F07E028A769A6E8C7EC2F320
:10209000C01634438C7602F07F02CA76DA6E140ED4
:1020A000D60F0E77C2F341764E77C2F382628A77FB
:1020B000A20002F00C02CA77DA6ECC7FC2F381561E
:1020C0003443CC77C2F3405481F8204081F821009A
:1020D000C2F3004281F82220DA6EC2F3C03481F8E4
:1020E0002340C2F3803481F82440C2F3403481F8A5
:1020F0002540C2F3003481F82640C2F3812481F8E0
:102100002740C2F3012281F82820DB6EC3F3460387
:1021100081F8293081F82A50F0BC704770B590B032
:1021200004460123ADF812300068FFF72FFD0028A8
:102130005FD02068FFF773FE054600285BD10021C1
:102140002068FFF73CFD206704212068FFF737FD7A
:10215000606708212068FFF732FDA0670C21206826
:10216000FFF72DFDE0670DF112012068FFF781FEFA
:10217000054600283FD1BDF81210E164090420682B
:10218000FFF762FE0546002835D100212068FFF7E1
:1021900016FD206604212068FFF711FD6066082106
:1021A0002068FFF70CFDA0660C212068FFF707FDF3
:1021B000E06604212068FFF702FD000DA06405A978
:1021C0002046FFF7E9FEE26C120400232068FFF7C7
:1021D000FBFD054678B9234653F8106B93E80700DA
:1021E0008DE80700043494E80E003046FFF7AEFC9B
:1021F00001E04FF08065284610B070BD10B58AB080
:1022000004460023049305930693079308937623CB
:1022100009930AAB13E907008DE8070004AB0ECB66
:102220002068FFF793FC2268536823F4807353609F
:102230002068FFF7A7FC2268536843F4807353605B
:10224000022002F057FA2046FFF770FE40B1024626
:10225000012084F83400A36B1343A3630AB010BDBC
:102260002046FFF75BFF024630B1012084F83400BE
:10227000A36B1343A363F1E70020EFE7A8B110B508
:10228000044690F8343063B1032384F83430204698
:10229000FFF7B4FF0020A0632063012384F83430EB
:1022A00010BD0377FEF788FDEEE7012070470000C0
:1022B00030B58DB004460D4600230B93032280F801
:1022C00034200593069307930891099376230A9384
:1022D00008AB93E807008DE8070005AB0ECB20683C
:1022E000FFF734FCB5F5805F0AD0B5F5006F11D06B
:1022F000D5B1A36B43F00063A363002318462FE01E
:1023000045492068FFF7FAFD0028F6D0A36B034388
:10231000A363F2E741492068FFF7F0FD0028ECD005
:10232000A36B0343A363E8E73D492068FFF7E6FD9D
:102330000028E2D0A36B0343A363DEE7012084F807
:102340003400A36B43F08063A3630DB030BD002164
:102350002068FFF734FCC30913F1FF3318BF0123D2
:1023600093B90B9B5A1C0B924FF6FF729342E5D028
:10237000E16C09042068FFF794FD03460028E6D0CD
:10238000A06B1843A063E2E74FF0FF330B930BE021
:10239000012084F83400A36B43F08063A363D4E787
:1023A00000212068FFF70BFC10F4807F10D10B9BFD
:1023B0005A1E0B92002BEBD0E16C09042068FFF74A
:1023C00070FD03460028EBD0A06B1843A063E7E73D
:1023D000A36B3BB1236840F2FF529A63012084F85B
:1023E0003400B2E763680593A3680693E368079334
:1023F000089563690993A3690A9308AB93E80700FA
:102400008DE8070005AB0ECB2068FFF79FFB01238B
:1024100084F83430002098E70002B7030001B703C6
:102420000000B703002858D010B50446002383628B
:1024300090F85D30002B45D0022384F85D3022688F
:10244000136823F040031360E368B3F5E06F3ED9EF
:102450000022B3F5706F18BFB3F5E06F01D0002113
:10246000A162216B21B9B3F5E06F33D90223236355
:102470006368A1680B4321690B4361690B43A16940
:1024800001F400710B43E1690B43216A0B43A06A1D
:10249000216803430B60638B03F00403616A0B4301
:1024A000616B0B43E1680B43216813434B60226867
:1024B000D36923F40063D36100202066012384F8EC
:1024C0005D3010BD80F85C30FEF7FEFCB4E74FF4E1
:1024D0008052BEE701232363CAE70120704710B48E
:1024E000036A046A24F001040462846924F0F0049D
:1024F00044EA021223F00A030B43826103625DF88F
:10250000044B704730B4046A24F0100404628469F8
:10251000056A24F4407444EA022222F470421B0348
:102520009BB21A4325F0A005090101F0A00129433F
:102530008261016230BC704710B4036A23F010035B
:1025400003628469036A24F4704444EA023223F08B
:10255000A00343EA0113826103625DF8044B7047F4
:1025600030B4046A24F480740462C469056A24F0F7
:102570000304224322F0F0021B01DBB21A4325F4CC
:102580002065090201F420612943C261016230BC67
:10259000704730B4046A24F480540462C469056A44
:1025A00024F4407444EA022222F470421B039BB2DA
:1025B0001A4325F42045090301F420412943C2614F
:1025C000016230BC7047836823F0700341F007015B
:1025D0001943816070470268D36843F00103D360F8
:1025E0000268136843F001031360002070477047CE
:1025F0007047704770477047704710B504460368CE
:102600001A6912F0020F11D0DA6812F0020F0DD021
:102610006FF002021A610123037703689B6913F0CC
:10262000030F79D0FFF7E6FF0023237723681A69A9
:1026300012F0040F12D0DA6812F0040F0ED06FF00F
:1026400004021A610223237723689B6913F4407FF5
:1026500068D02046FFF7CEFF0023237723681A694E
:1026600012F0080F12D0DA6812F0080F0ED06FF0D7
:1026700008021A61042323772368DB6913F0030F30
:1026800057D02046FFF7B6FF0023237723681A6947
:1026900012F0100F12D0DA6812F0100F0ED06FF097
:1026A00010021A61082323772368DB6913F4407F43
:1026B00046D02046FFF79EFF0023237723681A6940
:1026C00012F0010F03D0DA6812F0010F3FD1236836
:1026D0001A6912F0800F03D0DA6812F0800F3DD132
:1026E00023681A6912F4807F03D0DA6812F0800F31
:1026F0003BD123681A6912F0400F03D0DA6812F058
:10270000400F39D123681A6912F0200F03D0DA681C
:1027100012F0200F37D110BDFFF76BFF2046FFF7F7
:102720006AFF81E72046FFF764FF2046FFF763FF5B
:1027300092E72046FFF75DFF2046FFF75CFFA3E727
:102740002046FFF756FF2046FFF755FFB4E76FF02E
:1027500001021A612046FDF7DBFEB8E76FF0800248
:102760001A61204600F0B9FBBAE76FF080021A61E7
:10277000204600F0B2FBBCE76FF040021A61204631
:10278000FFF73AFFBEE76FF020021A61204600F023
:10279000A3FBC0E770B403683A4CA04214BF002406
:1027A0000124B0F1804F14BF224644F00102AAB9BF
:1027B000354DA84214BF00250125344EB0420DD03E
:1027C00065B905F1804505F58235A84214BF00259D
:1027D000012506F50066B04200D01DB123F070035C
:1027E0004D682B43002A33D1274A904214BF002260
:1027F0000122264DA8422BD052BB02F1804202F5A5
:102800008232904214BF0022012205F50065A842E1
:102810001ED0EAB91E4A904214BF0022012205F5DB
:102820009A35A84214D09AB91A4A904214BF00228D
:10283000012205F50065A8420AD04AB9164A90421D
:1028400014BF00220122A5F59635A84200D01AB186
:1028500023F44073CA68134323F080034A69134387
:1028600003608A68C2620A6882620C4B984214BF95
:10287000234644F001030BB10B6903630123436159
:1028800070BC704700000140000800400004004098
:1028900000440140001800400020004000040140B6
:1028A000A8B110B5044690F83D305BB1022384F81E
:1028B0003D30211D2068FFF76DFF012384F83D3076
:1028C000002010BD80F83C30FEF7C0FBEEE7012091
:1028D0007047A8B110B5044690F83D305BB10223B3
:1028E00084F83D30211D2068FFF754FF012384F850
:1028F0003D30002010BD80F83C30FFF778FEEEE759
:1029000001207047A8B110B5044690F83D305BB186
:10291000022384F83D30211D2068FFF73BFF01238F
:1029200084F83D30002010BD80F83C30FFF760FE99
:10293000EEE701207047000070B4036A23F0010342
:102940000362036A42688569104C2C400D682C4371
:1029500023F002058B682B430D4E0E4DA84218BF85
:10296000B0420BD123F00803CD682B4323F00403BE
:1029700022F440724D6915438A692A43426084619A
:102980004A684263036270BC704700BF8CFFFEFF61
:10299000000001400004014070B4036A23F01003FA
:1029A0000362036A44688569124A2A400D6842EA54
:1029B000052223F020038D6843EA05130E4E0F4DC8
:1029C000A84218BFB0420ED123F08003CD6843EA7D
:1029D000051323F0400324F440644D6944EA850460
:1029E0008D6944EA8504446082614A6882630362B7
:1029F00070BC7047FF8CFFFE0000014000040140E6
:102A000070B4036A23F480730362036A4268C56981
:102A1000124C2C400D682C4323F400738D6843EA5C
:102A200005230F4E0F4DA84218BFB0420ED123F41C
:102A30000063CD6843EA052323F4806322F4405207
:102A40004D6942EA05128D6942EA05124260C4618D
:102A50004A68C263036270BC704700BF8CFFFEFF10
:102A6000000001400004014070B4036A23F4805365
:102A70000362036A4468C5690D4A2A400D6842EA48
:102A8000052223F400538D6843EA0533094E0A4DAD
:102A9000A84218BFB04204D124F480444D6944EAEE
:102AA00085144460C2614A680264036270BC704766
:102AB000FF8CFFFE0000014000040140F0B4046AF6
:102AC00024F0010404628469056A1D4EB0F1804F50
:102AD00018BFB04223D0A6F57846B04214BF0026F6
:102AE0000126184FB8421AD0CEB906F1804606F535
:102AF0008236B04214BF0026012607F50067B842AF
:102B00000DD066B9104EB04214BF0026012607F55D
:102B10009A37B84203D016B944F0010202E024F01B
:102B20000304224322F0F0021B01DBB2134325F021
:102B30000A0201F00A01114383610162F0BC70478F
:102B400000000140000400400018004038B590F833
:102B50003C30012B58D00D460446012380F83C3010
:102B6000022380F83D30DAB1042A2AD0082A3AD06C
:102B7000CB684A6809680068FFF70BFD2268D369D3
:102B800023F44063D3612268D369A96843EA01232F
:102B9000D361012384F83D30002084F83C0038BD27
:102BA000CB684A6809680068FFF788FF2268936964
:102BB00023F00C03936122689369A9680B43936126
:102BC000E7E7CB684A6809680068FFF79BFC226862
:102BD000936923F44063936122689369A96843EA87
:102BE00001239361D5E7CB684A6809680068FFF75D
:102BF000B7FC2268D36923F00C03D3612268D36940
:102C0000A9680B43D361C4E70220C8E710B4846805
:102C100024F47F4442EA03230B43234383605DF89B
:102C2000044B704790F83C30012B7DD010B5044622
:102C3000012380F83C30022380F83D300268906820
:102C40003A4B034093600B68402B59D010D9702B3E
:102C50003ED01FD8502B49D0602B32D1CA6849686A
:102C60002068FFF769FC60212068FFF7ACFC28E0D2
:102C7000102B4FD008D9202B51D0302B21D130210F
:102C80002068FFF7A0FC1CE0DBB900212068FFF7FB
:102C90009AFC16E0B3F5805F0ED0B3F5005F10D15B
:102CA000CB684A6889682068FFF7B0FF226893689C
:102CB00043F48043936004E0226891681C4B0B400E
:102CC0009360012384F83D30002084F83C0010BD5F
:102CD000CB684A6889682068FFF798FF2268916886
:102CE000144B0B4043F077039360EAE7CA684968E6
:102CF0002068FFF7F4FB50212068FFF764FCE0E751
:102D0000CA6849682068FFF7EAFB40212068FFF79E
:102D10005AFCD6E710212068FFF755FCD1E72021A7
:102D20002068FFF750FCCCE7022070478800FEFFC8
:102D3000F8FFFEFF88FFFEFF90F83C30012B46D0E5
:102D400010B50446012380F83C30022380F83D3062
:102D50000068826822F070024B6813431D4A1A40D3
:102D60000B68134383604B68502B24D010D9602B21
:102D700027D0702B05D10B698A68C9682068FFF7D6
:102D800045FF012384F83D30002084F83C0010BD4D
:102D9000402BF6D12368186A1A6A22F001021A62DF
:102DA0002268936923F0F003096943EA01139361F0
:102DB00023681862E5E70A6989682068FFF78FFBD6
:102DC000DFE70A6989682068FFF7B6FBD9E70220C8
:102DD000704700BFF8FFFEFF70B4036A23F480332E
:102DE0000362036A4268446D0D4D25400C682C4314
:102DF00023F400338D6843EA05430A4E0A4DA84286
:102E000018BFB04204D122F480324D6942EA052253
:102E1000426044654A688265036270BC704700BFC7
:102E20008FFFFEFF000001400004014070B4036A00
:102E300023F480130362036A4468456D0D4A2A40F7
:102E40000D6842EA052223F400138D6843EA055316
:102E5000094E0A4DA84218BFB04204D124F4802480
:102E60004D6944EA8524446042654A68C26503624C
:102E700070BC7047FF8FFFFE00000140000401405E
:102E800090F83C30012B21D070B4012380F83C3005
:102E900003685A689D680E4E0E4CA34218BFB34299
:102EA00003D122F470024C68224322F070020C68B5
:102EB000224325F08004896821435A6003689960A1
:102EC000002380F83C30184670BC704702207047E1
:102ED00000000140000401407047704738B590F889
:102EE0003C30012B00F092800D460446012380F80F
:102EF0003C30022380F83D30142A1ED8DFE802F06F
:102F00000B1D1D1D241D1D1D381D1D1D4B1D1D1DB3
:102F10005F1D1D1D72000068FFF70EFD226893699A
:102F200043F0080393612268936923F004039361DB
:102F30002268936929690B439361012384F83D302A
:102F4000002084F83C0038BD0068FFF725FD2268AA
:102F5000936943F4006393612268936923F4806367
:102F6000936122689369296943EA01239361E4E745
:102F70000068FFF745FD2268D36943F00803D36179
:102F80002268D36923F00403D3612268D3692969D5
:102F90000B43D361D1E70068FFF766FD2268D36970
:102FA00043F40063D3612268D36923F48063D3615F
:102FB0002268D369296943EA0123D361BDE7006828
:102FC000FFF70AFF2268536D43F008035365226838
:102FD000536D23F0040353652268536D29690B4335
:102FE0005365AAE70068FFF721FF2268536D43F499
:102FF000006353652268536D23F480635365226830
:10300000536D296943EA0123536596E702209AE745
:103010002DE9F04105460F4616469846069C2B685A
:10302000DB6937EA03030CBF01230023B3421DD140
:10303000B4F1FF3FF3D02CB101F056FBA0EB080038
:10304000A042ECD32A68136823F4D07313602A6873
:10305000936823F001039360202385F8693085F895
:103060006A30002385F86830032000E00020BDE8C6
:10307000F081000010B50446836802691343426979
:103080001343C2691343016808689D4A0240134311
:103090000B602268536823F44053E1680B4353608C
:1030A000A369226A1A4321688B6823F430631343AF
:1030B0008B602368934A934219D0934A93422AD053
:1030C000924A934240D0924A934255D0914A9342B9
:1030D0006AD0914A934200F08280904A934200F075
:1030E00099808F4A934200F0B0801022C9E002F527
:1030F0009432D2F8902002F00302032A03D8DFE8CA
:1031000002F0BF0604081022BBE00222B9E004224C
:10311000B7E00822B5E002F5FA32D2F8902002F0CA
:103120000C020C2A08D8DFE802F0BA0707070B07E1
:103130000707090707070D001022A2E00222A0E0FE
:1031400004229EE008229CE002F5F832D2F890209A
:1031500002F03002102A0DD005D9202A08D0302ADA
:1031600004D108228DE00AB900228AE0102288E00A
:10317000022286E0042284E002F5F632D2F89020A2
:1031800002F0C002402A0DD005D9802A08D0C02AFA
:1031900004D1082275E00AB9002272E0102270E022
:1031A00002226EE004226CE002F5F432D2F89020A4
:1031B00002F44072B2F5807F0FD007D9B2F5007FDC
:1031C00009D0B2F5407F04D108225AE00AB90022A2
:1031D00057E0102255E0022253E0042251E002F5AC
:1031E0009232D2F8902002F44062B2F5806F0FD094
:1031F00007D9B2F5006F09D0B2F5406F04D10822AB
:103200003FE00AB901223CE010223AE0022238E015
:10321000042236E002F5E032D2F8902002F4405267
:10322000B2F5805F0FD007D9B2F5005F09D0B2F5D3
:10323000405F04D1082224E00AB9002221E01022D4
:103240001FE002221DE004221BE002F5DE32D2F86C
:10325000902002F44042B2F5804F0FD007D9B2F56A
:10326000004F09D0B2F5404F04D1082209E00AB955
:10327000002206E0102204E0022202E0042200E024
:103280000122E169B1F5004F0BD0082A00F29B80C2
:10329000DFE802F0616D7999839999998F00002296
:1032A000EFE7082A54D8DFE802F0051722533F530E
:1032B00053534A0000F03EFC6268530803EB40039E
:1032C000B3FBF2F39BB2002023F00F02C3F34203DF
:1032D00013432268D36010BD00F03CFC62685308C1
:1032E00003EB4003B3FBF2F39BB20020ECE7626810
:1032F0000C4B03EB5203B3FBF2F39BB20020E3E76A
:10330000F369FFEF00100140004400400048004016
:10331000004C004000500040001401400078004084
:10332000007C00400048E80100F0F8FA62685308A9
:1033300003EB4003B3FBF2F39BB20020C4E76268E7
:10334000530803F58033B3FBF2F39BB20020BBE7D5
:1033500001200023B8E700F0EDFB636800EB5300A9
:10336000B0FBF3F0236880B2D8600020B3E700F030
:10337000F1FB636800EB5300B0FBF3F0236880B20D
:10338000D8600020A7E76168104A02EB5102B2FB47
:10339000F1F292B2DA6000209DE700F0BFFA6368B4
:1033A00000EB5300B0FBF3F0236880B2D86000203C
:1033B00091E761684A0802F50042B2FBF1F292B26D
:1033C000DA60002087E7012085E700BF0024F400D1
:1033D000436A13F0010F06D00268536823F40033E8
:1033E000816A0B435360436A13F0020F06D00268F0
:1033F000536823F48033C16A0B435360436A13F06C
:10340000040F06D00268536823F48023016B0B433A
:103410005360436A13F0080F06D00268536823F420
:103420000043416B0B435360436A13F0100F06D007
:103430000268936823F48053816B0B439360436A63
:1034400013F0200F06D00268936823F40053C16B79
:103450000B439360436A13F0400F0AD0026853682D
:1034600023F48013016C0B435360036CB3F5801F8E
:103470000BD0436A13F0800F06D00268536823F420
:103480000023816C0B43536070470268536823F438
:10349000C003416C0B435360EBE710B582B00446A8
:1034A0000023C36601F020F92268126812F0080FA9
:1034B00009D1202384F8693084F86A30002084F828
:1034C000680002B010BD6FF07E43009303460022F7
:1034D0004FF400112046FFF79BFD0028E9D00320A0
:1034E000EFE778B310B5044690F869300BB32423A6
:1034F00084F869302268136823F0010313602046C2
:10350000FFF7B8FD012813D0636ABBB9226853687E
:1035100023F4904353602268936823F02A03936056
:103520002268136843F0010313602046FFF7B5FFDC
:1035300010BD80F86830FDF751FED8E72046FFF750
:1035400047FFE3E701207047002800F0DB8170B5FA
:1035500082B00446036813F0010F29D0A24B9B6888
:1035600003F00C03042B1AD09F4B9B6803F00C0351
:10357000082B0FD06368B3F5803F40D0002B54D1A7
:10358000994B1A6822F480321A601A6822F4802259
:103590001A6039E0944B5B6813F4800FEAD0924BC9
:1035A0001B6813F4003F03D06368002B00F0AC816C
:1035B000236813F0020F75D08B4B9B6813F00C0F30
:1035C0005ED0894B9B6803F00C03082B53D0E36853
:1035D000002B00F08A80844A136843F001031360D3
:1035E00001F082F80546804B1B6813F0020F73D17F
:1035F00001F07AF8401B0228F5D9032087E17A4AC6
:10360000136843F48033136063682BB301F06CF8E4
:103610000546754B1B6813F4003FC9D101F064F8EF
:10362000401B6428F5D9032071E1B3F5A02F09D020
:103630006D4B1A6822F480321A601A6822F48022D4
:103640001A60E1E7684B1A6842F480221A601A682F
:1036500042F480321A60D7E701F046F80546624B23
:103660001B6813F4003FA3D001F03EF8401B642810
:10367000F5D903204BE15C4B5B6813F4800FA6D1B6
:10368000594B1B6813F0020F04D0E368012B01D0E3
:1036900001203CE1544A136823F0F803216943EA0E
:1036A000C1031360236813F0080F46D0636983B326
:1036B0004D4A536F43F00103536701F015F8054677
:1036C000494B5B6F13F0020F37D101F00DF8401B2F
:1036D0000228F5D903201AE1434A136823F0F803BE
:1036E000216943EAC1031360DCE73F4A136823F012
:1036F0000103136000F0F8FF05463B4B1B6813F015
:10370000020FCFD000F0F0FF401B0228F5D90320B4
:10371000FDE0354A536F23F00103536700F0E4FFE7
:103720000546314B5B6F13F0020F06D000F0DCFF53
:10373000401B0228F5D90320E9E0236813F0040FA9
:103740007ED0294B1B6C13F0805F1ED1264B1A6C68
:1037500042F080521A641B6C03F080530193019B6A
:103760000125224B1B6813F4807F10D0A368012B26
:1037700021D0002B3CD11C4B1A6F22F001021A679A
:103780001A6F22F004021A671AE00025E9E7174AC7
:10379000136843F48073136000F0A6FF0646134BD2
:1037A0001B6813F4807FE1D100F09EFF801B64282A
:1037B000F5D90320ABE00C4A136F43F00103136704
:1037C000A3685BB300F090FF0646074B1B6F13F036
:1037D000020F34D100F088FF801B41F288339842F9
:1037E000F3D9032093E000BF00380240007000408E
:1037F000052B09D0484B1A6F22F001021A671A6F85
:1038000022F004021A67DBE7434B1A6F42F004020E
:103810001A671A6F42F001021A67D1E700F064FFDD
:1038200006463D4B1B6F13F0020F08D000F05CFF03
:10383000801B41F288339842F3D9032067E0F5B941
:10384000A369002B62D0344A926802F00C02082A65
:103850005FD0022B19D0304A136823F080731360B5
:1038600000F042FF04462C4B1B6813F0007F47D04A
:1038700000F03AFF001B0228F5D9032047E0264A52
:10388000136C23F080531364DAE7234A136823F0A0
:103890008073136000F028FF05461F4B1B6813F070
:1038A000007F06D000F020FF401B0228F5D903203E
:1038B0002DE0E369226A1343626A43EA8213A26A33
:1038C0005208013A43EA0243E26A43EA026343F0E0
:1038D0000053114A5360136843F08073136000F083
:1038E00003FF04460C4B1B6813F0007F06D100F069
:1038F000FBFE001B0228F5D9032008E0002006E0AB
:10390000002004E001207047012000E0002002B008
:1039100070BD0120FBE700BF00380240264B9B68CA
:1039200003F00C03042B44D0082B01D0234870472C
:103930002DE9F04B204B5A6802F03F025B6813F40C
:10394000800F13D01C4B5968C1F3881100231C4809
:10395000A1FB0001FCF75CFC174B5B68C3F3014360
:1039600001335B00B0FBF3F0BDE8F08B124B5B68FA
:10397000C3F388131E4600275C010025E41A65EB9B
:103980000705A90141EA9461A001001B61EB050153
:10399000CB0043EA5073C400A01943EB07018B022C
:1039A00043EA90538402204619460023FCF730FC7A
:1039B000D2E70348704700BF003802400024F400FB
:1039C00080BA8C01002800F0A28070B50446524BEA
:1039D0001B6803F00F038B420CD24F4A136823F08D
:1039E0000F030B431360136803F00F038B4201D0E6
:1039F000012070BD236813F0020F17D013F0040FDD
:103A000004D0464A936843F4E0539360236813F06C
:103A1000080F04D0414A936843F4604393603F4ADF
:103A2000936823F0F003A068034393600D46236876
:103A300013F0010F31D06368012B20D0022B25D069
:103A4000364A126812F0020F63D034498A6822F0B5
:103A5000030213438B6000F047FE06462F4B9B6822
:103A600003F00C036268B3EB820F16D000F03CFE4B
:103A7000801B41F288339842F0D90320B9E7274AE6
:103A8000126812F4003FE0D10120B2E7234A126825
:103A900012F0007FD9D10120ABE71F4B1B6803F068
:103AA0000F03AB420CD91C4A136823F00F032B43BE
:103AB0001360136803F00F03AB4201D0012098E7B5
:103AC000236813F0040F06D0144A936823F4E053DC
:103AD000E1680B439360236813F0080F07D00F4A87
:103AE000936823F46043216943EAC1039360FFF7BD
:103AF00015FF0A4B9B68C3F30313094AD35CD840F4
:103B0000084B18600020FDF705FC002071E701203C
:103B1000704701206DE700BF003C024000380240C2
:103B2000CC55000804000020014B1868704700BF06
:103B30000400002008B5FFF7F7FF044B9B68C3F3B0
:103B40008223034AD35CD84008BD00BF003802403E
:103B5000DC55000808B5FFF7E7FF044B9B68C3F38B
:103B60004233034AD35CD84008BD00BF003802404E
:103B7000DC5500080F2303600B4B9A6802F0030228
:103B800042609A6802F0F00282609A6802F4E052A1
:103B9000C2609B68DB0803F4E0530361034B1B68BE
:103BA00003F00F030B60704700380240003C0240F6
:103BB000F0B583B00446036813F0010F0CD0AF4B8F
:103BC0009A6822F400029A609A68416B0A439A60EC
:103BD000436BC3B1002600E00026236813F4002FD6
:103BE00015D0A64AD2F88C3023F44013E16B0B4376
:103BF000C2F88C30E36BB3F5801F06D0002B00F0C9
:103C00001B81002504E00126E7E70126F6E70025F1
:103C1000236813F4801F0FD0984AD2F88C3023F415
:103C20004003216C0B43C2F88C30236CB3F5800F3A
:103C300000F0048103B90125236813F0807F00D0D0
:103C4000012613F0200F40F0FB80236813F0100FC3
:103C50000CD08A4BD3F88C2022F08072C3F88C20D1
:103C6000D3F88C20A16B0A43C3F88C20236813F48B
:103C7000804F08D0814AD2F8903023F44033616EEF
:103C80000B43C2F89030236813F4004F08D07B4AEE
:103C9000D2F8903023F44023A16E0B43C2F8903049
:103CA000236813F4803F08D0744AD2F8903023F48C
:103CB0004013E16E0B43C2F89030236813F4003FC9
:103CC00008D06E4AD2F8903023F44003216F0B43A2
:103CD000C2F89030236813F0400F08D0674AD2F83A
:103CE000903023F00303616C0B43C2F890302368DB
:103CF00013F0800F08D0614AD2F8903023F00C0303
:103D0000A16C0B43C2F89030236813F4807F08D075
:103D10005A4AD2F8903023F03003E16C0B43C2F8DA
:103D20009030236813F4007F08D0544AD2F89030C2
:103D300023F0C003216D0B43C2F89030236813F4C5
:103D4000806F08D04D4AD2F8903023F44073616DF3
:103D50000B43C2F89030236813F4006F08D0474A31
:103D6000D2F8903023F44063A16D0B43C2F8903039
:103D7000236813F4805F08D0404AD2F8903023F4CF
:103D80004053E16D0B43C2F89030236813F4005F99
:103D900008D03A4AD2F8903023F44043216E0B43C6
:103DA000C2F89030236813F4800F08D0334AD2F859
:103DB000903023F08063A16F0B43C2F890302368EA
:103DC00013F4001F0DD02D4AD2F8903023F0006379
:103DD000E16F0B43C2F89030E36FB3F1006F00F076
:103DE0009980236813F0080F00D0012513F4802F69
:103DF00008D0224AD2F8903023F04073616F0B4311
:103E0000C2F89030236813F4000F09D01B4AD2F88F
:103E1000903023F08053D4F880100B43C2F89030D8
:103E2000002E79D12368B3F1007F75D0002D40F0CA
:103E30000681002003B0F0BD0125E9E60126F9E680
:103E40000E4B1A6C42F080521A641B6C03F08053C4
:103E50000193019B0A4A136843F48073136000F0D6
:103E600043FC0746064B1B6813F4807F0AD100F021
:103E70003BFCC01B6428F5D90320DBE70038024077
:103E800000700040B34B1B6F13F4407315D0226BCE
:103E900002F440729A4210D0AE4B1A6F22F4407274
:103EA000196F41F480311967196F21F48031196756
:103EB0001A671B6F13F0010F12D1236B03F44072CA
:103EC000B2F5407F1DD0A34A936823F4F8139360A2
:103ED000A0490B6F226BC2F30B0213430B67B4E6CE
:103EE00000F002FC07469B4B1B6F13F0020FE4D15E
:103EF00000F0FAFBC01B41F288339842F3D903204B
:103F000098E79448826822F4F812934919400A43CA
:103F10008260DDE7012564E78E4A136823F0806341
:103F2000136000F0E1FB06468A4B1B6813F0006F3C
:103F300006D000F0D9FB801B6428F5D9032079E76F
:103F4000236813F0010F13D0636B8BB9814AD2F849
:103F50008430D2F88410606803F4403343EA80135D
:103F600001F070610B43A16843EA0173C2F8843029
:103F7000236813F4002F03D0E26BB2F5801F06D044
:103F800013F4801F1ED0236CB3F5800F1AD1714A31
:103F9000D2F88430D2F88410606803F4403343EAE6
:103FA0008013E06843EA006301F0E0410B43C2F88C
:103FB0008430D2F88C3023F01F03616A01390B433F
:103FC000C2F88C30236813F0807F11D0614AD2F898
:103FD0008400D2F88410666823691B0443EA8613C0
:103FE00000F07060034301F0E0410B43C2F88430FD
:103FF000236813F0007F0DD0626823691B0443EA35
:104000008213E26843EA0263A26843EA0273514AF8
:10401000C2F884304F4A136843F08063136000F0A5
:1040200063FB06464B4B1B6813F0006F7FF4FEAE3C
:1040300000F05AFB801B6428F4D90320FAE6454AB5
:10404000136823F08053136000F04EFB0546414B8C
:104050001B6813F0005F06D000F046FB401B64288D
:10406000F5D90320E6E6236813F4002F01D0E26BB4
:1040700022B113F4801F1DD0236CDBB9354AD2F86E
:104080008830D2F88810606903F4403343EA801323
:10409000A06943EA006301F0E0410B43C2F88830B5
:1040A000D2F88C3023F4F853A16A013943EA012392
:1040B000C2F88C30236813F4001F03D0E36FB3F110
:1040C000006F31D0236813F0080F19D0214AD2F8BD
:1040D0008810D2F88830606903F4403343EA8013D3
:1040E00001F070610B43E16943EA0173C2F8883063
:1040F000D2F88C3023F44033E16A0B43C2F88C30A1
:10410000144A136843F08053136000F0EDFA04463C
:10411000104B1B6813F0005F19D100F0E5FA001B8B
:104120006428F5D9032085E60A4AD2F88800D2F837
:1041300088106569236A1B0443EA851300F07060E8
:10414000034301F0E0410B43C2F88830BAE7002096
:1041500070E600BF00380240FFFCFF0F00230F2B6A
:1041600000F2E280F0B482B039E0092200E00022DF
:10417000B2403A4302346D4E46F824206C4A14682B
:10418000EA4302EA04064F6817F4803F01D045EA8B
:104190000406674C2660646802EA04064F6817F458
:1041A000003F01D045EA0406614C6660A46802EA5B
:1041B00004064F6817F4801F01D045EA04065C4CE2
:1041C000A660E46822404E6816F4001F01D045EA5C
:1041D0000402574CE26001330F2B00F2A28001224F
:1041E0009A400C6804EA0205AA42F4D14C68122CE9
:1041F00018BF022C10D1DE08083650F826C003F094
:104200000704A7000F24BC402CEA040C0C69BC4036
:1042100044EA0C0440F8264004685F000326BE40D0
:10422000F64306EA040C4C6804F00304BC4044EA7C
:104230000C0404604C6804F1FF3C112C18BFBCF165
:10424000010F01D9122C11D1846806EA040CCC6844
:10425000BC4044EA0C048460446824EA020C4C68C4
:10426000C4F300129A4042EA0C024260C26816404F
:104270008A68BA403243C2604A6812F0805FAAD0AE
:104280002C4A546C44F480445464526C02F48042CE
:104290000192019A9C08A61C244A52F8267003F049
:1042A000030296000F22B24027EA0207224A9042F8
:1042B0003FF45DAF02F58062904222D002F5806249
:1042C000904220D002F5806290421ED002F58062BA
:1042D00090421CD002F5806290421AD002F58062B2
:1042E000904218D002F58062904216D002F58062AA
:1042F000904214D002F5806290423FF436AF0A2219
:1043000036E7012234E7022232E7032230E70422B3
:104310002EE705222CE706222AE7072228E70822B3
:1043200026E702B0F0BC7047704700BF003801407C
:10433000003C0140003802400000024012B909046C
:1043400081617047816170470268D3B2103B0949AF
:10435000A1FB03131B090849C95CC165032B04D8E1
:10436000064B13408365806D7047044B1340043344
:104370008365F8E7ABAAAAAAC455000800FCFFFFB2
:10438000836A826992B9012B0AD01BB1022B01D03A
:1043900000207047C36A13F0807F2CD10020704743
:1043A000C36AB3F1C07F28D000207047B2F5005F28
:1043B00005D0022B29D9032B15D000207047032BE1
:1043C00003D8DFE803F01C041C0A00207047C36A0E
:1043D00013F0807F15D100207047C36AB3F1C07F0E
:1043E00011D000207047C36A13F0807F01D00120F4
:1043F000704700207047012070470120704701205E
:10440000704701207047012070470120704700006D
:1044100070B5044600F068F9002C5BD00546002317
:1044200084F83430022384F835302268136823F08E
:104430000103136023681A6812F0010F0AD000F01C
:1044400053F9401B0528F5D920236365032084F820
:10445000350070BD1A68204810406168A2680A43A0
:10446000E1680A4321690A4361690A43A1690A4371
:10447000E1690A43216A0A430243616A04291ED0A2
:104480001A602668756925F00705636A1D43042BC9
:1044900007D1A36A1D43E36A1BB12046FFF770FFF3
:1044A00090B975612046FFF74FFFE26D3F239340BF
:1044B000836000206065012384F83530C9E7E16A34
:1044C000206B01430A43DBE740236365012084F846
:1044D0003500BEE70120BCE73F8010F0F0B583B0A7
:1044E000044600230193724B1D68724BA3FB0535F4
:1044F000AD0A876D3E68C26D08239340334210D0E9
:1045000003681A6812F0040F0BD01A6822F0040234
:104510001A60C26D08239340BB60436D43F00103F2
:104520004365E26D01239340334209D0226852690A
:1045300012F0800F04D0BB60636D43F0020363652B
:10454000E26D04239340334209D02268126812F0CE
:10455000020F04D0BB60636D43F004036365E26D3A
:1045600010239340334224D02268126812F0080FBF
:104570001FD0BB6023681A6812F4802F0DD01B680F
:1045800013F4002F04D1236C9BB12046984710E010
:10459000A36C73B1204698470BE01A6812F4807F31
:1045A00003D11A6822F008021A60236C0BB120466E
:1045B0009847E26D20239340334255D02268126819
:1045C00012F0100F50D0BB6094F83530DBB2052BE1
:1045D0000ED023681A6812F4802F33D01B6813F4AE
:1045E000002F2AD1636C002B3ED0204698473BE039
:1045F0002268136823F0160313602268536923F0BE
:1046000080035361236CA3B12268136823F008036D
:104610001360E26D3F239340BB60002384F8343085
:10462000012384F83530236D002B3FD02046984776
:104630003CE0A36C002BE7D1EBE7E36BA3B1204692
:10464000984711E01A6812F4807F09D11A6822F0A5
:1046500010021A60002384F83430012384F83530C6
:10466000E36B0BB120469847636DFBB1636D13F0AC
:10467000010F17D0052384F835302268136823F022
:1046800001031360019B01330193AB4204D82368FB
:104690001B6813F0010FF5D1002384F83430012397
:1046A00084F83530E36C0BB12046984703B0F0BD79
:1046B00004000020B5814E1B08B50320FCF7FEFF67
:1046C0000020FCF727FEFCF7DDFD002008BD000000
:1046D000034A1168034B1B780B441360704700BFFB
:1046E0006C42002000000020014B1868704700BF9A
:1046F0006C42002038B50446FFF7F6FF0546B4F1DA
:10470000FF3F02D0044B1B781C44FFF7EDFF401B1A
:10471000A042FAD338BD00BF0000002010B40F4AF9
:10472000D2F8883043F47003C2F888300C4B196813
:1047300041F001011960002098601C68094921407E
:10474000196009495960196821F480211960D860FD
:104750004FF0006393605DF8044B704700ED00E09C
:1047600000380240FFFFF6FE10300024124A12F01B
:10477000070F1ED0D11D21F00701C1F5705313445E
:104780000A460E480260002141601344083B23F0B2
:1047900007030B48036059601960991A5160136050
:1047A000084B1960084B1960084B4FF000421A6023
:1047B00070474FF47053E4E72C000020383C002091
:1047C00028000020343C0020303C00202C3C0020FD
:1047D00010B4134B1A6882421BD359685C18844288
:1047E00003D1406801445960184641684418A24208
:1047F00013D10C4C2468A2420DD052681144416080
:104800001A6812680260984200D018605DF8044B84
:1048100070471346DEE70460F5E70260F3E700BF88
:10482000383C00202800002070B5044600F008FC49
:104830003D4B1B68CBB13D4B1B681C4269D1BCB1E1
:10484000083414F0070F13D024F00704083404F0E0
:1048500007036BB14FF0500372B683F31188BFF3B7
:104860006F8FBFF34F8F62B6FEE7FFF77FFFE2E780
:10487000002C50D02E4B1B68A3424ED32D4B1D68ED
:1048800001E02B4615466A68A24202D22A68002A35
:10489000F7D1254A1268AA4241D01E6808362A6814
:1048A0001A606B681B1B102B12D9281910F0070F08
:1048B0000AD04FF0500372B683F31188BFF36F8FA5
:1048C000BFF34F8F62B6FEE743606C60FFF780FF77
:1048D0006A6817490B689B1A0B60174909688B4275
:1048E00001D215490B60114B1B6813436B60002309
:1048F0002B6000F03BFC16F0070F12D04FF0500376
:1049000072B683F31188BFF36F8FBFF34F8F62B618
:10491000FEE70026EDE70026EBE70026E9E70026A4
:10492000E7E7304670BD00BF280000202C3C002087
:10493000303C0020383C0020343C0020002834D09B
:1049400038B50446A0F1080550F8042C1749096849
:104950000A420AD14FF0500372B683F31188BFF3B5
:104960006F8FBFF34F8F62B6FEE750F8080C50B15F
:104970004FF0500372B683F31188BFF36F8FBFF30C
:104980004F8F62B6FEE722EA010244F8042C00F0E1
:1049900057FB54F8041C064A13680B44136028465E
:1049A000FFF716FF00F0E2FB38BD70472C3C0020FB
:1049B000303C00200D4B1B68B3F1FF3F0AD04FF095
:1049C000500372B683F31188BFF36F8FBFF34F8F1D
:1049D00062B6FEE74FF0500372B683F31188BFF35F
:1049E0006F8FBFF34F8F62B6FEE700BF0800002055
:1049F00006480068006880F3088862B661B6BFF3B5
:104A00004F8FBFF36F8F00DF00BF000008ED00E0A5
:104A1000DFF80C00016841F470010160704700008C
:104A200088ED00E04FF0807340F8043C21F0010174
:104A300040F8081C054B40F80C3C40F8202C6FF067
:104A4000020340F8243C4438704700BFB5490008D1
:104A5000074B19680868B0E8F04F80F30988BFF386
:104A60006F8F4FF0000080F311887047AFF3008024
:104A7000483C00204FF0500372B683F31188BFF317
:104A80006F8FBFF34F8F62B60B4A13680133136009
:104A9000012B00D07047094B1B6813F0FF0FF9D0B2
:104AA0004FF0500372B683F31188BFF36F8FBFF3DB
:104AB0004F8F62B6FEE700BF0800002004ED00E063
:104AC0000A4B1B6853B94FF0500372B683F3118839
:104AD000BFF36F8FBFF34F8F62B6FEE7013B034A10
:104AE00013600BB983F31188704700BF08000020E2
:104AF000EFF30980BFF36F8F154B1A681EF0100F8C
:104B000008BF20ED108A20E9F04F10604DF8043DF9
:104B10004FF0500072B680F31188BFF34F8FBFF390
:104B20006F8F62B600F008FC4FF0000080F3118830
:104B300008BC19680868B0E8F04F1EF0100F08BFF5
:104B4000B0EC108A80F30988BFF36F8F704700BF05
:104B5000483C002008B54FF0500372B683F311882B
:104B6000BFF36F8FBFF34F8F62B600F071FA18B1C9
:104B7000034B4FF080521A60002383F3118808BD65
:104B800004ED00E0064B1B68064AA2FB03239B09C9
:104B9000013B054A1360054B07221A60704700BFAE
:104BA00004000020D34D621014E000E010E000E0AB
:104BB00000B583B0224B1A78D2B20192FF221A704C
:104BC0001B78DBB28DF803309DF8033003F05003FF
:104BD0001C4A13701C4B07221A6009E01A4A13681A
:104BE000013B13609DF803305B00DBB28DF80330AE
:104BF0009DF8033013F0800FF0D1134A13681B02A5
:104C000003F4E0631360019BDBB20D4A13700F4B9A
:104C10001A6842F470021A601A6842F070421A6010
:104C2000FFF7B0FF0A4B00221A60FFF7F1FE094AB6
:104C3000136843F040431360FFF7DAFEFFF7BAFE54
:104C400000E400E0403C0020443C002020ED00E077
:104C50000800002034EF00E000F1080343604FF04B
:104C6000FF328260C360036100230360704700234A
:104C70000361704743684B609A688A609A68516024
:104C800099600861036801330360704730B40D68B0
:104C9000B5F1FF3F02D000F1080202E0026904E032
:104CA0001A4653681C68AC42FAD953684B60996045
:104CB0008A605160086103680133036030BC70474B
:104CC00003694268816891608268416851605A68EE
:104CD000824205D0002202611868013818607047CE
:104CE00082685A60F6E70000084B1B681B683BB1FE
:104CF000064B1B68DB68DB685A68054B1A60704717
:104D0000034B4FF0FF321A60704700BF4C3C00204D
:104D1000243D002010B50446006BFFF70FFE20462F
:104D2000FFF70CFE10BD2DE9F04780469946089D1F
:104D3000099F0A9C266B6FF04043134406EB8306E1
:104D400026F0070600230F2B07D8C85CE21882F86C
:104D50003400CA5C0AB10133F5E7002384F843301C
:104D6000062D00D90625E56265644FF0000AC4F8F7
:104D700048A0201DFFF77BFF04F11800FFF777FF25
:104D80002461C5F10705A5616462C4F84CA084F8EC
:104D900050A04A4641463046FFF744FE206007B126
:104DA0003C60BDE8F087000038B5002407E004EB64
:104DB000840293000E481844FFF74EFF0134062C7E
:104DC000F5D90C4D2846FFF747FF0B4C2046FFF75F
:104DD00043FF0A48FFF740FF0948FFF73DFF094836
:104DE000FFF73AFF084B1D60084B1C6038BD00BF41
:104DF000543C0020F83C00200C3D00202C3D0020BD
:104E0000583D0020443D00204C3C0020503C0020F8
:104E100010B50446FFF72EFE204A136801331360D5
:104E20001F4B1B685BB11F4B1B686BB91C4B1B688E
:104E3000DA6AE36A9A4207D8194B1C6004E0184BFF
:104E40001C601368012B26D0174A136801331360C6
:104E5000E36A01229A401549086802430A6003EB9D
:104E600083039A00211D12481044FFF703FFFFF748
:104E700027FE0C4B1B686BB1094B1B68DA6AE36AAF
:104E80009A4207D20B4B4FF080521A60BFF34F8FFC
:104E9000BFF36F8F10BDFFF787FFD5E7E03C002021
:104EA000483C0020403D0020F03C0020F43C002025
:104EB000543C002004ED00E070B504460E461F4B44
:104EC0001D681F4B18680430FFF7FAFE50B91C4BE1
:104ED0001B68DA6A012303FA02F21A490B6823EA13
:104EE00002030B60B4F1FF3F14BF00230123002E27
:104EF00008BF00239BB92C44114B1B685C60A54282
:104F000014D8114B18680E4B19680431FFF7BEFE18
:104F10000E4B1B68A34210D90C4B1C600DE0084BD4
:104F2000196804310A48FFF7A5FE06E0094B186826
:104F3000034B19680431FFF7A9FE70BD6C3D0020DA
:104F4000483C0020F43C00204C3C0020243D002044
:104F5000443D0020503C00202DE9F04385B0074639
:104F60008846154699469000FFF75EFCF8B1064664
:104F70005420FFF759FC0446A8B10663D4B10023BE
:104F8000039302940D9B01930C9B00934B462A467E
:104F900041463846FFF7C7FE2046FFF739FF01209C
:104FA00005B0BDE8F0833046FFF7C8FCE6E74FF0F8
:104FB000FF30F5E74FF0FF30F2E7000000B583B0B7
:104FC000194B019300230093802218491848FFF7DA
:104FD000C3FF012805D0B0F1FF3F19D003B05DF841
:104FE00004FB4FF0500372B683F31188BFF36F8F49
:104FF000BFF34F8F62B60F4B4FF0FF321A600E4B6C
:1050000001221A600D4B00221A60FFF7D1FDE5E77F
:105010004FF0500372B683F31188BFF36F8FBFF365
:105020004F8F62B6FEE700BF203D0020E455000828
:1050300011530008243D0020403D00206C3D00201D
:10504000024A136801331360704700BFEC3C002034
:10505000F8B53B4B1B68002B66D13A4B1D680135F8
:105060001D60D5B9384B1B681B6853B14FF0500316
:1050700072B683F31188BFF36F8FBFF34F8F62B6A1
:10508000FEE7314A1168314B186810601960304AE8
:10509000136801331360FFF727FE2E4B1B68AB42EA
:1050A00038D900242C4B1B68DB6A03EB83039A007E
:1050B0002A4B9B58012B3CD901243AE00124224B76
:1050C0001B681B6843B3204B1B68DB68DE68736892
:1050D0009D4226D3371D3846FFF7F2FDB36A1BB158
:1050E00006F11800FFF7ECFDF36A01229A401C4913
:1050F000086802430A6003EB83039A0039461748A5
:105100001044FFF7B7FDF26A134B1B68DB6A9A4243
:10511000D4D2D4E70024D2E70E4B4FF0FF321A600E
:10512000C0E70C4A1360BDE70E4A136801331360F1
:1051300000240D4B1B6803B101242046F8BD00BFBD
:10514000EC3C00206C3D00204C3C0020503C0020FA
:10515000283D0020243D0020483C0020543C0020F5
:10516000F43C0020E83C0020703D002038B5344B72
:105170001B6853B94FF0500372B683F31188BFF325
:105180006F8FBFF34F8F62B6FEE7FFF773FC2C4BB8
:105190001A68013A1A601B68002B4DD1294B1B6815
:1051A00023B90024FFF78CFC204638BD0024264B91
:1051B0001B681BB3244BDB68DC6804F11800FFF7A5
:1051C0007FFD251D2846FFF77BFDE36A01229A40FB
:1051D0001E49086802430A6003EB83039A002946CC
:1051E0001B481044FFF746FDE26A1A4B1B68DB6A56
:1051F0009A42DCD3184B01221A60D8E70CB1FFF7B2
:1052000073FD164B1C6854B1FFF722FF10B1124B0F
:1052100001221A60013CF7D1104B00221A600E4B9C
:105220001B685BB10E4B4FF080521A60BFF34F8F7B
:10523000BFF36F8F0124B5E70024B3E70024B1E783
:10524000EC3C0020E03C00202C3D0020F43C002001
:10525000543C0020483C0020703D0020E83C0020E9
:1052600004ED00E010B5B8B10446104B1B6853B113
:105270004FF0500372B683F31188BFF36F8FBFF303
:105280004F8F62B6FEE7FFF7DBFE00212046FFF7F7
:1052900013FEFFF76BFF38B9054B4FF080521A60D1
:1052A000BFF34F8FBFF36F8F10BD00BFEC3C0020EA
:1052B00004ED00E0134B1B6813B310B5FFF7C0FEFD
:1052C000114B1C68FFF752FF24B90E4B1B68002BD3
:1052D000F4D110BDFFF7CEFB0B4BDB68DC68201D63
:1052E000FFF7EEFC094A1368013B1360054A136897
:1052F000013B1360FFF7E4FB2046FFF70BFDE4E7FB
:10530000704700BFE43C0020583D0020E03C0020F6
:1053100008B5FFF7CFFF064B1B68012BF9D9054BEA
:105320004FF080521A60BFF34F8FBFF36F8FF0E7DB
:10533000543C002004ED00E0214B1B681BB1214BC5
:1053400001221A6070471F4B00221A601E4B1B6817
:10535000B3FA83F3DBB2C3F11F0303EB83018A00CB
:105360001A498A5852B94FF0500372B683F3118824
:10537000BFF36F8FBFF34F8F62B6FEE710B41348D1
:105380009A00D418A10001444C6864684C601A4427
:1053900091000831084484420BD003EB83039A0048
:1053A0000A4B13445B68DA68094B1A605DF8044BDA
:1053B000704761680548142202FB03025160ECE764
:1053C000EC3C0020703D0020F43C0020543C0020C8
:1053D000483C0020054B1B6833B1054B1B680BB1E3
:1053E000002070470220704701207047403D002098
:1053F000EC3C0020842801D0033070470020704727
:1054000008B5FFF7DBFD002008BDF0B585B00F46FD
:10541000446805680669B0F90800FFF7EBFF03ABC5
:10542000019300903B46B2B229462046FFF794FD17
:10543000012802D1039805B0F0BD0020FBE708B5B4
:10544000034600B901231846FFF70CFF002008BDF2
:1054500008B5FFF7BFFF012801D0FFF77BFB08BDB0
:10546000DFF834D0002103E00C4B5B58435004318B
:105470000B480C4B42189A42F6D30B4A02E0002329
:1054800042F8043B094B9A42F9D3FFF747F900F081
:1054900011F8FBF7C3F8704700000520FC55000821
:1054A000000000200C0000200C00002070420020B2
:1054B000FEE7000070B50D4E0D4CA41BA410002596
:1054C000A54209D10B4E0C4C00F018F8A41BA410F7
:1054D0000025A54205D170BD56F825309847013505
:1054E000EEE756F8253098470135F2E7F455000805
:1054F000F4550008F4550008F8550008F8B500BF49
:10550000F8BC08BC9E467047F8B500BFF8BC08BCA4
:045510009E467047FC
:1055140070550008FD0B00080000000000000000AA
:105524008000000060550008070C0008000000001F
:1055340000000000800000005372632F6D61696EEB
:105544002E6300005372632F6164632E63000000B6
:105554005372632F6461632E630000006469737087
:105564006C61794D616E61676572000064656661A6
:10557400756C745461736B005372632F6932632EBC
:10558400630000005372632F7274632E6300000083
:105594005372632F73646D6D632E63005372632FB4
:1055A4007370692E630000005372632F74696D2E4B
:1055B400630000005372632F75736172742E63006D
:1055C400000610160006101600000000000000007F
:1055D4000102030406070809000000000102030495
:0855E40049444C4500000000A1
:0855EC0054ACFF7F0100000038
:0455F400F5010008B5
:0455F800D1010008D5
:0C55FC00010000000024F400AAAAAAAAE2
:04000005080054613A
:00000001FF
